{
  "_format": "hh-sol-artifact-1",
  "contractName": "EeseeRaribleRouter",
  "sourceName": "contracts/periphery/routers/EeseeRaribleRouter.sol",
  "abi": [
    {
      "inputs": [
        {
          "internalType": "contract IExchangeV2Core",
          "name": "_exchangeV2Core",
          "type": "address"
        },
        {
          "internalType": "contract IEeseeAccessManager",
          "name": "_accessManager",
          "type": "address"
        }
      ],
      "stateMutability": "nonpayable",
      "type": "constructor"
    },
    {
      "inputs": [],
      "name": "CallerNotAuthorized",
      "type": "error"
    },
    {
      "inputs": [],
      "name": "ERC20NotSupported",
      "type": "error"
    },
    {
      "inputs": [],
      "name": "EthDepositRejected",
      "type": "error"
    },
    {
      "inputs": [],
      "name": "InsufficientFunds",
      "type": "error"
    },
    {
      "inputs": [],
      "name": "InvalidAssetClass",
      "type": "error"
    },
    {
      "inputs": [],
      "name": "InvalidDataType",
      "type": "error"
    },
    {
      "inputs": [],
      "name": "TransferNotSuccessful",
      "type": "error"
    },
    {
      "anonymous": false,
      "inputs": [
        {
          "indexed": false,
          "internalType": "address",
          "name": "account",
          "type": "address"
        }
      ],
      "name": "Paused",
      "type": "event"
    },
    {
      "anonymous": false,
      "inputs": [
        {
          "indexed": false,
          "internalType": "address",
          "name": "account",
          "type": "address"
        }
      ],
      "name": "Unpaused",
      "type": "event"
    },
    {
      "inputs": [],
      "name": "PAUSER_ROLE",
      "outputs": [
        {
          "internalType": "bytes32",
          "name": "",
          "type": "bytes32"
        }
      ],
      "stateMutability": "view",
      "type": "function"
    },
    {
      "inputs": [],
      "name": "accessManager",
      "outputs": [
        {
          "internalType": "contract IEeseeAccessManager",
          "name": "",
          "type": "address"
        }
      ],
      "stateMutability": "view",
      "type": "function"
    },
    {
      "inputs": [],
      "name": "exchangeV2Core",
      "outputs": [
        {
          "internalType": "contract IExchangeV2Core",
          "name": "",
          "type": "address"
        }
      ],
      "stateMutability": "view",
      "type": "function"
    },
    {
      "inputs": [
        {
          "internalType": "address",
          "name": "",
          "type": "address"
        },
        {
          "internalType": "address",
          "name": "",
          "type": "address"
        },
        {
          "internalType": "uint256",
          "name": "",
          "type": "uint256"
        },
        {
          "internalType": "bytes",
          "name": "",
          "type": "bytes"
        }
      ],
      "name": "onERC721Received",
      "outputs": [
        {
          "internalType": "bytes4",
          "name": "",
          "type": "bytes4"
        }
      ],
      "stateMutability": "nonpayable",
      "type": "function"
    },
    {
      "inputs": [],
      "name": "pause",
      "outputs": [],
      "stateMutability": "nonpayable",
      "type": "function"
    },
    {
      "inputs": [],
      "name": "paused",
      "outputs": [
        {
          "internalType": "bool",
          "name": "",
          "type": "bool"
        }
      ],
      "stateMutability": "view",
      "type": "function"
    },
    {
      "inputs": [
        {
          "internalType": "bytes",
          "name": "data",
          "type": "bytes"
        },
        {
          "internalType": "address",
          "name": "recipient",
          "type": "address"
        }
      ],
      "name": "purchaseAsset",
      "outputs": [
        {
          "components": [
            {
              "internalType": "address",
              "name": "token",
              "type": "address"
            },
            {
              "internalType": "uint256",
              "name": "tokenID",
              "type": "uint256"
            },
            {
              "internalType": "uint256",
              "name": "amount",
              "type": "uint256"
            },
            {
              "internalType": "enum AssetType",
              "name": "assetType",
              "type": "uint8"
            },
            {
              "internalType": "bytes",
              "name": "data",
              "type": "bytes"
            }
          ],
          "internalType": "struct Asset",
          "name": "asset",
          "type": "tuple"
        },
        {
          "internalType": "uint256",
          "name": "spent",
          "type": "uint256"
        }
      ],
      "stateMutability": "payable",
      "type": "function"
    },
    {
      "inputs": [],
      "name": "unpause",
      "outputs": [],
      "stateMutability": "nonpayable",
      "type": "function"
    },
    {
      "stateMutability": "payable",
      "type": "receive"
    }
  ],
  "bytecode": "0x60c060405234801562000010575f80fd5b50604051620022013803806200220183398181016040528101906200003691906200012c565b5f805f6101000a81548160ff0219169083151502179055506200006a671f78cce1542a4db760c01b6200011260201b60201c565b6200008667582ff87fae6bd0df60c01b6200011260201b60201c565b8173ffffffffffffffffffffffffffffffffffffffff1660808173ffffffffffffffffffffffffffffffffffffffff1681525050620000d667713f60670bb0c99c60c01b6200011260201b60201c565b8073ffffffffffffffffffffffffffffffffffffffff1660a08173ffffffffffffffffffffffffffffffffffffffff168152505050506200016a565b50565b60018060a01b038116811462000129575f80fd5b50565b5f80604083850312156200013e575f80fd5b82516200014b8162000115565b8092505060208301516200015f8162000115565b809150509250929050565b60805160a051612060620001a15f395f81816109a801528181610bb60152610d6001525f81816105ed0152610b2e01526120605ff3fe60806040526004361061007e575f3560e01c80635c975abb1161004d5780635c975abb146101d75780638456cb5914610201578063e63ab1e914610217578063fdcb60681461024157610126565b8063150b7a021461012a5780633e19c9e0146101665780633f4ba83a1461019757806349bb9358146101ad57610126565b3661012657610097678936eb472826e33a60c01b61026b565b3273ffffffffffffffffffffffffffffffffffffffff163373ffffffffffffffffffffffffffffffffffffffff1603610110576100de67393965e786e1c3f360c01b61026b565b6040517f1b10b0f900000000000000000000000000000000000000000000000000000000815260040160405180910390fd5b610124670e93dd2da4ad2bb160c01b61026b565b005b5f80fd5b348015610135575f80fd5b50610150600480360381019061014b919061155a565b61026e565b60405161015d91906115ef565b60405180910390f35b610180600480360381019061017b9190611621565b610281565b60405161018e929190611752565b60405180910390f35b3480156101a2575f80fd5b506101ab610956565b005b3480156101b8575f80fd5b506101c1610b2c565b6040516101ce91906117f2565b60405180910390f35b3480156101e2575f80fd5b506101eb610b50565b6040516101f89190611818565b60405180910390f35b34801561020c575f80fd5b50610215610b64565b005b348015610222575f80fd5b5061022b610d3a565b604051610238919061182a565b60405180910390f35b34801561024c575f80fd5b50610255610d5e565b604051610262919061183a565b60405180910390f35b50565b5f63150b7a0260e01b9050949350505050565b610289611363565b5f61029e6725f0911a50dd98a160c01b61026b565b6102a6610d82565b6102ba672e2f8f02106087d760c01b61026b565b6102ce67b007b56fd96b957160c01b61026b565b6102e2671bd822e1b5080fb560c01b61026b565b6102f66722592d20d62e455f60c01b61026b565b5f85858101906103069190611897565b905061031c67e155358cce2cdb4160c01b61026b565b610330678dc96b5bb1343f6d60c01b61026b565b5f73ffffffffffffffffffffffffffffffffffffffff168160a0015173ffffffffffffffffffffffffffffffffffffffff16146103ad5761037b67f239a742a30bb79360c01b61026b565b6040517f60c87f0d00000000000000000000000000000000000000000000000000000000815260040160405180910390fd5b6103c1673c39a0e82f21581d60c01b61026b565b6103d567e2463033f9f4a2f560c01b61026b565b6103e9673c1df0988415397960c01b61026b565b7f73ad2146b3d3a286642c794379d750360a2d53a3459a11b3e5d6cc900f55f44a7bffffffffffffffffffffffffffffffffffffffffffffffffffffffff191681604001517bffffffffffffffffffffffffffffffffffffffffffffffffffffffff1916146104985761046667d8adc18f8fbfaf2a60c01b61026b565b6040517f01dc516200000000000000000000000000000000000000000000000000000000815260040160405180910390fd5b6104ac677fd55d05fa1a3bcc60c01b61026b565b6104c067462e40b525d139c460c01b61026b565b6104d4679009634785ac2fe860c01b61026b565b5f6104e9826101200151836101c00151610dcc565b90506104ff6743a6d49a81f435e260c01b61026b565b6127108260800151826127106105159190611a32565b6bffffffffffffffffffffffff1661052d9190611a61565b6105379190611a82565b925061054d67d3d7f0c6f372b9a660c01b61026b565b61056167c5f746f4124e83c460c01b61026b565b823410156105af5761057d672d53d5da1749f4cf60c01b61026b565b6040517f356680b700000000000000000000000000000000000000000000000000000000815260040160405180910390fd5b6105c367c9b415cf987b055c60c01b61026b565b6105d7670f9758558267772f60c01b61026b565b6105eb678e8f39a5cab76bfc60c01b61026b565b7f000000000000000000000000000000000000000000000000000000000000000073ffffffffffffffffffffffffffffffffffffffff16630d5f7d3584846040518363ffffffff1660e01b81526004016106459190611ac0565b5f604051808303818588803b15801561065c575f80fd5b505af115801561066e573d5f803e3d5ffd5b505050505061068767246e0047d685586a60c01b61026b565b61069b678772f329ac2ff94160c01b61026b565b3483146107e9576106b6678cdc3a210c580a9160c01b61026b565b6106ca67dedc14d8c4fd45ed60c01b61026b565b6106de67fe1c5b6e3b0673d760c01b61026b565b6106f2679cbbf888cdd8f93860c01b61026b565b5f3373ffffffffffffffffffffffffffffffffffffffff1684340360405161071990611c0a565b5f6040518083038185875af1925050503d805f8114610753576040519150601f19603f3d011682016040523d82523d5f602084013e610758565b606091505b5050905061077067a4dab7f9e162c32c60c01b61026b565b6107846703750a6f79fc969e60c01b61026b565b806107cf5761079d6744ce00fce4ba2f2360c01b61026b565b6040517fa392ef7800000000000000000000000000000000000000000000000000000000815260040160405180910390fd5b6107e367f98b4f3b90d329b160c01b61026b565b506107fe565b6107fd67f6a46e923a71c3b260c01b61026b565b5b61081267668ab8e62bd486bd60c01b61026b565b610826679a0bf9590f7ea4cb60c01b61026b565b5f8083606001518060200190518101906108409190611c13565b915091506108586761ea0ce2a5690d3660c01b61026b565b6040518060a001604052808373ffffffffffffffffffffffffffffffffffffffff168152602001828152602001600181526020015f600581111561089f5761089e6116be565b5b815260200160405180602001604052805f81525081525095506108cc67b7800481b5fb323e60c01b61026b565b6108e06770dfa2d5509c9ec760c01b61026b565b8173ffffffffffffffffffffffffffffffffffffffff166342842e0e3089846040518463ffffffff1660e01b815260040161091d93929190611c41565b5f604051808303815f87803b158015610934575f80fd5b505af1158015610946573d5f803e3d5ffd5b5050505050505050935093915050565b61096a67ca880cbcc0d99dfb60c01b61026b565b61097e675576d36a06bf85bc60c01b61026b565b61099267d54e21c01540853660c01b61026b565b6109a667f6353320336c136860c01b61026b565b7f000000000000000000000000000000000000000000000000000000000000000073ffffffffffffffffffffffffffffffffffffffff166391d148547f65d7a28e3265b37a6474929f336521b332c1681b933f6cb9f3376673440d862a336040518363ffffffff1660e01b8152600401610a21929190611c79565b602060405180830381865afa158015610a3c573d5f803e3d5ffd5b505050506040513d601f19601f82011682018060405250810190610a609190611cbd565b610aaa57610a78676ebd535e707c469260c01b61026b565b6040517fc183bcef00000000000000000000000000000000000000000000000000000000815260040160405180910390fd5b610abe67ce289166515c5abf60c01b61026b565b610ad267f2657e061a29126e60c01b61026b565b610ae6678beaac762c545fbd60c01b61026b565b610afa67b51adf0eb870316a60c01b61026b565b610b0e6718396b872bbac3ad60c01b61026b565b610b2267f308abd61278b4c260c01b61026b565b610b2a61114d565b565b7f000000000000000000000000000000000000000000000000000000000000000081565b5f805f9054906101000a900460ff16905090565b610b78677492f049c342b9d960c01b61026b565b610b8c675576d36a06bf85bc60c01b61026b565b610ba067d54e21c01540853660c01b61026b565b610bb467f6353320336c136860c01b61026b565b7f000000000000000000000000000000000000000000000000000000000000000073ffffffffffffffffffffffffffffffffffffffff166391d148547f65d7a28e3265b37a6474929f336521b332c1681b933f6cb9f3376673440d862a336040518363ffffffff1660e01b8152600401610c2f929190611c79565b602060405180830381865afa158015610c4a573d5f803e3d5ffd5b505050506040513d601f19601f82011682018060405250810190610c6e9190611cbd565b610cb857610c86676ebd535e707c469260c01b61026b565b6040517fc183bcef00000000000000000000000000000000000000000000000000000000815260040160405180910390fd5b610ccc67ce289166515c5abf60c01b61026b565b610ce067f2657e061a29126e60c01b61026b565b610cf467d45bf02b92c4290e60c01b61026b565b610d08673a0540a19b4d2b0960c01b61026b565b610d1c676b84aea1d0388c0360c01b61026b565b610d30672dcb56ccf770574c60c01b61026b565b610d386111ad565b565b7f65d7a28e3265b37a6474929f336521b332c1681b933f6cb9f3376673440d862a81565b7f000000000000000000000000000000000000000000000000000000000000000081565b610d8a610b50565b15610dca576040517f08c379a0000000000000000000000000000000000000000000000000000000008152600401610dc190611cde565b60405180910390fd5b565b5f610de066b4743eb257cbbf60c01b61026b565b610df46706cfd6c0665c1dce60c01b61026b565b610e086718394568ca9c014a60c01b61026b565b7f4c23426613a5dc69e08fbd2787e6210aa679d4522e95a89d4dd88c4fd13a22837bffffffffffffffffffffffffffffffffffffffffffffffffffffffff1916837bffffffffffffffffffffffffffffffffffffffffffffffffffffffff191603610ee857610e806658eeab53e3316560c01b61026b565b610e9467bf5d7e4819c2899f60c01b61026b565b610ea867974423efca1e225560c01b61026b565b5f82806020019051810190610ebd9190611ded565b9050610ed367b6e350538a40c58160c01b61026b565b610ee0816020015161120e565b915050611147565b610efc67dc6f389327712bad60c01b61026b565b610f10673d94f16e56efda1b60c01b61026b565b7f23d235efaf569b2b407d10f447247743508d1762a8e3a3aed85ccc0570dde35f7bffffffffffffffffffffffffffffffffffffffffffffffffffffffff1916837bffffffffffffffffffffffffffffffffffffffffffffffffffffffff191603610ff157610f89671e23987c0a77240060c01b61026b565b610f9d67c3face78e8093adc60c01b61026b565b610fb1672f1984b4b5fa917060c01b61026b565b5f82806020019051810190610fc69190611e7c565b9050610fdc679bc9c6ff6767b8d460c01b61026b565b610fe9816020015161120e565b915050611146565b61100567ff196f1f698c094860c01b61026b565b6110196796eedf517c3e2e4e60c01b61026b565b7f2fa3cfd36fc2a11048e46a7dac1916c392731880ba073f2b7f10566b2fd6133e7bffffffffffffffffffffffffffffffffffffffffffffffffffffffff1916837bffffffffffffffffffffffffffffffffffffffffffffffffffffffff1916036110ff576110926760cb7b6506ff17d660c01b61026b565b6110a6671444fc306e53c9e060c01b61026b565b6110ba67e1193cf444707cda60c01b61026b565b5f828060200190518101906110cf9190611f35565b90506110e56781b297c947ccf87660c01b61026b565b6110f7816020015182604001516112ba565b915050611145565b6111136786f95816c534522060c01b61026b565b6040517ff96cd11200000000000000000000000000000000000000000000000000000000815260040160405180910390fd5b5b5b92915050565b611155611313565b5f805f6101000a81548160ff0219169083151502179055507f5db9ee0a495bf2e6ff9c91a7834c1ba4fdd244a5e8aa4e537bd38aeae4b073aa61119661135c565b6040516111a39190611f9a565b60405180910390a1565b6111b5610d82565b60015f806101000a81548160ff0219169083151502179055507f62e78cea01bee320cd4e420270b5ea74000d11b0c9f74754ebdbfc544b05a2586111f761135c565b6040516112049190611f9a565b60405180910390a1565b5f6112226665339976d34e2560c01b61026b565b61123667dcd688f36e62687f60c01b61026b565b61124a678a70c3e636122ee860c01b61026b565b5f5b82518110156112b457611269671ca1c4a99b4aa0c160c01b61026b565b82818151811061127c5761127b611fc0565b5b602002602001015160200151826112939190611a32565b91506112a9676053c571c774e88d60c01b61026b565b80600101905061124c565b50919050565b5f6112cf6706f9e0b6c57127e360c01b61026b565b6112e36711fee8ece911725b60c01b61026b565b6112f767856591e3e12cffd760c01b61026b565b60a082901c60a084901c61130b9190611a32565b905092915050565b61131b610b50565b61135a576040517f08c379a000000000000000000000000000000000000000000000000000000000815260040161135190611fed565b60405180910390fd5b565b5f33905090565b6040518060a001604052805f73ffffffffffffffffffffffffffffffffffffffff1681526020015f81526020015f81526020015f60058111156113a9576113a86116be565b5b8152602001606081525090565b73ffffffffffffffffffffffffffffffffffffffff811681146113d7575f80fd5b50565b5f813590506113e8816113b6565b919050565b7f4e487b71000000000000000000000000000000000000000000000000000000005f52604160045260245ffd5b5f60405190506101e0810181811067ffffffffffffffff82111715611442576114416113ed565b5b806040525090565b5f60405190506040810181811067ffffffffffffffff82111715611471576114706113ed565b5b806040525090565b5f60405190507fffffffffffffffffffffffffffffffffffffffffffffffffffffffffffffffe0601f830116810181811067ffffffffffffffff821117156114c4576114c36113ed565b5b8060405250919050565b5f82601f8301126114dd575f80fd5b813567ffffffffffffffff8111156114f8576114f76113ed565b5b61152960207fffffffffffffffffffffffffffffffffffffffffffffffffffffffffffffffe0601f84011601611479565b81815284602083860101111561153d575f80fd5b816020850160208301375f60208383010152809250505092915050565b5f805f806080858703121561156d575f80fd5b8435611578816113b6565b80945050602085013561158a816113b6565b8093505060408501359150606085013567ffffffffffffffff8111156115ae575f80fd5b6115ba878288016114ce565b91505092959194509250565b7fffffffff00000000000000000000000000000000000000000000000000000000811682525050565b5f6020820190507fffffffff000000000000000000000000000000000000000000000000000000008316825292915050565b5f805f60408486031215611633575f80fd5b833567ffffffffffffffff8082111561164a575f80fd5b818601915086601f83011261165d575f80fd5b81358181111561166b575f80fd5b87602082850101111561167c575f80fd5b6020830195508094505050506020840135611696816113b6565b809150509250925092565b73ffffffffffffffffffffffffffffffffffffffff811682525050565b7f4e487b71000000000000000000000000000000000000000000000000000000005f52602160045260245ffd5b5f81518084525f5b81811015611715576020808286010151818388010152506020810190506116f3565b505f6020828601015260207fffffffffffffffffffffffffffffffffffffffffffffffffffffffffffffffe0601f83011685010191505092915050565b6040815273ffffffffffffffffffffffffffffffffffffffff835116604082015260208301516060820152604083015160808201525f6060840151600681106117c2577f4e487b71000000000000000000000000000000000000000000000000000000005f52602160045260245ffd5b8060a084015250608084015160a060c08401526117e260e08401826116eb565b9150508260208301529392505050565b5f60208201905073ffffffffffffffffffffffffffffffffffffffff8316825292915050565b5f602082019050821515825292915050565b5f60208201905082825292915050565b5f60208201905073ffffffffffffffffffffffffffffffffffffffff8316825292915050565b5f813590507fffffffff0000000000000000000000000000000000000000000000000000000081168114611892575f80fd5b919050565b5f602082840312156118a7575f80fd5b813567ffffffffffffffff808211156118be575f80fd5b81840191506101e082860312156118d3575f80fd5b6118db61141a565b6118e4836113da565b8152602083013560208201526118fc60408401611860565b6040820152606083013582811115611912575f80fd5b61191e878286016114ce565b6060830152506080830135608082015261193a60a084016113da565b60a082015260c083013560c082015260e083013560e082015261010080840135818301525061012061196d818501611860565b81830152506101408084013583811115611985575f80fd5b611991888287016114ce565b82840152505061016080840135838111156119aa575f80fd5b6119b6888287016114ce565b8284015250506101808084013581830152506101a08084013581830152506101c080840135838111156119e7575f80fd5b6119f3888287016114ce565b82840152505080935050505092915050565b7f4e487b71000000000000000000000000000000000000000000000000000000005f52601160045260245ffd5b5f6bffffffffffffffffffffffff80841681841601915080821115611a5a57611a59611a05565b5b5092915050565b5f82820290508181048314821517611a7c57611a7b611a05565b5b92915050565b5f82611ab5577f4e487b71000000000000000000000000000000000000000000000000000000005f52601260045260245ffd5b828204905092915050565b60208152611ad26020820183516116a1565b602082015160408201525f6040830151611aef60608401826115c6565b5060608301516101e0806080850152611b0c6102008501836116eb565b9150608085015160a085015260a0850151611b2a60c08601826116a1565b5060c085015160e085015260e0850151610100818187015280870151915050610120818187015280870151915050610140611b67818701836115c6565b808701519150507fffffffffffffffffffffffffffffffffffffffffffffffffffffffffffffffe0610160818786030181880152611ba585846116eb565b945080880151925050610180818786030181880152611bc485846116eb565b9450808801519250506101a08281880152808801519250506101c082818801528088015192505080868503018387015250611bff83826116eb565b935050505092915050565b5f819050919050565b5f8060408385031215611c24575f80fd5b8251611c2f816113b6565b80925050602083015190509250929050565b5f60608201905073ffffffffffffffffffffffffffffffffffffffff8086168352808516602084015250826040830152949350505050565b5f60408201905083825273ffffffffffffffffffffffffffffffffffffffff831660208301529392505050565b5f815190508015158114611cb8575f80fd5b919050565b5f60208284031215611ccd575f80fd5b611cd682611ca6565b905092915050565b60208152601060208201527f5061757361626c653a207061757365640000000000000000000000000000000060408201525f606082019050919050565b5f82601f830112611d2a575f80fd5b8151602067ffffffffffffffff821115611d4757611d466113ed565b5b611d55818360051b01611479565b808382528282019150828460061b870101935086841115611d74575f80fd5b8286015b84811015611ddf5760408189031215611d90575f8081fd5b611d9861144a565b8151611da3816113b6565b80825250848201516bffffffffffffffffffffffff81168114611dc5575f8081fd5b808683015250808452508383019250604081019050611d78565b508094505050505092915050565b5f60208284031215611dfd575f80fd5b815167ffffffffffffffff80821115611e14575f80fd5b818401915060408286031215611e28575f80fd5b611e3061144a565b825182811115611e3e575f80fd5b611e4a87828601611d1b565b825250602083015182811115611e5e575f80fd5b611e6a87828601611d1b565b60208301525080935050505092915050565b5f60208284031215611e8c575f80fd5b815167ffffffffffffffff80821115611ea3575f80fd5b818401915060608286031215611eb7575f80fd5b604051606081018181108382111715611ed357611ed26113ed565b5b8060405250825182811115611ee6575f80fd5b611ef287828601611d1b565b825250602083015182811115611f06575f80fd5b611f1287828601611d1b565b602083015250611f2460408401611ca6565b604082015280935050505092915050565b5f60808284031215611f45575f80fd5b6040516080810181811067ffffffffffffffff82111715611f6957611f686113ed565b5b8060405250825181526020830151602082015260408301516040820152606083015160608201528091505092915050565b5f60208201905073ffffffffffffffffffffffffffffffffffffffff8316825292915050565b7f4e487b71000000000000000000000000000000000000000000000000000000005f52603260045260245ffd5b60208152601460208201527f5061757361626c653a206e6f742070617573656400000000000000000000000060408201525f60608201905091905056fea264697066735822122044c89ed85b6667ae6b69a4acf73b49582588254aa07755db65e0f32725f4d6ce64736f6c63430008150033",
  "linkReferences": {},
  "deployedLinkReferences": {}
}