{
  "_format": "hh-sol-artifact-1",
  "contractName": "EeseeNFTDrop",
  "sourceName": "contracts/NFT/EeseeNFTDrop.sol",
  "abi": [
    {
      "inputs": [],
      "name": "ApprovalCallerNotOwnerNorApproved",
      "type": "error"
    },
    {
      "inputs": [],
      "name": "ApprovalQueryForNonexistentToken",
      "type": "error"
    },
    {
      "inputs": [],
      "name": "BalanceQueryForZeroAddress",
      "type": "error"
    },
    {
      "inputs": [],
      "name": "InvalidProof",
      "type": "error"
    },
    {
      "inputs": [],
      "name": "InvalidStage",
      "type": "error"
    },
    {
      "inputs": [],
      "name": "MintERC2309QuantityExceedsLimit",
      "type": "error"
    },
    {
      "inputs": [],
      "name": "MintLimitExceeded",
      "type": "error"
    },
    {
      "inputs": [],
      "name": "MintTimestampNotInFuture",
      "type": "error"
    },
    {
      "inputs": [],
      "name": "MintToZeroAddress",
      "type": "error"
    },
    {
      "inputs": [],
      "name": "MintZeroQuantity",
      "type": "error"
    },
    {
      "inputs": [],
      "name": "MintingEnded",
      "type": "error"
    },
    {
      "inputs": [],
      "name": "MintingNotStarted",
      "type": "error"
    },
    {
      "inputs": [],
      "name": "OwnerQueryForNonexistentToken",
      "type": "error"
    },
    {
      "inputs": [],
      "name": "OwnershipNotInitializedForExtraData",
      "type": "error"
    },
    {
      "inputs": [],
      "name": "PresaleStageLimitExceeded",
      "type": "error"
    },
    {
      "inputs": [],
      "name": "TransferCallerNotOwnerNorApproved",
      "type": "error"
    },
    {
      "inputs": [],
      "name": "TransferFromIncorrectOwner",
      "type": "error"
    },
    {
      "inputs": [],
      "name": "TransferToNonERC721ReceiverImplementer",
      "type": "error"
    },
    {
      "inputs": [],
      "name": "TransferToZeroAddress",
      "type": "error"
    },
    {
      "inputs": [],
      "name": "URIQueryForNonexistentToken",
      "type": "error"
    },
    {
      "inputs": [],
      "name": "ZeroSaleStageDuration",
      "type": "error"
    },
    {
      "anonymous": false,
      "inputs": [
        {
          "indexed": true,
          "internalType": "address",
          "name": "owner",
          "type": "address"
        },
        {
          "indexed": true,
          "internalType": "address",
          "name": "approved",
          "type": "address"
        },
        {
          "indexed": true,
          "internalType": "uint256",
          "name": "tokenId",
          "type": "uint256"
        }
      ],
      "name": "Approval",
      "type": "event"
    },
    {
      "anonymous": false,
      "inputs": [
        {
          "indexed": true,
          "internalType": "address",
          "name": "owner",
          "type": "address"
        },
        {
          "indexed": true,
          "internalType": "address",
          "name": "operator",
          "type": "address"
        },
        {
          "indexed": false,
          "internalType": "bool",
          "name": "approved",
          "type": "bool"
        }
      ],
      "name": "ApprovalForAll",
      "type": "event"
    },
    {
      "anonymous": false,
      "inputs": [
        {
          "indexed": true,
          "internalType": "uint256",
          "name": "fromTokenId",
          "type": "uint256"
        },
        {
          "indexed": false,
          "internalType": "uint256",
          "name": "toTokenId",
          "type": "uint256"
        },
        {
          "indexed": true,
          "internalType": "address",
          "name": "from",
          "type": "address"
        },
        {
          "indexed": true,
          "internalType": "address",
          "name": "to",
          "type": "address"
        }
      ],
      "name": "ConsecutiveTransfer",
      "type": "event"
    },
    {
      "anonymous": false,
      "inputs": [
        {
          "indexed": false,
          "internalType": "uint8",
          "name": "version",
          "type": "uint8"
        }
      ],
      "name": "Initialized",
      "type": "event"
    },
    {
      "anonymous": false,
      "inputs": [
        {
          "indexed": true,
          "internalType": "address",
          "name": "from",
          "type": "address"
        },
        {
          "indexed": true,
          "internalType": "address",
          "name": "to",
          "type": "address"
        },
        {
          "indexed": true,
          "internalType": "uint256",
          "name": "tokenId",
          "type": "uint256"
        }
      ],
      "name": "Transfer",
      "type": "event"
    },
    {
      "inputs": [
        {
          "internalType": "address",
          "name": "to",
          "type": "address"
        },
        {
          "internalType": "uint256",
          "name": "tokenId",
          "type": "uint256"
        }
      ],
      "name": "approve",
      "outputs": [],
      "stateMutability": "payable",
      "type": "function"
    },
    {
      "inputs": [
        {
          "internalType": "address",
          "name": "owner",
          "type": "address"
        }
      ],
      "name": "balanceOf",
      "outputs": [
        {
          "internalType": "uint256",
          "name": "",
          "type": "uint256"
        }
      ],
      "stateMutability": "view",
      "type": "function"
    },
    {
      "inputs": [],
      "name": "baseURI",
      "outputs": [
        {
          "internalType": "string",
          "name": "",
          "type": "string"
        }
      ],
      "stateMutability": "view",
      "type": "function"
    },
    {
      "inputs": [],
      "name": "contractURI",
      "outputs": [
        {
          "internalType": "string",
          "name": "",
          "type": "string"
        }
      ],
      "stateMutability": "view",
      "type": "function"
    },
    {
      "inputs": [
        {
          "internalType": "uint256",
          "name": "tokenId",
          "type": "uint256"
        }
      ],
      "name": "getApproved",
      "outputs": [
        {
          "internalType": "address",
          "name": "",
          "type": "address"
        }
      ],
      "stateMutability": "view",
      "type": "function"
    },
    {
      "inputs": [],
      "name": "getSaleStage",
      "outputs": [
        {
          "internalType": "uint8",
          "name": "index",
          "type": "uint8"
        }
      ],
      "stateMutability": "view",
      "type": "function"
    },
    {
      "inputs": [],
      "name": "getTrustedForwarder",
      "outputs": [
        {
          "internalType": "address",
          "name": "forwarder",
          "type": "address"
        }
      ],
      "stateMutability": "view",
      "type": "function"
    },
    {
      "inputs": [
        {
          "components": [
            {
              "internalType": "string",
              "name": "name",
              "type": "string"
            },
            {
              "internalType": "string",
              "name": "symbol",
              "type": "string"
            },
            {
              "internalType": "string",
              "name": "baseURI",
              "type": "string"
            },
            {
              "internalType": "string",
              "name": "revealedURI",
              "type": "string"
            },
            {
              "internalType": "string",
              "name": "contractURI",
              "type": "string"
            },
            {
              "internalType": "address",
              "name": "royaltyReceiver",
              "type": "address"
            },
            {
              "internalType": "uint96",
              "name": "royaltyFeeNumerator",
              "type": "uint96"
            }
          ],
          "internalType": "struct DropMetadata",
          "name": "metadata",
          "type": "tuple"
        },
        {
          "internalType": "uint32",
          "name": "_mintLimit",
          "type": "uint32"
        },
        {
          "internalType": "uint32",
          "name": "mintStartTimestamp",
          "type": "uint32"
        },
        {
          "components": [
            {
              "internalType": "uint32",
              "name": "duration",
              "type": "uint32"
            },
            {
              "internalType": "uint32",
              "name": "perAddressMintLimit",
              "type": "uint32"
            },
            {
              "internalType": "bytes32",
              "name": "allowListMerkleRoot",
              "type": "bytes32"
            }
          ],
          "internalType": "struct IEeseeNFTDrop.StageOptions[]",
          "name": "salesOptions",
          "type": "tuple[]"
        },
        {
          "internalType": "contract IEeseeRandom",
          "name": "_random",
          "type": "address"
        },
        {
          "internalType": "address",
          "name": "_minter",
          "type": "address"
        },
        {
          "internalType": "address",
          "name": "trustedForwarder",
          "type": "address"
        }
      ],
      "name": "initialize",
      "outputs": [],
      "stateMutability": "nonpayable",
      "type": "function"
    },
    {
      "inputs": [
        {
          "internalType": "address",
          "name": "owner",
          "type": "address"
        },
        {
          "internalType": "address",
          "name": "operator",
          "type": "address"
        }
      ],
      "name": "isApprovedForAll",
      "outputs": [
        {
          "internalType": "bool",
          "name": "",
          "type": "bool"
        }
      ],
      "stateMutability": "view",
      "type": "function"
    },
    {
      "inputs": [
        {
          "internalType": "address",
          "name": "forwarder",
          "type": "address"
        }
      ],
      "name": "isTrustedForwarder",
      "outputs": [
        {
          "internalType": "bool",
          "name": "",
          "type": "bool"
        }
      ],
      "stateMutability": "view",
      "type": "function"
    },
    {
      "inputs": [
        {
          "internalType": "address",
          "name": "recipient",
          "type": "address"
        },
        {
          "internalType": "uint32",
          "name": "quantity",
          "type": "uint32"
        },
        {
          "internalType": "bytes32[]",
          "name": "merkleProof",
          "type": "bytes32[]"
        }
      ],
      "name": "mint",
      "outputs": [],
      "stateMutability": "nonpayable",
      "type": "function"
    },
    {
      "inputs": [],
      "name": "mintLimit",
      "outputs": [
        {
          "internalType": "uint32",
          "name": "",
          "type": "uint32"
        }
      ],
      "stateMutability": "view",
      "type": "function"
    },
    {
      "inputs": [],
      "name": "minter",
      "outputs": [
        {
          "internalType": "address",
          "name": "",
          "type": "address"
        }
      ],
      "stateMutability": "view",
      "type": "function"
    },
    {
      "inputs": [],
      "name": "name",
      "outputs": [
        {
          "internalType": "string",
          "name": "",
          "type": "string"
        }
      ],
      "stateMutability": "view",
      "type": "function"
    },
    {
      "inputs": [],
      "name": "nextTokenId",
      "outputs": [
        {
          "internalType": "uint256",
          "name": "",
          "type": "uint256"
        }
      ],
      "stateMutability": "view",
      "type": "function"
    },
    {
      "inputs": [
        {
          "internalType": "uint256",
          "name": "tokenId",
          "type": "uint256"
        }
      ],
      "name": "ownerOf",
      "outputs": [
        {
          "internalType": "address",
          "name": "",
          "type": "address"
        }
      ],
      "stateMutability": "view",
      "type": "function"
    },
    {
      "inputs": [],
      "name": "random",
      "outputs": [
        {
          "internalType": "contract IEeseeRandom",
          "name": "",
          "type": "address"
        }
      ],
      "stateMutability": "view",
      "type": "function"
    },
    {
      "inputs": [],
      "name": "revealedURI",
      "outputs": [
        {
          "internalType": "string",
          "name": "",
          "type": "string"
        }
      ],
      "stateMutability": "view",
      "type": "function"
    },
    {
      "inputs": [
        {
          "internalType": "uint256",
          "name": "tokenId",
          "type": "uint256"
        },
        {
          "internalType": "uint256",
          "name": "salePrice",
          "type": "uint256"
        }
      ],
      "name": "royaltyInfo",
      "outputs": [
        {
          "internalType": "address",
          "name": "",
          "type": "address"
        },
        {
          "internalType": "uint256",
          "name": "",
          "type": "uint256"
        }
      ],
      "stateMutability": "view",
      "type": "function"
    },
    {
      "inputs": [
        {
          "internalType": "address",
          "name": "from",
          "type": "address"
        },
        {
          "internalType": "address",
          "name": "to",
          "type": "address"
        },
        {
          "internalType": "uint256",
          "name": "tokenId",
          "type": "uint256"
        }
      ],
      "name": "safeTransferFrom",
      "outputs": [],
      "stateMutability": "payable",
      "type": "function"
    },
    {
      "inputs": [
        {
          "internalType": "address",
          "name": "from",
          "type": "address"
        },
        {
          "internalType": "address",
          "name": "to",
          "type": "address"
        },
        {
          "internalType": "uint256",
          "name": "tokenId",
          "type": "uint256"
        },
        {
          "internalType": "bytes",
          "name": "_data",
          "type": "bytes"
        }
      ],
      "name": "safeTransferFrom",
      "outputs": [],
      "stateMutability": "payable",
      "type": "function"
    },
    {
      "inputs": [
        {
          "internalType": "address",
          "name": "operator",
          "type": "address"
        },
        {
          "internalType": "bool",
          "name": "approved",
          "type": "bool"
        }
      ],
      "name": "setApprovalForAll",
      "outputs": [],
      "stateMutability": "nonpayable",
      "type": "function"
    },
    {
      "inputs": [
        {
          "internalType": "uint256",
          "name": "",
          "type": "uint256"
        }
      ],
      "name": "stages",
      "outputs": [
        {
          "internalType": "uint32",
          "name": "startTimestamp",
          "type": "uint32"
        },
        {
          "components": [
            {
              "internalType": "uint32",
              "name": "duration",
              "type": "uint32"
            },
            {
              "internalType": "uint32",
              "name": "perAddressMintLimit",
              "type": "uint32"
            },
            {
              "internalType": "bytes32",
              "name": "allowListMerkleRoot",
              "type": "bytes32"
            }
          ],
          "internalType": "struct IEeseeNFTDrop.StageOptions",
          "name": "stageOptions",
          "type": "tuple"
        }
      ],
      "stateMutability": "view",
      "type": "function"
    },
    {
      "inputs": [
        {
          "internalType": "bytes4",
          "name": "interfaceId",
          "type": "bytes4"
        }
      ],
      "name": "supportsInterface",
      "outputs": [
        {
          "internalType": "bool",
          "name": "",
          "type": "bool"
        }
      ],
      "stateMutability": "view",
      "type": "function"
    },
    {
      "inputs": [],
      "name": "symbol",
      "outputs": [
        {
          "internalType": "string",
          "name": "",
          "type": "string"
        }
      ],
      "stateMutability": "view",
      "type": "function"
    },
    {
      "inputs": [
        {
          "internalType": "uint256",
          "name": "tokenId",
          "type": "uint256"
        }
      ],
      "name": "tokenURI",
      "outputs": [
        {
          "internalType": "string",
          "name": "",
          "type": "string"
        }
      ],
      "stateMutability": "view",
      "type": "function"
    },
    {
      "inputs": [],
      "name": "totalSupply",
      "outputs": [
        {
          "internalType": "uint256",
          "name": "",
          "type": "uint256"
        }
      ],
      "stateMutability": "view",
      "type": "function"
    },
    {
      "inputs": [
        {
          "internalType": "address",
          "name": "from",
          "type": "address"
        },
        {
          "internalType": "address",
          "name": "to",
          "type": "address"
        },
        {
          "internalType": "uint256",
          "name": "tokenId",
          "type": "uint256"
        }
      ],
      "name": "transferFrom",
      "outputs": [],
      "stateMutability": "payable",
      "type": "function"
    },
    {
      "inputs": [
        {
          "internalType": "uint8",
          "name": "saleStageIndex",
          "type": "uint8"
        },
        {
          "internalType": "address",
          "name": "claimer",
          "type": "address"
        },
        {
          "internalType": "bytes32[]",
          "name": "merkleProof",
          "type": "bytes32[]"
        }
      ],
      "name": "verifyCanMint",
      "outputs": [
        {
          "internalType": "bool",
          "name": "",
          "type": "bool"
        }
      ],
      "stateMutability": "view",
      "type": "function"
    }
  ],
  "bytecode": "0x608060405234801561000f575f80fd5b50614da08061001d5f395ff3fe6080604052600436106101c1575f3560e01c80636c0360eb116100f6578063b88d4fde11610094578063e8a3d48511610063578063e8a3d48514610647578063e985e9c514610671578063ea856cb8146106ad578063f7e8d6ea146106d5576101c1565b8063b88d4fde1461059d578063c87b56dd146105b9578063ce1b815f146105f5578063daefb20c1461061f576101c1565b8063845ddcb2116100d0578063845ddcb2146104e457806395d89b4114610521578063996517cf1461054b578063a22cb46514610575576101c1565b80636c0360eb1461045457806370a082311461047e57806375794a3c146104ba576101c1565b806323b872dd1161016357806345c16a221161013d57806345c16a2214610388578063572b6c05146103b25780635ec01e4d146103ee5780636352211e14610418576101c1565b806323b872dd146103135780632a55205a1461032f57806342842e0e1461036c576101c1565b8063081812fc1161019f578063081812fc14610255578063095ea7b31461029157806316497e15146102ad57806318160ddd146102e9576101c1565b806301ffc9a7146101c557806306fdde0314610201578063075461721461022b575b5f80fd5b3480156101d0575f80fd5b506101eb60048036038101906101e69190613e42565b6106ff565b6040516101f89190613e67565b60405180910390f35b34801561020c575f80fd5b50610215610794565b6040516102229190613eec565b60405180910390f35b348015610236575f80fd5b5061023f61082d565b60405161024c9190613f06565b60405180910390f35b348015610260575f80fd5b5061027b60048036038101906102769190613f2c565b610852565b6040516102889190613f06565b60405180910390f35b6102ab60048036038101906102a69190613f7d565b6108d5565b005b3480156102b8575f80fd5b506102d360048036038101906102ce9190613ff4565b6108e5565b6040516102e09190613e67565b60405180910390f35b3480156102f4575f80fd5b506102fd610a19565b60405161030a9190614065565b60405180910390f35b61032d60048036038101906103289190614075565b610a40565b005b34801561033a575f80fd5b50610355600480360381019061035091906140b6565b610d84565b6040516103639291906140d9565b60405180910390f35b61038660048036038101906103819190614075565b610f60565b005b348015610393575f80fd5b5061039c610f7f565b6040516103a99190614106565b60405180910390f35b3480156103bd575f80fd5b506103d860048036038101906103d39190614119565b6111a7565b6040516103e59190613e67565b60405180910390f35b3480156103f9575f80fd5b506104026111ff565b60405161040f919061413e565b60405180910390f35b348015610423575f80fd5b5061043e60048036038101906104399190613f2c565b611224565b60405161044b9190613f06565b60405180910390f35b34801561045f575f80fd5b50610468611235565b6040516104759190613eec565b60405180910390f35b348015610489575f80fd5b506104a4600480360381019061049f9190614119565b6112c1565b6040516104b19190614065565b60405180910390f35b3480156104c5575f80fd5b506104ce61137f565b6040516104db9190614065565b60405180910390f35b3480156104ef575f80fd5b5061050a60048036038101906105059190613f2c565b6113c9565b604051610518929190614164565b60405180910390f35b34801561052c575f80fd5b50610535611464565b6040516105429190613eec565b60405180910390f35b348015610556575f80fd5b5061055f6114fd565b60405161056c919061419c565b60405180910390f35b348015610580575f80fd5b5061059b600480360381019061059691906141b2565b611512565b005b6105b760048036038101906105b2919061421c565b611621565b005b3480156105c4575f80fd5b506105df60048036038101906105da9190613f2c565b611693565b6040516105ec9190613eec565b60405180910390f35b348015610600575f80fd5b50610609611be6565b6040516106169190613f06565b60405180910390f35b34801561062a575f80fd5b506106456004803603810190610640919061432e565b611c0e565b005b348015610652575f80fd5b5061065b6123d2565b6040516106689190613eec565b60405180910390f35b34801561067c575f80fd5b506106976004803603810190610692919061439a565b61245e565b6040516106a49190613e67565b60405180910390f35b3480156106b8575f80fd5b506106d360048036038101906106ce91906143d3565b6124f5565b005b3480156106e0575f80fd5b506106e9612b71565b6040516106f69190613eec565b60405180910390f35b5f61071467c8207b99b8a396fc60c01b612bfd565b610728670b10edf6dad53ae660c01b612bfd565b61073c6787a63ed2d322dd5960c01b612bfd565b61074582612c00565b8015610761575061076067bb8cafa3362154a860c01b612c91565b5b8061078d575061077082612c9b565b801561078c575061078b67d66ad5cd6e88907a60c01b612c91565b5b5b9050919050565b606061079e612d14565b60020180546107ac906144c9565b80601f01602080910402602001604051908101604052809291908181526020018280546107d8906144c9565b80156108235780601f106107fa57610100808354040283529160200191610823565b820191905f5260205f20905b81548152906001019060200180831161080657829003601f168201915b5050505050905090565b600a5f9054906101000a900473ffffffffffffffffffffffffffffffffffffffff1681565b5f61085c82612d40565b610892576040517fcf4700e400000000000000000000000000000000000000000000000000000000815260040160405180910390fd5b61089a612d14565b6006015f8381526020019081526020015f205f015f9054906101000a900473ffffffffffffffffffffffffffffffffffffffff169050919050565b6108e182826001612dac565b5050565b5f6108fa67808047a4b4b1cae860c01b612bfd565b61090e67464735e8d034d62460c01b612bfd565b61092267ed5d21f7bbe3a8f560c01b612bfd565b5f846040516020016109349190613f06565b6040516020818303038152906040528051906020012060405160200161095a919061451d565b60405160208183030381529060405280519060200120905061098667923524bd031ba52860c01b612bfd565b61099a67fd4be2d663399c7960c01b612bfd565b610a0e8484808060200260200160405190810160405280939291908181526020018383602002808284375f81840152601f19601f8201169050808301925050505050505060088860ff16815481106109f5576109f461452d565b5b905f5260205f2090600402016002016001015483612efc565b915050949350505050565b5f610a22612f12565b610a2a612d14565b60010154610a36612d14565b5f01540303905090565b5f610a4a82612f56565b90508373ffffffffffffffffffffffffffffffffffffffff168173ffffffffffffffffffffffffffffffffffffffff1614610ab1576040517fa114810000000000000000000000000000000000000000000000000000000000815260040160405180910390fd5b5f80610abc84613060565b91509150610ad28187610acd61308c565b6130d5565b610b1e57610ae786610ae261308c565b61245e565b610b1d576040517f59c896be00000000000000000000000000000000000000000000000000000000815260040160405180910390fd5b5b5f73ffffffffffffffffffffffffffffffffffffffff168573ffffffffffffffffffffffffffffffffffffffff1603610b83576040517fea553b3400000000000000000000000000000000000000000000000000000000815260040160405180910390fd5b610b908686866001613118565b8015610b9a575f82555b610ba2612d14565b6005015f8773ffffffffffffffffffffffffffffffffffffffff1673ffffffffffffffffffffffffffffffffffffffff1681526020019081526020015f205f81546001900391905081905550610bf6612d14565b6005015f8673ffffffffffffffffffffffffffffffffffffffff1673ffffffffffffffffffffffffffffffffffffffff1681526020019081526020015f205f815460010191905081905550610c7485610c5088888761311e565b7c020000000000000000000000000000000000000000000000000000000017613145565b610c7c612d14565b6004015f8681526020019081526020015f20819055505f7c0200000000000000000000000000000000000000000000000000000000841603610d14575f6001850190505f610cc8612d14565b6004015f8381526020019081526020015f205403610d1257610ce8612d14565b5f01548114610d115783610cfa612d14565b6004015f8381526020019081526020015f20819055505b5b505b838573ffffffffffffffffffffffffffffffffffffffff168773ffffffffffffffffffffffffffffffffffffffff167fddf252ad1be2c89b69c2b068fc378daa952ba7f163c4a11628f55a4df523b3ef60405160405180910390a4610d7c868686600161316f565b505050505050565b5f805f60025f8681526020019081526020015f206040518060400160405290815f82015f9054906101000a900473ffffffffffffffffffffffffffffffffffffffff1673ffffffffffffffffffffffffffffffffffffffff1673ffffffffffffffffffffffffffffffffffffffff1681526020015f820160149054906101000a90046bffffffffffffffffffffffff166bffffffffffffffffffffffff166bffffffffffffffffffffffff168152505090505f73ffffffffffffffffffffffffffffffffffffffff16815f015173ffffffffffffffffffffffffffffffffffffffff1603610f0d5760016040518060400160405290815f82015f9054906101000a900473ffffffffffffffffffffffffffffffffffffffff1673ffffffffffffffffffffffffffffffffffffffff1673ffffffffffffffffffffffffffffffffffffffff1681526020015f820160149054906101000a90046bffffffffffffffffffffffff166bffffffffffffffffffffffff166bffffffffffffffffffffffff168152505090505b5f610f16613175565b6bffffffffffffffffffffffff1682602001516bffffffffffffffffffffffff1686610f429190614587565b610f4c91906145d5565b9050815f0151819350935050509250929050565b610f7a83838360405180602001604052805f815250611621565b505050565b5f610f9467ff0203334892515460c01b612bfd565b610fa867173b69a0e39f980160c01b612bfd565b610fbc67f1d5823d32c6c33860c01b612bfd565b5f6008805490509050610fd9670f6a3b7ca89e9df360c01b612bfd565b610fed679420481e0f78148e60c01b612bfd565b5f5b818160ff1610156111765761100e67778592d7729732a260c01b612bfd565b61102267597914d94c1468fa60c01b612bfd565b5f60088260ff168154811061103a5761103961452d565b5b905f5260205f209060040201905061105c676c26618d74e4fa5e60c01b612bfd565b61107067f6b8d529fc6725c660c01b612bfd565b61108467a5681744f8d45c2e60c01b612bfd565b5f815f015f9054906101000a900463ffffffff1663ffffffff1690506110b4671007c130061e166860c01b612bfd565b6110c8674ac1924febbc9f7160c01b612bfd565b8042101580156110f45750816002015f015f9054906101000a900463ffffffff1663ffffffff16810142105b156111415761110d67ebdf40ae833b8db560c01b612bfd565b6111216756188cb9d9cdd1cc60c01b612bfd565b61113567f14796d007eb44fa60c01b612bfd565b829450505050506111a4565b6111556769974c58d4cca47860c01b612bfd565b61116967fb3a48816a5326f760c01b612bfd565b8260010192505050610fef565b5061118b67219c62e57ab4927960c01b612bfd565b61119f6787aa640b8e667f1c60c01b612bfd565b809150505b90565b5f60035f9054906101000a900473ffffffffffffffffffffffffffffffffffffffff1673ffffffffffffffffffffffffffffffffffffffff168273ffffffffffffffffffffffffffffffffffffffff16149050919050565b60095f9054906101000a900473ffffffffffffffffffffffffffffffffffffffff1681565b5f61122e82612f56565b9050919050565b60048054611242906144c9565b80601f016020809104026020016040519081016040528092919081815260200182805461126e906144c9565b80156112b95780601f10611290576101008083540402835291602001916112b9565b820191905f5260205f20905b81548152906001019060200180831161129c57829003601f168201915b505050505081565b5f8073ffffffffffffffffffffffffffffffffffffffff168273ffffffffffffffffffffffffffffffffffffffff1603611327576040517f8f4eb60400000000000000000000000000000000000000000000000000000000815260040160405180910390fd5b67ffffffffffffffff611338612d14565b6005015f8473ffffffffffffffffffffffffffffffffffffffff1673ffffffffffffffffffffffffffffffffffffffff1681526020019081526020015f2054169050919050565b5f6113946729f3dd66d5cb4f8360c01b612bfd565b6113a8671b472c01d7964ca660c01b612bfd565b6113bc678dfa9b89da7ddadc60c01b612bfd565b6113c461317e565b905090565b600881815481106113d8575f80fd5b905f5260205f2090600402015f91509050805f015f9054906101000a900463ffffffff1690806002016040518060600160405290815f82015f9054906101000a900463ffffffff1663ffffffff1663ffffffff1681526020015f820160049054906101000a900463ffffffff1663ffffffff1663ffffffff168152602001600182015481525050905082565b606061146e612d14565b600301805461147c906144c9565b80601f01602080910402602001604051908101604052809291908181526020018280546114a8906144c9565b80156114f35780601f106114ca576101008083540402835291602001916114f3565b820191905f5260205f20905b8154815290600101906020018083116114d657829003601f168201915b5050505050905090565b60075f9054906101000a900463ffffffff1681565b8061151b612d14565b6007015f61152761308c565b73ffffffffffffffffffffffffffffffffffffffff1673ffffffffffffffffffffffffffffffffffffffff1681526020019081526020015f205f8473ffffffffffffffffffffffffffffffffffffffff1673ffffffffffffffffffffffffffffffffffffffff1681526020019081526020015f205f6101000a81548160ff0219169083151502179055508173ffffffffffffffffffffffffffffffffffffffff166115d061308c565b73ffffffffffffffffffffffffffffffffffffffff167f17307eab39ab6107e8899845ad3d59bd9653f200f220920489ca2b5937696c31836040516116159190613e67565b60405180910390a35050565b61162c848484610a40565b5f8373ffffffffffffffffffffffffffffffffffffffff163b1461168d576116568484848461318f565b61168c576040517fd1a57ed600000000000000000000000000000000000000000000000000000000815260040160405180910390fd5b5b50505050565b60606116a96747b8dbedcd3e6d4260c01b612bfd565b6116bd6766b3aa8a1d8c9ae260c01b612bfd565b6116d167554759d732c1752060c01b612bfd565b6116da82612d40565b611724576116f26780ea99f015a9dfb660c01b612bfd565b6040517fa14c4b5000000000000000000000000000000000000000000000000000000000815260040160405180910390fd5b6117386706f3d47f6dd6b4b260c01b612bfd565b61174c679ec9406906b7846460c01b612bfd565b5f61176167c67c6a09e1fb9cf160c01b612bfd565b5f611776674e4778c98b7a758360c01b612bfd565b61178a6770d0e9d2267a529060c01b612bfd565b61179e67d45a3dc261babd4160c01b612bfd565b5f6008600160088054905003815481106117bb576117ba61452d565b5b905f5260205f20906004020190506117dd6767f7c1f2913496ef60c01b612bfd565b60095f9054906101000a900473ffffffffffffffffffffffffffffffffffffffff1673ffffffffffffffffffffffffffffffffffffffff1663fa95b139826002015f015f9054906101000a900463ffffffff16835f015f9054906101000a900463ffffffff16016040518263ffffffff1660e01b815260040161186091906145ef565b6040805180830381865afa15801561187a573d5f803e3d5ffd5b505050506040513d601f19601f8201168201806040525081019061189e9190614605565b8093508194505050506118bb6765655a8f2428f67760c01b612bfd565b6118cf673085d4e92ae53c7660c01b612bfd565b5f8103611a4f576118ea6736359b5f2272d8ea60c01b612bfd565b6118fe67918ddadb98cbaa9b60c01b612bfd565b611912678522cb80ef0d6b9b60c01b612bfd565b5f60048054611920906144c9565b80601f016020809104026020016040519081016040528092919081815260200182805461194c906144c9565b80156119975780601f1061196e57610100808354040283529160200191611997565b820191905f5260205f20905b81548152906001019060200180831161197a57829003601f168201915b505050505090506119b267216f3aa1c82f517660c01b612bfd565b6119c66729b61483005f833060c01b612bfd565b5f8151141580156119e757506119e6675c68eb01020b11a260c01b612c91565b5b80611a025750611a01674fa7e6dce34f1a0a60c01b6132da565b5b611a1a5760405180602001604052805f815250611a45565b80611a24866132e0565b604051602001611a35929190614628565b6040516020818303038152906040525b9350505050611be1565b611a63675b5930db8c685aa460c01b612bfd565b611a77679a125c86e3d7aa4060c01b612bfd565b611a8b673e02ae3050e4b0aa60c01b612bfd565b5f60058054611a99906144c9565b80601f0160208091040260200160405190810160405280929190818152602001828054611ac5906144c9565b8015611b105780601f10611ae757610100808354040283529160200191611b10565b820191905f5260205f20905b815481529060010190602001808311611af357829003601f168201915b50505050509050611b2b67f43e3b27c7317f5d60c01b612bfd565b611b3f67fe6a45affa8d2d0e60c01b612bfd565b5f815114158015611b605750611b5f6719976a44a2eef67960c01b612c91565b5b80611b7b5750611b7a6734be784cd9a0e29260c01b6132da565b5b611b935760405180602001604052805f815250611bdb565b80611bba611b9f610a19565b8588611bab919061465c565b611bb59190614679565b6132e0565b604051602001611bcb929190614628565b6040516020818303038152906040525b93505050505b919050565b5f60035f9054906101000a900473ffffffffffffffffffffffffffffffffffffffff16905090565b611c22676a4d5e44b540907a60c01b612bfd565b611c3667ed1314852a6a832860c01b612bfd565b611c4a678e4cc116af0189da60c01b612bfd565b611c5e67f59c6f1417efcb7d60c01b612bfd565b611c7267af9d7aad909d073260c01b612bfd565b600a5f9054906101000a900473ffffffffffffffffffffffffffffffffffffffff1673ffffffffffffffffffffffffffffffffffffffff163373ffffffffffffffffffffffffffffffffffffffff1614611d01576040517f08c379a0000000000000000000000000000000000000000000000000000000008152600401611cf890614693565b60405180910390fd5b611d15675c184fe31f645f5960c01b612bfd565b611d2967b24337b9bd985fa760c01b612bfd565b611d3d6782c9ddcd3875554960c01b612bfd565b611d5167701509e5443f902160c01b612bfd565b611d6567a89005af7110898d60c01b612bfd565b611d79672b708ea482214c6460c01b612bfd565b60085f81548110611d8d57611d8c61452d565b5b905f5260205f2090600402015f015f9054906101000a900463ffffffff1663ffffffff16421015611dfe57611dcc67f6513a149085364e60c01b612bfd565b6040517fd230774200000000000000000000000000000000000000000000000000000000815260040160405180910390fd5b611e1267c91079314b2f603860c01b612bfd565b611e2667c2998624c43f556d60c01b612bfd565b611e3a67eb393761c4dff84e60c01b612bfd565b5f6008805490509050611e56668c5b4902133c6960c01b612bfd565b611e6a67a37f5fa76243d54b60c01b612bfd565b611e7e672061696741e061a860c01b612bfd565b5f60086001830381548110611e9657611e9561452d565b5b905f5260205f2090600402019050611eb867dc9a58f08a9ba3a560c01b612bfd565b611ecc67b5ffc8f82de93c2660c01b612bfd565b806002015f015f9054906101000a900463ffffffff16815f015f9054906101000a900463ffffffff160163ffffffff164210611f4857611f1667f54cd247b21e346960c01b612bfd565b6040517ff48339e400000000000000000000000000000000000000000000000000000000815260040160405180910390fd5b611f5c6795c21a04596edfa360c01b612bfd565b50611f7167e055a5b05779746760c01b612bfd565b611f8567d7371dfdbe4b764b60c01b612bfd565b5f611f8e610f7f565b9050611fa4672ca7705d0f4f780f60c01b612bfd565b611fb8676b145ef67e87f04a60c01b612bfd565b5f60088260ff1681548110611fd057611fcf61452d565b5b905f5260205f2090600402016002019050611ff567d79eeaced6c37c2360c01b612bfd565b61200967c3b7a47682112e6860c01b612bfd565b5f801b8160010154141580156120285750612026828887876108e5565b155b15612073576120416732af0c0de235889d60c01b612bfd565b6040517f09bde33900000000000000000000000000000000000000000000000000000000815260040160405180910390fd5b61208767b324916025ac0ee260c01b612bfd565b61209b675f744c7a383190e260c01b612bfd565b6120af6726ae3f689bb9575560c01b612bfd565b5f8660088460ff16815481106120c8576120c761452d565b5b905f5260205f2090600402016001015f8a73ffffffffffffffffffffffffffffffffffffffff1673ffffffffffffffffffffffffffffffffffffffff1681526020019081526020015f205f9054906101000a900463ffffffff1661212c91906146d0565b9050612142678596748668363c9260c01b612bfd565b61215667c5ac8c6142cc5e3c60c01b612bfd565b5f825f0160049054906101000a900463ffffffff16905061218167c5f125ce66b7aade60c01b612bfd565b61219567b6b2307c5ecdcf9960c01b612bfd565b5f8163ffffffff16141580156121b657508063ffffffff168263ffffffff16115b15612201576121cf6793f1d93004123a5660c01b612bfd565b6040517fb643bfa600000000000000000000000000000000000000000000000000000000815260040160405180910390fd5b61221567cecf2a45dcd396aa60c01b612bfd565b61222967018ce768f362daff60c01b612bfd565b61223d675c49b916145db8b860c01b612bfd565b61224d898963ffffffff16613330565b612261673b9be64f395ea20060c01b612bfd565b61227567b2c235c935e40c1c60c01b612bfd565b5f60075f9054906101000a900463ffffffff16905061229e67b5658fae22f67cd560c01b612bfd565b6122b267755235c6c911672060c01b612bfd565b5f8163ffffffff16141580156122d457508063ffffffff166122d2610a19565b115b1561231f576122ed67e24270b2c941d34060c01b612bfd565b6040517fb643bfa600000000000000000000000000000000000000000000000000000000815260040160405180910390fd5b612333671b3d9c21e50540f060c01b612bfd565b61234767e4ae2e5cc0ff374d60c01b612bfd565b8260088660ff168154811061235f5761235e61452d565b5b905f5260205f2090600402016001015f8c73ffffffffffffffffffffffffffffffffffffffff1673ffffffffffffffffffffffffffffffffffffffff1681526020019081526020015f205f6101000a81548163ffffffff021916908363ffffffff16021790555050505050505050505050565b600680546123df906144c9565b80601f016020809104026020016040519081016040528092919081815260200182805461240b906144c9565b80156124565780601f1061242d57610100808354040283529160200191612456565b820191905f5260205f20905b81548152906001019060200180831161243957829003601f168201915b505050505081565b5f612467612d14565b6007015f8473ffffffffffffffffffffffffffffffffffffffff1673ffffffffffffffffffffffffffffffffffffffff1681526020019081526020015f205f8373ffffffffffffffffffffffffffffffffffffffff1673ffffffffffffffffffffffffffffffffffffffff1681526020019081526020015f205f9054906101000a900460ff16905092915050565b61250967c99be57f94fef25060c01b612bfd565b5f8060019054906101000a900460ff16159050808015612538575060015f8054906101000a900460ff1660ff16105b8061256457506125473061334d565b158015612563575060015f8054906101000a900460ff1660ff16145b5b6125a3576040517f08c379a000000000000000000000000000000000000000000000000000000000815260040161259a906146f7565b60405180910390fd5b60015f806101000a81548160ff021916908360ff16021790555080156125de5760015f60016101000a81548160ff0219169083151502179055505b6125f267b9c641457785767b60c01b612bfd565b61260667be5e52983f88c70260c01b612bfd565b61260e61336f565b5f0160019054906101000a900460ff1661263f5761262a61336f565b5f015f9054906101000a900460ff1615612648565b61264761339b565b5b612687576040517f08c379a000000000000000000000000000000000000000000000000000000000815260040161267e9061475a565b60405180910390fd5b5f61269061336f565b5f0160019054906101000a900460ff1615905080156126ef5760016126b361336f565b5f0160016101000a81548160ff02191690831515021790555060016126d661336f565b5f015f6101000a81548160ff0219169083151502179055505b612703670d2b89da28a0500a60c01b612bfd565b61271767931e81a1959287b860c01b612bfd565b61272b67c52298f65879a92560c01b612bfd565b61273f67c9198fb6614135db60c01b612bfd565b6127ea8a805f019061275191906147bd565b8080601f0160208091040260200160405190810160405280939291908181526020018383808284375f81840152601f19601f820116905080830192505050505050508b80602001906127a391906147bd565b8080601f0160208091040260200160405190810160405280939291908181526020018383808284375f81840152601f19601f820116905080830192505050505050506133af565b6127fe67d5e16b32ee13c05760c01b612bfd565b83600a5f6101000a81548173ffffffffffffffffffffffffffffffffffffffff021916908373ffffffffffffffffffffffffffffffffffffffff1602179055506128526787954efe774057d960c01b612bfd565b89806040019061286291906147bd565b600491826128719291906148c0565b50612886674b1c40eb13a56ffb60c01b612bfd565b89806060019061289691906147bd565b600591826128a59291906148c0565b506128ba674caee252316eb5ea60c01b612bfd565b8980608001906128ca91906147bd565b600691826128d99291906148c0565b506128ee67d7a7b84704f75b7260c01b612bfd565b8860075f6101000a81548163ffffffff021916908363ffffffff160217905550612922678836760c8b3b1b2160c01b612bfd565b61293667a4f5b08d9bb2a0d360c01b612bfd565b5f73ffffffffffffffffffffffffffffffffffffffff168a60a00160208101906129609190614119565b73ffffffffffffffffffffffffffffffffffffffff16141580156129a457505f8a60c001602081019061299391906149bb565b6bffffffffffffffffffffffff1614155b15612a18576129bd672a0871b63394971760c01b612bfd565b6129d167e99f89f8c193b24f60c01b612bfd565b6129e567ce5aa021d5a5812960c01b612bfd565b612a138a60a00160208101906129fb9190614119565b8b60c0016020810190612a0e91906149bb565b613414565b612a2d565b612a2c67ebcd5282937ed00760c01b612bfd565b5b612a4167e877b061f61041ff60c01b612bfd565b612a55677e78b0c8bf6897bf60c01b612bfd565b612a608888886135a4565b612a7467e12900de4f46c79760c01b612bfd565b8460095f6101000a81548173ffffffffffffffffffffffffffffffffffffffff021916908373ffffffffffffffffffffffffffffffffffffffff160217905550612ac766c6e6e27faf54ee60c01b612bfd565b612adb67a966a23d8f14054060c01b612bfd565b612ae48361396f565b8015612b0d575f612af361336f565b5f0160016101000a81548160ff0219169083151502179055505b508015612b66575f8060016101000a81548160ff0219169083151502179055507f7f26b83ff96e1f2b6a682f133852f6798a09c465da95921460cefb38474024986001604051612b5d91906149f0565b60405180910390a15b505050505050505050565b60058054612b7e906144c9565b80601f0160208091040260200160405190810160405280929190818152602001828054612baa906144c9565b8015612bf55780601f10612bcc57610100808354040283529160200191612bf5565b820191905f5260205f20905b815481529060010190602001808311612bd857829003601f168201915b505050505081565b50565b5f6301ffc9a760e01b827bffffffffffffffffffffffffffffffffffffffffffffffffffffffff19161480612c5a57506380ac58cd60e01b827bffffffffffffffffffffffffffffffffffffffffffffffffffffffff1916145b80612c8a5750635b5e139f60e01b827bffffffffffffffffffffffffffffffffffffffffffffffffffffffff1916145b9050919050565b5f60019050919050565b5f7f2a55205a000000000000000000000000000000000000000000000000000000007bffffffffffffffffffffffffffffffffffffffffffffffffffffffff1916827bffffffffffffffffffffffffffffffffffffffffffffffffffffffff19161480612d0d5750612d0c826139b2565b5b9050919050565b5f807f2569078dfb4b0305704d3008e7403993ae9601b85f7ae5e742de3de8f8011c4090508091505090565b5f81612d4a612f12565b11158015612d615750612d5b612d14565b5f015482105b8015612da557505f7c0100000000000000000000000000000000000000000000000000000000612d8f612d14565b6004015f8581526020019081526020015f205416145b9050919050565b5f612db683611224565b90508115612e41578073ffffffffffffffffffffffffffffffffffffffff16612ddd61308c565b73ffffffffffffffffffffffffffffffffffffffff1614612e4057612e0981612e0461308c565b61245e565b612e3f576040517fcfb3b94200000000000000000000000000000000000000000000000000000000815260040160405180910390fd5b5b5b83612e4a612d14565b6006015f8581526020019081526020015f205f015f6101000a81548173ffffffffffffffffffffffffffffffffffffffff021916908373ffffffffffffffffffffffffffffffffffffffff160217905550828473ffffffffffffffffffffffffffffffffffffffff168273ffffffffffffffffffffffffffffffffffffffff167f8c5be1e5ebec7d5bd14f71427d1e84f3dd0314c0f7b2291e5b200ac8c7c3b92560405160405180910390a450505050565b5f82612f088584613a1b565b1490509392505050565b5f612f2767d5409e379bd1ca3960c01b612bfd565b612f3b67953e457234b0625a60c01b612bfd565b612f4f67f86a7fd9c86272b260c01b612bfd565b6001905090565b5f81612f60612f12565b1161302957612f6d612d14565b6004015f8381526020019081526020015f205490505f7c0100000000000000000000000000000000000000000000000000000000821603613028575f810361302357612fb7612d14565b5f01548210612ff2576040517fdf2d9b4200000000000000000000000000000000000000000000000000000000815260040160405180910390fd5b5b612ffb612d14565b6004015f836001900393508381526020019081526020015f205490505f810361305b57612ff3565b61305b565b5b6040517fdf2d9b4200000000000000000000000000000000000000000000000000000000815260040160405180910390fd5b919050565b5f805f61306b612d14565b6006015f8581526020019081526020015f2090508092508254915050915091565b5f6130a066770d0d718e28a760c01b612bfd565b6130b467a952b7bc1eda94a360c01b612bfd565b6130c8676040823a5ea7786f60c01b612bfd565b6130d0613a6f565b905090565b5f73ffffffffffffffffffffffffffffffffffffffff8316925073ffffffffffffffffffffffffffffffffffffffff821691508382148383141790509392505050565b50505050565b5f8060e883901c905060e8613134868684613aa4565b62ffffff16901b9150509392505050565b5f73ffffffffffffffffffffffffffffffffffffffff83169250814260a01b178317905092915050565b50505050565b5f612710905090565b5f613187612d14565b5f0154905090565b5f8373ffffffffffffffffffffffffffffffffffffffff1663150b7a026131b461308c565b8786866040518563ffffffff1660e01b81526004016131d69493929190614a03565b6020604051808303815f875af192505050801561321157506040513d601f19601f8201168201806040525081019061320e9190614a4c565b60015b613287573d805f811461323f576040519150601f19603f3d011682016040523d82523d5f602084013e613244565b606091505b505f81510361327f576040517fd1a57ed600000000000000000000000000000000000000000000000000000000815260040160405180910390fd5b805181602001fd5b63150b7a0260e01b7bffffffffffffffffffffffffffffffffffffffffffffffffffffffff1916817bffffffffffffffffffffffffffffffffffffffffffffffffffffffff191614915050949350505050565b5f919050565b606060a06040510180604052602081039150505f815280825b60011561331b57600183039250600a81066030018353600a81049050806132f9575b50818103905060208203915080825250919050565b613349828260405180602001604052805f815250613aac565b5050565b5f808273ffffffffffffffffffffffffffffffffffffffff163b119050919050565b5f807fee151c8401928dc223602bb187aff91b9a56c7cae5476ef1b3287b085a16c85f90508091505090565b5f803090505f813b90505f81149250505090565b6133b761336f565b5f0160019054906101000a900460ff16613406576040517f08c379a00000000000000000000000000000000000000000000000000000000081526004016133fd90614a71565b60405180910390fd5b6134108282613b55565b5050565b61341c613175565b6bffffffffffffffffffffffff16816bffffffffffffffffffffffff16111561347a576040517f08c379a000000000000000000000000000000000000000000000000000000000815260040161347190614ad4565b60405180910390fd5b5f73ffffffffffffffffffffffffffffffffffffffff168273ffffffffffffffffffffffffffffffffffffffff16036134e8576040517f08c379a00000000000000000000000000000000000000000000000000000000081526004016134df90614b37565b60405180910390fd5b60405180604001604052808373ffffffffffffffffffffffffffffffffffffffff168152602001826bffffffffffffffffffffffff1681525060015f820151815f015f6101000a81548173ffffffffffffffffffffffffffffffffffffffff021916908373ffffffffffffffffffffffffffffffffffffffff1602179055506020820151815f0160146101000a8154816bffffffffffffffffffffffff02191690836bffffffffffffffffffffffff1602179055509050505050565b6135b8678586f80573b6c3af60c01b612bfd565b6135cc67ad836cd8eba2079e60c01b612bfd565b6135e067883077ed836a6a9d60c01b612bfd565b8263ffffffff16421061363357613601672e76aa68836f542360c01b612bfd565b6040517f36c9c0b900000000000000000000000000000000000000000000000000000000815260040160405180910390fd5b61364767303c0193293cf2bd60c01b612bfd565b61365b6788afd6ddeabb861560c01b612bfd565b61366f673333b4a5ac04ab3160c01b612bfd565b600582829050118015613692575061369167c0f4c8a6ecbde45d60c01b612c91565b5b806136bb57505f828290501480156136ba57506136b967a6418f1913c1cfc060c01b612c91565b5b5b15613706576136d4671cccd9dc73e9dc8c60c01b612bfd565b6040517f0d1e6e7900000000000000000000000000000000000000000000000000000000815260040160405180910390fd5b61371a678ee199b858031a8360c01b612bfd565b61372e67da9cdcbf83e91f8f60c01b612bfd565b6137426731f86f221e2f6ee060c01b612bfd565b5f83905061375a67e16cc9215eb248e360c01b612bfd565b61376e671406dcba72bd2c3960c01b612bfd565b5f5b838390508160ff16101561396857613792679feb875f7cf74f8260c01b612bfd565b6137a667c04afcc971cd498060c01b612bfd565b5f84848360ff168181106137bd576137bc61452d565b5b9050606002015f0160208101906137d49190614b74565b63ffffffff1603613825576137f367be4ca4fbfeef19a860c01b612bfd565b6040517f4cf9338f00000000000000000000000000000000000000000000000000000000815260040160405180910390fd5b61383967cdfb4a09e434a6d460c01b612bfd565b61384d67fc75dda0ce8cfec160c01b612bfd565b61386167d96bab429a387d8260c01b612bfd565b5f600860018160018154018082558091505003905f5260205f209060040201905061389667681b7afa90baee9460c01b612bfd565b82815f015f6101000a81548163ffffffff021916908363ffffffff1602179055506138cb67b71a7d0797e97bb960c01b612bfd565b84848360ff168181106138e1576138e061452d565b5b9050606002015f0160208101906138f89190614b74565b8361390391906146d0565b9250613919675b72a0ba326ae8b860c01b612bfd565b84848360ff1681811061392f5761392e61452d565b5b9050606002018160020181816139459190614b99565b90505061395c671b283b98d01fb9f760c01b612bfd565b81600101915050613770565b5050505050565b8060035f6101000a81548173ffffffffffffffffffffffffffffffffffffffff021916908373ffffffffffffffffffffffffffffffffffffffff16021790555050565b5f7f01ffc9a7000000000000000000000000000000000000000000000000000000007bffffffffffffffffffffffffffffffffffffffffffffffffffffffff1916827bffffffffffffffffffffffffffffffffffffffffffffffffffffffff1916149050919050565b5f808290505f5b8451811015613a6457613a4f82868381518110613a4257613a4161452d565b5b6020026020010151613bf8565b91508080613a5c90614c2b565b915050613a22565b508091505092915050565b5f60145f36905010158015613a895750613a88336111a7565b5b15613a9d57601436033560601c9050613aa1565b3390505b90565b5f9392505050565b613ab68383613c22565b5f8373ffffffffffffffffffffffffffffffffffffffff163b14613b50575f613add612d14565b5f015490505f83820390505b613afb5f86838060010194508661318f565b613b31576040517fd1a57ed600000000000000000000000000000000000000000000000000000000815260040160405180910390fd5b818110613ae95781613b41612d14565b5f015414613b4d575f80fd5b50505b505050565b613b5d61336f565b5f0160019054906101000a900460ff16613bac576040517f08c379a0000000000000000000000000000000000000000000000000000000008152600401613ba390614a71565b60405180910390fd5b81613bb5612d14565b6002019081613bc49190614c67565b5080613bce612d14565b6003019081613bdd9190614c67565b50613be6612f12565b613bee612d14565b5f01819055505050565b5f818310613c0f57613c0a8284613def565b613c1a565b613c198383613def565b5b905092915050565b5f613c2b612d14565b5f015490505f8203613c69576040517fb562e8dd00000000000000000000000000000000000000000000000000000000815260040160405180910390fd5b613c755f848385613118565b600160406001901b178202613c88612d14565b6005015f8573ffffffffffffffffffffffffffffffffffffffff1673ffffffffffffffffffffffffffffffffffffffff1681526020019081526020015f205f8282540192505081905550613cf083613ce15f865f61311e565b613cea85613e03565b17613145565b613cf8612d14565b6004015f8381526020019081526020015f20819055505f80838301905073ffffffffffffffffffffffffffffffffffffffff8516915082825f7fddf252ad1be2c89b69c2b068fc378daa952ba7f163c4a11628f55a4df523b3ef5f80a4600183015b818114613d935780835f7fddf252ad1be2c89b69c2b068fc378daa952ba7f163c4a11628f55a4df523b3ef5f80a4600181019050613d5a565b505f8203613dcd576040517f2e07630000000000000000000000000000000000000000000000000000000000815260040160405180910390fd5b80613dd6612d14565b5f01819055505050613dea5f84838561316f565b505050565b5f825f528160205260405f20905092915050565b5f6001821460e11b9050919050565b7fffffffff0000000000000000000000000000000000000000000000000000000081168114613e3f575f80fd5b50565b5f60208284031215613e52575f80fd5b8135613e5d81613e12565b8091505092915050565b5f602082019050821515825292915050565b5f5b83811015613e96578082015181840152602081019050613e7b565b505f83830152505050565b5f8151808452613eb8816020860160208601613e79565b60207fffffffffffffffffffffffffffffffffffffffffffffffffffffffffffffffe0601f83011685010191505092915050565b602081525f613efe6020830184613ea1565b905092915050565b5f60208201905073ffffffffffffffffffffffffffffffffffffffff8316825292915050565b5f60208284031215613f3c575f80fd5b8135905092915050565b73ffffffffffffffffffffffffffffffffffffffff81168114613f67575f80fd5b50565b5f81359050613f7881613f46565b919050565b5f8060408385031215613f8e575f80fd5b8235613f9981613f46565b80925050602083013590509250929050565b5f8083601f840112613fbb575f80fd5b8235905067ffffffffffffffff811115613fd3575f80fd5b6020830191508360208260051b8501011115613fed575f80fd5b9250929050565b5f805f8060608587031215614007575f80fd5b843560ff81168114614017575f80fd5b80945050602085013561402981613f46565b80935050604085013567ffffffffffffffff811115614046575f80fd5b61405287828801613fab565b9150809350508091505092959194509250565b5f60208201905082825292915050565b5f805f60608486031215614087575f80fd5b833561409281613f46565b8093505060208401356140a481613f46565b80925050604084013590509250925092565b5f80604083850312156140c7575f80fd5b82359150602083013590509250929050565b5f60408201905073ffffffffffffffffffffffffffffffffffffffff841682528260208301529392505050565b5f60208201905060ff8316825292915050565b5f60208284031215614129575f80fd5b813561413481613f46565b8091505092915050565b5f60208201905073ffffffffffffffffffffffffffffffffffffffff8316825292915050565b5f60808201905063ffffffff808516835280845116602084015280602085015116604084015250604083015160608301529392505050565b5f60208201905063ffffffff8316825292915050565b5f80604083850312156141c3575f80fd5b82356141ce81613f46565b80925050602083013580151581146141e4575f80fd5b809150509250929050565b7f4e487b71000000000000000000000000000000000000000000000000000000005f52604160045260245ffd5b5f805f806080858703121561422f575f80fd5b843561423a81613f46565b80945050602085013561424c81613f46565b8093505060408501359150606085013567ffffffffffffffff80821115614271575f80fd5b818701915087601f830112614284575f80fd5b813581811115614297576142966141ef565b5b7fffffffffffffffffffffffffffffffffffffffffffffffffffffffffffffffe060405181603f83601f86011601168101915080821084831117156142df576142de6141ef565b5b816040528281528a60208487010111156142f7575f80fd5b826020860160208301375f60208483010152809550505050505092959194509250565b63ffffffff8116811461432b575f80fd5b50565b5f805f8060608587031215614341575f80fd5b843561434c81613f46565b80945050602085013561435e8161431a565b80935050604085013567ffffffffffffffff81111561437b575f80fd5b61438787828801613fab565b9150809350508091505092959194509250565b5f80604083850312156143ab575f80fd5b82356143b681613f46565b8092505060208301356143c881613f46565b809150509250929050565b5f805f805f805f8060e0898b0312156143ea575f80fd5b883567ffffffffffffffff80821115614401575f80fd5b818b01915060e0828d031215614415575f80fd5b81995060208b013591506144288261431a565b81985060408b0135915061443b8261431a565b81975060608b0135915080821115614451575f80fd5b818b0191508b601f830112614464575f80fd5b813581811115614472575f80fd5b8c6020606083028501011115614486575f80fd5b60208301975080965050505061449e60808a01613f6a565b92506144ac60a08a01613f6a565b91506144ba60c08a01613f6a565b90509295985092959890939650565b5f8160011c905060018216806144e057607f821691505b602082108103614517577f4e487b71000000000000000000000000000000000000000000000000000000005f52602260045260245ffd5b50919050565b8181525f60208201905092915050565b7f4e487b71000000000000000000000000000000000000000000000000000000005f52603260045260245ffd5b7f4e487b71000000000000000000000000000000000000000000000000000000005f52601160045260245ffd5b5f828202905081810483148215176145a2576145a161455a565b5b92915050565b7f4e487b71000000000000000000000000000000000000000000000000000000005f52601260045260245ffd5b5f826145e4576145e36145a8565b5b828204905092915050565b5f60208201905063ffffffff8316825292915050565b5f8060408385031215614616575f80fd5b82519150602083015190509250929050565b5f8351614639818460208801613e79565b8083019050835161464e818360208801613e79565b808201925050509392505050565b5f8282019050808211156146735761467261455a565b5b92915050565b5f82614688576146876145a8565b5b828206905092915050565b60208152601860208201527f43616c6c6572206973206e6f7420746865206d696e746572000000000000000060408201525f606082019050919050565b5f63ffffffff808416818416019150808211156146f0576146ef61455a565b5b5092915050565b60208152602e60208201527f496e697469616c697a61626c653a20636f6e747261637420697320616c72656160408201527f647920696e697469616c697a656400000000000000000000000000000000000060608201525f608082019050919050565b60208152603760208201527f455243373231415f5f496e697469616c697a61626c653a20636f6e747261637460408201527f20697320616c726561647920696e697469616c697a656400000000000000000060608201525f608082019050919050565b5f8083357fffffffffffffffffffffffffffffffffffffffffffffffffffffffffffffffe18436030181126147f0575f80fd5b80840190508035915067ffffffffffffffff82111561480d575f80fd5b60208101925050803603821315614822575f80fd5b9250929050565b805f52505f60205f20905090565b601f821115614884575f81815260208120601f850160051c8101602086101561485e578190505b601f850160051c820191505b818110156148805782815560018101905061486a565b5050505b505050565b5f8260011b7fffffffffffffffffffffffffffffffffffffffffffffffffffffffffffffffff8460031b1c19831617905092915050565b67ffffffffffffffff8311156148d9576148d86141ef565b5b6148ed836148e783546144c9565b83614837565b5f601f84116001811461491a575f8515614908578285013590505b6149128682614889565b8455506149b4565b7fffffffffffffffffffffffffffffffffffffffffffffffffffffffffffffffe0851661494684614829565b835b8281101561496d57848701358255600182019150602085019450602081019050614948565b50868210156149a8577fffffffffffffffffffffffffffffffffffffffffffffffffffffffffffffffff60f88860031b161c19848701351681555b505060018560011b0183555b5050505050565b5f602082840312156149cb575f80fd5b81356bffffffffffffffffffffffff811681146149e6575f80fd5b8091505092915050565b5f60208201905060ff8316825292915050565b5f73ffffffffffffffffffffffffffffffffffffffff808716835280861660208401525083604083015260806060830152614a416080830184613ea1565b905095945050505050565b5f60208284031215614a5c575f80fd5b8151614a6781613e12565b8091505092915050565b60208152603460208201527f455243373231415f5f496e697469616c697a61626c653a20636f6e747261637460408201527f206973206e6f7420696e697469616c697a696e6700000000000000000000000060608201525f608082019050919050565b60208152602a60208201527f455243323938313a20726f79616c7479206665652077696c6c2065786365656460408201527f2073616c6550726963650000000000000000000000000000000000000000000060608201525f608082019050919050565b60208152601960208201527f455243323938313a20696e76616c69642072656365697665720000000000000060408201525f606082019050919050565b5f60208284031215614b84575f80fd5b8135614b8f8161431a565b8091505092915050565b8135614ba48161431a565b63ffffffff811690508154817fffffffffffffffffffffffffffffffffffffffffffffffffffffffff0000000082161783556020840135614be48161431a565b67ffffffff000000008160201b16837fffffffffffffffffffffffffffffffffffffffffffffffff0000000000000000841617178455505050604082013560018201555050565b5f7fffffffffffffffffffffffffffffffffffffffffffffffffffffffffffffffff8203614c5c57614c5b61455a565b5b600182019050919050565b815167ffffffffffffffff811115614c8257614c816141ef565b5b614c9681614c9084546144c9565b84614837565b5f6020809150601f831160018114614cc8575f8415614cb6578387015190505b614cc08582614889565b865550614d62565b7fffffffffffffffffffffffffffffffffffffffffffffffffffffffffffffffe08416614cf486614829565b5f5b82811015614d195785890151825560018201915084860195508481019050614cf6565b5085821015614d5657848801517fffffffffffffffffffffffffffffffffffffffffffffffffffffffffffffffff60f88860031b161c1981168255505b505060018460011b0185555b50505050505056fea2646970667358221220b14854fe4432c470f5470e1d690e6ac882b903ca6787459a00705e706058d8b464736f6c63430008150033",
  "linkReferences": {},
  "deployedLinkReferences": {}
}