{
  "_format": "hh-sol-artifact-1",
  "contractName": "EeseeSwap",
  "sourceName": "contracts/periphery/EeseeSwap.sol",
  "abi": [
    {
      "inputs": [
        {
          "internalType": "contract IERC20",
          "name": "_ESE",
          "type": "address"
        },
        {
          "internalType": "address",
          "name": "_OneInchRouter",
          "type": "address"
        }
      ],
      "stateMutability": "nonpayable",
      "type": "constructor"
    },
    {
      "inputs": [],
      "name": "EthDepositRejected",
      "type": "error"
    },
    {
      "inputs": [],
      "name": "InvalidAmount",
      "type": "error"
    },
    {
      "inputs": [],
      "name": "InvalidConstructor",
      "type": "error"
    },
    {
      "inputs": [],
      "name": "InvalidRecipient",
      "type": "error"
    },
    {
      "inputs": [],
      "name": "InvalidSwapDescription",
      "type": "error"
    },
    {
      "inputs": [],
      "name": "SwapNotSuccessful",
      "type": "error"
    },
    {
      "inputs": [],
      "name": "TransferNotSuccessful",
      "type": "error"
    },
    {
      "anonymous": false,
      "inputs": [
        {
          "components": [
            {
              "internalType": "address",
              "name": "token",
              "type": "address"
            },
            {
              "internalType": "uint256",
              "name": "tokenID",
              "type": "uint256"
            },
            {
              "internalType": "uint256",
              "name": "amount",
              "type": "uint256"
            },
            {
              "internalType": "enum AssetType",
              "name": "assetType",
              "type": "uint8"
            },
            {
              "internalType": "bytes",
              "name": "data",
              "type": "bytes"
            }
          ],
          "indexed": false,
          "internalType": "struct Asset",
          "name": "assetBought",
          "type": "tuple"
        },
        {
          "indexed": true,
          "internalType": "contract IERC20",
          "name": "tokenSpent",
          "type": "address"
        },
        {
          "indexed": false,
          "internalType": "uint256",
          "name": "spent",
          "type": "uint256"
        },
        {
          "indexed": true,
          "internalType": "address",
          "name": "recipient",
          "type": "address"
        }
      ],
      "name": "ReceiveAsset",
      "type": "event"
    },
    {
      "inputs": [],
      "name": "ESE",
      "outputs": [
        {
          "internalType": "contract IERC20",
          "name": "",
          "type": "address"
        }
      ],
      "stateMutability": "view",
      "type": "function"
    },
    {
      "inputs": [],
      "name": "OneInchRouter",
      "outputs": [
        {
          "internalType": "address",
          "name": "",
          "type": "address"
        }
      ],
      "stateMutability": "view",
      "type": "function"
    },
    {
      "inputs": [
        {
          "components": [
            {
              "internalType": "bytes",
              "name": "swapData",
              "type": "bytes"
            },
            {
              "components": [
                {
                  "internalType": "contract IEeseeMarketplaceRouter",
                  "name": "router",
                  "type": "address"
                },
                {
                  "internalType": "bytes",
                  "name": "data",
                  "type": "bytes"
                }
              ],
              "internalType": "struct MarketplaceRouterData[]",
              "name": "marketplaceRoutersData",
              "type": "tuple[]"
            }
          ],
          "internalType": "struct SwapParams",
          "name": "swapParams",
          "type": "tuple"
        },
        {
          "internalType": "address",
          "name": "recipient",
          "type": "address"
        }
      ],
      "name": "swapTokensForAssets",
      "outputs": [
        {
          "components": [
            {
              "internalType": "address",
              "name": "token",
              "type": "address"
            },
            {
              "internalType": "uint256",
              "name": "tokenID",
              "type": "uint256"
            },
            {
              "internalType": "uint256",
              "name": "amount",
              "type": "uint256"
            },
            {
              "internalType": "enum AssetType",
              "name": "assetType",
              "type": "uint8"
            },
            {
              "internalType": "bytes",
              "name": "data",
              "type": "bytes"
            }
          ],
          "internalType": "struct Asset[]",
          "name": "assets",
          "type": "tuple[]"
        },
        {
          "internalType": "contract IERC20",
          "name": "dstToken",
          "type": "address"
        },
        {
          "internalType": "uint256",
          "name": "returnAmount",
          "type": "uint256"
        },
        {
          "internalType": "uint96",
          "name": "dust",
          "type": "uint96"
        }
      ],
      "stateMutability": "nonpayable",
      "type": "function"
    },
    {
      "stateMutability": "payable",
      "type": "receive"
    }
  ],
  "bytecode": "0x60c060405234801562000010575f80fd5b50604051620024763803806200247683398181016040528101906200003691906200034f565b620000526708149229df74db1a60c01b6200032b60201b60201c565b6200006e678d14a948d4bdf0d960c01b6200032b60201b60201c565b6200008a6752016b1a9a8eb3c960c01b6200032b60201b60201c565b5f73ffffffffffffffffffffffffffffffffffffffff168273ffffffffffffffffffffffffffffffffffffffff16148015620000de5750620000dd67d3dde8ba436a2aa460c01b6200032e60201b60201c565b5b806200013a57505f73ffffffffffffffffffffffffffffffffffffffff168173ffffffffffffffffffffffffffffffffffffffff161480156200013957506200013867c5f216e9202bbcb060c01b6200032e60201b60201c565b5b5b156200018e576200015c672ce457351564489360c01b6200032b60201b60201c565b6040517f12c1701b00000000000000000000000000000000000000000000000000000000815260040160405180910390fd5b620001aa672ab8a15861f70f4b60c01b6200032b60201b60201c565b620001c667549cd757cbc3868a60c01b6200032b60201b60201c565b8173ffffffffffffffffffffffffffffffffffffffff1660808173ffffffffffffffffffffffffffffffffffffffff168152505062000216674c770ec5a9f5934e60c01b6200032b60201b60201c565b8073ffffffffffffffffffffffffffffffffffffffff1660a08173ffffffffffffffffffffffffffffffffffffffff16815250506200026667e139ddbc889b2cd960c01b6200032b60201b60201c565b6200028267b46fef3a5de250e460c01b6200032b60201b60201c565b8173ffffffffffffffffffffffffffffffffffffffff1663095ea7b3827fffffffffffffffffffffffffffffffffffffffffffffffffffffffffffffffff6040518363ffffffff1660e01b8152600401620002df9291906200038d565b6020604051808303815f875af1158015620002fc573d5f803e3d5ffd5b505050506040513d601f19601f82011682018060405250810190620003229190620003ac565b505050620003d7565b50565b5f60019050919050565b60018060a01b03811681146200034c575f80fd5b50565b5f806040838503121562000361575f80fd5b82516200036e8162000338565b809250506020830151620003828162000338565b809150509250929050565b5f60408201905060018060a01b03841682528260208301529392505050565b5f60208284031215620003bd575f80fd5b81518015158114620003cd575f80fd5b8091505092915050565b60805160a05161206f620004075f395f818161019f015261072b01525f818161017b0152610349015261206f5ff3fe608060405260043610610037575f3560e01c8063764bd0c5146100e3578063c3b6d6dd1461010d578063c8b84d1714610137576100df565b366100df57610050673aace4ed7037600660c01b610176565b3273ffffffffffffffffffffffffffffffffffffffff163373ffffffffffffffffffffffffffffffffffffffff16036100c95761009767c617dda6877a8c8960c01b610176565b6040517f1b10b0f900000000000000000000000000000000000000000000000000000000815260040160405180910390fd5b6100dd6708045de5bc18d64360c01b610176565b005b5f80fd5b3480156100ee575f80fd5b506100f7610179565b6040516101049190611574565b60405180910390f35b348015610118575f80fd5b5061012161019d565b60405161012e919061159a565b60405180910390f35b348015610142575f80fd5b5061015d600480360381019061015891906115e4565b6101c1565b60405161016d949392919061176e565b60405180910390f35b50565b7f000000000000000000000000000000000000000000000000000000000000000081565b7f000000000000000000000000000000000000000000000000000000000000000081565b60605f805f6101da67cdbafe164a72f9d060c01b610176565b6101ee6744e0e69e6fa8ad2d60c01b610176565b610202675ca6ca281b6eed8a60c01b610176565b5f73ffffffffffffffffffffffffffffffffffffffff168573ffffffffffffffffffffffffffffffffffffffff160361027b57610249671c47bd03397c636d60c01b610176565b6040517f9c8d2cd200000000000000000000000000000000000000000000000000000000815260040160405180910390fd5b61028f67322212753e91827f60c01b610176565b6102a367d189c69754126c5460c01b610176565b6102bb86805f01906102b5919061182d565b87610307565b8093508194508295505050506102db67a2cd2245c9f36e5d60c01b610176565b6102f683838880602001906102f09190611899565b896109ca565b809350819550505092959194509250565b5f805f61031e67615ae17c6e03350d60c01b610176565b610332671cae1b12ad0353fc60c01b610176565b6103466772b80091df7d15e960c01b610176565b5f7f0000000000000000000000000000000000000000000000000000000000000000905061037e67b699c5d11972873f60c01b610176565b610392670c0ed70297ca9fb860c01b610176565b5f8173ffffffffffffffffffffffffffffffffffffffff166370a08231306040518263ffffffff1660e01b81526004016103cc919061159a565b602060405180830381865afa1580156103e7573d5f803e3d5ffd5b505050506040513d601f19601f8201168201806040525081019061040b9190611908565b90506104216732e72909aefde97b60c01b610176565b610435678ec6201e4619c6f760c01b610176565b5f888890501461097c5761045367d99148b546c9cb1460c01b610176565b61046767d4b17813577ced9660c01b610176565b61047b6774f9b0f5f0ae1ded60c01b610176565b5f8888600490809261048f93929190611922565b81019061049c9190611acc565b509150506104b467e593698cbdaebf6760c01b610176565b6104c867e412d0c8eb67f12d60c01b610176565b6312aa3caf60e01b7bffffffffffffffffffffffffffffffffffffffffffffffffffffffff191689895f9060049261050293929190611922565b9061050d9190611bca565b7bffffffffffffffffffffffffffffffffffffffffffffffffffffffff19161415801561054a575061054967d4ebec88fc78e5fb60c01b611206565b5b806105bc57508273ffffffffffffffffffffffffffffffffffffffff16815f015173ffffffffffffffffffffffffffffffffffffffff161415801561059f575061059e6709a1e1af27804d2d60c01b611206565b5b80156105bb57506105ba677c7c6531473f3dc860c01b611206565b5b5b8061062e57508273ffffffffffffffffffffffffffffffffffffffff16816020015173ffffffffffffffffffffffffffffffffffffffff16148015610611575061061067971e84c8a713c17760c01b611206565b5b801561062d575061062c6792dbff6de1fb080060c01b611206565b5b5b8061068557503073ffffffffffffffffffffffffffffffffffffffff16816060015173ffffffffffffffffffffffffffffffffffffffff1614158015610684575061068367f86ed8494e43a52460c01b611206565b5b5b156106d05761069e672a3018c11b5384fa60c01b610176565b6040517f3034d71300000000000000000000000000000000000000000000000000000000815260040160405180910390fd5b6106e46731ba879d19078b1260c01b610176565b6106f867a4cc1e891c8eedd660c01b610176565b8060200151955061071367be911eb5f1aa3da260c01b610176565b61072767c111f120893913ce60c01b610176565b5f807f000000000000000000000000000000000000000000000000000000000000000073ffffffffffffffffffffffffffffffffffffffff168b8b604051610770929190611c14565b5f604051808303815f865af19150503d805f81146107a9576040519150601f19603f3d011682016040523d82523d5f602084013e6107ae565b606091505b50915091506107c76712ce57d43a2e8abd60c01b610176565b6107db679845b3a4e1079fb360c01b610176565b81610826576107f4679935a4edb3bcc18d60c01b610176565b6040517fa4f2ebb600000000000000000000000000000000000000000000000000000000815260040160405180910390fd5b61083a67fab4ce0dfefb78c660c01b610176565b61084e674450d5c7134c44cd60c01b610176565b6108626730accab84a5f6c2760c01b610176565b5f6108776718db2365aa82072560c01b610176565b8180602001905181019061088b9190611c2a565b80925081995050506108a7677573f4f7d0d894bb60c01b610176565b6108bb6737d0ab3a21378b5360c01b610176565b84811461095e576108d667dc7c0d6b430e67aa60c01b610176565b6108ea6782ed2c01468e2c6560c01b610176565b80856108f69190611c4d565b965061090c675919115439c5ad6760c01b610176565b610920672b25d045d8a9148b60c01b610176565b6109598a886bffffffffffffffffffffffff168873ffffffffffffffffffffffffffffffffffffffff166112109092919063ffffffff16565b610973565b61097267b72468f7a73a005760c01b610176565b5b505050506109bf565b61099067a9641200a60f44b960c01b610176565b6109a46776a9201a6582738160c01b610176565b8194506109bb67976a28a6f309452860c01b610176565b8093505b505093509350939050565b60605f6109e167fdca423561c1fa3260c01b610176565b6109f567a255303a2d7a0dd460c01b610176565b610a0967713675317ee1e5d760c01b610176565b5f858590509050610a2467bb815975a8c391a660c01b610176565b8067ffffffffffffffff811115610a3e57610a3d61194f565b5b604051908082528060200260200182016040528015610a7757816020015b610a64611521565b815260200190600190039081610a5c5790505b509250610a8e67c925c489073bfe7060c01b610176565b610aa26751c164f1c79e9f6f60c01b610176565b5f8073ffffffffffffffffffffffffffffffffffffffff168973ffffffffffffffffffffffffffffffffffffffff161480610b1c575073eeeeeeeeeeeeeeeeeeeeeeeeeeeeeeeeeeeeeeee73ffffffffffffffffffffffffffffffffffffffff168973ffffffffffffffffffffffffffffffffffffffff16145b9050610b326704ac8002d55a72bc60c01b610176565b610b46671bd11f0db32ac58360c01b610176565b5f5b82811015610fa657610b646739a13f95dfab620460c01b610176565b610b786739790a61600deb9e60c01b610176565b5f610b8d67a933955d986ccb3160c01b610176565b610ba167fe4998cd2dba576760c01b610176565b8215610d0157610bbb6760c403e263308eb560c01b610176565b610bcf675ee0fb95ad42d82960c01b610176565b888883818110610be257610be1611c8e565b5b9050602002810190610bf49190611cbb565b5f016020810190610c059190611cf9565b73ffffffffffffffffffffffffffffffffffffffff16633e19c9e08b8b8b86818110610c3457610c33611c8e565b5b9050602002810190610c469190611cbb565b8060200190610c55919061182d565b8b6040518563ffffffff1660e01b8152600401610c7493929190611d1e565b5f6040518083038185885af1158015610c8f573d5f803e3d5ffd5b50505050506040513d5f823e3d601f19601f82011682018060405250810190610cb89190611d89565b878481518110610ccb57610cca611c8e565b5b602002602001018193508290525050610cee67c79a09a00606e50460c01b610176565b808a610cfa9190611c4d565b9950610edd565b610d1567ce541f0f7285283660c01b610176565b610d29673e577d7e92a4cc1a60c01b610176565b610d3d67e35dae47e0ff3cfc60c01b610176565b610d9d898984818110610d5357610d52611c8e565b5b9050602002810190610d659190611cbb565b5f016020810190610d769190611cf9565b8b8d73ffffffffffffffffffffffffffffffffffffffff166112109092919063ffffffff16565b610db167256586a92de691fa60c01b610176565b888883818110610dc457610dc3611c8e565b5b9050602002810190610dd69190611cbb565b5f016020810190610de79190611cf9565b73ffffffffffffffffffffffffffffffffffffffff16633e19c9e08a8a85818110610e1557610e14611c8e565b5b9050602002810190610e279190611cbb565b8060200190610e36919061182d565b8a6040518463ffffffff1660e01b8152600401610e5593929190611d1e565b5f604051808303815f875af1158015610e70573d5f803e3d5ffd5b505050506040513d5f823e3d601f19601f82011682018060405250810190610e989190611d89565b878481518110610eab57610eaa611c8e565b5b602002602001018193508290525050610ece672570a44af221f12560c01b610176565b808a610eda9190611c4d565b99505b610ef167cbec83e49e3c1a4560c01b610176565b610f05672ab5153acedf203260c01b610176565b8673ffffffffffffffffffffffffffffffffffffffff168b73ffffffffffffffffffffffffffffffffffffffff167fb459d4534c1d905f42c3e9ddde74e197046b495fe3aabab6d60d2e71809a5cca888581518110610f6757610f66611c8e565b5b602002602001015184604051610f7e929190611e7f565b60405180910390a3610f9a67dd2b99ac34115fbe60c01b610176565b81600101915050610b48565b50610fbb671f0f89dd31b4a42a60c01b610176565b610fcf6714ec3ed4884e1bb660c01b610176565b5f8811156111b757610feb67cb5dfcd895b3c32f60c01b610176565b610fff6736b0b35f2a84ed0a60c01b610176565b61101367e1f9b920ca5d9c3560c01b610176565b801561114a5761102d6730f6eaec4490496d60c01b610176565b6110416747dc2650a9ff6b2c60c01b610176565b61105567f84b0ec83df7889360c01b610176565b5f8573ffffffffffffffffffffffffffffffffffffffff168960405161107a90611ea0565b5f6040518083038185875af1925050503d805f81146110b4576040519150601f19603f3d011682016040523d82523d5f602084013e6110b9565b606091505b505090506110d167163eaa75bfacaba260c01b610176565b6110e5679436a3dd762d2c3060c01b610176565b80611130576110fe678192e14a24ce197660c01b610176565b6040517fa392ef7800000000000000000000000000000000000000000000000000000000815260040160405180910390fd5b611144679a57c94a8ee68e1b60c01b610176565b506111b2565b61115e67981435ab64f137b660c01b610176565b61117267fdf97f6855a5668b60c01b610176565b6111866785c7d61ed265516460c01b610176565b6111b185898b73ffffffffffffffffffffffffffffffffffffffff166112109092919063ffffffff16565b5b6111cc565b6111cb67b88d8b471a57921a60c01b610176565b5b6111e0673b1c7c1779af65f760c01b610176565b6111f467e298060616d1ff5160c01b610176565b83889350935050509550959350505050565b5f60019050919050565b6112918363a9059cbb60e01b848460405160240161122f929190611ea9565b604051602081830303815290604052907bffffffffffffffffffffffffffffffffffffffffffffffffffffffff19166020820180517bffffffffffffffffffffffffffffffffffffffffffffffffffffffff8381831617835250505050611296565b505050565b5f6112f7826040518060400160405280602081526020017f5361666545524332303a206c6f772d6c6576656c2063616c6c206661696c65648152508573ffffffffffffffffffffffffffffffffffffffff1661135c9092919063ffffffff16565b90505f815114806113185750808060200190518101906113179190611ed6565b5b611357576040517f08c379a000000000000000000000000000000000000000000000000000000000815260040161134e90611eff565b60405180910390fd5b505050565b606061136a84845f85611373565b90509392505050565b6060824710156113b8576040517f08c379a00000000000000000000000000000000000000000000000000000000081526004016113af90611f62565b60405180910390fd5b5f808673ffffffffffffffffffffffffffffffffffffffff1685876040516113e09190611fc5565b5f6040518083038185875af1925050503d805f811461141a576040519150601f19603f3d011682016040523d82523d5f602084013e61141f565b606091505b50915091506114308783838761143c565b92505050949350505050565b6060831561149d575f83510361149557611455856114b0565b611494576040517f08c379a000000000000000000000000000000000000000000000000000000000815260040161148b90611fe2565b60405180910390fd5b5b8290506114a8565b6114a783836114d2565b5b949350505050565b5f808273ffffffffffffffffffffffffffffffffffffffff163b119050919050565b5f825111156114e45781518083602001fd5b806040517f08c379a0000000000000000000000000000000000000000000000000000000008152600401611518919061201f565b60405180910390fd5b6040518060a001604052805f73ffffffffffffffffffffffffffffffffffffffff1681526020015f81526020015f81526020015f60058111156115675761156661163c565b5b8152602001606081525090565b5f60208201905073ffffffffffffffffffffffffffffffffffffffff8316825292915050565b5f60208201905073ffffffffffffffffffffffffffffffffffffffff8316825292915050565b73ffffffffffffffffffffffffffffffffffffffff811681146115e1575f80fd5b50565b5f80604083850312156115f5575f80fd5b823567ffffffffffffffff81111561160b575f80fd5b80840190506040818603121561161f575f80fd5b809250506020830135611631816115c0565b809150509250929050565b7f4e487b71000000000000000000000000000000000000000000000000000000005f52602160045260245ffd5b5f5b8381101561168657808201518184015260208101905061166b565b505f83830152505050565b5f81518084526116a8816020860160208601611669565b60207fffffffffffffffffffffffffffffffffffffffffffffffffffffffffffffffe0601f83011685010191505092915050565b73ffffffffffffffffffffffffffffffffffffffff815116825260208101516020830152604081015160408301525f606082015160068110611745577f4e487b71000000000000000000000000000000000000000000000000000000005f52602160045260245ffd5b80606085015250608082015160a0608085015261176560a0850182611691565b91505092915050565b5f608082016080835280875180835260a08501915060a08160051b86010192506020808a015f5b838110156117e6577fffffffffffffffffffffffffffffffffffffffffffffffffffffffffffffff608887030185526117cf8683516116dc565b955082820191508285019450600181019050611795565b505083945073ffffffffffffffffffffffffffffffffffffffff891681870152505050508360408301526bffffffffffffffffffffffff8316606083015295945050505050565b5f8083357fffffffffffffffffffffffffffffffffffffffffffffffffffffffffffffffe1843603018112611860575f80fd5b80840190508035915067ffffffffffffffff82111561187d575f80fd5b60208101925050803603821315611892575f80fd5b9250929050565b5f8083357fffffffffffffffffffffffffffffffffffffffffffffffffffffffffffffffe18436030181126118cc575f80fd5b80840190508035915067ffffffffffffffff8211156118e9575f80fd5b602081019250508060051b3603821315611901575f80fd5b9250929050565b5f60208284031215611918575f80fd5b8151905092915050565b5f8085851115611930575f80fd5b8386111561193c575f80fd5b8483019150848603905094509492505050565b7f4e487b71000000000000000000000000000000000000000000000000000000005f52604160045260245ffd5b5f604051905060e0810181811067ffffffffffffffff821117156119a3576119a261194f565b5b806040525090565b5f604051905060a0810181811067ffffffffffffffff821117156119d2576119d161194f565b5b806040525090565b5f60405190507fffffffffffffffffffffffffffffffffffffffffffffffffffffffffffffffe0601f830116810181811067ffffffffffffffff82111715611a2557611a2461194f565b5b8060405250919050565b5f67ffffffffffffffff821115611a4957611a4861194f565b5b60207fffffffffffffffffffffffffffffffffffffffffffffffffffffffffffffffe0601f840116019050919050565b5f82601f830112611a88575f80fd5b8135611a9b611a9682611a2f565b6119da565b818152846020838601011115611aaf575f80fd5b816020850160208301375f60208383010152809250505092915050565b5f805f838503610120811215611ae0575f80fd5b8435611aeb816115c0565b8094505060e07fffffffffffffffffffffffffffffffffffffffffffffffffffffffffffffffe082011215611b1e575f80fd5b50611b2761197c565b6020850135611b35816115c0565b808252506040850135611b47816115c0565b806020830152506060850135611b5c816115c0565b806040830152506080850135611b71816115c0565b8060608301525060a0850135608082015260c085013560a082015260e085013560c08201528092505061010084013567ffffffffffffffff811115611bb4575f80fd5b611bc086828701611a79565b9150509250925092565b5f81357fffffffff0000000000000000000000000000000000000000000000000000000080821692506004851015611c0c5780818660040360031b1b83161692505b505092915050565b818382375f8282015f8152809150509392505050565b5f8060408385031215611c3b575f80fd5b82519150602083015190509250929050565b5f828203905081811115611c88577f4e487b71000000000000000000000000000000000000000000000000000000005f52601160045260245ffd5b92915050565b7f4e487b71000000000000000000000000000000000000000000000000000000005f52603260045260245ffd5b5f82357fffffffffffffffffffffffffffffffffffffffffffffffffffffffffffffffc1833603018112611ced575f80fd5b80830191505092915050565b5f60208284031215611d09575f80fd5b8135611d14816115c0565b8091505092915050565b60408152826040820152828460608301375f606084830101525f60607fffffffffffffffffffffffffffffffffffffffffffffffffffffffffffffffe0601f860116830101905073ffffffffffffffffffffffffffffffffffffffff83166020830152949350505050565b5f8060408385031215611d9a575f80fd5b825167ffffffffffffffff80821115611db1575f80fd5b818501915060a08287031215611dc5575f80fd5b611dcd6119ab565b8251611dd8816115c0565b808252506020808401518183015260408401516040830152606084015160068110611e01575f80fd5b80606084015250608084015183811115611e19575f80fd5b80850194505087601f850112611e2d575f80fd5b83519250611e42611e3d84611a2f565b6119da565b8381528882858701011115611e55575f80fd5b611e6484838301848801611669565b80608084015250819550808701519450505050509250929050565b604081525f611e9160408301856116dc565b90508260208301529392505050565b5f819050919050565b5f60408201905073ffffffffffffffffffffffffffffffffffffffff841682528260208301529392505050565b5f60208284031215611ee6575f80fd5b81518015158114611ef5575f80fd5b8091505092915050565b60208152602a60208201527f5361666545524332303a204552433230206f7065726174696f6e20646964206e60408201527f6f7420737563636565640000000000000000000000000000000000000000000060608201525f608082019050919050565b60208152602660208201527f416464726573733a20696e73756666696369656e742062616c616e636520666f60408201527f722063616c6c000000000000000000000000000000000000000000000000000060608201525f608082019050919050565b5f8251611fd6818460208701611669565b80830191505092915050565b60208152601d60208201527f416464726573733a2063616c6c20746f206e6f6e2d636f6e747261637400000060408201525f606082019050919050565b602081525f6120316020830184611691565b90509291505056fea2646970667358221220002c2bea3c10b3e91f4d5aef95a4801d88f1c323b7584b8fd2d87b63878d533b64736f6c63430008150033",
  "linkReferences": {},
  "deployedLinkReferences": {}
}