{
  "_format": "hh-sol-artifact-1",
  "contractName": "Mock1InchRouter",
  "sourceName": "contracts/test/Mock1InchRouter.sol",
  "abi": [
    {
      "inputs": [],
      "name": "ETHTransferFailed",
      "type": "error"
    },
    {
      "inputs": [],
      "name": "EthDepositRejected",
      "type": "error"
    },
    {
      "inputs": [],
      "name": "InsufficientBalance",
      "type": "error"
    },
    {
      "inputs": [],
      "name": "InvalidMsgValue",
      "type": "error"
    },
    {
      "inputs": [],
      "name": "ReturnAmountIsNotEnough",
      "type": "error"
    },
    {
      "inputs": [],
      "name": "ZeroMinReturn",
      "type": "error"
    },
    {
      "inputs": [],
      "name": "ZeroReturnAmount",
      "type": "error"
    },
    {
      "inputs": [
        {
          "internalType": "contract IAggregationExecutor",
          "name": "executor",
          "type": "address"
        },
        {
          "components": [
            {
              "internalType": "contract IERC20",
              "name": "srcToken",
              "type": "address"
            },
            {
              "internalType": "contract IERC20",
              "name": "dstToken",
              "type": "address"
            },
            {
              "internalType": "address payable",
              "name": "srcReceiver",
              "type": "address"
            },
            {
              "internalType": "address payable",
              "name": "dstReceiver",
              "type": "address"
            },
            {
              "internalType": "uint256",
              "name": "amount",
              "type": "uint256"
            },
            {
              "internalType": "uint256",
              "name": "minReturnAmount",
              "type": "uint256"
            },
            {
              "internalType": "uint256",
              "name": "flags",
              "type": "uint256"
            }
          ],
          "internalType": "struct Mock1InchRouter.SwapDescription",
          "name": "desc",
          "type": "tuple"
        },
        {
          "internalType": "bytes",
          "name": "permit",
          "type": "bytes"
        },
        {
          "internalType": "bytes",
          "name": "data",
          "type": "bytes"
        }
      ],
      "name": "swap",
      "outputs": [
        {
          "internalType": "uint256",
          "name": "returnAmount",
          "type": "uint256"
        },
        {
          "internalType": "uint256",
          "name": "spentAmount",
          "type": "uint256"
        }
      ],
      "stateMutability": "payable",
      "type": "function"
    },
    {
      "stateMutability": "payable",
      "type": "receive"
    }
  ],
  "bytecode": "0x608060405234801561000f575f80fd5b50610f888061001d5f395ff3fe608060405260043610610021575f3560e01c806312aa3caf146100915761008d565b3661008d573273ffffffffffffffffffffffffffffffffffffffff163373ffffffffffffffffffffffffffffffffffffffff160361008b576040517f1b10b0f900000000000000000000000000000000000000000000000000000000815260040160405180910390fd5b005b5f80fd5b6100ab60048036038101906100a69190610ae2565b6100c2565b6040516100b9929190610ba3565b60405180910390f35b5f805f8760a0013503610101576040517f0262dde400000000000000000000000000000000000000000000000000000000815260040160405180910390fd5b5f875f0160208101906101149190610bba565b90505f88602001602081019061012a9190610bba565b90505f61014c8373ffffffffffffffffffffffffffffffffffffffff16610482565b905080610159575f61015f565b89608001355b3414610197576040517f1841b4e100000000000000000000000000000000000000000000000000000000815260040160405180910390fd5b806101e0576101df338b60400160208101906101b39190610bdf565b8c608001358673ffffffffffffffffffffffffffffffffffffffff16610503909392919063ffffffff16565b5b8a73ffffffffffffffffffffffffffffffffffffffff1663a04a090834338a8a8f608001356040518663ffffffff1660e01b81526004016102249493929190610c04565b5f604051808303818588803b15801561023b575f80fd5b505af115801561024d573d5f803e3d5ffd5b505050505089608001359350610282308373ffffffffffffffffffffffffffffffffffffffff1661058c90919063ffffffff16565b94505f85036102bd576040517f28ebf24700000000000000000000000000000000000000000000000000000000815260040160405180910390fd5b8480600190039550505f8a60c00135036103a7575f6102fb308573ffffffffffffffffffffffffffffffffffffffff1661058c90919063ffffffff16565b9050600181111561034957808060019003915050808561031b9190610ca3565b945061034833828673ffffffffffffffffffffffffffffffffffffffff1661063b9092919063ffffffff16565b5b848b60a001356103599190610cc0565b8b60800135876103699190610cc0565b10156103a1576040517ff32bec2f00000000000000000000000000000000000000000000000000000000815260040160405180910390fd5b506103e6565b8960a001358510156103e5576040517ff32bec2f00000000000000000000000000000000000000000000000000000000815260040160405180910390fd5b5b5f8073ffffffffffffffffffffffffffffffffffffffff168b60600160208101906104119190610bdf565b73ffffffffffffffffffffffffffffffffffffffff1614610444578a606001602081019061043f9190610bdf565b610446565b335b905061047381878573ffffffffffffffffffffffffffffffffffffffff1661063b9092919063ffffffff16565b50505050965096945050505050565b5f8073ffffffffffffffffffffffffffffffffffffffff168273ffffffffffffffffffffffffffffffffffffffff1614806104fc575073eeeeeeeeeeeeeeeeeeeeeeeeeeeeeeeeeeeeeeee73ffffffffffffffffffffffffffffffffffffffff168273ffffffffffffffffffffffffffffffffffffffff16145b9050919050565b610586846323b872dd60e01b85858560405160240161052493929190610ce1565b604051602081830303815290604052907bffffffffffffffffffffffffffffffffffffffffffffffffffffffff19166020820180517bffffffffffffffffffffffffffffffffffffffffffffffffffffffff8381831617835250505050610767565b50505050565b5f61059683610482565b156105ba578173ffffffffffffffffffffffffffffffffffffffff16319050610635565b8273ffffffffffffffffffffffffffffffffffffffff166370a08231836040518263ffffffff1660e01b81526004016105f39190610d19565b602060405180830381865afa15801561060e573d5f803e3d5ffd5b505050506040513d601f19601f820116820180604052508101906106329190610d3f565b90505b92915050565b5f8111156107625761064c83610482565b15610735578047101561068b576040517ff4d678b800000000000000000000000000000000000000000000000000000000815260040160405180910390fd5b5f8273ffffffffffffffffffffffffffffffffffffffff1682611388906040516106b490610d59565b5f60405180830381858888f193505050503d805f81146106ef576040519150601f19603f3d011682016040523d82523d5f602084013e6106f4565b606091505b505090508061072f576040517fb12d13eb00000000000000000000000000000000000000000000000000000000815260040160405180910390fd5b50610761565b61076082828573ffffffffffffffffffffffffffffffffffffffff1661082d9092919063ffffffff16565b5b5b505050565b5f6107c8826040518060400160405280602081526020017f5361666545524332303a206c6f772d6c6576656c2063616c6c206661696c65648152508573ffffffffffffffffffffffffffffffffffffffff166108b39092919063ffffffff16565b90505f815114806107e95750808060200190518101906107e89190610d62565b5b610828576040517f08c379a000000000000000000000000000000000000000000000000000000000815260040161081f90610d8b565b60405180910390fd5b505050565b6108ae8363a9059cbb60e01b848460405160240161084c929190610dee565b604051602081830303815290604052907bffffffffffffffffffffffffffffffffffffffffffffffffffffffff19166020820180517bffffffffffffffffffffffffffffffffffffffffffffffffffffffff8381831617835250505050610767565b505050565b60606108c184845f856108ca565b90509392505050565b60608247101561090f576040517f08c379a000000000000000000000000000000000000000000000000000000000815260040161090690610e1b565b60405180910390fd5b5f808673ffffffffffffffffffffffffffffffffffffffff1685876040516109379190610ea6565b5f6040518083038185875af1925050503d805f8114610971576040519150601f19603f3d011682016040523d82523d5f602084013e610976565b606091505b509150915061098787838387610993565b92505050949350505050565b606083156109f4575f8351036109ec576109ac85610a07565b6109eb576040517f08c379a00000000000000000000000000000000000000000000000000000000081526004016109e290610ec3565b60405180910390fd5b5b8290506109ff565b6109fe8383610a29565b5b949350505050565b5f808273ffffffffffffffffffffffffffffffffffffffff163b119050919050565b5f82511115610a3b5781518083602001fd5b806040517f08c379a0000000000000000000000000000000000000000000000000000000008152600401610a6f9190610f00565b60405180910390fd5b73ffffffffffffffffffffffffffffffffffffffff81168114610a99575f80fd5b50565b5f8083601f840112610aac575f80fd5b8235905067ffffffffffffffff811115610ac4575f80fd5b602083019150836020828501011115610adb575f80fd5b9250929050565b5f805f805f80868803610140811215610af9575f80fd5b8735610b0481610a78565b8097505060e07fffffffffffffffffffffffffffffffffffffffffffffffffffffffffffffffe082011215610b37575f80fd5b5060208701945061010087013567ffffffffffffffff80821115610b59575f80fd5b610b658a838b01610a9c565b925080965050819450610120890135915080821115610b82575f80fd5b50610b8f89828a01610a9c565b915080935050809150509295509295509295565b5f6040820190508382528260208301529392505050565b5f60208284031215610bca575f80fd5b8135610bd581610a78565b8091505092915050565b5f60208284031215610bef575f80fd5b8135610bfa81610a78565b8091505092915050565b73ffffffffffffffffffffffffffffffffffffffff8516815260606020820152826060820152828460808301375f608084830101525f60807fffffffffffffffffffffffffffffffffffffffffffffffffffffffffffffffe0601f860116830101905082604083015295945050505050565b7f4e487b71000000000000000000000000000000000000000000000000000000005f52601160045260245ffd5b5f828203905081811115610cba57610cb9610c76565b5b92915050565b5f82820290508181048314821517610cdb57610cda610c76565b5b92915050565b5f60608201905073ffffffffffffffffffffffffffffffffffffffff8086168352808516602084015250826040830152949350505050565b5f60208201905073ffffffffffffffffffffffffffffffffffffffff8316825292915050565b5f60208284031215610d4f575f80fd5b8151905092915050565b5f819050919050565b5f60208284031215610d72575f80fd5b81518015158114610d81575f80fd5b8091505092915050565b60208152602a60208201527f5361666545524332303a204552433230206f7065726174696f6e20646964206e60408201527f6f7420737563636565640000000000000000000000000000000000000000000060608201525f608082019050919050565b5f60408201905073ffffffffffffffffffffffffffffffffffffffff841682528260208301529392505050565b60208152602660208201527f416464726573733a20696e73756666696369656e742062616c616e636520666f60408201527f722063616c6c000000000000000000000000000000000000000000000000000060608201525f608082019050919050565b5f5b83811015610e9b578082015181840152602081019050610e80565b505f83830152505050565b5f8251610eb7818460208701610e7e565b80830191505092915050565b60208152601d60208201527f416464726573733a2063616c6c20746f206e6f6e2d636f6e747261637400000060408201525f606082019050919050565b602081525f8251806020840152610f1e816040850160208701610e7e565b60407fffffffffffffffffffffffffffffffffffffffffffffffffffffffffffffffe0601f8301168401019150509291505056fea2646970667358221220c443c8d98cc2622f7cac505e8ffa49f17016d3afde6ffd7b487410082dfb17a064736f6c63430008150033",
  "linkReferences": {},
  "deployedLinkReferences": {}
}