{
  "_format": "hh-sol-artifact-1",
  "contractName": "EeseeNFTLazyMint",
  "sourceName": "contracts/NFT/EeseeNFTLazyMint.sol",
  "abi": [
    {
      "inputs": [],
      "name": "ApprovalCallerNotOwnerNorApproved",
      "type": "error"
    },
    {
      "inputs": [],
      "name": "ApprovalQueryForNonexistentToken",
      "type": "error"
    },
    {
      "inputs": [],
      "name": "BalanceQueryForZeroAddress",
      "type": "error"
    },
    {
      "inputs": [],
      "name": "MintERC2309QuantityExceedsLimit",
      "type": "error"
    },
    {
      "inputs": [],
      "name": "MintToZeroAddress",
      "type": "error"
    },
    {
      "inputs": [],
      "name": "MintZeroQuantity",
      "type": "error"
    },
    {
      "inputs": [],
      "name": "OwnerQueryForNonexistentToken",
      "type": "error"
    },
    {
      "inputs": [],
      "name": "OwnershipNotInitializedForExtraData",
      "type": "error"
    },
    {
      "inputs": [],
      "name": "TransferCallerNotOwnerNorApproved",
      "type": "error"
    },
    {
      "inputs": [],
      "name": "TransferFromIncorrectOwner",
      "type": "error"
    },
    {
      "inputs": [],
      "name": "TransferToNonERC721ReceiverImplementer",
      "type": "error"
    },
    {
      "inputs": [],
      "name": "TransferToZeroAddress",
      "type": "error"
    },
    {
      "inputs": [],
      "name": "URIQueryForNonexistentToken",
      "type": "error"
    },
    {
      "anonymous": false,
      "inputs": [
        {
          "indexed": true,
          "internalType": "address",
          "name": "owner",
          "type": "address"
        },
        {
          "indexed": true,
          "internalType": "address",
          "name": "approved",
          "type": "address"
        },
        {
          "indexed": true,
          "internalType": "uint256",
          "name": "tokenId",
          "type": "uint256"
        }
      ],
      "name": "Approval",
      "type": "event"
    },
    {
      "anonymous": false,
      "inputs": [
        {
          "indexed": true,
          "internalType": "address",
          "name": "owner",
          "type": "address"
        },
        {
          "indexed": true,
          "internalType": "address",
          "name": "operator",
          "type": "address"
        },
        {
          "indexed": false,
          "internalType": "bool",
          "name": "approved",
          "type": "bool"
        }
      ],
      "name": "ApprovalForAll",
      "type": "event"
    },
    {
      "anonymous": false,
      "inputs": [
        {
          "indexed": true,
          "internalType": "uint256",
          "name": "fromTokenId",
          "type": "uint256"
        },
        {
          "indexed": false,
          "internalType": "uint256",
          "name": "toTokenId",
          "type": "uint256"
        },
        {
          "indexed": true,
          "internalType": "address",
          "name": "from",
          "type": "address"
        },
        {
          "indexed": true,
          "internalType": "address",
          "name": "to",
          "type": "address"
        }
      ],
      "name": "ConsecutiveTransfer",
      "type": "event"
    },
    {
      "anonymous": false,
      "inputs": [
        {
          "indexed": false,
          "internalType": "uint8",
          "name": "version",
          "type": "uint8"
        }
      ],
      "name": "Initialized",
      "type": "event"
    },
    {
      "anonymous": false,
      "inputs": [
        {
          "indexed": true,
          "internalType": "address",
          "name": "from",
          "type": "address"
        },
        {
          "indexed": true,
          "internalType": "address",
          "name": "to",
          "type": "address"
        },
        {
          "indexed": true,
          "internalType": "uint256",
          "name": "tokenId",
          "type": "uint256"
        }
      ],
      "name": "Transfer",
      "type": "event"
    },
    {
      "inputs": [
        {
          "internalType": "address",
          "name": "to",
          "type": "address"
        },
        {
          "internalType": "uint256",
          "name": "tokenId",
          "type": "uint256"
        }
      ],
      "name": "approve",
      "outputs": [],
      "stateMutability": "payable",
      "type": "function"
    },
    {
      "inputs": [
        {
          "internalType": "address",
          "name": "owner",
          "type": "address"
        }
      ],
      "name": "balanceOf",
      "outputs": [
        {
          "internalType": "uint256",
          "name": "",
          "type": "uint256"
        }
      ],
      "stateMutability": "view",
      "type": "function"
    },
    {
      "inputs": [],
      "name": "collectionID",
      "outputs": [
        {
          "internalType": "uint256",
          "name": "",
          "type": "uint256"
        }
      ],
      "stateMutability": "view",
      "type": "function"
    },
    {
      "inputs": [],
      "name": "contractURI",
      "outputs": [
        {
          "internalType": "string",
          "name": "",
          "type": "string"
        }
      ],
      "stateMutability": "view",
      "type": "function"
    },
    {
      "inputs": [
        {
          "internalType": "uint256",
          "name": "tokenId",
          "type": "uint256"
        }
      ],
      "name": "getApproved",
      "outputs": [
        {
          "internalType": "address",
          "name": "",
          "type": "address"
        }
      ],
      "stateMutability": "view",
      "type": "function"
    },
    {
      "inputs": [],
      "name": "getTrustedForwarder",
      "outputs": [
        {
          "internalType": "address",
          "name": "forwarder",
          "type": "address"
        }
      ],
      "stateMutability": "view",
      "type": "function"
    },
    {
      "inputs": [
        {
          "internalType": "uint256",
          "name": "_collectionID",
          "type": "uint256"
        },
        {
          "internalType": "address",
          "name": "_owner",
          "type": "address"
        },
        {
          "internalType": "address",
          "name": "_minter",
          "type": "address"
        },
        {
          "components": [
            {
              "internalType": "string",
              "name": "name",
              "type": "string"
            },
            {
              "internalType": "string",
              "name": "symbol",
              "type": "string"
            },
            {
              "internalType": "string",
              "name": "contractURI",
              "type": "string"
            }
          ],
          "internalType": "struct LazyMintCollectionMetadata",
          "name": "metadata",
          "type": "tuple"
        },
        {
          "internalType": "address",
          "name": "trustedForwarder",
          "type": "address"
        }
      ],
      "name": "initialize",
      "outputs": [],
      "stateMutability": "nonpayable",
      "type": "function"
    },
    {
      "inputs": [
        {
          "internalType": "address",
          "name": "owner",
          "type": "address"
        },
        {
          "internalType": "address",
          "name": "operator",
          "type": "address"
        }
      ],
      "name": "isApprovedForAll",
      "outputs": [
        {
          "internalType": "bool",
          "name": "",
          "type": "bool"
        }
      ],
      "stateMutability": "view",
      "type": "function"
    },
    {
      "inputs": [
        {
          "internalType": "address",
          "name": "forwarder",
          "type": "address"
        }
      ],
      "name": "isTrustedForwarder",
      "outputs": [
        {
          "internalType": "bool",
          "name": "",
          "type": "bool"
        }
      ],
      "stateMutability": "view",
      "type": "function"
    },
    {
      "inputs": [
        {
          "internalType": "address",
          "name": "recipient",
          "type": "address"
        },
        {
          "components": [
            {
              "internalType": "string",
              "name": "URI",
              "type": "string"
            },
            {
              "internalType": "address",
              "name": "royaltyReceiver",
              "type": "address"
            },
            {
              "internalType": "uint96",
              "name": "royaltyFeeNumerator",
              "type": "uint96"
            }
          ],
          "internalType": "struct LazyMintTokenMetadata",
          "name": "metadata",
          "type": "tuple"
        }
      ],
      "name": "mintSingle",
      "outputs": [
        {
          "internalType": "uint256",
          "name": "tokenId",
          "type": "uint256"
        }
      ],
      "stateMutability": "nonpayable",
      "type": "function"
    },
    {
      "inputs": [],
      "name": "minter",
      "outputs": [
        {
          "internalType": "address",
          "name": "",
          "type": "address"
        }
      ],
      "stateMutability": "view",
      "type": "function"
    },
    {
      "inputs": [],
      "name": "name",
      "outputs": [
        {
          "internalType": "string",
          "name": "",
          "type": "string"
        }
      ],
      "stateMutability": "view",
      "type": "function"
    },
    {
      "inputs": [],
      "name": "owner",
      "outputs": [
        {
          "internalType": "address",
          "name": "",
          "type": "address"
        }
      ],
      "stateMutability": "view",
      "type": "function"
    },
    {
      "inputs": [
        {
          "internalType": "uint256",
          "name": "tokenId",
          "type": "uint256"
        }
      ],
      "name": "ownerOf",
      "outputs": [
        {
          "internalType": "address",
          "name": "",
          "type": "address"
        }
      ],
      "stateMutability": "view",
      "type": "function"
    },
    {
      "inputs": [
        {
          "internalType": "uint256",
          "name": "tokenId",
          "type": "uint256"
        },
        {
          "internalType": "uint256",
          "name": "salePrice",
          "type": "uint256"
        }
      ],
      "name": "royaltyInfo",
      "outputs": [
        {
          "internalType": "address",
          "name": "",
          "type": "address"
        },
        {
          "internalType": "uint256",
          "name": "",
          "type": "uint256"
        }
      ],
      "stateMutability": "view",
      "type": "function"
    },
    {
      "inputs": [
        {
          "internalType": "address",
          "name": "from",
          "type": "address"
        },
        {
          "internalType": "address",
          "name": "to",
          "type": "address"
        },
        {
          "internalType": "uint256",
          "name": "tokenId",
          "type": "uint256"
        }
      ],
      "name": "safeTransferFrom",
      "outputs": [],
      "stateMutability": "payable",
      "type": "function"
    },
    {
      "inputs": [
        {
          "internalType": "address",
          "name": "from",
          "type": "address"
        },
        {
          "internalType": "address",
          "name": "to",
          "type": "address"
        },
        {
          "internalType": "uint256",
          "name": "tokenId",
          "type": "uint256"
        },
        {
          "internalType": "bytes",
          "name": "_data",
          "type": "bytes"
        }
      ],
      "name": "safeTransferFrom",
      "outputs": [],
      "stateMutability": "payable",
      "type": "function"
    },
    {
      "inputs": [
        {
          "internalType": "address",
          "name": "operator",
          "type": "address"
        },
        {
          "internalType": "bool",
          "name": "approved",
          "type": "bool"
        }
      ],
      "name": "setApprovalForAll",
      "outputs": [],
      "stateMutability": "nonpayable",
      "type": "function"
    },
    {
      "inputs": [
        {
          "internalType": "bytes4",
          "name": "interfaceId",
          "type": "bytes4"
        }
      ],
      "name": "supportsInterface",
      "outputs": [
        {
          "internalType": "bool",
          "name": "",
          "type": "bool"
        }
      ],
      "stateMutability": "view",
      "type": "function"
    },
    {
      "inputs": [],
      "name": "symbol",
      "outputs": [
        {
          "internalType": "string",
          "name": "",
          "type": "string"
        }
      ],
      "stateMutability": "view",
      "type": "function"
    },
    {
      "inputs": [
        {
          "internalType": "uint256",
          "name": "tokenId",
          "type": "uint256"
        }
      ],
      "name": "tokenURI",
      "outputs": [
        {
          "internalType": "string",
          "name": "",
          "type": "string"
        }
      ],
      "stateMutability": "view",
      "type": "function"
    },
    {
      "inputs": [],
      "name": "totalSupply",
      "outputs": [
        {
          "internalType": "uint256",
          "name": "",
          "type": "uint256"
        }
      ],
      "stateMutability": "view",
      "type": "function"
    },
    {
      "inputs": [
        {
          "internalType": "address",
          "name": "from",
          "type": "address"
        },
        {
          "internalType": "address",
          "name": "to",
          "type": "address"
        },
        {
          "internalType": "uint256",
          "name": "tokenId",
          "type": "uint256"
        }
      ],
      "name": "transferFrom",
      "outputs": [],
      "stateMutability": "payable",
      "type": "function"
    }
  ],
  "bytecode": "0x608060405234801561000f575f80fd5b506132bd8061001d5f395ff3fe60806040526004361061017f575f3560e01c80636352211e116100d5578063b88d4fde1161007e578063ce1b815f11610058578063ce1b815f14610520578063e8a3d4851461054a578063e985e9c5146105745761017f565b8063b88d4fde146104a0578063c87b56dd146104bc578063cd637110146104f85761017f565b80638da5cb5b116100af5780638da5cb5b1461042457806395d89b411461044e578063a22cb465146104785761017f565b80636352211e1461037057806370a08231146103ac5780638d009635146103e85761017f565b806318160ddd1161013757806342842e0e1161011157806342842e0e146102ee578063572b6c051461030a57806358b33e69146103465761017f565b806318160ddd1461026b57806323b872dd146102955780632a55205a146102b15761017f565b8063075461721161016857806307546172146101e9578063081812fc14610213578063095ea7b31461024f5761017f565b806301ffc9a71461018357806306fdde03146101bf575b5f80fd5b34801561018e575f80fd5b506101a960048036038101906101a49190612787565b6105b0565b6040516101b691906127ac565b60405180910390f35b3480156101ca575f80fd5b506101d3610645565b6040516101e09190612825565b60405180910390f35b3480156101f4575f80fd5b506101fd6106de565b60405161020a919061283f565b60405180910390f35b34801561021e575f80fd5b5061023960048036038101906102349190612865565b610703565b604051610246919061283f565b60405180910390f35b610269600480360381019061026491906128aa565b610786565b005b348015610276575f80fd5b5061027f610796565b60405161028c91906128d4565b60405180910390f35b6102af60048036038101906102aa91906128e4565b6107bd565b005b3480156102bc575f80fd5b506102d760048036038101906102d2919061291d565b610b01565b6040516102e5929190612940565b60405180910390f35b610308600480360381019061030391906128e4565b610cdd565b005b348015610315575f80fd5b50610330600480360381019061032b919061296d565b610cfc565b60405161033d91906127ac565b60405180910390f35b348015610351575f80fd5b5061035a610d54565b60405161036791906128d4565b60405180910390f35b34801561037b575f80fd5b5061039660048036038101906103919190612865565b610d5a565b6040516103a3919061283f565b60405180910390f35b3480156103b7575f80fd5b506103d260048036038101906103cd919061296d565b610d6b565b6040516103df91906128d4565b60405180910390f35b3480156103f3575f80fd5b5061040e600480360381019061040991906129a7565b610e29565b60405161041b91906128d4565b60405180910390f35b34801561042f575f80fd5b5061043861105d565b604051610445919061283f565b60405180910390f35b348015610459575f80fd5b50610462611082565b60405161046f9190612825565b60405180910390f35b348015610483575f80fd5b5061049e600480360381019061049991906129f2565b61111b565b005b6104ba60048036038101906104b59190612a58565b61122a565b005b3480156104c7575f80fd5b506104e260048036038101906104dd9190612865565b61129c565b6040516104ef9190612825565b60405180910390f35b348015610503575f80fd5b5061051e60048036038101906105199190612b4e565b611408565b005b34801561052b575f80fd5b506105346118af565b604051610541919061283f565b60405180910390f35b348015610555575f80fd5b5061055e6118d7565b60405161056b9190612825565b60405180910390f35b34801561057f575f80fd5b5061059a60048036038101906105959190612bc2565b611963565b6040516105a791906127ac565b60405180910390f35b5f6105c567411e62edc6a1955360c01b6119fa565b6105d967584bfe8592485c6e60c01b6119fa565b6105ed6775232f00f52b48fb60c01b6119fa565b6105f6826119fd565b8015610612575061061167528e7aed7bde7bef60c01b611a8e565b5b8061063e575061062182611a98565b801561063d575061063c67a8b3fb995bef6b9460c01b611a8e565b5b5b9050919050565b606061064f611b11565b600201805461065d90612bf3565b80601f016020809104026020016040519081016040528092919081815260200182805461068990612bf3565b80156106d45780601f106106ab576101008083540402835291602001916106d4565b820191905f5260205f20905b8154815290600101906020018083116106b757829003601f168201915b5050505050905090565b60085f9054906101000a900473ffffffffffffffffffffffffffffffffffffffff1681565b5f61070d82611b3d565b610743576040517fcf4700e400000000000000000000000000000000000000000000000000000000815260040160405180910390fd5b61074b611b11565b6006015f8381526020019081526020015f205f015f9054906101000a900473ffffffffffffffffffffffffffffffffffffffff169050919050565b61079282826001611ba9565b5050565b5f61079f611cf9565b6107a7611b11565b600101546107b3611b11565b5f01540303905090565b5f6107c782611d3d565b90508373ffffffffffffffffffffffffffffffffffffffff168173ffffffffffffffffffffffffffffffffffffffff161461082e576040517fa114810000000000000000000000000000000000000000000000000000000000815260040160405180910390fd5b5f8061083984611e47565b9150915061084f818761084a611e73565b611ebd565b61089b576108648661085f611e73565b611963565b61089a576040517f59c896be00000000000000000000000000000000000000000000000000000000815260040160405180910390fd5b5b5f73ffffffffffffffffffffffffffffffffffffffff168573ffffffffffffffffffffffffffffffffffffffff1603610900576040517fea553b3400000000000000000000000000000000000000000000000000000000815260040160405180910390fd5b61090d8686866001611f00565b8015610917575f82555b61091f611b11565b6005015f8773ffffffffffffffffffffffffffffffffffffffff1673ffffffffffffffffffffffffffffffffffffffff1681526020019081526020015f205f81546001900391905081905550610973611b11565b6005015f8673ffffffffffffffffffffffffffffffffffffffff1673ffffffffffffffffffffffffffffffffffffffff1681526020019081526020015f205f8154600101919050819055506109f1856109cd888887611f06565b7c020000000000000000000000000000000000000000000000000000000017611f2d565b6109f9611b11565b6004015f8681526020019081526020015f20819055505f7c0200000000000000000000000000000000000000000000000000000000841603610a91575f6001850190505f610a45611b11565b6004015f8381526020019081526020015f205403610a8f57610a65611b11565b5f01548114610a8e5783610a77611b11565b6004015f8381526020019081526020015f20819055505b5b505b838573ffffffffffffffffffffffffffffffffffffffff168773ffffffffffffffffffffffffffffffffffffffff167fddf252ad1be2c89b69c2b068fc378daa952ba7f163c4a11628f55a4df523b3ef60405160405180910390a4610af98686866001611f57565b505050505050565b5f805f60025f8681526020019081526020015f206040518060400160405290815f82015f9054906101000a900473ffffffffffffffffffffffffffffffffffffffff1673ffffffffffffffffffffffffffffffffffffffff1673ffffffffffffffffffffffffffffffffffffffff1681526020015f820160149054906101000a90046bffffffffffffffffffffffff166bffffffffffffffffffffffff166bffffffffffffffffffffffff168152505090505f73ffffffffffffffffffffffffffffffffffffffff16815f015173ffffffffffffffffffffffffffffffffffffffff1603610c8a5760016040518060400160405290815f82015f9054906101000a900473ffffffffffffffffffffffffffffffffffffffff1673ffffffffffffffffffffffffffffffffffffffff1673ffffffffffffffffffffffffffffffffffffffff1681526020015f820160149054906101000a90046bffffffffffffffffffffffff166bffffffffffffffffffffffff166bffffffffffffffffffffffff168152505090505b5f610c93611f5d565b6bffffffffffffffffffffffff1682602001516bffffffffffffffffffffffff1686610cbf9190612c47565b610cc99190612c8c565b9050815f0151819350935050509250929050565b610cf783838360405180602001604052805f81525061122a565b505050565b5f60035f9054906101000a900473ffffffffffffffffffffffffffffffffffffffff1673ffffffffffffffffffffffffffffffffffffffff168273ffffffffffffffffffffffffffffffffffffffff16149050919050565b60065481565b5f610d6482611d3d565b9050919050565b5f8073ffffffffffffffffffffffffffffffffffffffff168273ffffffffffffffffffffffffffffffffffffffff1603610dd1576040517f8f4eb60400000000000000000000000000000000000000000000000000000000815260040160405180910390fd5b67ffffffffffffffff610de2611b11565b6005015f8473ffffffffffffffffffffffffffffffffffffffff1673ffffffffffffffffffffffffffffffffffffffff1681526020019081526020015f2054169050919050565b5f610e3e67dd9da672d6763fc960c01b6119fa565b610e5267687521d663b1c80660c01b6119fa565b610e66670f9fcbe8203e2d3b60c01b6119fa565b610e7a671e8d613a8b41853060c01b6119fa565b610e8e67e5d3bd9e64e2353960c01b6119fa565b60085f9054906101000a900473ffffffffffffffffffffffffffffffffffffffff1673ffffffffffffffffffffffffffffffffffffffff163373ffffffffffffffffffffffffffffffffffffffff1614610f1d576040517f08c379a0000000000000000000000000000000000000000000000000000000008152600401610f1490612cca565b60405180910390fd5b610f3167f2cd565e132e453760c01b6119fa565b610f456772d36513a060cef060c01b6119fa565b610f596741b4b3f2e59ef34a60c01b6119fa565b610f6d67e6b47a843f0239e460c01b6119fa565b610f81676ceb3b0809fcb5f260c01b6119fa565b610f89611f66565b9050610f9f67ae0ef35827cef1e960c01b6119fa565b610fb3673fdc11031b31d3a360c01b6119fa565b610fbe836001611f77565b610fd267f49ae9181090a7be60c01b6119fa565b81805f0190610fe19190612d07565b60045f8481526020019081526020015f209182610fff929190612e0a565b506110146793ef661234e3918d60c01b6119fa565b61102867e54edbf258da5acf60c01b6119fa565b6110578183602001602081019061103f919061296d565b8460400160208101906110529190612f05565b611f94565b92915050565b60075f9054906101000a900473ffffffffffffffffffffffffffffffffffffffff1681565b606061108c611b11565b600301805461109a90612bf3565b80601f01602080910402602001604051908101604052809291908181526020018280546110c690612bf3565b80156111115780601f106110e857610100808354040283529160200191611111565b820191905f5260205f20905b8154815290600101906020018083116110f457829003601f168201915b5050505050905090565b80611124611b11565b6007015f611130611e73565b73ffffffffffffffffffffffffffffffffffffffff1673ffffffffffffffffffffffffffffffffffffffff1681526020019081526020015f205f8473ffffffffffffffffffffffffffffffffffffffff1673ffffffffffffffffffffffffffffffffffffffff1681526020019081526020015f205f6101000a81548160ff0219169083151502179055508173ffffffffffffffffffffffffffffffffffffffff166111d9611e73565b73ffffffffffffffffffffffffffffffffffffffff167f17307eab39ab6107e8899845ad3d59bd9653f200f220920489ca2b5937696c318360405161121e91906127ac565b60405180910390a35050565b6112358484846107bd565b5f8373ffffffffffffffffffffffffffffffffffffffff163b146112965761125f84848484612134565b611295576040517fd1a57ed600000000000000000000000000000000000000000000000000000000815260040160405180910390fd5b5b50505050565b60606112b2676e21551e9a49171c60c01b6119fa565b6112c667d485ed6e5fff4e7060c01b6119fa565b6112da67e96ca1f19a4530a360c01b6119fa565b6112e382611b3d565b61132d576112fb67b3197996282a4db860c01b6119fa565b6040517fa14c4b5000000000000000000000000000000000000000000000000000000000815260040160405180910390fd5b61134167c0a156517a1409bb60c01b6119fa565b611355674c183bfc9c33e84860c01b6119fa565b611369678abeeeb5baf8091960c01b6119fa565b60045f8381526020019081526020015f20805461138590612bf3565b80601f01602080910402602001604051908101604052809291908181526020018280546113b190612bf3565b80156113fc5780601f106113d3576101008083540402835291602001916113fc565b820191905f5260205f20905b8154815290600101906020018083116113df57829003601f168201915b50505050509050919050565b61141c67f48aa96ff4e7304360c01b6119fa565b5f8060019054906101000a900460ff1615905080801561144b575060015f8054906101000a900460ff1660ff16105b80611477575061145a3061227f565b158015611476575060015f8054906101000a900460ff1660ff16145b5b6114b6576040517f08c379a00000000000000000000000000000000000000000000000000000000081526004016114ad90612f3a565b60405180910390fd5b60015f806101000a81548160ff021916908360ff16021790555080156114f15760015f60016101000a81548160ff0219169083151502179055505b61150567245ffd55c87c479860c01b6119fa565b61151967b80729386f63ffc860c01b6119fa565b6115216122a1565b5f0160019054906101000a900460ff166115525761153d6122a1565b5f015f9054906101000a900460ff161561155b565b61155a6122cd565b5b61159a576040517f08c379a000000000000000000000000000000000000000000000000000000000815260040161159190612f9d565b60405180910390fd5b5f6115a36122a1565b5f0160019054906101000a900460ff1615905080156116025760016115c66122a1565b5f0160016101000a81548160ff02191690831515021790555060016115e96122a1565b5f015f6101000a81548160ff0219169083151502179055505b6116166775faa561b259143160c01b6119fa565b61162a67f6a769ff3e5af67a60c01b6119fa565b61163e67fb11d021930f6da460c01b6119fa565b8660068190555061165967c44878f3753a840f60c01b6119fa565b8560075f6101000a81548173ffffffffffffffffffffffffffffffffffffffff021916908373ffffffffffffffffffffffffffffffffffffffff1602179055506116ad67e6ca38a255e4edc060c01b6119fa565b8460085f6101000a81548173ffffffffffffffffffffffffffffffffffffffff021916908373ffffffffffffffffffffffffffffffffffffffff1602179055506117016748192a1a5a78183c60c01b6119fa565b61171567c9e4ade7e963874960c01b6119fa565b6117c084805f01906117279190612d07565b8080601f0160208091040260200160405190810160405280939291908181526020018383808284375f81840152601f19601f820116905080830192505050505050508580602001906117799190612d07565b8080601f0160208091040260200160405190810160405280939291908181526020018383808284375f81840152601f19601f820116905080830192505050505050506122e1565b6117d4673fc8348783ef44ba60c01b6119fa565b8380604001906117e49190612d07565b600591826117f3929190612e0a565b5061180867280034b5f2cb627c60c01b6119fa565b61181c6794f3e7282935e38160c01b6119fa565b61182583612346565b801561184e575f6118346122a1565b5f0160016101000a81548160ff0219169083151502179055505b5080156118a7575f8060016101000a81548160ff0219169083151502179055507f7f26b83ff96e1f2b6a682f133852f6798a09c465da95921460cefb3847402498600160405161189e9190613000565b60405180910390a15b505050505050565b5f60035f9054906101000a900473ffffffffffffffffffffffffffffffffffffffff16905090565b600580546118e490612bf3565b80601f016020809104026020016040519081016040528092919081815260200182805461191090612bf3565b801561195b5780601f106119325761010080835404028352916020019161195b565b820191905f5260205f20905b81548152906001019060200180831161193e57829003601f168201915b505050505081565b5f61196c611b11565b6007015f8473ffffffffffffffffffffffffffffffffffffffff1673ffffffffffffffffffffffffffffffffffffffff1681526020019081526020015f205f8373ffffffffffffffffffffffffffffffffffffffff1673ffffffffffffffffffffffffffffffffffffffff1681526020019081526020015f205f9054906101000a900460ff16905092915050565b50565b5f6301ffc9a760e01b827bffffffffffffffffffffffffffffffffffffffffffffffffffffffff19161480611a5757506380ac58cd60e01b827bffffffffffffffffffffffffffffffffffffffffffffffffffffffff1916145b80611a875750635b5e139f60e01b827bffffffffffffffffffffffffffffffffffffffffffffffffffffffff1916145b9050919050565b5f60019050919050565b5f7f2a55205a000000000000000000000000000000000000000000000000000000007bffffffffffffffffffffffffffffffffffffffffffffffffffffffff1916827bffffffffffffffffffffffffffffffffffffffffffffffffffffffff19161480611b0a5750611b0982612389565b5b9050919050565b5f807f2569078dfb4b0305704d3008e7403993ae9601b85f7ae5e742de3de8f8011c4090508091505090565b5f81611b47611cf9565b11158015611b5e5750611b58611b11565b5f015482105b8015611ba257505f7c0100000000000000000000000000000000000000000000000000000000611b8c611b11565b6004015f8581526020019081526020015f205416145b9050919050565b5f611bb383610d5a565b90508115611c3e578073ffffffffffffffffffffffffffffffffffffffff16611bda611e73565b73ffffffffffffffffffffffffffffffffffffffff1614611c3d57611c0681611c01611e73565b611963565b611c3c576040517fcfb3b94200000000000000000000000000000000000000000000000000000000815260040160405180910390fd5b5b5b83611c47611b11565b6006015f8581526020019081526020015f205f015f6101000a81548173ffffffffffffffffffffffffffffffffffffffff021916908373ffffffffffffffffffffffffffffffffffffffff160217905550828473ffffffffffffffffffffffffffffffffffffffff168273ffffffffffffffffffffffffffffffffffffffff167f8c5be1e5ebec7d5bd14f71427d1e84f3dd0314c0f7b2291e5b200ac8c7c3b92560405160405180910390a450505050565b5f611d0e67f95c029a554cf2c460c01b6119fa565b611d2267116d01f92ddeb13660c01b6119fa565b611d3667be0b6b06dd1136cf60c01b6119fa565b6001905090565b5f81611d47611cf9565b11611e1057611d54611b11565b6004015f8381526020019081526020015f205490505f7c0100000000000000000000000000000000000000000000000000000000821603611e0f575f8103611e0a57611d9e611b11565b5f01548210611dd9576040517fdf2d9b4200000000000000000000000000000000000000000000000000000000815260040160405180910390fd5b5b611de2611b11565b6004015f836001900393508381526020019081526020015f205490505f8103611e4257611dda565b611e42565b5b6040517fdf2d9b4200000000000000000000000000000000000000000000000000000000815260040160405180910390fd5b919050565b5f805f611e52611b11565b6006015f8581526020019081526020015f2090508092508254915050915091565b5f611e886785d2e25444ab513a60c01b6119fa565b611e9c67cdb465117c822db260c01b6119fa565b611eb067d8b45624d1003afb60c01b6119fa565b611eb86123f2565b905090565b5f73ffffffffffffffffffffffffffffffffffffffff8316925073ffffffffffffffffffffffffffffffffffffffff821691508382148383141790509392505050565b50505050565b5f8060e883901c905060e8611f1c868684612427565b62ffffff16901b9150509392505050565b5f73ffffffffffffffffffffffffffffffffffffffff83169250814260a01b178317905092915050565b50505050565b5f612710905090565b5f611f6f611b11565b5f0154905090565b611f90828260405180602001604052805f81525061242f565b5050565b611f9c611f5d565b6bffffffffffffffffffffffff16816bffffffffffffffffffffffff161115611ffa576040517f08c379a0000000000000000000000000000000000000000000000000000000008152600401611ff190613013565b60405180910390fd5b5f73ffffffffffffffffffffffffffffffffffffffff168273ffffffffffffffffffffffffffffffffffffffff1603612068576040517f08c379a000000000000000000000000000000000000000000000000000000000815260040161205f90613076565b60405180910390fd5b60405180604001604052808373ffffffffffffffffffffffffffffffffffffffff168152602001826bffffffffffffffffffffffff1681525060025f8581526020019081526020015f205f820151815f015f6101000a81548173ffffffffffffffffffffffffffffffffffffffff021916908373ffffffffffffffffffffffffffffffffffffffff1602179055506020820151815f0160146101000a8154816bffffffffffffffffffffffff02191690836bffffffffffffffffffffffff160217905550905050505050565b5f8373ffffffffffffffffffffffffffffffffffffffff1663150b7a02612159611e73565b8786866040518563ffffffff1660e01b815260040161217b94939291906130b3565b6020604051808303815f875af19250505080156121b657506040513d601f19601f820116820180604052508101906121b391906130fc565b60015b61222c573d805f81146121e4576040519150601f19603f3d011682016040523d82523d5f602084013e6121e9565b606091505b505f815103612224576040517fd1a57ed600000000000000000000000000000000000000000000000000000000815260040160405180910390fd5b805181602001fd5b63150b7a0260e01b7bffffffffffffffffffffffffffffffffffffffffffffffffffffffff1916817bffffffffffffffffffffffffffffffffffffffffffffffffffffffff191614915050949350505050565b5f808273ffffffffffffffffffffffffffffffffffffffff163b119050919050565b5f807fee151c8401928dc223602bb187aff91b9a56c7cae5476ef1b3287b085a16c85f90508091505090565b5f803090505f813b90505f81149250505090565b6122e96122a1565b5f0160019054906101000a900460ff16612338576040517f08c379a000000000000000000000000000000000000000000000000000000000815260040161232f90613121565b60405180910390fd5b61234282826124d8565b5050565b8060035f6101000a81548173ffffffffffffffffffffffffffffffffffffffff021916908373ffffffffffffffffffffffffffffffffffffffff16021790555050565b5f7f01ffc9a7000000000000000000000000000000000000000000000000000000007bffffffffffffffffffffffffffffffffffffffffffffffffffffffff1916827bffffffffffffffffffffffffffffffffffffffffffffffffffffffff1916149050919050565b5f60145f3690501015801561240c575061240b33610cfc565b5b1561242057601436033560601c9050612424565b3390505b90565b5f9392505050565b612439838361257b565b5f8373ffffffffffffffffffffffffffffffffffffffff163b146124d3575f612460611b11565b5f015490505f83820390505b61247e5f868380600101945086612134565b6124b4576040517fd1a57ed600000000000000000000000000000000000000000000000000000000815260040160405180910390fd5b81811061246c57816124c4611b11565b5f0154146124d0575f80fd5b50505b505050565b6124e06122a1565b5f0160019054906101000a900460ff1661252f576040517f08c379a000000000000000000000000000000000000000000000000000000000815260040161252690613121565b60405180910390fd5b81612538611b11565b60020190816125479190613184565b5080612551611b11565b60030190816125609190613184565b50612569611cf9565b612571611b11565b5f01819055505050565b5f612584611b11565b5f015490505f82036125c2576040517fb562e8dd00000000000000000000000000000000000000000000000000000000815260040160405180910390fd5b6125ce5f848385611f00565b600160406001901b1782026125e1611b11565b6005015f8573ffffffffffffffffffffffffffffffffffffffff1673ffffffffffffffffffffffffffffffffffffffff1681526020019081526020015f205f82825401925050819055506126498361263a5f865f611f06565b61264385612748565b17611f2d565b612651611b11565b6004015f8381526020019081526020015f20819055505f80838301905073ffffffffffffffffffffffffffffffffffffffff8516915082825f7fddf252ad1be2c89b69c2b068fc378daa952ba7f163c4a11628f55a4df523b3ef5f80a4600183015b8181146126ec5780835f7fddf252ad1be2c89b69c2b068fc378daa952ba7f163c4a11628f55a4df523b3ef5f80a46001810190506126b3565b505f8203612726576040517f2e07630000000000000000000000000000000000000000000000000000000000815260040160405180910390fd5b8061272f611b11565b5f018190555050506127435f848385611f57565b505050565b5f6001821460e11b9050919050565b7fffffffff0000000000000000000000000000000000000000000000000000000081168114612784575f80fd5b50565b5f60208284031215612797575f80fd5b81356127a281612757565b8091505092915050565b5f602082019050821515825292915050565b5f81518084525f5b818110156127e8576020808286010151818388010152506020810190506127c6565b505f6020828601015260207fffffffffffffffffffffffffffffffffffffffffffffffffffffffffffffffe0601f83011685010191505092915050565b602081525f61283760208301846127be565b905092915050565b5f60208201905073ffffffffffffffffffffffffffffffffffffffff8316825292915050565b5f60208284031215612875575f80fd5b8135905092915050565b5f8135905073ffffffffffffffffffffffffffffffffffffffff811681146128a5575f80fd5b919050565b5f80604083850312156128bb575f80fd5b6128c48361287f565b9150602083013590509250929050565b5f60208201905082825292915050565b5f805f606084860312156128f6575f80fd5b6128ff8461287f565b925061290d6020850161287f565b9150604084013590509250925092565b5f806040838503121561292e575f80fd5b82359150602083013590509250929050565b5f60408201905073ffffffffffffffffffffffffffffffffffffffff841682528260208301529392505050565b5f6020828403121561297d575f80fd5b6129868261287f565b905092915050565b5f6060828403121561299e575f80fd5b81905092915050565b5f80604083850312156129b8575f80fd5b6129c18361287f565b9150602083013567ffffffffffffffff8111156129dc575f80fd5b6129e88582860161298e565b9150509250929050565b5f8060408385031215612a03575f80fd5b612a0c8361287f565b915060208301358015158114612a20575f80fd5b809150509250929050565b7f4e487b71000000000000000000000000000000000000000000000000000000005f52604160045260245ffd5b5f805f8060808587031215612a6b575f80fd5b612a748561287f565b9350612a826020860161287f565b925060408501359150606085013567ffffffffffffffff80821115612aa5575f80fd5b818701915087601f830112612ab8575f80fd5b813581811115612acb57612aca612a2b565b5b7fffffffffffffffffffffffffffffffffffffffffffffffffffffffffffffffe060405181603f83601f8601160116810191508082108483111715612b1357612b12612a2b565b5b816040528281528a6020848701011115612b2b575f80fd5b826020860160208301375f60208483010152809550505050505092959194509250565b5f805f805f60a08688031215612b62575f80fd5b85359450612b726020870161287f565b9350612b806040870161287f565b9250606086013567ffffffffffffffff811115612b9b575f80fd5b612ba78882890161298e565b925050612bb66080870161287f565b90509295509295909350565b5f8060408385031215612bd3575f80fd5b612bdc8361287f565b9150612bea6020840161287f565b90509250929050565b5f8160011c90506001821680612c0a57607f821691505b602082108103612c41577f4e487b71000000000000000000000000000000000000000000000000000000005f52602260045260245ffd5b50919050565b5f82820290508181048314821517612c86577f4e487b71000000000000000000000000000000000000000000000000000000005f52601160045260245ffd5b92915050565b5f82612cbf577f4e487b71000000000000000000000000000000000000000000000000000000005f52601260045260245ffd5b828204905092915050565b60208152601860208201527f43616c6c6572206973206e6f7420746865206d696e746572000000000000000060408201525f606082019050919050565b5f8083357fffffffffffffffffffffffffffffffffffffffffffffffffffffffffffffffe1843603018112612d3a575f80fd5b80840190508035915067ffffffffffffffff821115612d57575f80fd5b60208101925050803603821315612d6c575f80fd5b9250929050565b805f52505f60205f20905090565b601f821115612dce575f81815260208120601f850160051c81016020861015612da8578190505b601f850160051c820191505b81811015612dca57828155600181019050612db4565b5050505b505050565b5f8260011b7fffffffffffffffffffffffffffffffffffffffffffffffffffffffffffffffff8460031b1c19831617905092915050565b67ffffffffffffffff831115612e2357612e22612a2b565b5b612e3783612e318354612bf3565b83612d81565b5f601f841160018114612e64575f8515612e52578285013590505b612e5c8682612dd3565b845550612efe565b7fffffffffffffffffffffffffffffffffffffffffffffffffffffffffffffffe08516612e9084612d73565b835b82811015612eb757848701358255600182019150602085019450602081019050612e92565b5086821015612ef2577fffffffffffffffffffffffffffffffffffffffffffffffffffffffffffffffff60f88860031b161c19848701351681555b505060018560011b0183555b5050505050565b5f60208284031215612f15575f80fd5b81356bffffffffffffffffffffffff81168114612f30575f80fd5b8091505092915050565b60208152602e60208201527f496e697469616c697a61626c653a20636f6e747261637420697320616c72656160408201527f647920696e697469616c697a656400000000000000000000000000000000000060608201525f608082019050919050565b60208152603760208201527f455243373231415f5f496e697469616c697a61626c653a20636f6e747261637460408201527f20697320616c726561647920696e697469616c697a656400000000000000000060608201525f608082019050919050565b5f60208201905060ff8316825292915050565b60208152602a60208201527f455243323938313a20726f79616c7479206665652077696c6c2065786365656460408201527f2073616c6550726963650000000000000000000000000000000000000000000060608201525f608082019050919050565b60208152601b60208201527f455243323938313a20496e76616c696420706172616d6574657273000000000060408201525f606082019050919050565b5f73ffffffffffffffffffffffffffffffffffffffff8087168352808616602084015250836040830152608060608301526130f160808301846127be565b905095945050505050565b5f6020828403121561310c575f80fd5b815161311781612757565b8091505092915050565b60208152603460208201527f455243373231415f5f496e697469616c697a61626c653a20636f6e747261637460408201527f206973206e6f7420696e697469616c697a696e6700000000000000000000000060608201525f608082019050919050565b815167ffffffffffffffff81111561319f5761319e612a2b565b5b6131b3816131ad8454612bf3565b84612d81565b5f6020809150601f8311600181146131e5575f84156131d3578387015190505b6131dd8582612dd3565b86555061327f565b7fffffffffffffffffffffffffffffffffffffffffffffffffffffffffffffffe0841661321186612d73565b5f5b828110156132365785890151825560018201915084860195508481019050613213565b508582101561327357848801517fffffffffffffffffffffffffffffffffffffffffffffffffffffffffffffffff60f88860031b161c1981168255505b505060018460011b0185555b50505050505056fea26469706673582212203d6c5ac7444dc69869dd3e73b7b8935e2af8abec7bbc4e2a8b233fb2eca8f3b064736f6c63430008150033",
  "linkReferences": {},
  "deployedLinkReferences": {}
}