{
  "_format": "hh-sol-artifact-1",
  "contractName": "GsnEip712Library",
  "sourceName": "@opengsn/contracts/src/utils/GsnEip712Library.sol",
  "abi": [
    {
      "inputs": [],
      "name": "EIP712DOMAIN_TYPEHASH",
      "outputs": [
        {
          "internalType": "bytes32",
          "name": "",
          "type": "bytes32"
        }
      ],
      "stateMutability": "view",
      "type": "function"
    },
    {
      "inputs": [],
      "name": "GENERIC_PARAMS",
      "outputs": [
        {
          "internalType": "string",
          "name": "",
          "type": "string"
        }
      ],
      "stateMutability": "view",
      "type": "function"
    },
    {
      "inputs": [],
      "name": "RELAYDATA_TYPE",
      "outputs": [
        {
          "internalType": "bytes",
          "name": "",
          "type": "bytes"
        }
      ],
      "stateMutability": "view",
      "type": "function"
    },
    {
      "inputs": [],
      "name": "RELAYDATA_TYPEHASH",
      "outputs": [
        {
          "internalType": "bytes32",
          "name": "",
          "type": "bytes32"
        }
      ],
      "stateMutability": "view",
      "type": "function"
    },
    {
      "inputs": [],
      "name": "RELAY_REQUEST_NAME",
      "outputs": [
        {
          "internalType": "string",
          "name": "",
          "type": "string"
        }
      ],
      "stateMutability": "view",
      "type": "function"
    },
    {
      "inputs": [],
      "name": "RELAY_REQUEST_SUFFIX",
      "outputs": [
        {
          "internalType": "string",
          "name": "",
          "type": "string"
        }
      ],
      "stateMutability": "view",
      "type": "function"
    },
    {
      "inputs": [],
      "name": "RELAY_REQUEST_TYPE",
      "outputs": [
        {
          "internalType": "bytes",
          "name": "",
          "type": "bytes"
        }
      ],
      "stateMutability": "view",
      "type": "function"
    },
    {
      "inputs": [],
      "name": "RELAY_REQUEST_TYPEHASH",
      "outputs": [
        {
          "internalType": "bytes32",
          "name": "",
          "type": "bytes32"
        }
      ],
      "stateMutability": "view",
      "type": "function"
    }
  ],
  "bytecode": "0x6106c261004e600b8282823980515f1a607314610042577f4e487b71000000000000000000000000000000000000000000000000000000005f525f60045260245ffd5b305f52607381538281f3fe7300000000000000000000000000000000000000003014608060405260043610610091575f3560e01c8063abf0d3f411610064578063abf0d3f41461010d578063c46cf83f1461012b578063c49f91d314610149578063cc0c62b21461016757610091565b8063066a310c146100955780636225e61b146100b3578063931cd38f146100d1578063987673f7146100ef575b5f80fd5b61009d610185565b6040516100aa9190610448565b60405180910390f35b6100bb6101a1565b6040516100c89190610462565b60405180910390f35b6100d961024c565b6040516100e69190610448565b60405180910390f35b6100f7610287565b6040516101049190610448565b60405180910390f35b6101156102c0565b604051610122919061047c565b60405180910390f35b610133610372565b6040516101409190610462565b60405180910390f35b61015161038e565b60405161015e919061047c565b60405180910390f35b61016f6103b2565b60405161017c919061047c565b60405180910390f35b6040518060a00160405280606181526020016105706061913981565b6040518060400160405280600c81526020017f52656c61795265717565737400000000000000000000000000000000000000008152506040518060a0016040528060618152602001610570606191396040518060e0016040528060bc81526020016105d160bc9139604051602001610219919061048c565b60405160208183030381529060405260405160200161023a939291906104d2565b60405160208183030381529060405281565b6040518060e0016040528060bc81526020016105d160bc9139604051602001610275919061048c565b60405160208183030381529060405281565b6040518060400160405280600c81526020017f52656c617952657175657374000000000000000000000000000000000000000081525081565b6040518060400160405280600c81526020017f52656c61795265717565737400000000000000000000000000000000000000008152506040518060a0016040528060618152602001610570606191396040518060e0016040528060bc81526020016105d160bc9139604051602001610338919061048c565b604051602081830303815290604052604051602001610359939291906104d2565b6040516020818303038152906040528051906020012081565b6040518060e0016040528060bc81526020016105d160bc913981565b7f8b73c3c69bb8fe3d512ecc4cf759cc79239f7b179b0ffacaa9a75d522b39400f81565b6040518060e0016040528060bc81526020016105d160bc91398051906020012081565b5f5b838110156103f25780820151818401526020810190506103d7565b505f83830152505050565b5f81518084526104148160208601602086016103d5565b60207fffffffffffffffffffffffffffffffffffffffffffffffffffffffffffffffe0601f83011685010191505092915050565b602081525f61045a60208301846103fd565b905092915050565b602081525f61047460208301846103fd565b905092915050565b5f60208201905082825292915050565b7f52656c6179446174612072656c6179446174612900000000000000000000000081525f82516104c38160148501602087016103d5565b60148184010191505092915050565b5f84516104e38184602089016103d5565b80830190507f28000000000000000000000000000000000000000000000000000000000000008152845161051e8160018401602089016103d5565b8082019150507f2c000000000000000000000000000000000000000000000000000000000000006001820152835161055d8160028401602088016103d5565b6002818301019250505094935050505056fe616464726573732066726f6d2c6164647265737320746f2c75696e743235362076616c75652c75696e74323536206761732c75696e74323536206e6f6e63652c627974657320646174612c75696e743235362076616c6964556e74696c54696d6552656c6179446174612875696e74323536206d61784665655065724761732c75696e74323536206d61785072696f726974794665655065724761732c75696e74323536207472616e73616374696f6e43616c6c64617461476173557365642c616464726573732072656c6179576f726b65722c61646472657373207061796d61737465722c6164647265737320666f727761726465722c6279746573207061796d6173746572446174612c75696e7432353620636c69656e74496429a26469706673582212203ecb8ec0526ee5330c97ecdd226113b7b3502ee2fe0db617ce5b7d819bd5596d64736f6c63430008150033",
  "linkReferences": {},
  "deployedLinkReferences": {}
}