{
  "_format": "hh-sol-artifact-1",
  "contractName": "EeseeOpenseaRouter",
  "sourceName": "contracts/periphery/routers/EeseeOpenseaRouter.sol",
  "abi": [
    {
      "inputs": [
        {
          "internalType": "contract ISeaport",
          "name": "_seaport",
          "type": "address"
        }
      ],
      "stateMutability": "nonpayable",
      "type": "constructor"
    },
    {
      "inputs": [],
      "name": "ConduitDoesntExist",
      "type": "error"
    },
    {
      "inputs": [],
      "name": "EthDepositRejected",
      "type": "error"
    },
    {
      "inputs": [],
      "name": "InsufficientFunds",
      "type": "error"
    },
    {
      "inputs": [],
      "name": "TransferNotSuccessful",
      "type": "error"
    },
    {
      "inputs": [
        {
          "internalType": "address",
          "name": "",
          "type": "address"
        },
        {
          "internalType": "address",
          "name": "",
          "type": "address"
        },
        {
          "internalType": "uint256",
          "name": "",
          "type": "uint256"
        },
        {
          "internalType": "bytes",
          "name": "",
          "type": "bytes"
        }
      ],
      "name": "onERC721Received",
      "outputs": [
        {
          "internalType": "bytes4",
          "name": "",
          "type": "bytes4"
        }
      ],
      "stateMutability": "nonpayable",
      "type": "function"
    },
    {
      "inputs": [
        {
          "internalType": "bytes",
          "name": "data",
          "type": "bytes"
        },
        {
          "internalType": "address",
          "name": "recipient",
          "type": "address"
        }
      ],
      "name": "purchaseAsset",
      "outputs": [
        {
          "components": [
            {
              "internalType": "address",
              "name": "token",
              "type": "address"
            },
            {
              "internalType": "uint256",
              "name": "tokenID",
              "type": "uint256"
            },
            {
              "internalType": "uint256",
              "name": "amount",
              "type": "uint256"
            },
            {
              "internalType": "enum AssetType",
              "name": "assetType",
              "type": "uint8"
            },
            {
              "internalType": "bytes",
              "name": "data",
              "type": "bytes"
            }
          ],
          "internalType": "struct Asset",
          "name": "asset",
          "type": "tuple"
        },
        {
          "internalType": "uint256",
          "name": "spent",
          "type": "uint256"
        }
      ],
      "stateMutability": "payable",
      "type": "function"
    },
    {
      "inputs": [],
      "name": "seaport",
      "outputs": [
        {
          "internalType": "contract ISeaport",
          "name": "",
          "type": "address"
        }
      ],
      "stateMutability": "view",
      "type": "function"
    },
    {
      "stateMutability": "payable",
      "type": "receive"
    }
  ],
  "bytecode": "0x60a060405234801562000010575f80fd5b5060405162001e4b38038062001e4b8339818101604052810190620000369190620000ac565b6200005267d2ef610543bb9a6360c01b620000a960201b60201c565b6200006e6776473f5fe31ad8f960c01b620000a960201b60201c565b8073ffffffffffffffffffffffffffffffffffffffff1660808173ffffffffffffffffffffffffffffffffffffffff168152505050620000dd565b50565b5f60208284031215620000bd575f80fd5b815160018060a01b0381168114620000d3575f80fd5b8091505092915050565b608051611d406200010b5f395f81816103f001528181610786015281816109c60152610c9d0152611d405ff3fe608060405260043610610037575f3560e01c8063150b7a02146100e35780633e19c9e01461011f578063f5c7bd7014610150576100df565b366100df57610050673948d7b75f045d1a60c01b61017a565b3273ffffffffffffffffffffffffffffffffffffffff163373ffffffffffffffffffffffffffffffffffffffff16036100c9576100976704b75b7589667e6260c01b61017a565b6040517f1b10b0f900000000000000000000000000000000000000000000000000000000815260040160405180910390fd5b6100dd67ac31b8e67e39829460c01b61017a565b005b5f80fd5b3480156100ee575f80fd5b50610109600480360381019061010491906112e7565b61017d565b6040516101169190611353565b60405180910390f35b61013960048036038101906101349190611385565b610190565b6040516101479291906114c2565b60405180910390f35b34801561015b575f80fd5b50610164610c9b565b604051610171919061153e565b60405180910390f35b50565b5f63150b7a0260e01b9050949350505050565b6101986110df565b5f6101ad673794fb750061820960c01b61017a565b6101c1677a9a86ce66eae3ab60c01b61017a565b6101d567f2e80493689ff11060c01b61017a565b5f85858101906101e59190611630565b90506101fb676114c54bf25a49e960c01b61017a565b8060400151915061021667291a5d3e888207a560c01b61017a565b61022a67ccbdb51ecd840e3660c01b61017a565b5f5b8161020001515181101561029d5761024e67b2995fd2a8b1f85060c01b61017a565b816102000151818151811061026657610265611797565b5b60200260200101515f01518361027c91906117c4565b925061029267b1ced3637f817b3560c01b61017a565b80600101905061022c565b506102b2670752f9e87536c7c560c01b61017a565b6102c667c9a008bfc96dc11060c01b61017a565b5f815f015190506102e1677e7d2c570bbf6bb660c01b61017a565b6102f56791dfc9a2a26b7dbd60c01b61017a565b5f73ffffffffffffffffffffffffffffffffffffffff168173ffffffffffffffffffffffffffffffffffffffff160361061a5761033c67b110a62f5822775060c01b61017a565b61035067968a8ac55371322c60c01b61017a565b610364679513de423950a8d060c01b61017a565b823410156103b25761038067e854c95b938f26c760c01b61017a565b6040517f356680b700000000000000000000000000000000000000000000000000000000815260040160405180910390fd5b6103c6673b5a5a6067216e5460c01b61017a565b6103da674cf9d305f41dd8e260c01b61017a565b6103ee677aa56a7ad953ba3160c01b61017a565b7f000000000000000000000000000000000000000000000000000000000000000073ffffffffffffffffffffffffffffffffffffffff1663fb0f3ee184846040518363ffffffff1660e01b8152600401610448919061187f565b60206040518083038185885af1158015610464573d5f803e3d5ffd5b50505050506040513d601f19601f8201168201806040525081019061048991906119f2565b5061049e67dd92889f60ff643760c01b61017a565b6104b2677143ba138cf4e59160c01b61017a565b348314610600576104cd67854d1715110f358860c01b61017a565b6104e16783257ddca5157d5160c01b61017a565b6104f5672053db7691e8e09460c01b61017a565b610509673b381486b1e694b560c01b61017a565b5f3373ffffffffffffffffffffffffffffffffffffffff1684340360405161053090611a13565b5f6040518083038185875af1925050503d805f811461056a576040519150601f19603f3d011682016040523d82523d5f602084013e61056f565b606091505b50509050610587670efcb1cbe5b205a760c01b61017a565b61059b674a64f130adbb5e2860c01b61017a565b806105e6576105b4676374997d3b2fb3ca60c01b61017a565b6040517fa392ef7800000000000000000000000000000000000000000000000000000000815260040160405180910390fd5b6105fa67a9b241a87455429f60c01b61017a565b50610615565b61061467c140c496306dcf9360c01b61017a565b5b610b29565b61062e67a3d719ed11cdb42960c01b61017a565b61064267359ddd1bd3f7f81460c01b61017a565b610656672bc959621f03e57060c01b61017a565b5f8173ffffffffffffffffffffffffffffffffffffffff166370a08231306040518263ffffffff1660e01b81526004016106909190611a1c565b602060405180830381865afa1580156106ab573d5f803e3d5ffd5b505050506040513d601f19601f820116820180604052508101906106cf9190611a42565b90506106e5673a09a9d8dcda153d60c01b61017a565b6106f967890cd4bcf63c098460c01b61017a565b838110156107475761071567a8793bc6214354a760c01b61017a565b6040517f356680b700000000000000000000000000000000000000000000000000000000815260040160405180910390fd5b61075b67e22c91a0922fc26160c01b61017a565b61076f6705031ed714e388f660c01b61017a565b610783675208aa2e376d846b60c01b61017a565b5f7f000000000000000000000000000000000000000000000000000000000000000073ffffffffffffffffffffffffffffffffffffffff1663f47b77406040518163ffffffff1660e01b81526004015f60405180830381865afa1580156107ec573d5f803e3d5ffd5b505050506040513d5f823e3d601f19601f820116820180604052508101906108149190611a5c565b9250505061082c672b270cd04ed218e660c01b61017a565b61084067aec69abcee32dadf60c01b61017a565b5f808273ffffffffffffffffffffffffffffffffffffffff16636e9bfd9f876101c001516040518263ffffffff1660e01b81526004016108809190611af5565b6040805180830381865afa15801561089a573d5f803e3d5ffd5b505050506040513d601f19601f820116820180604052508101906108be9190611b05565b915091506108d667f32a01be24661ad760c01b61017a565b6108ea6752648a12262e6fe760c01b61017a565b8061093557610903675dcafcd4de24627f60c01b61017a565b6040517fdcfc780f00000000000000000000000000000000000000000000000000000000815260040160405180910390fd5b610949677ab2868af63e56f260c01b61017a565b61095d6768423a8bcd9fbe1460c01b61017a565b61097167fdcafe7db8e4e2c760c01b61017a565b61099c82888773ffffffffffffffffffffffffffffffffffffffff16610cbf9092919063ffffffff16565b6109b0678e22309e553ca5e260c01b61017a565b6109c4678f5222bb2ea0666560c01b61017a565b7f000000000000000000000000000000000000000000000000000000000000000073ffffffffffffffffffffffffffffffffffffffff1663fb0f3ee1876040518263ffffffff1660e01b8152600401610a1d919061187f565b6020604051808303815f875af1158015610a39573d5f803e3d5ffd5b505050506040513d601f19601f82011682018060405250810190610a5d91906119f2565b50610a7267360810e03a1603fe60c01b61017a565b610a8667947289ce0b12374c60c01b61017a565b838714610b0f57610aa167a707b7531485541b60c01b61017a565b610ab567dcd96f4914c4f0d160c01b61017a565b610ac967fbf90f6b35efe9c960c01b61017a565b610add67453eca2f394d51a660c01b61017a565b610b0a338886038773ffffffffffffffffffffffffffffffffffffffff16610dce9092919063ffffffff16565b610b24565b610b2367fcabeed852ba838260c01b61017a565b5b505050505b610b3d670886e2a62cd96e3660c01b61017a565b610b5167f35c4c9120e7604460c01b61017a565b5f8260a001519050610b6d67b17742724a19b95360c01b61017a565b610b816764eff5117632944060c01b61017a565b5f8360c001519050610b9d67844ca026c922574d60c01b61017a565b6040518060a001604052808373ffffffffffffffffffffffffffffffffffffffff168152602001828152602001600181526020015f6005811115610be457610be3611422565b5b815260200160405180602001604052805f8152508152509550610c1167813e2455a403d80660c01b61017a565b610c256763f8a1327587e10660c01b61017a565b8173ffffffffffffffffffffffffffffffffffffffff166342842e0e3089846040518463ffffffff1660e01b8152600401610c6293929190611b3a565b5f604051808303815f87803b158015610c79575f80fd5b505af1158015610c8b573d5f803e3d5ffd5b5050505050505050935093915050565b7f000000000000000000000000000000000000000000000000000000000000000081565b5f8373ffffffffffffffffffffffffffffffffffffffff1663dd62ed3e30856040518363ffffffff1660e01b8152600401610cfb929190611b72565b602060405180830381865afa158015610d16573d5f803e3d5ffd5b505050506040513d601f19601f82011682018060405250810190610d3a9190611a42565b9050610dc88463095ea7b360e01b858585610d5591906117c4565b604051602401610d66929190611ba3565b604051602081830303815290604052907bffffffffffffffffffffffffffffffffffffffffffffffffffffffff19166020820180517bffffffffffffffffffffffffffffffffffffffffffffffffffffffff8381831617835250505050610e54565b50505050565b610e4f8363a9059cbb60e01b8484604051602401610ded929190611ba3565b604051602081830303815290604052907bffffffffffffffffffffffffffffffffffffffffffffffffffffffff19166020820180517bffffffffffffffffffffffffffffffffffffffffffffffffffffffff8381831617835250505050610e54565b505050565b5f610eb5826040518060400160405280602081526020017f5361666545524332303a206c6f772d6c6576656c2063616c6c206661696c65648152508573ffffffffffffffffffffffffffffffffffffffff16610f1a9092919063ffffffff16565b90505f81511480610ed6575080806020019051810190610ed591906119f2565b5b610f15576040517f08c379a0000000000000000000000000000000000000000000000000000000008152600401610f0c90611bd0565b60405180910390fd5b505050565b6060610f2884845f85610f31565b90509392505050565b606082471015610f76576040517f08c379a0000000000000000000000000000000000000000000000000000000008152600401610f6d90611c33565b60405180910390fd5b5f808673ffffffffffffffffffffffffffffffffffffffff168587604051610f9e9190611c96565b5f6040518083038185875af1925050503d805f8114610fd8576040519150601f19603f3d011682016040523d82523d5f602084013e610fdd565b606091505b5091509150610fee87838387610ffa565b92505050949350505050565b6060831561105b575f835103611053576110138561106e565b611052576040517f08c379a000000000000000000000000000000000000000000000000000000000815260040161104990611cb3565b60405180910390fd5b5b829050611066565b6110658383611090565b5b949350505050565b5f808273ffffffffffffffffffffffffffffffffffffffff163b119050919050565b5f825111156110a25781518083602001fd5b806040517f08c379a00000000000000000000000000000000000000000000000000000000081526004016110d69190611cf0565b60405180910390fd5b6040518060a001604052805f73ffffffffffffffffffffffffffffffffffffffff1681526020015f81526020015f81526020015f600581111561112557611124611422565b5b8152602001606081525090565b73ffffffffffffffffffffffffffffffffffffffff81168114611153575f80fd5b50565b5f8135905061116481611132565b919050565b7f4e487b71000000000000000000000000000000000000000000000000000000005f52604160045260245ffd5b5f60405190506040810181811067ffffffffffffffff821117156111bd576111bc611169565b5b806040525090565b5f6040519050610240810181811067ffffffffffffffff821117156111ed576111ec611169565b5b806040525090565b5f60405190507fffffffffffffffffffffffffffffffffffffffffffffffffffffffffffffffe0601f830116810181811067ffffffffffffffff821117156112405761123f611169565b5b8060405250919050565b5f67ffffffffffffffff82111561126457611263611169565b5b60207fffffffffffffffffffffffffffffffffffffffffffffffffffffffffffffffe0601f840116019050919050565b5f82601f8301126112a3575f80fd5b81356112b66112b18261124a565b6111f5565b8181528460208386010111156112ca575f80fd5b816020850160208301375f60208383010152809250505092915050565b5f805f80608085870312156112fa575f80fd5b843561130581611132565b80945050602085013561131781611132565b8093505060408501359150606085013567ffffffffffffffff81111561133b575f80fd5b61134787828801611294565b91505092959194509250565b5f6020820190507fffffffff000000000000000000000000000000000000000000000000000000008316825292915050565b5f805f60408486031215611397575f80fd5b833567ffffffffffffffff808211156113ae575f80fd5b818601915086601f8301126113c1575f80fd5b8135818111156113cf575f80fd5b8760208285010111156113e0575f80fd5b60208301955080945050505060208401356113fa81611132565b809150509250925092565b73ffffffffffffffffffffffffffffffffffffffff811682525050565b7f4e487b71000000000000000000000000000000000000000000000000000000005f52602160045260245ffd5b5f5b8381101561146c578082015181840152602081019050611451565b505f83830152505050565b5f815180845261148e81602086016020860161144f565b60207fffffffffffffffffffffffffffffffffffffffffffffffffffffffffffffffe0601f83011685010191505092915050565b6040815273ffffffffffffffffffffffffffffffffffffffff835116604082015260208301516060820152604083015160808201525f60608401516006811061150e5761150d611422565b5b8060a084015250608084015160a060c084015261152e60e0840182611477565b9150508260208301529392505050565b5f60208201905073ffffffffffffffffffffffffffffffffffffffff8316825292915050565b5f8135905060188110611575575f80fd5b919050565b5f82601f830112611589575f80fd5b8135602067ffffffffffffffff8211156115a6576115a5611169565b5b6115b4818360051b016111f5565b808382528282019150828460061b8701019350868411156115d3575f80fd5b8286015b8481101561162257604081890312156115ef575f8081fd5b6115f7611196565b813581528482013561160881611132565b8086830152508084525083830192506040810190506115d7565b508094505050505092915050565b5f60208284031215611640575f80fd5b813567ffffffffffffffff80821115611657575f80fd5b8184019150610240828603121561166c575f80fd5b6116746111c5565b61167d83611156565b8152602083013560208201526040830135604082015261169f60608401611156565b60608201526116b060808401611156565b60808201526116c160a08401611156565b60a082015260c083013560c082015260e083013560e08201526101006116e8818501611564565b81830152506101208084013581830152506101408084013581830152506101608084013581830152506101808084013581830152506101a08084013581830152506101c08084013581830152506101e08084013581830152506102008084013583811115611754575f80fd5b6117608882870161157a565b8284015250506102208084013583811115611779575f80fd5b61178588828701611294565b82840152505080935050505092915050565b7f4e487b71000000000000000000000000000000000000000000000000000000005f52603260045260245ffd5b5f8282019050808211156117ff577f4e487b71000000000000000000000000000000000000000000000000000000005f52601160045260245ffd5b92915050565b6018811061181657611815611422565b5b8082525050565b5f8151808452602080850194508084015f5b838110156118725781518051885273ffffffffffffffffffffffffffffffffffffffff84820151168489015250604087019650828201915060018101905061182f565b5050505082905092915050565b60208152611891602082018351611405565b60208201516040820152604082015160608201525f60608301516118b86080840182611405565b5060808301516118cb60a0840182611405565b5060a08301516118de60c0840182611405565b5060c083015160e083015260e083015161010081818501528085015191505061012061190c81850183611805565b808501519150506101408181850152808501519150506101608181850152808501519150506101808181850152808501519150506101a08181850152808501519150506101c08181850152808501519150506101e0818185015280850151915050610200818185015280850151915050610240610220818186015261199561026086018461181d565b92508086015190507fffffffffffffffffffffffffffffffffffffffffffffffffffffffffffffffe085840301828601526119d08382611477565b935050505092915050565b5f8151905080151581146119ed575f80fd5b919050565b5f60208284031215611a02575f80fd5b611a0b826119db565b905092915050565b5f819050919050565b5f60208201905073ffffffffffffffffffffffffffffffffffffffff8316825292915050565b5f60208284031215611a52575f80fd5b8151905092915050565b5f805f60608486031215611a6e575f80fd5b835167ffffffffffffffff811115611a84575f80fd5b808501905085601f820112611a97575f80fd5b8051611aaa611aa58261124a565b6111f5565b818152876020838501011115611abe575f80fd5b611acf82602083016020860161144f565b809550505050602084015191506040840151611aea81611132565b809150509250925092565b5f60208201905082825292915050565b5f8060408385031215611b16575f80fd5b8251611b2181611132565b80925050611b31602084016119db565b90509250929050565b5f60608201905073ffffffffffffffffffffffffffffffffffffffff8086168352808516602084015250826040830152949350505050565b5f60408201905073ffffffffffffffffffffffffffffffffffffffff80851683528084166020840152509392505050565b5f60408201905073ffffffffffffffffffffffffffffffffffffffff841682528260208301529392505050565b60208152602a60208201527f5361666545524332303a204552433230206f7065726174696f6e20646964206e60408201527f6f7420737563636565640000000000000000000000000000000000000000000060608201525f608082019050919050565b60208152602660208201527f416464726573733a20696e73756666696369656e742062616c616e636520666f60408201527f722063616c6c000000000000000000000000000000000000000000000000000060608201525f608082019050919050565b5f8251611ca781846020870161144f565b80830191505092915050565b60208152601d60208201527f416464726573733a2063616c6c20746f206e6f6e2d636f6e747261637400000060408201525f606082019050919050565b602081525f611d026020830184611477565b90509291505056fea2646970667358221220e7489cee37cf95a8f6d5406a1cf0628197d4e42bc65411ad3c5120af1af8f41a64736f6c63430008150033",
  "linkReferences": {},
  "deployedLinkReferences": {}
}