{
  "_format": "hh-sol-artifact-1",
  "contractName": "EeseeRandom",
  "sourceName": "contracts/random/EeseeRandom.sol",
  "abi": [
    {
      "inputs": [
        {
          "components": [
            {
              "internalType": "address",
              "name": "vrfCoordinator",
              "type": "address"
            },
            {
              "internalType": "bytes32",
              "name": "keyHash",
              "type": "bytes32"
            },
            {
              "internalType": "uint16",
              "name": "minimumRequestConfirmations",
              "type": "uint16"
            },
            {
              "internalType": "uint32",
              "name": "callbackGasLimit",
              "type": "uint32"
            }
          ],
          "internalType": "struct IEeseeRandom.ChainlinkContructorArgs",
          "name": "chainlinkArgs",
          "type": "tuple"
        },
        {
          "internalType": "contract IEeseeAccessManager",
          "name": "_accessManager",
          "type": "address"
        }
      ],
      "stateMutability": "nonpayable",
      "type": "constructor"
    },
    {
      "inputs": [],
      "name": "CallOnTheSameBlock",
      "type": "error"
    },
    {
      "inputs": [],
      "name": "CallerNotAuthorized",
      "type": "error"
    },
    {
      "inputs": [],
      "name": "InvalidAccessManager",
      "type": "error"
    },
    {
      "inputs": [],
      "name": "InvalidAutomationInterval",
      "type": "error"
    },
    {
      "inputs": [
        {
          "internalType": "address",
          "name": "have",
          "type": "address"
        },
        {
          "internalType": "address",
          "name": "want",
          "type": "address"
        }
      ],
      "name": "OnlyCoordinatorCanFulfill",
      "type": "error"
    },
    {
      "inputs": [],
      "name": "UpkeepNotNeeded",
      "type": "error"
    },
    {
      "anonymous": false,
      "inputs": [
        {
          "indexed": true,
          "internalType": "address",
          "name": "_contract",
          "type": "address"
        }
      ],
      "name": "ApproveContract",
      "type": "event"
    },
    {
      "anonymous": false,
      "inputs": [
        {
          "indexed": true,
          "internalType": "uint32",
          "name": "previosAutomationInterval",
          "type": "uint32"
        },
        {
          "indexed": true,
          "internalType": "uint32",
          "name": "newAutomationInterval",
          "type": "uint32"
        }
      ],
      "name": "ChangeAutomationInterval",
      "type": "event"
    },
    {
      "anonymous": false,
      "inputs": [
        {
          "indexed": true,
          "internalType": "uint256",
          "name": "randomWord",
          "type": "uint256"
        }
      ],
      "name": "FulfillRandomWords",
      "type": "event"
    },
    {
      "anonymous": false,
      "inputs": [
        {
          "indexed": true,
          "internalType": "uint256",
          "name": "requestID",
          "type": "uint256"
        }
      ],
      "name": "RequestWords",
      "type": "event"
    },
    {
      "inputs": [],
      "name": "accessManager",
      "outputs": [
        {
          "internalType": "contract IEeseeAccessManager",
          "name": "",
          "type": "address"
        }
      ],
      "stateMutability": "view",
      "type": "function"
    },
    {
      "inputs": [],
      "name": "automationInterval",
      "outputs": [
        {
          "internalType": "uint32",
          "name": "",
          "type": "uint32"
        }
      ],
      "stateMutability": "view",
      "type": "function"
    },
    {
      "inputs": [
        {
          "internalType": "uint32",
          "name": "_automationInterval",
          "type": "uint32"
        }
      ],
      "name": "changeAutomationInterval",
      "outputs": [],
      "stateMutability": "nonpayable",
      "type": "function"
    },
    {
      "inputs": [
        {
          "internalType": "bytes",
          "name": "",
          "type": "bytes"
        }
      ],
      "name": "checkUpkeep",
      "outputs": [
        {
          "internalType": "bool",
          "name": "upkeepNeeded",
          "type": "bool"
        },
        {
          "internalType": "bytes",
          "name": "",
          "type": "bytes"
        }
      ],
      "stateMutability": "view",
      "type": "function"
    },
    {
      "inputs": [
        {
          "internalType": "uint256",
          "name": "_timestamp",
          "type": "uint256"
        }
      ],
      "name": "getRandomFromTimestamp",
      "outputs": [
        {
          "internalType": "uint256",
          "name": "word",
          "type": "uint256"
        },
        {
          "internalType": "uint256",
          "name": "timestamp",
          "type": "uint256"
        }
      ],
      "stateMutability": "view",
      "type": "function"
    },
    {
      "inputs": [
        {
          "internalType": "bytes",
          "name": "",
          "type": "bytes"
        }
      ],
      "name": "performUpkeep",
      "outputs": [],
      "stateMutability": "nonpayable",
      "type": "function"
    },
    {
      "inputs": [],
      "name": "performUpkeep",
      "outputs": [],
      "stateMutability": "nonpayable",
      "type": "function"
    },
    {
      "inputs": [],
      "name": "performUpkeepTimestamp",
      "outputs": [
        {
          "internalType": "uint64",
          "name": "",
          "type": "uint64"
        }
      ],
      "stateMutability": "view",
      "type": "function"
    },
    {
      "inputs": [
        {
          "internalType": "uint256",
          "name": "",
          "type": "uint256"
        }
      ],
      "name": "random",
      "outputs": [
        {
          "internalType": "uint256",
          "name": "word",
          "type": "uint256"
        },
        {
          "internalType": "uint256",
          "name": "timestamp",
          "type": "uint256"
        }
      ],
      "stateMutability": "view",
      "type": "function"
    },
    {
      "inputs": [
        {
          "internalType": "uint256",
          "name": "requestId",
          "type": "uint256"
        },
        {
          "internalType": "uint256[]",
          "name": "randomWords",
          "type": "uint256[]"
        }
      ],
      "name": "rawFulfillRandomWords",
      "outputs": [],
      "stateMutability": "nonpayable",
      "type": "function"
    },
    {
      "inputs": [],
      "name": "returnInterval",
      "outputs": [
        {
          "internalType": "uint48",
          "name": "",
          "type": "uint48"
        }
      ],
      "stateMutability": "view",
      "type": "function"
    },
    {
      "inputs": [],
      "name": "subscriptionID",
      "outputs": [
        {
          "internalType": "uint64",
          "name": "",
          "type": "uint64"
        }
      ],
      "stateMutability": "view",
      "type": "function"
    },
    {
      "inputs": [],
      "name": "vrfCoordinator",
      "outputs": [
        {
          "internalType": "contract VRFCoordinatorV2Interface",
          "name": "",
          "type": "address"
        }
      ],
      "stateMutability": "view",
      "type": "function"
    }
  ],
  "bytecode": "0x61018060405261a8c0600160086101000a81548163ffffffff021916908363ffffffff16021790555034801562000034575f80fd5b5060405162001e9038038062001e9083398181016040528101906200005a9190620004fe565b815f01518073ffffffffffffffffffffffffffffffffffffffff1660808173ffffffffffffffffffffffffffffffffffffffff168152505050620000af67709e3c0efa1a084360c01b620004a760201b60201c565b620000cb67a821d413e74e282760c01b620004a760201b60201c565b620000e767fc06b2d146b98e7f60c01b620004a760201b60201c565b5f73ffffffffffffffffffffffffffffffffffffffff168173ffffffffffffffffffffffffffffffffffffffff1603620001695762000137671db10b040225210260c01b620004a760201b60201c565b6040517fa98154e200000000000000000000000000000000000000000000000000000000815260040160405180910390fd5b6200018567d241a92031595f9f60c01b620004a760201b60201c565b620001a1672d194a412e3b764b60c01b620004a760201b60201c565b815f015173ffffffffffffffffffffffffffffffffffffffff166101408173ffffffffffffffffffffffffffffffffffffffff1681525050620001f567c3a70f12dcf8e21d60c01b620004a760201b60201c565b6101405173ffffffffffffffffffffffffffffffffffffffff1663a21a23e46040518163ffffffff1660e01b81526004016020604051808303815f875af115801562000243573d5f803e3d5ffd5b505050506040513d601f19601f82011682018060405250810190620002699190620005ab565b67ffffffffffffffff1660e08167ffffffffffffffff1681525050620002a067d0e3adabc8ebeeee60c01b620004a760201b60201c565b620002bc67bab4f2933e2da9c960c01b620004a760201b60201c565b6101405173ffffffffffffffffffffffffffffffffffffffff16637341c10c60e051306040518363ffffffff1660e01b8152600401620002fe929190620005dc565b5f604051808303815f87803b15801562000316575f80fd5b505af115801562000329573d5f803e3d5ffd5b505050506200034967ebc1cd4bc51b6afc60c01b620004a760201b60201c565b816020015161016081815250506200037267407a1a41f12409eb60c01b620004a760201b60201c565b816040015161ffff166101208161ffff1681525050620003a367a32e66aace02c3b260c01b620004a760201b60201c565b816060015163ffffffff166101008163ffffffff1681525050620003d867ea4af8068e362efb60c01b620004a760201b60201c565b8073ffffffffffffffffffffffffffffffffffffffff1660a08173ffffffffffffffffffffffffffffffffffffffff16815250506200042867c853b561ed57dcb660c01b620004a760201b60201c565b8073ffffffffffffffffffffffffffffffffffffffff166375b238fc6040518163ffffffff1660e01b8152600401602060405180830381865afa15801562000472573d5f803e3d5ffd5b505050506040513d601f19601f8201168201806040525081019062000498919062000603565b60c0818152505050506200061e565b50565b5f8151905060018060a01b0381168114620004c3575f80fd5b919050565b5f8151905061ffff81168114620004dd575f80fd5b919050565b5f8151905063ffffffff81168114620004f9575f80fd5b919050565b5f8082840360a081121562000511575f80fd5b60808112156200051f575f80fd5b506040516080810181811060018060401b03821117156200054e57634e487b7160e01b5f52604160045260245ffd5b80604052506200055e84620004aa565b8152602084015160208201526200057860408501620004c8565b60408201526200058b60608501620004e2565b606082015280925050620005a260808401620004aa565b90509250929050565b5f60208284031215620005bc575f80fd5b815160018060401b0381168114620005d2575f80fd5b8091505092915050565b5f60408201905060018060401b038416825260018060a01b03831660208301529392505050565b5f6020828403121562000614575f80fd5b8151905092915050565b60805160a05160c05160e051610100516101205161014051610160516117f36200069d5f395f610db501525f818161072a0152610d7901525f610df701525f610e1801525f81816106ff0152610dd601525f6107a901525f8181610598015281816108060152610b1101525f818161028801526102dc01526117f35ff3fe608060405234801561000f575f80fd5b50600436106100dd575f3560e01c80638d497cfa1161008a578063f06e230f11610064578063f06e230f146101fd578063f5d1180e1461021b578063fa95b13914610237578063fdcb606814610268576100dd565b80638d497cfa14610190578063a3e56fa8146101ae578063b863bd37146101cc576100dd565b80636e04ff0d116100bb5780636e04ff0d146101375780636e4d243a1461016857806375d1d2d114610172576100dd565b80631fe543e3146100e15780634585e33b146100fd578063669a6ae314610119575b5f80fd5b6100fb60048036038101906100f691906112f4565b610286565b005b610117600480360381019061011291906113a8565b610346565b005b610121610459565b60405161012e9190611415565b60405180910390f35b610151600480360381019061014c919061142b565b61046f565b60405161015f9291906114da565b60405180910390f35b610170610525565b005b61017a6106fd565b6040516101879190611550565b60405180910390f35b610198610721565b6040516101a5919061156a565b60405180910390f35b6101b6610728565b6040516101c39190611582565b60405180910390f35b6101e660048036038101906101e191906115a8565b61074c565b6040516101f49291906115c2565b60405180910390f35b61020561077a565b6040516102129190611550565b60405180910390f35b610235600480360381019061023091906115d9565b610793565b005b610251600480360381019061024c91906115a8565b610a80565b60405161025f9291906115c2565b60405180910390f35b610270610b0f565b60405161027d9190611606565b60405180910390f35b7f000000000000000000000000000000000000000000000000000000000000000073ffffffffffffffffffffffffffffffffffffffff163373ffffffffffffffffffffffffffffffffffffffff161461033857337f00000000000000000000000000000000000000000000000000000000000000006040517f1cf993f400000000000000000000000000000000000000000000000000000000815260040161032f92919061162c565b60405180910390fd5b6103428282610b33565b5050565b61035a678a79d816cc410f3b60c01b610d37565b61036e67f9535c862c973d6460c01b610d37565b6103826765c5505b7e21550660c01b610d37565b5f61039a60405180602001604052805f81525061046f565b5090506103b16738dbefe9ffdc3e8f60c01b610d37565b6103c5673e7c4c8f123946c660c01b610d37565b80610410576103de679ba8e362d983d31d60c01b610d37565b6040517f865676e300000000000000000000000000000000000000000000000000000000815260040160405180910390fd5b61042467773b31d072df3b5460c01b610d37565b610438674f3b49d634a523dd60c01b610d37565b61044c6748b8bba5c37ce08460c01b610d37565b610454610d3a565b505050565b600160089054906101000a900463ffffffff1681565b5f6060610486674ef702ac6d890a1960c01b610d37565b61049a6763e0f266ec4c178060c01b610d37565b6104ae6716cc16be0bcf747a60c01b610d37565b600160089054906101000a900463ffffffff1663ffffffff1660015f9054906101000a900467ffffffffffffffff1667ffffffffffffffff1642031061050b5761050267a35e239c6c2c7be760c01b610d37565b60019150610520565b61051f6710ebd6f5b61f73ae60c01b610d37565b5b915091565b61053967e8ecef55ca79863260c01b610d37565b7f2a2c268c7cd0f39b7cc90b7a2a94e8493b3e1a763a91e9860bf316284c8e155f61056e67ecfef71941d7058960c01b610d37565b610582677defd51617a738f260c01b610d37565b61059667d8fe15052a63512360c01b610d37565b7f000000000000000000000000000000000000000000000000000000000000000073ffffffffffffffffffffffffffffffffffffffff166391d1485482336040518363ffffffff1660e01b81526004016105f192919061165d565b602060405180830381865afa15801561060c573d5f803e3d5ffd5b505050506040513d601f19601f82011682018060405250810190610630919061168a565b61067a576106486727f1fb7a065e6ba060c01b610d37565b6040517fc183bcef00000000000000000000000000000000000000000000000000000000815260040160405180910390fd5b61068e676937bef4a96e784d60c01b610d37565b6106a267cd722fd2c1222f9760c01b610d37565b6106b667e985e9a2c92e10ca60c01b610d37565b6106ca67958c6ab1f42c785260c01b610d37565b6106de67e08e9f5935398d8160c01b610d37565b6106f267a8618cc1fd2e67aa60c01b610d37565b6106fa610d3a565b50565b7f000000000000000000000000000000000000000000000000000000000000000081565b6201518081565b7f000000000000000000000000000000000000000000000000000000000000000081565b5f818154811061075a575f80fd5b905f5260205f2090600202015f91509050805f0154908060010154905082565b60015f9054906101000a900467ffffffffffffffff1681565b6107a767144c7fa88da77b4460c01b610d37565b7f00000000000000000000000000000000000000000000000000000000000000006107dc67ecfef71941d7058960c01b610d37565b6107f0677defd51617a738f260c01b610d37565b61080467d8fe15052a63512360c01b610d37565b7f000000000000000000000000000000000000000000000000000000000000000073ffffffffffffffffffffffffffffffffffffffff166391d1485482336040518363ffffffff1660e01b815260040161085f92919061165d565b602060405180830381865afa15801561087a573d5f803e3d5ffd5b505050506040513d601f19601f8201168201806040525081019061089e919061168a565b6108e8576108b66727f1fb7a065e6ba060c01b610d37565b6040517fc183bcef00000000000000000000000000000000000000000000000000000000815260040160405180910390fd5b6108fc676937bef4a96e784d60c01b610d37565b61091067cd722fd2c1222f9760c01b610d37565b61092467f462fa47ee1c1f3a60c01b610d37565b6109386750133a3e17d55fc660c01b610d37565b61094c67c4511932188e5cd660c01b610d37565b610960674a556c54096f029960c01b610d37565b6201518065ffffffffffff168263ffffffff1611156109bf5761098d671a90a8bf6b736f7260c01b610d37565b6040517fd05dad4900000000000000000000000000000000000000000000000000000000815260040160405180910390fd5b6109d36701c7aa73fdc3623160c01b610d37565b6109e767eb1c5e9bc003939560c01b610d37565b6109fb67224c32427c607e7560c01b610d37565b8163ffffffff16600160089054906101000a900463ffffffff1663ffffffff167f3ad7100a9d211edd63b63bb4432939b90399415afe4ff5c1b3eaff93fd6fcf3960405160405180910390a3610a5b677118f4e118128dbf60c01b610d37565b81600160086101000a81548163ffffffff021916908363ffffffff1602179055505050565b5f80610a9667a703333423be804360c01b610d37565b610aaa67574730d53adaa8ab60c01b610d37565b610abe6701b089fcdfbca8c460c01b610d37565b5f610ad2845f610f2f90919063ffffffff16565b9050610ae86710329d46f1dafe0360c01b610d37565b610afc674f3f962de931e10d60c01b610d37565b805f015181602001519250925050915091565b7f000000000000000000000000000000000000000000000000000000000000000081565b610b4767e3475257d1df133960c01b610d37565b610b5b6757f4ccf4af05188e60c01b610d37565b610b6f67741ab55a66d3835760c01b610d37565b5f80805490509050610b8b67276fce9ff19541d060c01b610d37565b610b9f67bc05ab1d7d72abe160c01b610d37565b5f81118015610bd25750425f6001830381548110610bc057610bbf6116b3565b5b905f5260205f20906002020160010154145b15610c1d57610beb67f9e48c8ceff7d2f260c01b610d37565b6040517fa094db0f00000000000000000000000000000000000000000000000000000000815260040160405180910390fd5b610c31678bce5714dca7ef5060c01b610d37565b610c4567b42e7a688e3fb5a560c01b610d37565b610c59670df2f215d1ae80ed60c01b610d37565b5f6040518060400160405280845f81518110610c7857610c776116b3565b5b6020026020010151815260200142815250908060018154018082558091505060019003905f5260205f2090600202015f909190919091505f820151815f0155602082015181600101555050610cd76784816aa6b251898360c01b610d37565b610ceb6795d55837fa33c4df60c01b610d37565b815f81518110610cfe57610cfd6116b3565b5b60200260200101517f41a7c5307276c3ee1dd4b0850ff28b9666beaa3df758778d16591980b22e5b8460405160405180910390a2505050565b50565b610d4e675f4f73533380ff5260c01b610d37565b610d62676b46cdc25020488660c01b610d37565b610d76675ffdd5e10280287e60c01b610d37565b5f7f000000000000000000000000000000000000000000000000000000000000000073ffffffffffffffffffffffffffffffffffffffff16635d3b1d307f00000000000000000000000000000000000000000000000000000000000000007f00000000000000000000000000000000000000000000000000000000000000007f00000000000000000000000000000000000000000000000000000000000000007f000000000000000000000000000000000000000000000000000000000000000060016040518663ffffffff1660e01b8152600401610e599594939291906116e0565b6020604051808303815f875af1158015610e75573d5f803e3d5ffd5b505050506040513d601f19601f82011682018060405250810190610e999190611724565b9050610eaf67a1d03692a6841e2d60c01b610d37565b4260015f6101000a81548167ffffffffffffffff021916908367ffffffffffffffff160217905550610eeb67ab07d04aa252356260c01b610d37565b610eff67a25473d7b1b5ae7960c01b610d37565b807f1b16b976bbe9076ba9909ce80b254d69fae61ba08ea75053e0f77ddc40e8db7760405160405180910390a250565b610f3761125a565b610f4b67eb41dfd3c5e03f5860c01b611228565b610f5f67128907be9e90f55e60c01b611228565b610f736772a0f4df879b3c4060c01b611228565b5f83805490509050610f8f676fef8ceb73075ece60c01b611228565b610fa36753ba1182a66b59d760c01b611228565b610fb767bc6fb1d0f240dcbb60c01b611228565b5f81148015610fd65750610fd56744b42589da19c72660c01b61122b565b5b806110225750836001820381548110610ff257610ff16116b3565b5b905f5260205f20906002020160010154831015801561102157506110206710cac2386fa7f52c60c01b61122b565b5b5b156110695761103b678579f0534c091def60c01b611228565b61104f6795d7954224b2c70d60c01b611228565b61106367e3ff8c9beeb4cc6860c01b611228565b50611222565b61107d670e4c444f5f988a7f60c01b611228565b61109167bc97dd324f85e2c260c01b611228565b6110a56712003c96126d6e1160c01b611228565b5f6110ba676e364ccba9fa69f860c01b611228565b6110ce67e357566540a6305560c01b611228565b5b818110156111cc576110eb67e081410f569367f060c01b611228565b6110ff6751aa3b5ff503b3c560c01b611228565b5f61110a8284611235565b905061112067ff8c5e1724d1871560c01b611228565b611134671aafd99781ee8d1a60c01b611228565b84868281548110611148576111476116b3565b5b905f5260205f20906002020160010154111561118e576111726731772e7aa35acc2e60c01b611228565b611186672a6e6c0891603ac560c01b611228565b8092506111c6565b6111a26798dcc5ba780cc23a60c01b611228565b6111b667c685e3e4efcc163d60c01b611228565b6001816111c3919061173e565b91505b506110cf565b6111e067f3d6d7091ac887d260c01b611228565b8481815481106111f3576111f26116b3565b5b905f5260205f2090600202016040518060400160405290815f8201548152602001600182015481525050925050505b92915050565b50565b5f60019050919050565b5f6002828418611245919061177f565b828416611252919061173e565b905092915050565b60405180604001604052805f81526020015f81525090565b7f4e487b71000000000000000000000000000000000000000000000000000000005f52604160045260245ffd5b5f60405190507fffffffffffffffffffffffffffffffffffffffffffffffffffffffffffffffe0601f830116810181811067ffffffffffffffff821117156112ea576112e9611272565b5b8060405250919050565b5f8060408385031215611305575f80fd5b8235915060208084013567ffffffffffffffff80821115611324575f80fd5b818601915086601f830112611337575f80fd5b81358181111561134a57611349611272565b5b8060051b915061135b84830161129f565b8082825285820191508584860101935089841115611377575f80fd5b85850194505b8385101561139857843582528582019150858501945061137d565b8096505050505050509250929050565b5f80602083850312156113b9575f80fd5b823567ffffffffffffffff808211156113d0575f80fd5b818501915085601f8301126113e3575f80fd5b8135818111156113f1575f80fd5b866020828501011115611402575f80fd5b6020830194508093505050509250929050565b5f60208201905063ffffffff8316825292915050565b5f602080838503121561143c575f80fd5b823567ffffffffffffffff80821115611453575f80fd5b818501915085601f830112611466575f80fd5b81358181111561147957611478611272565b5b6114a9847fffffffffffffffffffffffffffffffffffffffffffffffffffffffffffffffe0601f8401160161129f565b915080825286848285010111156114be575f80fd5b80848401858401375f8482840101525080935050505092915050565b82151581525f602060408184015283518060408501525f5b81811015611511578281870101516060828701015282810190506114f2565b505f6060828601015260607fffffffffffffffffffffffffffffffffffffffffffffffffffffffffffffffe0601f830116850101925050509392505050565b5f60208201905067ffffffffffffffff8316825292915050565b5f60208201905065ffffffffffff8316825292915050565b5f60208201905073ffffffffffffffffffffffffffffffffffffffff8316825292915050565b5f602082840312156115b8575f80fd5b8135905092915050565b5f6040820190508382528260208301529392505050565b5f602082840312156115e9575f80fd5b813563ffffffff811681146115fc575f80fd5b8091505092915050565b5f60208201905073ffffffffffffffffffffffffffffffffffffffff8316825292915050565b5f60408201905073ffffffffffffffffffffffffffffffffffffffff80851683528084166020840152509392505050565b5f60408201905083825273ffffffffffffffffffffffffffffffffffffffff831660208301529392505050565b5f6020828403121561169a575f80fd5b815180151581146116a9575f80fd5b8091505092915050565b7f4e487b71000000000000000000000000000000000000000000000000000000005f52603260045260245ffd5b5f60a08201905086825267ffffffffffffffff8616602083015261ffff8516604083015263ffffffff80851660608401528084166080840152509695505050505050565b5f60208284031215611734575f80fd5b8151905092915050565b5f828201905080821115611779577f4e487b71000000000000000000000000000000000000000000000000000000005f52601160045260245ffd5b92915050565b5f826117b2577f4e487b71000000000000000000000000000000000000000000000000000000005f52601260045260245ffd5b82820490509291505056fea264697066735822122063fb0987f33ca8b55f8428c1d01d5c78cbd2c9e1ccc9075e51fe7e860756f01164736f6c63430008150033",
  "linkReferences": {},
  "deployedLinkReferences": {}
}