{
  "_format": "hh-sol-artifact-1",
  "contractName": "EeseeMining",
  "sourceName": "contracts/rewards/EeseeMining.sol",
  "abi": [
    {
      "inputs": [
        {
          "internalType": "contract IERC20",
          "name": "_ESE",
          "type": "address"
        },
        {
          "internalType": "contract IEeseeAccessManager",
          "name": "_accessManager",
          "type": "address"
        },
        {
          "internalType": "address",
          "name": "trustedForwarder",
          "type": "address"
        }
      ],
      "stateMutability": "nonpayable",
      "type": "constructor"
    },
    {
      "inputs": [],
      "name": "AlreadyClaimed",
      "type": "error"
    },
    {
      "inputs": [],
      "name": "CallerNotAuthorized",
      "type": "error"
    },
    {
      "inputs": [],
      "name": "InvalidConstructor",
      "type": "error"
    },
    {
      "inputs": [],
      "name": "InvalidMerkleProof",
      "type": "error"
    },
    {
      "inputs": [],
      "name": "MerkleRootNotExists",
      "type": "error"
    },
    {
      "anonymous": false,
      "inputs": [
        {
          "indexed": true,
          "internalType": "uint128",
          "name": "rewardID",
          "type": "uint128"
        },
        {
          "indexed": false,
          "internalType": "bytes32",
          "name": "merkleRoot",
          "type": "bytes32"
        }
      ],
      "name": "RewardAdded",
      "type": "event"
    },
    {
      "anonymous": false,
      "inputs": [
        {
          "indexed": true,
          "internalType": "uint128",
          "name": "rewardID",
          "type": "uint128"
        },
        {
          "indexed": true,
          "internalType": "address",
          "name": "claimer",
          "type": "address"
        },
        {
          "indexed": false,
          "internalType": "uint128",
          "name": "amount",
          "type": "uint128"
        }
      ],
      "name": "RewardClaimed",
      "type": "event"
    },
    {
      "inputs": [],
      "name": "ESE",
      "outputs": [
        {
          "internalType": "contract IERC20",
          "name": "",
          "type": "address"
        }
      ],
      "stateMutability": "view",
      "type": "function"
    },
    {
      "inputs": [],
      "name": "MERKLE_ROOT_UPDATER_ROLE",
      "outputs": [
        {
          "internalType": "bytes32",
          "name": "",
          "type": "bytes32"
        }
      ],
      "stateMutability": "view",
      "type": "function"
    },
    {
      "inputs": [],
      "name": "accessManager",
      "outputs": [
        {
          "internalType": "contract IEeseeAccessManager",
          "name": "",
          "type": "address"
        }
      ],
      "stateMutability": "view",
      "type": "function"
    },
    {
      "inputs": [
        {
          "internalType": "bytes32",
          "name": "merkleRoot",
          "type": "bytes32"
        }
      ],
      "name": "addReward",
      "outputs": [],
      "stateMutability": "nonpayable",
      "type": "function"
    },
    {
      "inputs": [
        {
          "components": [
            {
              "internalType": "uint128",
              "name": "rewardID",
              "type": "uint128"
            },
            {
              "internalType": "uint128",
              "name": "balance",
              "type": "uint128"
            },
            {
              "internalType": "bytes32[]",
              "name": "merkleProof",
              "type": "bytes32[]"
            }
          ],
          "internalType": "struct EeseeMining.Claim[]",
          "name": "claims",
          "type": "tuple[]"
        },
        {
          "internalType": "address",
          "name": "claimer",
          "type": "address"
        }
      ],
      "name": "claimRewards",
      "outputs": [
        {
          "internalType": "uint256",
          "name": "rewards",
          "type": "uint256"
        }
      ],
      "stateMutability": "nonpayable",
      "type": "function"
    },
    {
      "inputs": [
        {
          "internalType": "address",
          "name": "claimer",
          "type": "address"
        },
        {
          "components": [
            {
              "internalType": "uint128",
              "name": "rewardID",
              "type": "uint128"
            },
            {
              "internalType": "uint128",
              "name": "balance",
              "type": "uint128"
            },
            {
              "internalType": "bytes32[]",
              "name": "merkleProof",
              "type": "bytes32[]"
            }
          ],
          "internalType": "struct EeseeMining.Claim[]",
          "name": "claims",
          "type": "tuple[]"
        }
      ],
      "name": "getRewards",
      "outputs": [
        {
          "internalType": "uint128",
          "name": "rewards",
          "type": "uint128"
        }
      ],
      "stateMutability": "view",
      "type": "function"
    },
    {
      "inputs": [],
      "name": "getTrustedForwarder",
      "outputs": [
        {
          "internalType": "address",
          "name": "forwarder",
          "type": "address"
        }
      ],
      "stateMutability": "view",
      "type": "function"
    },
    {
      "inputs": [
        {
          "internalType": "address",
          "name": "",
          "type": "address"
        },
        {
          "internalType": "uint128",
          "name": "",
          "type": "uint128"
        }
      ],
      "name": "isClaimed",
      "outputs": [
        {
          "internalType": "bool",
          "name": "",
          "type": "bool"
        }
      ],
      "stateMutability": "view",
      "type": "function"
    },
    {
      "inputs": [
        {
          "internalType": "address",
          "name": "forwarder",
          "type": "address"
        }
      ],
      "name": "isTrustedForwarder",
      "outputs": [
        {
          "internalType": "bool",
          "name": "",
          "type": "bool"
        }
      ],
      "stateMutability": "view",
      "type": "function"
    },
    {
      "inputs": [],
      "name": "rewardID",
      "outputs": [
        {
          "internalType": "uint128",
          "name": "",
          "type": "uint128"
        }
      ],
      "stateMutability": "view",
      "type": "function"
    },
    {
      "inputs": [
        {
          "internalType": "uint128",
          "name": "",
          "type": "uint128"
        }
      ],
      "name": "rewardRoot",
      "outputs": [
        {
          "internalType": "bytes32",
          "name": "",
          "type": "bytes32"
        }
      ],
      "stateMutability": "view",
      "type": "function"
    },
    {
      "inputs": [
        {
          "internalType": "address",
          "name": "claimer",
          "type": "address"
        },
        {
          "components": [
            {
              "internalType": "uint128",
              "name": "rewardID",
              "type": "uint128"
            },
            {
              "internalType": "uint128",
              "name": "balance",
              "type": "uint128"
            },
            {
              "internalType": "bytes32[]",
              "name": "merkleProof",
              "type": "bytes32[]"
            }
          ],
          "internalType": "struct EeseeMining.Claim",
          "name": "claim",
          "type": "tuple"
        }
      ],
      "name": "verifyClaim",
      "outputs": [
        {
          "internalType": "bool",
          "name": "",
          "type": "bool"
        }
      ],
      "stateMutability": "view",
      "type": "function"
    }
  ],
  "bytecode": "0x60c060405234801562000010575f80fd5b5060405162001ea038038062001ea0833981810160405281019062000036919062000302565b62000052672aaa7d1f953aa23f60c01b6200029c60201b60201c565b6200006e67ef67e68641d2df0060c01b6200029c60201b60201c565b6200008a676e25430bf3cd575c60c01b6200029c60201b60201c565b5f73ffffffffffffffffffffffffffffffffffffffff168373ffffffffffffffffffffffffffffffffffffffff16148015620000de5750620000dd67759d877698ed676360c01b6200029f60201b60201c565b5b806200013a57505f73ffffffffffffffffffffffffffffffffffffffff168273ffffffffffffffffffffffffffffffffffffffff1614801562000139575062000138677f548206cc30f7f660c01b6200029f60201b60201c565b5b5b156200018e576200015c6730b38db419af772d60c01b6200029c60201b60201c565b6040517f12c1701b00000000000000000000000000000000000000000000000000000000815260040160405180910390fd5b620001aa67434dd17666b8582260c01b6200029c60201b60201c565b620001c66750df48a2e622ee3a60c01b6200029c60201b60201c565b8273ffffffffffffffffffffffffffffffffffffffff1660808173ffffffffffffffffffffffffffffffffffffffff16815250506200021667f55b009c25fdf85c60c01b6200029c60201b60201c565b8173ffffffffffffffffffffffffffffffffffffffff1660a08173ffffffffffffffffffffffffffffffffffffffff16815250506200026667565158fa26a4565c60c01b6200029c60201b60201c565b620002826789a153d2fa9e863f60c01b6200029c60201b60201c565b6200029381620002a960201b60201c565b50505062000355565b50565b5f60019050919050565b805f806101000a81548173ffffffffffffffffffffffffffffffffffffffff021916908373ffffffffffffffffffffffffffffffffffffffff16021790555050565b60018060a01b0381168114620002ff575f80fd5b50565b5f805f6060848603121562000315575f80fd5b83516200032281620002eb565b8093505060208401516200033681620002eb565b8092505060408401516200034a81620002eb565b809150509250925092565b60805160a051611b1b620003855f395f81816105810152610feb01525f81816108820152610f380152611b1b5ff3fe608060405234801561000f575f80fd5b50600436106100d2575f3560e01c8063939d53bf1161007f578063bfdaadb511610059578063bfdaadb51461023c578063ce1b815f1461026c578063fdcb60681461028a576100d2565b8063939d53bf146101ac5780639dd9ce31146101dc578063b097426f1461020c576100d2565b80636c62ea83116100b05780636c62ea8314610152578063764bd0c5146101705780638ff0e93a1461018e576100d2565b806349fbc67c146100d65780634acd845114610106578063572b6c0514610122575b5f80fd5b6100f060048036038101906100eb9190611472565b6102a8565b6040516100fd91906114c5565b60405180910390f35b610120600480360381019061011b91906114e7565b610543565b005b61013c60048036038101906101379190611501565b610808565b6040516101499190611522565b60405180910390f35b61015a61085f565b60405161016791906114c5565b60405180910390f35b610178610880565b6040516101859190611534565b60405180910390f35b6101966108a4565b6040516101a3919061155a565b60405180910390f35b6101c660048036038101906101c1919061156a565b6108c8565b6040516101d39190611522565b60405180910390f35b6101f660048036038101906101f191906115be565b610a39565b6040516102039190611611565b60405180910390f35b61022660048036038101906102219190611648565b610f83565b604051610233919061155a565b60405180910390f35b61025660048036038101906102519190611669565b610f98565b6040516102639190611522565b60405180910390f35b610274610fc2565b604051610281919061169a565b60405180910390f35b610292610fe9565b60405161029f91906116c0565b60405180910390f35b5f6102bd67c6fc7279c94ddf5160c01b61100d565b6102d167b9db42ff25319ea660c01b61100d565b6102e56755dde3f39fd3e63760c01b61100d565b5f5b8383905081101561053b57610306679dcd8604836720ac60c01b61100d565b61031a671d3bb18c45fbd44960c01b61100d565b3684848381811061032e5761032d6116e6565b5b90506020028101906103409190611713565b905061035667aa90456bbe8eeeec60c01b61100d565b61036a67c3f6114fd13b844e60c01b61100d565b61037486826108c8565b6103be5761038c67879eece00d20437c60c01b61100d565b6040517fb05e92fa00000000000000000000000000000000000000000000000000000000815260040160405180910390fd5b6103d267c1955840171f56f260c01b61100d565b6103e6679a6abf2a27a0387b60c01b61100d565b6103fa678f656130c3746e4f60c01b61100d565b60035f8773ffffffffffffffffffffffffffffffffffffffff1673ffffffffffffffffffffffffffffffffffffffff1681526020019081526020015f205f825f01602081019061044a9190611648565b6fffffffffffffffffffffffffffffffff166fffffffffffffffffffffffffffffffff1681526020019081526020015f205f9054906101000a900460ff16156104d3576104a16787ec571aafa7406360c01b61100d565b6040517f646cf55800000000000000000000000000000000000000000000000000000000815260040160405180910390fd5b6104e7675f59d986b544cc7a60c01b61100d565b6104fb67cc5b7f4c70cd9d9f60c01b61100d565b80602001602081019061050e9190611648565b83610519919061177e565b925061052f67f3805dea3d2c267860c01b61100d565b816001019150506102e7565b509392505050565b610557674768eb1ff3bd61ed60c01b61100d565b61056b67ddd7bc9b3f47d46760c01b61100d565b61057f67261e31eb57ffb5e860c01b61100d565b7f000000000000000000000000000000000000000000000000000000000000000073ffffffffffffffffffffffffffffffffffffffff166391d148547f1e0e935a4b597d14b19412d1d1383dc2a6d2dce1de544677c1ef3f24ff294f056105e4611010565b6040518363ffffffff1660e01b81526004016106019291906117b1565b602060405180830381865afa15801561061c573d5f803e3d5ffd5b505050506040513d601f19601f8201168201806040525081019061064091906117de565b61068a5761065867365a1a96796c6e7860c01b61100d565b6040517fc183bcef00000000000000000000000000000000000000000000000000000000815260040160405180910390fd5b61069e67b20fa11352fb060e60c01b61100d565b6106b267d3d05e8aaa10f16360c01b61100d565b8060025f60015f9054906101000a90046fffffffffffffffffffffffffffffffff166fffffffffffffffffffffffffffffffff166fffffffffffffffffffffffffffffffff1681526020019081526020015f208190555061071d67a3bc75283d7c9e5560c01b61100d565b61073167b6ac2d0d6673318f60c01b61100d565b60015f9054906101000a90046fffffffffffffffffffffffffffffffff166fffffffffffffffffffffffffffffffff167f63c5a8616951093a8f5382a74e5a98ceaf022bc6bca5226642a9feb48f1d67b082604051610790919061155a565b60405180910390a26107ac6787e7dec9f970fbb360c01b61100d565b60015f81819054906101000a90046fffffffffffffffffffffffffffffffff1660010191906101000a8154816fffffffffffffffffffffffffffffffff02191690836fffffffffffffffffffffffffffffffff16021790555050565b5f805f9054906101000a900473ffffffffffffffffffffffffffffffffffffffff1673ffffffffffffffffffffffffffffffffffffffff168273ffffffffffffffffffffffffffffffffffffffff16149050919050565b60015f9054906101000a90046fffffffffffffffffffffffffffffffff1681565b7f000000000000000000000000000000000000000000000000000000000000000081565b7f1e0e935a4b597d14b19412d1d1383dc2a6d2dce1de544677c1ef3f24ff294f0581565b5f6108dd67f41e371c5e6680f760c01b61100d565b6108f1676d88bbbddd566b2e60c01b61100d565b61090567d51d7304c7c22c4760c01b61100d565b5f8383602001602081019061091a9190611648565b60405160200161092b929190611807565b604051602081830303815290604052805190602001206040516020016109519190611846565b60405160208183030381529060405280519060200120905061097d671acd78d4b9dd168f60c01b61100d565b61099167504e880521253b9660c01b61100d565b610a308380604001906109a49190611856565b808060200260200160405190810160405280939291908181526020018383602002808284375f81840152601f19601f8201169050808301925050505050505060025f865f0160208101906109f89190611648565b6fffffffffffffffffffffffffffffffff166fffffffffffffffffffffffffffffffff1681526020019081526020015f205483611045565b91505092915050565b5f610a4e67f3c0d59cb5580da060c01b61100d565b610a6267c6fea51eef651db960c01b61100d565b610a7667d9892078ace8ab0960c01b61100d565b5f5b84849050811015610f0857610a9767a7bb5c4681c0c01360c01b61100d565b610aab6785123d29709bb35e60c01b61100d565b36858583818110610abf57610abe6116e6565b5b9050602002810190610ad19190611713565b9050610ae7675f8ead9c43f0d74360c01b61100d565b610afb677a4788bd2068b16660c01b61100d565b5f801b60025f835f016020810190610b139190611648565b6fffffffffffffffffffffffffffffffff166fffffffffffffffffffffffffffffffff1681526020019081526020015f205403610b9057610b5e67e58213a048405dca60c01b61100d565b6040517f4069a05700000000000000000000000000000000000000000000000000000000815260040160405180910390fd5b610ba4673306e080972191ab60c01b61100d565b610bb8674cc9881c98b5798b60c01b61100d565b610bcc67fab0edd2940252ce60c01b61100d565b60035f8573ffffffffffffffffffffffffffffffffffffffff1673ffffffffffffffffffffffffffffffffffffffff1681526020019081526020015f205f825f016020810190610c1c9190611648565b6fffffffffffffffffffffffffffffffff166fffffffffffffffffffffffffffffffff1681526020019081526020015f205f9054906101000a900460ff1615610ca557610c73671dac390b601f053660c01b61100d565b6040517f646cf55800000000000000000000000000000000000000000000000000000000815260040160405180910390fd5b610cb967707c7f36e18a32f660c01b61100d565b610ccd67b33b388972b8ff7860c01b61100d565b610ce167346e7c255a14423c60c01b61100d565b610ceb84826108c8565b610d3557610d03676c5864e0e5512c6660c01b61100d565b6040517fb05e92fa00000000000000000000000000000000000000000000000000000000815260040160405180910390fd5b610d4967fb8f580f0eed219f60c01b61100d565b610d5d67d5ada6b5f4f6134c60c01b61100d565b600160035f8673ffffffffffffffffffffffffffffffffffffffff1673ffffffffffffffffffffffffffffffffffffffff1681526020019081526020015f205f835f016020810190610daf9190611648565b6fffffffffffffffffffffffffffffffff166fffffffffffffffffffffffffffffffff1681526020019081526020015f205f6101000a81548160ff021916908315150217905550610e0a673a6707f16d62723b60c01b61100d565b806020016020810190610e1d9190611648565b6fffffffffffffffffffffffffffffffff1683610e3a91906118c5565b9250610e5067af829f44010c124a60c01b61100d565b610e6467aa1a6d989af4599460c01b61100d565b8373ffffffffffffffffffffffffffffffffffffffff16815f016020810190610e8d9190611648565b6fffffffffffffffffffffffffffffffff167fbd895d08d1ae3446aa550905360c2bbcecfa6245faf7ada0ed14afd86156ffd9836020016020810190610ed39190611648565b604051610ee091906114c5565b60405180910390a3610efc675b76c03e95a2d2ad60c01b61100d565b81600101915050610a78565b50610f1d6767249515b67d67f860c01b61100d565b610f3167e2285491e66c3aac60c01b61100d565b610f7c82827f000000000000000000000000000000000000000000000000000000000000000073ffffffffffffffffffffffffffffffffffffffff1661105b9092919063ffffffff16565b9392505050565b6002602052805f5260405f205f915090505481565b6003602052815f5260405f20602052805f5260405f205f915091509054906101000a900460ff1681565b5f805f9054906101000a900473ffffffffffffffffffffffffffffffffffffffff16905090565b7f000000000000000000000000000000000000000000000000000000000000000081565b50565b5f60145f3690501015801561102a575061102933610808565b5b1561103e57601436033560601c9050611042565b3390505b90565b5f8261105185846110e1565b1490509392505050565b6110dc8363a9059cbb60e01b848460405160240161107a9291906118e2565b604051602081830303815290604052907bffffffffffffffffffffffffffffffffffffffffffffffffffffffff19166020820180517bffffffffffffffffffffffffffffffffffffffffffffffffffffffff8381831617835250505050611135565b505050565b5f808290505f5b845181101561112a5761111582868381518110611108576111076116e6565b5b60200260200101516111fb565b915080806111229061190f565b9150506110e8565b508091505092915050565b5f611196826040518060400160405280602081526020017f5361666545524332303a206c6f772d6c6576656c2063616c6c206661696c65648152508573ffffffffffffffffffffffffffffffffffffffff166112259092919063ffffffff16565b90505f815114806111b75750808060200190518101906111b691906117de565b5b6111f6576040517f08c379a00000000000000000000000000000000000000000000000000000000081526004016111ed9061194b565b60405180910390fd5b505050565b5f8183106112125761120d828461123c565b61121d565b61121c838361123c565b5b905092915050565b606061123384845f85611250565b90509392505050565b5f825f528160205260405f20905092915050565b606082471015611295576040517f08c379a000000000000000000000000000000000000000000000000000000000815260040161128c906119ae565b60405180910390fd5b5f808673ffffffffffffffffffffffffffffffffffffffff1685876040516112bd9190611a39565b5f6040518083038185875af1925050503d805f81146112f7576040519150601f19603f3d011682016040523d82523d5f602084013e6112fc565b606091505b509150915061130d87838387611319565b92505050949350505050565b6060831561137a575f835103611372576113328561138d565b611371576040517f08c379a000000000000000000000000000000000000000000000000000000000815260040161136890611a56565b60405180910390fd5b5b829050611385565b61138483836113af565b5b949350505050565b5f808273ffffffffffffffffffffffffffffffffffffffff163b119050919050565b5f825111156113c15781518083602001fd5b806040517f08c379a00000000000000000000000000000000000000000000000000000000081526004016113f59190611a93565b60405180910390fd5b5f8135905073ffffffffffffffffffffffffffffffffffffffff81168114611424575f80fd5b919050565b5f8083601f840112611439575f80fd5b8235905067ffffffffffffffff811115611451575f80fd5b6020830191508360208260051b850101111561146b575f80fd5b9250929050565b5f805f60408486031215611484575f80fd5b61148d846113fe565b9250602084013567ffffffffffffffff8111156114a8575f80fd5b6114b486828701611429565b915080935050809150509250925092565b5f6020820190506fffffffffffffffffffffffffffffffff8316825292915050565b5f602082840312156114f7575f80fd5b8135905092915050565b5f60208284031215611511575f80fd5b61151a826113fe565b905092915050565b5f602082019050821515825292915050565b5f60208201905073ffffffffffffffffffffffffffffffffffffffff8316825292915050565b5f60208201905082825292915050565b5f806040838503121561157b575f80fd5b611584836113fe565b9150602083013567ffffffffffffffff81111561159f575f80fd5b8084019050606081860312156115b3575f80fd5b809150509250929050565b5f805f604084860312156115d0575f80fd5b833567ffffffffffffffff8111156115e6575f80fd5b6115f286828701611429565b91508094505080925050611608602085016113fe565b90509250925092565b5f60208201905082825292915050565b5f813590506fffffffffffffffffffffffffffffffff81168114611643575f80fd5b919050565b5f60208284031215611658575f80fd5b61166182611621565b905092915050565b5f806040838503121561167a575f80fd5b611683836113fe565b915061169160208401611621565b90509250929050565b5f60208201905073ffffffffffffffffffffffffffffffffffffffff8316825292915050565b5f60208201905073ffffffffffffffffffffffffffffffffffffffff8316825292915050565b7f4e487b71000000000000000000000000000000000000000000000000000000005f52603260045260245ffd5b5f82357fffffffffffffffffffffffffffffffffffffffffffffffffffffffffffffffa1833603018112611745575f80fd5b80830191505092915050565b7f4e487b71000000000000000000000000000000000000000000000000000000005f52601160045260245ffd5b5f6fffffffffffffffffffffffffffffffff808416818416019150808211156117aa576117a9611751565b5b5092915050565b5f60408201905083825273ffffffffffffffffffffffffffffffffffffffff831660208301529392505050565b5f602082840312156117ee575f80fd5b815180151581146117fd575f80fd5b8091505092915050565b5f60408201905073ffffffffffffffffffffffffffffffffffffffff841682526fffffffffffffffffffffffffffffffff831660208301529392505050565b8181525f60208201905092915050565b5f8083357fffffffffffffffffffffffffffffffffffffffffffffffffffffffffffffffe1843603018112611889575f80fd5b80840190508035915067ffffffffffffffff8211156118a6575f80fd5b602081019250508060051b36038213156118be575f80fd5b9250929050565b5f8282019050808211156118dc576118db611751565b5b92915050565b5f60408201905073ffffffffffffffffffffffffffffffffffffffff841682528260208301529392505050565b5f7fffffffffffffffffffffffffffffffffffffffffffffffffffffffffffffffff82036119405761193f611751565b5b600182019050919050565b60208152602a60208201527f5361666545524332303a204552433230206f7065726174696f6e20646964206e60408201527f6f7420737563636565640000000000000000000000000000000000000000000060608201525f608082019050919050565b60208152602660208201527f416464726573733a20696e73756666696369656e742062616c616e636520666f60408201527f722063616c6c000000000000000000000000000000000000000000000000000060608201525f608082019050919050565b5f5b83811015611a2e578082015181840152602081019050611a13565b505f83830152505050565b5f8251611a4a818460208701611a11565b80830191505092915050565b60208152601d60208201527f416464726573733a2063616c6c20746f206e6f6e2d636f6e747261637400000060408201525f606082019050919050565b602081525f8251806020840152611ab1816040850160208701611a11565b60407fffffffffffffffffffffffffffffffffffffffffffffffffffffffffffffffe0601f8301168401019150509291505056fea26469706673582212203621f88eb1cbd5fa4f4a896e33cea80aa928b392cb28b52ca83cd7e0acb34a9e64736f6c63430008150033",
  "linkReferences": {},
  "deployedLinkReferences": {}
}