{
  "_format": "hh-sol-artifact-1",
  "contractName": "EeseeProxy",
  "sourceName": "contracts/periphery/EeseeProxy.sol",
  "abi": [
    {
      "inputs": [
        {
          "internalType": "address",
          "name": "to",
          "type": "address"
        },
        {
          "internalType": "bytes",
          "name": "data",
          "type": "bytes"
        }
      ],
      "name": "callExternal",
      "outputs": [
        {
          "internalType": "bytes",
          "name": "",
          "type": "bytes"
        }
      ],
      "stateMutability": "payable",
      "type": "function"
    }
  ],
  "bytecode": "0x608060405234801561000f575f80fd5b506103658061001d5f395ff3fe60806040526004361061001d575f3560e01c806364629f2c14610021575b5f80fd5b61003b60048036038101906100369190610215565b610051565b60405161004891906102ad565b60405180910390f35b606061006767c62b401e18da36f760c01b610212565b61007b6731fe4a37292751b860c01b610212565b61008f67c34d66ef58a231c760c01b610212565b5f808573ffffffffffffffffffffffffffffffffffffffff163486866040516100b9929190610319565b5f6040518083038185875af1925050503d805f81146100f3576040519150601f19603f3d011682016040523d82523d5f602084013e6100f8565b606091505b5091509150610111678ede66ebc308fe6b60c01b610212565b610125674325ca4e4d7e9d0e60c01b610212565b816101ca5761013e67e6a28d5ada836f6260c01b610212565b61015267b8615919d00f07a960c01b610212565b610166673f204afa20deaa4560c01b610212565b5f81510361019a5761018267d01f01db957e615b60c01b610212565b6101966706030e5059b786cd60c01b610212565b5f80fd5b6101ae67cc2708ee0f24c29e60c01b610212565b6101c267c955f3184df9fb0b60c01b610212565b805181602001fd5b6101de679f5ec6f72eba783360c01b610212565b6101f267b0868719c094fdfd60c01b610212565b61020667e7f444c966ac75f660c01b610212565b80925050509392505050565b50565b5f805f60408486031215610227575f80fd5b833573ffffffffffffffffffffffffffffffffffffffff8116811461024a575f80fd5b80935050602084013567ffffffffffffffff80821115610268575f80fd5b818601915086601f83011261027b575f80fd5b813581811115610289575f80fd5b87602082850101111561029a575f80fd5b6020830194508093505050509250925092565b5f6020808352835180828501525f5b818110156102db578281870101516040828701015282810190506102bc565b505f6040828601015260407fffffffffffffffffffffffffffffffffffffffffffffffffffffffffffffffe0601f8301168501019250505092915050565b818382375f8282015f815280915050939250505056fea2646970667358221220100a6280c50303a8d5bc5a7ef45d9f2524a32eee50b000d425dd5ecf7a14cda364736f6c63430008150033",
  "linkReferences": {},
  "deployedLinkReferences": {}
}