{
  "_format": "hh-sol-artifact-1",
  "contractName": "MockAggregator",
  "sourceName": "contracts/test/MockAggregator.sol",
  "abi": [
    {
      "inputs": [],
      "name": "latestRoundData",
      "outputs": [
        {
          "internalType": "uint80",
          "name": "roundId",
          "type": "uint80"
        },
        {
          "internalType": "int256",
          "name": "answer",
          "type": "int256"
        },
        {
          "internalType": "uint256",
          "name": "startedAt",
          "type": "uint256"
        },
        {
          "internalType": "uint256",
          "name": "updatedAt",
          "type": "uint256"
        },
        {
          "internalType": "uint80",
          "name": "answeredInRound",
          "type": "uint80"
        }
      ],
      "stateMutability": "pure",
      "type": "function"
    }
  ],
  "bytecode": "0x6080604052348015600e575f80fd5b5060dd8061001b5f395ff3fe6080604052348015600e575f80fd5b50600436106026575f3560e01c8063feaf968c14602a575b5f80fd5b60306048565b604051603f959493929190606b565b60405180910390f35b5f805f805f80670de0b6b3a76400005f805f945094509450945094509091929394565b5f60a08201905069ffffffffffffffffffff8088168352866020840152856040840152846060840152808416608084015250969550505050505056fea2646970667358221220670cd087cbc4950513e07ed6508dbfc5f310ea434fd4fd1737a41b143800a78b64736f6c63430008150033",
  "linkReferences": {},
  "deployedLinkReferences": {}
}