{
  "_format": "hh-sol-artifact-1",
  "contractName": "Mock1InchExecutorETH",
  "sourceName": "contracts/test/Mock1InchExecutorETH.sol",
  "abi": [
    {
      "inputs": [
        {
          "internalType": "address",
          "name": "msgSender",
          "type": "address"
        },
        {
          "internalType": "bytes",
          "name": "data",
          "type": "bytes"
        },
        {
          "internalType": "uint256",
          "name": "amount",
          "type": "uint256"
        }
      ],
      "name": "execute",
      "outputs": [],
      "stateMutability": "payable",
      "type": "function"
    },
    {
      "stateMutability": "payable",
      "type": "receive"
    }
  ],
  "bytecode": "0x608060405234801561000f575f80fd5b506103df8061001d5f395ff3fe608060405260043610610021575f3560e01c8063a04a09081461002c57610028565b3661002857005b5f80fd5b61004660048036038101906100419190610203565b610048565b005b5f8280602001905181019061005d9190610304565b90505f811115610116575f3373ffffffffffffffffffffffffffffffffffffffff168260405161008c9061031e565b5f6040518083038185875af1925050503d805f81146100c6576040519150601f19603f3d011682016040523d82523d5f602084013e6100cb565b606091505b505090508061010f576040517f08c379a000000000000000000000000000000000000000000000000000000000815260040161010690610327565b60405180910390fd5b50506101d1565b5f3373ffffffffffffffffffffffffffffffffffffffff166402540be4008461013f9190610364565b60405161014b9061031e565b5f6040518083038185875af1925050503d805f8114610185576040519150601f19603f3d011682016040523d82523d5f602084013e61018a565b606091505b50509050806101ce576040517f08c379a00000000000000000000000000000000000000000000000000000000081526004016101c590610327565b60405180910390fd5b50505b505050565b7f4e487b71000000000000000000000000000000000000000000000000000000005f52604160045260245ffd5b5f805f60608486031215610215575f80fd5b833573ffffffffffffffffffffffffffffffffffffffff81168114610238575f80fd5b80935050602084013567ffffffffffffffff80821115610256575f80fd5b818601915086601f830112610269575f80fd5b81358181111561027c5761027b6101d6565b5b7fffffffffffffffffffffffffffffffffffffffffffffffffffffffffffffffe060405181603f83601f86011601168101915080821084831117156102c4576102c36101d6565b5b816040528281528960208487010111156102dc575f80fd5b826020860160208301375f602084830101528096505050505050604084013590509250925092565b5f60208284031215610314575f80fd5b8151905092915050565b5f819050919050565b60208152601460208201527f4661696c656420746f2073656e6420457468657200000000000000000000000060408201525f606082019050919050565b5f828202905081810483148215176103a3577f4e487b71000000000000000000000000000000000000000000000000000000005f52601160045260245ffd5b9291505056fea26469706673582212208aa7d5953b041e7bfb4cd0cff6909c41c7d3f31e494a73f19abffc3ab86cc73d64736f6c63430008150033",
  "linkReferences": {},
  "deployedLinkReferences": {}
}