{
  "_format": "hh-sol-artifact-1",
  "contractName": "ESE",
  "sourceName": "contracts/token/ESE.sol",
  "abi": [
    {
      "inputs": [
        {
          "components": [
            {
              "internalType": "uint32",
              "name": "cliff",
              "type": "uint32"
            },
            {
              "internalType": "uint32",
              "name": "duration",
              "type": "uint32"
            },
            {
              "internalType": "uint16",
              "name": "TGEMintShare",
              "type": "uint16"
            }
          ],
          "internalType": "struct ESE.ConstructorVestingParams[]",
          "name": "_vestingStages",
          "type": "tuple[]"
        }
      ],
      "stateMutability": "nonpayable",
      "type": "constructor"
    },
    {
      "inputs": [],
      "name": "InvalidShortString",
      "type": "error"
    },
    {
      "inputs": [
        {
          "internalType": "string",
          "name": "str",
          "type": "string"
        }
      ],
      "name": "StringTooLong",
      "type": "error"
    },
    {
      "anonymous": false,
      "inputs": [
        {
          "indexed": true,
          "internalType": "address",
          "name": "owner",
          "type": "address"
        },
        {
          "indexed": true,
          "internalType": "address",
          "name": "spender",
          "type": "address"
        },
        {
          "indexed": false,
          "internalType": "uint256",
          "name": "value",
          "type": "uint256"
        }
      ],
      "name": "Approval",
      "type": "event"
    },
    {
      "anonymous": false,
      "inputs": [],
      "name": "EIP712DomainChanged",
      "type": "event"
    },
    {
      "anonymous": false,
      "inputs": [
        {
          "indexed": false,
          "internalType": "uint256",
          "name": "TGE",
          "type": "uint256"
        }
      ],
      "name": "Initialize",
      "type": "event"
    },
    {
      "anonymous": false,
      "inputs": [
        {
          "indexed": true,
          "internalType": "address",
          "name": "from",
          "type": "address"
        },
        {
          "indexed": true,
          "internalType": "address",
          "name": "to",
          "type": "address"
        },
        {
          "indexed": false,
          "internalType": "uint256",
          "name": "value",
          "type": "uint256"
        }
      ],
      "name": "Transfer",
      "type": "event"
    },
    {
      "inputs": [],
      "name": "DOMAIN_SEPARATOR",
      "outputs": [
        {
          "internalType": "bytes32",
          "name": "",
          "type": "bytes32"
        }
      ],
      "stateMutability": "view",
      "type": "function"
    },
    {
      "inputs": [],
      "name": "TGE",
      "outputs": [
        {
          "internalType": "uint256",
          "name": "",
          "type": "uint256"
        }
      ],
      "stateMutability": "view",
      "type": "function"
    },
    {
      "inputs": [
        {
          "internalType": "uint256",
          "name": "stage",
          "type": "uint256"
        },
        {
          "components": [
            {
              "internalType": "uint256",
              "name": "amount",
              "type": "uint256"
            },
            {
              "internalType": "address",
              "name": "addr",
              "type": "address"
            }
          ],
          "internalType": "struct ESE.Beneficiary[]",
          "name": "beneficiaries",
          "type": "tuple[]"
        }
      ],
      "name": "addVestingBeneficiaries",
      "outputs": [],
      "stateMutability": "nonpayable",
      "type": "function"
    },
    {
      "inputs": [
        {
          "internalType": "address",
          "name": "owner",
          "type": "address"
        },
        {
          "internalType": "address",
          "name": "spender",
          "type": "address"
        }
      ],
      "name": "allowance",
      "outputs": [
        {
          "internalType": "uint256",
          "name": "",
          "type": "uint256"
        }
      ],
      "stateMutability": "view",
      "type": "function"
    },
    {
      "inputs": [
        {
          "internalType": "address",
          "name": "spender",
          "type": "address"
        },
        {
          "internalType": "uint256",
          "name": "amount",
          "type": "uint256"
        }
      ],
      "name": "approve",
      "outputs": [
        {
          "internalType": "bool",
          "name": "",
          "type": "bool"
        }
      ],
      "stateMutability": "nonpayable",
      "type": "function"
    },
    {
      "inputs": [
        {
          "internalType": "address",
          "name": "account",
          "type": "address"
        }
      ],
      "name": "balanceOf",
      "outputs": [
        {
          "internalType": "uint256",
          "name": "",
          "type": "uint256"
        }
      ],
      "stateMutability": "view",
      "type": "function"
    },
    {
      "inputs": [
        {
          "internalType": "uint256",
          "name": "amount",
          "type": "uint256"
        }
      ],
      "name": "burn",
      "outputs": [],
      "stateMutability": "nonpayable",
      "type": "function"
    },
    {
      "inputs": [
        {
          "internalType": "address",
          "name": "account",
          "type": "address"
        },
        {
          "internalType": "uint256",
          "name": "amount",
          "type": "uint256"
        }
      ],
      "name": "burnFrom",
      "outputs": [],
      "stateMutability": "nonpayable",
      "type": "function"
    },
    {
      "inputs": [],
      "name": "decimals",
      "outputs": [
        {
          "internalType": "uint8",
          "name": "",
          "type": "uint8"
        }
      ],
      "stateMutability": "view",
      "type": "function"
    },
    {
      "inputs": [
        {
          "internalType": "address",
          "name": "spender",
          "type": "address"
        },
        {
          "internalType": "uint256",
          "name": "subtractedValue",
          "type": "uint256"
        }
      ],
      "name": "decreaseAllowance",
      "outputs": [
        {
          "internalType": "bool",
          "name": "",
          "type": "bool"
        }
      ],
      "stateMutability": "nonpayable",
      "type": "function"
    },
    {
      "inputs": [],
      "name": "eip712Domain",
      "outputs": [
        {
          "internalType": "bytes1",
          "name": "fields",
          "type": "bytes1"
        },
        {
          "internalType": "string",
          "name": "name",
          "type": "string"
        },
        {
          "internalType": "string",
          "name": "version",
          "type": "string"
        },
        {
          "internalType": "uint256",
          "name": "chainId",
          "type": "uint256"
        },
        {
          "internalType": "address",
          "name": "verifyingContract",
          "type": "address"
        },
        {
          "internalType": "bytes32",
          "name": "salt",
          "type": "bytes32"
        },
        {
          "internalType": "uint256[]",
          "name": "extensions",
          "type": "uint256[]"
        }
      ],
      "stateMutability": "view",
      "type": "function"
    },
    {
      "inputs": [
        {
          "internalType": "address",
          "name": "spender",
          "type": "address"
        },
        {
          "internalType": "uint256",
          "name": "addedValue",
          "type": "uint256"
        }
      ],
      "name": "increaseAllowance",
      "outputs": [
        {
          "internalType": "bool",
          "name": "",
          "type": "bool"
        }
      ],
      "stateMutability": "nonpayable",
      "type": "function"
    },
    {
      "inputs": [],
      "name": "initialize",
      "outputs": [],
      "stateMutability": "nonpayable",
      "type": "function"
    },
    {
      "inputs": [],
      "name": "name",
      "outputs": [
        {
          "internalType": "string",
          "name": "",
          "type": "string"
        }
      ],
      "stateMutability": "view",
      "type": "function"
    },
    {
      "inputs": [
        {
          "internalType": "address",
          "name": "owner",
          "type": "address"
        }
      ],
      "name": "nonces",
      "outputs": [
        {
          "internalType": "uint256",
          "name": "",
          "type": "uint256"
        }
      ],
      "stateMutability": "view",
      "type": "function"
    },
    {
      "inputs": [
        {
          "internalType": "address",
          "name": "owner",
          "type": "address"
        },
        {
          "internalType": "address",
          "name": "spender",
          "type": "address"
        },
        {
          "internalType": "uint256",
          "name": "value",
          "type": "uint256"
        },
        {
          "internalType": "uint256",
          "name": "deadline",
          "type": "uint256"
        },
        {
          "internalType": "uint8",
          "name": "v",
          "type": "uint8"
        },
        {
          "internalType": "bytes32",
          "name": "r",
          "type": "bytes32"
        },
        {
          "internalType": "bytes32",
          "name": "s",
          "type": "bytes32"
        }
      ],
      "name": "permit",
      "outputs": [],
      "stateMutability": "nonpayable",
      "type": "function"
    },
    {
      "inputs": [],
      "name": "symbol",
      "outputs": [
        {
          "internalType": "string",
          "name": "",
          "type": "string"
        }
      ],
      "stateMutability": "view",
      "type": "function"
    },
    {
      "inputs": [],
      "name": "totalSupply",
      "outputs": [
        {
          "internalType": "uint256",
          "name": "",
          "type": "uint256"
        }
      ],
      "stateMutability": "view",
      "type": "function"
    },
    {
      "inputs": [
        {
          "internalType": "uint256",
          "name": "stage",
          "type": "uint256"
        }
      ],
      "name": "totalVestedAmount",
      "outputs": [
        {
          "internalType": "uint256",
          "name": "",
          "type": "uint256"
        }
      ],
      "stateMutability": "view",
      "type": "function"
    },
    {
      "inputs": [
        {
          "internalType": "address",
          "name": "to",
          "type": "address"
        },
        {
          "internalType": "uint256",
          "name": "amount",
          "type": "uint256"
        }
      ],
      "name": "transfer",
      "outputs": [
        {
          "internalType": "bool",
          "name": "",
          "type": "bool"
        }
      ],
      "stateMutability": "nonpayable",
      "type": "function"
    },
    {
      "inputs": [
        {
          "internalType": "address",
          "name": "from",
          "type": "address"
        },
        {
          "internalType": "address",
          "name": "to",
          "type": "address"
        },
        {
          "internalType": "uint256",
          "name": "amount",
          "type": "uint256"
        }
      ],
      "name": "transferFrom",
      "outputs": [
        {
          "internalType": "bool",
          "name": "",
          "type": "bool"
        }
      ],
      "stateMutability": "nonpayable",
      "type": "function"
    },
    {
      "inputs": [
        {
          "internalType": "uint256",
          "name": "stage",
          "type": "uint256"
        },
        {
          "internalType": "address",
          "name": "account",
          "type": "address"
        }
      ],
      "name": "vestedAmount",
      "outputs": [
        {
          "internalType": "uint256",
          "name": "",
          "type": "uint256"
        }
      ],
      "stateMutability": "view",
      "type": "function"
    },
    {
      "inputs": [
        {
          "internalType": "uint256",
          "name": "",
          "type": "uint256"
        }
      ],
      "name": "vestingStages",
      "outputs": [
        {
          "internalType": "uint256",
          "name": "amount",
          "type": "uint256"
        },
        {
          "internalType": "uint128",
          "name": "cliff",
          "type": "uint128"
        },
        {
          "internalType": "uint128",
          "name": "duration",
          "type": "uint128"
        }
      ],
      "stateMutability": "view",
      "type": "function"
    },
    {
      "inputs": [],
      "name": "vestingStagesLength",
      "outputs": [
        {
          "internalType": "uint256",
          "name": "",
          "type": "uint256"
        }
      ],
      "stateMutability": "view",
      "type": "function"
    }
  ],
  "bytecode": "0x61016060405234801562000011575f80fd5b5060405162004a7038038062004a7083398181016040528101906200003791906200083e565b6040518060400160405280600581526020017f6565736565000000000000000000000000000000000000000000000000000000815250806040518060400160405280600181526020017f31000000000000000000000000000000000000000000000000000000000000008152506040518060400160405280600581526020017f65657365650000000000000000000000000000000000000000000000000000008152506040518060400160405280600481526020017f2445534500000000000000000000000000000000000000000000000000000000815250816003908162000121919062000a04565b50806004908162000133919062000a04565b5050506200014c6005836200067f60201b90919060201c565b61012081815250506200016a6006826200067f60201b90919060201c565b6101408181525050818051906020012060e08181525050808051906020012061010081815250504660a08181525050620001a9620006d460201b60201c565b608081815250503073ffffffffffffffffffffffffffffffffffffffff1660c08173ffffffffffffffffffffffffffffffffffffffff16815250505050506200020367f8aae81a1ca981a760c01b6200073060201b60201c565b6200021f676a2eee6913a6c9fe60c01b6200073060201b60201c565b6200023b67bc12dab1eafdc47760c01b6200073060201b60201c565b620002576716040c37e2f0f6c660c01b6200073060201b60201c565b600a815111156200029f576040517f08c379a0000000000000000000000000000000000000000000000000000000008152600401620002969062000ad9565b60405180910390fd5b620002bb67a8c334768bcab23360c01b6200073060201b60201c565b620002d767aa7d1cb3c65db60560c01b6200073060201b60201c565b620002f3677340290fdd1a0b2260c01b6200073060201b60201c565b5f6127109050620003156724f01f6031e12fab60c01b6200073060201b60201c565b62000331673e9d2d7ce712f2f160c01b6200073060201b60201c565b5f5b8251811015620005f6576200035967f2a7c0534311213860c01b6200073060201b60201c565b6200037567819037fbefb5592f60c01b6200073060201b60201c565b5f60095f8381526020019081526020015f209050620003a567d7e53fa1f716960360c01b6200073060201b60201c565b838281518110620003bb57620003ba62000b16565b5b60200260200101515f015163ffffffff16816001015f6101000a8154816fffffffffffffffffffffffffffffffff02191690836fffffffffffffffffffffffffffffffff1602179055506200042167237a6926b4b6dbf560c01b6200073060201b60201c565b83828151811062000437576200043662000b16565b5b60200260200101516020015163ffffffff168160010160106101000a8154816fffffffffffffffffffffffffffffffff02191690836fffffffffffffffffffffffffffffffff1602179055506200049f6771e590cd79ca0ea060c01b6200073060201b60201c565b620004bb677d80ec3f4c146d3860c01b6200073060201b60201c565b5f848381518110620004d257620004d162000b16565b5b60200260200101516040015161ffff16905062000500676cb4d8486768af1f60c01b6200073060201b60201c565b6200051c67885acb5b487fcaff60c01b6200073060201b60201c565b6200053867c621a4b78ce47e6260c01b6200073060201b60201c565b838111156200057e576040517f08c379a0000000000000000000000000000000000000000000000000000000008152600401620005759062000b2a565b60405180910390fd5b6200059a676905c88f067612e660c01b6200073060201b60201c565b620005b667210f6a903adc8e2a60c01b6200073060201b60201c565b80600d5f8581526020019081526020015f2081905550620005e867f72b244bb1e4ce1f60c01b6200073060201b60201c565b826001019250505062000333565b506200061367574a70e8582ad5ae60c01b6200073060201b60201c565b3360115f6101000a81548173ffffffffffffffffffffffffffffffffffffffff021916908373ffffffffffffffffffffffffffffffffffffffff1602179055506200066f679966e1e49ecbb01c60c01b6200073060201b60201c565b8151600a81905550505062000c14565b5f602083511015620006a4576200069c836200073360201b60201c565b9050620006ce565b82620006b6836200079d60201b60201c565b5f019081620006c6919062000a04565b5060ff5f1b90505b92915050565b5f7f8b73c3c69bb8fe3d512ecc4cf759cc79239f7b179b0ffacaa9a75d522b39400f60e0516101005146306040516020016200071595949392919062000b67565b60405160208183030381529060405280519060200120905090565b50565b5f80829050601f815111156200078257826040517f305a27a900000000000000000000000000000000000000000000000000000000815260040162000779919062000b9b565b60405180910390fd5b805181620007909062000beb565b5f1c175f1b915050919050565b5f819050919050565b634e487b7160e01b5f52604160045260245ffd5b5f60405190506060810181811060018060401b0382111715620007e257620007e1620007a6565b5b806040525090565b5f6040519050601f19601f830116810181811060018060401b0382111715620008185762000817620007a6565b5b8060405250919050565b5f8151905063ffffffff8116811462000839575f80fd5b919050565b5f602080838503121562000850575f80fd5b825160018060401b038082111562000866575f80fd5b818501915085601f8301126200087a575f80fd5b81518181111562000890576200088f620007a6565b5b620008a0848260051b01620007ea565b9150818183528483019250606085818402860101925088831115620008c3575f80fd5b85850194505b828510156200093c5780858a031215620008e2575f8081fd5b620008ec620007ba565b620008f78662000822565b81526200090687870162000822565b8782015260408087015161ffff8116811462000921575f8081fd5b808284015250508085525085840193508085019450620008c9565b50809550505050505092915050565b5f8160011c905060018216806200096357607f821691505b6020821081036200098257634e487b7160e01b5f52602260045260245ffd5b50919050565b805f52505f60205f20905090565b601f821115620009e7575f81815260208120601f850160051c81016020861015620009bf578190505b601f850160051c820191505b81811015620009e357828155600181019050620009cb565b5050505b505050565b5f8260011b5f198460031b1c19831617905092915050565b815160018060401b0381111562000a205762000a1f620007a6565b5b62000a388162000a3184546200094b565b8462000996565b5f6020809150601f83116001811462000a6f575f841562000a5a578387015190505b62000a668582620009ec565b86555062000ad1565b601f19841662000a7f8662000988565b5f5b8281101562000aa6578589015182556001820191508486019550848101905062000a81565b508582101562000ac557848801515f1960f88860031b161c1981168255505b505060018460011b0185555b505050505050565b60208152601b60208201527f4553453a20496e76616c69642076657374696e6720737461676573000000000060408201525f606082019050919050565b634e487b7160e01b5f52603260045260245ffd5b60208152601960208201527f4553453a20496e76616c6964205447454d696e7453686172650000000000000060408201525f606082019050919050565b5f60a08201905086825285602083015284604083015283606083015260018060a01b03831660808301529695505050505050565b5f6020808352835180828501525f5b8181101562000bcb5782818701015160408287010152828101905062000baa565b505f604082860101526040601f19601f8301168501019250505092915050565b5f815160208301519150602081101562000c0e575f198160200360031b1b821691505b50919050565b60805160a05160c05160e051610100516101205161014051613e0a62000c665f395f6114b501525f61148101525f612d8d01525f612d6c01525f611f4a01525f611fa001525f611fc90152613e0a5ff3fe608060405234801561000f575f80fd5b5060043610610196575f3560e01c806370a08231116100e157806395d89b411161008a578063d505accf11610064578063d505accf146104b2578063dd62ed3e146104ce578063e5106662146104fe57610196565b806395d89b4114610434578063a457c2d714610452578063a9059cbb1461048257610196565b80638129fc1c116100bb5780638129fc1c146103e857806384b0196e146103f25780638867596f1461041657610196565b806370a082311461036c57806379cc67901461039c5780637ecebe00146103b857610196565b8063313ce567116101435780633e6c53111161011d5780633e6c5311146102f05780633f6406f51461032057806342966c681461035057610196565b8063313ce567146102845780633644e515146102a257806339509351146102c057610196565b80630dd88660116101745780630dd886601461021a57806318160ddd1461023657806323b872dd1461025457610196565b8063036c151b1461019a57806306fdde03146101cc578063095ea7b3146101ea575b5f80fd5b6101b460048036038101906101af919061312e565b61051c565b6040516101c393929190613148565b60405180910390f35b6101d4610579565b6040516101e191906131e3565b60405180910390f35b61020460048036038101906101ff9190613228565b610609565b6040516102119190613252565b60405180910390f35b610234600480360381019061022f9190613264565b61062b565b005b61023e610e69565b60405161024b91906132dc565b60405180910390f35b61026e600480360381019061026991906132ec565b610ed4565b60405161027b9190613252565b60405180910390f35b61028c610f02565b6040516102999190613325565b60405180910390f35b6102aa610f0a565b6040516102b79190613338565b60405180910390f35b6102da60048036038101906102d59190613228565b610f18565b6040516102e79190613252565b60405180910390f35b61030a60048036038101906103059190613348565b610f4e565b60405161031791906132dc565b60405180910390f35b61033a6004803603810190610335919061312e565b611041565b60405161034791906132dc565b60405180910390f35b61036a6004803603810190610365919061312e565b611132565b005b61038660048036038101906103819190613372565b611146565b60405161039391906132dc565b60405180910390f35b6103b660048036038101906103b19190613228565b6111b1565b005b6103d260048036038101906103cd9190613372565b6111d1565b6040516103df91906132dc565b60405180910390f35b6103f061121e565b005b6103fa611471565b60405161040d9796959493929190613393565b60405180910390f35b61041e61156e565b60405161042b91906132dc565b60405180910390f35b61043c611574565b60405161044991906131e3565b60405180910390f35b61046c60048036038101906104679190613228565b611604565b6040516104799190613252565b60405180910390f35b61049c60048036038101906104979190613228565b611679565b6040516104a99190613252565b60405180910390f35b6104cc60048036038101906104c79190613459565b61169b565b005b6104e860048036038101906104e391906134c7565b6117da565b6040516104f591906132dc565b60405180910390f35b61050661185c565b60405161051391906132dc565b60405180910390f35b6009602052805f5260405f205f91509050805f015490806001015f9054906101000a90046fffffffffffffffffffffffffffffffff16908060010160109054906101000a90046fffffffffffffffffffffffffffffffff16905083565b606060038054610588906134f8565b80601f01602080910402602001604051908101604052809291908181526020018280546105b4906134f8565b80156105ff5780601f106105d6576101008083540402835291602001916105ff565b820191905f5260205f20905b8154815290600101906020018083116105e257829003601f168201915b5050505050905090565b5f80610613611862565b9050610620818585611869565b600191505092915050565b61063f67569211d82f66977a60c01b611a2c565b61065367a50900cee381a21260c01b611a2c565b61066767341f0f81e83d6f7360c01b611a2c565b61067b67cd803604f18d9dc860c01b611a2c565b61068f67035cfb821e5096d460c01b611a2c565b5f600b54146106d3576040517f08c379a00000000000000000000000000000000000000000000000000000000081526004016106ca9061354c565b60405180910390fd5b6106e767af7299e70a30c27260c01b611a2c565b6106fb676fa9ec0f671d52d060c01b611a2c565b61070f67999f70d38323583860c01b611a2c565b61072367033ce6b0ef15d1ef60c01b611a2c565b60115f9054906101000a900473ffffffffffffffffffffffffffffffffffffffff1673ffffffffffffffffffffffffffffffffffffffff163373ffffffffffffffffffffffffffffffffffffffff16146107b2576040517f08c379a00000000000000000000000000000000000000000000000000000000081526004016107a990613589565b60405180910390fd5b6107c6677afad193276ecb4b60c01b611a2c565b6107da673163952c9030989060c01b611a2c565b6107ee6741755cbb8b31ba3060c01b611a2c565b610802677821461bcc0892cf60c01b611a2c565b61081667c8fd3e85a94af3b660c01b611a2c565b61082a67edd164f6558751d160c01b611a2c565b61083e67728cfc09d08c597860c01b611a2c565b600a548310610882576040517f08c379a0000000000000000000000000000000000000000000000000000000008152600401610879906135c6565b60405180910390fd5b61089667c7f5ebdef4962a7360c01b611a2c565b6108aa67cabd08e5bfd2dd1c60c01b611a2c565b6108be6765f0eec801356d3f60c01b611a2c565b5f60095f8581526020019081526020015f2090506108e6670dc081fe19c29cea60c01b611a2c565b6108fa6740a2b19fc90fea6960c01b611a2c565b5f600d5f8681526020019081526020015f2054905061092367ba10dc054ed45bfd60c01b611a2c565b61093767fb6fe5e583f219cc60c01b611a2c565b5f61271090506109516749e2598cd291e10f60c01b611a2c565b61096567f82dcacf564bf78260c01b611a2c565b5f61097a672fce97f2f006e51460c01b611a2c565b61098e673014216e6e96a7aa60c01b611a2c565b5f5b86869050811015610d3e576109af67766d6c2462c8672960c01b611a2c565b6109c367ad5773ff00cf740b60c01b611a2c565b5f8787838181106109d7576109d6613603565b5b90506040020160200160208101906109ef9190613372565b9050610a0567d61f26691e44ae4560c01b611a2c565b610a1967df130ae388b0fc5f60c01b611a2c565b610a2d678a59fc774cfd394f60c01b611a2c565b600e5f8a81526020019081526020015f205f8273ffffffffffffffffffffffffffffffffffffffff1673ffffffffffffffffffffffffffffffffffffffff1681526020019081526020015f205f9054906101000a900460ff1615610ac6576040517f08c379a0000000000000000000000000000000000000000000000000000000008152600401610abd90613630565b60405180910390fd5b610ada676ea531b9c741736660c01b611a2c565b610aee67460cc4b3171d2ce460c01b611a2c565b6001600e5f8b81526020019081526020015f205f8373ffffffffffffffffffffffffffffffffffffffff1673ffffffffffffffffffffffffffffffffffffffff1681526020019081526020015f205f6101000a81548160ff021916908315150217905550610b6667fd284e074ae4249a60c01b611a2c565b610b7a6740dd93b5c892647c60c01b611a2c565b5f888884818110610b8e57610b8d613603565b5b9050604002015f01359050610bad67071e7eeb5f3d369060c01b611a2c565b610bc167cfb554dae180b62260c01b611a2c565b5f858783610bcf919061369a565b610bd991906136e8565b9050610bef67ac8950aa2194bda860c01b611a2c565b610c0367f81d4aeab5cc81c060c01b611a2c565b5f8114610c5557610c1e6741f57409acd770b960c01b611a2c565b610c3267f46dc1a2841a9d3560c01b611a2c565b610c4667bebca0a319c59d3e60c01b611a2c565b610c508382611a2f565b610c6a565b610c696761bda800508c3d0660c01b611a2c565b5b610c7e673a51a8b40623f0cf60c01b611a2c565b610c9267158c4be80950f6a460c01b611a2c565b5f8183610c9f9190613726565b9050610cb567945ea81614ea6cf060c01b611a2c565b80896002015f8673ffffffffffffffffffffffffffffffffffffffff1673ffffffffffffffffffffffffffffffffffffffff1681526020019081526020015f2081905550610d0d673ddc13862bd3d5aa60c01b611a2c565b8086610d199190613743565b9550610d2f67039f52a4f9ffe5e060c01b611a2c565b84600101945050505050610990565b50610d5367bf03f1889c0507c460c01b611a2c565b80845f015f828254610d659190613743565b92505081905550610d80679958fcf61c8e9b7b60c01b611a2c565b80600f5f828254610d919190613743565b92505081905550610dac675297c54c7701ef3260c01b611a2c565b610dc067841949f19e97adcc60c01b611a2c565b6bffffffffffffffffffffffff8016600f54610dda611b7d565b610de49190613743565b1115610e4d57610dfe67bc15d44c0662bf8860c01b611a2c565b610e126713127aeb02f0cbaa60c01b611a2c565b6040517f08c379a0000000000000000000000000000000000000000000000000000000008152600401610e4490613760565b60405180910390fd5b610e6066d99ccc3cc05f9460c01b611a2c565b50505050505050565b5f610e7e6790d276d78abf79f060c01b611a2c565b610e9267ed3282168d4ae09b60c01b611a2c565b610ea667fa01c4b7943eb35160c01b611a2c565b610eba67788e3d1a4d375f5f60c01b611a2c565b601054610ec5611b86565b610ecd611b7d565b0103905090565b5f80610ede611862565b9050610eeb858285611c50565b610ef6858585611cdb565b60019150509392505050565b5f6012905090565b5f610f13611f47565b905090565b5f80610f22611862565b9050610f43818585610f3485896117da565b610f3e9190613743565b611869565b600191505092915050565b5f610f63673db8e80157ceadb260c01b611a2c565b610f7767ec37ffddf2c2ae6360c01b611a2c565b610f8b677e72f9cb0863670560c01b611a2c565b610f9f6757986a2684355af460c01b611a2c565b600a548310610fe3576040517f08c379a0000000000000000000000000000000000000000000000000000000008152600401610fda906135c6565b60405180910390fd5b610ff7676ab23ae229802bd160c01b611a2c565b61100b678612497b936b2b1060c01b611a2c565b61101f6741669096f225f87a60c01b611a2c565b61103960095f8581526020019081526020015f2083611ffd565b905092915050565b5f611056679bc67616ef89b6e860c01b611a2c565b61106a679efead2a8949313d60c01b611a2c565b61107e67660a9c264d31ebd560c01b611a2c565b61109267957160542d00d68a60c01b611a2c565b600a5482106110d6576040517f08c379a00000000000000000000000000000000000000000000000000000000081526004016110cd906135c6565b60405180910390fd5b6110ea672c9737a3574ead8560c01b611a2c565b6110fe6728566456bd31203e60c01b611a2c565b61111267b883956bede6fdf560c01b611a2c565b61112b60095f8481526020019081526020015f20612336565b9050919050565b61114361113d611862565b82612633565b50565b5f61115b67cec3f29ca4f9403060c01b611a2c565b61116f6723a391dc7ae5a12460c01b611a2c565b611183672c519e23b056805f60c01b611a2c565b61119767ca4a8126accd850360c01b611a2c565b6111a0826127f6565b6111a983612918565b019050919050565b6111c3826111bd611862565b83611c50565b6111cd8282612633565b5050565b5f61121760075f8473ffffffffffffffffffffffffffffffffffffffff1673ffffffffffffffffffffffffffffffffffffffff1681526020019081526020015f2061295d565b9050919050565b61123267a809b0a9017dcbb960c01b611a2c565b61124667a50900cee381a21260c01b611a2c565b61125a67341f0f81e83d6f7360c01b611a2c565b61126e67cd803604f18d9dc860c01b611a2c565b61128267035cfb821e5096d460c01b611a2c565b5f600b54146112c6576040517f08c379a00000000000000000000000000000000000000000000000000000000081526004016112bd9061354c565b60405180910390fd5b6112da67af7299e70a30c27260c01b611a2c565b6112ee676fa9ec0f671d52d060c01b611a2c565b61130267999f70d38323583860c01b611a2c565b61131667033ce6b0ef15d1ef60c01b611a2c565b60115f9054906101000a900473ffffffffffffffffffffffffffffffffffffffff1673ffffffffffffffffffffffffffffffffffffffff163373ffffffffffffffffffffffffffffffffffffffff16146113a5576040517f08c379a000000000000000000000000000000000000000000000000000000000815260040161139c90613589565b60405180910390fd5b6113b9677afad193276ecb4b60c01b611a2c565b6113cd673163952c9030989060c01b611a2c565b6113e1672b925fa943bf795e60c01b611a2c565b6113f567744867be7dfada9660c01b611a2c565b61140967fc13e1b8033718fe60c01b611a2c565b42600b8190555061142467815104946a189bb560c01b611a2c565b61143867b01fdce3a5c21f5460c01b611a2c565b7fc43e48cf47e9fa186d0f4096c61d1fcb54159799f935a2aa32e5589688ee36e14260405161146791906132dc565b60405180910390a1565b5f6060805f805f60606114ae60057f000000000000000000000000000000000000000000000000000000000000000061296990919063ffffffff16565b6114e260067f000000000000000000000000000000000000000000000000000000000000000061296990919063ffffffff16565b46305f801b5f67ffffffffffffffff8111156115015761150061379d565b5b60405190808252806020026020018201604052801561152f5781602001602082028036833780820191505090505b507f0f00000000000000000000000000000000000000000000000000000000000000959493929190965096509650965096509650965090919293949596565b600b5481565b606060048054611583906134f8565b80601f01602080910402602001604051908101604052809291908181526020018280546115af906134f8565b80156115fa5780601f106115d1576101008083540402835291602001916115fa565b820191905f5260205f20905b8154815290600101906020018083116115dd57829003601f168201915b5050505050905090565b5f8061160e611862565b90505f61161b82866117da565b905083811015611660576040517f08c379a0000000000000000000000000000000000000000000000000000000008152600401611657906137ca565b60405180910390fd5b61166d8286868403611869565b60019250505092915050565b5f80611683611862565b9050611690818585611cdb565b600191505092915050565b834211156116de576040517f08c379a00000000000000000000000000000000000000000000000000000000081526004016116d59061382d565b60405180910390fd5b5f7f6e71edae12b1b97f4d1f60370fef10105fa2faae0126114a169c64845d6126c988888861170c8c612a16565b896040516020016117229695949392919061386a565b6040516020818303038152906040528051906020012090505f61174482612a71565b90505f61175382878787612a8a565b90508973ffffffffffffffffffffffffffffffffffffffff168173ffffffffffffffffffffffffffffffffffffffff16146117c3576040517f08c379a00000000000000000000000000000000000000000000000000000000081526004016117ba906138b7565b60405180910390fd5b6117ce8a8a8a611869565b50505050505050505050565b5f60015f8473ffffffffffffffffffffffffffffffffffffffff1673ffffffffffffffffffffffffffffffffffffffff1681526020019081526020015f205f8373ffffffffffffffffffffffffffffffffffffffff1673ffffffffffffffffffffffffffffffffffffffff1681526020019081526020015f2054905092915050565b600a5481565b5f33905090565b5f73ffffffffffffffffffffffffffffffffffffffff168373ffffffffffffffffffffffffffffffffffffffff16036118d7576040517f08c379a00000000000000000000000000000000000000000000000000000000081526004016118ce906138f4565b60405180910390fd5b5f73ffffffffffffffffffffffffffffffffffffffff168273ffffffffffffffffffffffffffffffffffffffff1603611945576040517f08c379a000000000000000000000000000000000000000000000000000000000815260040161193c90613957565b60405180910390fd5b8060015f8573ffffffffffffffffffffffffffffffffffffffff1673ffffffffffffffffffffffffffffffffffffffff1681526020019081526020015f205f8473ffffffffffffffffffffffffffffffffffffffff1673ffffffffffffffffffffffffffffffffffffffff1681526020019081526020015f20819055508173ffffffffffffffffffffffffffffffffffffffff168373ffffffffffffffffffffffffffffffffffffffff167f8c5be1e5ebec7d5bd14f71427d1e84f3dd0314c0f7b2291e5b200ac8c7c3b92583604051611a1f91906132dc565b60405180910390a3505050565b50565b5f73ffffffffffffffffffffffffffffffffffffffff168273ffffffffffffffffffffffffffffffffffffffff1603611a9d576040517f08c379a0000000000000000000000000000000000000000000000000000000008152600401611a94906139ba565b60405180910390fd5b611aa85f8383612ab3565b8060025f828254611ab99190613743565b92505081905550805f808473ffffffffffffffffffffffffffffffffffffffff1673ffffffffffffffffffffffffffffffffffffffff1681526020019081526020015f205f82825401925050819055508173ffffffffffffffffffffffffffffffffffffffff165f73ffffffffffffffffffffffffffffffffffffffff167fddf252ad1be2c89b69c2b068fc378daa952ba7f163c4a11628f55a4df523b3ef83604051611b6691906132dc565b60405180910390a3611b795f8383612d43565b5050565b5f600254905090565b5f611b9b6779d28ec216e96b0d60c01b611a2c565b611baf67f3720ae1ee3b943f60c01b611a2c565b611bc3673b11c15fa46b6f8e60c01b611a2c565b611bd7674888fab4439ecc0a60c01b611a2c565b5f600a549050611bf167768f14688a6f140960c01b611a2c565b611c056709af457d2d32526060c01b611a2c565b5f5b81811015611c4b57611c2367a3842d44d128fefc60c01b611a2c565b611c3c60095f8381526020019081526020015f20612336565b83019250806001019050611c07565b505090565b5f611c5b84846117da565b90507fffffffffffffffffffffffffffffffffffffffffffffffffffffffffffffffff8114611cd55781811015611cc7576040517f08c379a0000000000000000000000000000000000000000000000000000000008152600401611cbe906139f7565b60405180910390fd5b611cd48484848403611869565b5b50505050565b5f73ffffffffffffffffffffffffffffffffffffffff168373ffffffffffffffffffffffffffffffffffffffff1603611d49576040517f08c379a0000000000000000000000000000000000000000000000000000000008152600401611d4090613a34565b60405180910390fd5b5f73ffffffffffffffffffffffffffffffffffffffff168273ffffffffffffffffffffffffffffffffffffffff1603611db7576040517f08c379a0000000000000000000000000000000000000000000000000000000008152600401611dae90613a97565b60405180910390fd5b611dc2838383612ab3565b5f805f8573ffffffffffffffffffffffffffffffffffffffff1673ffffffffffffffffffffffffffffffffffffffff1681526020019081526020015f2054905081811015611e45576040517f08c379a0000000000000000000000000000000000000000000000000000000008152600401611e3c90613afa565b60405180910390fd5b8181035f808673ffffffffffffffffffffffffffffffffffffffff1673ffffffffffffffffffffffffffffffffffffffff1681526020019081526020015f2081905550815f808573ffffffffffffffffffffffffffffffffffffffff1673ffffffffffffffffffffffffffffffffffffffff1681526020019081526020015f205f82825401925050819055508273ffffffffffffffffffffffffffffffffffffffff168473ffffffffffffffffffffffffffffffffffffffff167fddf252ad1be2c89b69c2b068fc378daa952ba7f163c4a11628f55a4df523b3ef84604051611f2e91906132dc565b60405180910390a3611f41848484612d43565b50505050565b5f7f000000000000000000000000000000000000000000000000000000000000000073ffffffffffffffffffffffffffffffffffffffff163073ffffffffffffffffffffffffffffffffffffffff16148015611fc257507f000000000000000000000000000000000000000000000000000000000000000046145b15611fef577f00000000000000000000000000000000000000000000000000000000000000009050611ffa565b611ff7612d48565b90505b90565b5f612012672ba9eae4a40b295a60c01b611a2c565b6120266740b337410017be4460c01b611a2c565b61203a67ece20201cd7e6d2060c01b611a2c565b5f836002015f8473ffffffffffffffffffffffffffffffffffffffff1673ffffffffffffffffffffffffffffffffffffffff1681526020019081526020015f2054905061209167194b7c4dea1987f460c01b611a2c565b6120a567e4f0e913b374c26260c01b611a2c565b5f81036120f1576120c067c1669247319dee6d60c01b611a2c565b6120d467cd0fceffa73bdb5a60c01b611a2c565b6120e86725ee21998263e42560c01b611a2c565b5f915050612330565b61210466bada54ae36916360c01b611a2c565b612118670e25553c4605b24260c01b611a2c565b61212c67aa3ff4b8b279929660c01b611a2c565b61214067af7a087ff7b4fe1160c01b611a2c565b5f846001015f9054906101000a90046fffffffffffffffffffffffffffffffff166fffffffffffffffffffffffffffffffff16600b5401905061218d6742e0d06f4277963d60c01b611a2c565b6121a167e90e567766513f5b60c01b611a2c565b804210156121ef576121bd67b4ee1f61f77f534460c01b611a2c565b6121d1678238e71093a343cb60c01b611a2c565b6121e567b75d810bec431e2260c01b611a2c565b5f92505050612330565b61220367dd6e4aa278b277f560c01b611a2c565b612217670f364c64e4cdf39f60c01b611a2c565b61222b67aa36ebf3803c25af60c01b611a2c565b5f8560010160109054906101000a90046fffffffffffffffffffffffffffffffff166fffffffffffffffffffffffffffffffff16905061227567f5847c0bfee8652b60c01b611a2c565b612289671216b1d0f4c577aa60c01b611a2c565b80820142106122d9576122a667382574ab0db3f62760c01b611a2c565b6122ba676a7096ec3afa7c5b60c01b611a2c565b6122ce679756cf937c07ecd160c01b611a2c565b829350505050612330565b6122ed6762c4892746d42ee460c01b611a2c565b61230167d0eb2a0a2625da9260c01b611a2c565b6123156746a25906af75f60360c01b611a2c565b80824203840281612329576123286136bb565b5b0493505050505b92915050565b5f61234b67b3d3ada5844b3b3560c01b611a2c565b61235f67b8856b6af4d3770460c01b611a2c565b61237367b688f8b99c0b511960c01b611a2c565b5f825f0154905061238e67e81ae3ebd3ff0e4560c01b611a2c565b6123a267582c9c615b44f29f60c01b611a2c565b5f81036123ee576123bd67ed394a0328a4e56860c01b611a2c565b6123d167763506e09b0fe42e60c01b611a2c565b6123e5671df4424ec7781b8560c01b611a2c565b5f91505061262e565b612402674d0032622183562560c01b611a2c565b61241667554dd025c4f0c6fd60c01b611a2c565b61242a676d0efa8586f0353c60c01b611a2c565b61243e67e0bdeec62b67ac9760c01b611a2c565b5f836001015f9054906101000a90046fffffffffffffffffffffffffffffffff166fffffffffffffffffffffffffffffffff16600b5401905061248b67dacfc01c469b04e060c01b611a2c565b61249f6766c0f2fd7668630260c01b611a2c565b804210156124ed576124bb6757ea0dd5566cc01a60c01b611a2c565b6124cf67be6ca79d464d96bb60c01b611a2c565b6124e367ca8dbca81a9208be60c01b611a2c565b5f9250505061262e565b61250167acdad9af28b7460260c01b611a2c565b61251567413f6cf6252af8c460c01b611a2c565b6125296736b3a8d0488622ee60c01b611a2c565b5f8460010160109054906101000a90046fffffffffffffffffffffffffffffffff166fffffffffffffffffffffffffffffffff169050612573677921869a6ec76e7260c01b611a2c565b61258767543a31be24fce9ca60c01b611a2c565b80820142106125d7576125a46735b58b310646e90460c01b611a2c565b6125b867870905c36ab11b7760c01b611a2c565b6125cc67b23d9a33fc3719e560c01b611a2c565b82935050505061262e565b6125eb6778cbce51f2f3f93a60c01b611a2c565b6125ff67138f6276e5ac631360c01b611a2c565b612613673f5175e1cabc973160c01b611a2c565b80824203840281612627576126266136bb565b5b0493505050505b919050565b5f73ffffffffffffffffffffffffffffffffffffffff168273ffffffffffffffffffffffffffffffffffffffff16036126a1576040517f08c379a000000000000000000000000000000000000000000000000000000000815260040161269890613b5d565b60405180910390fd5b6126ac825f83612ab3565b5f805f8473ffffffffffffffffffffffffffffffffffffffff1673ffffffffffffffffffffffffffffffffffffffff1681526020019081526020015f205490508181101561272f576040517f08c379a000000000000000000000000000000000000000000000000000000000815260040161272690613bc0565b60405180910390fd5b8181035f808573ffffffffffffffffffffffffffffffffffffffff1673ffffffffffffffffffffffffffffffffffffffff1681526020019081526020015f20819055508160025f82825403925050819055505f73ffffffffffffffffffffffffffffffffffffffff168373ffffffffffffffffffffffffffffffffffffffff167fddf252ad1be2c89b69c2b068fc378daa952ba7f163c4a11628f55a4df523b3ef846040516127de91906132dc565b60405180910390a36127f1835f84612d43565b505050565b5f61280b67a5cdcfda939533a160c01b611a2c565b61281f67e2646c358404741060c01b611a2c565b612833673659bd200037251a60c01b611a2c565b6128476735a1a9e4bbffe34060c01b611a2c565b5f600a549050612860669ae4de974b38a660c01b611a2c565b612874672d35febd2878712c60c01b611a2c565b5f5b818110156128bb57612892677ac39774e21a269460c01b611a2c565b6128ac60095f8381526020019081526020015f2085611ffd565b83019250806001019050612876565b506128d067d4913ed9ce12406f60c01b611a2c565b600c5f8473ffffffffffffffffffffffffffffffffffffffff1673ffffffffffffffffffffffffffffffffffffffff1681526020019081526020015f20548203915050919050565b5f805f8373ffffffffffffffffffffffffffffffffffffffff1673ffffffffffffffffffffffffffffffffffffffff1681526020019081526020015f20549050919050565b5f815f01549050919050565b606060ff5f1b83146129855761297e83612ddd565b9050612a10565b818054612991906134f8565b80601f01602080910402602001604051908101604052809291908181526020018280546129bd906134f8565b8015612a085780601f106129df57610100808354040283529160200191612a08565b820191905f5260205f20905b8154815290600101906020018083116129eb57829003601f168201915b505050505090505b92915050565b5f8060075f8473ffffffffffffffffffffffffffffffffffffffff1673ffffffffffffffffffffffffffffffffffffffff1681526020019081526020015f209050612a608161295d565b9150612a6b81612e4f565b50919050565b5f612a83612a7d611f47565b83612e63565b9050919050565b5f805f612a9987878787612ea3565b91509150612aa681612f7b565b8192505050949350505050565b612ac7678ff97dd5c1fef18260c01b611a2c565b612adb67c37c0109dd1fae5760c01b611a2c565b612aef67cdf24ac9d8c527b660c01b611a2c565b5f73ffffffffffffffffffffffffffffffffffffffff168373ffffffffffffffffffffffffffffffffffffffff1614612d2957612b3667d39ef1aeeb4b700d60c01b611a2c565b612b4a679bf1a5f773da5efc60c01b611a2c565b612b5e67937ff264f7bfe7c560c01b611a2c565b612b72672b0260fc7db1203960c01b611a2c565b5f600b5403612bb6576040517f08c379a0000000000000000000000000000000000000000000000000000000008152600401612bad90613c23565b60405180910390fd5b612bca671f9547a7e2aeb20160c01b611a2c565b612bde6786df1534be5091e660c01b611a2c565b612bf267a2696feca2ef3aff60c01b611a2c565b5f612bfc846127f6565b9050612c1267740c9a7b59929b0860c01b611a2c565b612c2667de16395cc3355fc460c01b611a2c565b612c308482611a2f565b612c44670d6e1e609dc6517a60c01b611a2c565b612c5867cafd6c212168336460c01b611a2c565b612c6c676dbcb2cba018117260c01b611a2c565b5f811115612d0e57612c8867fdebda2d95e1ea7c60c01b611a2c565b612c9c675fc32fa49454daa760c01b611a2c565b8060105f8282540192505081905550612cbf67c1a315fd701eb39260c01b611a2c565b80600c5f8673ffffffffffffffffffffffffffffffffffffffff1673ffffffffffffffffffffffffffffffffffffffff1681526020019081526020015f205f8282540192505081905550612d23565b612d2267108c5ee1112281e360c01b611a2c565b5b50612d3e565b612d3d6792b89b075fde62ed60c01b611a2c565b5b505050565b505050565b5f7f8b73c3c69bb8fe3d512ecc4cf759cc79239f7b179b0ffacaa9a75d522b39400f7f00000000000000000000000000000000000000000000000000000000000000007f00000000000000000000000000000000000000000000000000000000000000004630604051602001612dc2959493929190613c60565b60405160208183030381529060405280519060200120905090565b60605f612de9836130e0565b90505f602067ffffffffffffffff811115612e0757612e0661379d565b5b6040519080825280601f01601f191660200182016040528015612e395781602001600182028036833780820191505090505b5090508181528360208201528092505050919050565b6001815f015f828254019250508190555050565b5f6040517f190100000000000000000000000000000000000000000000000000000000000081528360028201528260228201526042812091505092915050565b5f807f7fffffffffffffffffffffffffffffff5d576e7357a4501ddfe92f46681b20a0835f1c1115612edb575f600391509150612f72565b5f6001878787876040515f8152602001604052604051612efe9493929190613ca2565b6020604051602081039080840390855afa158015612f1e573d5f803e3d5ffd5b5050506020604051035190505f73ffffffffffffffffffffffffffffffffffffffff168173ffffffffffffffffffffffffffffffffffffffff1603612f6a575f60019250925050612f72565b805f92509250505b94509492505050565b5f6004811115612f8e57612f8d613cca565b5b816004811115612fa157612fa0613cca565b5b03156130dd5760016004811115612fbb57612fba613cca565b5b816004811115612fce57612fcd613cca565b5b0361300e576040517f08c379a000000000000000000000000000000000000000000000000000000000815260040161300590613cf7565b60405180910390fd5b6002600481111561302257613021613cca565b5b81600481111561303557613034613cca565b5b03613075576040517f08c379a000000000000000000000000000000000000000000000000000000000815260040161306c90613d34565b60405180910390fd5b6003600481111561308957613088613cca565b5b81600481111561309c5761309b613cca565b5b036130dc576040517f08c379a00000000000000000000000000000000000000000000000000000000081526004016130d390613d71565b60405180910390fd5b5b50565b5f8060ff835f1c169050601f811115613125576040517fb3512b0c00000000000000000000000000000000000000000000000000000000815260040160405180910390fd5b80915050919050565b5f6020828403121561313e575f80fd5b8135905092915050565b5f6060820190508482526fffffffffffffffffffffffffffffffff8085166020840152808416604084015250949350505050565b5f81518084525f5b818110156131a657602080828601015181838801015250602081019050613184565b505f6020828601015260207fffffffffffffffffffffffffffffffffffffffffffffffffffffffffffffffe0601f83011685010191505092915050565b602081525f6131f5602083018461317c565b905092915050565b5f8135905073ffffffffffffffffffffffffffffffffffffffff81168114613223575f80fd5b919050565b5f8060408385031215613239575f80fd5b613242836131fd565b9150602083013590509250929050565b5f602082019050821515825292915050565b5f805f60408486031215613276575f80fd5b83359250602084013567ffffffffffffffff80821115613294575f80fd5b818601915086601f8301126132a7575f80fd5b8135818111156132b5575f80fd5b8760208260061b85010111156132c9575f80fd5b6020830194508093505050509250925092565b5f60208201905082825292915050565b5f805f606084860312156132fe575f80fd5b613307846131fd565b9250613315602085016131fd565b9150604084013590509250925092565b5f60208201905060ff8316825292915050565b5f60208201905082825292915050565b5f8060408385031215613359575f80fd5b82359150613369602084016131fd565b90509250929050565b5f60208284031215613382575f80fd5b61338b826131fd565b905092915050565b7fff00000000000000000000000000000000000000000000000000000000000000881681525f602060e0818401526133ce60e084018a61317c565b83810360408501526133e0818a61317c565b905087606085015273ffffffffffffffffffffffffffffffffffffffff871660808501528560a085015283810360c0850152808551808352838301915083870192505f5b81811015613445578351835284830192508484019350600181019050613424565b505080935050505098975050505050505050565b5f805f805f805f60e0888a03121561346f575f80fd5b613478886131fd565b9650613486602089016131fd565b95506040880135945060608801359350608088013560ff811681146134a9575f80fd5b8093505060a0880135915060c0880135905092959891949750929550565b5f80604083850312156134d8575f80fd5b6134e1836131fd565b91506134ef602084016131fd565b90509250929050565b5f8160011c9050600182168061350f57607f821691505b602082108103613546577f4e487b71000000000000000000000000000000000000000000000000000000005f52602260045260245ffd5b50919050565b60208152601860208201527f4553453a20416c726561647920696e697469616c697a6564000000000000000060408201525f606082019050919050565b60208152601c60208201527f4553453a2043616c6c6572206e6f74205f696e697469616c697a65720000000060408201525f606082019050919050565b60208152601260208201527f4553453a20496e76616c6964207374616765000000000000000000000000000060408201525f606082019050919050565b7f4e487b71000000000000000000000000000000000000000000000000000000005f52603260045260245ffd5b60208152601e60208201527f4553453a2042656e656669636961727920616c7265616479206164646564000060408201525f606082019050919050565b7f4e487b71000000000000000000000000000000000000000000000000000000005f52601160045260245ffd5b5f828202905081810483148215176136b5576136b461366d565b5b92915050565b7f4e487b71000000000000000000000000000000000000000000000000000000005f52601260045260245ffd5b5f8261371b577f4e487b71000000000000000000000000000000000000000000000000000000005f52601260045260245ffd5b828204905092915050565b5f82820390508181111561373d5761373c61366d565b5b92915050565b5f82820190508082111561375a5761375961366d565b5b92915050565b60208152600d60208201527f4553453a204f766572666c6f770000000000000000000000000000000000000060408201525f606082019050919050565b7f4e487b71000000000000000000000000000000000000000000000000000000005f52604160045260245ffd5b60208152602560208201527f45524332303a2064656372656173656420616c6c6f77616e63652062656c6f7760408201527f207a65726f00000000000000000000000000000000000000000000000000000060608201525f608082019050919050565b60208152601d60208201527f45524332305065726d69743a206578706972656420646561646c696e6500000060408201525f606082019050919050565b5f60c08201905087825273ffffffffffffffffffffffffffffffffffffffff80881660208401528087166040840152508460608301528360808301528260a0830152979650505050505050565b60208152601e60208201527f45524332305065726d69743a20696e76616c6964207369676e6174757265000060408201525f606082019050919050565b60208152602460208201527f45524332303a20617070726f76652066726f6d20746865207a65726f2061646460408201527f726573730000000000000000000000000000000000000000000000000000000060608201525f608082019050919050565b60208152602260208201527f45524332303a20617070726f766520746f20746865207a65726f20616464726560408201527f737300000000000000000000000000000000000000000000000000000000000060608201525f608082019050919050565b60208152601f60208201527f45524332303a206d696e7420746f20746865207a65726f20616464726573730060408201525f606082019050919050565b60208152601d60208201527f45524332303a20696e73756666696369656e7420616c6c6f77616e636500000060408201525f606082019050919050565b60208152602560208201527f45524332303a207472616e736665722066726f6d20746865207a65726f20616460408201527f647265737300000000000000000000000000000000000000000000000000000060608201525f608082019050919050565b60208152602360208201527f45524332303a207472616e7366657220746f20746865207a65726f206164647260408201527f657373000000000000000000000000000000000000000000000000000000000060608201525f608082019050919050565b60208152602660208201527f45524332303a207472616e7366657220616d6f756e742065786365656473206260408201527f616c616e6365000000000000000000000000000000000000000000000000000060608201525f608082019050919050565b60208152602160208201527f45524332303a206275726e2066726f6d20746865207a65726f2061646472657360408201527f730000000000000000000000000000000000000000000000000000000000000060608201525f608082019050919050565b60208152602260208201527f45524332303a206275726e20616d6f756e7420657863656564732062616c616e60408201527f636500000000000000000000000000000000000000000000000000000000000060608201525f608082019050919050565b60208152601460208201527f4553453a204e6f7420696e697469616c697a656400000000000000000000000060408201525f606082019050919050565b5f60a08201905086825285602083015284604083015283606083015273ffffffffffffffffffffffffffffffffffffffff831660808301529695505050505050565b5f60808201905085825260ff8516602083015283604083015282606083015295945050505050565b7f4e487b71000000000000000000000000000000000000000000000000000000005f52602160045260245ffd5b60208152601860208201527f45434453413a20696e76616c6964207369676e6174757265000000000000000060408201525f606082019050919050565b60208152601f60208201527f45434453413a20696e76616c6964207369676e6174757265206c656e6774680060408201525f606082019050919050565b60208152602260208201527f45434453413a20696e76616c6964207369676e6174757265202773272076616c60408201527f756500000000000000000000000000000000000000000000000000000000000060608201525f60808201905091905056fea2646970667358221220c42ab013f0a02ff01c503f5a24b6816152029ce57f37edb0a6accd1c1e77ea1b64736f6c63430008150033",
  "linkReferences": {},
  "deployedLinkReferences": {}
}