{
  "_format": "hh-sol-artifact-1",
  "contractName": "Mock1155",
  "sourceName": "contracts/test/Mock1155.sol",
  "abi": [
    {
      "inputs": [
        {
          "internalType": "string",
          "name": "uri",
          "type": "string"
        },
        {
          "internalType": "uint256",
          "name": "id",
          "type": "uint256"
        },
        {
          "internalType": "uint256",
          "name": "amount",
          "type": "uint256"
        },
        {
          "internalType": "address",
          "name": "royaltyReceiver",
          "type": "address"
        },
        {
          "internalType": "uint96",
          "name": "royaltyFeeNumerator",
          "type": "uint96"
        }
      ],
      "stateMutability": "nonpayable",
      "type": "constructor"
    },
    {
      "anonymous": false,
      "inputs": [
        {
          "indexed": true,
          "internalType": "address",
          "name": "account",
          "type": "address"
        },
        {
          "indexed": true,
          "internalType": "address",
          "name": "operator",
          "type": "address"
        },
        {
          "indexed": false,
          "internalType": "bool",
          "name": "approved",
          "type": "bool"
        }
      ],
      "name": "ApprovalForAll",
      "type": "event"
    },
    {
      "anonymous": false,
      "inputs": [
        {
          "indexed": true,
          "internalType": "address",
          "name": "operator",
          "type": "address"
        },
        {
          "indexed": true,
          "internalType": "address",
          "name": "from",
          "type": "address"
        },
        {
          "indexed": true,
          "internalType": "address",
          "name": "to",
          "type": "address"
        },
        {
          "indexed": false,
          "internalType": "uint256[]",
          "name": "ids",
          "type": "uint256[]"
        },
        {
          "indexed": false,
          "internalType": "uint256[]",
          "name": "values",
          "type": "uint256[]"
        }
      ],
      "name": "TransferBatch",
      "type": "event"
    },
    {
      "anonymous": false,
      "inputs": [
        {
          "indexed": true,
          "internalType": "address",
          "name": "operator",
          "type": "address"
        },
        {
          "indexed": true,
          "internalType": "address",
          "name": "from",
          "type": "address"
        },
        {
          "indexed": true,
          "internalType": "address",
          "name": "to",
          "type": "address"
        },
        {
          "indexed": false,
          "internalType": "uint256",
          "name": "id",
          "type": "uint256"
        },
        {
          "indexed": false,
          "internalType": "uint256",
          "name": "value",
          "type": "uint256"
        }
      ],
      "name": "TransferSingle",
      "type": "event"
    },
    {
      "anonymous": false,
      "inputs": [
        {
          "indexed": false,
          "internalType": "string",
          "name": "value",
          "type": "string"
        },
        {
          "indexed": true,
          "internalType": "uint256",
          "name": "id",
          "type": "uint256"
        }
      ],
      "name": "URI",
      "type": "event"
    },
    {
      "inputs": [
        {
          "internalType": "address",
          "name": "account",
          "type": "address"
        },
        {
          "internalType": "uint256",
          "name": "id",
          "type": "uint256"
        }
      ],
      "name": "balanceOf",
      "outputs": [
        {
          "internalType": "uint256",
          "name": "",
          "type": "uint256"
        }
      ],
      "stateMutability": "view",
      "type": "function"
    },
    {
      "inputs": [
        {
          "internalType": "address[]",
          "name": "accounts",
          "type": "address[]"
        },
        {
          "internalType": "uint256[]",
          "name": "ids",
          "type": "uint256[]"
        }
      ],
      "name": "balanceOfBatch",
      "outputs": [
        {
          "internalType": "uint256[]",
          "name": "",
          "type": "uint256[]"
        }
      ],
      "stateMutability": "view",
      "type": "function"
    },
    {
      "inputs": [
        {
          "internalType": "address",
          "name": "account",
          "type": "address"
        },
        {
          "internalType": "address",
          "name": "operator",
          "type": "address"
        }
      ],
      "name": "isApprovedForAll",
      "outputs": [
        {
          "internalType": "bool",
          "name": "",
          "type": "bool"
        }
      ],
      "stateMutability": "view",
      "type": "function"
    },
    {
      "inputs": [
        {
          "internalType": "uint256",
          "name": "tokenId",
          "type": "uint256"
        },
        {
          "internalType": "uint256",
          "name": "salePrice",
          "type": "uint256"
        }
      ],
      "name": "royaltyInfo",
      "outputs": [
        {
          "internalType": "address",
          "name": "",
          "type": "address"
        },
        {
          "internalType": "uint256",
          "name": "",
          "type": "uint256"
        }
      ],
      "stateMutability": "view",
      "type": "function"
    },
    {
      "inputs": [
        {
          "internalType": "address",
          "name": "from",
          "type": "address"
        },
        {
          "internalType": "address",
          "name": "to",
          "type": "address"
        },
        {
          "internalType": "uint256[]",
          "name": "ids",
          "type": "uint256[]"
        },
        {
          "internalType": "uint256[]",
          "name": "amounts",
          "type": "uint256[]"
        },
        {
          "internalType": "bytes",
          "name": "data",
          "type": "bytes"
        }
      ],
      "name": "safeBatchTransferFrom",
      "outputs": [],
      "stateMutability": "nonpayable",
      "type": "function"
    },
    {
      "inputs": [
        {
          "internalType": "address",
          "name": "from",
          "type": "address"
        },
        {
          "internalType": "address",
          "name": "to",
          "type": "address"
        },
        {
          "internalType": "uint256",
          "name": "id",
          "type": "uint256"
        },
        {
          "internalType": "uint256",
          "name": "amount",
          "type": "uint256"
        },
        {
          "internalType": "bytes",
          "name": "data",
          "type": "bytes"
        }
      ],
      "name": "safeTransferFrom",
      "outputs": [],
      "stateMutability": "nonpayable",
      "type": "function"
    },
    {
      "inputs": [
        {
          "internalType": "address",
          "name": "operator",
          "type": "address"
        },
        {
          "internalType": "bool",
          "name": "approved",
          "type": "bool"
        }
      ],
      "name": "setApprovalForAll",
      "outputs": [],
      "stateMutability": "nonpayable",
      "type": "function"
    },
    {
      "inputs": [
        {
          "internalType": "bytes4",
          "name": "interfaceId",
          "type": "bytes4"
        }
      ],
      "name": "supportsInterface",
      "outputs": [
        {
          "internalType": "bool",
          "name": "",
          "type": "bool"
        }
      ],
      "stateMutability": "view",
      "type": "function"
    },
    {
      "inputs": [
        {
          "internalType": "uint256",
          "name": "",
          "type": "uint256"
        }
      ],
      "name": "uri",
      "outputs": [
        {
          "internalType": "string",
          "name": "",
          "type": "string"
        }
      ],
      "stateMutability": "view",
      "type": "function"
    }
  ],
  "bytecode": "0x608060405234801562000010575f80fd5b5060405162003088380380620030888339818101604052810190620000369190620007c6565b846200004881620000da60201b60201c565b506200006b33858560405180602001604052805f815250620000ef60201b60201c565b5f73ffffffffffffffffffffffffffffffffffffffff168273ffffffffffffffffffffffffffffffffffffffff1614158015620000b657505f816bffffffffffffffffffffffff1614155b15620000cf57620000ce8282620002c960201b60201c565b5b505050505062000db7565b8060029081620000eb919062000955565b5050565b5f73ffffffffffffffffffffffffffffffffffffffff168473ffffffffffffffffffffffffffffffffffffffff160362000160576040517f08c379a0000000000000000000000000000000000000000000000000000000008152600401620001579062000a2a565b60405180910390fd5b5f620001716200046760201b60201c565b90505f62000185856200046e60201b60201c565b90505f62000199856200046e60201b60201c565b9050620001b1835f89858589620004ed60201b60201c565b845f808881526020019081526020015f205f8973ffffffffffffffffffffffffffffffffffffffff1673ffffffffffffffffffffffffffffffffffffffff1681526020019081526020015f205f8282546200020d919062000a8d565b925050819055508673ffffffffffffffffffffffffffffffffffffffff165f73ffffffffffffffffffffffffffffffffffffffff168473ffffffffffffffffffffffffffffffffffffffff167fc3d58168c5ae7397731d063d5bbf3d657854427343f4c083240f7aacaa2d0f6289896040516200028c92919062000ab6565b60405180910390a4620002aa835f89858589620004f560201b60201c565b620002c0835f89898989620004fd60201b60201c565b50505050505050565b620002d9620006f060201b60201c565b6bffffffffffffffffffffffff16816bffffffffffffffffffffffff1611156200033a576040517f08c379a0000000000000000000000000000000000000000000000000000000008152600401620003319062000acd565b60405180910390fd5b5f73ffffffffffffffffffffffffffffffffffffffff168273ffffffffffffffffffffffffffffffffffffffff1603620003ab576040517f08c379a0000000000000000000000000000000000000000000000000000000008152600401620003a29062000b30565b60405180910390fd5b60405180604001604052808373ffffffffffffffffffffffffffffffffffffffff168152602001826bffffffffffffffffffffffff1681525060035f820151815f015f6101000a81548173ffffffffffffffffffffffffffffffffffffffff021916908373ffffffffffffffffffffffffffffffffffffffff1602179055506020820151815f0160146101000a8154816bffffffffffffffffffffffff02191690836bffffffffffffffffffffffff1602179055509050505050565b5f33905090565b60605f600167ffffffffffffffff8111156200048f576200048e6200071b565b5b604051908082528060200260200182016040528015620004be5781602001602082028036833780820191505090505b50905082815f81518110620004d857620004d762000b6d565b5b60200260200101818152505080915050919050565b505050505050565b505050505050565b620005248473ffffffffffffffffffffffffffffffffffffffff16620006f960201b60201c565b15620006e8578373ffffffffffffffffffffffffffffffffffffffff1663f23a6e6187878686866040518663ffffffff1660e01b81526004016200056d95949392919062000bb0565b6020604051808303815f875af1925050508015620005ab57506040513d601f19601f82011682018060405250810190620005a8919062000bf4565b60015b6200065c57620005ba62000c26565b806308c379a0036200061d5750620005d162000c41565b80620005de57506200061f565b806040517f08c379a000000000000000000000000000000000000000000000000000000000815260040162000614919062000cd5565b60405180910390fd5b505b6040517f08c379a0000000000000000000000000000000000000000000000000000000008152600401620006539062000cf1565b60405180910390fd5b63f23a6e6160e01b7bffffffffffffffffffffffffffffffffffffffffffffffffffffffff1916817bffffffffffffffffffffffffffffffffffffffffffffffffffffffff191614620006e6576040517f08c379a0000000000000000000000000000000000000000000000000000000008152600401620006dd9062000d54565b60405180910390fd5b505b505050505050565b5f612710905090565b5f808273ffffffffffffffffffffffffffffffffffffffff163b119050919050565b634e487b7160e01b5f52604160045260245ffd5b601f19601f830116810181811060018060401b03821117156200075757620007566200071b565b5b80604052505050565b5f5b838110156200077f57808201518184015260208101905062000762565b505f83830152505050565b5f8151905060018060a01b0381168114620007a3575f80fd5b919050565b5f8151905060018060601b0381168114620007c1575f80fd5b919050565b5f805f805f60a08688031215620007db575f80fd5b855160018060401b0380821115620007f1575f80fd5b818801915088601f83011262000805575f80fd5b8151818111156200081b576200081a6200071b565b5b6040519150620008366020601f19601f84011601836200072f565b8082528960208285010111156200084b575f80fd5b6200085e81602084016020860162000760565b508096505050602086015193506040860151925062000880606087016200078a565b91506200089060808701620007a8565b90509295509295909350565b5f8160011c90506001821680620008b457607f821691505b602082108103620008d357634e487b7160e01b5f52602260045260245ffd5b50919050565b805f52505f60205f20905090565b601f82111562000938575f81815260208120601f850160051c8101602086101562000910578190505b601f850160051c820191505b8181101562000934578281556001810190506200091c565b5050505b505050565b5f8260011b5f198460031b1c19831617905092915050565b815160018060401b038111156200097157620009706200071b565b5b62000989816200098284546200089c565b84620008e7565b5f6020809150601f831160018114620009c0575f8415620009ab578387015190505b620009b785826200093d565b86555062000a22565b601f198416620009d086620008d9565b5f5b82811015620009f75785890151825560018201915084860195508481019050620009d2565b508582101562000a1657848801515f1960f88860031b161c1981168255505b505060018460011b0185555b505050505050565b60208152602160208201527f455243313135353a206d696e7420746f20746865207a65726f2061646472657360408201527f730000000000000000000000000000000000000000000000000000000000000060608201525f608082019050919050565b5f82820190508082111562000ab057634e487b7160e01b5f52601160045260245ffd5b92915050565b5f6040820190508382528260208301529392505050565b60208152602a60208201527f455243323938313a20726f79616c7479206665652077696c6c2065786365656460408201527f2073616c6550726963650000000000000000000000000000000000000000000060608201525f608082019050919050565b60208152601960208201527f455243323938313a20696e76616c69642072656365697665720000000000000060408201525f606082019050919050565b634e487b7160e01b5f52603260045260245ffd5b5f815180845262000b9a81602086016020860162000760565b6020601f19601f83011685010191505092915050565b5f60018060a01b03808816835280871660208401525084604083015283606083015260a0608083015262000be860a083018462000b81565b90509695505050505050565b5f6020828403121562000c05575f80fd5b815163ffffffff60e01b8116811462000c1c575f80fd5b8091505092915050565b5f60033d111562000c3e5760045f803e5f5160e01c90505b90565b5f60443d1062000cd257604051600319803d016004833e81513d60018060401b03816024840111818411171562000c7d57505050505062000cd2565b828501915081518181111562000c995750505050505062000cd2565b843d870101602082850101111562000cb75750505050505062000cd2565b62000cc8602082860101876200072f565b5050809450505050505b90565b602081525f62000ce9602083018462000b81565b905092915050565b60208152603460208201527f455243313135353a207472616e7366657220746f206e6f6e2d4552433131353560408201527f526563656976657220696d706c656d656e74657200000000000000000000000060608201525f608082019050919050565b60208152602860208201527f455243313135353a204552433131353552656365697665722072656a6563746560408201527f6420746f6b656e7300000000000000000000000000000000000000000000000060608201525f608082019050919050565b6122c38062000dc55f395ff3fe608060405234801561000f575f80fd5b50600436106100a0575f3560e01c80632eb2c2d611610074578063a22cb46511610059578063a22cb465146101b1578063e985e9c5146101cd578063f242432a146101fd576100a0565b80632eb2c2d6146101655780634e1273f414610181576100a0565b8062fdd58e146100a457806301ffc9a7146100d45780630e89341c146101045780632a55205a14610134575b5f80fd5b6100be60048036038101906100b991906115ea565b610219565b6040516100cb9190611614565b60405180910390f35b6100ee60048036038101906100e99190611654565b6102dc565b6040516100fb9190611679565b60405180910390f35b61011e6004803603810190610119919061168b565b61032d565b60405161012b919061170c565b60405180910390f35b61014e60048036038101906101499190611726565b6103bf565b60405161015c929190611749565b60405180910390f35b61017f600480360381019061017a9190611920565b61059b565b005b61019b600480360381019061019691906119c3565b61063c565b6040516101a89190611ad1565b60405180910390f35b6101cb60048036038101906101c69190611aeb565b610753565b005b6101e760048036038101906101e29190611b24565b610769565b6040516101f49190611679565b60405180910390f35b61021760048036038101906102129190611b55565b6107f7565b005b5f8073ffffffffffffffffffffffffffffffffffffffff168373ffffffffffffffffffffffffffffffffffffffff1603610288576040517f08c379a000000000000000000000000000000000000000000000000000000000815260040161027f90611bc2565b60405180910390fd5b5f808381526020019081526020015f205f8473ffffffffffffffffffffffffffffffffffffffff1673ffffffffffffffffffffffffffffffffffffffff1681526020019081526020015f2054905092915050565b5f6102e682610898565b806102f657506102f582610911565b5b8061032657506301ffc9a760e01b827bffffffffffffffffffffffffffffffffffffffffffffffffffffffff1916145b9050919050565b60606002805461033c90611c25565b80601f016020809104026020016040519081016040528092919081815260200182805461036890611c25565b80156103b35780601f1061038a576101008083540402835291602001916103b3565b820191905f5260205f20905b81548152906001019060200180831161039657829003601f168201915b50505050509050919050565b5f805f60045f8681526020019081526020015f206040518060400160405290815f82015f9054906101000a900473ffffffffffffffffffffffffffffffffffffffff1673ffffffffffffffffffffffffffffffffffffffff1673ffffffffffffffffffffffffffffffffffffffff1681526020015f820160149054906101000a90046bffffffffffffffffffffffff166bffffffffffffffffffffffff166bffffffffffffffffffffffff168152505090505f73ffffffffffffffffffffffffffffffffffffffff16815f015173ffffffffffffffffffffffffffffffffffffffff16036105485760036040518060400160405290815f82015f9054906101000a900473ffffffffffffffffffffffffffffffffffffffff1673ffffffffffffffffffffffffffffffffffffffff1673ffffffffffffffffffffffffffffffffffffffff1681526020015f820160149054906101000a90046bffffffffffffffffffffffff166bffffffffffffffffffffffff166bffffffffffffffffffffffff168152505090505b5f6105516109f2565b6bffffffffffffffffffffffff1682602001516bffffffffffffffffffffffff168661057d9190611ca6565b6105879190611cc7565b9050815f0151819350935050509250929050565b6105a36109fb565b73ffffffffffffffffffffffffffffffffffffffff168573ffffffffffffffffffffffffffffffffffffffff1614806105e957506105e8856105e36109fb565b610769565b5b610628576040517f08c379a000000000000000000000000000000000000000000000000000000000815260040161061f90611d05565b60405180910390fd5b6106358585858585610a02565b5050505050565b60608151835114610682576040517f08c379a000000000000000000000000000000000000000000000000000000000815260040161067990611d68565b60405180910390fd5b5f835167ffffffffffffffff81111561069e5761069d611776565b5b6040519080825280602002602001820160405280156106cc5781602001602082028036833780820191505090505b5090505f5b8451811015610748576107188582815181106106f0576106ef611dcb565b5b602002602001015185838151811061070b5761070a611dcb565b5b6020026020010151610219565b82828151811061072b5761072a611dcb565b5b6020026020010181815250508061074190611df8565b90506106d1565b508091505092915050565b61076561075e6109fb565b8383610d10565b5050565b5f60015f8473ffffffffffffffffffffffffffffffffffffffff1673ffffffffffffffffffffffffffffffffffffffff1681526020019081526020015f205f8373ffffffffffffffffffffffffffffffffffffffff1673ffffffffffffffffffffffffffffffffffffffff1681526020019081526020015f205f9054906101000a900460ff16905092915050565b6107ff6109fb565b73ffffffffffffffffffffffffffffffffffffffff168573ffffffffffffffffffffffffffffffffffffffff16148061084557506108448561083f6109fb565b610769565b5b610884576040517f08c379a000000000000000000000000000000000000000000000000000000000815260040161087b90611d05565b60405180910390fd5b6108918585858585610e77565b5050505050565b5f7f2a55205a000000000000000000000000000000000000000000000000000000007bffffffffffffffffffffffffffffffffffffffffffffffffffffffff1916827bffffffffffffffffffffffffffffffffffffffffffffffffffffffff1916148061090a575061090982610911565b5b9050919050565b5f7fd9b67a26000000000000000000000000000000000000000000000000000000007bffffffffffffffffffffffffffffffffffffffffffffffffffffffff1916827bffffffffffffffffffffffffffffffffffffffffffffffffffffffff191614806109db57507f0e89341c000000000000000000000000000000000000000000000000000000007bffffffffffffffffffffffffffffffffffffffffffffffffffffffff1916827bffffffffffffffffffffffffffffffffffffffffffffffffffffffff1916145b806109eb57506109ea82611100565b5b9050919050565b5f612710905090565b5f33905090565b8151835114610a46576040517f08c379a0000000000000000000000000000000000000000000000000000000008152600401610a3d90611e34565b60405180910390fd5b5f73ffffffffffffffffffffffffffffffffffffffff168473ffffffffffffffffffffffffffffffffffffffff1603610ab4576040517f08c379a0000000000000000000000000000000000000000000000000000000008152600401610aab90611e97565b60405180910390fd5b5f610abd6109fb565b9050610acd818787878787611169565b5f5b8451811015610c6d575f858281518110610aec57610aeb611dcb565b5b602002602001015190505f858381518110610b0a57610b09611dcb565b5b602002602001015190505f805f8481526020019081526020015f205f8b73ffffffffffffffffffffffffffffffffffffffff1673ffffffffffffffffffffffffffffffffffffffff1681526020019081526020015f2054905081811015610ba6576040517f08c379a0000000000000000000000000000000000000000000000000000000008152600401610b9d90611efa565b60405180910390fd5b8181035f808581526020019081526020015f205f8c73ffffffffffffffffffffffffffffffffffffffff1673ffffffffffffffffffffffffffffffffffffffff1681526020019081526020015f2081905550815f808581526020019081526020015f205f8b73ffffffffffffffffffffffffffffffffffffffff1673ffffffffffffffffffffffffffffffffffffffff1681526020019081526020015f205f828254610c529190611f5d565b9250508190555050505080610c6690611df8565b9050610acf565b508473ffffffffffffffffffffffffffffffffffffffff168673ffffffffffffffffffffffffffffffffffffffff168273ffffffffffffffffffffffffffffffffffffffff167f4a39dc06d4c0dbc64b70af90fd698a233a518aa5d07e595d983b8c0526c8f7fb8787604051610ce4929190611f7a565b60405180910390a4610cfa818787878787611171565b610d08818787878787611179565b505050505050565b8173ffffffffffffffffffffffffffffffffffffffff168373ffffffffffffffffffffffffffffffffffffffff1603610d7e576040517f08c379a0000000000000000000000000000000000000000000000000000000008152600401610d7590611fa8565b60405180910390fd5b8060015f8573ffffffffffffffffffffffffffffffffffffffff1673ffffffffffffffffffffffffffffffffffffffff1681526020019081526020015f205f8473ffffffffffffffffffffffffffffffffffffffff1673ffffffffffffffffffffffffffffffffffffffff1681526020019081526020015f205f6101000a81548160ff0219169083151502179055508173ffffffffffffffffffffffffffffffffffffffff168373ffffffffffffffffffffffffffffffffffffffff167f17307eab39ab6107e8899845ad3d59bd9653f200f220920489ca2b5937696c3183604051610e6a9190611679565b60405180910390a3505050565b5f73ffffffffffffffffffffffffffffffffffffffff168473ffffffffffffffffffffffffffffffffffffffff1603610ee5576040517f08c379a0000000000000000000000000000000000000000000000000000000008152600401610edc90611e97565b60405180910390fd5b5f610eee6109fb565b90505f610efa8561134f565b90505f610f068561134f565b9050610f16838989858589611169565b5f805f8881526020019081526020015f205f8a73ffffffffffffffffffffffffffffffffffffffff1673ffffffffffffffffffffffffffffffffffffffff1681526020019081526020015f2054905085811015610fa8576040517f08c379a0000000000000000000000000000000000000000000000000000000008152600401610f9f90611efa565b60405180910390fd5b8581035f808981526020019081526020015f205f8b73ffffffffffffffffffffffffffffffffffffffff1673ffffffffffffffffffffffffffffffffffffffff1681526020019081526020015f2081905550855f808981526020019081526020015f205f8a73ffffffffffffffffffffffffffffffffffffffff1673ffffffffffffffffffffffffffffffffffffffff1681526020019081526020015f205f8282546110549190611f5d565b925050819055508773ffffffffffffffffffffffffffffffffffffffff168973ffffffffffffffffffffffffffffffffffffffff168573ffffffffffffffffffffffffffffffffffffffff167fc3d58168c5ae7397731d063d5bbf3d657854427343f4c083240f7aacaa2d0f628a8a6040516110d192919061200b565b60405180910390a46110e7848a8a86868a611171565b6110f5848a8a8a8a8a6113c7565b505050505050505050565b5f7f01ffc9a7000000000000000000000000000000000000000000000000000000007bffffffffffffffffffffffffffffffffffffffffffffffffffffffff1916827bffffffffffffffffffffffffffffffffffffffffffffffffffffffff1916149050919050565b505050505050565b505050505050565b6111988473ffffffffffffffffffffffffffffffffffffffff1661159d565b15611347578373ffffffffffffffffffffffffffffffffffffffff1663bc197c8187878686866040518663ffffffff1660e01b81526004016111de959493929190612022565b6020604051808303815f875af192505050801561121957506040513d601f19601f82011682018060405250810190611216919061208d565b60015b6112be576112256120b2565b806308c379a00361128157506112396120cc565b806112445750611283565b806040517f08c379a0000000000000000000000000000000000000000000000000000000008152600401611278919061170c565b60405180910390fd5b505b6040517f08c379a00000000000000000000000000000000000000000000000000000000081526004016112b590612177565b60405180910390fd5b63bc197c8160e01b7bffffffffffffffffffffffffffffffffffffffffffffffffffffffff1916817bffffffffffffffffffffffffffffffffffffffffffffffffffffffff191614611345576040517f08c379a000000000000000000000000000000000000000000000000000000000815260040161133c906121da565b60405180910390fd5b505b505050505050565b60605f600167ffffffffffffffff81111561136d5761136c611776565b5b60405190808252806020026020018201604052801561139b5781602001602082028036833780820191505090505b50905082815f815181106113b2576113b1611dcb565b5b60200260200101818152505080915050919050565b6113e68473ffffffffffffffffffffffffffffffffffffffff1661159d565b15611595578373ffffffffffffffffffffffffffffffffffffffff1663f23a6e6187878686866040518663ffffffff1660e01b815260040161142c95949392919061223d565b6020604051808303815f875af192505050801561146757506040513d601f19601f82011682018060405250810190611464919061208d565b60015b61150c576114736120b2565b806308c379a0036114cf57506114876120cc565b8061149257506114d1565b806040517f08c379a00000000000000000000000000000000000000000000000000000000081526004016114c6919061170c565b60405180910390fd5b505b6040517f08c379a000000000000000000000000000000000000000000000000000000000815260040161150390612177565b60405180910390fd5b63f23a6e6160e01b7bffffffffffffffffffffffffffffffffffffffffffffffffffffffff1916817bffffffffffffffffffffffffffffffffffffffffffffffffffffffff191614611593576040517f08c379a000000000000000000000000000000000000000000000000000000000815260040161158a906121da565b60405180910390fd5b505b505050505050565b5f808273ffffffffffffffffffffffffffffffffffffffff163b119050919050565b5f8135905073ffffffffffffffffffffffffffffffffffffffff811681146115e5575f80fd5b919050565b5f80604083850312156115fb575f80fd5b611604836115bf565b9150602083013590509250929050565b5f60208201905082825292915050565b7fffffffff0000000000000000000000000000000000000000000000000000000081168114611651575f80fd5b50565b5f60208284031215611664575f80fd5b813561166f81611624565b8091505092915050565b5f602082019050821515825292915050565b5f6020828403121561169b575f80fd5b8135905092915050565b5f81518084525f5b818110156116cf576020808286010151818388010152506020810190506116ad565b505f6020828601015260207fffffffffffffffffffffffffffffffffffffffffffffffffffffffffffffffe0601f83011685010191505092915050565b602081525f61171e60208301846116a5565b905092915050565b5f8060408385031215611737575f80fd5b82359150602083013590509250929050565b5f60408201905073ffffffffffffffffffffffffffffffffffffffff841682528260208301529392505050565b7f4e487b71000000000000000000000000000000000000000000000000000000005f52604160045260245ffd5b7fffffffffffffffffffffffffffffffffffffffffffffffffffffffffffffffe0601f830116810181811067ffffffffffffffff821117156117e8576117e7611776565b5b80604052505050565b5f67ffffffffffffffff82111561180b5761180a611776565b5b60208260051b019050919050565b5f82601f830112611828575f80fd5b81356020611835826117f1565b60405161184282826117a3565b8091508381528281019150828460051b870101935086841115611863575f80fd5b8286015b84811015611882578035835283830192508381019050611867565b508094505050505092915050565b5f82601f83011261189f575f80fd5b813567ffffffffffffffff8111156118ba576118b9611776565b5b6040516118ef60207fffffffffffffffffffffffffffffffffffffffffffffffffffffffffffffffe0601f85011601826117a3565b818152846020838601011115611903575f80fd5b816020850160208301375f60208383010152809250505092915050565b5f805f805f60a08688031215611934575f80fd5b61193d866115bf565b945061194b602087016115bf565b9350604086013567ffffffffffffffff80821115611967575f80fd5b61197389838a01611819565b94506060880135915080821115611988575f80fd5b61199489838a01611819565b935060808801359150808211156119a9575f80fd5b506119b688828901611890565b9150509295509295909350565b5f80604083850312156119d4575f80fd5b823567ffffffffffffffff808211156119eb575f80fd5b818501915085601f8301126119fe575f80fd5b81356020611a0b826117f1565b604051611a1882826117a3565b8091508381528281019150828460051b870101935089841115611a39575f80fd5b82860195505b83861015611a6157611a50866115bf565b825282820191508286019550611a3f565b8097505050808701359350505080821115611a7a575f80fd5b50611a8785828601611819565b9150509250929050565b5f8151808452602080850194508084015f5b83811015611ac4578151875282870196508282019150600181019050611aa3565b5050505082905092915050565b602081525f611ae36020830184611a91565b905092915050565b5f8060408385031215611afc575f80fd5b611b05836115bf565b915060208301358015158114611b19575f80fd5b809150509250929050565b5f8060408385031215611b35575f80fd5b611b3e836115bf565b9150611b4c602084016115bf565b90509250929050565b5f805f805f60a08688031215611b69575f80fd5b611b72866115bf565b9450611b80602087016115bf565b93506040860135925060608601359150608086013567ffffffffffffffff811115611ba9575f80fd5b611bb588828901611890565b9150509295509295909350565b60208152602a60208201527f455243313135353a2061646472657373207a65726f206973206e6f742061207660408201527f616c6964206f776e65720000000000000000000000000000000000000000000060608201525f608082019050919050565b5f8160011c90506001821680611c3c57607f821691505b602082108103611c73577f4e487b71000000000000000000000000000000000000000000000000000000005f52602260045260245ffd5b50919050565b7f4e487b71000000000000000000000000000000000000000000000000000000005f52601160045260245ffd5b5f82820290508181048314821517611cc157611cc0611c79565b5b92915050565b5f82611cfa577f4e487b71000000000000000000000000000000000000000000000000000000005f52601260045260245ffd5b828204905092915050565b60208152602e60208201527f455243313135353a2063616c6c6572206973206e6f7420746f6b656e206f776e60408201527f6572206f7220617070726f76656400000000000000000000000000000000000060608201525f608082019050919050565b60208152602960208201527f455243313135353a206163636f756e747320616e6420696473206c656e67746860408201527f206d69736d61746368000000000000000000000000000000000000000000000060608201525f608082019050919050565b7f4e487b71000000000000000000000000000000000000000000000000000000005f52603260045260245ffd5b5f7fffffffffffffffffffffffffffffffffffffffffffffffffffffffffffffffff8203611e2957611e28611c79565b5b600182019050919050565b60208152602860208201527f455243313135353a2069647320616e6420616d6f756e7473206c656e6774682060408201527f6d69736d6174636800000000000000000000000000000000000000000000000060608201525f608082019050919050565b60208152602560208201527f455243313135353a207472616e7366657220746f20746865207a65726f20616460408201527f647265737300000000000000000000000000000000000000000000000000000060608201525f608082019050919050565b60208152602a60208201527f455243313135353a20696e73756666696369656e742062616c616e636520666f60408201527f72207472616e736665720000000000000000000000000000000000000000000060608201525f608082019050919050565b5f828201905080821115611f7457611f73611c79565b5b92915050565b604081525f611f8c6040830185611a91565b8281036020840152611f9e8185611a91565b9150509392505050565b60208152602960208201527f455243313135353a2073657474696e6720617070726f76616c2073746174757360408201527f20666f722073656c66000000000000000000000000000000000000000000000060608201525f608082019050919050565b5f6040820190508382528260208301529392505050565b5f73ffffffffffffffffffffffffffffffffffffffff808816835280871660208401525060a0604083015261205a60a0830186611a91565b828103606084015261206c8186611a91565b9050828103608084015261208081856116a5565b9150509695505050505050565b5f6020828403121561209d575f80fd5b81516120a881611624565b8091505092915050565b5f60033d11156120c95760045f803e5f5160e01c90505b90565b5f60443d10612174576040517ffffffffffffffffffffffffffffffffffffffffffffffffffffffffffffffffc803d016004833e81513d67ffffffffffffffff8160248401118184111715612125575050505050612174565b828501915081518181111561213f57505050505050612174565b843d870101602082850101111561215b57505050505050612174565b61216a602082860101876117a3565b5050809450505050505b90565b60208152603460208201527f455243313135353a207472616e7366657220746f206e6f6e2d4552433131353560408201527f526563656976657220696d706c656d656e74657200000000000000000000000060608201525f608082019050919050565b60208152602860208201527f455243313135353a204552433131353552656365697665722072656a6563746560408201527f6420746f6b656e7300000000000000000000000000000000000000000000000060608201525f608082019050919050565b5f73ffffffffffffffffffffffffffffffffffffffff808816835280871660208401525084604083015283606083015260a0608083015261228160a08301846116a5565b9050969550505050505056fea26469706673582212208203694dea9713fd4d442ba727abf099e81e6b5d4a13e4e4fd020462978b76be64736f6c63430008150033",
  "linkReferences": {},
  "deployedLinkReferences": {}
}