{
  "_format": "hh-sol-artifact-1",
  "contractName": "EeseeAccessManager",
  "sourceName": "contracts/admin/EeseeAccessManager.sol",
  "abi": [
    {
      "inputs": [],
      "stateMutability": "nonpayable",
      "type": "constructor"
    },
    {
      "inputs": [],
      "name": "CallerNotAdmin",
      "type": "error"
    },
    {
      "anonymous": false,
      "inputs": [
        {
          "indexed": true,
          "internalType": "bytes32",
          "name": "role",
          "type": "bytes32"
        },
        {
          "indexed": true,
          "internalType": "address",
          "name": "account",
          "type": "address"
        }
      ],
      "name": "RoleGranted",
      "type": "event"
    },
    {
      "anonymous": false,
      "inputs": [
        {
          "indexed": true,
          "internalType": "bytes32",
          "name": "role",
          "type": "bytes32"
        },
        {
          "indexed": true,
          "internalType": "address",
          "name": "account",
          "type": "address"
        }
      ],
      "name": "RoleRevoked",
      "type": "event"
    },
    {
      "inputs": [],
      "name": "ADMIN_ROLE",
      "outputs": [
        {
          "internalType": "bytes32",
          "name": "",
          "type": "bytes32"
        }
      ],
      "stateMutability": "view",
      "type": "function"
    },
    {
      "inputs": [
        {
          "internalType": "bytes32",
          "name": "role",
          "type": "bytes32"
        },
        {
          "internalType": "address",
          "name": "account",
          "type": "address"
        }
      ],
      "name": "grantRole",
      "outputs": [],
      "stateMutability": "nonpayable",
      "type": "function"
    },
    {
      "inputs": [
        {
          "internalType": "bytes32",
          "name": "role",
          "type": "bytes32"
        },
        {
          "internalType": "address",
          "name": "account",
          "type": "address"
        }
      ],
      "name": "hasRole",
      "outputs": [
        {
          "internalType": "bool",
          "name": "",
          "type": "bool"
        }
      ],
      "stateMutability": "view",
      "type": "function"
    },
    {
      "inputs": [
        {
          "internalType": "bytes32",
          "name": "role",
          "type": "bytes32"
        },
        {
          "internalType": "address",
          "name": "account",
          "type": "address"
        }
      ],
      "name": "revokeRole",
      "outputs": [],
      "stateMutability": "nonpayable",
      "type": "function"
    }
  ],
  "bytecode": "0x608060405234801561000f575f80fd5b5061002a6753dac774e87a7aee60c01b61007560201b60201c565b61004467b3be228d6edf5e9260c01b61007560201b60201c565b61005e6746b85a50400252f660c01b61007560201b60201c565b6100705f801b3361007860201b60201c565b6102bc565b50565b610092675038ba3755c3acfa60c01b61007560201b60201c565b6100ac67c13c02fb3f8e693560c01b61007560201b60201c565b6100c667fed2753d15122a1f60c01b61007560201b60201c565b6100d6828261020d60201b60201c565b6101ee576100f467536729ea2f6a1ab060c01b61007560201b60201c565b61010e67b95306a9cd7f1f2760c01b61007560201b60201c565b60015f808481526020019081526020015f205f8373ffffffffffffffffffffffffffffffffffffffff1673ffffffffffffffffffffffffffffffffffffffff1681526020019081526020015f205f6101000a81548160ff02191690831515021790555061018b67b633de4328b4031460c01b61007560201b60201c565b6101a567e4d675e48f86dabc60c01b61007560201b60201c565b8073ffffffffffffffffffffffffffffffffffffffff16827f2ae6a113c0ed5b78a53413ffbb7679881f11145ccfba4fb92e863dfcd5a1d2f360405160405180910390a3610209565b6102086702530618b6178d7e60c01b61007560201b60201c565b5b5050565b5f61022867de5aac033ce1dd8e60c01b61007560201b60201c565b61024267dd9ac3be0e1ebd9e60c01b61007560201b60201c565b61025c671bf9baefb00b5d4360c01b61007560201b60201c565b5f808481526020019081526020015f205f8373ffffffffffffffffffffffffffffffffffffffff1673ffffffffffffffffffffffffffffffffffffffff1681526020019081526020015f205f9054906101000a900460ff16905092915050565b6106e4806102c95f395ff3fe608060405234801561000f575f80fd5b506004361061004a575f3560e01c80632f2ff15d1461004e57806375b238fc1461006a57806391d1485414610088578063d547741f146100b8575b5f80fd5b61006860048036038101906100639190610646565b6100d4565b005b610072610200565b60405161007f919061068c565b60405180910390f35b6100a2600480360381019061009d9190610646565b610206565b6040516100af919061069c565b60405180910390f35b6100d260048036038101906100cd9190610646565b6102a3565b005b6100e86722beb8e165e5b68360c01b6104e4565b6100fc67cfb0a8ee767f091b60c01b6104e4565b61011067342c853cb3741a2c60c01b6104e4565b6101246705a8d9981717c3d660c01b6104e4565b6101305f801b33610206565b61017a57610148677bf54e839273226060c01b6104e4565b6040517f06d919f200000000000000000000000000000000000000000000000000000000815260040160405180910390fd5b61018e675721741bd934b96f60c01b6104e4565b6101a267817b72542035b26c60c01b6104e4565b6101b6670f2bfc5d93c0147360c01b6104e4565b6101ca6734e016793df0561d60c01b6104e4565b6101de672d522ebad65d42ad60c01b6104e4565b6101f2679242063b7b4d598c60c01b6104e4565b6101fc82826104e7565b5050565b5f801b81565b5f61021b67de5aac033ce1dd8e60c01b6104e4565b61022f67dd9ac3be0e1ebd9e60c01b6104e4565b610243671bf9baefb00b5d4360c01b6104e4565b5f808481526020019081526020015f205f8373ffffffffffffffffffffffffffffffffffffffff1673ffffffffffffffffffffffffffffffffffffffff1681526020019081526020015f205f9054906101000a900460ff16905092915050565b6102b767e1605de3211de00b60c01b6104e4565b6102cb67cfb0a8ee767f091b60c01b6104e4565b6102df67342c853cb3741a2c60c01b6104e4565b6102f36705a8d9981717c3d660c01b6104e4565b6102ff5f801b33610206565b61034957610317677bf54e839273226060c01b6104e4565b6040517f06d919f200000000000000000000000000000000000000000000000000000000815260040160405180910390fd5b61035d675721741bd934b96f60c01b6104e4565b61037167817b72542035b26c60c01b6104e4565b610385678abf8714961450db60c01b6104e4565b610399677b8c30adc2bad9c060c01b6104e4565b6103ad67dddc68e8d0277c1460c01b6104e4565b6103c1672c80653ee306361a60c01b6104e4565b6103cb8282610206565b156104cb576103e467da3dcc173abc9fad60c01b6104e4565b6103f8674d73b010fc74c71f60c01b6104e4565b5f805f8481526020019081526020015f205f8373ffffffffffffffffffffffffffffffffffffffff1673ffffffffffffffffffffffffffffffffffffffff1681526020019081526020015f205f6101000a81548160ff02191690831515021790555061046e67f799ae37809c474460c01b6104e4565b61048267b1b3807a6fcf0e5c60c01b6104e4565b8073ffffffffffffffffffffffffffffffffffffffff16827f155aaafb6329a2098580462df33ec4b7441b19729b9601c5fc17ae1cf99a8a5260405160405180910390a36104e0565b6104df676261ce9d5cd79cc460c01b6104e4565b5b5050565b50565b6104fb675038ba3755c3acfa60c01b6104e4565b61050f67c13c02fb3f8e693560c01b6104e4565b61052367fed2753d15122a1f60c01b6104e4565b61052d8282610206565b61062d5761054567536729ea2f6a1ab060c01b6104e4565b61055967b95306a9cd7f1f2760c01b6104e4565b60015f808481526020019081526020015f205f8373ffffffffffffffffffffffffffffffffffffffff1673ffffffffffffffffffffffffffffffffffffffff1681526020019081526020015f205f6101000a81548160ff0219169083151502179055506105d067b633de4328b4031460c01b6104e4565b6105e467e4d675e48f86dabc60c01b6104e4565b8073ffffffffffffffffffffffffffffffffffffffff16827f2ae6a113c0ed5b78a53413ffbb7679881f11145ccfba4fb92e863dfcd5a1d2f360405160405180910390a3610642565b6106416702530618b6178d7e60c01b6104e4565b5b5050565b5f8060408385031215610657575f80fd5b82359150602083013573ffffffffffffffffffffffffffffffffffffffff81168114610681575f80fd5b809150509250929050565b5f60208201905082825292915050565b5f60208201905082151582529291505056fea26469706673582212200e8be40fe776a0292dffcf1de3d52b22d08ce0ff526f02002deaac29116b9abf64736f6c63430008150033",
  "linkReferences": {},
  "deployedLinkReferences": {}
}