{
  "_format": "hh-sol-artifact-1",
  "contractName": "EeseeOpenseaRouter",
  "sourceName": "contracts/periphery/routers/EeseeOpenseaRouter.sol",
  "abi": [
    {
      "inputs": [
        {
          "internalType": "contract ISeaport",
          "name": "_seaport",
          "type": "address"
        },
        {
          "internalType": "contract IEeseeAccessManager",
          "name": "_accessManager",
          "type": "address"
        }
      ],
      "stateMutability": "nonpayable",
      "type": "constructor"
    },
    {
      "inputs": [],
      "name": "CallerNotAuthorized",
      "type": "error"
    },
    {
      "inputs": [],
      "name": "ConduitDoesntExist",
      "type": "error"
    },
    {
      "inputs": [],
      "name": "EthDepositRejected",
      "type": "error"
    },
    {
      "inputs": [],
      "name": "InsufficientFunds",
      "type": "error"
    },
    {
      "inputs": [],
      "name": "InvalidOrderType",
      "type": "error"
    },
    {
      "inputs": [],
      "name": "TransferNotSuccessful",
      "type": "error"
    },
    {
      "anonymous": false,
      "inputs": [
        {
          "indexed": false,
          "internalType": "address",
          "name": "account",
          "type": "address"
        }
      ],
      "name": "Paused",
      "type": "event"
    },
    {
      "anonymous": false,
      "inputs": [
        {
          "indexed": false,
          "internalType": "address",
          "name": "account",
          "type": "address"
        }
      ],
      "name": "Unpaused",
      "type": "event"
    },
    {
      "inputs": [],
      "name": "PAUSER_ROLE",
      "outputs": [
        {
          "internalType": "bytes32",
          "name": "",
          "type": "bytes32"
        }
      ],
      "stateMutability": "view",
      "type": "function"
    },
    {
      "inputs": [],
      "name": "accessManager",
      "outputs": [
        {
          "internalType": "contract IEeseeAccessManager",
          "name": "",
          "type": "address"
        }
      ],
      "stateMutability": "view",
      "type": "function"
    },
    {
      "inputs": [
        {
          "internalType": "address",
          "name": "",
          "type": "address"
        },
        {
          "internalType": "address",
          "name": "",
          "type": "address"
        },
        {
          "internalType": "uint256",
          "name": "",
          "type": "uint256"
        },
        {
          "internalType": "bytes",
          "name": "",
          "type": "bytes"
        }
      ],
      "name": "onERC721Received",
      "outputs": [
        {
          "internalType": "bytes4",
          "name": "",
          "type": "bytes4"
        }
      ],
      "stateMutability": "nonpayable",
      "type": "function"
    },
    {
      "inputs": [],
      "name": "pause",
      "outputs": [],
      "stateMutability": "nonpayable",
      "type": "function"
    },
    {
      "inputs": [],
      "name": "paused",
      "outputs": [
        {
          "internalType": "bool",
          "name": "",
          "type": "bool"
        }
      ],
      "stateMutability": "view",
      "type": "function"
    },
    {
      "inputs": [
        {
          "internalType": "bytes",
          "name": "data",
          "type": "bytes"
        },
        {
          "internalType": "address",
          "name": "recipient",
          "type": "address"
        }
      ],
      "name": "purchaseAsset",
      "outputs": [
        {
          "components": [
            {
              "internalType": "address",
              "name": "token",
              "type": "address"
            },
            {
              "internalType": "uint256",
              "name": "tokenID",
              "type": "uint256"
            },
            {
              "internalType": "uint256",
              "name": "amount",
              "type": "uint256"
            },
            {
              "internalType": "enum AssetType",
              "name": "assetType",
              "type": "uint8"
            },
            {
              "internalType": "bytes",
              "name": "data",
              "type": "bytes"
            }
          ],
          "internalType": "struct Asset",
          "name": "asset",
          "type": "tuple"
        },
        {
          "internalType": "uint256",
          "name": "spent",
          "type": "uint256"
        }
      ],
      "stateMutability": "payable",
      "type": "function"
    },
    {
      "inputs": [],
      "name": "seaport",
      "outputs": [
        {
          "internalType": "contract ISeaport",
          "name": "",
          "type": "address"
        }
      ],
      "stateMutability": "view",
      "type": "function"
    },
    {
      "inputs": [],
      "name": "unpause",
      "outputs": [],
      "stateMutability": "nonpayable",
      "type": "function"
    },
    {
      "stateMutability": "payable",
      "type": "receive"
    }
  ],
  "bytecode": "0x60c060405234801562000010575f80fd5b50604051620028253803806200282583398181016040528101906200003691906200012c565b5f805f6101000a81548160ff0219169083151502179055506200006a67b4e8a30edf103a9a60c01b6200011260201b60201c565b62000086673a9371e98423ad4460c01b6200011260201b60201c565b8173ffffffffffffffffffffffffffffffffffffffff1660808173ffffffffffffffffffffffffffffffffffffffff1681525050620000d667fc46992cf459735360c01b6200011260201b60201c565b8073ffffffffffffffffffffffffffffffffffffffff1660a08173ffffffffffffffffffffffffffffffffffffffff168152505050506200016a565b50565b60018060a01b038116811462000129575f80fd5b50565b5f80604083850312156200013e575f80fd5b82516200014b8162000115565b8092505060208301516200015f8162000115565b809150509250929050565b60805160a051612676620001af5f395f8181610fe1015281816111cb015261139901525f81816105fa01528181610a7a01528181610cba015261137501526126765ff3fe60806040526004361061007e575f3560e01c80638456cb591161004d5780638456cb59146101d7578063e63ab1e9146101ed578063f5c7bd7014610217578063fdcb60681461024157610126565b8063150b7a021461012a5780633e19c9e0146101665780633f4ba83a146101975780635c975abb146101ad57610126565b366101265761009767d36589e9dca669f160c01b61026b565b3273ffffffffffffffffffffffffffffffffffffffff163373ffffffffffffffffffffffffffffffffffffffff1603610110576100de674fd72997e9932f5c60c01b61026b565b6040517f1b10b0f900000000000000000000000000000000000000000000000000000000815260040160405180910390fd5b61012467a6286d0a7f49fc9c60c01b61026b565b005b5f80fd5b348015610135575f80fd5b50610150600480360381019061014b9190611b3e565b61026e565b60405161015d9190611baa565b60405180910390f35b610180600480360381019061017b9190611bdc565b610281565b60405161018e929190611d19565b60405180910390f35b3480156101a2575f80fd5b506101ab610f8f565b005b3480156101b8575f80fd5b506101c1611165565b6040516101ce9190611d95565b60405180910390f35b3480156101e2575f80fd5b506101eb611179565b005b3480156101f8575f80fd5b5061020161134f565b60405161020e9190611da7565b60405180910390f35b348015610222575f80fd5b5061022b611373565b6040516102389190611db7565b60405180910390f35b34801561024c575f80fd5b50610255611397565b6040516102629190611ddd565b60405180910390f35b50565b5f63150b7a0260e01b9050949350505050565b610289611936565b5f61029d669254daca2a9bba60c01b61026b565b6102a56113bb565b6102b96790572a7115d81bab60c01b61026b565b6102cd67b68ba6f3ffb04e7960c01b61026b565b6102e16784aff3ac7b23ae0960c01b61026b565b6102f567902cc585efe5842d60c01b61026b565b5f85858101906103059190611ecf565b905061031b674597f262e7e52e8960c01b61026b565b8060400151915061033667b30c7701573c95da60c01b61026b565b61034a67bf76b0f188f4917460c01b61026b565b5f5b816102000151518110156103bd5761036e67d9b4ce7c80d74bfc60c01b61026b565b816102000151818151811061038657610385612036565b5b60200260200101515f01518361039c9190612063565b92506103b2670b5028d0fc8c4cc260c01b61026b565b80600101905061034c565b506103d267cfb3ae7425dadf7060c01b61026b565b6103e667cf5415233152b22260c01b61026b565b5f815f01519050610401671eba7ac4a9ef2fee60c01b61026b565b61041567d6ddb67bc64f704c60c01b61026b565b5f73ffffffffffffffffffffffffffffffffffffffff168173ffffffffffffffffffffffffffffffffffffffff16036108245761045c6754480b78096c766960c01b61026b565b6104706708dc81e77769ab4260c01b61026b565b61048467bab5e1240f36fc5b60c01b61026b565b5f601781111561049757610496611c79565b5b82610100015160178111156104af576104ae611c79565b5b141580156104e75750600160178111156104cc576104cb611c79565b5b82610100015160178111156104e4576104e3611c79565b5b14155b1561053257610500678e0b435b730e86d860c01b61026b565b6040517f688c176f00000000000000000000000000000000000000000000000000000000815260040160405180910390fd5b6105466791b7af4e532a038c60c01b61026b565b61055a67d565c248ade21ced60c01b61026b565b61056e672425e80a6fedb5d160c01b61026b565b823410156105bc5761058a67b4a556f04863161560c01b61026b565b6040517f356680b700000000000000000000000000000000000000000000000000000000815260040160405180910390fd5b6105d067451ee393dae9d66e60c01b61026b565b6105e46759397de572e9ec3c60c01b61026b565b6105f8679e26c0c7b4a5a7e160c01b61026b565b7f000000000000000000000000000000000000000000000000000000000000000073ffffffffffffffffffffffffffffffffffffffff1663fb0f3ee184846040518363ffffffff1660e01b8152600401610652919061211e565b60206040518083038185885af115801561066e573d5f803e3d5ffd5b50505050506040513d601f19601f820116820180604052508101906106939190612291565b506106a867de241dffed6aa46e60c01b61026b565b6106bc674b4fa26d0b94f85760c01b61026b565b34831461080a576106d76704673ce9e3df713360c01b61026b565b6106eb674484a57e5afd855460c01b61026b565b6106ff67f6c16defa0c5aa0660c01b61026b565b61071367956e95fbd7421f0e60c01b61026b565b5f3373ffffffffffffffffffffffffffffffffffffffff1684340360405161073a906122b2565b5f6040518083038185875af1925050503d805f8114610774576040519150601f19603f3d011682016040523d82523d5f602084013e610779565b606091505b50509050610791676b7e42f702cfc17560c01b61026b565b6107a56750a5759a2be9f52260c01b61026b565b806107f0576107be67b4308c55a7fb6e1e60c01b61026b565b6040517fa392ef7800000000000000000000000000000000000000000000000000000000815260040160405180910390fd5b61080467150c21fe9ff4c49860c01b61026b565b5061081f565b61081e6753443e9b2fb30f8560c01b61026b565b5b610e1d565b61083867a1640c7c7684276d60c01b61026b565b61084c67d378b3defdfde07160c01b61026b565b61086067d3f39e433495fdd160c01b61026b565b6008601781111561087457610873611c79565b5b826101000151601781111561088c5761088b611c79565b5b141580156108c45750600960178111156108a9576108a8611c79565b5b82610100015160178111156108c1576108c0611c79565b5b14155b1561090f576108dd6752f259bd6ce6ee3160c01b61026b565b6040517f688c176f00000000000000000000000000000000000000000000000000000000815260040160405180910390fd5b6109236728970bbd44c4ef9560c01b61026b565b610937673a8f6a37ec07c67860c01b61026b565b61094b677ec7572e2d15d81f60c01b61026b565b5f8173ffffffffffffffffffffffffffffffffffffffff166370a08231306040518263ffffffff1660e01b815260040161098591906122bb565b602060405180830381865afa1580156109a0573d5f803e3d5ffd5b505050506040513d601f19601f820116820180604052508101906109c491906122e1565b90506109da677a683b2cd129b22e60c01b61026b565b6109ee6754e5e8bfaee2cb0960c01b61026b565b83811015610a3c57610a0a679833839e6e1dd72b60c01b61026b565b6040517f356680b700000000000000000000000000000000000000000000000000000000815260040160405180910390fd5b610a4f662ebee36e2b954460c01b61026b565b610a6367658eae1d19be290f60c01b61026b565b610a7767ef4ec8f5d69a9d1960c01b61026b565b5f7f000000000000000000000000000000000000000000000000000000000000000073ffffffffffffffffffffffffffffffffffffffff1663f47b77406040518163ffffffff1660e01b81526004015f60405180830381865afa158015610ae0573d5f803e3d5ffd5b505050506040513d5f823e3d601f19601f82011682018060405250810190610b0891906122fb565b92505050610b206737bd32b9e96a070d60c01b61026b565b610b3467554481260626090260c01b61026b565b5f808273ffffffffffffffffffffffffffffffffffffffff16636e9bfd9f876101c001516040518263ffffffff1660e01b8152600401610b749190611da7565b6040805180830381865afa158015610b8e573d5f803e3d5ffd5b505050506040513d601f19601f82011682018060405250810190610bb29190612394565b91509150610bca6784a64ae097db245960c01b61026b565b610bde6734e7a7cf0d5ed13260c01b61026b565b80610c2957610bf76744b4c8ca96d02ce860c01b61026b565b6040517fdcfc780f00000000000000000000000000000000000000000000000000000000815260040160405180910390fd5b610c3d674a721f709a313b5160c01b61026b565b610c51673c9615d3a9b5b63960c01b61026b565b610c6567f54967d458483bb860c01b61026b565b610c9082888773ffffffffffffffffffffffffffffffffffffffff166114059092919063ffffffff16565b610ca467689e39289e5ff6e860c01b61026b565b610cb8676392b842c059909160c01b61026b565b7f000000000000000000000000000000000000000000000000000000000000000073ffffffffffffffffffffffffffffffffffffffff1663fb0f3ee1876040518263ffffffff1660e01b8152600401610d11919061211e565b6020604051808303815f875af1158015610d2d573d5f803e3d5ffd5b505050506040513d601f19601f82011682018060405250810190610d519190612291565b50610d66671daab3d47648e08860c01b61026b565b610d7a6717245d1c5645ee0460c01b61026b565b838714610e0357610d956790725007aaedb7c560c01b61026b565b610da967279974124eca522f60c01b61026b565b610dbd676f1106a8297d30ee60c01b61026b565b610dd16709d05df11fc4e86e60c01b61026b565b610dfe338886038773ffffffffffffffffffffffffffffffffffffffff166115149092919063ffffffff16565b610e18565b610e1767287a0122a5b50d0860c01b61026b565b5b505050505b610e316763f4f422bb34030460c01b61026b565b610e4567ade925e5c8d93dec60c01b61026b565b5f8260a001519050610e61675b18bc97a44cdd0960c01b61026b565b610e7567bab2278fa9ddb6d060c01b61026b565b5f8360c001519050610e916710b4e8d73e45d45860c01b61026b565b6040518060a001604052808373ffffffffffffffffffffffffffffffffffffffff168152602001828152602001600181526020015f6005811115610ed857610ed7611c79565b5b815260200160405180602001604052805f8152508152509550610f0567f846fcc8d75f850860c01b61026b565b610f196703606866d404a62860c01b61026b565b8173ffffffffffffffffffffffffffffffffffffffff166342842e0e3089846040518463ffffffff1660e01b8152600401610f56939291906123c9565b5f604051808303815f87803b158015610f6d575f80fd5b505af1158015610f7f573d5f803e3d5ffd5b5050505050505050935093915050565b610fa367e95294869b6fedbc60c01b61026b565b610fb7678cc5ca9731448b3060c01b61026b565b610fcb672dc7cab40ef15e4260c01b61026b565b610fdf6787701d3b8d2839b660c01b61026b565b7f000000000000000000000000000000000000000000000000000000000000000073ffffffffffffffffffffffffffffffffffffffff166391d148547f65d7a28e3265b37a6474929f336521b332c1681b933f6cb9f3376673440d862a336040518363ffffffff1660e01b815260040161105a929190612401565b602060405180830381865afa158015611075573d5f803e3d5ffd5b505050506040513d601f19601f820116820180604052508101906110999190612291565b6110e3576110b1679ae926d25e3c7b0060c01b61026b565b6040517fc183bcef00000000000000000000000000000000000000000000000000000000815260040160405180910390fd5b6110f7671225eecf627c2bf060c01b61026b565b61110b671dc7696bcf3491a560c01b61026b565b61111f67fb125eef1001ca0860c01b61026b565b611133674094364308a4594760c01b61026b565b6111476787290a9f4a28652560c01b61026b565b61115b67bfea5fa400cab03e60c01b61026b565b61116361159a565b565b5f805f9054906101000a900460ff16905090565b61118d6761cb38dd4e1d131460c01b61026b565b6111a1678cc5ca9731448b3060c01b61026b565b6111b5672dc7cab40ef15e4260c01b61026b565b6111c96787701d3b8d2839b660c01b61026b565b7f000000000000000000000000000000000000000000000000000000000000000073ffffffffffffffffffffffffffffffffffffffff166391d148547f65d7a28e3265b37a6474929f336521b332c1681b933f6cb9f3376673440d862a336040518363ffffffff1660e01b8152600401611244929190612401565b602060405180830381865afa15801561125f573d5f803e3d5ffd5b505050506040513d601f19601f820116820180604052508101906112839190612291565b6112cd5761129b679ae926d25e3c7b0060c01b61026b565b6040517fc183bcef00000000000000000000000000000000000000000000000000000000815260040160405180910390fd5b6112e1671225eecf627c2bf060c01b61026b565b6112f5671dc7696bcf3491a560c01b61026b565b611309670b89491764dd96e460c01b61026b565b61131d679b285d175a64ce7760c01b61026b565b61133167603575f8141cb66260c01b61026b565b611345677ddf8279f5faeb4b60c01b61026b565b61134d6115fa565b565b7f65d7a28e3265b37a6474929f336521b332c1681b933f6cb9f3376673440d862a81565b7f000000000000000000000000000000000000000000000000000000000000000081565b7f000000000000000000000000000000000000000000000000000000000000000081565b6113c3611165565b15611403576040517f08c379a00000000000000000000000000000000000000000000000000000000081526004016113fa9061242e565b60405180910390fd5b565b5f8373ffffffffffffffffffffffffffffffffffffffff1663dd62ed3e30856040518363ffffffff1660e01b815260040161144192919061246b565b602060405180830381865afa15801561145c573d5f803e3d5ffd5b505050506040513d601f19601f8201168201806040525081019061148091906122e1565b905061150e8463095ea7b360e01b85858561149b9190612063565b6040516024016114ac92919061249c565b604051602081830303815290604052907bffffffffffffffffffffffffffffffffffffffffffffffffffffffff19166020820180517bffffffffffffffffffffffffffffffffffffffffffffffffffffffff838183161783525050505061165b565b50505050565b6115958363a9059cbb60e01b848460405160240161153392919061249c565b604051602081830303815290604052907bffffffffffffffffffffffffffffffffffffffffffffffffffffffff19166020820180517bffffffffffffffffffffffffffffffffffffffffffffffffffffffff838183161783525050505061165b565b505050565b6115a2611721565b5f805f6101000a81548160ff0219169083151502179055507f5db9ee0a495bf2e6ff9c91a7834c1ba4fdd244a5e8aa4e537bd38aeae4b073aa6115e361176a565b6040516115f091906122bb565b60405180910390a1565b6116026113bb565b60015f806101000a81548160ff0219169083151502179055507f62e78cea01bee320cd4e420270b5ea74000d11b0c9f74754ebdbfc544b05a25861164461176a565b60405161165191906122bb565b60405180910390a1565b5f6116bc826040518060400160405280602081526020017f5361666545524332303a206c6f772d6c6576656c2063616c6c206661696c65648152508573ffffffffffffffffffffffffffffffffffffffff166117719092919063ffffffff16565b90505f815114806116dd5750808060200190518101906116dc9190612291565b5b61171c576040517f08c379a0000000000000000000000000000000000000000000000000000000008152600401611713906124c9565b60405180910390fd5b505050565b611729611165565b611768576040517f08c379a000000000000000000000000000000000000000000000000000000000815260040161175f9061252c565b60405180910390fd5b565b5f33905090565b606061177f84845f85611788565b90509392505050565b6060824710156117cd576040517f08c379a00000000000000000000000000000000000000000000000000000000081526004016117c490612569565b60405180910390fd5b5f808673ffffffffffffffffffffffffffffffffffffffff1685876040516117f591906125cc565b5f6040518083038185875af1925050503d805f811461182f576040519150601f19603f3d011682016040523d82523d5f602084013e611834565b606091505b509150915061184587838387611851565b92505050949350505050565b606083156118b2575f8351036118aa5761186a856118c5565b6118a9576040517f08c379a00000000000000000000000000000000000000000000000000000000081526004016118a0906125e9565b60405180910390fd5b5b8290506118bd565b6118bc83836118e7565b5b949350505050565b5f808273ffffffffffffffffffffffffffffffffffffffff163b119050919050565b5f825111156118f95781518083602001fd5b806040517f08c379a000000000000000000000000000000000000000000000000000000000815260040161192d9190612626565b60405180910390fd5b6040518060a001604052805f73ffffffffffffffffffffffffffffffffffffffff1681526020015f81526020015f81526020015f600581111561197c5761197b611c79565b5b8152602001606081525090565b73ffffffffffffffffffffffffffffffffffffffff811681146119aa575f80fd5b50565b5f813590506119bb81611989565b919050565b7f4e487b71000000000000000000000000000000000000000000000000000000005f52604160045260245ffd5b5f60405190506040810181811067ffffffffffffffff82111715611a1457611a136119c0565b5b806040525090565b5f6040519050610240810181811067ffffffffffffffff82111715611a4457611a436119c0565b5b806040525090565b5f60405190507fffffffffffffffffffffffffffffffffffffffffffffffffffffffffffffffe0601f830116810181811067ffffffffffffffff82111715611a9757611a966119c0565b5b8060405250919050565b5f67ffffffffffffffff821115611abb57611aba6119c0565b5b60207fffffffffffffffffffffffffffffffffffffffffffffffffffffffffffffffe0601f840116019050919050565b5f82601f830112611afa575f80fd5b8135611b0d611b0882611aa1565b611a4c565b818152846020838601011115611b21575f80fd5b816020850160208301375f60208383010152809250505092915050565b5f805f8060808587031215611b51575f80fd5b8435611b5c81611989565b809450506020850135611b6e81611989565b8093505060408501359150606085013567ffffffffffffffff811115611b92575f80fd5b611b9e87828801611aeb565b91505092959194509250565b5f6020820190507fffffffff000000000000000000000000000000000000000000000000000000008316825292915050565b5f805f60408486031215611bee575f80fd5b833567ffffffffffffffff80821115611c05575f80fd5b818601915086601f830112611c18575f80fd5b813581811115611c26575f80fd5b876020828501011115611c37575f80fd5b6020830195508094505050506020840135611c5181611989565b809150509250925092565b73ffffffffffffffffffffffffffffffffffffffff811682525050565b7f4e487b71000000000000000000000000000000000000000000000000000000005f52602160045260245ffd5b5f5b83811015611cc3578082015181840152602081019050611ca8565b505f83830152505050565b5f8151808452611ce5816020860160208601611ca6565b60207fffffffffffffffffffffffffffffffffffffffffffffffffffffffffffffffe0601f83011685010191505092915050565b6040815273ffffffffffffffffffffffffffffffffffffffff835116604082015260208301516060820152604083015160808201525f606084015160068110611d6557611d64611c79565b5b8060a084015250608084015160a060c0840152611d8560e0840182611cce565b9150508260208301529392505050565b5f602082019050821515825292915050565b5f60208201905082825292915050565b5f60208201905073ffffffffffffffffffffffffffffffffffffffff8316825292915050565b5f60208201905073ffffffffffffffffffffffffffffffffffffffff8316825292915050565b5f8135905060188110611e14575f80fd5b919050565b5f82601f830112611e28575f80fd5b8135602067ffffffffffffffff821115611e4557611e446119c0565b5b611e53818360051b01611a4c565b808382528282019150828460061b870101935086841115611e72575f80fd5b8286015b84811015611ec15760408189031215611e8e575f8081fd5b611e966119ed565b8135815284820135611ea781611989565b808683015250808452508383019250604081019050611e76565b508094505050505092915050565b5f60208284031215611edf575f80fd5b813567ffffffffffffffff80821115611ef6575f80fd5b81840191506102408286031215611f0b575f80fd5b611f13611a1c565b611f1c836119ad565b81526020830135602082015260408301356040820152611f3e606084016119ad565b6060820152611f4f608084016119ad565b6080820152611f6060a084016119ad565b60a082015260c083013560c082015260e083013560e0820152610100611f87818501611e03565b81830152506101208084013581830152506101408084013581830152506101608084013581830152506101808084013581830152506101a08084013581830152506101c08084013581830152506101e08084013581830152506102008084013583811115611ff3575f80fd5b611fff88828701611e19565b8284015250506102208084013583811115612018575f80fd5b61202488828701611aeb565b82840152505080935050505092915050565b7f4e487b71000000000000000000000000000000000000000000000000000000005f52603260045260245ffd5b5f82820190508082111561209e577f4e487b71000000000000000000000000000000000000000000000000000000005f52601160045260245ffd5b92915050565b601881106120b5576120b4611c79565b5b8082525050565b5f8151808452602080850194508084015f5b838110156121115781518051885273ffffffffffffffffffffffffffffffffffffffff8482015116848901525060408701965082820191506001810190506120ce565b5050505082905092915050565b60208152612130602082018351611c5c565b60208201516040820152604082015160608201525f60608301516121576080840182611c5c565b50608083015161216a60a0840182611c5c565b5060a083015161217d60c0840182611c5c565b5060c083015160e083015260e08301516101008181850152808501519150506101206121ab818501836120a4565b808501519150506101408181850152808501519150506101608181850152808501519150506101808181850152808501519150506101a08181850152808501519150506101c08181850152808501519150506101e081818501528085015191505061020081818501528085015191505061024061022081818601526122346102608601846120bc565b92508086015190507fffffffffffffffffffffffffffffffffffffffffffffffffffffffffffffffe0858403018286015261226f8382611cce565b935050505092915050565b5f81519050801515811461228c575f80fd5b919050565b5f602082840312156122a1575f80fd5b6122aa8261227a565b905092915050565b5f819050919050565b5f60208201905073ffffffffffffffffffffffffffffffffffffffff8316825292915050565b5f602082840312156122f1575f80fd5b8151905092915050565b5f805f6060848603121561230d575f80fd5b835167ffffffffffffffff811115612323575f80fd5b808501905085601f820112612336575f80fd5b805161234961234482611aa1565b611a4c565b81815287602083850101111561235d575f80fd5b61236e826020830160208601611ca6565b80955050505060208401519150604084015161238981611989565b809150509250925092565b5f80604083850312156123a5575f80fd5b82516123b081611989565b809250506123c06020840161227a565b90509250929050565b5f60608201905073ffffffffffffffffffffffffffffffffffffffff8086168352808516602084015250826040830152949350505050565b5f60408201905083825273ffffffffffffffffffffffffffffffffffffffff831660208301529392505050565b60208152601060208201527f5061757361626c653a207061757365640000000000000000000000000000000060408201525f606082019050919050565b5f60408201905073ffffffffffffffffffffffffffffffffffffffff80851683528084166020840152509392505050565b5f60408201905073ffffffffffffffffffffffffffffffffffffffff841682528260208301529392505050565b60208152602a60208201527f5361666545524332303a204552433230206f7065726174696f6e20646964206e60408201527f6f7420737563636565640000000000000000000000000000000000000000000060608201525f608082019050919050565b60208152601460208201527f5061757361626c653a206e6f742070617573656400000000000000000000000060408201525f606082019050919050565b60208152602660208201527f416464726573733a20696e73756666696369656e742062616c616e636520666f60408201527f722063616c6c000000000000000000000000000000000000000000000000000060608201525f608082019050919050565b5f82516125dd818460208701611ca6565b80830191505092915050565b60208152601d60208201527f416464726573733a2063616c6c20746f206e6f6e2d636f6e747261637400000060408201525f606082019050919050565b602081525f6126386020830184611cce565b90509291505056fea2646970667358221220cf037bf1153a5b721c32b076609b4340fda3f7d614ded38ba8712f8e1d626dc364736f6c63430008150033",
  "linkReferences": {},
  "deployedLinkReferences": {}
}