{
  "_format": "hh-sol-artifact-1",
  "contractName": "EeseePaymaster",
  "sourceName": "contracts/periphery/EeseePaymaster.sol",
  "abi": [
    {
      "inputs": [
        {
          "internalType": "contract IERC20",
          "name": "_ESE",
          "type": "address"
        },
        {
          "internalType": "contract IRelayHub",
          "name": "_relayHub",
          "type": "address"
        },
        {
          "internalType": "address",
          "name": "_trustedForwarder",
          "type": "address"
        },
        {
          "internalType": "contract IEeseeAccessManager",
          "name": "_accessManager",
          "type": "address"
        }
      ],
      "stateMutability": "nonpayable",
      "type": "constructor"
    },
    {
      "inputs": [],
      "name": "ActualChargeHigher",
      "type": "error"
    },
    {
      "inputs": [],
      "name": "AddressNotApproved",
      "type": "error"
    },
    {
      "inputs": [],
      "name": "AlreadyApproved",
      "type": "error"
    },
    {
      "inputs": [],
      "name": "CallerNotAuthorized",
      "type": "error"
    },
    {
      "inputs": [],
      "name": "ExpiredDeadline",
      "type": "error"
    },
    {
      "inputs": [],
      "name": "InvalidConstructor",
      "type": "error"
    },
    {
      "inputs": [],
      "name": "InvalidSender",
      "type": "error"
    },
    {
      "inputs": [],
      "name": "InvalidShortString",
      "type": "error"
    },
    {
      "inputs": [],
      "name": "InvalidSignature",
      "type": "error"
    },
    {
      "inputs": [
        {
          "internalType": "string",
          "name": "str",
          "type": "string"
        }
      ],
      "name": "StringTooLong",
      "type": "error"
    },
    {
      "anonymous": false,
      "inputs": [
        {
          "indexed": true,
          "internalType": "address",
          "name": "_contract",
          "type": "address"
        }
      ],
      "name": "ApproveContract",
      "type": "event"
    },
    {
      "anonymous": false,
      "inputs": [],
      "name": "EIP712DomainChanged",
      "type": "event"
    },
    {
      "anonymous": false,
      "inputs": [
        {
          "indexed": true,
          "internalType": "address",
          "name": "previousOwner",
          "type": "address"
        },
        {
          "indexed": true,
          "internalType": "address",
          "name": "newOwner",
          "type": "address"
        }
      ],
      "name": "OwnershipTransferred",
      "type": "event"
    },
    {
      "anonymous": false,
      "inputs": [
        {
          "indexed": true,
          "internalType": "address",
          "name": "sender",
          "type": "address"
        },
        {
          "indexed": false,
          "internalType": "uint256",
          "name": "eth",
          "type": "uint256"
        }
      ],
      "name": "Refilled",
      "type": "event"
    },
    {
      "anonymous": false,
      "inputs": [
        {
          "indexed": true,
          "internalType": "address",
          "name": "_contract",
          "type": "address"
        }
      ],
      "name": "RevokeContractApproval",
      "type": "event"
    },
    {
      "anonymous": false,
      "inputs": [
        {
          "indexed": true,
          "internalType": "address",
          "name": "payer",
          "type": "address"
        },
        {
          "indexed": true,
          "internalType": "uint256",
          "name": "nonce",
          "type": "uint256"
        },
        {
          "indexed": false,
          "internalType": "uint256",
          "name": "gasUseWithPost",
          "type": "uint256"
        },
        {
          "indexed": false,
          "internalType": "uint256",
          "name": "tokenActualCharge",
          "type": "uint256"
        },
        {
          "indexed": false,
          "internalType": "uint256",
          "name": "ethActualCharge",
          "type": "uint256"
        },
        {
          "indexed": false,
          "internalType": "uint256",
          "name": "actualDiscount",
          "type": "uint256"
        }
      ],
      "name": "TokensCharged",
      "type": "event"
    },
    {
      "anonymous": false,
      "inputs": [
        {
          "indexed": true,
          "internalType": "address",
          "name": "to",
          "type": "address"
        },
        {
          "indexed": false,
          "internalType": "uint256",
          "name": "amount",
          "type": "uint256"
        }
      ],
      "name": "Withdrawn",
      "type": "event"
    },
    {
      "inputs": [],
      "name": "ADMIN_ROLE",
      "outputs": [
        {
          "internalType": "bytes32",
          "name": "",
          "type": "bytes32"
        }
      ],
      "stateMutability": "view",
      "type": "function"
    },
    {
      "inputs": [],
      "name": "CALLDATA_SIZE_LIMIT",
      "outputs": [
        {
          "internalType": "uint256",
          "name": "",
          "type": "uint256"
        }
      ],
      "stateMutability": "view",
      "type": "function"
    },
    {
      "inputs": [],
      "name": "ESE",
      "outputs": [
        {
          "internalType": "contract IERC20",
          "name": "",
          "type": "address"
        }
      ],
      "stateMutability": "view",
      "type": "function"
    },
    {
      "inputs": [],
      "name": "FORWARDER_HUB_OVERHEAD",
      "outputs": [
        {
          "internalType": "uint256",
          "name": "",
          "type": "uint256"
        }
      ],
      "stateMutability": "view",
      "type": "function"
    },
    {
      "inputs": [],
      "name": "PAYMASTER_ACCEPTANCE_BUDGET",
      "outputs": [
        {
          "internalType": "uint256",
          "name": "",
          "type": "uint256"
        }
      ],
      "stateMutability": "view",
      "type": "function"
    },
    {
      "inputs": [],
      "name": "POST_RELAYED_CALL_GAS_LIMIT",
      "outputs": [
        {
          "internalType": "uint256",
          "name": "",
          "type": "uint256"
        }
      ],
      "stateMutability": "view",
      "type": "function"
    },
    {
      "inputs": [],
      "name": "PRE_RELAYED_CALL_GAS_LIMIT",
      "outputs": [
        {
          "internalType": "uint256",
          "name": "",
          "type": "uint256"
        }
      ],
      "stateMutability": "view",
      "type": "function"
    },
    {
      "inputs": [],
      "name": "SIGNER_ROLE",
      "outputs": [
        {
          "internalType": "bytes32",
          "name": "",
          "type": "bytes32"
        }
      ],
      "stateMutability": "view",
      "type": "function"
    },
    {
      "inputs": [],
      "name": "accessManager",
      "outputs": [
        {
          "internalType": "contract IEeseeAccessManager",
          "name": "",
          "type": "address"
        }
      ],
      "stateMutability": "view",
      "type": "function"
    },
    {
      "inputs": [
        {
          "internalType": "address",
          "name": "_address",
          "type": "address"
        }
      ],
      "name": "approveContract",
      "outputs": [],
      "stateMutability": "nonpayable",
      "type": "function"
    },
    {
      "inputs": [
        {
          "internalType": "address",
          "name": "",
          "type": "address"
        }
      ],
      "name": "approvedContracts",
      "outputs": [
        {
          "internalType": "bool",
          "name": "",
          "type": "bool"
        }
      ],
      "stateMutability": "view",
      "type": "function"
    },
    {
      "inputs": [],
      "name": "eip712Domain",
      "outputs": [
        {
          "internalType": "bytes1",
          "name": "fields",
          "type": "bytes1"
        },
        {
          "internalType": "string",
          "name": "name",
          "type": "string"
        },
        {
          "internalType": "string",
          "name": "version",
          "type": "string"
        },
        {
          "internalType": "uint256",
          "name": "chainId",
          "type": "uint256"
        },
        {
          "internalType": "address",
          "name": "verifyingContract",
          "type": "address"
        },
        {
          "internalType": "bytes32",
          "name": "salt",
          "type": "bytes32"
        },
        {
          "internalType": "uint256[]",
          "name": "extensions",
          "type": "uint256[]"
        }
      ],
      "stateMutability": "view",
      "type": "function"
    },
    {
      "inputs": [],
      "name": "getGasAndDataLimits",
      "outputs": [
        {
          "components": [
            {
              "internalType": "uint256",
              "name": "acceptanceBudget",
              "type": "uint256"
            },
            {
              "internalType": "uint256",
              "name": "preRelayedCallGasLimit",
              "type": "uint256"
            },
            {
              "internalType": "uint256",
              "name": "postRelayedCallGasLimit",
              "type": "uint256"
            },
            {
              "internalType": "uint256",
              "name": "calldataSizeLimit",
              "type": "uint256"
            }
          ],
          "internalType": "struct IPaymaster.GasAndDataLimits",
          "name": "limits",
          "type": "tuple"
        }
      ],
      "stateMutability": "pure",
      "type": "function"
    },
    {
      "inputs": [],
      "name": "getRelayHub",
      "outputs": [
        {
          "internalType": "address",
          "name": "",
          "type": "address"
        }
      ],
      "stateMutability": "view",
      "type": "function"
    },
    {
      "inputs": [],
      "name": "getTrustedForwarder",
      "outputs": [
        {
          "internalType": "address",
          "name": "",
          "type": "address"
        }
      ],
      "stateMutability": "view",
      "type": "function"
    },
    {
      "inputs": [
        {
          "internalType": "address",
          "name": "",
          "type": "address"
        }
      ],
      "name": "nonces",
      "outputs": [
        {
          "internalType": "uint256",
          "name": "",
          "type": "uint256"
        }
      ],
      "stateMutability": "view",
      "type": "function"
    },
    {
      "inputs": [],
      "name": "owner",
      "outputs": [
        {
          "internalType": "address",
          "name": "",
          "type": "address"
        }
      ],
      "stateMutability": "view",
      "type": "function"
    },
    {
      "inputs": [
        {
          "internalType": "bytes",
          "name": "context",
          "type": "bytes"
        },
        {
          "internalType": "bool",
          "name": "success",
          "type": "bool"
        },
        {
          "internalType": "uint256",
          "name": "gasUseWithoutPost",
          "type": "uint256"
        },
        {
          "components": [
            {
              "internalType": "uint256",
              "name": "maxFeePerGas",
              "type": "uint256"
            },
            {
              "internalType": "uint256",
              "name": "maxPriorityFeePerGas",
              "type": "uint256"
            },
            {
              "internalType": "uint256",
              "name": "transactionCalldataGasUsed",
              "type": "uint256"
            },
            {
              "internalType": "address",
              "name": "relayWorker",
              "type": "address"
            },
            {
              "internalType": "address",
              "name": "paymaster",
              "type": "address"
            },
            {
              "internalType": "address",
              "name": "forwarder",
              "type": "address"
            },
            {
              "internalType": "bytes",
              "name": "paymasterData",
              "type": "bytes"
            },
            {
              "internalType": "uint256",
              "name": "clientId",
              "type": "uint256"
            }
          ],
          "internalType": "struct GsnTypes.RelayData",
          "name": "relayData",
          "type": "tuple"
        }
      ],
      "name": "postRelayedCall",
      "outputs": [],
      "stateMutability": "nonpayable",
      "type": "function"
    },
    {
      "inputs": [
        {
          "components": [
            {
              "components": [
                {
                  "internalType": "address",
                  "name": "from",
                  "type": "address"
                },
                {
                  "internalType": "address",
                  "name": "to",
                  "type": "address"
                },
                {
                  "internalType": "uint256",
                  "name": "value",
                  "type": "uint256"
                },
                {
                  "internalType": "uint256",
                  "name": "gas",
                  "type": "uint256"
                },
                {
                  "internalType": "uint256",
                  "name": "nonce",
                  "type": "uint256"
                },
                {
                  "internalType": "bytes",
                  "name": "data",
                  "type": "bytes"
                },
                {
                  "internalType": "uint256",
                  "name": "validUntilTime",
                  "type": "uint256"
                }
              ],
              "internalType": "struct IForwarder.ForwardRequest",
              "name": "request",
              "type": "tuple"
            },
            {
              "components": [
                {
                  "internalType": "uint256",
                  "name": "maxFeePerGas",
                  "type": "uint256"
                },
                {
                  "internalType": "uint256",
                  "name": "maxPriorityFeePerGas",
                  "type": "uint256"
                },
                {
                  "internalType": "uint256",
                  "name": "transactionCalldataGasUsed",
                  "type": "uint256"
                },
                {
                  "internalType": "address",
                  "name": "relayWorker",
                  "type": "address"
                },
                {
                  "internalType": "address",
                  "name": "paymaster",
                  "type": "address"
                },
                {
                  "internalType": "address",
                  "name": "forwarder",
                  "type": "address"
                },
                {
                  "internalType": "bytes",
                  "name": "paymasterData",
                  "type": "bytes"
                },
                {
                  "internalType": "uint256",
                  "name": "clientId",
                  "type": "uint256"
                }
              ],
              "internalType": "struct GsnTypes.RelayData",
              "name": "relayData",
              "type": "tuple"
            }
          ],
          "internalType": "struct GsnTypes.RelayRequest",
          "name": "relayRequest",
          "type": "tuple"
        },
        {
          "internalType": "bytes",
          "name": "signature",
          "type": "bytes"
        },
        {
          "internalType": "bytes",
          "name": "approvalData",
          "type": "bytes"
        },
        {
          "internalType": "uint256",
          "name": "maxPossibleGas",
          "type": "uint256"
        }
      ],
      "name": "preRelayedCall",
      "outputs": [
        {
          "internalType": "bytes",
          "name": "",
          "type": "bytes"
        },
        {
          "internalType": "bool",
          "name": "",
          "type": "bool"
        }
      ],
      "stateMutability": "nonpayable",
      "type": "function"
    },
    {
      "inputs": [],
      "name": "renounceOwnership",
      "outputs": [],
      "stateMutability": "nonpayable",
      "type": "function"
    },
    {
      "inputs": [
        {
          "internalType": "address",
          "name": "_address",
          "type": "address"
        }
      ],
      "name": "revokeContractApproval",
      "outputs": [],
      "stateMutability": "nonpayable",
      "type": "function"
    },
    {
      "inputs": [
        {
          "internalType": "contract IRelayHub",
          "name": "hub",
          "type": "address"
        }
      ],
      "name": "setRelayHub",
      "outputs": [],
      "stateMutability": "nonpayable",
      "type": "function"
    },
    {
      "inputs": [
        {
          "internalType": "address",
          "name": "forwarder",
          "type": "address"
        }
      ],
      "name": "setTrustedForwarder",
      "outputs": [],
      "stateMutability": "nonpayable",
      "type": "function"
    },
    {
      "inputs": [
        {
          "internalType": "bytes4",
          "name": "interfaceId",
          "type": "bytes4"
        }
      ],
      "name": "supportsInterface",
      "outputs": [
        {
          "internalType": "bool",
          "name": "",
          "type": "bool"
        }
      ],
      "stateMutability": "view",
      "type": "function"
    },
    {
      "inputs": [
        {
          "internalType": "address",
          "name": "newOwner",
          "type": "address"
        }
      ],
      "name": "transferOwnership",
      "outputs": [],
      "stateMutability": "nonpayable",
      "type": "function"
    },
    {
      "inputs": [],
      "name": "versionPaymaster",
      "outputs": [
        {
          "internalType": "string",
          "name": "",
          "type": "string"
        }
      ],
      "stateMutability": "pure",
      "type": "function"
    },
    {
      "inputs": [
        {
          "internalType": "uint256",
          "name": "amount",
          "type": "uint256"
        },
        {
          "internalType": "address payable",
          "name": "target",
          "type": "address"
        }
      ],
      "name": "withdrawRelayHubDepositTo",
      "outputs": [],
      "stateMutability": "nonpayable",
      "type": "function"
    },
    {
      "inputs": [
        {
          "internalType": "address",
          "name": "target",
          "type": "address"
        }
      ],
      "name": "withdrawTokens",
      "outputs": [
        {
          "internalType": "uint256",
          "name": "amount",
          "type": "uint256"
        }
      ],
      "stateMutability": "nonpayable",
      "type": "function"
    },
    {
      "stateMutability": "payable",
      "type": "receive"
    }
  ],
  "bytecode": "0x6101c060405234801562000011575f80fd5b5060405162004906380380620049068339818101604052810190620000379190620008ef565b6040518060400160405280600e81526020017f45657365655061796d61737465720000000000000000000000000000000000008152506040518060400160405280600181526020017f3100000000000000000000000000000000000000000000000000000000000000815250620000c3620000b76200031f60201b60201c565b6200032660201b60201c565b620000d9600383620003e760201b90919060201c565b6101208181525050620000f7600482620003e760201b90919060201c565b6101408181525050818051906020012060e08181525050808051906020012061010081815250504660a08181525050620001366200043c60201b60201c565b608081815250503073ffffffffffffffffffffffffffffffffffffffff1660c08173ffffffffffffffffffffffffffffffffffffffff168152505050505f73ffffffffffffffffffffffffffffffffffffffff168473ffffffffffffffffffffffffffffffffffffffff161480620001d957505f73ffffffffffffffffffffffffffffffffffffffff168173ffffffffffffffffffffffffffffffffffffffff16145b1562000211576040517f12c1701b00000000000000000000000000000000000000000000000000000000815260040160405180910390fd5b8373ffffffffffffffffffffffffffffffffffffffff166101608173ffffffffffffffffffffffffffffffffffffffff16815250508073ffffffffffffffffffffffffffffffffffffffff166101808173ffffffffffffffffffffffffffffffffffffffff16815250508073ffffffffffffffffffffffffffffffffffffffff166375b238fc6040518163ffffffff1660e01b8152600401602060405180830381865afa158015620002c5573d5f803e3d5ffd5b505050506040513d601f19601f82011682018060405250810190620002eb919062000959565b6101a0818152505062000304836200049860201b60201c565b62000315826200057860201b60201c565b5050505062000c9f565b5f33905090565b5f805f9054906101000a900473ffffffffffffffffffffffffffffffffffffffff169050815f806101000a81548173ffffffffffffffffffffffffffffffffffffffff021916908373ffffffffffffffffffffffffffffffffffffffff1602179055508173ffffffffffffffffffffffffffffffffffffffff168173ffffffffffffffffffffffffffffffffffffffff167f8be0079c531659141344cd1fd0a4f28419497f9722a3daafe3b4186f6b6457e060405160405180910390a35050565b5f6020835110156200040c5762000404836200065860201b60201c565b905062000436565b826200041e83620006c260201b60201c565b5f0190816200042e919062000a41565b5060ff5f1b90505b92915050565b5f7f8b73c3c69bb8fe3d512ecc4cf759cc79239f7b179b0ffacaa9a75d522b39400f60e0516101005146306040516020016200047d95949392919062000b16565b60405160208183030381529060405280519060200120905090565b620004a8620006cb60201b60201c565b620004f37fe9fb30f7000000000000000000000000000000000000000000000000000000008273ffffffffffffffffffffffffffffffffffffffff166200078960201b90919060201c565b62000535576040517f08c379a00000000000000000000000000000000000000000000000000000000081526004016200052c9062000b4a565b60405180910390fd5b8060015f6101000a81548173ffffffffffffffffffffffffffffffffffffffff021916908373ffffffffffffffffffffffffffffffffffffffff16021790555050565b62000588620006cb60201b60201c565b620005d37f25e23e64000000000000000000000000000000000000000000000000000000008273ffffffffffffffffffffffffffffffffffffffff166200078960201b90919060201c565b62000615576040517f08c379a00000000000000000000000000000000000000000000000000000000081526004016200060c9062000b87565b60405180910390fd5b8060025f6101000a81548173ffffffffffffffffffffffffffffffffffffffff021916908373ffffffffffffffffffffffffffffffffffffffff16021790555050565b5f80829050601f81511115620006a757826040517f305a27a90000000000000000000000000000000000000000000000000000000081526004016200069e919062000bc3565b60405180910390fd5b805181620006b59062000c13565b5f1c175f1b915050919050565b5f819050919050565b6101805173ffffffffffffffffffffffffffffffffffffffff166391d148546101a051336040518363ffffffff1660e01b81526004016200070e92919062000c3c565b602060405180830381865afa1580156200072a573d5f803e3d5ffd5b505050506040513d601f19601f8201168201806040525081019062000750919062000c5b565b62000787576040517fc183bcef00000000000000000000000000000000000000000000000000000000815260040160405180910390fd5b565b5f6200079b83620007be60201b60201c565b8015620007b65750620007b583836200081b60201b60201c565b5b905092915050565b5f620007f1827f01ffc9a7000000000000000000000000000000000000000000000000000000006200081b60201b60201c565b8015620008145750620008128263ffffffff60e01b6200081b60201b60201c565b155b9050919050565b5f806301ffc9a760e01b8360405160240162000838919062000c86565b604051602081830303815290604052907bffffffffffffffffffffffffffffffffffffffffffffffffffffffff19166020820180517bffffffffffffffffffffffffffffffffffffffffffffffffffffffff838183161783525050505090505f805f60205f8551602087018a617530fa92503d91505f519050828015620008c0575060208210155b8015620008cc57505f81115b94505050505092915050565b60018060a01b0381168114620008ec575f80fd5b50565b5f805f806080858703121562000903575f80fd5b84516200091081620008d8565b8094505060208501516200092481620008d8565b8093505060408501516200093881620008d8565b8092505060608501516200094c81620008d8565b8091505092959194509250565b5f602082840312156200096a575f80fd5b8151905092915050565b634e487b7160e01b5f52604160045260245ffd5b5f8160011c90506001821680620009a057607f821691505b602082108103620009bf57634e487b7160e01b5f52602260045260245ffd5b50919050565b805f52505f60205f20905090565b601f82111562000a24575f81815260208120601f850160051c81016020861015620009fc578190505b601f850160051c820191505b8181101562000a205782815560018101905062000a08565b5050505b505050565b5f8260011b5f198460031b1c19831617905092915050565b815160018060401b0381111562000a5d5762000a5c62000974565b5b62000a758162000a6e845462000988565b84620009d3565b5f6020809150601f83116001811462000aac575f841562000a97578387015190505b62000aa3858262000a29565b86555062000b0e565b601f19841662000abc86620009c5565b5f5b8281101562000ae3578589015182556001820191508486019550848101905062000abe565b508582101562000b0257848801515f1960f88860031b161c1981168255505b505060018460011b0185555b505050505050565b5f60a08201905086825285602083015284604083015283606083015260018060a01b03831660808301529695505050505050565b60208152601f60208201527f746172676574206973206e6f7420612076616c6964204952656c61794875620060408201525f606082019050919050565b602081526020808201527f746172676574206973206e6f7420612076616c69642049466f7277617264657260408201525f606082019050919050565b5f6020808352835180828501525f5b8181101562000bf35782818701015160408287010152828101905062000bd2565b505f604082860101526040601f19601f8301168501019250505092915050565b5f815160208301519150602081101562000c36575f198160200360031b1b821691505b50919050565b5f60408201905083825260018060a01b03831660208301529392505050565b5f6020828403121562000c6c575f80fd5b8151801515811462000c7c575f80fd5b8091505092915050565b5f60208201905063ffffffff60e01b8316825292915050565b60805160a05160c05160e05161010051610120516101405161016051610180516101a051613bbf62000d475f395f8181610cf4015261199e01525f81816111da0152818161162c015261196201525f8181610ba301528181610c4201528181610d18015281816117ab015281816118720152611c2801525f610eaa01525f610e7601525f61276901525f61274801525f61238f01525f6123e501525f61240e0152613bbf5ff3fe6080604052600436106101b9575f3560e01c80637ecebe00116100eb578063bbdaa3c911610089578063df463a6611610063578063df463a66146106cc578063f2fde38b146106f6578063f9c002f71461071e578063fdcb60681461074857610297565b8063bbdaa3c914610650578063ce1b815f1461067a578063da742228146106a457610297565b8063921276ea116100c5578063921276ea146105a8578063a1ebf35d146105d2578063b039a88f146105fc578063b90b41cf1461062657610297565b80637ecebe001461051257806384b0196e1461054e5780638da5cb5b1461057e57610297565b80635c5e3db111610158578063764bd0c511610132578063764bd0c51461046e57806376fa01c3146104985780637bb05264146104c05780637bdf2ec7146104e857610297565b80635c5e3db114610404578063715018a61461042e57806375b238fc1461044457610297565b806326749ad71161019457806326749ad71461033c5780632d14c4b71461037857806345f32ae4146103a057806349df728c146103c857610297565b8062be5dd41461029b57806301ffc9a7146102d857806307f7aafb1461031457610297565b366102975760015f9054906101000a900473ffffffffffffffffffffffffffffffffffffffff1673ffffffffffffffffffffffffffffffffffffffff1663aa67c91934306040518363ffffffff1660e01b815260040161021991906129a8565b5f604051808303818588803b158015610230575f80fd5b505af1158015610242573d5f803e3d5ffd5b50505050503373ffffffffffffffffffffffffffffffffffffffff167f4d80e14d10543f915e41bafd49057f54fccc6660b5e91ede43c9f34894f7d8053460405161028d91906129ce565b60405180910390a2005b5f80fd5b3480156102a6575f80fd5b506102c160048036038101906102bc9190612a24565b610772565b6040516102cf929190612b3d565b60405180910390f35b3480156102e3575f80fd5b506102fe60048036038101906102f99190612b60565b6107bf565b60405161030b9190612ba9565b60405180910390f35b34801561031f575f80fd5b5061033a60048036038101906103359190612bf2565b6108a0565b005b348015610347575f80fd5b50610362600480360381019061035d9190612bf2565b6109c4565b60405161036f9190612ba9565b60405180910390f35b348015610383575f80fd5b5061039e60048036038101906103999190612c17565b6109e1565b005b3480156103ab575f80fd5b506103c660048036038101906103c19190612bf2565b610a76565b005b3480156103d3575f80fd5b506103ee60048036038101906103e99190612bf2565b610b98565b6040516103fb91906129ce565b60405180910390f35b34801561040f575f80fd5b50610418610cd9565b60405161042591906129ce565b60405180910390f35b348015610439575f80fd5b50610442610cdf565b005b34801561044f575f80fd5b50610458610cf2565b6040516104659190612c45565b60405180910390f35b348015610479575f80fd5b50610482610d16565b60405161048f9190612c55565b60405180910390f35b3480156104a3575f80fd5b506104be60048036038101906104b99190612c8b565b610d3a565b005b3480156104cb575f80fd5b506104e660048036038101906104e19190612d1c565b610d56565b005b3480156104f3575f80fd5b506104fc610e29565b60405161050991906129a8565b60405180910390f35b34801561051d575f80fd5b5061053860048036038101906105339190612bf2565b610e51565b60405161054591906129ce565b60405180910390f35b348015610559575f80fd5b50610562610e66565b6040516105759796959493929190612d41565b60405180910390f35b348015610589575f80fd5b50610592610f63565b60405161059f91906129a8565b60405180910390f35b3480156105b3575f80fd5b506105bc610f8a565b6040516105c99190612e07565b60405180910390f35b3480156105dd575f80fd5b506105e6610fc7565b6040516105f39190612c45565b60405180910390f35b348015610607575f80fd5b50610610610feb565b60405161061d9190612e21565b60405180910390f35b348015610631575f80fd5b5061063a611033565b60405161064791906129ce565b60405180910390f35b34801561065b575f80fd5b50610664611039565b60405161067191906129ce565b60405180910390f35b348015610685575f80fd5b5061068e611040565b60405161069b91906129a8565b60405180910390f35b3480156106af575f80fd5b506106ca60048036038101906106c59190612bf2565b611068565b005b3480156106d7575f80fd5b506106e061113b565b6040516106ed91906129ce565b60405180910390f35b348015610701575f80fd5b5061071c60048036038101906107179190612bf2565b61114f565b005b348015610729575f80fd5b506107326111d1565b60405161073f91906129ce565b60405180910390f35b348015610753575f80fd5b5061075c6111d8565b6040516107699190612e50565b60405180910390f35b60605f61077d6111fc565b61078688611273565b61078f88611315565b6107988861136c565b6107a285856113d1565b6107b08888888888886113d5565b91509150965096945050505050565b5f7fe1ab2dea000000000000000000000000000000000000000000000000000000007bffffffffffffffffffffffffffffffffffffffffffffffffffffffff1916827bffffffffffffffffffffffffffffffffffffffffffffffffffffffff1916148061088957507f0e083076000000000000000000000000000000000000000000000000000000007bffffffffffffffffffffffffffffffffffffffffffffffffffffffff1916827bffffffffffffffffffffffffffffffffffffffffffffffffffffffff1916145b806108995750610898826118f7565b5b9050919050565b6108a8611960565b60065f8273ffffffffffffffffffffffffffffffffffffffff1673ffffffffffffffffffffffffffffffffffffffff1681526020019081526020015f205f9054906101000a900460ff1615610929576040517f101f817a00000000000000000000000000000000000000000000000000000000815260040160405180910390fd5b600160065f8373ffffffffffffffffffffffffffffffffffffffff1673ffffffffffffffffffffffffffffffffffffffff1681526020019081526020015f205f6101000a81548160ff0219169083151502179055508073ffffffffffffffffffffffffffffffffffffffff167f283ffe02a14663588cf87ba17adbc21c9ce0d0cdb15655926bf2b987af3075fe60405160405180910390a250565b6006602052805f5260405f205f915054906101000a900460ff1681565b6109e9611960565b60015f9054906101000a900473ffffffffffffffffffffffffffffffffffffffff1673ffffffffffffffffffffffffffffffffffffffff1663f3fef3a382846040518363ffffffff1660e01b8152600401610a45929190612e76565b5f604051808303815f87803b158015610a5c575f80fd5b505af1158015610a6e573d5f803e3d5ffd5b505050505050565b610a7e611960565b60065f8273ffffffffffffffffffffffffffffffffffffffff1673ffffffffffffffffffffffffffffffffffffffff1681526020019081526020015f205f9054906101000a900460ff16610afe576040517fcafd331600000000000000000000000000000000000000000000000000000000815260040160405180910390fd5b5f60065f8373ffffffffffffffffffffffffffffffffffffffff1673ffffffffffffffffffffffffffffffffffffffff1681526020019081526020015f205f6101000a81548160ff0219169083151502179055508073ffffffffffffffffffffffffffffffffffffffff167fd6b733dc32301e0cab6ecbbc89151a83381d34dafac3d9200a9da629cc4f54ff60405160405180910390a250565b5f610ba1611960565b7f000000000000000000000000000000000000000000000000000000000000000073ffffffffffffffffffffffffffffffffffffffff166370a08231306040518263ffffffff1660e01b8152600401610bfa91906129a8565b602060405180830381865afa158015610c15573d5f803e3d5ffd5b505050506040513d601f19601f82011682018060405250810190610c399190612ea3565b9050610c8682827f000000000000000000000000000000000000000000000000000000000000000073ffffffffffffffffffffffffffffffffffffffff16611a529092919063ffffffff16565b8173ffffffffffffffffffffffffffffffffffffffff167f7084f5476618d8e60b11ef0d7d3f06914655adb8793e28ff7f018d4c76d505d582604051610ccc91906129ce565b60405180910390a2919050565b61290481565b610ce7611960565b610cf05f611ad8565b565b7f000000000000000000000000000000000000000000000000000000000000000081565b7f000000000000000000000000000000000000000000000000000000000000000081565b610d426111fc565b610d4f8585858585611b99565b5050505050565b610d5e611960565b610da77fe9fb30f7000000000000000000000000000000000000000000000000000000008273ffffffffffffffffffffffffffffffffffffffff16611cd290919063ffffffff16565b610de6576040517f08c379a0000000000000000000000000000000000000000000000000000000008152600401610ddd90612ebd565b60405180910390fd5b8060015f6101000a81548173ffffffffffffffffffffffffffffffffffffffff021916908373ffffffffffffffffffffffffffffffffffffffff16021790555050565b5f60015f9054906101000a900473ffffffffffffffffffffffffffffffffffffffff16905090565b6005602052805f5260405f205f915090505481565b5f6060805f805f6060610ea360037f0000000000000000000000000000000000000000000000000000000000000000611cf690919063ffffffff16565b610ed760047f0000000000000000000000000000000000000000000000000000000000000000611cf690919063ffffffff16565b46305f801b5f67ffffffffffffffff811115610ef657610ef5612efa565b5b604051908082528060200260200182016040528015610f245781602001602082028036833780820191505090505b507f0f00000000000000000000000000000000000000000000000000000000000000959493929190965096509650965096509650965090919293949596565b5f805f9054906101000a900473ffffffffffffffffffffffffffffffffffffffff16905090565b60606040518060400160405280601d81526020017f332e302e302d626574612e332b65657365652e697061796d6173746572000000815250905090565b7fe2f4eaae4a9751e85a3e4a7b9587827a877f29914755229b07a7b2da98285f7081565b610ff3612967565b5f62030d409050604051806080016040528061c350836110139190612f54565b8152602001828152602001620222e0815260200161290481525091505090565b61c35081565b6201adb081565b5f60025f9054906101000a900473ffffffffffffffffffffffffffffffffffffffff16905090565b611070611960565b6110b97f25e23e64000000000000000000000000000000000000000000000000000000008273ffffffffffffffffffffffffffffffffffffffff16611cd290919063ffffffff16565b6110f8576040517f08c379a00000000000000000000000000000000000000000000000000000000081526004016110ef90612f71565b60405180910390fd5b8060025f6101000a81548173ffffffffffffffffffffffffffffffffffffffff021916908373ffffffffffffffffffffffffffffffffffffffff16021790555050565b61c350620186a061114c9190612f54565b81565b611157611960565b5f73ffffffffffffffffffffffffffffffffffffffff168173ffffffffffffffffffffffffffffffffffffffff16036111c5576040517f08c379a00000000000000000000000000000000000000000000000000000000081526004016111bc90612fad565b60405180910390fd5b6111ce81611ad8565b50565b620186a081565b7f000000000000000000000000000000000000000000000000000000000000000081565b611204610e29565b73ffffffffffffffffffffffffffffffffffffffff163373ffffffffffffffffffffffffffffffffffffffff1614611271576040517f08c379a000000000000000000000000000000000000000000000000000000000815260040161126890613010565b60405180910390fd5b565b808060200190611283919061304d565b60a00160208101906112959190612bf2565b73ffffffffffffffffffffffffffffffffffffffff166112b3611040565b73ffffffffffffffffffffffffffffffffffffffff1614611309576040517f08c379a00000000000000000000000000000000000000000000000000000000081526004016113009061308b565b60405180910390fd5b61131281611da3565b50565b5f81805f019061132591906130c8565b6040013514611369576040517f08c379a000000000000000000000000000000000000000000000000000000000815260040161136090613106565b60405180910390fd5b50565b5f81806020019061137d919061304d565b8060c0019061138c9190613143565b9050146113ce576040517f08c379a00000000000000000000000000000000000000000000000000000000081526004016113c5906131af565b60405180910390fd5b50565b5050565b60605f60065f89805f01906113ea91906130c8565b60200160208101906113fc9190612bf2565b73ffffffffffffffffffffffffffffffffffffffff1673ffffffffffffffffffffffffffffffffffffffff1681526020019081526020015f205f9054906101000a900460ff16611478576040517fcafd331600000000000000000000000000000000000000000000000000000000815260040160405180910390fd5b5f8086868101906114899190613296565b915091505f8a805f019061149d91906130c8565b5f0160208101906114ae9190612bf2565b90505f805f805f805f805f808c8060200190518101906114ce919061330e565b965096509650965096509650965083421115611516576040517ff87d927100000000000000000000000000000000000000000000000000000000815260040160405180910390fd5b8673ffffffffffffffffffffffffffffffffffffffff168b73ffffffffffffffffffffffffffffffffffffffff161461157b576040517fddb5de5e00000000000000000000000000000000000000000000000000000000815260040160405180910390fd5b60055f8873ffffffffffffffffffffffffffffffffffffffff1673ffffffffffffffffffffffffffffffffffffffff1681526020019081526020015f205497505f7f627b9daac6d19f9d7129212b8a11756a58fbe0a456cdfd1c371d58ae7e034cef8888888c896040516020016115f796959493929190613370565b6040516020818303038152906040528051906020012090505f61161982611f9e565b90505f61162882878787611fb7565b90507f000000000000000000000000000000000000000000000000000000000000000073ffffffffffffffffffffffffffffffffffffffff166391d148547fe2f4eaae4a9751e85a3e4a7b9587827a877f29914755229b07a7b2da98285f70836040518363ffffffff1660e01b81526004016116a59291906133b9565b602060405180830381865afa1580156116c0573d5f803e3d5ffd5b505050506040513d601f19601f820116820180604052508101906116e491906133e6565b61171a576040517f8baa579f00000000000000000000000000000000000000000000000000000000815260040160405180910390fd5b60018b6117279190612f54565b60055f8c73ffffffffffffffffffffffffffffffffffffffff1673ffffffffffffffffffffffffffffffffffffffff1681526020019081526020015f2081905550889c50879b50505050505050505050505f855114611843575f805f805f805f8b80602001905181019061179b919061340b565b96509650965096509650965096507f000000000000000000000000000000000000000000000000000000000000000073ffffffffffffffffffffffffffffffffffffffff1663d505accf888888888888886040518863ffffffff1660e01b815260040161180e9796959493929190613478565b5f604051808303815f87803b158015611825575f80fd5b505af1158015611837573d5f803e3d5ffd5b50505050505050505050505b5f61185f8f8060200190611857919061304d565b8b8686611fe0565b505090505f81146118b8576118b78530837f000000000000000000000000000000000000000000000000000000000000000073ffffffffffffffffffffffffffffffffffffffff166120c6909392919063ffffffff16565b5b84828585846040516020016118d19594939291906134cf565b6040516020818303038152906040525f9850985050505050505050965096945050505050565b5f7f01ffc9a7000000000000000000000000000000000000000000000000000000007bffffffffffffffffffffffffffffffffffffffffffffffffffffffff1916827bffffffffffffffffffffffffffffffffffffffffffffffffffffffff1916149050919050565b7f000000000000000000000000000000000000000000000000000000000000000073ffffffffffffffffffffffffffffffffffffffff166391d148547f0000000000000000000000000000000000000000000000000000000000000000336040518363ffffffff1660e01b81526004016119db9291906133b9565b602060405180830381865afa1580156119f6573d5f803e3d5ffd5b505050506040513d601f19601f82011682018060405250810190611a1a91906133e6565b611a50576040517fc183bcef00000000000000000000000000000000000000000000000000000000815260040160405180910390fd5b565b611ad38363a9059cbb60e01b8484604051602401611a71929190613511565b604051602081830303815290604052907bffffffffffffffffffffffffffffffffffffffffffffffffffffffff19166020820180517bffffffffffffffffffffffffffffffffffffffffffffffffffffffff838183161783525050505061214f565b505050565b5f805f9054906101000a900473ffffffffffffffffffffffffffffffffffffffff169050815f806101000a81548173ffffffffffffffffffffffffffffffffffffffff021916908373ffffffffffffffffffffffffffffffffffffffff1602179055508173ffffffffffffffffffffffffffffffffffffffff168173ffffffffffffffffffffffffffffffffffffffff167f8be0079c531659141344cd1fd0a4f28419497f9722a3daafe3b4186f6b6457e060405160405180910390a35050565b5f805f805f8989810190611bad919061353e565b945094509450945094505f620222e088611bc79190612f54565b90505f805f611bd88a858989611fe0565b92509250925084831115611c18576040517f7f89a1f800000000000000000000000000000000000000000000000000000000815260040160405180910390fd5b828514611c6d57611c6c898487037f000000000000000000000000000000000000000000000000000000000000000073ffffffffffffffffffffffffffffffffffffffff16611a529092919063ffffffff16565b5b878973ffffffffffffffffffffffffffffffffffffffff167fa75fb458c0421ecc241e067a4f92fe01e9a5a3c5b66febae0e5607b168a699a586868686604051611cba9493929190613587565b60405180910390a35050505050505050505050505050565b5f611cdc83612215565b8015611cee5750611ced8383612261565b5b905092915050565b606060ff5f1b8314611d1257611d0b8361231a565b9050611d9d565b818054611d1e906135ac565b80601f0160208091040260200160405190810160405280929190818152602001828054611d4a906135ac565b8015611d955780601f10611d6c57610100808354040283529160200191611d95565b820191905f5260205f20905b815481529060010190602001808311611d7857829003601f168201915b505050505090505b92915050565b5f8082805f0190611db491906130c8565b6020016020810190611dc69190612bf2565b73ffffffffffffffffffffffffffffffffffffffff1663572b6c0560e01b848060200190611df4919061304d565b60a0016020810190611e069190612bf2565b604051602401611e1691906129a8565b604051602081830303815290604052907bffffffffffffffffffffffffffffffffffffffffffffffffffffffff19166020820180517bffffffffffffffffffffffffffffffffffffffffffffffffffffffff8381831617835250505050604051611e809190613600565b5f60405180830381855afa9150503d805f8114611eb8576040519150601f19603f3d011682016040523d82523d5f602084013e611ebd565b606091505b509150915081611f02576040517f08c379a0000000000000000000000000000000000000000000000000000000008152600401611ef99061361d565b60405180910390fd5b6020815114611f46576040517f08c379a0000000000000000000000000000000000000000000000000000000008152600401611f3d9061365a565b60405180910390fd5b80806020019051810190611f5a91906133e6565b611f99576040517f08c379a0000000000000000000000000000000000000000000000000000000008152600401611f9090613696565b60405180910390fd5b505050565b5f611fb0611faa61238c565b83612442565b9050919050565b5f805f611fc687878787612482565b91509150611fd38161255a565b8192505050949350505050565b5f805f60015f9054906101000a900473ffffffffffffffffffffffffffffffffffffffff1673ffffffffffffffffffffffffffffffffffffffff16638e53548b87896040518363ffffffff1660e01b815260040161203f929190613786565b602060405180830381865afa15801561205a573d5f803e3d5ffd5b505050506040513d601f19601f8201168201806040525081019061207e9190612ea3565b9150670de0b6b3a764000085836120959190613849565b61209f919061386a565b92508284106120b3575f92508290506120bc565b83830392508390505b9450945094915050565b612149846323b872dd60e01b8585856040516024016120e7939291906138a8565b604051602081830303815290604052907bffffffffffffffffffffffffffffffffffffffffffffffffffffffff19166020820180517bffffffffffffffffffffffffffffffffffffffffffffffffffffffff838183161783525050505061214f565b50505050565b5f6121b0826040518060400160405280602081526020017f5361666545524332303a206c6f772d6c6576656c2063616c6c206661696c65648152508573ffffffffffffffffffffffffffffffffffffffff166126bf9092919063ffffffff16565b90505f815114806121d15750808060200190518101906121d091906133e6565b5b612210576040517f08c379a0000000000000000000000000000000000000000000000000000000008152600401612207906138e0565b60405180910390fd5b505050565b5f612240827f01ffc9a700000000000000000000000000000000000000000000000000000000612261565b801561225a57506122588263ffffffff60e01b612261565b155b9050919050565b5f806301ffc9a760e01b8360405160240161227c9190613943565b604051602081830303815290604052907bffffffffffffffffffffffffffffffffffffffffffffffffffffffff19166020820180517bffffffffffffffffffffffffffffffffffffffffffffffffffffffff838183161783525050505090505f805f60205f8551602087018a617530fa92503d91505f519050828015612303575060208210155b801561230e57505f81115b94505050505092915050565b60605f612326836126d6565b90505f602067ffffffffffffffff81111561234457612343612efa565b5b6040519080825280601f01601f1916602001820160405280156123765781602001600182028036833780820191505090505b5090508181528360208201528092505050919050565b5f7f000000000000000000000000000000000000000000000000000000000000000073ffffffffffffffffffffffffffffffffffffffff163073ffffffffffffffffffffffffffffffffffffffff1614801561240757507f000000000000000000000000000000000000000000000000000000000000000046145b15612434577f0000000000000000000000000000000000000000000000000000000000000000905061243f565b61243c612724565b90505b90565b5f6040517f190100000000000000000000000000000000000000000000000000000000000081528360028201528260228201526042812091505092915050565b5f807f7fffffffffffffffffffffffffffffff5d576e7357a4501ddfe92f46681b20a0835f1c11156124ba575f600391509150612551565b5f6001878787876040515f81526020016040526040516124dd9493929190613975565b6020604051602081039080840390855afa1580156124fd573d5f803e3d5ffd5b5050506020604051035190505f73ffffffffffffffffffffffffffffffffffffffff168173ffffffffffffffffffffffffffffffffffffffff1603612549575f60019250925050612551565b805f92509250505b94509492505050565b5f600481111561256d5761256c61399d565b5b8160048111156125805761257f61399d565b5b03156126bc576001600481111561259a5761259961399d565b5b8160048111156125ad576125ac61399d565b5b036125ed576040517f08c379a00000000000000000000000000000000000000000000000000000000081526004016125e4906139ca565b60405180910390fd5b600260048111156126015761260061399d565b5b8160048111156126145761261361399d565b5b03612654576040517f08c379a000000000000000000000000000000000000000000000000000000000815260040161264b90613a07565b60405180910390fd5b600360048111156126685761266761399d565b5b81600481111561267b5761267a61399d565b5b036126bb576040517f08c379a00000000000000000000000000000000000000000000000000000000081526004016126b290613a44565b60405180910390fd5b5b50565b60606126cd84845f856127b9565b90509392505050565b5f8060ff835f1c169050601f81111561271b576040517fb3512b0c00000000000000000000000000000000000000000000000000000000815260040160405180910390fd5b80915050919050565b5f7f8b73c3c69bb8fe3d512ecc4cf759cc79239f7b179b0ffacaa9a75d522b39400f7f00000000000000000000000000000000000000000000000000000000000000007f0000000000000000000000000000000000000000000000000000000000000000463060405160200161279e959493929190613aa7565b60405160208183030381529060405280519060200120905090565b6060824710156127fe576040517f08c379a00000000000000000000000000000000000000000000000000000000081526004016127f590613ae9565b60405180910390fd5b5f808673ffffffffffffffffffffffffffffffffffffffff1685876040516128269190613600565b5f6040518083038185875af1925050503d805f8114612860576040519150601f19603f3d011682016040523d82523d5f602084013e612865565b606091505b509150915061287687838387612882565b92505050949350505050565b606083156128e3575f8351036128db5761289b856128f6565b6128da576040517f08c379a00000000000000000000000000000000000000000000000000000000081526004016128d190613b4c565b60405180910390fd5b5b8290506128ee565b6128ed8383612918565b5b949350505050565b5f808273ffffffffffffffffffffffffffffffffffffffff163b119050919050565b5f8251111561292a5781518083602001fd5b806040517f08c379a000000000000000000000000000000000000000000000000000000000815260040161295e9190612e07565b60405180910390fd5b60405180608001604052805f81526020015f81526020015f81526020015f81525090565b73ffffffffffffffffffffffffffffffffffffffff811682525050565b5f60208201905073ffffffffffffffffffffffffffffffffffffffff8316825292915050565b5f60208201905082825292915050565b5f8083601f8401126129ee575f80fd5b8235905067ffffffffffffffff811115612a06575f80fd5b602083019150836020828501011115612a1d575f80fd5b9250929050565b5f805f805f8060808789031215612a39575f80fd5b863567ffffffffffffffff80821115612a50575f80fd5b81890191506040828b031215612a64575f80fd5b8197506020890135915080821115612a7a575f80fd5b612a868a838b016129de565b9250809750508195506040890135915080821115612aa2575f80fd5b50612aaf89828a016129de565b91508094505080925050606087013590509295509295509295565b5f5b83811015612ae7578082015181840152602081019050612acc565b505f83830152505050565b5f8151808452612b09816020860160208601612aca565b60207fffffffffffffffffffffffffffffffffffffffffffffffffffffffffffffffe0601f83011685010191505092915050565b604081525f612b4f6040830185612af2565b905082151560208301529392505050565b5f60208284031215612b70575f80fd5b81357fffffffff0000000000000000000000000000000000000000000000000000000081168114612b9f575f80fd5b8091505092915050565b5f602082019050821515825292915050565b73ffffffffffffffffffffffffffffffffffffffff81168114612bdc575f80fd5b50565b5f81359050612bed81612bbb565b919050565b5f60208284031215612c02575f80fd5b8135612c0d81612bbb565b8091505092915050565b5f8060408385031215612c28575f80fd5b823591506020830135612c3a81612bbb565b809150509250929050565b5f60208201905082825292915050565b5f60208201905073ffffffffffffffffffffffffffffffffffffffff8316825292915050565b8015158114612c88575f80fd5b50565b5f805f805f60808688031215612c9f575f80fd5b853567ffffffffffffffff80821115612cb6575f80fd5b612cc289838a016129de565b92508097505081955060208801359150612cdb82612c7b565b819450604088013593506060880135915080821115612cf8575f80fd5b5080870190506101008189031215612d0e575f80fd5b809150509295509295909350565b5f60208284031215612d2c575f80fd5b8135612d3781612bbb565b8091505092915050565b7fff00000000000000000000000000000000000000000000000000000000000000881681525f602060e081840152612d7c60e084018a612af2565b8381036040850152612d8e818a612af2565b905087606085015273ffffffffffffffffffffffffffffffffffffffff871660808501528560a085015283810360c0850152808551808352838301915083870192505f5b81811015612df3578351835284830192508484019350600181019050612dd2565b505080935050505098975050505050505050565b602081525f612e196020830184612af2565b905092915050565b5f6080820190508251825260208301516020830152604083015160408301526060830151606083015292915050565b5f60208201905073ffffffffffffffffffffffffffffffffffffffff8316825292915050565b5f60408201905073ffffffffffffffffffffffffffffffffffffffff841682528260208301529392505050565b5f60208284031215612eb3575f80fd5b8151905092915050565b60208152601f60208201527f746172676574206973206e6f7420612076616c6964204952656c61794875620060408201525f606082019050919050565b7f4e487b71000000000000000000000000000000000000000000000000000000005f52604160045260245ffd5b7f4e487b71000000000000000000000000000000000000000000000000000000005f52601160045260245ffd5b5f828201905080821115612f6b57612f6a612f27565b5b92915050565b602081526020808201527f746172676574206973206e6f7420612076616c69642049466f7277617264657260408201525f606082019050919050565b60208152602660208201527f4f776e61626c653a206e6577206f776e657220697320746865207a65726f206160408201527f646472657373000000000000000000000000000000000000000000000000000060608201525f608082019050919050565b60208152601e60208201527f63616e206f6e6c792062652063616c6c65642062792052656c6179487562000060408201525f606082019050919050565b5f82357fffffffffffffffffffffffffffffffffffffffffffffffffffffffffffffff0183360301811261307f575f80fd5b80830191505092915050565b60208152601860208201527f466f72776172646572206973206e6f742074727573746564000000000000000060408201525f606082019050919050565b5f82357fffffffffffffffffffffffffffffffffffffffffffffffffffffffffffffff218336030181126130fa575f80fd5b80830191505092915050565b60208152601c60208201527f76616c7565207472616e73666572206e6f7420737570706f727465640000000060408201525f606082019050919050565b5f8083357fffffffffffffffffffffffffffffffffffffffffffffffffffffffffffffffe1843603018112613176575f80fd5b80840190508035915067ffffffffffffffff821115613193575f80fd5b602081019250508036038213156131a8575f80fd5b9250929050565b60208152601c60208201527f73686f756c642068617665206e6f207061796d6173746572446174610000000060408201525f606082019050919050565b5f82601f8301126131fb575f80fd5b813567ffffffffffffffff8082111561321757613216612efa565b5b7fffffffffffffffffffffffffffffffffffffffffffffffffffffffffffffffe060405181603f83601f870116011681019150808210838311171561325f5761325e612efa565b5b81604052838152866020858801011115613277575f80fd5b836020870160208301375f602085830101528094505050505092915050565b5f80604083850312156132a7575f80fd5b823567ffffffffffffffff808211156132be575f80fd5b6132ca868387016131ec565b935060208501359150808211156132df575f80fd5b506132ec858286016131ec565b9150509250929050565b5f8151905060ff81168114613309575f80fd5b919050565b5f805f805f805f60e0888a031215613324575f80fd5b875161332f81612bbb565b80975050602088015195506040880151945060608801519350613354608089016132f6565b925060a0880151915060c0880151905092959891949750929550565b5f60c08201905087825273ffffffffffffffffffffffffffffffffffffffff871660208301528560408301528460608301528360808301528260a0830152979650505050505050565b5f60408201905083825273ffffffffffffffffffffffffffffffffffffffff831660208301529392505050565b5f602082840312156133f6575f80fd5b815161340181612c7b565b8091505092915050565b5f805f805f805f60e0888a031215613421575f80fd5b875161342c81612bbb565b80975050602088015161343e81612bbb565b80965050604088015194506060880151935061345c608089016132f6565b925060a0880151915060c0880151905092959891949750929550565b5f60e08201905073ffffffffffffffffffffffffffffffffffffffff808a16835280891660208401525086604083015285606083015260ff851660808301528360a08301528260c083015298975050505050505050565b5f60a08201905073ffffffffffffffffffffffffffffffffffffffff871682528560208301528460408301528360608301528260808301529695505050505050565b5f60408201905073ffffffffffffffffffffffffffffffffffffffff841682528260208301529392505050565b5f805f805f60a08688031215613552575f80fd5b853561355d81612bbb565b80955050602086013593506040860135925060608601359150608086013590509295509295909350565b5f60808201905085825284602083015283604083015282606083015295945050505050565b5f8160011c905060018216806135c357607f821691505b6020821081036135fa577f4e487b71000000000000000000000000000000000000000000000000000000005f52602260045260245ffd5b50919050565b5f8251613611818460208701612aca565b80830191505092915050565b60208152601c60208201527f697354727573746564466f727761726465723a2072657665727465640000000060408201525f606082019050919050565b602081526020808201527f697354727573746564466f727761726465723a2062616420726573706f6e736560408201525f606082019050919050565b60208152601f60208201527f696e76616c696420666f7277617264657220666f7220726563697069656e740060408201525f606082019050919050565b5f8083357fffffffffffffffffffffffffffffffffffffffffffffffffffffffffffffffe1843603018112613706575f80fd5b8381019050803591506020810192505067ffffffffffffffff81111561372a575f80fd5b803603821315613738575f80fd5b9250929050565b81835281816020850137505f602082840101525f60207fffffffffffffffffffffffffffffffffffffffffffffffffffffffffffffffe0601f840116840101905092915050565b828152604060208201528135604082015260208201356060820152604082013560808201525f60608301356137ba81612bbb565b73ffffffffffffffffffffffffffffffffffffffff811660a0840152506137e360808401612bdf565b6137f060c084018261298b565b506137fd60a08401612bdf565b61380a60e084018261298b565b5061381860c08401846136d3565b6101008081860152506138306101408501828461373f565b91505060e0840135610120840152809150509392505050565b5f8282029050818104831482151761386457613863612f27565b5b92915050565b5f8261389d577f4e487b71000000000000000000000000000000000000000000000000000000005f52601260045260245ffd5b828204905092915050565b5f60608201905073ffffffffffffffffffffffffffffffffffffffff8086168352808516602084015250826040830152949350505050565b60208152602a60208201527f5361666545524332303a204552433230206f7065726174696f6e20646964206e60408201527f6f7420737563636565640000000000000000000000000000000000000000000060608201525f608082019050919050565b5f6020820190507fffffffff000000000000000000000000000000000000000000000000000000008316825292915050565b5f60808201905085825260ff8516602083015283604083015282606083015295945050505050565b7f4e487b71000000000000000000000000000000000000000000000000000000005f52602160045260245ffd5b60208152601860208201527f45434453413a20696e76616c6964207369676e6174757265000000000000000060408201525f606082019050919050565b60208152601f60208201527f45434453413a20696e76616c6964207369676e6174757265206c656e6774680060408201525f606082019050919050565b60208152602260208201527f45434453413a20696e76616c6964207369676e6174757265202773272076616c60408201527f756500000000000000000000000000000000000000000000000000000000000060608201525f608082019050919050565b5f60a08201905086825285602083015284604083015283606083015273ffffffffffffffffffffffffffffffffffffffff831660808301529695505050505050565b60208152602660208201527f416464726573733a20696e73756666696369656e742062616c616e636520666f60408201527f722063616c6c000000000000000000000000000000000000000000000000000060608201525f608082019050919050565b60208152601d60208201527f416464726573733a2063616c6c20746f206e6f6e2d636f6e747261637400000060408201525f60608201905091905056fea264697066735822122079e686b71c8d4669adf5a2c6e7da37d6966fcc2643bd595a25c765b6549583bc64736f6c63430008150033",
  "linkReferences": {},
  "deployedLinkReferences": {}
}