{
  "_format": "hh-sol-artifact-1",
  "contractName": "EeseeNFT",
  "sourceName": "contracts/test/EeseeNFT.sol",
  "abi": [
    {
      "inputs": [],
      "name": "ApprovalCallerNotOwnerNorApproved",
      "type": "error"
    },
    {
      "inputs": [],
      "name": "ApprovalQueryForNonexistentToken",
      "type": "error"
    },
    {
      "inputs": [],
      "name": "BalanceQueryForZeroAddress",
      "type": "error"
    },
    {
      "inputs": [],
      "name": "MintERC2309QuantityExceedsLimit",
      "type": "error"
    },
    {
      "inputs": [],
      "name": "MintToZeroAddress",
      "type": "error"
    },
    {
      "inputs": [],
      "name": "MintZeroQuantity",
      "type": "error"
    },
    {
      "inputs": [],
      "name": "OwnerQueryForNonexistentToken",
      "type": "error"
    },
    {
      "inputs": [],
      "name": "OwnershipNotInitializedForExtraData",
      "type": "error"
    },
    {
      "inputs": [],
      "name": "SetRoyaltyForNonexistentToken",
      "type": "error"
    },
    {
      "inputs": [],
      "name": "SetURIForNonexistentToken",
      "type": "error"
    },
    {
      "inputs": [],
      "name": "TransferCallerNotOwnerNorApproved",
      "type": "error"
    },
    {
      "inputs": [],
      "name": "TransferFromIncorrectOwner",
      "type": "error"
    },
    {
      "inputs": [],
      "name": "TransferToNonERC721ReceiverImplementer",
      "type": "error"
    },
    {
      "inputs": [],
      "name": "TransferToZeroAddress",
      "type": "error"
    },
    {
      "inputs": [],
      "name": "URIQueryForNonexistentToken",
      "type": "error"
    },
    {
      "anonymous": false,
      "inputs": [
        {
          "indexed": true,
          "internalType": "address",
          "name": "owner",
          "type": "address"
        },
        {
          "indexed": true,
          "internalType": "address",
          "name": "approved",
          "type": "address"
        },
        {
          "indexed": true,
          "internalType": "uint256",
          "name": "tokenId",
          "type": "uint256"
        }
      ],
      "name": "Approval",
      "type": "event"
    },
    {
      "anonymous": false,
      "inputs": [
        {
          "indexed": true,
          "internalType": "address",
          "name": "owner",
          "type": "address"
        },
        {
          "indexed": true,
          "internalType": "address",
          "name": "operator",
          "type": "address"
        },
        {
          "indexed": false,
          "internalType": "bool",
          "name": "approved",
          "type": "bool"
        }
      ],
      "name": "ApprovalForAll",
      "type": "event"
    },
    {
      "anonymous": false,
      "inputs": [
        {
          "indexed": true,
          "internalType": "uint256",
          "name": "fromTokenId",
          "type": "uint256"
        },
        {
          "indexed": false,
          "internalType": "uint256",
          "name": "toTokenId",
          "type": "uint256"
        },
        {
          "indexed": true,
          "internalType": "address",
          "name": "from",
          "type": "address"
        },
        {
          "indexed": true,
          "internalType": "address",
          "name": "to",
          "type": "address"
        }
      ],
      "name": "ConsecutiveTransfer",
      "type": "event"
    },
    {
      "anonymous": false,
      "inputs": [
        {
          "indexed": false,
          "internalType": "uint8",
          "name": "version",
          "type": "uint8"
        }
      ],
      "name": "Initialized",
      "type": "event"
    },
    {
      "anonymous": false,
      "inputs": [
        {
          "indexed": true,
          "internalType": "address",
          "name": "from",
          "type": "address"
        },
        {
          "indexed": true,
          "internalType": "address",
          "name": "to",
          "type": "address"
        },
        {
          "indexed": true,
          "internalType": "uint256",
          "name": "tokenId",
          "type": "uint256"
        }
      ],
      "name": "Transfer",
      "type": "event"
    },
    {
      "inputs": [],
      "name": "URI",
      "outputs": [
        {
          "internalType": "string",
          "name": "",
          "type": "string"
        }
      ],
      "stateMutability": "view",
      "type": "function"
    },
    {
      "inputs": [
        {
          "internalType": "address",
          "name": "to",
          "type": "address"
        },
        {
          "internalType": "uint256",
          "name": "tokenId",
          "type": "uint256"
        }
      ],
      "name": "approve",
      "outputs": [],
      "stateMutability": "payable",
      "type": "function"
    },
    {
      "inputs": [
        {
          "internalType": "address",
          "name": "owner",
          "type": "address"
        }
      ],
      "name": "balanceOf",
      "outputs": [
        {
          "internalType": "uint256",
          "name": "",
          "type": "uint256"
        }
      ],
      "stateMutability": "view",
      "type": "function"
    },
    {
      "inputs": [],
      "name": "contractURI",
      "outputs": [
        {
          "internalType": "string",
          "name": "",
          "type": "string"
        }
      ],
      "stateMutability": "view",
      "type": "function"
    },
    {
      "inputs": [
        {
          "internalType": "uint256",
          "name": "tokenId",
          "type": "uint256"
        }
      ],
      "name": "getApproved",
      "outputs": [
        {
          "internalType": "address",
          "name": "",
          "type": "address"
        }
      ],
      "stateMutability": "view",
      "type": "function"
    },
    {
      "inputs": [
        {
          "components": [
            {
              "internalType": "string",
              "name": "name",
              "type": "string"
            },
            {
              "internalType": "string",
              "name": "symbol",
              "type": "string"
            },
            {
              "internalType": "string",
              "name": "baseURI",
              "type": "string"
            },
            {
              "internalType": "string",
              "name": "revealedURI",
              "type": "string"
            },
            {
              "internalType": "string",
              "name": "contractURI",
              "type": "string"
            },
            {
              "internalType": "address",
              "name": "royaltyReceiver",
              "type": "address"
            },
            {
              "internalType": "uint96",
              "name": "royaltyFeeNumerator",
              "type": "uint96"
            }
          ],
          "internalType": "struct DropMetadata",
          "name": "metadata",
          "type": "tuple"
        },
        {
          "internalType": "uint256",
          "name": "mintAmount",
          "type": "uint256"
        },
        {
          "internalType": "address",
          "name": "mintRecipient",
          "type": "address"
        }
      ],
      "name": "initialize",
      "outputs": [],
      "stateMutability": "nonpayable",
      "type": "function"
    },
    {
      "inputs": [
        {
          "internalType": "address",
          "name": "owner",
          "type": "address"
        },
        {
          "internalType": "address",
          "name": "operator",
          "type": "address"
        }
      ],
      "name": "isApprovedForAll",
      "outputs": [
        {
          "internalType": "bool",
          "name": "",
          "type": "bool"
        }
      ],
      "stateMutability": "view",
      "type": "function"
    },
    {
      "inputs": [],
      "name": "name",
      "outputs": [
        {
          "internalType": "string",
          "name": "",
          "type": "string"
        }
      ],
      "stateMutability": "view",
      "type": "function"
    },
    {
      "inputs": [],
      "name": "nextTokenId",
      "outputs": [
        {
          "internalType": "uint256",
          "name": "",
          "type": "uint256"
        }
      ],
      "stateMutability": "view",
      "type": "function"
    },
    {
      "inputs": [
        {
          "internalType": "uint256",
          "name": "tokenId",
          "type": "uint256"
        }
      ],
      "name": "ownerOf",
      "outputs": [
        {
          "internalType": "address",
          "name": "",
          "type": "address"
        }
      ],
      "stateMutability": "view",
      "type": "function"
    },
    {
      "inputs": [
        {
          "internalType": "uint256",
          "name": "tokenId",
          "type": "uint256"
        },
        {
          "internalType": "uint256",
          "name": "salePrice",
          "type": "uint256"
        }
      ],
      "name": "royaltyInfo",
      "outputs": [
        {
          "internalType": "address",
          "name": "",
          "type": "address"
        },
        {
          "internalType": "uint256",
          "name": "",
          "type": "uint256"
        }
      ],
      "stateMutability": "view",
      "type": "function"
    },
    {
      "inputs": [
        {
          "internalType": "address",
          "name": "from",
          "type": "address"
        },
        {
          "internalType": "address",
          "name": "to",
          "type": "address"
        },
        {
          "internalType": "uint256",
          "name": "tokenId",
          "type": "uint256"
        }
      ],
      "name": "safeTransferFrom",
      "outputs": [],
      "stateMutability": "payable",
      "type": "function"
    },
    {
      "inputs": [
        {
          "internalType": "address",
          "name": "from",
          "type": "address"
        },
        {
          "internalType": "address",
          "name": "to",
          "type": "address"
        },
        {
          "internalType": "uint256",
          "name": "tokenId",
          "type": "uint256"
        },
        {
          "internalType": "bytes",
          "name": "_data",
          "type": "bytes"
        }
      ],
      "name": "safeTransferFrom",
      "outputs": [],
      "stateMutability": "payable",
      "type": "function"
    },
    {
      "inputs": [
        {
          "internalType": "address",
          "name": "operator",
          "type": "address"
        },
        {
          "internalType": "bool",
          "name": "approved",
          "type": "bool"
        }
      ],
      "name": "setApprovalForAll",
      "outputs": [],
      "stateMutability": "nonpayable",
      "type": "function"
    },
    {
      "inputs": [
        {
          "internalType": "bytes4",
          "name": "interfaceId",
          "type": "bytes4"
        }
      ],
      "name": "supportsInterface",
      "outputs": [
        {
          "internalType": "bool",
          "name": "",
          "type": "bool"
        }
      ],
      "stateMutability": "view",
      "type": "function"
    },
    {
      "inputs": [],
      "name": "symbol",
      "outputs": [
        {
          "internalType": "string",
          "name": "",
          "type": "string"
        }
      ],
      "stateMutability": "view",
      "type": "function"
    },
    {
      "inputs": [
        {
          "internalType": "uint256",
          "name": "tokenId",
          "type": "uint256"
        }
      ],
      "name": "tokenURI",
      "outputs": [
        {
          "internalType": "string",
          "name": "",
          "type": "string"
        }
      ],
      "stateMutability": "view",
      "type": "function"
    },
    {
      "inputs": [],
      "name": "totalSupply",
      "outputs": [
        {
          "internalType": "uint256",
          "name": "",
          "type": "uint256"
        }
      ],
      "stateMutability": "view",
      "type": "function"
    },
    {
      "inputs": [
        {
          "internalType": "address",
          "name": "from",
          "type": "address"
        },
        {
          "internalType": "address",
          "name": "to",
          "type": "address"
        },
        {
          "internalType": "uint256",
          "name": "tokenId",
          "type": "uint256"
        }
      ],
      "name": "transferFrom",
      "outputs": [],
      "stateMutability": "payable",
      "type": "function"
    }
  ],
  "bytecode": "0x608060405234801561000f575f80fd5b50612c8f8061001d5f395ff3fe608060405260043610610143575f3560e01c806342842e0e116100bf578063a22cb46511610073578063c87b56dd11610058578063c87b56dd14610406578063e8a3d48514610442578063e985e9c51461046c57610143565b8063a22cb465146103c2578063b88d4fde146103ea57610143565b806370a08231116100a457806370a082311461033257806375794a3c1461036e57806395d89b411461039857610143565b806342842e0e146102da5780636352211e146102f657610143565b80631141d7de1161011657806323b872dd116100fb57806323b872dd146102595780632a55205a1461027557806331b317ff146102b257610143565b80631141d7de1461020557806318160ddd1461022f57610143565b806301ffc9a71461014757806306fdde0314610183578063081812fc146101ad578063095ea7b3146101e9575b5f80fd5b348015610152575f80fd5b5061016d600480360381019061016891906121d2565b6104a8565b60405161017a91906121f7565b60405180910390f35b34801561018e575f80fd5b506101976104c9565b6040516101a4919061227c565b60405180910390f35b3480156101b8575f80fd5b506101d360048036038101906101ce9190612296565b610562565b6040516101e091906122b0565b60405180910390f35b61020360048036038101906101fe9190612301565b6105e5565b005b348015610210575f80fd5b506102196105f5565b604051610226919061227c565b60405180910390f35b34801561023a575f80fd5b50610243610681565b604051610250919061232b565b60405180910390f35b610273600480360381019061026e919061233b565b6106a8565b005b348015610280575f80fd5b5061029b60048036038101906102969190612374565b6109ec565b6040516102a9929190612397565b60405180910390f35b3480156102bd575f80fd5b506102d860048036038101906102d391906123c4565b610bc8565b005b6102f460048036038101906102ef919061233b565b610fa5565b005b348015610301575f80fd5b5061031c60048036038101906103179190612296565b610fc4565b60405161032991906122b0565b60405180910390f35b34801561033d575f80fd5b5061035860048036038101906103539190612420565b610fd5565b604051610365919061232b565b60405180910390f35b348015610379575f80fd5b50610382611093565b60405161038f919061232b565b60405180910390f35b3480156103a3575f80fd5b506103ac6110a1565b6040516103b9919061227c565b60405180910390f35b3480156103cd575f80fd5b506103e860048036038101906103e39190612441565b61113a565b005b61040460048036038101906103ff91906124a7565b611249565b005b348015610411575f80fd5b5061042c60048036038101906104279190612296565b6112bb565b604051610439919061227c565b60405180910390f35b34801561044d575f80fd5b50610456611356565b604051610463919061227c565b60405180910390f35b348015610477575f80fd5b50610492600480360381019061048d919061259d565b6113e2565b60405161049f91906121f7565b60405180910390f35b5f6104b282611479565b806104c257506104c18261150a565b5b9050919050565b60606104d3611583565b60020180546104e1906125ce565b80601f016020809104026020016040519081016040528092919081815260200182805461050d906125ce565b80156105585780601f1061052f57610100808354040283529160200191610558565b820191905f5260205f20905b81548152906001019060200180831161053b57829003601f168201915b5050505050905090565b5f61056c826115af565b6105a2576040517fcf4700e400000000000000000000000000000000000000000000000000000000815260040160405180910390fd5b6105aa611583565b6006015f8381526020019081526020015f205f015f9054906101000a900473ffffffffffffffffffffffffffffffffffffffff169050919050565b6105f18282600161161b565b5050565b60038054610602906125ce565b80601f016020809104026020016040519081016040528092919081815260200182805461062e906125ce565b80156106795780601f1061065057610100808354040283529160200191610679565b820191905f5260205f20905b81548152906001019060200180831161065c57829003601f168201915b505050505081565b5f61068a61176b565b610692611583565b6001015461069e611583565b5f01540303905090565b5f6106b282611773565b90508373ffffffffffffffffffffffffffffffffffffffff168173ffffffffffffffffffffffffffffffffffffffff1614610719576040517fa114810000000000000000000000000000000000000000000000000000000000815260040160405180910390fd5b5f806107248461187d565b9150915061073a81876107356118a9565b6118b0565b6107865761074f8661074a6118a9565b6113e2565b610785576040517f59c896be00000000000000000000000000000000000000000000000000000000815260040160405180910390fd5b5b5f73ffffffffffffffffffffffffffffffffffffffff168573ffffffffffffffffffffffffffffffffffffffff16036107eb576040517fea553b3400000000000000000000000000000000000000000000000000000000815260040160405180910390fd5b6107f886868660016118f3565b8015610802575f82555b61080a611583565b6005015f8773ffffffffffffffffffffffffffffffffffffffff1673ffffffffffffffffffffffffffffffffffffffff1681526020019081526020015f205f8154600190039190508190555061085e611583565b6005015f8673ffffffffffffffffffffffffffffffffffffffff1673ffffffffffffffffffffffffffffffffffffffff1681526020019081526020015f205f8154600101919050819055506108dc856108b88888876118f9565b7c020000000000000000000000000000000000000000000000000000000017611920565b6108e4611583565b6004015f8681526020019081526020015f20819055505f7c020000000000000000000000000000000000000000000000000000000084160361097c575f6001850190505f610930611583565b6004015f8381526020019081526020015f20540361097a57610950611583565b5f015481146109795783610962611583565b6004015f8381526020019081526020015f20819055505b5b505b838573ffffffffffffffffffffffffffffffffffffffff168773ffffffffffffffffffffffffffffffffffffffff167fddf252ad1be2c89b69c2b068fc378daa952ba7f163c4a11628f55a4df523b3ef60405160405180910390a46109e4868686600161194a565b505050505050565b5f805f60025f8681526020019081526020015f206040518060400160405290815f82015f9054906101000a900473ffffffffffffffffffffffffffffffffffffffff1673ffffffffffffffffffffffffffffffffffffffff1673ffffffffffffffffffffffffffffffffffffffff1681526020015f820160149054906101000a90046bffffffffffffffffffffffff166bffffffffffffffffffffffff166bffffffffffffffffffffffff168152505090505f73ffffffffffffffffffffffffffffffffffffffff16815f015173ffffffffffffffffffffffffffffffffffffffff1603610b755760016040518060400160405290815f82015f9054906101000a900473ffffffffffffffffffffffffffffffffffffffff1673ffffffffffffffffffffffffffffffffffffffff1673ffffffffffffffffffffffffffffffffffffffff1681526020015f820160149054906101000a90046bffffffffffffffffffffffff166bffffffffffffffffffffffff166bffffffffffffffffffffffff168152505090505b5f610b7e611950565b6bffffffffffffffffffffffff1682602001516bffffffffffffffffffffffff1686610baa9190612622565b610bb49190612667565b9050815f0151819350935050509250929050565b5f8060019054906101000a900460ff16159050808015610bf7575060015f8054906101000a900460ff1660ff16105b80610c235750610c0630611959565b158015610c22575060015f8054906101000a900460ff1660ff16145b5b610c62576040517f08c379a0000000000000000000000000000000000000000000000000000000008152600401610c59906126a5565b60405180910390fd5b60015f806101000a81548160ff021916908360ff1602179055508015610c9d5760015f60016101000a81548160ff0219169083151502179055505b610ca561197b565b5f0160019054906101000a900460ff16610cd657610cc161197b565b5f015f9054906101000a900460ff1615610cdf565b610cde6119a7565b5b610d1e576040517f08c379a0000000000000000000000000000000000000000000000000000000008152600401610d1590612708565b60405180910390fd5b5f610d2761197b565b5f0160019054906101000a900460ff161590508015610d86576001610d4a61197b565b5f0160016101000a81548160ff0219169083151502179055506001610d6d61197b565b5f015f6101000a81548160ff0219169083151502179055505b610e3185805f0190610d98919061276b565b8080601f0160208091040260200160405190810160405280939291908181526020018383808284375f81840152601f19601f82011690508083019250505050505050868060200190610dea919061276b565b8080601f0160208091040260200160405190810160405280939291908181526020018383808284375f81840152601f19601f820116905080830192505050505050506119bb565b5f73ffffffffffffffffffffffffffffffffffffffff168560a0016020810190610e5b9190612420565b73ffffffffffffffffffffffffffffffffffffffff1614158015610e9f57505f8560c0016020810190610e8e91906127d7565b6bffffffffffffffffffffffff1614155b15610ed357610ed28560a0016020810190610eba9190612420565b8660c0016020810190610ecd91906127d7565b611a20565b5b610edd8385611bb0565b848060400190610eed919061276b565b60039182610efc9291906128a3565b50848060800190610f0d919061276b565b60049182610f1c9291906128a3565b508015610f46575f610f2c61197b565b5f0160016101000a81548160ff0219169083151502179055505b508015610f9f575f8060016101000a81548160ff0219169083151502179055507f7f26b83ff96e1f2b6a682f133852f6798a09c465da95921460cefb38474024986001604051610f96919061299e565b60405180910390a15b50505050565b610fbf83838360405180602001604052805f815250611249565b505050565b5f610fce82611773565b9050919050565b5f8073ffffffffffffffffffffffffffffffffffffffff168273ffffffffffffffffffffffffffffffffffffffff160361103b576040517f8f4eb60400000000000000000000000000000000000000000000000000000000815260040160405180910390fd5b67ffffffffffffffff61104c611583565b6005015f8473ffffffffffffffffffffffffffffffffffffffff1673ffffffffffffffffffffffffffffffffffffffff1681526020019081526020015f2054169050919050565b5f61109c611bcd565b905090565b60606110ab611583565b60030180546110b9906125ce565b80601f01602080910402602001604051908101604052809291908181526020018280546110e5906125ce565b80156111305780601f1061110757610100808354040283529160200191611130565b820191905f5260205f20905b81548152906001019060200180831161111357829003601f168201915b5050505050905090565b80611143611583565b6007015f61114f6118a9565b73ffffffffffffffffffffffffffffffffffffffff1673ffffffffffffffffffffffffffffffffffffffff1681526020019081526020015f205f8473ffffffffffffffffffffffffffffffffffffffff1673ffffffffffffffffffffffffffffffffffffffff1681526020019081526020015f205f6101000a81548160ff0219169083151502179055508173ffffffffffffffffffffffffffffffffffffffff166111f86118a9565b73ffffffffffffffffffffffffffffffffffffffff167f17307eab39ab6107e8899845ad3d59bd9653f200f220920489ca2b5937696c318360405161123d91906121f7565b60405180910390a35050565b6112548484846106a8565b5f8373ffffffffffffffffffffffffffffffffffffffff163b146112b55761127e84848484611bde565b6112b4576040517fd1a57ed600000000000000000000000000000000000000000000000000000000815260040160405180910390fd5b5b50505050565b60606112c6826115af565b6112fc576040517fa14c4b5000000000000000000000000000000000000000000000000000000000815260040160405180910390fd5b5f611305611d29565b90505f8151036113235760405180602001604052805f81525061134e565b8061132d84611db9565b60405160200161133e9291906129b1565b6040516020818303038152906040525b915050919050565b60048054611363906125ce565b80601f016020809104026020016040519081016040528092919081815260200182805461138f906125ce565b80156113da5780601f106113b1576101008083540402835291602001916113da565b820191905f5260205f20905b8154815290600101906020018083116113bd57829003601f168201915b505050505081565b5f6113eb611583565b6007015f8473ffffffffffffffffffffffffffffffffffffffff1673ffffffffffffffffffffffffffffffffffffffff1681526020019081526020015f205f8373ffffffffffffffffffffffffffffffffffffffff1673ffffffffffffffffffffffffffffffffffffffff1681526020019081526020015f205f9054906101000a900460ff16905092915050565b5f6301ffc9a760e01b827bffffffffffffffffffffffffffffffffffffffffffffffffffffffff191614806114d357506380ac58cd60e01b827bffffffffffffffffffffffffffffffffffffffffffffffffffffffff1916145b806115035750635b5e139f60e01b827bffffffffffffffffffffffffffffffffffffffffffffffffffffffff1916145b9050919050565b5f7f2a55205a000000000000000000000000000000000000000000000000000000007bffffffffffffffffffffffffffffffffffffffffffffffffffffffff1916827bffffffffffffffffffffffffffffffffffffffffffffffffffffffff1916148061157c575061157b82611e09565b5b9050919050565b5f807f2569078dfb4b0305704d3008e7403993ae9601b85f7ae5e742de3de8f8011c4090508091505090565b5f816115b961176b565b111580156115d057506115ca611583565b5f015482105b801561161457505f7c01000000000000000000000000000000000000000000000000000000006115fe611583565b6004015f8581526020019081526020015f205416145b9050919050565b5f61162583610fc4565b905081156116b0578073ffffffffffffffffffffffffffffffffffffffff1661164c6118a9565b73ffffffffffffffffffffffffffffffffffffffff16146116af57611678816116736118a9565b6113e2565b6116ae576040517fcfb3b94200000000000000000000000000000000000000000000000000000000815260040160405180910390fd5b5b5b836116b9611583565b6006015f8581526020019081526020015f205f015f6101000a81548173ffffffffffffffffffffffffffffffffffffffff021916908373ffffffffffffffffffffffffffffffffffffffff160217905550828473ffffffffffffffffffffffffffffffffffffffff168273ffffffffffffffffffffffffffffffffffffffff167f8c5be1e5ebec7d5bd14f71427d1e84f3dd0314c0f7b2291e5b200ac8c7c3b92560405160405180910390a450505050565b5f6001905090565b5f8161177d61176b565b116118465761178a611583565b6004015f8381526020019081526020015f205490505f7c0100000000000000000000000000000000000000000000000000000000821603611845575f8103611840576117d4611583565b5f0154821061180f576040517fdf2d9b4200000000000000000000000000000000000000000000000000000000815260040160405180910390fd5b5b611818611583565b6004015f836001900393508381526020019081526020015f205490505f810361187857611810565b611878565b5b6040517fdf2d9b4200000000000000000000000000000000000000000000000000000000815260040160405180910390fd5b919050565b5f805f611888611583565b6006015f8581526020019081526020015f2090508092508254915050915091565b5f33905090565b5f73ffffffffffffffffffffffffffffffffffffffff8316925073ffffffffffffffffffffffffffffffffffffffff821691508382148383141790509392505050565b50505050565b5f8060e883901c905060e861190f868684611e72565b62ffffff16901b9150509392505050565b5f73ffffffffffffffffffffffffffffffffffffffff83169250814260a01b178317905092915050565b50505050565b5f612710905090565b5f808273ffffffffffffffffffffffffffffffffffffffff163b119050919050565b5f807fee151c8401928dc223602bb187aff91b9a56c7cae5476ef1b3287b085a16c85f90508091505090565b5f803090505f813b90505f81149250505090565b6119c361197b565b5f0160019054906101000a900460ff16611a12576040517f08c379a0000000000000000000000000000000000000000000000000000000008152600401611a09906129e5565b60405180910390fd5b611a1c8282611e7a565b5050565b611a28611950565b6bffffffffffffffffffffffff16816bffffffffffffffffffffffff161115611a86576040517f08c379a0000000000000000000000000000000000000000000000000000000008152600401611a7d90612a48565b60405180910390fd5b5f73ffffffffffffffffffffffffffffffffffffffff168273ffffffffffffffffffffffffffffffffffffffff1603611af4576040517f08c379a0000000000000000000000000000000000000000000000000000000008152600401611aeb90612aab565b60405180910390fd5b60405180604001604052808373ffffffffffffffffffffffffffffffffffffffff168152602001826bffffffffffffffffffffffff1681525060015f820151815f015f6101000a81548173ffffffffffffffffffffffffffffffffffffffff021916908373ffffffffffffffffffffffffffffffffffffffff1602179055506020820151815f0160146101000a8154816bffffffffffffffffffffffff02191690836bffffffffffffffffffffffff1602179055509050505050565b611bc9828260405180602001604052805f815250611f1d565b5050565b5f611bd6611583565b5f0154905090565b5f8373ffffffffffffffffffffffffffffffffffffffff1663150b7a02611c036118a9565b8786866040518563ffffffff1660e01b8152600401611c259493929190612ae8565b6020604051808303815f875af1925050508015611c6057506040513d601f19601f82011682018060405250810190611c5d9190612b31565b60015b611cd6573d805f8114611c8e576040519150601f19603f3d011682016040523d82523d5f602084013e611c93565b606091505b505f815103611cce576040517fd1a57ed600000000000000000000000000000000000000000000000000000000815260040160405180910390fd5b805181602001fd5b63150b7a0260e01b7bffffffffffffffffffffffffffffffffffffffffffffffffffffffff1916817bffffffffffffffffffffffffffffffffffffffffffffffffffffffff191614915050949350505050565b606060038054611d38906125ce565b80601f0160208091040260200160405190810160405280929190818152602001828054611d64906125ce565b8015611daf5780601f10611d8657610100808354040283529160200191611daf565b820191905f5260205f20905b815481529060010190602001808311611d9257829003601f168201915b5050505050905090565b606060a06040510180604052602081039150505f815280825b600115611df457600183039250600a81066030018353600a8104905080611dd2575b50818103905060208203915080825250919050565b5f7f01ffc9a7000000000000000000000000000000000000000000000000000000007bffffffffffffffffffffffffffffffffffffffffffffffffffffffff1916827bffffffffffffffffffffffffffffffffffffffffffffffffffffffff1916149050919050565b5f9392505050565b611e8261197b565b5f0160019054906101000a900460ff16611ed1576040517f08c379a0000000000000000000000000000000000000000000000000000000008152600401611ec8906129e5565b60405180910390fd5b81611eda611583565b6002019081611ee99190612b56565b5080611ef3611583565b6003019081611f029190612b56565b50611f0b61176b565b611f13611583565b5f01819055505050565b611f278383611fc6565b5f8373ffffffffffffffffffffffffffffffffffffffff163b14611fc1575f611f4e611583565b5f015490505f83820390505b611f6c5f868380600101945086611bde565b611fa2576040517fd1a57ed600000000000000000000000000000000000000000000000000000000815260040160405180910390fd5b818110611f5a5781611fb2611583565b5f015414611fbe575f80fd5b50505b505050565b5f611fcf611583565b5f015490505f820361200d576040517fb562e8dd00000000000000000000000000000000000000000000000000000000815260040160405180910390fd5b6120195f8483856118f3565b600160406001901b17820261202c611583565b6005015f8573ffffffffffffffffffffffffffffffffffffffff1673ffffffffffffffffffffffffffffffffffffffff1681526020019081526020015f205f8282540192505081905550612094836120855f865f6118f9565b61208e85612193565b17611920565b61209c611583565b6004015f8381526020019081526020015f20819055505f80838301905073ffffffffffffffffffffffffffffffffffffffff8516915082825f7fddf252ad1be2c89b69c2b068fc378daa952ba7f163c4a11628f55a4df523b3ef5f80a4600183015b8181146121375780835f7fddf252ad1be2c89b69c2b068fc378daa952ba7f163c4a11628f55a4df523b3ef5f80a46001810190506120fe565b505f8203612171576040517f2e07630000000000000000000000000000000000000000000000000000000000815260040160405180910390fd5b8061217a611583565b5f0181905550505061218e5f84838561194a565b505050565b5f6001821460e11b9050919050565b7fffffffff00000000000000000000000000000000000000000000000000000000811681146121cf575f80fd5b50565b5f602082840312156121e2575f80fd5b81356121ed816121a2565b8091505092915050565b5f602082019050821515825292915050565b5f5b8381101561222657808201518184015260208101905061220b565b505f83830152505050565b5f8151808452612248816020860160208601612209565b60207fffffffffffffffffffffffffffffffffffffffffffffffffffffffffffffffe0601f83011685010191505092915050565b602081525f61228e6020830184612231565b905092915050565b5f602082840312156122a6575f80fd5b8135905092915050565b5f60208201905073ffffffffffffffffffffffffffffffffffffffff8316825292915050565b5f8135905073ffffffffffffffffffffffffffffffffffffffff811681146122fc575f80fd5b919050565b5f8060408385031215612312575f80fd5b61231b836122d6565b9150602083013590509250929050565b5f60208201905082825292915050565b5f805f6060848603121561234d575f80fd5b612356846122d6565b9250612364602085016122d6565b9150604084013590509250925092565b5f8060408385031215612385575f80fd5b82359150602083013590509250929050565b5f60408201905073ffffffffffffffffffffffffffffffffffffffff841682528260208301529392505050565b5f805f606084860312156123d6575f80fd5b833567ffffffffffffffff8111156123ec575f80fd5b808501905060e08187031215612400575f80fd5b8093505060208401359150612417604085016122d6565b90509250925092565b5f60208284031215612430575f80fd5b612439826122d6565b905092915050565b5f8060408385031215612452575f80fd5b61245b836122d6565b91506020830135801515811461246f575f80fd5b809150509250929050565b7f4e487b71000000000000000000000000000000000000000000000000000000005f52604160045260245ffd5b5f805f80608085870312156124ba575f80fd5b6124c3856122d6565b93506124d1602086016122d6565b925060408501359150606085013567ffffffffffffffff808211156124f4575f80fd5b818701915087601f830112612507575f80fd5b81358181111561251a5761251961247a565b5b7fffffffffffffffffffffffffffffffffffffffffffffffffffffffffffffffe060405181603f83601f86011601168101915080821084831117156125625761256161247a565b5b816040528281528a602084870101111561257a575f80fd5b826020860160208301375f60208483010152809550505050505092959194509250565b5f80604083850312156125ae575f80fd5b6125b7836122d6565b91506125c5602084016122d6565b90509250929050565b5f8160011c905060018216806125e557607f821691505b60208210810361261c577f4e487b71000000000000000000000000000000000000000000000000000000005f52602260045260245ffd5b50919050565b5f82820290508181048314821517612661577f4e487b71000000000000000000000000000000000000000000000000000000005f52601160045260245ffd5b92915050565b5f8261269a577f4e487b71000000000000000000000000000000000000000000000000000000005f52601260045260245ffd5b828204905092915050565b60208152602e60208201527f496e697469616c697a61626c653a20636f6e747261637420697320616c72656160408201527f647920696e697469616c697a656400000000000000000000000000000000000060608201525f608082019050919050565b60208152603760208201527f455243373231415f5f496e697469616c697a61626c653a20636f6e747261637460408201527f20697320616c726561647920696e697469616c697a656400000000000000000060608201525f608082019050919050565b5f8083357fffffffffffffffffffffffffffffffffffffffffffffffffffffffffffffffe184360301811261279e575f80fd5b80840190508035915067ffffffffffffffff8211156127bb575f80fd5b602081019250508036038213156127d0575f80fd5b9250929050565b5f602082840312156127e7575f80fd5b81356bffffffffffffffffffffffff81168114612802575f80fd5b8091505092915050565b805f52505f60205f20905090565b601f821115612867575f81815260208120601f850160051c81016020861015612841578190505b601f850160051c820191505b818110156128635782815560018101905061284d565b5050505b505050565b5f8260011b7fffffffffffffffffffffffffffffffffffffffffffffffffffffffffffffffff8460031b1c19831617905092915050565b67ffffffffffffffff8311156128bc576128bb61247a565b5b6128d0836128ca83546125ce565b8361281a565b5f601f8411600181146128fd575f85156128eb578285013590505b6128f5868261286c565b845550612997565b7fffffffffffffffffffffffffffffffffffffffffffffffffffffffffffffffe085166129298461280c565b835b828110156129505784870135825560018201915060208501945060208101905061292b565b508682101561298b577fffffffffffffffffffffffffffffffffffffffffffffffffffffffffffffffff60f88860031b161c19848701351681555b505060018560011b0183555b5050505050565b5f60208201905060ff8316825292915050565b5f83516129c2818460208801612209565b808301905083516129d7818360208801612209565b808201925050509392505050565b60208152603460208201527f455243373231415f5f496e697469616c697a61626c653a20636f6e747261637460408201527f206973206e6f7420696e697469616c697a696e6700000000000000000000000060608201525f608082019050919050565b60208152602a60208201527f455243323938313a20726f79616c7479206665652077696c6c2065786365656460408201527f2073616c6550726963650000000000000000000000000000000000000000000060608201525f608082019050919050565b60208152601960208201527f455243323938313a20696e76616c69642072656365697665720000000000000060408201525f606082019050919050565b5f73ffffffffffffffffffffffffffffffffffffffff808716835280861660208401525083604083015260806060830152612b266080830184612231565b905095945050505050565b5f60208284031215612b41575f80fd5b8151612b4c816121a2565b8091505092915050565b815167ffffffffffffffff811115612b7157612b7061247a565b5b612b8581612b7f84546125ce565b8461281a565b5f6020809150601f831160018114612bb7575f8415612ba5578387015190505b612baf858261286c565b865550612c51565b7fffffffffffffffffffffffffffffffffffffffffffffffffffffffffffffffe08416612be38661280c565b5f5b82811015612c085785890151825560018201915084860195508481019050612be5565b5085821015612c4557848801517fffffffffffffffffffffffffffffffffffffffffffffffffffffffffffffffff60f88860031b161c1981168255505b505060018460011b0185555b50505050505056fea264697066735822122073d62c49fbe88d02109393b3ad80f3f900786e0cc67bd7dbb6fd65fe804f7e9064736f6c63430008150033",
  "linkReferences": {},
  "deployedLinkReferences": {}
}