{
  "_format": "hh-sol-artifact-1",
  "contractName": "EeseeRaribleRouter",
  "sourceName": "contracts/periphery/routers/EeseeRaribleRouter.sol",
  "abi": [
    {
      "inputs": [
        {
          "internalType": "contract IExchangeV2Core",
          "name": "_exchangeV2Core",
          "type": "address"
        }
      ],
      "stateMutability": "nonpayable",
      "type": "constructor"
    },
    {
      "inputs": [],
      "name": "ERC20NotSupported",
      "type": "error"
    },
    {
      "inputs": [],
      "name": "EthDepositRejected",
      "type": "error"
    },
    {
      "inputs": [],
      "name": "InsufficientFunds",
      "type": "error"
    },
    {
      "inputs": [],
      "name": "TransferNotSuccessful",
      "type": "error"
    },
    {
      "inputs": [],
      "name": "exchangeV2Core",
      "outputs": [
        {
          "internalType": "contract IExchangeV2Core",
          "name": "",
          "type": "address"
        }
      ],
      "stateMutability": "view",
      "type": "function"
    },
    {
      "inputs": [
        {
          "internalType": "address",
          "name": "",
          "type": "address"
        },
        {
          "internalType": "address",
          "name": "",
          "type": "address"
        },
        {
          "internalType": "uint256",
          "name": "",
          "type": "uint256"
        },
        {
          "internalType": "bytes",
          "name": "",
          "type": "bytes"
        }
      ],
      "name": "onERC721Received",
      "outputs": [
        {
          "internalType": "bytes4",
          "name": "",
          "type": "bytes4"
        }
      ],
      "stateMutability": "nonpayable",
      "type": "function"
    },
    {
      "inputs": [
        {
          "internalType": "bytes",
          "name": "data",
          "type": "bytes"
        },
        {
          "internalType": "address",
          "name": "recipient",
          "type": "address"
        }
      ],
      "name": "purchaseAsset",
      "outputs": [
        {
          "components": [
            {
              "internalType": "address",
              "name": "token",
              "type": "address"
            },
            {
              "internalType": "uint256",
              "name": "tokenID",
              "type": "uint256"
            },
            {
              "internalType": "uint256",
              "name": "amount",
              "type": "uint256"
            },
            {
              "internalType": "enum AssetType",
              "name": "assetType",
              "type": "uint8"
            },
            {
              "internalType": "bytes",
              "name": "data",
              "type": "bytes"
            }
          ],
          "internalType": "struct Asset",
          "name": "asset",
          "type": "tuple"
        },
        {
          "internalType": "uint256",
          "name": "spent",
          "type": "uint256"
        }
      ],
      "stateMutability": "payable",
      "type": "function"
    },
    {
      "stateMutability": "payable",
      "type": "receive"
    }
  ],
  "bytecode": "0x60a060405234801561000f575f80fd5b50604051611069380380611069833981810160405281019061003191906100a2565b61004b67b6e3c8bff9bb488660c01b61009f60201b60201c565b6100656776fc6da9b83be97460c01b61009f60201b60201c565b8073ffffffffffffffffffffffffffffffffffffffff1660808173ffffffffffffffffffffffffffffffffffffffff1681525050506100d1565b50565b5f602082840312156100b2575f80fd5b815160018060a01b03811681146100c7575f80fd5b8091505092915050565b608051610f796100f05f395f818161038701526106f10152610f795ff3fe608060405260043610610037575f3560e01c8063150b7a02146100e35780633e19c9e01461011f57806349bb935814610150576100df565b366100df5761005067b3adac9d1e8e067860c01b61017a565b3273ffffffffffffffffffffffffffffffffffffffff163373ffffffffffffffffffffffffffffffffffffffff16036100c95761009767982b1eb354d0446560c01b61017a565b6040517f1b10b0f900000000000000000000000000000000000000000000000000000000815260040160405180910390fd5b6100dd677735c9bb7d00f6de60c01b61017a565b005b5f80fd5b3480156100ee575f80fd5b50610109600480360381019061010491906108a4565b61017d565b6040516101169190610939565b60405180910390f35b6101396004803603810190610134919061096b565b610190565b604051610147929190610a9c565b60405180910390f35b34801561015b575f80fd5b506101646106ef565b6040516101719190610b3c565b60405180910390f35b50565b5f63150b7a0260e01b9050949350505050565b610198610713565b5f6101ad67f4c0aae248c271a960c01b61017a565b6101c167b857e98574705e6960c01b61017a565b6101d5671defda5c5ea6fe8b60c01b61017a565b5f85858101906101e59190610b99565b90506101fb676691f9e5ea72266860c01b61017a565b60648160800151606561020e9190610d07565b6102189190610d4c565b915061022e67d8656b54f95d0e8e60c01b61017a565b610242679a9477e2d2b9d0d660c01b61017a565b5f73ffffffffffffffffffffffffffffffffffffffff168160a0015173ffffffffffffffffffffffffffffffffffffffff16146102bf5761028d6758b92d280489372660c01b61017a565b6040517f60c87f0d00000000000000000000000000000000000000000000000000000000815260040160405180910390fd5b6102d367be561520fa2a12db60c01b61017a565b6102e767a1a613d17190054960c01b61017a565b6102fb671895cab9e08c77e360c01b61017a565b813410156103495761031767bb5bbc7314a249cd60c01b61017a565b6040517f356680b700000000000000000000000000000000000000000000000000000000815260040160405180910390fd5b61035d67eb8a7094c928398f60c01b61017a565b61037167bc2912214926388160c01b61017a565b61038567b7a4423fa99741b060c01b61017a565b7f000000000000000000000000000000000000000000000000000000000000000073ffffffffffffffffffffffffffffffffffffffff16630d5f7d3583836040518363ffffffff1660e01b81526004016103df9190610d8a565b5f604051808303818588803b1580156103f6575f80fd5b505af1158015610408573d5f803e3d5ffd5b5050505050610421670c1890bf1729a38460c01b61017a565b610435674bd1ff5f5090141660c01b61017a565b3482146105835761045067ad8320cac3a5d3ad60c01b61017a565b610464672891760c2d31a9b860c01b61017a565b6104786789196f4f7e9767e860c01b61017a565b61048c673a21951f7a12e08960c01b61017a565b5f3373ffffffffffffffffffffffffffffffffffffffff168334036040516104b390610ed4565b5f6040518083038185875af1925050503d805f81146104ed576040519150601f19603f3d011682016040523d82523d5f602084013e6104f2565b606091505b5050905061050a67196efd0edee24cfb60c01b61017a565b61051e6768d6eaee804765e160c01b61017a565b8061056957610537671b4c2370539cb79a60c01b61017a565b6040517fa392ef7800000000000000000000000000000000000000000000000000000000815260040160405180910390fd5b61057d679c58413304d13da860c01b61017a565b50610598565b610597679531e5db8873aeac60c01b61017a565b5b6105ac67b927d27cb8d1b27d60c01b61017a565b6105c067766f4839beeba4d260c01b61017a565b5f8082606001518060200190518101906105da9190610edd565b915091506105f267fe58b4348a8d534660c01b61017a565b6040518060a001604052808373ffffffffffffffffffffffffffffffffffffffff168152602001828152602001600181526020015f600581111561063957610638610a08565b5b815260200160405180602001604052805f8152508152509450610666670b430723d1ee5e8360c01b61017a565b61067a67adfc8721f95a28ff60c01b61017a565b8173ffffffffffffffffffffffffffffffffffffffff166342842e0e3088846040518463ffffffff1660e01b81526004016106b793929190610f0b565b5f604051808303815f87803b1580156106ce575f80fd5b505af11580156106e0573d5f803e3d5ffd5b50505050505050935093915050565b7f000000000000000000000000000000000000000000000000000000000000000081565b6040518060a001604052805f73ffffffffffffffffffffffffffffffffffffffff1681526020015f81526020015f81526020015f600581111561075957610758610a08565b5b8152602001606081525090565b73ffffffffffffffffffffffffffffffffffffffff81168114610787575f80fd5b50565b5f8135905061079881610766565b919050565b7f4e487b71000000000000000000000000000000000000000000000000000000005f52604160045260245ffd5b5f60405190506101e0810181811067ffffffffffffffff821117156107f2576107f161079d565b5b806040525090565b5f82601f830112610809575f80fd5b813567ffffffffffffffff808211156108255761082461079d565b5b7fffffffffffffffffffffffffffffffffffffffffffffffffffffffffffffffe060405181603f83601f870116011681019150808210838311171561086d5761086c61079d565b5b81604052838152866020858801011115610885575f80fd5b836020870160208301375f602085830101528094505050505092915050565b5f805f80608085870312156108b7575f80fd5b84356108c281610766565b8094505060208501356108d481610766565b8093505060408501359150606085013567ffffffffffffffff8111156108f8575f80fd5b610904878288016107fa565b91505092959194509250565b7fffffffff00000000000000000000000000000000000000000000000000000000811682525050565b5f6020820190507fffffffff000000000000000000000000000000000000000000000000000000008316825292915050565b5f805f6040848603121561097d575f80fd5b833567ffffffffffffffff80821115610994575f80fd5b818601915086601f8301126109a7575f80fd5b8135818111156109b5575f80fd5b8760208285010111156109c6575f80fd5b60208301955080945050505060208401356109e081610766565b809150509250925092565b73ffffffffffffffffffffffffffffffffffffffff811682525050565b7f4e487b71000000000000000000000000000000000000000000000000000000005f52602160045260245ffd5b5f81518084525f5b81811015610a5f57602080828601015181838801015250602081019050610a3d565b505f6020828601015260207fffffffffffffffffffffffffffffffffffffffffffffffffffffffffffffffe0601f83011685010191505092915050565b6040815273ffffffffffffffffffffffffffffffffffffffff835116604082015260208301516060820152604083015160808201525f606084015160068110610b0c577f4e487b71000000000000000000000000000000000000000000000000000000005f52602160045260245ffd5b8060a084015250608084015160a060c0840152610b2c60e0840182610a35565b9150508260208301529392505050565b5f60208201905073ffffffffffffffffffffffffffffffffffffffff8316825292915050565b5f813590507fffffffff0000000000000000000000000000000000000000000000000000000081168114610b94575f80fd5b919050565b5f60208284031215610ba9575f80fd5b813567ffffffffffffffff80821115610bc0575f80fd5b81840191506101e08286031215610bd5575f80fd5b610bdd6107ca565b610be68361078a565b815260208301356020820152610bfe60408401610b62565b6040820152606083013582811115610c14575f80fd5b610c20878286016107fa565b60608301525060808301356080820152610c3c60a0840161078a565b60a082015260c083013560c082015260e083013560e0820152610100808401358183015250610120610c6f818501610b62565b81830152506101408084013583811115610c87575f80fd5b610c93888287016107fa565b8284015250506101608084013583811115610cac575f80fd5b610cb8888287016107fa565b8284015250506101808084013581830152506101a08084013581830152506101c08084013583811115610ce9575f80fd5b610cf5888287016107fa565b82840152505080935050505092915050565b5f82820290508181048314821517610d46577f4e487b71000000000000000000000000000000000000000000000000000000005f52601160045260245ffd5b92915050565b5f82610d7f577f4e487b71000000000000000000000000000000000000000000000000000000005f52601260045260245ffd5b828204905092915050565b60208152610d9c6020820183516109eb565b602082015160408201525f6040830151610db96060840182610910565b5060608301516101e0806080850152610dd6610200850183610a35565b9150608085015160a085015260a0850151610df460c08601826109eb565b5060c085015160e085015260e0850151610100818187015280870151915050610120818187015280870151915050610140610e3181870183610910565b808701519150507fffffffffffffffffffffffffffffffffffffffffffffffffffffffffffffffe0610160818786030181880152610e6f8584610a35565b945080880151925050610180818786030181880152610e8e8584610a35565b9450808801519250506101a08281880152808801519250506101c082818801528088015192505080868503018387015250610ec98382610a35565b935050505092915050565b5f819050919050565b5f8060408385031215610eee575f80fd5b8251610ef981610766565b80925050602083015190509250929050565b5f60608201905073ffffffffffffffffffffffffffffffffffffffff808616835280851660208401525082604083015294935050505056fea2646970667358221220f556acdb3a7a408447de04755e5df2ba2d71774c84d7df701570779c5078512264736f6c63430008150033",
  "linkReferences": {},
  "deployedLinkReferences": {}
}