{
  "_format": "hh-sol-artifact-1",
  "contractName": "MockERC20",
  "sourceName": "contracts/test/MockERC20.sol",
  "abi": [
    {
      "inputs": [
        {
          "internalType": "uint256",
          "name": "amount",
          "type": "uint256"
        }
      ],
      "stateMutability": "nonpayable",
      "type": "constructor"
    },
    {
      "anonymous": false,
      "inputs": [
        {
          "indexed": true,
          "internalType": "address",
          "name": "owner",
          "type": "address"
        },
        {
          "indexed": true,
          "internalType": "address",
          "name": "spender",
          "type": "address"
        },
        {
          "indexed": false,
          "internalType": "uint256",
          "name": "value",
          "type": "uint256"
        }
      ],
      "name": "Approval",
      "type": "event"
    },
    {
      "anonymous": false,
      "inputs": [
        {
          "indexed": true,
          "internalType": "address",
          "name": "from",
          "type": "address"
        },
        {
          "indexed": true,
          "internalType": "address",
          "name": "to",
          "type": "address"
        },
        {
          "indexed": false,
          "internalType": "uint256",
          "name": "value",
          "type": "uint256"
        }
      ],
      "name": "Transfer",
      "type": "event"
    },
    {
      "inputs": [
        {
          "internalType": "address",
          "name": "owner",
          "type": "address"
        },
        {
          "internalType": "address",
          "name": "spender",
          "type": "address"
        }
      ],
      "name": "allowance",
      "outputs": [
        {
          "internalType": "uint256",
          "name": "",
          "type": "uint256"
        }
      ],
      "stateMutability": "view",
      "type": "function"
    },
    {
      "inputs": [
        {
          "internalType": "address",
          "name": "spender",
          "type": "address"
        },
        {
          "internalType": "uint256",
          "name": "amount",
          "type": "uint256"
        }
      ],
      "name": "approve",
      "outputs": [
        {
          "internalType": "bool",
          "name": "",
          "type": "bool"
        }
      ],
      "stateMutability": "nonpayable",
      "type": "function"
    },
    {
      "inputs": [
        {
          "internalType": "address",
          "name": "account",
          "type": "address"
        }
      ],
      "name": "balanceOf",
      "outputs": [
        {
          "internalType": "uint256",
          "name": "",
          "type": "uint256"
        }
      ],
      "stateMutability": "view",
      "type": "function"
    },
    {
      "inputs": [],
      "name": "decimals",
      "outputs": [
        {
          "internalType": "uint8",
          "name": "",
          "type": "uint8"
        }
      ],
      "stateMutability": "pure",
      "type": "function"
    },
    {
      "inputs": [
        {
          "internalType": "address",
          "name": "spender",
          "type": "address"
        },
        {
          "internalType": "uint256",
          "name": "subtractedValue",
          "type": "uint256"
        }
      ],
      "name": "decreaseAllowance",
      "outputs": [
        {
          "internalType": "bool",
          "name": "",
          "type": "bool"
        }
      ],
      "stateMutability": "nonpayable",
      "type": "function"
    },
    {
      "inputs": [
        {
          "internalType": "address",
          "name": "spender",
          "type": "address"
        },
        {
          "internalType": "uint256",
          "name": "addedValue",
          "type": "uint256"
        }
      ],
      "name": "increaseAllowance",
      "outputs": [
        {
          "internalType": "bool",
          "name": "",
          "type": "bool"
        }
      ],
      "stateMutability": "nonpayable",
      "type": "function"
    },
    {
      "inputs": [],
      "name": "name",
      "outputs": [
        {
          "internalType": "string",
          "name": "",
          "type": "string"
        }
      ],
      "stateMutability": "view",
      "type": "function"
    },
    {
      "inputs": [],
      "name": "symbol",
      "outputs": [
        {
          "internalType": "string",
          "name": "",
          "type": "string"
        }
      ],
      "stateMutability": "view",
      "type": "function"
    },
    {
      "inputs": [],
      "name": "totalSupply",
      "outputs": [
        {
          "internalType": "uint256",
          "name": "",
          "type": "uint256"
        }
      ],
      "stateMutability": "view",
      "type": "function"
    },
    {
      "inputs": [
        {
          "internalType": "address",
          "name": "to",
          "type": "address"
        },
        {
          "internalType": "uint256",
          "name": "amount",
          "type": "uint256"
        }
      ],
      "name": "transfer",
      "outputs": [
        {
          "internalType": "bool",
          "name": "",
          "type": "bool"
        }
      ],
      "stateMutability": "nonpayable",
      "type": "function"
    },
    {
      "inputs": [
        {
          "internalType": "address",
          "name": "to",
          "type": "address"
        },
        {
          "internalType": "uint256",
          "name": "amount",
          "type": "uint256"
        },
        {
          "internalType": "bytes",
          "name": "",
          "type": "bytes"
        }
      ],
      "name": "transferAndCall",
      "outputs": [
        {
          "internalType": "bool",
          "name": "success",
          "type": "bool"
        }
      ],
      "stateMutability": "nonpayable",
      "type": "function"
    },
    {
      "inputs": [
        {
          "internalType": "address",
          "name": "from",
          "type": "address"
        },
        {
          "internalType": "address",
          "name": "to",
          "type": "address"
        },
        {
          "internalType": "uint256",
          "name": "amount",
          "type": "uint256"
        }
      ],
      "name": "transferFrom",
      "outputs": [
        {
          "internalType": "bool",
          "name": "",
          "type": "bool"
        }
      ],
      "stateMutability": "nonpayable",
      "type": "function"
    }
  ],
  "bytecode": "0x608060405234801562000010575f80fd5b50604051620014b4380380620014b4833981810160405281019062000036919062000250565b6040518060400160405280600381526020017f65726300000000000000000000000000000000000000000000000000000000008152506040518060400160405280600581526020017f45524332300000000000000000000000000000000000000000000000000000008152508160039081620000b3919062000338565b508060049081620000c5919062000338565b505050620000da3382620000e160201b60201c565b5062000483565b5f73ffffffffffffffffffffffffffffffffffffffff168273ffffffffffffffffffffffffffffffffffffffff160362000152576040517f08c379a000000000000000000000000000000000000000000000000000000000815260040162000149906200040d565b60405180910390fd5b620001655f83836200024660201b60201c565b8060025f8282546200017891906200044a565b92505081905550805f808473ffffffffffffffffffffffffffffffffffffffff1673ffffffffffffffffffffffffffffffffffffffff1681526020019081526020015f205f82825401925050819055508173ffffffffffffffffffffffffffffffffffffffff165f73ffffffffffffffffffffffffffffffffffffffff167fddf252ad1be2c89b69c2b068fc378daa952ba7f163c4a11628f55a4df523b3ef8360405162000227919062000473565b60405180910390a3620002425f83836200024b60201b60201c565b5050565b505050565b505050565b5f6020828403121562000261575f80fd5b8151905092915050565b634e487b7160e01b5f52604160045260245ffd5b5f8160011c905060018216806200029757607f821691505b602082108103620002b657634e487b7160e01b5f52602260045260245ffd5b50919050565b805f52505f60205f20905090565b601f8211156200031b575f81815260208120601f850160051c81016020861015620002f3578190505b601f850160051c820191505b818110156200031757828155600181019050620002ff565b5050505b505050565b5f8260011b5f198460031b1c19831617905092915050565b815160018060401b038111156200035457620003536200026b565b5b6200036c816200036584546200027f565b84620002ca565b5f6020809150601f831160018114620003a3575f84156200038e578387015190505b6200039a858262000320565b86555062000405565b601f198416620003b386620002bc565b5f5b82811015620003da5785890151825560018201915084860195508481019050620003b5565b5085821015620003f957848801515f1960f88860031b161c1981168255505b505060018460011b0185555b505050505050565b60208152601f60208201527f45524332303a206d696e7420746f20746865207a65726f20616464726573730060408201525f606082019050919050565b5f8282019050808211156200046d57634e487b7160e01b5f52601160045260245ffd5b92915050565b5f60208201905082825292915050565b61102380620004915f395ff3fe608060405234801561000f575f80fd5b50600436106100d2575f3560e01c80634000aea01161007f578063a457c2d711610059578063a457c2d71461023e578063a9059cbb1461026e578063dd62ed3e1461029e576100d2565b80634000aea0146101c057806370a08231146101f057806395d89b4114610220576100d2565b806323b872dd116100b057806323b872dd14610142578063313ce567146101725780633950935114610190576100d2565b806306fdde03146100d6578063095ea7b3146100f457806318160ddd14610124575b5f80fd5b6100de6102ce565b6040516100eb9190610ac2565b60405180910390f35b61010e60048036038101906101099190610b59565b61035e565b60405161011b9190610b83565b60405180910390f35b61012c610380565b6040516101399190610b95565b60405180910390f35b61015c60048036038101906101579190610ba5565b610389565b6040516101699190610b83565b60405180910390f35b61017a6103b7565b6040516101879190610bde565b60405180910390f35b6101aa60048036038101906101a59190610b59565b6103bf565b6040516101b79190610b83565b60405180910390f35b6101da60048036038101906101d59190610bf1565b6103f5565b6040516101e79190610b83565b60405180910390f35b61020a60048036038101906102059190610c77565b610409565b6040516102179190610b95565b60405180910390f35b61022861044e565b6040516102359190610ac2565b60405180910390f35b61025860048036038101906102539190610b59565b6104de565b6040516102659190610b83565b60405180910390f35b61028860048036038101906102839190610b59565b610553565b6040516102959190610b83565b60405180910390f35b6102b860048036038101906102b39190610c98565b610575565b6040516102c59190610b95565b60405180910390f35b6060600380546102dd90610cc9565b80601f016020809104026020016040519081016040528092919081815260200182805461030990610cc9565b80156103545780601f1061032b57610100808354040283529160200191610354565b820191905f5260205f20905b81548152906001019060200180831161033757829003601f168201915b5050505050905090565b5f806103686105f7565b90506103758185856105fe565b600191505092915050565b5f600254905090565b5f806103936105f7565b90506103a08582856107c1565b6103ab85858561084c565b60019150509392505050565b5f6006905090565b5f806103c96105f7565b90506103ea8185856103db8589610575565b6103e59190610d1d565b6105fe565b600191505092915050565b5f61040133868661084c565b949350505050565b5f805f8373ffffffffffffffffffffffffffffffffffffffff1673ffffffffffffffffffffffffffffffffffffffff1681526020019081526020015f20549050919050565b60606004805461045d90610cc9565b80601f016020809104026020016040519081016040528092919081815260200182805461048990610cc9565b80156104d45780601f106104ab576101008083540402835291602001916104d4565b820191905f5260205f20905b8154815290600101906020018083116104b757829003601f168201915b5050505050905090565b5f806104e86105f7565b90505f6104f58286610575565b90508381101561053a576040517f08c379a000000000000000000000000000000000000000000000000000000000815260040161053190610d5e565b60405180910390fd5b61054782868684036105fe565b60019250505092915050565b5f8061055d6105f7565b905061056a81858561084c565b600191505092915050565b5f60015f8473ffffffffffffffffffffffffffffffffffffffff1673ffffffffffffffffffffffffffffffffffffffff1681526020019081526020015f205f8373ffffffffffffffffffffffffffffffffffffffff1673ffffffffffffffffffffffffffffffffffffffff1681526020019081526020015f2054905092915050565b5f33905090565b5f73ffffffffffffffffffffffffffffffffffffffff168373ffffffffffffffffffffffffffffffffffffffff160361066c576040517f08c379a000000000000000000000000000000000000000000000000000000000815260040161066390610dc1565b60405180910390fd5b5f73ffffffffffffffffffffffffffffffffffffffff168273ffffffffffffffffffffffffffffffffffffffff16036106da576040517f08c379a00000000000000000000000000000000000000000000000000000000081526004016106d190610e24565b60405180910390fd5b8060015f8573ffffffffffffffffffffffffffffffffffffffff1673ffffffffffffffffffffffffffffffffffffffff1681526020019081526020015f205f8473ffffffffffffffffffffffffffffffffffffffff1673ffffffffffffffffffffffffffffffffffffffff1681526020019081526020015f20819055508173ffffffffffffffffffffffffffffffffffffffff168373ffffffffffffffffffffffffffffffffffffffff167f8c5be1e5ebec7d5bd14f71427d1e84f3dd0314c0f7b2291e5b200ac8c7c3b925836040516107b49190610b95565b60405180910390a3505050565b5f6107cc8484610575565b90507fffffffffffffffffffffffffffffffffffffffffffffffffffffffffffffffff81146108465781811015610838576040517f08c379a000000000000000000000000000000000000000000000000000000000815260040161082f90610e87565b60405180910390fd5b61084584848484036105fe565b5b50505050565b5f73ffffffffffffffffffffffffffffffffffffffff168373ffffffffffffffffffffffffffffffffffffffff16036108ba576040517f08c379a00000000000000000000000000000000000000000000000000000000081526004016108b190610ec4565b60405180910390fd5b5f73ffffffffffffffffffffffffffffffffffffffff168273ffffffffffffffffffffffffffffffffffffffff1603610928576040517f08c379a000000000000000000000000000000000000000000000000000000000815260040161091f90610f27565b60405180910390fd5b610933838383610ab8565b5f805f8573ffffffffffffffffffffffffffffffffffffffff1673ffffffffffffffffffffffffffffffffffffffff1681526020019081526020015f20549050818110156109b6576040517f08c379a00000000000000000000000000000000000000000000000000000000081526004016109ad90610f8a565b60405180910390fd5b8181035f808673ffffffffffffffffffffffffffffffffffffffff1673ffffffffffffffffffffffffffffffffffffffff1681526020019081526020015f2081905550815f808573ffffffffffffffffffffffffffffffffffffffff1673ffffffffffffffffffffffffffffffffffffffff1681526020019081526020015f205f82825401925050819055508273ffffffffffffffffffffffffffffffffffffffff168473ffffffffffffffffffffffffffffffffffffffff167fddf252ad1be2c89b69c2b068fc378daa952ba7f163c4a11628f55a4df523b3ef84604051610a9f9190610b95565b60405180910390a3610ab2848484610abd565b50505050565b505050565b505050565b5f6020808352835180828501525f5b81811015610af057828187010151604082870101528281019050610ad1565b505f6040828601015260407fffffffffffffffffffffffffffffffffffffffffffffffffffffffffffffffe0601f8301168501019250505092915050565b5f8135905073ffffffffffffffffffffffffffffffffffffffff81168114610b54575f80fd5b919050565b5f8060408385031215610b6a575f80fd5b610b7383610b2e565b9150602083013590509250929050565b5f602082019050821515825292915050565b5f60208201905082825292915050565b5f805f60608486031215610bb7575f80fd5b610bc084610b2e565b9250610bce60208501610b2e565b9150604084013590509250925092565b5f60208201905060ff8316825292915050565b5f805f8060608587031215610c04575f80fd5b610c0d85610b2e565b935060208501359250604085013567ffffffffffffffff80821115610c30575f80fd5b818701915087601f830112610c43575f80fd5b813581811115610c51575f80fd5b886020828501011115610c62575f80fd5b60208301945080935050505092959194509250565b5f60208284031215610c87575f80fd5b610c9082610b2e565b905092915050565b5f8060408385031215610ca9575f80fd5b610cb283610b2e565b9150610cc060208401610b2e565b90509250929050565b5f8160011c90506001821680610ce057607f821691505b602082108103610d17577f4e487b71000000000000000000000000000000000000000000000000000000005f52602260045260245ffd5b50919050565b5f828201905080821115610d58577f4e487b71000000000000000000000000000000000000000000000000000000005f52601160045260245ffd5b92915050565b60208152602560208201527f45524332303a2064656372656173656420616c6c6f77616e63652062656c6f7760408201527f207a65726f00000000000000000000000000000000000000000000000000000060608201525f608082019050919050565b60208152602460208201527f45524332303a20617070726f76652066726f6d20746865207a65726f2061646460408201527f726573730000000000000000000000000000000000000000000000000000000060608201525f608082019050919050565b60208152602260208201527f45524332303a20617070726f766520746f20746865207a65726f20616464726560408201527f737300000000000000000000000000000000000000000000000000000000000060608201525f608082019050919050565b60208152601d60208201527f45524332303a20696e73756666696369656e7420616c6c6f77616e636500000060408201525f606082019050919050565b60208152602560208201527f45524332303a207472616e736665722066726f6d20746865207a65726f20616460408201527f647265737300000000000000000000000000000000000000000000000000000060608201525f608082019050919050565b60208152602360208201527f45524332303a207472616e7366657220746f20746865207a65726f206164647260408201527f657373000000000000000000000000000000000000000000000000000000000060608201525f608082019050919050565b60208152602660208201527f45524332303a207472616e7366657220616d6f756e742065786365656473206260408201527f616c616e6365000000000000000000000000000000000000000000000000000060608201525f60808201905091905056fea26469706673582212200e2c68326b40c7665f8b019ec50e433d7fbd9b57b8a28d1343b3034bce52a4bc64736f6c63430008150033",
  "linkReferences": {},
  "deployedLinkReferences": {}
}