{
  "_format": "hh-sol-artifact-1",
  "contractName": "MockETHSender",
  "sourceName": "contracts/test/MockETHSender.sol",
  "abi": [
    {
      "inputs": [
        {
          "internalType": "address",
          "name": "to",
          "type": "address"
        },
        {
          "internalType": "uint256",
          "name": "amount",
          "type": "uint256"
        }
      ],
      "name": "send",
      "outputs": [],
      "stateMutability": "nonpayable",
      "type": "function"
    },
    {
      "stateMutability": "payable",
      "type": "receive"
    }
  ],
  "bytecode": "0x608060405234801561000f575f80fd5b506101438061001d5f395ff3fe608060405260043610610021575f3560e01c8063d0679d341461002c57610028565b3661002857005b5f80fd5b348015610037575f80fd5b50610052600480360381019061004d91906100be565b610054565b005b8173ffffffffffffffffffffffffffffffffffffffff168160405161007890610104565b5f6040518083038185875af1925050503d805f81146100b2576040519150601f19603f3d011682016040523d82523d5f602084013e6100b7565b606091505b5050505050565b5f80604083850312156100cf575f80fd5b823573ffffffffffffffffffffffffffffffffffffffff811681146100f2575f80fd5b80925050602083013590509250929050565b5f81905091905056fea264697066735822122030d5d393407196d2bca7db0c5afefbfed3855d4cf00e8c2e813ac8d0706a9edd64736f6c63430008150033",
  "linkReferences": {},
  "deployedLinkReferences": {}
}