{
  "_format": "hh-sol-artifact-1",
  "contractName": "EeseeFeeSplitter",
  "sourceName": "contracts/admin/EeseeFeeSplitter.sol",
  "abi": [
    {
      "inputs": [
        {
          "internalType": "contract IERC20",
          "name": "_ESE",
          "type": "address"
        },
        {
          "internalType": "address[]",
          "name": "_payees",
          "type": "address[]"
        },
        {
          "internalType": "uint256[]",
          "name": "_shares",
          "type": "uint256[]"
        }
      ],
      "stateMutability": "nonpayable",
      "type": "constructor"
    },
    {
      "inputs": [],
      "name": "InvalidESE",
      "type": "error"
    },
    {
      "inputs": [],
      "name": "InvalidLength",
      "type": "error"
    },
    {
      "inputs": [],
      "name": "InvalidPayee",
      "type": "error"
    },
    {
      "inputs": [],
      "name": "InvalidShare",
      "type": "error"
    },
    {
      "inputs": [],
      "name": "InvalidShares",
      "type": "error"
    },
    {
      "inputs": [],
      "name": "NoShares",
      "type": "error"
    },
    {
      "inputs": [],
      "name": "PayeeAlreadyInitialized",
      "type": "error"
    },
    {
      "anonymous": false,
      "inputs": [
        {
          "indexed": true,
          "internalType": "address",
          "name": "to",
          "type": "address"
        },
        {
          "indexed": false,
          "internalType": "uint256",
          "name": "amount",
          "type": "uint256"
        }
      ],
      "name": "PaymentReleased",
      "type": "event"
    },
    {
      "inputs": [],
      "name": "ESE",
      "outputs": [
        {
          "internalType": "contract IERC20",
          "name": "",
          "type": "address"
        }
      ],
      "stateMutability": "view",
      "type": "function"
    },
    {
      "inputs": [
        {
          "internalType": "uint256",
          "name": "",
          "type": "uint256"
        }
      ],
      "name": "payees",
      "outputs": [
        {
          "internalType": "address",
          "name": "",
          "type": "address"
        }
      ],
      "stateMutability": "view",
      "type": "function"
    },
    {
      "inputs": [
        {
          "internalType": "address",
          "name": "account",
          "type": "address"
        }
      ],
      "name": "release",
      "outputs": [
        {
          "internalType": "uint256",
          "name": "payment",
          "type": "uint256"
        }
      ],
      "stateMutability": "nonpayable",
      "type": "function"
    },
    {
      "inputs": [
        {
          "internalType": "address",
          "name": "",
          "type": "address"
        }
      ],
      "name": "released",
      "outputs": [
        {
          "internalType": "uint256",
          "name": "",
          "type": "uint256"
        }
      ],
      "stateMutability": "view",
      "type": "function"
    },
    {
      "inputs": [
        {
          "internalType": "address",
          "name": "",
          "type": "address"
        }
      ],
      "name": "shares",
      "outputs": [
        {
          "internalType": "uint256",
          "name": "",
          "type": "uint256"
        }
      ],
      "stateMutability": "view",
      "type": "function"
    },
    {
      "inputs": [],
      "name": "totalReleased",
      "outputs": [
        {
          "internalType": "uint256",
          "name": "",
          "type": "uint256"
        }
      ],
      "stateMutability": "view",
      "type": "function"
    },
    {
      "inputs": [],
      "name": "totalShares",
      "outputs": [
        {
          "internalType": "uint256",
          "name": "",
          "type": "uint256"
        }
      ],
      "stateMutability": "view",
      "type": "function"
    }
  ],
  "bytecode": "0x60c060405234801562000010575f80fd5b506040516200182d3803806200182d833981810160405281019062000036919062000974565b6200005267274fcd73d561b3b860c01b6200086360201b60201c565b6200006e677bbb0353b3040c8860c01b6200086360201b60201c565b6200008a676ef5951df28b335d60c01b6200086360201b60201c565b5f73ffffffffffffffffffffffffffffffffffffffff168373ffffffffffffffffffffffffffffffffffffffff16036200010c57620000da67377cb93d486b21b960c01b6200086360201b60201c565b6040517fb0bd27ca00000000000000000000000000000000000000000000000000000000815260040160405180910390fd5b620001286722cf864b317619a760c01b6200086360201b60201c565b6200014467c178c34519ce435760c01b6200086360201b60201c565b62000160673766b37a1d37dda560c01b6200086360201b60201c565b5f825190506200018167da966eb296b0fef360c01b6200086360201b60201c565b6200019d6712a9d189ee7e623760c01b6200086360201b60201c565b5f81148015620001c55750620001c467085e07fdde3a0fc860c01b6200086660201b60201c565b5b80620001f7575081518114158015620001f65750620001f567e45d44211ee7d55660c01b6200086660201b60201c565b5b5b156200024b576200021967b451b0d28b6472ec60c01b6200086360201b60201c565b6040517f947d5a8400000000000000000000000000000000000000000000000000000000815260040160405180910390fd5b62000267679948b8b077d6a10360c01b6200086360201b60201c565b620002836707564209191e1bd360c01b6200086360201b60201c565b6200029f674dadbe378f2349cc60c01b6200086360201b60201c565b5f620002bc67af098bbb19146e1460c01b6200086360201b60201c565b620002d8679fee41a67aaac35c60c01b6200086360201b60201c565b5f5b828110156200073657620002ff679b5491f3a097cbdf60c01b6200086360201b60201c565b6200031b67040720fdbab51d2760c01b6200086360201b60201c565b5f85828151811062000332576200033162000a61565b5b602002602001015190506200035867d77dc03e3ee5c64060c01b6200086360201b60201c565b6200037467f9d93b6e0df1497060c01b6200086360201b60201c565b5f8583815181106200038b576200038a62000a61565b5b60200260200101519050620003b167134367a39431b90260c01b6200086360201b60201c565b620003cd67c1dcdfef5e1ce55d60c01b6200086360201b60201c565b5f73ffffffffffffffffffffffffffffffffffffffff168273ffffffffffffffffffffffffffffffffffffffff16036200044f576200041d676b99c70c7a71cd9560c01b6200086360201b60201c565b6040517fb387a23800000000000000000000000000000000000000000000000000000000815260040160405180910390fd5b6200046b6744b5f03b267d1ea060c01b6200086360201b60201c565b6200048767e1e0bac0d101e6c760c01b6200086360201b60201c565b620004a3677ed6e2f1fbd09d3b60c01b6200086360201b60201c565b5f8103620004f957620004c7671f649bd7b6676dea60c01b6200086360201b60201c565b6040517f100d5f7400000000000000000000000000000000000000000000000000000000815260040160405180910390fd5b6200051567d520b489c529ee9060c01b6200086360201b60201c565b6200053167c294d0f38a56ac5260c01b6200086360201b60201c565b6200054d67cb95d66a18f1cc5260c01b6200086360201b60201c565b5f60015f8473ffffffffffffffffffffffffffffffffffffffff1673ffffffffffffffffffffffffffffffffffffffff1681526020019081526020015f205414620005e057620005ae67850c1fe3e81aabd260c01b6200086360201b60201c565b6040517f0440cd5200000000000000000000000000000000000000000000000000000000815260040160405180910390fd5b620005fc671e2aa470207d47f960c01b6200086360201b60201c565b6200061867d6d9bf9a1a22601d60c01b6200086360201b60201c565b62000634672aa3ef7dac9dcec660c01b6200086360201b60201c565b600382908060018154018082558091505060019003905f5260205f20015f9091909190916101000a81548173ffffffffffffffffffffffffffffffffffffffff021916908373ffffffffffffffffffffffffffffffffffffffff160217905550620006b0672db21b626f7ec32860c01b6200086360201b60201c565b8060015f8473ffffffffffffffffffffffffffffffffffffffff1673ffffffffffffffffffffffffffffffffffffffff1681526020019081526020015f20819055506200070e67be6433649323ff7560c01b6200086360201b60201c565b80846200071c919062000a89565b9350505080806200072d9062000aa9565b915050620002da565b5062000753679f4f476803c04b4e60c01b6200086360201b60201c565b6200076f6772c9188bb2755acd60c01b6200086360201b60201c565b612710811115620007c857620007966733dfa4d5b2ba2f9760c01b6200086360201b60201c565b6040517f6edcc52300000000000000000000000000000000000000000000000000000000815260040160405180910390fd5b620007e467db5842f761f3ea1e60c01b6200086360201b60201c565b62000800675a2e0711f544f63960c01b6200086360201b60201c565b8060a0818152505062000824672d4d6958a1f161e660c01b6200086360201b60201c565b8473ffffffffffffffffffffffffffffffffffffffff1660808173ffffffffffffffffffffffffffffffffffffffff1681525050505050505062000ac9565b50565b5f60019050919050565b60018060a01b038116811462000884575f80fd5b50565b634e487b7160e01b5f52604160045260245ffd5b5f6040519050601f19601f830116810181811060018060401b0382111715620008c957620008c862000887565b5b8060405250919050565b5f60018060401b03821115620008ee57620008ed62000887565b5b60208260051b019050919050565b5f82601f8301126200090c575f80fd5b81516020620009256200091f83620008d3565b6200089b565b808382528282019150828460051b87010193508684111562000945575f80fd5b8286015b848110156200096657805183528383019250838101905062000949565b508094505050505092915050565b5f805f6060848603121562000987575f80fd5b8351620009948162000870565b8093505060208085015160018060401b0380821115620009b2575f80fd5b818701915087601f830112620009c6575f80fd5b8151620009dd620009d782620008d3565b6200089b565b808282528582019150858360051b86010192508a831115620009fd575f80fd5b85850194505b8285101562000a2d57845162000a198162000870565b808352508582019150858501945062000a03565b809750505050604087015192508083111562000a47575f80fd5b505062000a5786828701620008fc565b9150509250925092565b634e487b7160e01b5f52603260045260245ffd5b634e487b7160e01b5f52601160045260245ffd5b5f82820190508082111562000aa35762000aa262000a75565b5b92915050565b5f8019820362000abe5762000abd62000a75565b5b600182019050919050565b60805160a051610d2d62000b005f395f81816103fa015261064901525f818161034a0152818161058501526106a80152610d2d5ff3fe608060405234801561000f575f80fd5b506004361061007b575f3560e01c8063764bd0c511610059578063764bd0c5146100fd5780639852595c1461011b578063ce7c2ac21461014b578063e33b7de31461017b5761007b565b8063191655871461007f5780633a98ef39146100af57806363037b0c146100cd575b5f80fd5b61009960048036038101906100949190610a0d565b610199565b6040516100a69190610a4a565b60405180910390f35b6100b7610647565b6040516100c49190610a4a565b60405180910390f35b6100e760048036038101906100e29190610a5a565b61066b565b6040516100f49190610a74565b60405180910390f35b6101056106a6565b6040516101129190610a9a565b60405180910390f35b61013560048036038101906101309190610a0d565b6106ca565b6040516101429190610a4a565b60405180910390f35b61016560048036038101906101609190610a0d565b6106df565b6040516101729190610a4a565b60405180910390f35b6101836106f4565b6040516101909190610a4a565b60405180910390f35b5f6101ae67194c8d58e095ccbb60c01b6106f9565b6101c267d7558e7c52c8a3e660c01b6106f9565b6101d667a2f05491f6e7b9bc60c01b6106f9565b5f60015f8473ffffffffffffffffffffffffffffffffffffffff1673ffffffffffffffffffffffffffffffffffffffff1681526020019081526020015f2054036102605761022e67391b47d635d0628460c01b6106f9565b6040517fb317087b00000000000000000000000000000000000000000000000000000000815260040160405180910390fd5b61027467c8f2e00750b3ce5960c01b6106f9565b610288679ffa0bb983550fb260c01b6106f9565b61029c679b9d9fe68989174c60c01b6106f9565b5f60025f8473ffffffffffffffffffffffffffffffffffffffff1673ffffffffffffffffffffffffffffffffffffffff1681526020019081526020015f205490506102f1670e6341cac02e02e960c01b6106f9565b61030567ccf629d6a60234a560c01b6106f9565b5f8054905061031e679953b01237747e8460c01b6106f9565b610332677f7febd552a4587c60c01b6106f9565b61034667d850540e146cfb5760c01b6106f9565b5f817f000000000000000000000000000000000000000000000000000000000000000073ffffffffffffffffffffffffffffffffffffffff166370a08231306040518263ffffffff1660e01b81526004016103a19190610a74565b602060405180830381865afa1580156103bc573d5f803e3d5ffd5b505050506040513d601f19601f820116820180604052508101906103e09190610ac0565b0190506103f767c23ca0e7cb3cf1d460c01b6106f9565b827f000000000000000000000000000000000000000000000000000000000000000060015f8873ffffffffffffffffffffffffffffffffffffffff1673ffffffffffffffffffffffffffffffffffffffff1681526020019081526020015f205483028161046757610466610ada565b5b0403935061047f67c681d7234d25323d60c01b6106f9565b6104936785bfb0d8e96fa1fe60c01b6106f9565b5f84036104cd576104ae670ae5f67eb6b030de60c01b6106f9565b6104c2673ff81f55c7788ac660c01b6106f9565b5f9350505050610642565b6104e167e59a56c4f8ba944760c01b6106f9565b6104f5679cbc5b1e558116b860c01b6106f9565b83830160025f8773ffffffffffffffffffffffffffffffffffffffff1673ffffffffffffffffffffffffffffffffffffffff1681526020019081526020015f208190555061054d672f9891c434521e0d60c01b6106f9565b8382015f819055505061056a675d85b1abc342d39060c01b6106f9565b61057e67b26c7af813273edd60c01b6106f9565b6105c984847f000000000000000000000000000000000000000000000000000000000000000073ffffffffffffffffffffffffffffffffffffffff166106fc9092919063ffffffff16565b6105dd67c9427b95f882d94460c01b6106f9565b6105f167bb574de658a38b0f60c01b6106f9565b8373ffffffffffffffffffffffffffffffffffffffff167fdf20fd1e76bc69d672e4814fafb2c449bba3a5369d8359adf9e05e6fde87b056846040516106379190610a4a565b60405180910390a250505b919050565b7f000000000000000000000000000000000000000000000000000000000000000081565b6003818154811061067a575f80fd5b905f5260205f20015f915054906101000a900473ffffffffffffffffffffffffffffffffffffffff1681565b7f000000000000000000000000000000000000000000000000000000000000000081565b6002602052805f5260405f205f915090505481565b6001602052805f5260405f205f915090505481565b5f5481565b50565b61077d8363a9059cbb60e01b848460405160240161071b929190610b07565b604051602081830303815290604052907bffffffffffffffffffffffffffffffffffffffffffffffffffffffff19166020820180517bffffffffffffffffffffffffffffffffffffffffffffffffffffffff8381831617835250505050610782565b505050565b5f6107e3826040518060400160405280602081526020017f5361666545524332303a206c6f772d6c6576656c2063616c6c206661696c65648152508573ffffffffffffffffffffffffffffffffffffffff166108489092919063ffffffff16565b90505f815114806108045750808060200190518101906108039190610b34565b5b610843576040517f08c379a000000000000000000000000000000000000000000000000000000000815260040161083a90610b5d565b60405180910390fd5b505050565b606061085684845f8561085f565b90509392505050565b6060824710156108a4576040517f08c379a000000000000000000000000000000000000000000000000000000000815260040161089b90610bc0565b60405180910390fd5b5f808673ffffffffffffffffffffffffffffffffffffffff1685876040516108cc9190610c4b565b5f6040518083038185875af1925050503d805f8114610906576040519150601f19603f3d011682016040523d82523d5f602084013e61090b565b606091505b509150915061091c87838387610928565b92505050949350505050565b60608315610989575f835103610981576109418561099c565b610980576040517f08c379a000000000000000000000000000000000000000000000000000000000815260040161097790610c68565b60405180910390fd5b5b829050610994565b61099383836109be565b5b949350505050565b5f808273ffffffffffffffffffffffffffffffffffffffff163b119050919050565b5f825111156109d05781518083602001fd5b806040517f08c379a0000000000000000000000000000000000000000000000000000000008152600401610a049190610ca5565b60405180910390fd5b5f60208284031215610a1d575f80fd5b813573ffffffffffffffffffffffffffffffffffffffff81168114610a40575f80fd5b8091505092915050565b5f60208201905082825292915050565b5f60208284031215610a6a575f80fd5b8135905092915050565b5f60208201905073ffffffffffffffffffffffffffffffffffffffff8316825292915050565b5f60208201905073ffffffffffffffffffffffffffffffffffffffff8316825292915050565b5f60208284031215610ad0575f80fd5b8151905092915050565b7f4e487b71000000000000000000000000000000000000000000000000000000005f52601260045260245ffd5b5f60408201905073ffffffffffffffffffffffffffffffffffffffff841682528260208301529392505050565b5f60208284031215610b44575f80fd5b81518015158114610b53575f80fd5b8091505092915050565b60208152602a60208201527f5361666545524332303a204552433230206f7065726174696f6e20646964206e60408201527f6f7420737563636565640000000000000000000000000000000000000000000060608201525f608082019050919050565b60208152602660208201527f416464726573733a20696e73756666696369656e742062616c616e636520666f60408201527f722063616c6c000000000000000000000000000000000000000000000000000060608201525f608082019050919050565b5f5b83811015610c40578082015181840152602081019050610c25565b505f83830152505050565b5f8251610c5c818460208701610c23565b80830191505092915050565b60208152601d60208201527f416464726573733a2063616c6c20746f206e6f6e2d636f6e747261637400000060408201525f606082019050919050565b602081525f8251806020840152610cc3816040850160208701610c23565b60407fffffffffffffffffffffffffffffffffffffffffffffffffffffffffffffffe0601f8301168401019150509291505056fea26469706673582212209bf8f11f50db21576e90b79453ea496647533679da4973db0f9473d29a7a180364736f6c63430008150033",
  "linkReferences": {},
  "deployedLinkReferences": {}
}