{
  "_format": "hh-sol-artifact-1",
  "contractName": "MockRouter",
  "sourceName": "contracts/test/MockRouter.sol",
  "abi": [
    {
      "inputs": [
        {
          "internalType": "bytes",
          "name": "",
          "type": "bytes"
        },
        {
          "internalType": "address",
          "name": "",
          "type": "address"
        }
      ],
      "name": "purchaseAsset",
      "outputs": [
        {
          "components": [
            {
              "internalType": "address",
              "name": "token",
              "type": "address"
            },
            {
              "internalType": "uint256",
              "name": "tokenID",
              "type": "uint256"
            },
            {
              "internalType": "uint256",
              "name": "amount",
              "type": "uint256"
            },
            {
              "internalType": "enum AssetType",
              "name": "assetType",
              "type": "uint8"
            },
            {
              "internalType": "bytes",
              "name": "data",
              "type": "bytes"
            }
          ],
          "internalType": "struct Asset",
          "name": "",
          "type": "tuple"
        },
        {
          "internalType": "uint256",
          "name": "",
          "type": "uint256"
        }
      ],
      "stateMutability": "payable",
      "type": "function"
    }
  ],
  "bytecode": "0x608060405234801561000f575f80fd5b506102a28061001d5f395ff3fe60806040526004361061001d575f3560e01c80633e19c9e014610021575b5f80fd5b61003b600480360381019061003691906100b1565b610052565b604051610049929190610176565b60405180910390f35b61005a61005e565b5f80fd5b6040518060a001604052805f73ffffffffffffffffffffffffffffffffffffffff1681526020015f81526020015f81526020015f60058111156100a4576100a3610149565b5b8152602001606081525090565b5f805f604084860312156100c3575f80fd5b833567ffffffffffffffff808211156100da575f80fd5b818601915086601f8301126100ed575f80fd5b8135818111156100fb575f80fd5b87602082850101111561010c575f80fd5b602083019550809450505050602084013573ffffffffffffffffffffffffffffffffffffffff8116811461013e575f80fd5b809150509250925092565b7f4e487b71000000000000000000000000000000000000000000000000000000005f52602160045260245ffd5b6040815273ffffffffffffffffffffffffffffffffffffffff83511660408201525f6020808501516060840152604085015160808401526060850151600681106101e7577f4e487b71000000000000000000000000000000000000000000000000000000005f52602160045260245ffd5b8060a085015250608085015160a060c085015280518060e08601525f5b818110156102245783818401015161010082880101528381019050610204565b5061010091505f828287010152817fffffffffffffffffffffffffffffffffffffffffffffffffffffffffffffffe0601f83011686010193505050838184015250939250505056fea2646970667358221220c9bf6f3d88883aac5ec50c4746f02736fb43f23e7700ee5943b926658ea7687564736f6c63430008150033",
  "linkReferences": {},
  "deployedLinkReferences": {}
}