{
  "_format": "hh-sol-artifact-1",
  "contractName": "EeseeMining",
  "sourceName": "contracts/rewards/EeseeMining.sol",
  "abi": [
    {
      "inputs": [
        {
          "internalType": "contract IERC20",
          "name": "_ESE",
          "type": "address"
        },
        {
          "internalType": "contract IEeseeAccessManager",
          "name": "_accessManager",
          "type": "address"
        },
        {
          "internalType": "address",
          "name": "trustedForwarder",
          "type": "address"
        }
      ],
      "stateMutability": "nonpayable",
      "type": "constructor"
    },
    {
      "inputs": [],
      "name": "AlreadyClaimed",
      "type": "error"
    },
    {
      "inputs": [],
      "name": "CallerNotAuthorized",
      "type": "error"
    },
    {
      "inputs": [],
      "name": "InvalidConstructor",
      "type": "error"
    },
    {
      "inputs": [],
      "name": "InvalidMerkleProof",
      "type": "error"
    },
    {
      "anonymous": false,
      "inputs": [
        {
          "indexed": true,
          "internalType": "uint128",
          "name": "rewardID",
          "type": "uint128"
        },
        {
          "indexed": false,
          "internalType": "bytes32",
          "name": "merkleRoot",
          "type": "bytes32"
        }
      ],
      "name": "RewardAdded",
      "type": "event"
    },
    {
      "anonymous": false,
      "inputs": [
        {
          "indexed": true,
          "internalType": "uint128",
          "name": "rewardID",
          "type": "uint128"
        },
        {
          "indexed": true,
          "internalType": "address",
          "name": "claimer",
          "type": "address"
        },
        {
          "indexed": false,
          "internalType": "uint128",
          "name": "amount",
          "type": "uint128"
        }
      ],
      "name": "RewardClaimed",
      "type": "event"
    },
    {
      "inputs": [],
      "name": "ESE",
      "outputs": [
        {
          "internalType": "contract IERC20",
          "name": "",
          "type": "address"
        }
      ],
      "stateMutability": "view",
      "type": "function"
    },
    {
      "inputs": [],
      "name": "MERKLE_ROOT_UPDATER_ROLE",
      "outputs": [
        {
          "internalType": "bytes32",
          "name": "",
          "type": "bytes32"
        }
      ],
      "stateMutability": "view",
      "type": "function"
    },
    {
      "inputs": [],
      "name": "accessManager",
      "outputs": [
        {
          "internalType": "contract IEeseeAccessManager",
          "name": "",
          "type": "address"
        }
      ],
      "stateMutability": "view",
      "type": "function"
    },
    {
      "inputs": [
        {
          "internalType": "bytes32",
          "name": "merkleRoot",
          "type": "bytes32"
        }
      ],
      "name": "addReward",
      "outputs": [],
      "stateMutability": "nonpayable",
      "type": "function"
    },
    {
      "inputs": [
        {
          "components": [
            {
              "internalType": "uint128",
              "name": "rewardID",
              "type": "uint128"
            },
            {
              "internalType": "uint128",
              "name": "balance",
              "type": "uint128"
            },
            {
              "internalType": "bytes32[]",
              "name": "merkleProof",
              "type": "bytes32[]"
            }
          ],
          "internalType": "struct EeseeMining.Claim[]",
          "name": "claims",
          "type": "tuple[]"
        },
        {
          "internalType": "address",
          "name": "claimer",
          "type": "address"
        }
      ],
      "name": "claimRewards",
      "outputs": [
        {
          "internalType": "uint256",
          "name": "rewards",
          "type": "uint256"
        }
      ],
      "stateMutability": "nonpayable",
      "type": "function"
    },
    {
      "inputs": [
        {
          "internalType": "address",
          "name": "claimer",
          "type": "address"
        },
        {
          "components": [
            {
              "internalType": "uint128",
              "name": "rewardID",
              "type": "uint128"
            },
            {
              "internalType": "uint128",
              "name": "balance",
              "type": "uint128"
            },
            {
              "internalType": "bytes32[]",
              "name": "merkleProof",
              "type": "bytes32[]"
            }
          ],
          "internalType": "struct EeseeMining.Claim[]",
          "name": "claims",
          "type": "tuple[]"
        }
      ],
      "name": "getRewards",
      "outputs": [
        {
          "internalType": "uint128",
          "name": "rewards",
          "type": "uint128"
        }
      ],
      "stateMutability": "view",
      "type": "function"
    },
    {
      "inputs": [],
      "name": "getTrustedForwarder",
      "outputs": [
        {
          "internalType": "address",
          "name": "forwarder",
          "type": "address"
        }
      ],
      "stateMutability": "view",
      "type": "function"
    },
    {
      "inputs": [
        {
          "internalType": "address",
          "name": "",
          "type": "address"
        },
        {
          "internalType": "uint128",
          "name": "",
          "type": "uint128"
        }
      ],
      "name": "isClaimed",
      "outputs": [
        {
          "internalType": "bool",
          "name": "",
          "type": "bool"
        }
      ],
      "stateMutability": "view",
      "type": "function"
    },
    {
      "inputs": [
        {
          "internalType": "address",
          "name": "forwarder",
          "type": "address"
        }
      ],
      "name": "isTrustedForwarder",
      "outputs": [
        {
          "internalType": "bool",
          "name": "",
          "type": "bool"
        }
      ],
      "stateMutability": "view",
      "type": "function"
    },
    {
      "inputs": [],
      "name": "rewardID",
      "outputs": [
        {
          "internalType": "uint128",
          "name": "",
          "type": "uint128"
        }
      ],
      "stateMutability": "view",
      "type": "function"
    },
    {
      "inputs": [
        {
          "internalType": "uint128",
          "name": "",
          "type": "uint128"
        }
      ],
      "name": "rewardRoot",
      "outputs": [
        {
          "internalType": "bytes32",
          "name": "",
          "type": "bytes32"
        }
      ],
      "stateMutability": "view",
      "type": "function"
    },
    {
      "inputs": [
        {
          "internalType": "address",
          "name": "claimer",
          "type": "address"
        },
        {
          "components": [
            {
              "internalType": "uint128",
              "name": "rewardID",
              "type": "uint128"
            },
            {
              "internalType": "uint128",
              "name": "balance",
              "type": "uint128"
            },
            {
              "internalType": "bytes32[]",
              "name": "merkleProof",
              "type": "bytes32[]"
            }
          ],
          "internalType": "struct EeseeMining.Claim",
          "name": "claim",
          "type": "tuple"
        }
      ],
      "name": "verifyClaim",
      "outputs": [
        {
          "internalType": "bool",
          "name": "",
          "type": "bool"
        }
      ],
      "stateMutability": "view",
      "type": "function"
    }
  ],
  "bytecode": "0x60c060405234801562000010575f80fd5b5060405162001dcf38038062001dcf833981810160405281019062000036919062000302565b62000052675034a17f7532b6e160c01b6200029c60201b60201c565b6200006e67bf8a802bdcec720060c01b6200029c60201b60201c565b6200008a67023ad28ede83330260c01b6200029c60201b60201c565b5f73ffffffffffffffffffffffffffffffffffffffff168373ffffffffffffffffffffffffffffffffffffffff16148015620000de5750620000dd67d552547091c997c260c01b6200029f60201b60201c565b5b806200013a57505f73ffffffffffffffffffffffffffffffffffffffff168273ffffffffffffffffffffffffffffffffffffffff1614801562000139575062000138674f22931378ffc2d060c01b6200029f60201b60201c565b5b5b156200018e576200015c67a4c0648e180c7f8c60c01b6200029c60201b60201c565b6040517f12c1701b00000000000000000000000000000000000000000000000000000000815260040160405180910390fd5b620001aa67d63e342677101f6160c01b6200029c60201b60201c565b620001c6676753b31f63f4a4e060c01b6200029c60201b60201c565b8273ffffffffffffffffffffffffffffffffffffffff1660808173ffffffffffffffffffffffffffffffffffffffff1681525050620002166730bfe1845bf2a9c260c01b6200029c60201b60201c565b8173ffffffffffffffffffffffffffffffffffffffff1660a08173ffffffffffffffffffffffffffffffffffffffff168152505062000266679adabc8c5312216260c01b6200029c60201b60201c565b6200028267fc6d7897368f58ee60c01b6200029c60201b60201c565b6200029381620002a960201b60201c565b50505062000355565b50565b5f60019050919050565b805f806101000a81548173ffffffffffffffffffffffffffffffffffffffff021916908373ffffffffffffffffffffffffffffffffffffffff16021790555050565b60018060a01b0381168114620002ff575f80fd5b50565b5f805f6060848603121562000315575f80fd5b83516200032281620002eb565b8093505060208401516200033681620002eb565b8092505060408401516200034a81620002eb565b809150509250925092565b60805160a051611a4a620003855f395f81816105810152610f1a01525f81816108820152610e670152611a4a5ff3fe608060405234801561000f575f80fd5b50600436106100d2575f3560e01c8063939d53bf1161007f578063bfdaadb511610059578063bfdaadb51461023c578063ce1b815f1461026c578063fdcb60681461028a576100d2565b8063939d53bf146101ac5780639dd9ce31146101dc578063b097426f1461020c576100d2565b80636c62ea83116100b05780636c62ea8314610152578063764bd0c5146101705780638ff0e93a1461018e576100d2565b806349fbc67c146100d65780634acd845114610106578063572b6c0514610122575b5f80fd5b6100f060048036038101906100eb91906113a1565b6102a8565b6040516100fd91906113f4565b60405180910390f35b610120600480360381019061011b9190611416565b610543565b005b61013c60048036038101906101379190611430565b610808565b6040516101499190611451565b60405180910390f35b61015a61085f565b60405161016791906113f4565b60405180910390f35b610178610880565b6040516101859190611463565b60405180910390f35b6101966108a4565b6040516101a39190611489565b60405180910390f35b6101c660048036038101906101c19190611499565b6108c8565b6040516101d39190611451565b60405180910390f35b6101f660048036038101906101f191906114ed565b610a39565b6040516102039190611540565b60405180910390f35b61022660048036038101906102219190611577565b610eb2565b6040516102339190611489565b60405180910390f35b61025660048036038101906102519190611598565b610ec7565b6040516102639190611451565b60405180910390f35b610274610ef1565b60405161028191906115c9565b60405180910390f35b610292610f18565b60405161029f91906115ef565b60405180910390f35b5f6102bd67524a743eedf2a35a60c01b610f3c565b6102d1671db8bb2288f7a68b60c01b610f3c565b6102e5679b23fd209cb8f6ea60c01b610f3c565b5f5b8383905081101561053b576103066791ea50ff3186df9160c01b610f3c565b61031a6772db34c7aaa90e0e60c01b610f3c565b3684848381811061032e5761032d611615565b5b90506020028101906103409190611642565b905061035667e7d6768ae592914d60c01b610f3c565b61036a675d68e2adba9dd22b60c01b610f3c565b61037486826108c8565b6103be5761038c6765297f597a62578760c01b610f3c565b6040517fb05e92fa00000000000000000000000000000000000000000000000000000000815260040160405180910390fd5b6103d2673323e24bc99644ba60c01b610f3c565b6103e66726e0b1c256d7d7c860c01b610f3c565b6103fa670456a0a5f217cb4560c01b610f3c565b60035f8773ffffffffffffffffffffffffffffffffffffffff1673ffffffffffffffffffffffffffffffffffffffff1681526020019081526020015f205f825f01602081019061044a9190611577565b6fffffffffffffffffffffffffffffffff166fffffffffffffffffffffffffffffffff1681526020019081526020015f205f9054906101000a900460ff16156104d3576104a1675e22856d2fca4d7360c01b610f3c565b6040517f646cf55800000000000000000000000000000000000000000000000000000000815260040160405180910390fd5b6104e7679f9000ce9518e80e60c01b610f3c565b6104fb67ed3ab777f788cd3860c01b610f3c565b80602001602081019061050e9190611577565b8361051991906116ad565b925061052f67b80d5d625c9ff72c60c01b610f3c565b816001019150506102e7565b509392505050565b610557670a64b4963ba093ad60c01b610f3c565b61056b67e0711a74ba78f5b360c01b610f3c565b61057f672c00d5f2f4e5d6de60c01b610f3c565b7f000000000000000000000000000000000000000000000000000000000000000073ffffffffffffffffffffffffffffffffffffffff166391d148547f1e0e935a4b597d14b19412d1d1383dc2a6d2dce1de544677c1ef3f24ff294f056105e4610f3f565b6040518363ffffffff1660e01b81526004016106019291906116e0565b602060405180830381865afa15801561061c573d5f803e3d5ffd5b505050506040513d601f19601f82011682018060405250810190610640919061170d565b61068a5761065867120190f846b8953d60c01b610f3c565b6040517fc183bcef00000000000000000000000000000000000000000000000000000000815260040160405180910390fd5b61069e6787fa6cb20d1e2e1f60c01b610f3c565b6106b26773114952ef613ec860c01b610f3c565b8060025f60015f9054906101000a90046fffffffffffffffffffffffffffffffff166fffffffffffffffffffffffffffffffff166fffffffffffffffffffffffffffffffff1681526020019081526020015f208190555061071d677f5b33605571ac6960c01b610f3c565b610731672d10e79cf644700660c01b610f3c565b60015f9054906101000a90046fffffffffffffffffffffffffffffffff166fffffffffffffffffffffffffffffffff167f63c5a8616951093a8f5382a74e5a98ceaf022bc6bca5226642a9feb48f1d67b0826040516107909190611489565b60405180910390a26107ac674eaff7df16fcf3ca60c01b610f3c565b60015f81819054906101000a90046fffffffffffffffffffffffffffffffff1660010191906101000a8154816fffffffffffffffffffffffffffffffff02191690836fffffffffffffffffffffffffffffffff16021790555050565b5f805f9054906101000a900473ffffffffffffffffffffffffffffffffffffffff1673ffffffffffffffffffffffffffffffffffffffff168273ffffffffffffffffffffffffffffffffffffffff16149050919050565b60015f9054906101000a90046fffffffffffffffffffffffffffffffff1681565b7f000000000000000000000000000000000000000000000000000000000000000081565b7f1e0e935a4b597d14b19412d1d1383dc2a6d2dce1de544677c1ef3f24ff294f0581565b5f6108dd67283f2927eb884aed60c01b610f3c565b6108f1672a46202b30131ed060c01b610f3c565b61090567d5c085da233c222060c01b610f3c565b5f8383602001602081019061091a9190611577565b60405160200161092b929190611736565b604051602081830303815290604052805190602001206040516020016109519190611775565b60405160208183030381529060405280519060200120905061097d6792bd369db94e863360c01b610f3c565b61099167ddbeda1fcb166eff60c01b610f3c565b610a308380604001906109a49190611785565b808060200260200160405190810160405280939291908181526020018383602002808284375f81840152601f19601f8201169050808301925050505050505060025f865f0160208101906109f89190611577565b6fffffffffffffffffffffffffffffffff166fffffffffffffffffffffffffffffffff1681526020019081526020015f205483610f74565b91505092915050565b5f610a4e67255934540a608a6960c01b610f3c565b610a6267b0de23cf14502b9060c01b610f3c565b610a7667eda9dcb0c6e36cf060c01b610f3c565b5f5b84849050811015610e3757610a9767bcfce71720d7410660c01b610f3c565b610aab6771f306642951987460c01b610f3c565b36858583818110610abf57610abe611615565b5b9050602002810190610ad19190611642565b9050610ae76747f89cfb412bb74360c01b610f3c565b610afb673cc02f8f4c3f68d860c01b610f3c565b610b0584826108c8565b610b4f57610b1d670c0e941bc0f9311d60c01b610f3c565b6040517fb05e92fa00000000000000000000000000000000000000000000000000000000815260040160405180910390fd5b610b6367452af43ee2b3144260c01b610f3c565b610b7767d199fdb2b1a9bf2b60c01b610f3c565b610b8b6786d6d0362ab7d33b60c01b610f3c565b60035f8573ffffffffffffffffffffffffffffffffffffffff1673ffffffffffffffffffffffffffffffffffffffff1681526020019081526020015f205f825f016020810190610bdb9190611577565b6fffffffffffffffffffffffffffffffff166fffffffffffffffffffffffffffffffff1681526020019081526020015f205f9054906101000a900460ff1615610c6457610c3267217d2e646f1909dd60c01b610f3c565b6040517f646cf55800000000000000000000000000000000000000000000000000000000815260040160405180910390fd5b610c786701ebdf40984a953060c01b610f3c565b610c8c6794cf54295413fd5360c01b610f3c565b600160035f8673ffffffffffffffffffffffffffffffffffffffff1673ffffffffffffffffffffffffffffffffffffffff1681526020019081526020015f205f835f016020810190610cde9190611577565b6fffffffffffffffffffffffffffffffff166fffffffffffffffffffffffffffffffff1681526020019081526020015f205f6101000a81548160ff021916908315150217905550610d3967221bf8321bdb783460c01b610f3c565b806020016020810190610d4c9190611577565b6fffffffffffffffffffffffffffffffff1683610d6991906117f4565b9250610d7f677bc8904cb5becafb60c01b610f3c565b610d9367f18aef6b0f7fc78260c01b610f3c565b8373ffffffffffffffffffffffffffffffffffffffff16815f016020810190610dbc9190611577565b6fffffffffffffffffffffffffffffffff167fbd895d08d1ae3446aa550905360c2bbcecfa6245faf7ada0ed14afd86156ffd9836020016020810190610e029190611577565b604051610e0f91906113f4565b60405180910390a3610e2b6788dd7ec9aebe3a3860c01b610f3c565b81600101915050610a78565b50610e4c67093cab24ce46411e60c01b610f3c565b610e6067acc2c44743242ffe60c01b610f3c565b610eab82827f000000000000000000000000000000000000000000000000000000000000000073ffffffffffffffffffffffffffffffffffffffff16610f8a9092919063ffffffff16565b9392505050565b6002602052805f5260405f205f915090505481565b6003602052815f5260405f20602052805f5260405f205f915091509054906101000a900460ff1681565b5f805f9054906101000a900473ffffffffffffffffffffffffffffffffffffffff16905090565b7f000000000000000000000000000000000000000000000000000000000000000081565b50565b5f60145f36905010158015610f595750610f5833610808565b5b15610f6d57601436033560601c9050610f71565b3390505b90565b5f82610f808584611010565b1490509392505050565b61100b8363a9059cbb60e01b8484604051602401610fa9929190611811565b604051602081830303815290604052907bffffffffffffffffffffffffffffffffffffffffffffffffffffffff19166020820180517bffffffffffffffffffffffffffffffffffffffffffffffffffffffff8381831617835250505050611064565b505050565b5f808290505f5b8451811015611059576110448286838151811061103757611036611615565b5b602002602001015161112a565b915080806110519061183e565b915050611017565b508091505092915050565b5f6110c5826040518060400160405280602081526020017f5361666545524332303a206c6f772d6c6576656c2063616c6c206661696c65648152508573ffffffffffffffffffffffffffffffffffffffff166111549092919063ffffffff16565b90505f815114806110e65750808060200190518101906110e5919061170d565b5b611125576040517f08c379a000000000000000000000000000000000000000000000000000000000815260040161111c9061187a565b60405180910390fd5b505050565b5f8183106111415761113c828461116b565b61114c565b61114b838361116b565b5b905092915050565b606061116284845f8561117f565b90509392505050565b5f825f528160205260405f20905092915050565b6060824710156111c4576040517f08c379a00000000000000000000000000000000000000000000000000000000081526004016111bb906118dd565b60405180910390fd5b5f808673ffffffffffffffffffffffffffffffffffffffff1685876040516111ec9190611968565b5f6040518083038185875af1925050503d805f8114611226576040519150601f19603f3d011682016040523d82523d5f602084013e61122b565b606091505b509150915061123c87838387611248565b92505050949350505050565b606083156112a9575f8351036112a157611261856112bc565b6112a0576040517f08c379a000000000000000000000000000000000000000000000000000000000815260040161129790611985565b60405180910390fd5b5b8290506112b4565b6112b383836112de565b5b949350505050565b5f808273ffffffffffffffffffffffffffffffffffffffff163b119050919050565b5f825111156112f05781518083602001fd5b806040517f08c379a000000000000000000000000000000000000000000000000000000000815260040161132491906119c2565b60405180910390fd5b5f8135905073ffffffffffffffffffffffffffffffffffffffff81168114611353575f80fd5b919050565b5f8083601f840112611368575f80fd5b8235905067ffffffffffffffff811115611380575f80fd5b6020830191508360208260051b850101111561139a575f80fd5b9250929050565b5f805f604084860312156113b3575f80fd5b6113bc8461132d565b9250602084013567ffffffffffffffff8111156113d7575f80fd5b6113e386828701611358565b915080935050809150509250925092565b5f6020820190506fffffffffffffffffffffffffffffffff8316825292915050565b5f60208284031215611426575f80fd5b8135905092915050565b5f60208284031215611440575f80fd5b6114498261132d565b905092915050565b5f602082019050821515825292915050565b5f60208201905073ffffffffffffffffffffffffffffffffffffffff8316825292915050565b5f60208201905082825292915050565b5f80604083850312156114aa575f80fd5b6114b38361132d565b9150602083013567ffffffffffffffff8111156114ce575f80fd5b8084019050606081860312156114e2575f80fd5b809150509250929050565b5f805f604084860312156114ff575f80fd5b833567ffffffffffffffff811115611515575f80fd5b61152186828701611358565b915080945050809250506115376020850161132d565b90509250925092565b5f60208201905082825292915050565b5f813590506fffffffffffffffffffffffffffffffff81168114611572575f80fd5b919050565b5f60208284031215611587575f80fd5b61159082611550565b905092915050565b5f80604083850312156115a9575f80fd5b6115b28361132d565b91506115c060208401611550565b90509250929050565b5f60208201905073ffffffffffffffffffffffffffffffffffffffff8316825292915050565b5f60208201905073ffffffffffffffffffffffffffffffffffffffff8316825292915050565b7f4e487b71000000000000000000000000000000000000000000000000000000005f52603260045260245ffd5b5f82357fffffffffffffffffffffffffffffffffffffffffffffffffffffffffffffffa1833603018112611674575f80fd5b80830191505092915050565b7f4e487b71000000000000000000000000000000000000000000000000000000005f52601160045260245ffd5b5f6fffffffffffffffffffffffffffffffff808416818416019150808211156116d9576116d8611680565b5b5092915050565b5f60408201905083825273ffffffffffffffffffffffffffffffffffffffff831660208301529392505050565b5f6020828403121561171d575f80fd5b8151801515811461172c575f80fd5b8091505092915050565b5f60408201905073ffffffffffffffffffffffffffffffffffffffff841682526fffffffffffffffffffffffffffffffff831660208301529392505050565b8181525f60208201905092915050565b5f8083357fffffffffffffffffffffffffffffffffffffffffffffffffffffffffffffffe18436030181126117b8575f80fd5b80840190508035915067ffffffffffffffff8211156117d5575f80fd5b602081019250508060051b36038213156117ed575f80fd5b9250929050565b5f82820190508082111561180b5761180a611680565b5b92915050565b5f60408201905073ffffffffffffffffffffffffffffffffffffffff841682528260208301529392505050565b5f7fffffffffffffffffffffffffffffffffffffffffffffffffffffffffffffffff820361186f5761186e611680565b5b600182019050919050565b60208152602a60208201527f5361666545524332303a204552433230206f7065726174696f6e20646964206e60408201527f6f7420737563636565640000000000000000000000000000000000000000000060608201525f608082019050919050565b60208152602660208201527f416464726573733a20696e73756666696369656e742062616c616e636520666f60408201527f722063616c6c000000000000000000000000000000000000000000000000000060608201525f608082019050919050565b5f5b8381101561195d578082015181840152602081019050611942565b505f83830152505050565b5f8251611979818460208701611940565b80830191505092915050565b60208152601d60208201527f416464726573733a2063616c6c20746f206e6f6e2d636f6e747261637400000060408201525f606082019050919050565b602081525f82518060208401526119e0816040850160208701611940565b60407fffffffffffffffffffffffffffffffffffffffffffffffffffffffffffffffe0601f8301168401019150509291505056fea26469706673582212203c4559ace2b2db24c6611571c37ef43b8e85b8331ccbf6fc162b709df251b6cf64736f6c63430008150033",
  "linkReferences": {},
  "deployedLinkReferences": {}
}