{
  "_format": "hh-sol-artifact-1",
  "contractName": "EeseeSwap",
  "sourceName": "contracts/periphery/EeseeSwap.sol",
  "abi": [
    {
      "inputs": [
        {
          "internalType": "contract IERC20",
          "name": "_ESE",
          "type": "address"
        },
        {
          "internalType": "address",
          "name": "_OneInchRouter",
          "type": "address"
        },
        {
          "internalType": "contract IEeseeAccessManager",
          "name": "_accessManager",
          "type": "address"
        }
      ],
      "stateMutability": "nonpayable",
      "type": "constructor"
    },
    {
      "inputs": [],
      "name": "CallerNotAuthorized",
      "type": "error"
    },
    {
      "inputs": [],
      "name": "EthDepositRejected",
      "type": "error"
    },
    {
      "inputs": [],
      "name": "InvalidAmount",
      "type": "error"
    },
    {
      "inputs": [],
      "name": "InvalidConstructor",
      "type": "error"
    },
    {
      "inputs": [],
      "name": "InvalidRecipient",
      "type": "error"
    },
    {
      "inputs": [],
      "name": "InvalidSwapDescription",
      "type": "error"
    },
    {
      "inputs": [],
      "name": "SwapNotSuccessful",
      "type": "error"
    },
    {
      "inputs": [],
      "name": "TransferNotSuccessful",
      "type": "error"
    },
    {
      "anonymous": false,
      "inputs": [
        {
          "indexed": false,
          "internalType": "address",
          "name": "account",
          "type": "address"
        }
      ],
      "name": "Paused",
      "type": "event"
    },
    {
      "anonymous": false,
      "inputs": [
        {
          "components": [
            {
              "internalType": "address",
              "name": "token",
              "type": "address"
            },
            {
              "internalType": "uint256",
              "name": "tokenID",
              "type": "uint256"
            },
            {
              "internalType": "uint256",
              "name": "amount",
              "type": "uint256"
            },
            {
              "internalType": "enum AssetType",
              "name": "assetType",
              "type": "uint8"
            },
            {
              "internalType": "bytes",
              "name": "data",
              "type": "bytes"
            }
          ],
          "indexed": false,
          "internalType": "struct Asset",
          "name": "assetBought",
          "type": "tuple"
        },
        {
          "indexed": true,
          "internalType": "contract IERC20",
          "name": "tokenSpent",
          "type": "address"
        },
        {
          "indexed": false,
          "internalType": "uint256",
          "name": "spent",
          "type": "uint256"
        },
        {
          "indexed": true,
          "internalType": "address",
          "name": "recipient",
          "type": "address"
        }
      ],
      "name": "ReceiveAsset",
      "type": "event"
    },
    {
      "anonymous": false,
      "inputs": [
        {
          "indexed": false,
          "internalType": "address",
          "name": "account",
          "type": "address"
        }
      ],
      "name": "Unpaused",
      "type": "event"
    },
    {
      "inputs": [],
      "name": "ESE",
      "outputs": [
        {
          "internalType": "contract IERC20",
          "name": "",
          "type": "address"
        }
      ],
      "stateMutability": "view",
      "type": "function"
    },
    {
      "inputs": [],
      "name": "OneInchRouter",
      "outputs": [
        {
          "internalType": "address",
          "name": "",
          "type": "address"
        }
      ],
      "stateMutability": "view",
      "type": "function"
    },
    {
      "inputs": [],
      "name": "PAUSER_ROLE",
      "outputs": [
        {
          "internalType": "bytes32",
          "name": "",
          "type": "bytes32"
        }
      ],
      "stateMutability": "view",
      "type": "function"
    },
    {
      "inputs": [],
      "name": "accessManager",
      "outputs": [
        {
          "internalType": "contract IEeseeAccessManager",
          "name": "",
          "type": "address"
        }
      ],
      "stateMutability": "view",
      "type": "function"
    },
    {
      "inputs": [],
      "name": "pause",
      "outputs": [],
      "stateMutability": "nonpayable",
      "type": "function"
    },
    {
      "inputs": [],
      "name": "paused",
      "outputs": [
        {
          "internalType": "bool",
          "name": "",
          "type": "bool"
        }
      ],
      "stateMutability": "view",
      "type": "function"
    },
    {
      "inputs": [
        {
          "components": [
            {
              "internalType": "bytes",
              "name": "swapData",
              "type": "bytes"
            },
            {
              "components": [
                {
                  "internalType": "contract IEeseeMarketplaceRouter",
                  "name": "router",
                  "type": "address"
                },
                {
                  "internalType": "bytes",
                  "name": "data",
                  "type": "bytes"
                }
              ],
              "internalType": "struct IEeseeSwap.MarketplaceRouterData[]",
              "name": "marketplaceRoutersData",
              "type": "tuple[]"
            }
          ],
          "internalType": "struct IEeseeSwap.SwapParams",
          "name": "swapParams",
          "type": "tuple"
        },
        {
          "internalType": "address",
          "name": "recipient",
          "type": "address"
        }
      ],
      "name": "swapTokensForAssets",
      "outputs": [
        {
          "components": [
            {
              "internalType": "address",
              "name": "token",
              "type": "address"
            },
            {
              "internalType": "uint256",
              "name": "tokenID",
              "type": "uint256"
            },
            {
              "internalType": "uint256",
              "name": "amount",
              "type": "uint256"
            },
            {
              "internalType": "enum AssetType",
              "name": "assetType",
              "type": "uint8"
            },
            {
              "internalType": "bytes",
              "name": "data",
              "type": "bytes"
            }
          ],
          "internalType": "struct Asset[]",
          "name": "assets",
          "type": "tuple[]"
        },
        {
          "internalType": "contract IERC20",
          "name": "dstToken",
          "type": "address"
        },
        {
          "internalType": "uint256",
          "name": "returnAmount",
          "type": "uint256"
        },
        {
          "internalType": "uint96",
          "name": "dust",
          "type": "uint96"
        }
      ],
      "stateMutability": "nonpayable",
      "type": "function"
    },
    {
      "inputs": [],
      "name": "unpause",
      "outputs": [],
      "stateMutability": "nonpayable",
      "type": "function"
    },
    {
      "stateMutability": "payable",
      "type": "receive"
    }
  ],
  "bytecode": "0x60e060405234801562000010575f80fd5b5060405162002d6d38038062002d6d833981810160405281019062000036919062000438565b5f805f6101000a81548160ff0219169083151502179055506200006a675be06a5d3e82764460c01b6200041460201b60201c565b6200008667526148d77a6c243d60c01b6200041460201b60201c565b620000a267ff953592f3648e2360c01b6200041460201b60201c565b5f73ffffffffffffffffffffffffffffffffffffffff168373ffffffffffffffffffffffffffffffffffffffff16148015620000f65750620000f5670d1a9c3429b0990e60c01b6200041760201b60201c565b5b806200017757505f73ffffffffffffffffffffffffffffffffffffffff168273ffffffffffffffffffffffffffffffffffffffff16148015620001515750620001506762754db81269e45f60c01b6200041760201b60201c565b5b80156200017657506200017567538487668c58de9c60c01b6200041760201b60201c565b5b5b80620001d357505f73ffffffffffffffffffffffffffffffffffffffff168173ffffffffffffffffffffffffffffffffffffffff16148015620001d25750620001d167d78a5e7cdc152b1560c01b6200041760201b60201c565b5b5b156200022757620001f56796d76208ff73353e60c01b6200041460201b60201c565b6040517f12c1701b00000000000000000000000000000000000000000000000000000000815260040160405180910390fd5b6200024367113bb222bcbb8f9960c01b6200041460201b60201c565b6200025e6686bf178c2f775160c01b6200041460201b60201c565b8273ffffffffffffffffffffffffffffffffffffffff1660808173ffffffffffffffffffffffffffffffffffffffff1681525050620002ae67b8aceba0462d1d3460c01b6200041460201b60201c565b8173ffffffffffffffffffffffffffffffffffffffff1660a08173ffffffffffffffffffffffffffffffffffffffff1681525050620002fe672c3602f2ef3910c760c01b6200041460201b60201c565b8073ffffffffffffffffffffffffffffffffffffffff1660c08173ffffffffffffffffffffffffffffffffffffffff16815250506200034e67c5b45662f3f81ced60c01b6200041460201b60201c565b6200036a67a92a999e7c6de16c60c01b6200041460201b60201c565b8273ffffffffffffffffffffffffffffffffffffffff1663095ea7b3837fffffffffffffffffffffffffffffffffffffffffffffffffffffffffffffffff6040518363ffffffff1660e01b8152600401620003c79291906200048b565b6020604051808303815f875af1158015620003e4573d5f803e3d5ffd5b505050506040513d601f19601f820116820180604052508101906200040a9190620004aa565b50505050620004d5565b50565b5f60019050919050565b60018060a01b038116811462000435575f80fd5b50565b5f805f606084860312156200044b575f80fd5b8351620004588162000421565b8093505060208401516200046c8162000421565b809250506040840151620004808162000421565b809150509250925092565b5f60408201905060018060a01b03841682528260208301529392505050565b5f60208284031215620004bb575f80fd5b81518015158114620004cb575f80fd5b8091505092915050565b60805160a05160c051612835620005385f395f81816102bc015281816104ca015261080e01525f81816106500152610d7301525f81816104560152818161097d01528181610b5a01528181610bec01528181610f7d015261100e01526128355ff3fe60806040526004361061007e575f3560e01c8063c3b6d6dd1161004d578063c3b6d6dd146101aa578063c8b84d17146101d4578063e63ab1e914610213578063fdcb60681461023d57610126565b80633f4ba83a1461012a5780635c975abb14610140578063764bd0c51461016a5780638456cb591461019457610126565b366101265761009767120628e3b35341b760c01b610267565b3273ffffffffffffffffffffffffffffffffffffffff163373ffffffffffffffffffffffffffffffffffffffff1603610110576100de6797e99943c98686ec60c01b610267565b6040517f1b10b0f900000000000000000000000000000000000000000000000000000000815260040160405180910390fd5b6101246727ac9f978f66bb8060c01b610267565b005b5f80fd5b348015610135575f80fd5b5061013e61026a565b005b34801561014b575f80fd5b50610154610440565b6040516101619190611c4b565b60405180910390f35b348015610175575f80fd5b5061017e610454565b60405161018b9190611c5d565b60405180910390f35b34801561019f575f80fd5b506101a8610478565b005b3480156101b5575f80fd5b506101be61064e565b6040516101cb9190611c83565b60405180910390f35b3480156101df575f80fd5b506101fa60048036038101906101f59190611ccd565b610672565b60405161020a9493929190611e57565b60405180910390f35b34801561021e575f80fd5b506102276107e8565b6040516102349190611f16565b60405180910390f35b348015610248575f80fd5b5061025161080c565b60405161025e9190611f26565b60405180910390f35b50565b61027e67dfbbab6a2ba83c3060c01b610267565b6102926718b09d78c0c7ffca60c01b610267565b6102a6672f3abbd3c596abba60c01b610267565b6102ba67e5e0760acd0cd2a760c01b610267565b7f000000000000000000000000000000000000000000000000000000000000000073ffffffffffffffffffffffffffffffffffffffff166391d148547f65d7a28e3265b37a6474929f336521b332c1681b933f6cb9f3376673440d862a336040518363ffffffff1660e01b8152600401610335929190611f4c565b602060405180830381865afa158015610350573d5f803e3d5ffd5b505050506040513d601f19601f820116820180604052508101906103749190611f79565b6103be5761038c67059b89c620fd2a5160c01b610267565b6040517fc183bcef00000000000000000000000000000000000000000000000000000000815260040160405180910390fd5b6103d267a6a58c92f5944a2060c01b610267565b6103e6675c046db8322709f360c01b610267565b6103fa6704f384d49f71532660c01b610267565b61040e671c01bdc26cfe5b9e60c01b610267565b6104226796f7e067dac84c7860c01b610267565b61043667b974f83e91e4f56d60c01b610267565b61043e610830565b565b5f805f9054906101000a900460ff16905090565b7f000000000000000000000000000000000000000000000000000000000000000081565b61048c672cd63094c4bb779c60c01b610267565b6104a06718b09d78c0c7ffca60c01b610267565b6104b4672f3abbd3c596abba60c01b610267565b6104c867e5e0760acd0cd2a760c01b610267565b7f000000000000000000000000000000000000000000000000000000000000000073ffffffffffffffffffffffffffffffffffffffff166391d148547f65d7a28e3265b37a6474929f336521b332c1681b933f6cb9f3376673440d862a336040518363ffffffff1660e01b8152600401610543929190611f4c565b602060405180830381865afa15801561055e573d5f803e3d5ffd5b505050506040513d601f19601f820116820180604052508101906105829190611f79565b6105cc5761059a67059b89c620fd2a5160c01b610267565b6040517fc183bcef00000000000000000000000000000000000000000000000000000000815260040160405180910390fd5b6105e067a6a58c92f5944a2060c01b610267565b6105f4675c046db8322709f360c01b610267565b61060867b9f91a9a842b10fa60c01b610267565b61061c6784ec308fbfaf330960c01b610267565b61063067f28ea15d1c89025660c01b610267565b6106446759ef865e6436f25660c01b610267565b61064c610890565b565b7f000000000000000000000000000000000000000000000000000000000000000081565b60605f805f61068b67a082e938c68b8ab160c01b610267565b6106936108f1565b6106a767b380f3a9885683c960c01b610267565b6106bb674c5602ee7bd69d6a60c01b610267565b6106cf678eec8da39f408e1260c01b610267565b6106e3679e87a43604f8659a60c01b610267565b5f73ffffffffffffffffffffffffffffffffffffffff168573ffffffffffffffffffffffffffffffffffffffff160361075c5761072a67cd77ab49c6dde08a60c01b610267565b6040517f9c8d2cd200000000000000000000000000000000000000000000000000000000815260040160405180910390fd5b61077067d1cdc234d12604fe60c01b610267565b61078467d5f86b50323b508c60c01b610267565b61079c86805f01906107969190611fa2565b8761093b565b8093508194508295505050506107bc67314b3f9290f7644460c01b610267565b6107d783838880602001906107d1919061200e565b89611051565b809350819550505092959194509250565b7f65d7a28e3265b37a6474929f336521b332c1681b933f6cb9f3376673440d862a81565b7f000000000000000000000000000000000000000000000000000000000000000081565b61083861188d565b5f805f6101000a81548160ff0219169083151502179055507f5db9ee0a495bf2e6ff9c91a7834c1ba4fdd244a5e8aa4e537bd38aeae4b073aa6108796118d6565b6040516108869190611c83565b60405180910390a1565b6108986108f1565b60015f806101000a81548160ff0219169083151502179055507f62e78cea01bee320cd4e420270b5ea74000d11b0c9f74754ebdbfc544b05a2586108da6118d6565b6040516108e79190611c83565b60405180910390a1565b6108f9610440565b15610939576040517f08c379a00000000000000000000000000000000000000000000000000000000081526004016109309061207d565b60405180910390fd5b565b5f805f61095267281e9c6ca803bbb860c01b610267565b6109666769c4c1ae7789f98860c01b610267565b61097a67199383357dbc59a960c01b610267565b5f7f000000000000000000000000000000000000000000000000000000000000000073ffffffffffffffffffffffffffffffffffffffff166370a08231306040518263ffffffff1660e01b81526004016109d49190611c83565b602060405180830381865afa1580156109ef573d5f803e3d5ffd5b505050506040513d601f19601f82011682018060405250810190610a1391906120ba565b9050610a29677b5bf63f6d97241560c01b610267565b610a3d67f21ff3c08c0b6d3c60c01b610267565b5f8787905014610fe457610a5b672a157b05660d3ace60c01b610267565b610a6f67c7b33767182485ed60c01b610267565b610a8367e043c6a1c6bc642360c01b610267565b5f87876004908092610a97939291906120d4565b810190610aa4919061227e565b50915050610abc6764d01b30eb85892460c01b610267565b610ad06799954adaac88740760c01b610267565b6312aa3caf60e01b7bffffffffffffffffffffffffffffffffffffffffffffffffffffffff191688885f90600492610b0a939291906120d4565b90610b15919061237c565b7bffffffffffffffffffffffffffffffffffffffffffffffffffffffff191614158015610b525750610b5167665b809b39d5514660c01b6118dd565b5b80610be457507f000000000000000000000000000000000000000000000000000000000000000073ffffffffffffffffffffffffffffffffffffffff16815f015173ffffffffffffffffffffffffffffffffffffffff1614158015610bc75750610bc66773318c50b241d98960c01b6118dd565b5b8015610be35750610be267f771b8b40106ceee60c01b6118dd565b5b5b80610c7657507f000000000000000000000000000000000000000000000000000000000000000073ffffffffffffffffffffffffffffffffffffffff16816020015173ffffffffffffffffffffffffffffffffffffffff16148015610c595750610c586754e5e2d52cdd24b660c01b6118dd565b5b8015610c755750610c7467d31683c69787206960c01b6118dd565b5b5b80610ccd57503073ffffffffffffffffffffffffffffffffffffffff16816060015173ffffffffffffffffffffffffffffffffffffffff1614158015610ccc5750610ccb67bf470a8e9e9ee0c160c01b6118dd565b5b5b15610d1857610ce667b9c2bcf1b5e46bc360c01b610267565b6040517f3034d71300000000000000000000000000000000000000000000000000000000815260040160405180910390fd5b610d2c67c3e8697d4e02675560c01b610267565b610d40679fc0b79883160c8260c01b610267565b80602001519450610d5b67d5b09ce67ae40d2a60c01b610267565b610d6f679c90391ef2fc352e60c01b610267565b5f807f000000000000000000000000000000000000000000000000000000000000000073ffffffffffffffffffffffffffffffffffffffff168a8a604051610db89291906123c6565b5f604051808303815f865af19150503d805f8114610df1576040519150601f19603f3d011682016040523d82523d5f602084013e610df6565b606091505b5091509150610e0f6782ef4dcff5a95b9f60c01b610267565b610e2367d31d42bf8b4022b260c01b610267565b81610e6e57610e3c67981906250a42598760c01b610267565b6040517fa4f2ebb600000000000000000000000000000000000000000000000000000000815260040160405180910390fd5b610e82675d04b08f685cb62860c01b610267565b610e9667c3e8f77dc3c69c9260c01b610267565b610eaa67d1e4a551547cd4f960c01b610267565b5f610ebf67cb99d0c3f73c227c60c01b610267565b81806020019051810190610ed391906123dc565b8092508198505050610eef6779b76e2d27f522f560c01b610267565b610f03676f1626494ef5bb9460c01b610267565b848114610fc657610f1e671b0daed19b636ddd60c01b610267565b610f32673fbc1d11a5b434b360c01b610267565b8085610f3e91906123ff565b9550610f54679528541b82a2575560c01b610267565b610f6867467cbe961b13421b60c01b610267565b610fc189876bffffffffffffffffffffffff167f000000000000000000000000000000000000000000000000000000000000000073ffffffffffffffffffffffffffffffffffffffff166118e79092919063ffffffff16565b610fdb565b610fda6710a85ce28685cd1660c01b610267565b5b50505050611047565b610ff8679abefccd54461a8a60c01b610267565b61100c678981b0fedd496dd060c01b610267565b7f00000000000000000000000000000000000000000000000000000000000000009350611043673b19335532a9e51560c01b610267565b8092505b5093509350939050565b60605f6110686736b8f681aaa5c78860c01b610267565b61107c67195e2b9a7f84606d60c01b610267565b61109067b0f393c1cacd5aea60c01b610267565b5f8585905090506110ab678c953bd39d96178a60c01b610267565b8067ffffffffffffffff8111156110c5576110c4612101565b5b6040519080825280602002602001820160405280156110fe57816020015b6110eb611bf8565b8152602001906001900390816110e35790505b509250611115672fd0bc5b1ffac35060c01b610267565b61112967e605c27b99d6596c60c01b610267565b5f8073ffffffffffffffffffffffffffffffffffffffff168973ffffffffffffffffffffffffffffffffffffffff1614806111a3575073eeeeeeeeeeeeeeeeeeeeeeeeeeeeeeeeeeeeeeee73ffffffffffffffffffffffffffffffffffffffff168973ffffffffffffffffffffffffffffffffffffffff16145b90506111b967678729967beb672760c01b610267565b6111cd672c6e2eb87aa3f60c60c01b610267565b5f5b8281101561162d576111eb674678ab8c4c56cb1760c01b610267565b6111ff67038d66b716ab07af60c01b610267565b5f61121467d9e91d07db80c51360c01b610267565b611228678bca7c5736393af160c01b610267565b82156113885761124267d9f789ea28f7816960c01b610267565b61125667725d873f2f397e8060c01b610267565b88888381811061126957611268612440565b5b905060200281019061127b919061246d565b5f01602081019061128c91906124ab565b73ffffffffffffffffffffffffffffffffffffffff16633e19c9e08b8b8b868181106112bb576112ba612440565b5b90506020028101906112cd919061246d565b80602001906112dc9190611fa2565b8b6040518563ffffffff1660e01b81526004016112fb939291906124d0565b5f6040518083038185885af1158015611316573d5f803e3d5ffd5b50505050506040513d5f823e3d601f19601f8201168201806040525081019061133f919061253b565b87848151811061135257611351612440565b5b6020026020010181935082905250506113756721633b344b5eaacf60c01b610267565b808a61138191906123ff565b9950611564565b61139c67d2e2622f900b4d4160c01b610267565b6113b0679cc47a9689a03b6160c01b610267565b6113c467a17975e9876f721460c01b610267565b6114248989848181106113da576113d9612440565b5b90506020028101906113ec919061246d565b5f0160208101906113fd91906124ab565b8b8d73ffffffffffffffffffffffffffffffffffffffff166118e79092919063ffffffff16565b611438676ea80f613831637a60c01b610267565b88888381811061144b5761144a612440565b5b905060200281019061145d919061246d565b5f01602081019061146e91906124ab565b73ffffffffffffffffffffffffffffffffffffffff16633e19c9e08a8a8581811061149c5761149b612440565b5b90506020028101906114ae919061246d565b80602001906114bd9190611fa2565b8a6040518463ffffffff1660e01b81526004016114dc939291906124d0565b5f604051808303815f875af11580156114f7573d5f803e3d5ffd5b505050506040513d5f823e3d601f19601f8201168201806040525081019061151f919061253b565b87848151811061153257611531612440565b5b602002602001018193508290525050611555673955c23afd4f6da760c01b610267565b808a61156191906123ff565b99505b6115786763d61f7d1a8bac6960c01b610267565b61158c676e1672dbf0231c8c60c01b610267565b8673ffffffffffffffffffffffffffffffffffffffff168b73ffffffffffffffffffffffffffffffffffffffff167fb459d4534c1d905f42c3e9ddde74e197046b495fe3aabab6d60d2e71809a5cca8885815181106115ee576115ed612440565b5b602002602001015184604051611605929190612631565b60405180910390a361162167c594e52aa07f2a3f60c01b610267565b816001019150506111cf565b506116426760a76ddaf7364daf60c01b610267565b6116566791cba6a155f4e7d360c01b610267565b5f88111561183e5761167267ae671e4a6ce0bb6660c01b610267565b61168667be4bdb2c5e51b1b860c01b610267565b61169a67421f217776c9ed6660c01b610267565b80156117d1576116b467416cf03de7eea8ab60c01b610267565b6116c8670351c220814bd4ca60c01b610267565b6116dc67bf8219ee91c23a5060c01b610267565b5f8573ffffffffffffffffffffffffffffffffffffffff168960405161170190612652565b5f6040518083038185875af1925050503d805f811461173b576040519150601f19603f3d011682016040523d82523d5f602084013e611740565b606091505b50509050611758677045d5db4dfd7e9660c01b610267565b61176c677d013024f71164bb60c01b610267565b806117b757611785673243084ac822dfab60c01b610267565b6040517fa392ef7800000000000000000000000000000000000000000000000000000000815260040160405180910390fd5b6117cb67f830f4d005f308ea60c01b610267565b50611839565b6117e567a9601b70c1dc833360c01b610267565b6117f967d79cb39219a44c4760c01b610267565b61180d6713039c9022e455a460c01b610267565b61183885898b73ffffffffffffffffffffffffffffffffffffffff166118e79092919063ffffffff16565b5b611853565b61185267e35f669711dcd6ef60c01b610267565b5b61186767d8651bdcc1690ea260c01b610267565b61187b673238112470ea9f5060c01b610267565b83889350935050509550959350505050565b611895610440565b6118d4576040517f08c379a00000000000000000000000000000000000000000000000000000000081526004016118cb9061265b565b60405180910390fd5b565b5f33905090565b5f60019050919050565b6119688363a9059cbb60e01b8484604051602401611906929190612698565b604051602081830303815290604052907bffffffffffffffffffffffffffffffffffffffffffffffffffffffff19166020820180517bffffffffffffffffffffffffffffffffffffffffffffffffffffffff838183161783525050505061196d565b505050565b5f6119ce826040518060400160405280602081526020017f5361666545524332303a206c6f772d6c6576656c2063616c6c206661696c65648152508573ffffffffffffffffffffffffffffffffffffffff16611a339092919063ffffffff16565b90505f815114806119ef5750808060200190518101906119ee9190611f79565b5b611a2e576040517f08c379a0000000000000000000000000000000000000000000000000000000008152600401611a25906126c5565b60405180910390fd5b505050565b6060611a4184845f85611a4a565b90509392505050565b606082471015611a8f576040517f08c379a0000000000000000000000000000000000000000000000000000000008152600401611a8690612728565b60405180910390fd5b5f808673ffffffffffffffffffffffffffffffffffffffff168587604051611ab7919061278b565b5f6040518083038185875af1925050503d805f8114611af1576040519150601f19603f3d011682016040523d82523d5f602084013e611af6565b606091505b5091509150611b0787838387611b13565b92505050949350505050565b60608315611b74575f835103611b6c57611b2c85611b87565b611b6b576040517f08c379a0000000000000000000000000000000000000000000000000000000008152600401611b62906127a8565b60405180910390fd5b5b829050611b7f565b611b7e8383611ba9565b5b949350505050565b5f808273ffffffffffffffffffffffffffffffffffffffff163b119050919050565b5f82511115611bbb5781518083602001fd5b806040517f08c379a0000000000000000000000000000000000000000000000000000000008152600401611bef91906127e5565b60405180910390fd5b6040518060a001604052805f73ffffffffffffffffffffffffffffffffffffffff1681526020015f81526020015f81526020015f6005811115611c3e57611c3d611d25565b5b8152602001606081525090565b5f602082019050821515825292915050565b5f60208201905073ffffffffffffffffffffffffffffffffffffffff8316825292915050565b5f60208201905073ffffffffffffffffffffffffffffffffffffffff8316825292915050565b73ffffffffffffffffffffffffffffffffffffffff81168114611cca575f80fd5b50565b5f8060408385031215611cde575f80fd5b823567ffffffffffffffff811115611cf4575f80fd5b808401905060408186031215611d08575f80fd5b809250506020830135611d1a81611ca9565b809150509250929050565b7f4e487b71000000000000000000000000000000000000000000000000000000005f52602160045260245ffd5b5f5b83811015611d6f578082015181840152602081019050611d54565b505f83830152505050565b5f8151808452611d91816020860160208601611d52565b60207fffffffffffffffffffffffffffffffffffffffffffffffffffffffffffffffe0601f83011685010191505092915050565b73ffffffffffffffffffffffffffffffffffffffff815116825260208101516020830152604081015160408301525f606082015160068110611e2e577f4e487b71000000000000000000000000000000000000000000000000000000005f52602160045260245ffd5b80606085015250608082015160a06080850152611e4e60a0850182611d7a565b91505092915050565b5f608082016080835280875180835260a08501915060a08160051b86010192506020808a015f5b83811015611ecf577fffffffffffffffffffffffffffffffffffffffffffffffffffffffffffffff60888703018552611eb8868351611dc5565b955082820191508285019450600181019050611e7e565b505083945073ffffffffffffffffffffffffffffffffffffffff891681870152505050508360408301526bffffffffffffffffffffffff8316606083015295945050505050565b5f60208201905082825292915050565b5f60208201905073ffffffffffffffffffffffffffffffffffffffff8316825292915050565b5f60408201905083825273ffffffffffffffffffffffffffffffffffffffff831660208301529392505050565b5f60208284031215611f89575f80fd5b81518015158114611f98575f80fd5b8091505092915050565b5f8083357fffffffffffffffffffffffffffffffffffffffffffffffffffffffffffffffe1843603018112611fd5575f80fd5b80840190508035915067ffffffffffffffff821115611ff2575f80fd5b60208101925050803603821315612007575f80fd5b9250929050565b5f8083357fffffffffffffffffffffffffffffffffffffffffffffffffffffffffffffffe1843603018112612041575f80fd5b80840190508035915067ffffffffffffffff82111561205e575f80fd5b602081019250508060051b3603821315612076575f80fd5b9250929050565b60208152601060208201527f5061757361626c653a207061757365640000000000000000000000000000000060408201525f606082019050919050565b5f602082840312156120ca575f80fd5b8151905092915050565b5f80858511156120e2575f80fd5b838611156120ee575f80fd5b8483019150848603905094509492505050565b7f4e487b71000000000000000000000000000000000000000000000000000000005f52604160045260245ffd5b5f604051905060e0810181811067ffffffffffffffff8211171561215557612154612101565b5b806040525090565b5f604051905060a0810181811067ffffffffffffffff8211171561218457612183612101565b5b806040525090565b5f60405190507fffffffffffffffffffffffffffffffffffffffffffffffffffffffffffffffe0601f830116810181811067ffffffffffffffff821117156121d7576121d6612101565b5b8060405250919050565b5f67ffffffffffffffff8211156121fb576121fa612101565b5b60207fffffffffffffffffffffffffffffffffffffffffffffffffffffffffffffffe0601f840116019050919050565b5f82601f83011261223a575f80fd5b813561224d612248826121e1565b61218c565b818152846020838601011115612261575f80fd5b816020850160208301375f60208383010152809250505092915050565b5f805f838503610120811215612292575f80fd5b843561229d81611ca9565b8094505060e07fffffffffffffffffffffffffffffffffffffffffffffffffffffffffffffffe0820112156122d0575f80fd5b506122d961212e565b60208501356122e781611ca9565b8082525060408501356122f981611ca9565b80602083015250606085013561230e81611ca9565b80604083015250608085013561232381611ca9565b8060608301525060a0850135608082015260c085013560a082015260e085013560c08201528092505061010084013567ffffffffffffffff811115612366575f80fd5b6123728682870161222b565b9150509250925092565b5f81357fffffffff00000000000000000000000000000000000000000000000000000000808216925060048510156123be5780818660040360031b1b83161692505b505092915050565b818382375f8282015f8152809150509392505050565b5f80604083850312156123ed575f80fd5b82519150602083015190509250929050565b5f82820390508181111561243a577f4e487b71000000000000000000000000000000000000000000000000000000005f52601160045260245ffd5b92915050565b7f4e487b71000000000000000000000000000000000000000000000000000000005f52603260045260245ffd5b5f82357fffffffffffffffffffffffffffffffffffffffffffffffffffffffffffffffc183360301811261249f575f80fd5b80830191505092915050565b5f602082840312156124bb575f80fd5b81356124c681611ca9565b8091505092915050565b60408152826040820152828460608301375f606084830101525f60607fffffffffffffffffffffffffffffffffffffffffffffffffffffffffffffffe0601f860116830101905073ffffffffffffffffffffffffffffffffffffffff83166020830152949350505050565b5f806040838503121561254c575f80fd5b825167ffffffffffffffff80821115612563575f80fd5b818501915060a08287031215612577575f80fd5b61257f61215d565b825161258a81611ca9565b8082525060208084015181830152604084015160408301526060840151600681106125b3575f80fd5b806060840152506080840151838111156125cb575f80fd5b80850194505087601f8501126125df575f80fd5b835192506125f46125ef846121e1565b61218c565b8381528882858701011115612607575f80fd5b61261684838301848801611d52565b80608084015250819550808701519450505050509250929050565b604081525f6126436040830185611dc5565b90508260208301529392505050565b5f819050919050565b60208152601460208201527f5061757361626c653a206e6f742070617573656400000000000000000000000060408201525f606082019050919050565b5f60408201905073ffffffffffffffffffffffffffffffffffffffff841682528260208301529392505050565b60208152602a60208201527f5361666545524332303a204552433230206f7065726174696f6e20646964206e60408201527f6f7420737563636565640000000000000000000000000000000000000000000060608201525f608082019050919050565b60208152602660208201527f416464726573733a20696e73756666696369656e742062616c616e636520666f60408201527f722063616c6c000000000000000000000000000000000000000000000000000060608201525f608082019050919050565b5f825161279c818460208701611d52565b80830191505092915050565b60208152601d60208201527f416464726573733a2063616c6c20746f206e6f6e2d636f6e747261637400000060408201525f606082019050919050565b602081525f6127f76020830184611d7a565b90509291505056fea2646970667358221220944f4f69318b73e0779022e8d14319da8a31e0b2c999de3b832cdd6c1b589a1e64736f6c63430008150033",
  "linkReferences": {},
  "deployedLinkReferences": {}
}