{
  "_format": "hh-sol-artifact-1",
  "contractName": "MockESECrowdsale",
  "sourceName": "contracts/test/MockESECrowdsale.sol",
  "abi": [
    {
      "inputs": [],
      "stateMutability": "nonpayable",
      "type": "constructor"
    },
    {
      "inputs": [],
      "name": "openingTime",
      "outputs": [
        {
          "internalType": "uint256",
          "name": "",
          "type": "uint256"
        }
      ],
      "stateMutability": "view",
      "type": "function"
    },
    {
      "inputs": [
        {
          "internalType": "contract IERC20",
          "name": "token",
          "type": "address"
        },
        {
          "internalType": "address",
          "name": "to",
          "type": "address"
        },
        {
          "internalType": "uint256",
          "name": "amount",
          "type": "uint256"
        }
      ],
      "name": "transfer",
      "outputs": [],
      "stateMutability": "nonpayable",
      "type": "function"
    }
  ],
  "bytecode": "0x608060405234801561000f575f80fd5b50425f819055506101f9806100235f395ff3fe608060405234801561000f575f80fd5b5060043610610034575f3560e01c8063b7a8807c14610038578063beabacc814610056575b5f80fd5b610040610072565b60405161004d91906100f8565b60405180910390f35b610070600480360381019061006b919061012c565b610077565b005b5f5481565b8273ffffffffffffffffffffffffffffffffffffffff1663a9059cbb83836040518363ffffffff1660e01b81526004016100b292919061016d565b6020604051808303815f875af11580156100ce573d5f803e3d5ffd5b505050506040513d601f19601f820116820180604052508101906100f2919061019a565b50505050565b5f60208201905082825292915050565b73ffffffffffffffffffffffffffffffffffffffff81168114610129575f80fd5b50565b5f805f6060848603121561013e575f80fd5b833561014981610108565b80935050602084013561015b81610108565b80925050604084013590509250925092565b5f60408201905073ffffffffffffffffffffffffffffffffffffffff841682528260208301529392505050565b5f602082840312156101aa575f80fd5b815180151581146101b9575f80fd5b809150509291505056fea2646970667358221220997cfa9eea160e04ba74a8c1e86ab6b7326b2849dce9cbbae1157960a797af4e64736f6c63430008150033",
  "linkReferences": {},
  "deployedLinkReferences": {}
}