{
  "_format": "hh-sol-artifact-1",
  "contractName": "EeseeMinter",
  "sourceName": "contracts/NFT/EeseeMinter.sol",
  "abi": [
    {
      "inputs": [
        {
          "internalType": "address",
          "name": "_EeseeNFTLazyMintImplementation",
          "type": "address"
        },
        {
          "internalType": "address",
          "name": "_EeseeNFTDropImplementation",
          "type": "address"
        },
        {
          "internalType": "contract IEeseeRandom",
          "name": "_random",
          "type": "address"
        },
        {
          "internalType": "address",
          "name": "_trustedForwarder",
          "type": "address"
        }
      ],
      "stateMutability": "nonpayable",
      "type": "constructor"
    },
    {
      "inputs": [],
      "name": "IncorrectTokenURILength",
      "type": "error"
    },
    {
      "inputs": [],
      "name": "InvalidConstructor",
      "type": "error"
    },
    {
      "inputs": [],
      "name": "EeseeNFTDropImplementation",
      "outputs": [
        {
          "internalType": "address",
          "name": "",
          "type": "address"
        }
      ],
      "stateMutability": "view",
      "type": "function"
    },
    {
      "inputs": [],
      "name": "EeseeNFTLazyMintImplementation",
      "outputs": [
        {
          "internalType": "address",
          "name": "",
          "type": "address"
        }
      ],
      "stateMutability": "view",
      "type": "function"
    },
    {
      "inputs": [
        {
          "components": [
            {
              "internalType": "string",
              "name": "name",
              "type": "string"
            },
            {
              "internalType": "string",
              "name": "symbol",
              "type": "string"
            },
            {
              "internalType": "string",
              "name": "baseURI",
              "type": "string"
            },
            {
              "internalType": "string",
              "name": "revealedURI",
              "type": "string"
            },
            {
              "internalType": "string",
              "name": "contractURI",
              "type": "string"
            },
            {
              "internalType": "address",
              "name": "royaltyReceiver",
              "type": "address"
            },
            {
              "internalType": "uint96",
              "name": "royaltyFeeNumerator",
              "type": "uint96"
            }
          ],
          "internalType": "struct DropMetadata",
          "name": "metadata",
          "type": "tuple"
        },
        {
          "internalType": "uint32",
          "name": "mintLimit",
          "type": "uint32"
        },
        {
          "internalType": "uint32",
          "name": "mintStartTimestamp",
          "type": "uint32"
        },
        {
          "components": [
            {
              "internalType": "uint32",
              "name": "duration",
              "type": "uint32"
            },
            {
              "internalType": "uint32",
              "name": "perAddressMintLimit",
              "type": "uint32"
            },
            {
              "internalType": "bytes32",
              "name": "allowListMerkleRoot",
              "type": "bytes32"
            }
          ],
          "internalType": "struct IEeseeNFTDrop.StageOptions[]",
          "name": "stages",
          "type": "tuple[]"
        }
      ],
      "name": "deployDropCollection",
      "outputs": [
        {
          "internalType": "contract IERC721",
          "name": "collection",
          "type": "address"
        }
      ],
      "stateMutability": "nonpayable",
      "type": "function"
    },
    {
      "inputs": [
        {
          "internalType": "uint256",
          "name": "collectionID",
          "type": "uint256"
        },
        {
          "internalType": "address",
          "name": "owner",
          "type": "address"
        },
        {
          "components": [
            {
              "internalType": "string",
              "name": "name",
              "type": "string"
            },
            {
              "internalType": "string",
              "name": "symbol",
              "type": "string"
            },
            {
              "internalType": "string",
              "name": "contractURI",
              "type": "string"
            }
          ],
          "internalType": "struct LazyMintCollectionMetadata",
          "name": "collectionMetadata",
          "type": "tuple"
        },
        {
          "components": [
            {
              "internalType": "string",
              "name": "URI",
              "type": "string"
            },
            {
              "internalType": "address",
              "name": "royaltyReceiver",
              "type": "address"
            },
            {
              "internalType": "uint96",
              "name": "royaltyFeeNumerator",
              "type": "uint96"
            }
          ],
          "internalType": "struct LazyMintTokenMetadata",
          "name": "tokenMetadata",
          "type": "tuple"
        },
        {
          "internalType": "address",
          "name": "recipient",
          "type": "address"
        }
      ],
      "name": "lazyMint",
      "outputs": [
        {
          "internalType": "contract IERC721",
          "name": "collection",
          "type": "address"
        },
        {
          "internalType": "uint256",
          "name": "tokenID",
          "type": "uint256"
        }
      ],
      "stateMutability": "nonpayable",
      "type": "function"
    },
    {
      "inputs": [
        {
          "internalType": "address",
          "name": "",
          "type": "address"
        },
        {
          "internalType": "address",
          "name": "",
          "type": "address"
        },
        {
          "internalType": "uint256",
          "name": "",
          "type": "uint256"
        }
      ],
      "name": "lazyMintCollections",
      "outputs": [
        {
          "internalType": "contract IEeseeNFTLazyMint",
          "name": "",
          "type": "address"
        }
      ],
      "stateMutability": "view",
      "type": "function"
    },
    {
      "inputs": [],
      "name": "random",
      "outputs": [
        {
          "internalType": "contract IEeseeRandom",
          "name": "",
          "type": "address"
        }
      ],
      "stateMutability": "view",
      "type": "function"
    },
    {
      "inputs": [],
      "name": "trustedForwarder",
      "outputs": [
        {
          "internalType": "address",
          "name": "",
          "type": "address"
        }
      ],
      "stateMutability": "view",
      "type": "function"
    }
  ],
  "bytecode": "0x60e060405234801562000010575f80fd5b5060405162001454380380620014548339818101604052810190620000369190620003a4565b620000526748841e2f5e371f7160c01b6200038060201b60201c565b6200006e672e5c0e3651fa6aba60c01b6200038060201b60201c565b6200008a67bfc599f63378aff360c01b6200038060201b60201c565b5f73ffffffffffffffffffffffffffffffffffffffff168473ffffffffffffffffffffffffffffffffffffffff16148015620000de5750620000dd676eb7c5647ad02e4c60c01b6200038360201b60201c565b5b806200015f57505f73ffffffffffffffffffffffffffffffffffffffff168373ffffffffffffffffffffffffffffffffffffffff1614801562000139575062000138675e8da0b3d776992c60c01b6200038360201b60201c565b5b80156200015e57506200015d679ace115f4b53f5ac60c01b6200038360201b60201c565b5b5b80620001bb57505f73ffffffffffffffffffffffffffffffffffffffff168273ffffffffffffffffffffffffffffffffffffffff16148015620001ba5750620001b967baeda83db11251d860c01b6200038360201b60201c565b5b5b156200020f57620001dd67a93b20edc23ac33f60c01b6200038060201b60201c565b6040517f12c1701b00000000000000000000000000000000000000000000000000000000815260040160405180910390fd5b6200022b67f5fea2cd57a0a76a60c01b6200038060201b60201c565b620002476779a824419235962360c01b6200038060201b60201c565b8373ffffffffffffffffffffffffffffffffffffffff1660808173ffffffffffffffffffffffffffffffffffffffff1681525050620002976745c435f5eebc692660c01b6200038060201b60201c565b8273ffffffffffffffffffffffffffffffffffffffff1660a08173ffffffffffffffffffffffffffffffffffffffff1681525050620002e76720b8a5d0eb28c92560c01b6200038060201b60201c565b8173ffffffffffffffffffffffffffffffffffffffff1660c08173ffffffffffffffffffffffffffffffffffffffff1681525050620003376774ee93fd5319714760c01b6200038060201b60201c565b805f806101000a81548173ffffffffffffffffffffffffffffffffffffffff021916908373ffffffffffffffffffffffffffffffffffffffff160217905550505050506200040e565b50565b5f60019050919050565b60018060a01b0381168114620003a1575f80fd5b50565b5f805f8060808587031215620003b8575f80fd5b8451620003c5816200038d565b809450506020850151620003d9816200038d565b809350506040850151620003ed816200038d565b80925050606085015162000401816200038d565b8091505092959194509250565b60805160a05160c0516110066200044e5f395f81816105e601526106bc01525f818161018a015261064b01525f8181610364015261079201526110065ff3fe608060405234801561000f575f80fd5b506004361061007b575f3560e01c80635ec01e4d116100595780635ec01e4d146100fe578063683e49491461011c5780637da0a8771461014c578063e71bcfaa1461016a5761007b565b80630d817dd51461007f57806319141eb81461009d57806348da46ac146100cd575b5f80fd5b610087610188565b604051610094919061088a565b60405180910390f35b6100b760048036038101906100b291906108db565b6101ac565b6040516100c49190610914565b60405180910390f35b6100e760048036038101906100e29190610953565b6101f4565b6040516100f59291906109dc565b60405180910390f35b6101066105e4565b6040516101139190610a09565b60405180910390f35b61013660048036038101906101319190610a4a565b610608565b6040516101439190610b06565b60405180910390f35b61015461076d565b604051610161919061088a565b60405180910390f35b610172610790565b60405161017f919061088a565b60405180910390f35b7f000000000000000000000000000000000000000000000000000000000000000081565b6001602052825f5260405f20602052815f5260405f20602052805f5260405f205f92509250509054906101000a900473ffffffffffffffffffffffffffffffffffffffff1681565b5f8061020a67456288c4abf471fd60c01b6107b4565b61021e672e7f412a2f06b77a60c01b6107b4565b610232672576c92b2bd8453360c01b6107b4565b5f60015f3373ffffffffffffffffffffffffffffffffffffffff1673ffffffffffffffffffffffffffffffffffffffff1681526020019081526020015f205f8873ffffffffffffffffffffffffffffffffffffffff1673ffffffffffffffffffffffffffffffffffffffff1681526020019081526020015f205f8981526020019081526020015f205f9054906101000a900473ffffffffffffffffffffffffffffffffffffffff1690506102f067ffd6c1b6e012f72960c01b6107b4565b6103046715f1ea9cc843d67d60c01b6107b4565b5f73ffffffffffffffffffffffffffffffffffffffff168173ffffffffffffffffffffffffffffffffffffffff160361051c5761034b6762f5a07845e3aaa460c01b6107b4565b61035f675f2021a6c9d17a6d60c01b6107b4565b6103887f00000000000000000000000000000000000000000000000000000000000000006107b7565b905061039d66e3f1b517486ecb60c01b6107b4565b6103b16768c95e4bab6b43bb60c01b6107b4565b8073ffffffffffffffffffffffffffffffffffffffff1663cd6371108989308a5f8054906101000a900473ffffffffffffffffffffffffffffffffffffffff166040518663ffffffff1660e01b8152600401610411959493929190610bdf565b5f604051808303815f87803b158015610428575f80fd5b505af115801561043a573d5f803e3d5ffd5b5050505061045267b808fea847744a0a60c01b6107b4565b8060015f3373ffffffffffffffffffffffffffffffffffffffff1673ffffffffffffffffffffffffffffffffffffffff1681526020019081526020015f205f8973ffffffffffffffffffffffffffffffffffffffff1673ffffffffffffffffffffffffffffffffffffffff1681526020019081526020015f205f8a81526020019081526020015f205f6101000a81548173ffffffffffffffffffffffffffffffffffffffff021916908373ffffffffffffffffffffffffffffffffffffffff160217905550610531565b61053067d2ca62abcf6996e960c01b6107b4565b5b61054567b4c0dcca04faa64d60c01b6107b4565b8073ffffffffffffffffffffffffffffffffffffffff16638d00963585876040518363ffffffff1660e01b8152600401610580929190610cee565b6020604051808303815f875af115801561059c573d5f803e3d5ffd5b505050506040513d601f19601f820116820180604052508101906105c09190610d70565b91506105d6678c2b175a71d60dd360c01b6107b4565b809250509550959350505050565b7f000000000000000000000000000000000000000000000000000000000000000081565b5f61061d678b8d09d6a9fb1dd260c01b6107b4565b610631676224c207cd912c0260c01b6107b4565b61064567918d42345022aeee60c01b6107b4565b5f61066f7f00000000000000000000000000000000000000000000000000000000000000006107b7565b905061068567496c11bd1ab9c7df60c01b6107b4565b61069967fdd24750f0cd9b2c60c01b6107b4565b8073ffffffffffffffffffffffffffffffffffffffff1663ea856cb888888888887f0000000000000000000000000000000000000000000000000000000000000000335f8054906101000a900473ffffffffffffffffffffffffffffffffffffffff166040518963ffffffff1660e01b815260040161071f989796959493929190610e01565b5f604051808303815f87803b158015610736575f80fd5b505af1158015610748573d5f803e3d5ffd5b505050506107606740999db057300e0160c01b6107b4565b8091505095945050505050565b5f8054906101000a900473ffffffffffffffffffffffffffffffffffffffff1681565b7f000000000000000000000000000000000000000000000000000000000000000081565b50565b5f763d602d80600a3d3981f3363d3d373d3d3d363d730000008260601b60e81c175f526e5af43d82803e903d91602b57fd5bf38260781b17602052603760095ff090505f73ffffffffffffffffffffffffffffffffffffffff168173ffffffffffffffffffffffffffffffffffffffff1603610868576040517f08c379a000000000000000000000000000000000000000000000000000000000815260040161085f90610f93565b60405180910390fd5b919050565b73ffffffffffffffffffffffffffffffffffffffff811682525050565b5f60208201905073ffffffffffffffffffffffffffffffffffffffff8316825292915050565b5f8135905073ffffffffffffffffffffffffffffffffffffffff811681146108d6575f80fd5b919050565b5f805f606084860312156108ed575f80fd5b6108f6846108b0565b9250610904602085016108b0565b9150604084013590509250925092565b5f60208201905073ffffffffffffffffffffffffffffffffffffffff8316825292915050565b5f6060828403121561094a575f80fd5b81905092915050565b5f805f805f60a08688031215610967575f80fd5b85359450610977602087016108b0565b9350604086013567ffffffffffffffff80821115610993575f80fd5b61099f89838a0161093a565b945060608801359150808211156109b4575f80fd5b506109c18882890161093a565b9250506109d0608087016108b0565b90509295509295909350565b5f60408201905073ffffffffffffffffffffffffffffffffffffffff841682528260208301529392505050565b5f60208201905073ffffffffffffffffffffffffffffffffffffffff8316825292915050565b5f8135905063ffffffff81168114610a45575f80fd5b919050565b5f805f805f60808688031215610a5e575f80fd5b853567ffffffffffffffff80821115610a75575f80fd5b818801915060e0828a031215610a89575f80fd5b819650610a9860208901610a2f565b9550610aa660408901610a2f565b94506060880135915080821115610abb575f80fd5b818801915088601f830112610ace575f80fd5b813581811115610adc575f80fd5b896020606083028501011115610af0575f80fd5b6020830194508093505050509295509295909350565b5f60208201905073ffffffffffffffffffffffffffffffffffffffff8316825292915050565b5f8083357fffffffffffffffffffffffffffffffffffffffffffffffffffffffffffffffe1843603018112610b5f575f80fd5b8381019050803591506020810192505067ffffffffffffffff811115610b83575f80fd5b803603821315610b91575f80fd5b9250929050565b81835281816020850137505f602082840101525f60207fffffffffffffffffffffffffffffffffffffffffffffffffffffffffffffffe0601f840116840101905092915050565b8581525f73ffffffffffffffffffffffffffffffffffffffff8087166020840152808616604084015260a06060840152610c198586610b2c565b606060a0860152610c2f61010086018284610b98565b915050610c3f6020870187610b2c565b7fffffffffffffffffffffffffffffffffffffffffffffffffffffffffffffff60808785030160c0880152610c75848385610b98565b9350610c8460408a018a610b2c565b93509150808785030160e088015250610c9e838383610b98565b94505050508084166080840152509695505050505050565b5f813590506bffffffffffffffffffffffff81168114610cd4575f80fd5b919050565b6bffffffffffffffffffffffff811682525050565b5f73ffffffffffffffffffffffffffffffffffffffff808516835260406020840152610d1a8485610b2c565b60606040860152610d2f60a086018284610b98565b91505081610d3f602087016108b0565b1660608501526bffffffffffffffffffffffff610d5e60408701610cb6565b16608085015280925050509392505050565b5f60208284031215610d80575f80fd5b8151905092915050565b63ffffffff811682525050565b8183525f60208085019450825f5b85811015610df45763ffffffff80610dbc84610a2f565b16885280610dcb858501610a2f565b168489015250604080830135818901525060608088019750808301925050600181019050610da5565b5050508390509392505050565b60e081525f610e108a8b610b2c565b60e080850152610e256101c085018284610b98565b915050610e3560208c018c610b2c565b7fffffffffffffffffffffffffffffffffffffffffffffffffffffffffffffff208086850301610100870152610e6c848385610b98565b9350610e7b60408f018f610b2c565b935091508086850301610120870152610e95848484610b98565b9350610ea460608f018f610b2c565b935091508086850301610140870152610ebe848484610b98565b9350610ecd60808f018f610b2c565b93509150808685030161016087015250610ee8838383610b98565b9250505073ffffffffffffffffffffffffffffffffffffffff610f0d60a08d016108b0565b16610180840152610f2060c08c01610cb6565b610f2e6101a0850182610cd9565b50610f3c602084018b610d8a565b610f49604084018a610d8a565b8281036060840152610f5c81888a610d97565b915050610f6c608083018661086d565b610f7960a083018561086d565b610f8660c083018461086d565b9998505050505050505050565b60208152601660208201527f455243313136373a20637265617465206661696c65640000000000000000000060408201525f60608201905091905056fea264697066735822122062f99912a371e2268f0761d8537bc5e756500f83dc350e9c60b63dd687b385d564736f6c63430008150033",
  "linkReferences": {},
  "deployedLinkReferences": {}
}