{
  "_format": "hh-sol-artifact-1",
  "contractName": "MockExchangeV2Core",
  "sourceName": "contracts/test/MockExchangeV2Core.sol",
  "abi": [
    {
      "inputs": [],
      "stateMutability": "nonpayable",
      "type": "constructor"
    },
    {
      "inputs": [
        {
          "components": [
            {
              "internalType": "address",
              "name": "sellOrderMaker",
              "type": "address"
            },
            {
              "internalType": "uint256",
              "name": "sellOrderNftAmount",
              "type": "uint256"
            },
            {
              "internalType": "bytes4",
              "name": "nftAssetClass",
              "type": "bytes4"
            },
            {
              "internalType": "bytes",
              "name": "nftData",
              "type": "bytes"
            },
            {
              "internalType": "uint256",
              "name": "sellOrderPaymentAmount",
              "type": "uint256"
            },
            {
              "internalType": "address",
              "name": "paymentToken",
              "type": "address"
            },
            {
              "internalType": "uint256",
              "name": "sellOrderSalt",
              "type": "uint256"
            },
            {
              "internalType": "uint256",
              "name": "sellOrderStart",
              "type": "uint256"
            },
            {
              "internalType": "uint256",
              "name": "sellOrderEnd",
              "type": "uint256"
            },
            {
              "internalType": "bytes4",
              "name": "sellOrderDataType",
              "type": "bytes4"
            },
            {
              "internalType": "bytes",
              "name": "sellOrderData",
              "type": "bytes"
            },
            {
              "internalType": "bytes",
              "name": "sellOrderSignature",
              "type": "bytes"
            },
            {
              "internalType": "uint256",
              "name": "buyOrderPaymentAmount",
              "type": "uint256"
            },
            {
              "internalType": "uint256",
              "name": "buyOrderNftAmount",
              "type": "uint256"
            },
            {
              "internalType": "bytes",
              "name": "buyOrderData",
              "type": "bytes"
            }
          ],
          "internalType": "struct LibDirectTransfer.Purchase",
          "name": "direct",
          "type": "tuple"
        }
      ],
      "name": "directPurchase",
      "outputs": [],
      "stateMutability": "payable",
      "type": "function"
    }
  ],
  "bytecode": "0x608060405234801561000f575f80fd5b5060b28061001c5f395ff3fe608060405260043610601b575f3560e01c80630d5f7d3514601f575b5f80fd5b6035600480360381019060319190603a565b6037565b005b50565b5f602082840312156049575f80fd5b813567ffffffffffffffff811115605e575f80fd5b80830190506101e081850312156072575f80fd5b809150509291505056fea2646970667358221220285cd26891bca5e16cf754a3337c5a84dfba30b871ac511c50732126ae6a929564736f6c63430008150033",
  "linkReferences": {},
  "deployedLinkReferences": {}
}