{
  "_format": "hh-sol-artifact-1",
  "contractName": "EeseePeriphery",
  "sourceName": "contracts/periphery/EeseePeriphery.sol",
  "abi": [
    {
      "inputs": [
        {
          "internalType": "contract IEesee",
          "name": "_Eesee",
          "type": "address"
        },
        {
          "internalType": "contract IEeseeDrops",
          "name": "_EeseeDrops",
          "type": "address"
        },
        {
          "internalType": "address",
          "name": "_OneInchRouter",
          "type": "address"
        },
        {
          "internalType": "address",
          "name": "trustedForwarder",
          "type": "address"
        }
      ],
      "stateMutability": "nonpayable",
      "type": "constructor"
    },
    {
      "inputs": [],
      "name": "EthDepositRejected",
      "type": "error"
    },
    {
      "inputs": [],
      "name": "InvalidAsset",
      "type": "error"
    },
    {
      "inputs": [],
      "name": "InvalidConstructor",
      "type": "error"
    },
    {
      "inputs": [],
      "name": "InvalidMsgValue",
      "type": "error"
    },
    {
      "inputs": [],
      "name": "InvalidSwapDescription",
      "type": "error"
    },
    {
      "inputs": [],
      "name": "LotExpired",
      "type": "error"
    },
    {
      "inputs": [],
      "name": "LotNotExists",
      "type": "error"
    },
    {
      "inputs": [],
      "name": "LotNotFulfilled",
      "type": "error"
    },
    {
      "inputs": [],
      "name": "NoTicketsBought",
      "type": "error"
    },
    {
      "inputs": [],
      "name": "PartialFillNotAllowed",
      "type": "error"
    },
    {
      "inputs": [],
      "name": "SwapNotSuccessful",
      "type": "error"
    },
    {
      "inputs": [],
      "name": "ESE",
      "outputs": [
        {
          "internalType": "contract IERC20",
          "name": "",
          "type": "address"
        }
      ],
      "stateMutability": "view",
      "type": "function"
    },
    {
      "inputs": [],
      "name": "Eesee",
      "outputs": [
        {
          "internalType": "contract IEesee",
          "name": "",
          "type": "address"
        }
      ],
      "stateMutability": "view",
      "type": "function"
    },
    {
      "inputs": [],
      "name": "EeseeDrops",
      "outputs": [
        {
          "internalType": "contract IEeseeDrops",
          "name": "",
          "type": "address"
        }
      ],
      "stateMutability": "view",
      "type": "function"
    },
    {
      "inputs": [],
      "name": "OneInchRouter",
      "outputs": [
        {
          "internalType": "address",
          "name": "",
          "type": "address"
        }
      ],
      "stateMutability": "view",
      "type": "function"
    },
    {
      "inputs": [
        {
          "internalType": "uint256[]",
          "name": "IDs",
          "type": "uint256[]"
        },
        {
          "internalType": "uint32[]",
          "name": "amounts",
          "type": "uint32[]"
        },
        {
          "internalType": "bytes",
          "name": "swapData",
          "type": "bytes"
        },
        {
          "internalType": "address",
          "name": "recipient",
          "type": "address"
        }
      ],
      "name": "buyTicketsWithSwap",
      "outputs": [
        {
          "internalType": "uint256",
          "name": "tokensSpent",
          "type": "uint256"
        },
        {
          "internalType": "uint96",
          "name": "dust",
          "type": "uint96"
        }
      ],
      "stateMutability": "payable",
      "type": "function"
    },
    {
      "inputs": [
        {
          "components": [
            {
              "internalType": "address",
              "name": "token",
              "type": "address"
            },
            {
              "internalType": "uint256",
              "name": "tokenID",
              "type": "uint256"
            },
            {
              "internalType": "uint256",
              "name": "amount",
              "type": "uint256"
            },
            {
              "internalType": "enum AssetType",
              "name": "assetType",
              "type": "uint8"
            },
            {
              "internalType": "bytes",
              "name": "data",
              "type": "bytes"
            }
          ],
          "internalType": "struct Asset[]",
          "name": "assets",
          "type": "tuple[]"
        },
        {
          "components": [
            {
              "internalType": "uint32",
              "name": "maxTickets",
              "type": "uint32"
            },
            {
              "internalType": "uint96",
              "name": "ticketPrice",
              "type": "uint96"
            },
            {
              "internalType": "uint32",
              "name": "duration",
              "type": "uint32"
            },
            {
              "internalType": "address",
              "name": "owner",
              "type": "address"
            },
            {
              "internalType": "address",
              "name": "signer",
              "type": "address"
            },
            {
              "internalType": "bytes",
              "name": "signatureData",
              "type": "bytes"
            }
          ],
          "internalType": "struct IEesee.LotParams[]",
          "name": "params",
          "type": "tuple[]"
        },
        {
          "internalType": "uint32[]",
          "name": "amounts",
          "type": "uint32[]"
        },
        {
          "internalType": "bytes",
          "name": "swapData",
          "type": "bytes"
        },
        {
          "internalType": "address",
          "name": "recipient",
          "type": "address"
        }
      ],
      "name": "createLotsAndBuyTicketsWithSwap",
      "outputs": [
        {
          "internalType": "uint256[]",
          "name": "IDs",
          "type": "uint256[]"
        },
        {
          "internalType": "uint256",
          "name": "tokensSpent",
          "type": "uint256"
        },
        {
          "internalType": "uint96",
          "name": "dust",
          "type": "uint96"
        }
      ],
      "stateMutability": "payable",
      "type": "function"
    },
    {
      "inputs": [
        {
          "internalType": "uint256",
          "name": "ID",
          "type": "uint256"
        }
      ],
      "name": "getLotWinner",
      "outputs": [
        {
          "internalType": "address",
          "name": "winner",
          "type": "address"
        },
        {
          "internalType": "bool",
          "name": "isAssetWinner",
          "type": "bool"
        }
      ],
      "stateMutability": "view",
      "type": "function"
    },
    {
      "inputs": [],
      "name": "getTrustedForwarder",
      "outputs": [
        {
          "internalType": "address",
          "name": "forwarder",
          "type": "address"
        }
      ],
      "stateMutability": "view",
      "type": "function"
    },
    {
      "inputs": [
        {
          "internalType": "address",
          "name": "forwarder",
          "type": "address"
        }
      ],
      "name": "isTrustedForwarder",
      "outputs": [
        {
          "internalType": "bool",
          "name": "",
          "type": "bool"
        }
      ],
      "stateMutability": "view",
      "type": "function"
    },
    {
      "inputs": [
        {
          "internalType": "uint256[]",
          "name": "IDs",
          "type": "uint256[]"
        },
        {
          "internalType": "uint32[]",
          "name": "quantities",
          "type": "uint32[]"
        },
        {
          "internalType": "bytes32[][]",
          "name": "merkleProofs",
          "type": "bytes32[][]"
        },
        {
          "internalType": "bytes",
          "name": "swapData",
          "type": "bytes"
        },
        {
          "internalType": "address",
          "name": "recipient",
          "type": "address"
        }
      ],
      "name": "mintDropsWithSwap",
      "outputs": [
        {
          "internalType": "uint256",
          "name": "tokensSpent",
          "type": "uint256"
        },
        {
          "internalType": "uint96",
          "name": "dust",
          "type": "uint96"
        }
      ],
      "stateMutability": "payable",
      "type": "function"
    },
    {
      "inputs": [],
      "name": "random",
      "outputs": [
        {
          "internalType": "contract IEeseeRandom",
          "name": "",
          "type": "address"
        }
      ],
      "stateMutability": "view",
      "type": "function"
    },
    {
      "inputs": [],
      "name": "returnInterval",
      "outputs": [
        {
          "internalType": "uint48",
          "name": "",
          "type": "uint48"
        }
      ],
      "stateMutability": "view",
      "type": "function"
    },
    {
      "stateMutability": "payable",
      "type": "receive"
    }
  ],
  "bytecode": "0x61014060405234801562000011575f80fd5b5060405162003f8c38038062003f8c8339818101604052810190620000379190620007b4565b620000536733e52d41e5148ce560c01b6200074e60201b60201c565b6200006f672f878fc7868c170560c01b6200074e60201b60201c565b6200008b67f40f1a15c083b8a960c01b6200074e60201b60201c565b5f73ffffffffffffffffffffffffffffffffffffffff168473ffffffffffffffffffffffffffffffffffffffff16148015620000df5750620000de67aacb577dd20737a860c01b6200075160201b60201c565b5b806200016057505f73ffffffffffffffffffffffffffffffffffffffff168373ffffffffffffffffffffffffffffffffffffffff161480156200013a57506200013967a4ffb1f9bd56b3a760c01b6200075160201b60201c565b5b80156200015f57506200015e67f3fa506e5820915e60c01b6200075160201b60201c565b5b5b80620001bc57505f73ffffffffffffffffffffffffffffffffffffffff168273ffffffffffffffffffffffffffffffffffffffff16148015620001bb5750620001ba6726c0b24179db9ceb60c01b6200075160201b60201c565b5b5b156200021057620001de67a534de7a6509d7dc60c01b6200074e60201b60201c565b6040517f12c1701b00000000000000000000000000000000000000000000000000000000815260040160405180910390fd5b6200022c67d03830f785bb88bb60c01b6200074e60201b60201c565b6200024867420ec2fb24adc78a60c01b6200074e60201b60201c565b8373ffffffffffffffffffffffffffffffffffffffff1660a08173ffffffffffffffffffffffffffffffffffffffff168152505062000298673d34dc9bff0fe82f60c01b6200074e60201b60201c565b60a05173ffffffffffffffffffffffffffffffffffffffff16635ec01e4d6040518163ffffffff1660e01b8152600401602060405180830381865afa158015620002e4573d5f803e3d5ffd5b505050506040513d601f19601f820116820180604052508101906200030a91906200081e565b73ffffffffffffffffffffffffffffffffffffffff1660e08173ffffffffffffffffffffffffffffffffffffffff168152505062000359672db0ca25ee57d13c60c01b6200074e60201b60201c565b60e05173ffffffffffffffffffffffffffffffffffffffff16638d497cfa6040518163ffffffff1660e01b8152600401602060405180830381865afa158015620003a5573d5f803e3d5ffd5b505050506040513d601f19601f82011682018060405250810190620003cb919062000846565b65ffffffffffff166101208165ffffffffffff1681525050620003ff6734a7896d0294c99d60c01b6200074e60201b60201c565b8273ffffffffffffffffffffffffffffffffffffffff1660c08173ffffffffffffffffffffffffffffffffffffffff16815250506200044f67e69f1dcaf672e80960c01b6200074e60201b60201c565b60a05173ffffffffffffffffffffffffffffffffffffffff1663764bd0c56040518163ffffffff1660e01b8152600401602060405180830381865afa1580156200049b573d5f803e3d5ffd5b505050506040513d601f19601f82011682018060405250810190620004c1919062000877565b73ffffffffffffffffffffffffffffffffffffffff1660808173ffffffffffffffffffffffffffffffffffffffff16815250506200051067b3493f146fcb0b4c60c01b6200074e60201b60201c565b8173ffffffffffffffffffffffffffffffffffffffff166101008173ffffffffffffffffffffffffffffffffffffffff16815250506200056167e836e8b0d691862560c01b6200074e60201b60201c565b6200057d67bc11252c0e27f0ca60c01b6200074e60201b60201c565b60805173ffffffffffffffffffffffffffffffffffffffff1663095ea7b3857fffffffffffffffffffffffffffffffffffffffffffffffffffffffffffffffff6040518363ffffffff1660e01b8152600401620005dc9291906200089f565b6020604051808303815f875af1158015620005f9573d5f803e3d5ffd5b505050506040513d601f19601f820116820180604052508101906200061f9190620008be565b506200063c67636dbfed007921be60c01b6200074e60201b60201c565b62000658670b26ff7e52b99a5d60c01b6200074e60201b60201c565b60805173ffffffffffffffffffffffffffffffffffffffff1663095ea7b3847fffffffffffffffffffffffffffffffffffffffffffffffffffffffffffffffff6040518363ffffffff1660e01b8152600401620006b79291906200089f565b6020604051808303815f875af1158015620006d4573d5f803e3d5ffd5b505050506040513d601f19601f82011682018060405250810190620006fa9190620008be565b506200071767eed4be99f5db659e60c01b6200074e60201b60201c565b6200073367f30363922019089460c01b6200074e60201b60201c565b62000744816200075b60201b60201c565b50505050620008e9565b50565b5f60019050919050565b805f806101000a81548173ffffffffffffffffffffffffffffffffffffffff021916908373ffffffffffffffffffffffffffffffffffffffff16021790555050565b60018060a01b0381168114620007b1575f80fd5b50565b5f805f8060808587031215620007c8575f80fd5b8451620007d5816200079d565b809450506020850151620007e9816200079d565b809350506040850151620007fd816200079d565b80925050606085015162000811816200079d565b8091505092959194509250565b5f602082840312156200082f575f80fd5b81516200083c816200079d565b8091505092915050565b5f6020828403121562000857575f80fd5b815165ffffffffffff811681146200086d575f80fd5b8091505092915050565b5f6020828403121562000888575f80fd5b815162000895816200079d565b8091505092915050565b5f60408201905060018060a01b03841682528260208301529392505050565b5f60208284031215620008cf575f80fd5b81518015158114620008df575f80fd5b8091505092915050565b60805160a05160c05160e0516101005161012051613615620009775f395f81816107a40152610e0e01525f81816112d401528181611a730152611aed01525f81816107380152610cbe01525f818161071401526113ad01525f81816105db0152818161078001528181610807015261120201525f818161075c015281816115110152611d9001526136155ff3fe6080604052600436106100ca575f3560e01c80638d497cfa11610073578063c3b6d6dd1161004d578063c3b6d6dd1461032b578063ce1b815f14610355578063d3b071491461037f57610179565b80638d497cfa14610293578063975faaed146102bd5780639f8c41fc146102fa57610179565b80635ec01e4d116100a45780635ec01e4d14610215578063764bd0c51461023f5780638313ae401461026957610179565b8063379260f71461017d578063572b6c05146101af5780635c5b831d146101eb57610179565b36610179576100e3671728b983da0bbab660c01b6103b0565b3273ffffffffffffffffffffffffffffffffffffffff166101026103b3565b73ffffffffffffffffffffffffffffffffffffffff1603610163576101316787f5a0a946cf8c3260c01b6103b0565b6040517f1b10b0f900000000000000000000000000000000000000000000000000000000815260040160405180910390fd5b61017767012d04941ba0ee6760c01b6103b0565b005b5f80fd5b6101976004803603810190610192919061236e565b6103e8565b6040516101a69392919061245a565b60405180910390f35b3480156101ba575f80fd5b506101d560048036038101906101d091906124c2565b6106bb565b6040516101e291906124e7565b60405180910390f35b3480156101f6575f80fd5b506101ff610712565b60405161020c91906124f9565b60405180910390f35b348015610220575f80fd5b50610229610736565b604051610236919061251f565b60405180910390f35b34801561024a575f80fd5b5061025361075a565b6040516102609190612545565b60405180910390f35b348015610274575f80fd5b5061027d61077e565b60405161028a919061256b565b60405180910390f35b34801561029e575f80fd5b506102a76107a2565b6040516102b49190612591565b60405180910390f35b3480156102c8575f80fd5b506102e360048036038101906102de91906125a9565b6107c6565b6040516102f19291906125e0565b60405180910390f35b610314600480360381019061030f919061260f565b611172565b6040516103229291906126c1565b60405180910390f35b348015610336575f80fd5b5061033f6112d2565b60405161034c91906126e6565b60405180910390f35b348015610360575f80fd5b506103696112f6565b60405161037691906126e6565b60405180910390f35b6103996004803603810190610394919061270c565b61131d565b6040516103a79291906126c1565b60405180910390f35b50565b5f60145f369050101580156103cd57506103cc336106bb565b5b156103e157601436033560601c90506103e5565b3390505b90565b60605f8061040067582c7e5ca79e0b9760c01b6103b0565b61041467bfe493a7d7c2901e60c01b6103b0565b610428678926d5c637dbb35f60c01b6103b0565b5f61043d677ed76fe4665c093360c01b6103b0565b6104478787611483565b809450819250505061046367fa3183bc41e6999e60c01b6103b0565b610477670b92f9e72335bac260c01b6103b0565b5f5b8d8d905081101561059b5761049867dce3263c6f5f62df60c01b6103b0565b6104ac6754173be7a41b8f4660c01b6103b0565b600360058111156104c0576104bf6127e9565b5b8e8e838181106104d3576104d2612816565b5b90506020028101906104e59190612843565b60600160208101906104f79190612897565b6005811115610509576105086127e9565b5b036105545761052267e8be60a93d9675c660c01b6103b0565b6040517fc891add200000000000000000000000000000000000000000000000000000000815260040160405180910390fd5b61056867c03892742c88319360c01b6103b0565b61057c6772691302286fb6a360c01b6103b0565b61059067abe115c80d66a6f260c01b6103b0565b806001019050610479565b506105b0671b196da151c5ad3260c01b6103b0565b6105c467bb34c22bf99bcdd160c01b6103b0565b5f6105d9676c255f2cddbb9df960c01b6103b0565b7f000000000000000000000000000000000000000000000000000000000000000073ffffffffffffffffffffffffffffffffffffffff166333fe34638f8f8f8f8f8f8d6040518863ffffffff1660e01b815260040161063e9796959493929190612b22565b5f604051808303815f875af1158015610659573d5f803e3d5ffd5b505050506040513d5f823e3d601f19601f820116820180604052508101906106819190612d87565b809250819650505061069d6765f43d609d4b3d4760c01b6103b0565b6106a8828288611cc6565b9250505099509950999650505050505050565b5f805f9054906101000a900473ffffffffffffffffffffffffffffffffffffffff1673ffffffffffffffffffffffffffffffffffffffff168273ffffffffffffffffffffffffffffffffffffffff16149050919050565b7f000000000000000000000000000000000000000000000000000000000000000081565b7f000000000000000000000000000000000000000000000000000000000000000081565b7f000000000000000000000000000000000000000000000000000000000000000081565b7f000000000000000000000000000000000000000000000000000000000000000081565b7f000000000000000000000000000000000000000000000000000000000000000081565b5f806107dc677a4ff76d1aa200cd60c01b6103b0565b6107f067cbf4ffbbcf5eff3760c01b6103b0565b61080467bad795769056462160c01b6103b0565b5f7f0000000000000000000000000000000000000000000000000000000000000000905061083c678fda463a6731613560c01b6103b0565b6108506709f1d690d499e27360c01b6103b0565b5f808273ffffffffffffffffffffffffffffffffffffffff1663f1648e8460e01b876040516024016108829190612e42565b604051602081830303815290604052907bffffffffffffffffffffffffffffffffffffffffffffffffffffffff19166020820180517bffffffffffffffffffffffffffffffffffffffffffffffffffffffff83818316178352505050506040516108ec9190612e7a565b5f60405180830381855afa9150503d805f8114610924576040519150601f19603f3d011682016040523d82523d5f602084013e610929565b606091505b5091509150610942675cc8bf7513717d8560c01b6103b0565b61095667c7c2471d81864bed60c01b6103b0565b816109a15761096f671f85b74b950e690b60c01b6103b0565b6040517f46ca5edf00000000000000000000000000000000000000000000000000000000815260040160405180910390fd5b6109b567b858490c01b7153d60c01b6103b0565b6109c96787f79e7c3908ca5960c01b6103b0565b6109dd677a34739e049423e660c01b6103b0565b5f6109f26746230778e78f286060c01b6103b0565b610a066770086b597f78823260c01b6103b0565b610a1a67144823510c98575d60c01b6103b0565b5f610a2f67de2cac3c1401892860c01b6103b0565b61012083015190506102208301519150610a5367ed4a484cca5933b360c01b6103b0565b610a676760bcb1f38d9aeaae60c01b6103b0565b8015610b5a57610a81678adf55f05de0303960c01b6103b0565b610a9567c5ed45ea05a44cde60c01b6103b0565b610aa9673f0f3f604ec75ca460c01b6103b0565b8473ffffffffffffffffffffffffffffffffffffffff16638a5e3ea0895f6040518363ffffffff1660e01b8152600401610ae4929190612e97565b602060405180830381865afa158015610aff573d5f803e3d5ffd5b505050506040513d601f19601f82011682018060405250810190610b239190612eb4565b60046005811115610b3757610b366127e9565b5b836005811115610b4a57610b496127e9565b5b141596509650505050505061116d565b610b6e670a23d5a5ed6fc03b60c01b6103b0565b50610b8367f92b1850b2d7d68560c01b6103b0565b610b9767246868bba5fcff0160c01b6103b0565b5f610bac67616ad1101a3ca15760c01b6103b0565b610bc06755436f0b54ebc5d260c01b6103b0565b610bd467a4617fc683a686ae60c01b6103b0565b5f610be9677fbfe0f8f59f658960c01b6103b0565b60c08401519050610c04677c2303cdc69e82cd60c01b6103b0565b610c186721f9adee2ac740ce60c01b6103b0565b5f8163ffffffff1603610c6b57610c39670e2c37836ac8b68f60c01b6103b0565b6040517f46ca5edf00000000000000000000000000000000000000000000000000000000815260040160405180910390fd5b610c7f6712e641ee5161ee1360c01b6103b0565b610c936758c6dd60e165d8ad60c01b6103b0565b610ca767b9d1920badbbb27160c01b6103b0565b5f610cbc670fdcc82effb4ca5e60c01b6103b0565b7f000000000000000000000000000000000000000000000000000000000000000073ffffffffffffffffffffffffffffffffffffffff1663fa95b139836040518263ffffffff1660e01b8152600401610d159190612ed9565b6040805180830381865afa158015610d2f573d5f803e3d5ffd5b505050506040513d601f19601f82011682018060405250810190610d539190612eef565b8092508194505050610d6f67b2511eace260776160c01b6103b0565b610d8367a4360840bd8d9fc760c01b6103b0565b5f8103610dd057610d9e67663f77ec0b7c195b60c01b6103b0565b6040517f7500063a00000000000000000000000000000000000000000000000000000000815260040160405180910390fd5b610de467f994260a16a91cac60c01b6103b0565b610df8677c4fb27f2ebc6a6660c01b6103b0565b610e0c67ab39f9551bfb93cc60c01b6103b0565b7f00000000000000000000000000000000000000000000000000000000000000008263ffffffff160165ffffffffffff16811115610e8a57610e5867c9ef82d2aeb9248b60c01b6103b0565b6040517f0180357f00000000000000000000000000000000000000000000000000000000815260040160405180910390fd5b610e9e678713cbe1ef32164560c01b6103b0565b5050610eb467ce110a2e9d8d20d360c01b6103b0565b610ec8677c33cff8b556aaa860c01b6103b0565b5f610edd67550b2d36f8dbe6d060c01b6103b0565b610ef16785fe1781dbe6f19d60c01b6103b0565b5f610f066728772bd8e2a35a9960c01b6103b0565b6060850151915060408501519050610f2867348f2110b9cdc53d60c01b6103b0565b610f3c67be6763170db6eb3960c01b6103b0565b5f8263ffffffff1603610f8f57610f5d6701f36ef3d730885760c01b6103b0565b6040517fd10cc50f00000000000000000000000000000000000000000000000000000000815260040160405180910390fd5b610fa36753de27d1d887716960c01b6103b0565b610fb767e242e3895d7ae0d160c01b6103b0565b610fcb6753c921ee12961e6560c01b6103b0565b5f610fe067df611c1d758667db60c01b6103b0565b6101008601519050610ffc67f1e621ae793437f960c01b6103b0565b61101067575877b9c20cd2ab60c01b6103b0565b611024670f48ad0c1dfa768660c01b6103b0565b5f6101008c8161103757611036612f12565b5b06905061104e6781a87a7bbbec80fb60c01b6103b0565b61106267bdf47cf45499982d60c01b6103b0565b5f816101000386901c8287901b17905061108667c3166ebcafd545e760c01b6103b0565b61109a679f3c19630ddcc4fa60c01b6103b0565b8973ffffffffffffffffffffffffffffffffffffffff1663eecd5b9c8e86880163ffffffff1684816110cf576110ce612f12565b5b066040518363ffffffff1660e01b81526004016110ed929190612f3f565b602060405180830381865afa158015611108573d5f803e3d5ffd5b505050506040513d601f19601f8201168201806040525081019061112c9190612eb4565b83801561115e575060046005811115611148576111476127e9565b5b88600581111561115b5761115a6127e9565b5b14155b9b509b50505050505050505050505b915091565b5f8061118867827eaee9f95fef9360c01b6103b0565b61119c67165acd900680dd1860c01b6103b0565b6111b067a9c3faef8b74add060c01b6103b0565b5f6111c567d44841013a38ef7660c01b6103b0565b6111cf8686611483565b80945081925050506111eb67142b1c14d33e638a60c01b6103b0565b6111ff674b2b591445cf257660c01b6103b0565b5f7f000000000000000000000000000000000000000000000000000000000000000073ffffffffffffffffffffffffffffffffffffffff1663127b3be58c8c8c8c8a6040518663ffffffff1660e01b8152600401611261959493929190612fa7565b6020604051808303815f875af115801561127d573d5f803e3d5ffd5b505050506040513d601f19601f820116820180604052508101906112a19190613007565b90506112b767f39b213d0dcf549c60c01b6103b0565b6112c2828287611cc6565b9250505097509795505050505050565b7f000000000000000000000000000000000000000000000000000000000000000081565b5f805f9054906101000a900473ffffffffffffffffffffffffffffffffffffffff16905090565b5f80611333676f516f50286e484560c01b6103b0565b61134767c041f177c957f2c760c01b6103b0565b61135b6755479974ecdc65d860c01b6103b0565b5f61137067f7a1b738b4b5202d60c01b6103b0565b61137a8686611483565b80945081925050506113966715b50dfe6e96f78860c01b6103b0565b6113aa67e2929de5bacac17660c01b6103b0565b5f7f000000000000000000000000000000000000000000000000000000000000000073ffffffffffffffffffffffffffffffffffffffff166342fbeae08e8e8e8e8e8e8c6040518863ffffffff1660e01b8152600401611410979695949392919061302c565b6020604051808303815f875af115801561142c573d5f803e3d5ffd5b505050506040513d601f19601f820116820180604052508101906114509190613007565b905061146667c5c719e11de9a51560c01b6103b0565b611471828287611cc6565b92505050995099975050505050505050565b5f80611499674dfa32ee8aa7cdf960c01b6103b0565b6114ad6751324b68d5956dd060c01b6103b0565b6114c16753d1ef531a45897f60c01b6103b0565b5f848460049080926114d593929190613159565b8101906114e29190613212565b509150506114fa671bdc2ac629cda4bf60c01b6103b0565b61150e6793f32463496b244960c01b6103b0565b5f7f000000000000000000000000000000000000000000000000000000000000000090506115466724731bb6bccf40d560c01b6103b0565b61155a671f2d8a38e70f35e660c01b6103b0565b6312aa3caf60e01b7bffffffffffffffffffffffffffffffffffffffffffffffffffffffff191686865f9060049261159493929190613159565b9061159f9190613310565b7bffffffffffffffffffffffffffffffffffffffffffffffffffffffff1916141580156115dc57506115db678caa51b5a2e05fde60c01b611df5565b5b8061164d57508073ffffffffffffffffffffffffffffffffffffffff16825f015173ffffffffffffffffffffffffffffffffffffffff16148015611630575061162f6727c69196848a6d0260c01b611df5565b5b801561164c575061164b67bdbe18667d85cf3a60c01b611df5565b5b5b806116c057508073ffffffffffffffffffffffffffffffffffffffff16826020015173ffffffffffffffffffffffffffffffffffffffff16141580156116a357506116a267613383ee408bfd0160c01b611df5565b5b80156116bf57506116be6746517e89cd85900e60c01b611df5565b5b5b8061170657505f82608001511480156116e957506116e867dcc0750a649915b860c01b611df5565b5b801561170557506117046722603ea1512930ab60c01b611df5565b5b5b8061175d57503073ffffffffffffffffffffffffffffffffffffffff16826060015173ffffffffffffffffffffffffffffffffffffffff161415801561175c575061175b679565e0e934915d5a60c01b611df5565b5b5b156117a85761177667e9cf72ee1924f7e760c01b6103b0565b6040517f3034d71300000000000000000000000000000000000000000000000000000000815260040160405180910390fd5b6117bc67ccc4514491c1313f60c01b6103b0565b6117d067f078a69a8192855d60c01b6103b0565b6117e4676bf3dc130fd6cff160c01b6103b0565b5f73ffffffffffffffffffffffffffffffffffffffff16825f015173ffffffffffffffffffffffffffffffffffffffff16148015611832575061183167cacd76b9e96778e960c01b611df5565b5b8061189b575073eeeeeeeeeeeeeeeeeeeeeeeeeeeeeeeeeeeeeeee73ffffffffffffffffffffffffffffffffffffffff16825f015173ffffffffffffffffffffffffffffffffffffffff1614801561189a575061189967722b22c95f6c2f3b60c01b611df5565b5b5b15611946576118b46731ee0b041e81e77c60c01b6103b0565b6118c86767cd337af8db1b5660c01b6103b0565b6118dc677e25ea995776871160c01b6103b0565b8160800151341461192d576118fb6722f772d7ecc56e6f60c01b6103b0565b6040517f1841b4e100000000000000000000000000000000000000000000000000000000815260040160405180910390fd5b61194167cb12d7f32051ac7760c01b6103b0565b611ac1565b61195a67b249000171c1bc0260c01b6103b0565b61196e6766588ec7f0899dfe60c01b6103b0565b61198267514e38953af1a0f660c01b6103b0565b5f34146119cf5761199d679fe7c7c71748c67160c01b6103b0565b6040517f1841b4e100000000000000000000000000000000000000000000000000000000815260040160405180910390fd5b6119e367a73144d4da11437860c01b6103b0565b6119f76723b61363a8a630f060c01b6103b0565b611a0b676c6afc33a585674860c01b6103b0565b611a46611a166103b3565b308460800151855f015173ffffffffffffffffffffffffffffffffffffffff16611dff909392919063ffffffff16565b611a5a67e79ba500ea657a1c60c01b6103b0565b611a6e67fde10a3a44b4795660c01b6103b0565b611ac07f00000000000000000000000000000000000000000000000000000000000000008360800151845f015173ffffffffffffffffffffffffffffffffffffffff16611e889092919063ffffffff16565b5b611ad5677b7b667625572baa60c01b6103b0565b611ae967edc6bc99f5603c5f60c01b6103b0565b5f807f000000000000000000000000000000000000000000000000000000000000000073ffffffffffffffffffffffffffffffffffffffff16348989604051611b3392919061335a565b5f6040518083038185875af1925050503d805f8114611b6d576040519150601f19603f3d011682016040523d82523d5f602084013e611b72565b606091505b5091509150611b8b67529716f3f6cdca9860c01b6103b0565b611b9f67782e1eaaa7f522a860c01b6103b0565b81611bea57611bb86730bfdeb90e5534d560c01b6103b0565b6040517fa4f2ebb600000000000000000000000000000000000000000000000000000000815260040160405180910390fd5b611bfe6784e041ff3a0b6abf60c01b6103b0565b611c1267a4e0edaeedde86a960c01b6103b0565b80806020019051810190611c269190612eef565b8096508197505050611c426701faf54da587a3dd60c01b6103b0565b611c566780923989a132b6a260c01b6103b0565b83608001518514611ca757611c75677b2120a9d0d4692560c01b6103b0565b6040517f8ef0017c00000000000000000000000000000000000000000000000000000000815260040160405180910390fd5b611cbb67e2b9193a81d4a88760c01b6103b0565b505050509250929050565b5f611cdb67211813f11c8fc7d660c01b6103b0565b611cef67b485cff51a023c8960c01b6103b0565b611d0367d9ac1d8db4d346bb60c01b6103b0565b826bffffffffffffffffffffffff16846bffffffffffffffffffffffff1614611dd957611d3a6725bdbdf1b2bbd46d60c01b6103b0565b611d4e67d36248efcfbaf1ab60c01b6103b0565b8284039050611d676799cf04a9b649645260c01b6103b0565b611d7b67719e01e5cc81d8a260c01b6103b0565b611dd482826bffffffffffffffffffffffff167f000000000000000000000000000000000000000000000000000000000000000073ffffffffffffffffffffffffffffffffffffffff16611f979092919063ffffffff16565b611dee565b611ded673d1edf4e1ecdda5060c01b6103b0565b5b9392505050565b5f60019050919050565b611e82846323b872dd60e01b858585604051602401611e2093929190613370565b604051602081830303815290604052907bffffffffffffffffffffffffffffffffffffffffffffffffffffffff19166020820180517bffffffffffffffffffffffffffffffffffffffffffffffffffffffff838183161783525050505061201d565b50505050565b5f8373ffffffffffffffffffffffffffffffffffffffff1663dd62ed3e30856040518363ffffffff1660e01b8152600401611ec49291906133a8565b602060405180830381865afa158015611edf573d5f803e3d5ffd5b505050506040513d601f19601f82011682018060405250810190611f0391906133d9565b9050611f918463095ea7b360e01b858585611f1e91906133f3565b604051602401611f2f929190613434565b604051602081830303815290604052907bffffffffffffffffffffffffffffffffffffffffffffffffffffffff19166020820180517bffffffffffffffffffffffffffffffffffffffffffffffffffffffff838183161783525050505061201d565b50505050565b6120188363a9059cbb60e01b8484604051602401611fb6929190613434565b604051602081830303815290604052907bffffffffffffffffffffffffffffffffffffffffffffffffffffffff19166020820180517bffffffffffffffffffffffffffffffffffffffffffffffffffffffff838183161783525050505061201d565b505050565b5f61207e826040518060400160405280602081526020017f5361666545524332303a206c6f772d6c6576656c2063616c6c206661696c65648152508573ffffffffffffffffffffffffffffffffffffffff166120e39092919063ffffffff16565b90505f8151148061209f57508080602001905181019061209e9190613461565b5b6120de576040517f08c379a00000000000000000000000000000000000000000000000000000000081526004016120d59061348a565b60405180910390fd5b505050565b60606120f184845f856120fa565b90509392505050565b60608247101561213f576040517f08c379a0000000000000000000000000000000000000000000000000000000008152600401612136906134ed565b60405180910390fd5b5f808673ffffffffffffffffffffffffffffffffffffffff1685876040516121679190612e7a565b5f6040518083038185875af1925050503d805f81146121a1576040519150601f19603f3d011682016040523d82523d5f602084013e6121a6565b606091505b50915091506121b7878383876121c3565b92505050949350505050565b60608315612224575f83510361221c576121dc85612237565b61221b576040517f08c379a000000000000000000000000000000000000000000000000000000000815260040161221290613550565b60405180910390fd5b5b82905061222f565b61222e8383612259565b5b949350505050565b5f808273ffffffffffffffffffffffffffffffffffffffff163b119050919050565b5f8251111561226b5781518083602001fd5b806040517f08c379a000000000000000000000000000000000000000000000000000000000815260040161229f919061358d565b60405180910390fd5b5f8083601f8401126122b8575f80fd5b8235905067ffffffffffffffff8111156122d0575f80fd5b6020830191508360208260051b85010111156122ea575f80fd5b9250929050565b5f8083601f840112612301575f80fd5b8235905067ffffffffffffffff811115612319575f80fd5b602083019150836020828501011115612330575f80fd5b9250929050565b73ffffffffffffffffffffffffffffffffffffffff81168114612358575f80fd5b50565b5f8135905061236981612337565b919050565b5f805f805f805f805f60a08a8c031215612386575f80fd5b893567ffffffffffffffff8082111561239d575f80fd5b6123a98d838e016122a8565b9250809b505081995060208c01359150808211156123c5575f80fd5b6123d18d838e016122a8565b92508099505081975060408c01359150808211156123ed575f80fd5b6123f98d838e016122a8565b92508097505081955060608c0135915080821115612415575f80fd5b506124228c828d016122f1565b9150809450508092505060808a013561243a81612337565b809150509295985092959850929598565b5f81525f602082019050919050565b5f6060820160608352808651808352608085019150602092508288015f5b82811015612499578151845284840193508482019150600181019050612478565b505050809250508481840152506bffffffffffffffffffffffff83166040830152949350505050565b5f602082840312156124d2575f80fd5b81356124dd81612337565b8091505092915050565b5f602082019050821515825292915050565b5f60208201905073ffffffffffffffffffffffffffffffffffffffff8316825292915050565b5f60208201905073ffffffffffffffffffffffffffffffffffffffff8316825292915050565b5f60208201905073ffffffffffffffffffffffffffffffffffffffff8316825292915050565b5f60208201905073ffffffffffffffffffffffffffffffffffffffff8316825292915050565b5f60208201905065ffffffffffff8316825292915050565b5f602082840312156125b9575f80fd5b8135905092915050565b73ffffffffffffffffffffffffffffffffffffffff811682525050565b5f60408201905073ffffffffffffffffffffffffffffffffffffffff8416825282151560208301529392505050565b5f805f805f805f6080888a031215612625575f80fd5b873567ffffffffffffffff8082111561263c575f80fd5b6126488b838c016122a8565b92508099505081975060208a0135915080821115612664575f80fd5b6126708b838c016122a8565b92508097505081955060408a013591508082111561268c575f80fd5b506126998a828b016122f1565b9150809450508092505060608801356126b181612337565b8091505092959891949750929550565b5f6040820190508382526bffffffffffffffffffffffff831660208301529392505050565b5f60208201905073ffffffffffffffffffffffffffffffffffffffff8316825292915050565b5f805f805f805f805f60a08a8c031215612724575f80fd5b893567ffffffffffffffff8082111561273b575f80fd5b6127478d838e016122a8565b9250809b505081995060208c0135915080821115612763575f80fd5b61276f8d838e016122a8565b92508099505081975060408c013591508082111561278b575f80fd5b6127978d838e016122a8565b92508097505081955060608c01359150808211156127b3575f80fd5b506127c08c828d016122f1565b9150809450508092505060808a01356127d881612337565b809150509295985092959850929598565b7f4e487b71000000000000000000000000000000000000000000000000000000005f52602160045260245ffd5b7f4e487b71000000000000000000000000000000000000000000000000000000005f52603260045260245ffd5b5f82357fffffffffffffffffffffffffffffffffffffffffffffffffffffffffffffff61833603018112612875575f80fd5b80830191505092915050565b5f8135905060068110612892575f80fd5b919050565b5f602082840312156128a7575f80fd5b6128b082612881565b905092915050565b5f8083357fffffffffffffffffffffffffffffffffffffffffffffffffffffffffffffffe18436030181126128eb575f80fd5b8381019050803591506020810192505067ffffffffffffffff81111561290f575f80fd5b80360382131561291d575f80fd5b9250929050565b81835281816020850137505f602082840101525f60207fffffffffffffffffffffffffffffffffffffffffffffffffffffffffffffffe0601f840116840101905092915050565b5f8135905063ffffffff81168114612981575f80fd5b919050565b6bffffffffffffffffffffffff8116811461299f575f80fd5b50565b8183525f60208085019450848460051b8601845f805b88811015612ac9578484038a5282357fffffffffffffffffffffffffffffffffffffffffffffffffffffffffffffff418936030181126129f6578283fd5b888101905060c063ffffffff80612a0c8461296b565b16875288830135612a1c81612986565b6bffffffffffffffffffffffff81168a89015250604081612a3e82860161296b565b16818901525050606080830135612a5481612337565b73ffffffffffffffffffffffffffffffffffffffff81168289015250506080612a7e81840161235b565b612a8a828901826125c3565b505060a0612a9a818401846128b8565b93508282890152612aae8389018583612924565b9750505050508583019250858a0199506001810190506129b8565b5050508093505050509392505050565b8183525f60208085019450825f5b85811015612b155763ffffffff612afd8361296b565b16875282870196508282019150600181019050612ae7565b5050508390509392505050565b5f60a0808301818452808a825260c08501905060c08b60051b86010191508b5f5b8c811015612c68577fffffffffffffffffffffffffffffffffffffffffffffffffffffffffffffff4087850301835281357fffffffffffffffffffffffffffffffffffffffffffffffffffffffffffffff618f3603018112612ba3575f80fd5b8e810190508035612bb381612337565b73ffffffffffffffffffffffffffffffffffffffff81168652506020808201358187015260408083013581880152506060612bef818401612881565b60068110612c24577f4e487b71000000000000000000000000000000000000000000000000000000005f52602160045260245ffd5b808289015250506080612c39818401846128b8565b93508882890152612c4d8989018583612924565b97505050808401935080850194505050600181019050612b43565b5050508381036020850152612c7e81898b6129a2565b9150508281036040840152612c94818688612ad9565b9050612ca360608401856125c3565b8281036080840152612cb48161244b565b91505098975050505050505050565b7f4e487b71000000000000000000000000000000000000000000000000000000005f52604160045260245ffd5b5f604051905060e0810181811067ffffffffffffffff82111715612d1757612d16612cc3565b5b806040525090565b5f60405190507fffffffffffffffffffffffffffffffffffffffffffffffffffffffffffffffe0601f830116810181811067ffffffffffffffff82111715612d6a57612d69612cc3565b5b8060405250919050565b5f81519050612d8281612986565b919050565b5f8060408385031215612d98575f80fd5b825167ffffffffffffffff80821115612daf575f80fd5b818501915085601f830112612dc2575f80fd5b8151602082821115612dd757612dd6612cc3565b5b8160051b9250612de8818401612d1f565b8083825282820191508285870101945089851115612e04575f80fd5b82860195505b84861015612e25578551825282820191508286019550612e0a565b8097505050612e35818801612d74565b9450505050509250929050565b5f60208201905082825292915050565b5f5b83811015612e6f578082015181840152602081019050612e54565b505f83830152505050565b5f8251612e8b818460208701612e52565b80830191505092915050565b5f60408201905083825263ffffffff831660208301529392505050565b5f60208284031215612ec4575f80fd5b8151612ecf81612337565b8091505092915050565b5f60208201905063ffffffff8316825292915050565b5f8060408385031215612f00575f80fd5b82519150602083015190509250929050565b7f4e487b71000000000000000000000000000000000000000000000000000000005f52601260045260245ffd5b5f60408201905083825263ffffffff831660208301529392505050565b8183525f7f07ffffffffffffffffffffffffffffffffffffffffffffffffffffffffffffff831115612f8c575f80fd5b8260051b808360208701376020818601019150509392505050565b608081525f612fba608083018789612f5c565b8281036020840152612fcd818688612ad9565b905073ffffffffffffffffffffffffffffffffffffffff8416604084015282810360608401525f8152602081019150509695505050505050565b5f60208284031215613017575f80fd5b815161302281612986565b8091505092915050565b60a081525f61303f60a08301898b612f5c565b60208382038185015261305382898b612ad9565b9150838203604085015281868352818301905060058288821b850101895f5b8a811015613126577fffffffffffffffffffffffffffffffffffffffffffffffffffffffffffffffe087840301855281357fffffffffffffffffffffffffffffffffffffffffffffffffffffffffffffffe18d36030181126130d2575f80fd5b8c810190508035878201915067ffffffffffffffff8111156130f2575f80fd5b80861b3603821315613102575f80fd5b61310d858284612f5c565b9450505085820191508585019450600181019050613072565b505061313560608801896125c3565b86810360808801526131468161244b565b9550505050505098975050505050505050565b5f8085851115613167575f80fd5b83861115613173575f80fd5b8483019150848603905094509492505050565b5f82601f830112613195575f80fd5b813567ffffffffffffffff8111156131b0576131af612cc3565b5b6131e160207fffffffffffffffffffffffffffffffffffffffffffffffffffffffffffffffe0601f84011601612d1f565b8181528460208386010111156131f5575f80fd5b816020850160208301375f60208383010152809250505092915050565b5f805f838503610120811215613226575f80fd5b843561323181612337565b8094505060e07fffffffffffffffffffffffffffffffffffffffffffffffffffffffffffffffe082011215613264575f80fd5b5061326d612cf0565b602085013561327b81612337565b80825250604085013561328d81612337565b8060208301525060608501356132a281612337565b8060408301525060808501356132b781612337565b8060608301525060a0850135608082015260c085013560a082015260e085013560c08201528092505061010084013567ffffffffffffffff8111156132fa575f80fd5b61330686828701613186565b9150509250925092565b5f81357fffffffff00000000000000000000000000000000000000000000000000000000808216925060048510156133525780818660040360031b1b83161692505b505092915050565b818382375f8282015f8152809150509392505050565b5f60608201905073ffffffffffffffffffffffffffffffffffffffff8086168352808516602084015250826040830152949350505050565b5f60408201905073ffffffffffffffffffffffffffffffffffffffff80851683528084166020840152509392505050565b5f602082840312156133e9575f80fd5b8151905092915050565b5f82820190508082111561342e577f4e487b71000000000000000000000000000000000000000000000000000000005f52601160045260245ffd5b92915050565b5f60408201905073ffffffffffffffffffffffffffffffffffffffff841682528260208301529392505050565b5f60208284031215613471575f80fd5b81518015158114613480575f80fd5b8091505092915050565b60208152602a60208201527f5361666545524332303a204552433230206f7065726174696f6e20646964206e60408201527f6f7420737563636565640000000000000000000000000000000000000000000060608201525f608082019050919050565b60208152602660208201527f416464726573733a20696e73756666696369656e742062616c616e636520666f60408201527f722063616c6c000000000000000000000000000000000000000000000000000060608201525f608082019050919050565b60208152601d60208201527f416464726573733a2063616c6c20746f206e6f6e2d636f6e747261637400000060408201525f606082019050919050565b602081525f82518060208401526135ab816040850160208701612e52565b60407fffffffffffffffffffffffffffffffffffffffffffffffffffffffffffffffe0601f8301168401019150509291505056fea2646970667358221220a1040385dfff07bdf14c3ca00882c0a76cf694f7a7b80c628dbbcf46aaca1e0164736f6c63430008150033",
  "linkReferences": {},
  "deployedLinkReferences": {}
}