{
  "_format": "hh-sol-artifact-1",
  "contractName": "EeseeDropsReentrancy",
  "sourceName": "contracts/test/EeseeDropsReentrancy.sol",
  "abi": [
    {
      "inputs": [
        {
          "internalType": "contract IEeseeDrops",
          "name": "_drops",
          "type": "address"
        }
      ],
      "stateMutability": "nonpayable",
      "type": "constructor"
    },
    {
      "inputs": [],
      "name": "drops",
      "outputs": [
        {
          "internalType": "contract IEeseeDrops",
          "name": "",
          "type": "address"
        }
      ],
      "stateMutability": "view",
      "type": "function"
    },
    {
      "inputs": [
        {
          "internalType": "address",
          "name": "",
          "type": "address"
        },
        {
          "internalType": "address",
          "name": "",
          "type": "address"
        },
        {
          "internalType": "uint256",
          "name": "",
          "type": "uint256"
        },
        {
          "internalType": "bytes",
          "name": "",
          "type": "bytes"
        }
      ],
      "name": "onERC721Received",
      "outputs": [
        {
          "internalType": "bytes4",
          "name": "",
          "type": "bytes4"
        }
      ],
      "stateMutability": "nonpayable",
      "type": "function"
    }
  ],
  "bytecode": "0x608060405234801561000f575f80fd5b5060405161068538038061068583398181016040528101906100319190610076565b805f806101000a81548173ffffffffffffffffffffffffffffffffffffffff021916908373ffffffffffffffffffffffffffffffffffffffff160217905550506100a5565b5f60208284031215610086575f80fd5b815160018060a01b038116811461009b575f80fd5b8091505092915050565b6105d3806100b25f395ff3fe608060405234801561000f575f80fd5b5060043610610034575f3560e01c80630674160a14610038578063150b7a0214610056575b5f80fd5b610040610086565b60405161004d9190610247565b60405180910390f35b610070600480360381019061006b91906102c5565b6100a9565b60405161007d91906103bb565b60405180910390f35b5f8054906101000a900473ffffffffffffffffffffffffffffffffffffffff1681565b5f805f67ffffffffffffffff8111156100c5576100c4610298565b5b6040519080825280602002602001820160405280156100f35781602001602082028036833780820191505090505b5090505f8067ffffffffffffffff81111561011157610110610298565b5b60405190808252806020026020018201604052801561013f5781602001602082028036833780820191505090505b5090505f8067ffffffffffffffff81111561015d5761015c610298565b5b60405190808252806020026020018201604052801561019057816020015b606081526020019060019003908161017b5790505b5090505f8054906101000a900473ffffffffffffffffffffffffffffffffffffffff1673ffffffffffffffffffffffffffffffffffffffff166342fbeae08484845f6040518563ffffffff1660e01b81526004016101f194939291906104a4565b6020604051808303815f875af115801561020d573d5f803e3d5ffd5b505050506040513d601f19601f820116820180604052508101906102319190610568565b5063150b7a0260e01b9350505050949350505050565b5f60208201905073ffffffffffffffffffffffffffffffffffffffff8316825292915050565b5f8135905073ffffffffffffffffffffffffffffffffffffffff81168114610293575f80fd5b919050565b7f4e487b71000000000000000000000000000000000000000000000000000000005f52604160045260245ffd5b5f805f80608085870312156102d8575f80fd5b6102e18561026d565b93506102ef6020860161026d565b925060408501359150606085013567ffffffffffffffff80821115610312575f80fd5b818701915087601f830112610325575f80fd5b81358181111561033857610337610298565b5b7fffffffffffffffffffffffffffffffffffffffffffffffffffffffffffffffe060405181603f83601f86011601168101915080821084831117156103805761037f610298565b5b816040528281528a6020848701011115610398575f80fd5b826020860160208301375f60208483010152809550505050505092959194509250565b5f6020820190507fffffffff000000000000000000000000000000000000000000000000000000008316825292915050565b5f81525f602082019050919050565b5f81518084526020808501808196508360051b810191508286015f805b86811015610477578385038a52825185815180885288880191508883019250845b8181101561045b57835183528983019250898401935060018101905061043a565b505080965050508583019250858a019950600181019050610419565b5050505080935050505092915050565b73ffffffffffffffffffffffffffffffffffffffff811682525050565b5f60a0820160a0835280875180835260c085019150602092508289015f5b828110156104e35781518452848401935084820191506001810190506104c2565b50505083810382850152808751808352838301915083890192505f5b818110156105265763ffffffff8451168352848301925084840193506001810190506104ff565b5050848103604086015261053a81886103fc565b9250505061054b6060840185610487565b828103608084015261055c816103ed565b91505095945050505050565b5f60208284031215610578575f80fd5b81516bffffffffffffffffffffffff81168114610593575f80fd5b809150509291505056fea26469706673582212200a998efee6999e9794597766a7d07606cb5ae34078ed228d247d837f7fab071d64736f6c63430008150033",
  "linkReferences": {},
  "deployedLinkReferences": {}
}