{
  "_format": "hh-sol-artifact-1",
  "contractName": "MockRoyaltyEngine",
  "sourceName": "contracts/test/MockRoyaltyEngine.sol",
  "abi": [
    {
      "inputs": [
        {
          "internalType": "address",
          "name": "tokenAddress",
          "type": "address"
        },
        {
          "internalType": "uint256",
          "name": "tokenId",
          "type": "uint256"
        },
        {
          "internalType": "uint256",
          "name": "value",
          "type": "uint256"
        }
      ],
      "name": "getRoyalty",
      "outputs": [
        {
          "internalType": "address payable[]",
          "name": "recipients",
          "type": "address[]"
        },
        {
          "internalType": "uint256[]",
          "name": "amounts",
          "type": "uint256[]"
        }
      ],
      "stateMutability": "view",
      "type": "function"
    }
  ],
  "bytecode": "0x608060405234801561000f575f80fd5b506103c08061001d5f395ff3fe608060405234801561000f575f80fd5b5060043610610029575f3560e01c8063f533b8021461002d575b5f80fd5b61004760048036038101906100429190610214565b61005e565b60405161005592919061024a565b60405180910390f35b606080600167ffffffffffffffff81111561007c5761007b6102eb565b5b6040519080825280602002602001820160405280156100aa5781602001602082028036833780820191505090505b509150600167ffffffffffffffff8111156100c8576100c76102eb565b5b6040519080825280602002602001820160405280156100f65781602001602082028036833780820191505090505b5090505f808673ffffffffffffffffffffffffffffffffffffffff16632a55205a87876040518363ffffffff1660e01b8152600401610136929190610318565b6040805180830381865afa158015610150573d5f803e3d5ffd5b505050506040513d601f19601f82011682018060405250810190610174919061032f565b9150915081845f8151811061018c5761018b61035d565b5b602002602001019073ffffffffffffffffffffffffffffffffffffffff16908173ffffffffffffffffffffffffffffffffffffffff168152505080835f815181106101da576101d961035d565b5b6020026020010181815250505050935093915050565b73ffffffffffffffffffffffffffffffffffffffff81168114610211575f80fd5b50565b5f805f60608486031215610226575f80fd5b8335610231816101f0565b8093505060208401359150604084013590509250925092565b5f6040820160408352808551808352606085019150602092508287015f5b8281101561029f5773ffffffffffffffffffffffffffffffffffffffff825116845284840193508482019150600181019050610268565b50505083810382850152808551808352838301915083870192505f5b818110156102dc5783518352848301925084840193506001810190506102bb565b50508093505050509392505050565b7f4e487b71000000000000000000000000000000000000000000000000000000005f52604160045260245ffd5b5f6040820190508382528260208301529392505050565b5f8060408385031215610340575f80fd5b825161034b816101f0565b80925050602083015190509250929050565b7f4e487b71000000000000000000000000000000000000000000000000000000005f52603260045260245ffdfea2646970667358221220cfe675f20e3a6a211e344645f986e947d9a8dede83b92948840cae989bd856c564736f6c63430008150033",
  "linkReferences": {},
  "deployedLinkReferences": {}
}