{
  "_format": "hh-sol-artifact-1",
  "contractName": "Mock1InchExecutor",
  "sourceName": "contracts/test/Mock1InchExecutor.sol",
  "abi": [
    {
      "inputs": [
        {
          "internalType": "contract IERC20",
          "name": "_ESE",
          "type": "address"
        }
      ],
      "stateMutability": "nonpayable",
      "type": "constructor"
    },
    {
      "inputs": [
        {
          "internalType": "address",
          "name": "msgSender",
          "type": "address"
        },
        {
          "internalType": "bytes",
          "name": "data",
          "type": "bytes"
        },
        {
          "internalType": "uint256",
          "name": "amount",
          "type": "uint256"
        }
      ],
      "name": "execute",
      "outputs": [],
      "stateMutability": "payable",
      "type": "function"
    }
  ],
  "bytecode": "0x60a060405234801561000f575f80fd5b5060405161063e38038061063e8339818101604052810190610031919061006b565b8073ffffffffffffffffffffffffffffffffffffffff1660808173ffffffffffffffffffffffffffffffffffffffff16815250505061009a565b5f6020828403121561007b575f80fd5b815160018060a01b0381168114610090575f80fd5b8091505092915050565b6080516105866100b85f395f818160b5015261020301526105865ff3fe60806040526004361061001d575f3560e01c8063a04a090814610021575b5f80fd5b61003b6004803603810190610036919061030d565b61003d565b005b5f34111561016d575f3373ffffffffffffffffffffffffffffffffffffffff16600a6113889060405161006f906103f6565b5f60405180830381858888f193505050503d805f81146100aa576040519150601f19603f3d011682016040523d82523d5f602084013e6100af565b606091505b505090507f000000000000000000000000000000000000000000000000000000000000000073ffffffffffffffffffffffffffffffffffffffff1663a9059cbb336002600a346100ff919061042c565b6101099190610449565b6040518363ffffffff1660e01b815260040161012692919061046a565b6020604051808303815f875af1158015610142573d5f803e3d5ffd5b505050506040513d601f19601f820116820180604052508101906101669190610497565b50506102b7565b5f8280602001905181019061018291906104c0565b90508073ffffffffffffffffffffffffffffffffffffffff1663a9059cbb33600a6040518363ffffffff1660e01b81526004016101c09291906104e5565b6020604051808303815f875af11580156101dc573d5f803e3d5ffd5b505050506040513d601f19601f820116820180604052508101906102009190610497565b507f000000000000000000000000000000000000000000000000000000000000000073ffffffffffffffffffffffffffffffffffffffff1663a9059cbb336002600a8661024d919061042c565b6102579190610512565b6040518363ffffffff1660e01b815260040161027492919061046a565b6020604051808303815f875af1158015610290573d5f803e3d5ffd5b505050506040513d601f19601f820116820180604052508101906102b49190610497565b50505b505050565b73ffffffffffffffffffffffffffffffffffffffff811681146102dd575f80fd5b50565b7f4e487b71000000000000000000000000000000000000000000000000000000005f52604160045260245ffd5b5f805f6060848603121561031f575f80fd5b833561032a816102bc565b80935050602084013567ffffffffffffffff80821115610348575f80fd5b818601915086601f83011261035b575f80fd5b81358181111561036e5761036d6102e0565b5b7fffffffffffffffffffffffffffffffffffffffffffffffffffffffffffffffe060405181603f83601f86011601168101915080821084831117156103b6576103b56102e0565b5b816040528281528960208487010111156103ce575f80fd5b826020860160208301375f602084830101528096505050505050604084013590509250925092565b5f819050919050565b7f4e487b71000000000000000000000000000000000000000000000000000000005f52601160045260245ffd5b5f828203905081811115610443576104426103ff565b5b92915050565b5f82820290508181048314821517610464576104636103ff565b5b92915050565b5f60408201905073ffffffffffffffffffffffffffffffffffffffff841682528260208301529392505050565b5f602082840312156104a7575f80fd5b815180151581146104b6575f80fd5b8091505092915050565b5f602082840312156104d0575f80fd5b81516104db816102bc565b8091505092915050565b5f60408201905073ffffffffffffffffffffffffffffffffffffffff841682528260208301529392505050565b5f82610545577f4e487b71000000000000000000000000000000000000000000000000000000005f52601260045260245ffd5b82820490509291505056fea2646970667358221220ea16d382049b84036276fd79f652f87c82a155bf7668472ae7029d4974823edf64736f6c63430008150033",
  "linkReferences": {},
  "deployedLinkReferences": {}
}