{
  "_format": "hh-sol-artifact-1",
  "contractName": "EeseeStaking",
  "sourceName": "contracts/rewards/EeseeStaking.sol",
  "abi": [
    {
      "inputs": [
        {
          "internalType": "address",
          "name": "_ESE",
          "type": "address"
        },
        {
          "components": [
            {
              "internalType": "uint256",
              "name": "volumeBreakpoint",
              "type": "uint256"
            },
            {
              "internalType": "uint64",
              "name": "rewardRateFlexible",
              "type": "uint64"
            },
            {
              "internalType": "uint64",
              "name": "rewardRateLocked",
              "type": "uint64"
            }
          ],
          "internalType": "struct IEeseeStaking._TierData[]",
          "name": "_tierData",
          "type": "tuple[]"
        },
        {
          "internalType": "contract IEeseeAccessManager",
          "name": "_accessManager",
          "type": "address"
        },
        {
          "internalType": "address",
          "name": "trustedForwarder",
          "type": "address"
        }
      ],
      "stateMutability": "nonpayable",
      "type": "constructor"
    },
    {
      "inputs": [],
      "name": "AlreadyGranted",
      "type": "error"
    },
    {
      "inputs": [],
      "name": "CallerNotAuthorized",
      "type": "error"
    },
    {
      "inputs": [],
      "name": "CallerNotVolumeUpdater",
      "type": "error"
    },
    {
      "inputs": [],
      "name": "InsufficientStake",
      "type": "error"
    },
    {
      "inputs": [],
      "name": "InvalidBreakpoint",
      "type": "error"
    },
    {
      "inputs": [],
      "name": "InvalidConstructor",
      "type": "error"
    },
    {
      "inputs": [],
      "name": "InvalidDuration",
      "type": "error"
    },
    {
      "inputs": [],
      "name": "InvalidRecipient",
      "type": "error"
    },
    {
      "inputs": [],
      "name": "InvalidRewardID",
      "type": "error"
    },
    {
      "inputs": [],
      "name": "InvalidRewardRate",
      "type": "error"
    },
    {
      "inputs": [],
      "name": "InvalidTiersLength",
      "type": "error"
    },
    {
      "inputs": [],
      "name": "VolumeUpdaterNotGranted",
      "type": "error"
    },
    {
      "inputs": [],
      "name": "WithdrawalNotAvailable",
      "type": "error"
    },
    {
      "anonymous": false,
      "inputs": [
        {
          "indexed": true,
          "internalType": "address",
          "name": "volumeUpdater",
          "type": "address"
        },
        {
          "indexed": true,
          "internalType": "address",
          "name": "user",
          "type": "address"
        },
        {
          "indexed": false,
          "internalType": "uint96",
          "name": "amount",
          "type": "uint96"
        }
      ],
      "name": "AddVolume",
      "type": "event"
    },
    {
      "anonymous": false,
      "inputs": [
        {
          "indexed": true,
          "internalType": "uint32",
          "name": "previousDuration",
          "type": "uint32"
        },
        {
          "indexed": true,
          "internalType": "uint32",
          "name": "newDuration",
          "type": "uint32"
        }
      ],
      "name": "ChangeDuration",
      "type": "event"
    },
    {
      "anonymous": false,
      "inputs": [
        {
          "indexed": true,
          "internalType": "address",
          "name": "user",
          "type": "address"
        },
        {
          "indexed": false,
          "internalType": "uint96",
          "name": "amount",
          "type": "uint96"
        }
      ],
      "name": "DepositFlexible",
      "type": "event"
    },
    {
      "anonymous": false,
      "inputs": [
        {
          "indexed": true,
          "internalType": "address",
          "name": "user",
          "type": "address"
        },
        {
          "indexed": false,
          "internalType": "uint96",
          "name": "amount",
          "type": "uint96"
        },
        {
          "indexed": false,
          "internalType": "uint32",
          "name": "unlockTime",
          "type": "uint32"
        }
      ],
      "name": "DepositLocked",
      "type": "event"
    },
    {
      "anonymous": false,
      "inputs": [
        {
          "indexed": true,
          "internalType": "address",
          "name": "account",
          "type": "address"
        }
      ],
      "name": "GrantVolumeUpdater",
      "type": "event"
    },
    {
      "anonymous": false,
      "inputs": [
        {
          "indexed": true,
          "internalType": "address",
          "name": "account",
          "type": "address"
        }
      ],
      "name": "RevokeVolumeUpdater",
      "type": "event"
    },
    {
      "anonymous": false,
      "inputs": [
        {
          "indexed": false,
          "internalType": "uint64[]",
          "name": "rewardRatesFlexible",
          "type": "uint64[]"
        },
        {
          "indexed": false,
          "internalType": "uint64[]",
          "name": "rewardRatesLocked",
          "type": "uint64[]"
        }
      ],
      "name": "UpdateRewardRates",
      "type": "event"
    },
    {
      "anonymous": false,
      "inputs": [
        {
          "indexed": true,
          "internalType": "address",
          "name": "sender",
          "type": "address"
        },
        {
          "indexed": true,
          "internalType": "address",
          "name": "recipient",
          "type": "address"
        },
        {
          "indexed": false,
          "internalType": "uint96",
          "name": "amount",
          "type": "uint96"
        }
      ],
      "name": "WithdrawFlexible",
      "type": "event"
    },
    {
      "anonymous": false,
      "inputs": [
        {
          "indexed": true,
          "internalType": "address",
          "name": "sender",
          "type": "address"
        },
        {
          "indexed": true,
          "internalType": "address",
          "name": "recipient",
          "type": "address"
        },
        {
          "indexed": false,
          "internalType": "uint96",
          "name": "amount",
          "type": "uint96"
        }
      ],
      "name": "WithdrawLocked",
      "type": "event"
    },
    {
      "inputs": [],
      "name": "ADMIN_ROLE",
      "outputs": [
        {
          "internalType": "bytes32",
          "name": "",
          "type": "bytes32"
        }
      ],
      "stateMutability": "view",
      "type": "function"
    },
    {
      "inputs": [],
      "name": "ESE",
      "outputs": [
        {
          "internalType": "contract IERC20",
          "name": "",
          "type": "address"
        }
      ],
      "stateMutability": "view",
      "type": "function"
    },
    {
      "inputs": [],
      "name": "accessManager",
      "outputs": [
        {
          "internalType": "contract IEeseeAccessManager",
          "name": "",
          "type": "address"
        }
      ],
      "stateMutability": "view",
      "type": "function"
    },
    {
      "inputs": [
        {
          "internalType": "uint96",
          "name": "_volume",
          "type": "uint96"
        },
        {
          "internalType": "address",
          "name": "_address",
          "type": "address"
        }
      ],
      "name": "addVolume",
      "outputs": [],
      "stateMutability": "nonpayable",
      "type": "function"
    },
    {
      "inputs": [
        {
          "internalType": "uint32",
          "name": "_duration",
          "type": "uint32"
        }
      ],
      "name": "changeDuration",
      "outputs": [],
      "stateMutability": "nonpayable",
      "type": "function"
    },
    {
      "inputs": [
        {
          "internalType": "uint96",
          "name": "amount",
          "type": "uint96"
        },
        {
          "internalType": "uint32",
          "name": "lockDuration",
          "type": "uint32"
        },
        {
          "internalType": "uint32",
          "name": "expectedRewardID",
          "type": "uint32"
        },
        {
          "internalType": "bytes",
          "name": "permit",
          "type": "bytes"
        }
      ],
      "name": "deposit",
      "outputs": [],
      "stateMutability": "nonpayable",
      "type": "function"
    },
    {
      "inputs": [],
      "name": "duration",
      "outputs": [
        {
          "internalType": "uint32",
          "name": "",
          "type": "uint32"
        }
      ],
      "stateMutability": "view",
      "type": "function"
    },
    {
      "inputs": [],
      "name": "getTrustedForwarder",
      "outputs": [
        {
          "internalType": "address",
          "name": "forwarder",
          "type": "address"
        }
      ],
      "stateMutability": "view",
      "type": "function"
    },
    {
      "inputs": [
        {
          "internalType": "address",
          "name": "_address",
          "type": "address"
        }
      ],
      "name": "grantVolumeUpdater",
      "outputs": [],
      "stateMutability": "nonpayable",
      "type": "function"
    },
    {
      "inputs": [
        {
          "internalType": "address",
          "name": "forwarder",
          "type": "address"
        }
      ],
      "name": "isTrustedForwarder",
      "outputs": [
        {
          "internalType": "bool",
          "name": "",
          "type": "bool"
        }
      ],
      "stateMutability": "view",
      "type": "function"
    },
    {
      "inputs": [
        {
          "internalType": "bool",
          "name": "isLocked",
          "type": "bool"
        },
        {
          "internalType": "address",
          "name": "_user",
          "type": "address"
        }
      ],
      "name": "pendingReward",
      "outputs": [
        {
          "internalType": "uint96",
          "name": "",
          "type": "uint96"
        }
      ],
      "stateMutability": "view",
      "type": "function"
    },
    {
      "inputs": [
        {
          "internalType": "address",
          "name": "_address",
          "type": "address"
        }
      ],
      "name": "revokeVolumeUpdater",
      "outputs": [],
      "stateMutability": "nonpayable",
      "type": "function"
    },
    {
      "inputs": [],
      "name": "rewardID",
      "outputs": [
        {
          "internalType": "uint32",
          "name": "",
          "type": "uint32"
        }
      ],
      "stateMutability": "view",
      "type": "function"
    },
    {
      "inputs": [
        {
          "internalType": "uint256",
          "name": "_volume",
          "type": "uint256"
        }
      ],
      "name": "tier",
      "outputs": [
        {
          "internalType": "uint256",
          "name": "",
          "type": "uint256"
        }
      ],
      "stateMutability": "view",
      "type": "function"
    },
    {
      "inputs": [
        {
          "internalType": "uint256",
          "name": "_tier",
          "type": "uint256"
        }
      ],
      "name": "tierInfo",
      "outputs": [
        {
          "components": [
            {
              "internalType": "uint256",
              "name": "volumeBreakpoint",
              "type": "uint256"
            },
            {
              "internalType": "uint64",
              "name": "rewardRateFlexible",
              "type": "uint64"
            },
            {
              "internalType": "uint64",
              "name": "rewardRateLocked",
              "type": "uint64"
            }
          ],
          "internalType": "struct IEeseeStaking._TierData",
          "name": "_tierData",
          "type": "tuple"
        }
      ],
      "stateMutability": "view",
      "type": "function"
    },
    {
      "inputs": [],
      "name": "totalDeposits",
      "outputs": [
        {
          "internalType": "uint96",
          "name": "",
          "type": "uint96"
        }
      ],
      "stateMutability": "view",
      "type": "function"
    },
    {
      "inputs": [
        {
          "internalType": "uint64[]",
          "name": "rewardRatesFlexible",
          "type": "uint64[]"
        },
        {
          "internalType": "uint64[]",
          "name": "rewardRatesLocked",
          "type": "uint64[]"
        }
      ],
      "name": "updateRewardRates",
      "outputs": [],
      "stateMutability": "nonpayable",
      "type": "function"
    },
    {
      "inputs": [
        {
          "internalType": "bool",
          "name": "",
          "type": "bool"
        },
        {
          "internalType": "address",
          "name": "",
          "type": "address"
        }
      ],
      "name": "userInfo",
      "outputs": [
        {
          "internalType": "uint96",
          "name": "amount",
          "type": "uint96"
        },
        {
          "internalType": "uint96",
          "name": "reward",
          "type": "uint96"
        },
        {
          "internalType": "uint32",
          "name": "unlockTime",
          "type": "uint32"
        },
        {
          "internalType": "uint32",
          "name": "rewardID",
          "type": "uint32"
        },
        {
          "internalType": "uint256",
          "name": "rewardDebt",
          "type": "uint256"
        }
      ],
      "stateMutability": "view",
      "type": "function"
    },
    {
      "inputs": [
        {
          "internalType": "address",
          "name": "",
          "type": "address"
        }
      ],
      "name": "volume",
      "outputs": [
        {
          "internalType": "uint256",
          "name": "",
          "type": "uint256"
        }
      ],
      "stateMutability": "view",
      "type": "function"
    },
    {
      "inputs": [
        {
          "internalType": "address",
          "name": "",
          "type": "address"
        }
      ],
      "name": "volumeUpdaters",
      "outputs": [
        {
          "internalType": "bool",
          "name": "",
          "type": "bool"
        }
      ],
      "stateMutability": "view",
      "type": "function"
    },
    {
      "inputs": [
        {
          "internalType": "bool",
          "name": "isLocked",
          "type": "bool"
        },
        {
          "internalType": "uint96",
          "name": "amount",
          "type": "uint96"
        },
        {
          "internalType": "address",
          "name": "recipient",
          "type": "address"
        }
      ],
      "name": "withdraw",
      "outputs": [
        {
          "internalType": "uint96",
          "name": "ESEReceived",
          "type": "uint96"
        }
      ],
      "stateMutability": "nonpayable",
      "type": "function"
    }
  ],
  "bytecode": "0x60e06040526276a7006007600c6101000a81548163ffffffff021916908363ffffffff16021790555034801562000034575f80fd5b5060405162005a3538038062005a3583398181016040528101906200005a919062000ae0565b6200007667e734c1c1631251d460c01b6200099960201b60201c565b620000926785b4a7d43692c1b860c01b6200099960201b60201c565b620000ae67ee36e9e8f49f37ec60c01b6200099960201b60201c565b5f73ffffffffffffffffffffffffffffffffffffffff168473ffffffffffffffffffffffffffffffffffffffff161480156200010257506200010167fc9de0122e126b2360c01b6200099c60201b60201c565b5b806200015e57505f73ffffffffffffffffffffffffffffffffffffffff168273ffffffffffffffffffffffffffffffffffffffff161480156200015d57506200015c679e98e56e257225e160c01b6200099c60201b60201c565b5b5b15620001b25762000180678e42707c912e23b460c01b6200099960201b60201c565b6040517f12c1701b00000000000000000000000000000000000000000000000000000000815260040160405180910390fd5b620001ce67c3c98bd819f000cd60c01b6200099960201b60201c565b620001ea672e98be2ef4e8ce1d60c01b6200099960201b60201c565b620002066712efc42e69082c6060c01b6200099960201b60201c565b5f83511480156200022f57506200022e678164bd6cbdb9e1f160c01b6200099c60201b60201c565b5b80620002615750600a83511180156200026057506200025f679b844ca74dfae37860c01b6200099c60201b60201c565b5b5b15620002b557620002836788bf88c882e9c11a60c01b6200099960201b60201c565b6040517f171f015100000000000000000000000000000000000000000000000000000000815260040160405180910390fd5b620002d167b2bfa175ee9c0c0f60c01b6200099960201b60201c565b620002ed67c31e1eef7d10631460c01b6200099960201b60201c565b6200030967d3b700194826cd1160c01b6200099960201b60201c565b5f5b835181101562000812576200033167dada54a3a64c51af60c01b6200099960201b60201c565b6200034d67e7299fe21561073f60c01b6200099960201b60201c565b5f84828151811062000364576200036362000c13565b5b602002602001015190506200038a67a7b063cc4a1755f060c01b6200099960201b60201c565b620003a667cfd4f4790e3d779560c01b6200099960201b60201c565b5f82146200069057620003ca67e0cc379e44ba62f860c01b6200099960201b60201c565b620003e667bfe2492a6893ad2560c01b6200099960201b60201c565b62000402670f2ecf52b09118d660c01b6200099960201b60201c565b6200040c620009e8565b62000428670fa0a59904cde6c460c01b6200099960201b60201c565b85600184038151811062000441576200044062000c13565b5b602002602001015190506200046767cdd83aac4f53846e60c01b6200099960201b60201c565b62000483673a8af034dba5d1a360c01b6200099960201b60201c565b815f0151815f015110620004df57620004ad67b9880ea79b8b83a960c01b6200099960201b60201c565b6040517f09ebd95400000000000000000000000000000000000000000000000000000000815260040160405180910390fd5b620004fb678c6001b9714124ae60c01b6200099960201b60201c565b620005176701c3b5a56b6951a660c01b6200099960201b60201c565b6200053367102c67cc7cb25b1a60c01b6200099960201b60201c565b816020015167ffffffffffffffff16816020015167ffffffffffffffff161115620005a6576200057467fdd0d4bfa500396e60c01b6200099960201b60201c565b6040517f22be228400000000000000000000000000000000000000000000000000000000815260040160405180910390fd5b620005c267c8732e69bca966b560c01b6200099960201b60201c565b620005de67fafaf4a96488ec2e60c01b6200099960201b60201c565b620005fa67dd95e986dbb10b1f60c01b6200099960201b60201c565b816040015167ffffffffffffffff16816040015167ffffffffffffffff1611156200066d576200063b6701f48915b747daed60c01b6200099960201b60201c565b6040517f22be228400000000000000000000000000000000000000000000000000000000815260040160405180910390fd5b6200068967ad596ed0ca9eb27860c01b6200099960201b60201c565b50620006ad565b620006ac675023d52ad6e5d3be60c01b6200099960201b60201c565b5b620006c96741a9279813a85c1b60c01b6200099960201b60201c565b620006e567661130cc86115b9f60c01b6200099960201b60201c565b5f600260018160018154018082558091505003905f5260205f209060020201905062000722677df80c8ade59a50d60c01b6200099960201b60201c565b815f0151815f01819055506200074967d3e6d1e5845ac55460c01b6200099960201b60201c565b8160200151816001015f801515151581526020019081526020015f205f6101000a81548167ffffffffffffffff021916908367ffffffffffffffff160217905550620007a667d1bb5d6587c0e48360c01b6200099960201b60201c565b8160400151816001015f60011515151581526020019081526020015f205f6101000a81548167ffffffffffffffff021916908367ffffffffffffffff1602179055506200080467831353f11e3557d460c01b6200099960201b60201c565b82600101925050506200030b565b506200082f672f59f151339b7b8d60c01b6200099960201b60201c565b8373ffffffffffffffffffffffffffffffffffffffff1660808173ffffffffffffffffffffffffffffffffffffffff16815250506200087f6749075f3e20a1360a60c01b6200099960201b60201c565b8173ffffffffffffffffffffffffffffffffffffffff1660a08173ffffffffffffffffffffffffffffffffffffffff1681525050620008cf67b5ee5bef9be8920060c01b6200099960201b60201c565b8173ffffffffffffffffffffffffffffffffffffffff166375b238fc6040518163ffffffff1660e01b8152600401602060405180830381865afa15801562000919573d5f803e3d5ffd5b505050506040513d601f19601f820116820180604052508101906200093f919062000c27565b60c081815250506200096267838df511fc2ab99b60c01b6200099960201b60201c565b6200097e67c3298f251afd125a60c01b6200099960201b60201c565b6200098f81620009a660201b60201c565b5050505062000c42565b50565b5f60019050919050565b805f806101000a81548173ffffffffffffffffffffffffffffffffffffffff021916908373ffffffffffffffffffffffffffffffffffffffff16021790555050565b60405180606001604052805f81526020015f67ffffffffffffffff1681526020015f67ffffffffffffffff1681525090565b60018060a01b038116811462000a2e575f80fd5b50565b5f8151905062000a418162000a1a565b919050565b634e487b7160e01b5f52604160045260245ffd5b5f60405190506060810181811060018060401b038211171562000a825762000a8162000a46565b5b806040525090565b5f6040519050601f19601f830116810181811060018060401b038211171562000ab85762000ab762000a46565b5b8060405250919050565b5f8151905060018060401b038116811462000adb575f80fd5b919050565b5f805f806080858703121562000af4575f80fd5b845162000b018162000a1a565b8094505060208086015160018060401b038082111562000b1f575f80fd5b818801915088601f83011262000b33575f80fd5b81518181111562000b495762000b4862000a46565b5b62000b59848260051b0162000a8a565b915081818352848301925060608581840286010192508b83111562000b7c575f80fd5b85850194505b8285101562000be25780858d03121562000b9b575f8081fd5b62000ba562000a5a565b8551815262000bb687870162000ac2565b87820152604062000bc981880162000ac2565b8183015250808552508584019350808501945062000b82565b81985062000bf360408c0162000a31565b975062000c02818c0162000a31565b965050505050505092959194509250565b634e487b7160e01b5f52603260045260245ffd5b5f6020828403121562000c38575f80fd5b8151905092915050565b60805160a05160c051614d7462000cc15f395f8181610ea6015281816120980152818161216c0152818161267b0152612a0801525f8181610e6a015281816121300152818161263f015281816129cc015261331901525f818161164901528181611b3b015281816120bc015281816139140152613c840152614d745ff3fe608060405234801561000f575f80fd5b5060043610610175575f3560e01c8063764bd0c5116100d6578063a83f58901161008a578063e77abc2e11610064578063e77abc2e1461040d578063fdcb606814610429578063ffc84f491461044757610175565b8063a83f5890146103a3578063adeabba9146103bf578063ce1b815f146103ef57610175565b80637d882097116100bb5780637d8820971461032557806393d3e57b14610343578063a267c2c41461037357610175565b8063764bd0c5146102eb5780637a2427f11461030957610175565b8063586d533c1161012d5780636c62ea83116101125780636c62ea831461027f5780636dda34db1461029d57806375b238fc146102cd57610175565b8063586d533c1461023357806359adec041461026357610175565b8063443a73971161015e578063443a7397146101b35780635639fd47146101cf578063572b6c051461020357610175565b80630fb5a6b4146101795780633f50adf114610197575b5f80fd5b610181610477565b60405161018e91906144be565b60405180910390f35b6101b160048036038101906101ac9190614522565b61048d565b005b6101cd60048036038101906101c89190614553565b610e18565b005b6101e960048036038101906101e49190614584565b61116a565b6040516101fa9594939291906145b9565b60405180910390f35b61021d60048036038101906102189190614553565b6111f3565b60405161022a9190614601565b60405180910390f35b61024d60048036038101906102489190614584565b61124a565b60405161025a9190614613565b60405180910390f35b61027d6004803603810190610278919061464c565b611517565b005b610287611f07565b60405161029491906144be565b60405180910390f35b6102b760048036038101906102b291906146e9565b611f1d565b6040516102c49190614703565b60405180910390f35b6102d5612096565b6040516102e29190614713565b60405180910390f35b6102f36120ba565b6040516103009190614723565b60405180910390f35b610323600480360381019061031e9190614749565b6120de565b005b61032d612458565b60405161033a9190614613565b60405180910390f35b61035d60048036038101906103589190614553565b612475565b60405161036a9190614601565b60405180910390f35b61038d600480360381019061038891906146e9565b612492565b60405161039a919061476a565b60405180910390f35b6103bd60048036038101906103b89190614553565b6125ed565b005b6103d960048036038101906103d49190614553565b61293e565b6040516103e69190614703565b60405180910390f35b6103f7612953565b604051610404919061479f565b60405180910390f35b6104276004803603810190610422919061480e565b61297a565b005b610431613317565b60405161043e9190614880565b60405180910390f35b610461600480360381019061045c91906148a6565b61333b565b60405161046e9190614613565b60405180910390f35b6007600c9054906101000a900463ffffffff1681565b6104a167a0e49fff27e6287b60c01b613e94565b6104b56759e1e0de4c5566bb60c01b613e94565b6104c9673469dcab49a31bfb60c01b613e94565b5f151560015f3373ffffffffffffffffffffffffffffffffffffffff1673ffffffffffffffffffffffffffffffffffffffff1681526020019081526020015f205f9054906101000a900460ff161515036105635761053167530d18c8633dcef960c01b613e94565b6040517f0ca16f7800000000000000000000000000000000000000000000000000000000815260040160405180910390fd5b61057767d969a85ac86014df60c01b613e94565b61058b6743f06f7df53d457660c01b613e94565b61059f678759273886861d4260c01b613e94565b5f60035f8373ffffffffffffffffffffffffffffffffffffffff1673ffffffffffffffffffffffffffffffffffffffff1681526020019081526020015f205490506105f467b84ab3189720746c60c01b613e94565b610608672c89c19adf4a169160c01b613e94565b5f61061d67037cf6cd2f5aa22c60c01b613e94565b836bffffffffffffffffffffffff1682019050610644675c8446d4e478c1fe60c01b613e94565b61065867f4865247df77043b60c01b613e94565b5f61066283611f1d565b905061067867d04ad88160bff8d660c01b613e94565b61068c6721d9402334b36e3160c01b613e94565b5f61069683611f1d565b90506106ac6732633f0103b8d33260c01b613e94565b6106c067d79c840d9191ece360c01b613e94565b5f60045f801515151581526020019081526020015f205f8773ffffffffffffffffffffffffffffffffffffffff1673ffffffffffffffffffffffffffffffffffffffff1681526020019081526020015f20905061072767ca84179df970c32660c01b613e94565b61073b67b81c3392234e0d3960c01b613e94565b5f815f015f9054906101000a90046bffffffffffffffffffffffff166bffffffffffffffffffffffff16905061077b67817a1adf3c5be30560c01b613e94565b61078f67c4a1c5a906f0c72d60c01b613e94565b5f81146109c9576107aa677e292429bf8af3e360c01b613e94565b6107be67aa2d511943befe5860c01b613e94565b6107d2678fa99ec09c43aa3e60c01b613e94565b6107dc5f85613e97565b6107f06781adb83bcbe2ed6760c01b613e94565b61080467b196b399d3752ab560c01b613e94565b8284146109af5761081f67073168ad5fb58e4160c01b613e94565b61083367cea6a6e521a67a6a60c01b613e94565b610847676070d38f8347be9c60c01b613e94565b6108515f84613e97565b610865677f7a63435340cdad60c01b613e94565b610879672790b8a696500b7960c01b613e94565b61088d6776ee7a2ea4ac946460c01b613e94565b5f60055f801515151581526020019081526020015f205f8681526020019081526020015f205f9054906101000a90046bffffffffffffffffffffffff1660055f801515151581526020019081526020015f205f8681526020019081526020015f205f9054906101000a90046bffffffffffffffffffffffff1603905061091d67df6b8ac669759b7760c01b613e94565b61093167f472937d342ed61560c01b613e94565b5f816bffffffffffffffffffffffff16146109945761095a67fd597ac4faecff7b60c01b613e94565b61096e67048caeb92a9637a760c01b613e94565b806bffffffffffffffffffffffff168202836001015f82825401925050819055506109a9565b6109a86728538672bc31214e60c01b613e94565b5b506109c4565b6109c36750c433a313f5230c60c01b613e94565b5b6109de565b6109dd67cced1b82c4220c9460c01b613e94565b5b6109f267e6f30cf55fccfc1560c01b613e94565b610a0667bab4944c99ccf46660c01b613e94565b5f60045f60011515151581526020019081526020015f205f8973ffffffffffffffffffffffffffffffffffffffff1673ffffffffffffffffffffffffffffffffffffffff1681526020019081526020015f209050610a6e677f8ddad7cfd8386760c01b613e94565b610a8267398e2fe89d321d6160c01b613e94565b5f815f015f9054906101000a90046bffffffffffffffffffffffff166bffffffffffffffffffffffff169050610ac26758a14cac00e2e0b960c01b613e94565b610ad66701e689cf763d930b60c01b613e94565b5f8114610d1457610af16730e135acf645b5f860c01b613e94565b610b05678bb0fa3a3a9ddd0860c01b613e94565b610b19674dba04ff57e3c8b360c01b613e94565b610b24600187613e97565b610b3867712836c355d02f3860c01b613e94565b610b4c67d54aa695d7ec9f3f60c01b613e94565b848614610cfa57610b67678a6c63406597198a60c01b613e94565b610b7b677f8e7dd86b34f56f60c01b613e94565b610b8f6749d9d5505d0d1b4160c01b613e94565b610b9a600186613e97565b610bae67f213eb3aae7cf14560c01b613e94565b610bc2674ed44e212ef3c9ba60c01b613e94565b610bd66762bfb7f8b0da0a1a60c01b613e94565b5f60055f60011515151581526020019081526020015f205f8881526020019081526020015f205f9054906101000a90046bffffffffffffffffffffffff1660055f60011515151581526020019081526020015f205f8881526020019081526020015f205f9054906101000a90046bffffffffffffffffffffffff16039050610c68672d879890047184bb60c01b613e94565b610c7c67eb039ef4198812bc60c01b613e94565b5f816bffffffffffffffffffffffff1614610cdf57610ca567a3f50bc7b9bb63a760c01b613e94565b610cb967fd93323c059bdd0a60c01b613e94565b806bffffffffffffffffffffffff168202836001015f8282540192505081905550610cf4565b610cf367ff9fd15ba875127860c01b613e94565b5b50610d0f565b610d0e6721e360605ab0ac1660c01b613e94565b5b610d29565b610d28678549c04966a497c360c01b613e94565b5b610d3d67613337f5f8a3187560c01b613e94565b8660035f8b73ffffffffffffffffffffffffffffffffffffffff1673ffffffffffffffffffffffffffffffffffffffff1681526020019081526020015f2081905550610d936774e1b0c65b519b7560c01b613e94565b610da767466f9367da96183860c01b613e94565b8873ffffffffffffffffffffffffffffffffffffffff163373ffffffffffffffffffffffffffffffffffffffff167f51e994211c369e3457bbfc6c8e772ed33f7194fab7191b1b50e72450986151948c604051610e049190614613565b60405180910390a350505050505050505050565b610e2c67b30e450d4011131660c01b613e94565b610e4067ade1e9bf78d70f8560c01b613e94565b610e5467ae3eb825be6931db60c01b613e94565b610e686715b52dab4d9a855f60c01b613e94565b7f000000000000000000000000000000000000000000000000000000000000000073ffffffffffffffffffffffffffffffffffffffff166391d148547f0000000000000000000000000000000000000000000000000000000000000000610ecd6140bd565b6040518363ffffffff1660e01b8152600401610eea9291906148ea565b602060405180830381865afa158015610f05573d5f803e3d5ffd5b505050506040513d601f19601f82011682018060405250810190610f299190614917565b610f7357610f4167118f87478cb076ea60c01b613e94565b6040517fc183bcef00000000000000000000000000000000000000000000000000000000815260040160405180910390fd5b610f8767af1000d3a5b2c02b60c01b613e94565b610f9b67dccfa4001b1efa4460c01b613e94565b610faf6705cef332edd5d7a860c01b613e94565b610fc367b86ab87da533f19360c01b613e94565b610fd767ec87f1c3cba7ce5160c01b613e94565b610feb67ff1873b6577f13d060c01b613e94565b60015f8273ffffffffffffffffffffffffffffffffffffffff1673ffffffffffffffffffffffffffffffffffffffff1681526020019081526020015f205f9054906101000a900460ff16156110805761104e6736dabf7dbf71c42760c01b613e94565b6040517f87b38f7700000000000000000000000000000000000000000000000000000000815260040160405180910390fd5b6110946723edf5e9bbb3dd0160c01b613e94565b6110a867e4f4cc93b3daf0c160c01b613e94565b6001805f8373ffffffffffffffffffffffffffffffffffffffff1673ffffffffffffffffffffffffffffffffffffffff1681526020019081526020015f205f6101000a81548160ff021916908315150217905550611110671097b64ca16c827160c01b613e94565b6111246711a59691f729f40960c01b613e94565b8073ffffffffffffffffffffffffffffffffffffffff167f7257d24c2acadc447212ec9e171741cbf5ba10691439c768931a286a4f224ee160405160405180910390a250565b6004602052815f5260405f20602052805f5260405f205f9150915050805f015f9054906101000a90046bffffffffffffffffffffffff1690805f01600c9054906101000a90046bffffffffffffffffffffffff1690805f0160189054906101000a900463ffffffff1690805f01601c9054906101000a900463ffffffff16908060010154905085565b5f805f9054906101000a900473ffffffffffffffffffffffffffffffffffffffff1673ffffffffffffffffffffffffffffffffffffffff168273ffffffffffffffffffffffffffffffffffffffff16149050919050565b5f61125f67c2c28b24585aa6e160c01b613e94565b61127367624e2509242e49b460c01b613e94565b61128767d3fe62452599d08a60c01b613e94565b5f60045f851515151581526020019081526020015f205f8473ffffffffffffffffffffffffffffffffffffffff1673ffffffffffffffffffffffffffffffffffffffff1681526020019081526020015f2090506112ee67e1ec46b5ea46daca60c01b613e94565b61130267fd9ca2d8f24c987460c01b613e94565b5f61134960035f8673ffffffffffffffffffffffffffffffffffffffff1673ffffffffffffffffffffffffffffffffffffffff1681526020019081526020015f2054611f1d565b905061135f67f6a08f4a6acb3c2160c01b613e94565b61137367566f82a3a6311c7060c01b613e94565b61138767476f9c9596aeb89a60c01b613e94565b5f60055f871515151581526020019081526020015f205f8381526020019081526020015f205f9054906101000a90046bffffffffffffffffffffffff166bffffffffffffffffffffffff16600283815481106113e6576113e561493c565b5b905f5260205f2090600202016001015f881515151581526020019081526020015f205f9054906101000a900467ffffffffffffffff1667ffffffffffffffff1660065f891515151581526020019081526020015f205f8581526020019081526020015f205f9054906101000a900463ffffffff1663ffffffff1642030201905061147a672ec4ad5a5cf1251760c01b613e94565b61148e677753b6c246bdfc4560c01b613e94565b825f01600c9054906101000a90046bffffffffffffffffffffffff166bffffffffffffffffffffffff16670de0b6b3a764000067ffffffffffffffff168460010154855f015f9054906101000a90046bffffffffffffffffffffffff166bffffffffffffffffffffffff168402038161150a57611509614969565b5b0401935050505092915050565b61152b670b1dd12e2759bf0e60c01b613e94565b61153f67291f8c18c45662cc60c01b613e94565b6115536709d785867cd99c9d60c01b613e94565b5f808563ffffffff161415905061157467fdb502daf16c3cfb60c01b613e94565b61158867e91e299edc0b3b8960c01b613e94565b5f6115916140bd565b90506115a767377166856206837660c01b613e94565b6115bb674c55136a0d86864d60c01b613e94565b5f84849050146116e3576115d967f3919273bbc80ebc60c01b613e94565b6115ed6739e1e0ef07978a9a60c01b613e94565b6116016710058a0d5caca03460c01b613e94565b5f805f805f88888101906116159190614996565b945094509450945094506116336719e7a364ab3ecfe360c01b613e94565b6116476701e09376a88e6d7360c01b613e94565b7f000000000000000000000000000000000000000000000000000000000000000073ffffffffffffffffffffffffffffffffffffffff1663d505accf873088888888886040518863ffffffff1660e01b81526004016116ac97969594939291906149e4565b5f604051808303815f87803b1580156116c3575f80fd5b505af11580156116d5573d5f803e3d5ffd5b5050505050505050506116f8565b6116f767d6b088688ee37ec560c01b613e94565b5b61170c67a84d13bbb682bac960c01b613e94565b61172067141581424f2842df60c01b613e94565b5f61176760035f8473ffffffffffffffffffffffffffffffffffffffff1673ffffffffffffffffffffffffffffffffffffffff1681526020019081526020015f2054611f1d565b905061177d67527f6989ab2154de60c01b613e94565b61179167179aae75a43e583b60c01b613e94565b61179b8382613e97565b6117af6705746878e775c92c60c01b613e94565b6117c3676fe6906b252f3e4a60c01b613e94565b5f60055f851515151581526020019081526020015f205f8381526020019081526020015f205f9054906101000a90046bffffffffffffffffffffffff166bffffffffffffffffffffffff169050611824671e62923fc08542c060c01b613e94565b61183867891dbf6d86e674b760c01b613e94565b61184c67b97810333361b59e60c01b613e94565b5f60045f861515151581526020019081526020015f205f8573ffffffffffffffffffffffffffffffffffffffff1673ffffffffffffffffffffffffffffffffffffffff1681526020019081526020015f2090506118b367644e3979b901fddf60c01b613e94565b6118c767501f7b763fa9383060c01b613e94565b5f815f015f9054906101000a90046bffffffffffffffffffffffff1690506118f9677f610fb912f7a9de60c01b613e94565b61190d67827e37d3c9385a6760c01b613e94565b5f816bffffffffffffffffffffffff1611156119d7576119376713d79c8d233bd00c60c01b613e94565b61194b67116019014034af4660c01b613e94565b670de0b6b3a764000067ffffffffffffffff168260010154826bffffffffffffffffffffffff168502038161198357611982614969565b5b04825f01600c8282829054906101000a90046bffffffffffffffffffffffff160192506101000a8154816bffffffffffffffffffffffff02191690836bffffffffffffffffffffffff1602179055506119ec565b6119eb67cff6de5c67bf821960c01b613e94565b5b611a006775be3cbe767f599d60c01b613e94565b611a146782c6d2ece4f8f71f60c01b613e94565b5f8b6bffffffffffffffffffffffff161115611eb857611a3e6746e33cf1a478ebb760c01b613e94565b611a5267cfe120a2b2889ff460c01b613e94565b8a81019050611a6b677d816fc2dbdf857160c01b613e94565b80825f015f6101000a8154816bffffffffffffffffffffffff02191690836bffffffffffffffffffffffff160217905550611ab0670481d6174765c4f760c01b613e94565b8a60075f8282829054906101000a90046bffffffffffffffffffffffff160192506101000a8154816bffffffffffffffffffffffff02191690836bffffffffffffffffffffffff160217905550611b1167aa84c346a843580a60c01b613e94565b611b25671d0d1e7a44fe455460c01b613e94565b611b8085308d6bffffffffffffffffffffffff167f000000000000000000000000000000000000000000000000000000000000000073ffffffffffffffffffffffffffffffffffffffff166140f2909392919063ffffffff16565b611b9467414d29046a20403f60c01b613e94565b611ba8679be5b31e8065a78c60c01b613e94565b8515611e2857611bc267240bd30460cace0e60c01b613e94565b611bd6670c689d42855b66b260c01b613e94565b611bea67aec9c69a1b0e089260c01b613e94565b6007600c9054906101000a900463ffffffff1663ffffffff168a63ffffffff1614611c5557611c2367ad91a5d90e222d4060c01b613e94565b6040517f7616640100000000000000000000000000000000000000000000000000000000815260040160405180910390fd5b611c69675df511476dfb9cf860c01b613e94565b611c7d67f797aa69a233e6d960c01b613e94565b611c9167d1499f0112bb253360c01b613e94565b600760109054906101000a900463ffffffff1663ffffffff168963ffffffff1614611cfc57611cca6776f138ace25bbc2560c01b613e94565b6040517f4633db4800000000000000000000000000000000000000000000000000000000815260040160405180910390fd5b611d1067dd6dc3730ae004b560c01b613e94565b611d24670fd6d3fbe6ebc2e160c01b613e94565b611d3867f407d9e5d6258ab060c01b613e94565b5f8a42019050611d5267585a030e87774c1260c01b613e94565b80835f0160186101000a81548163ffffffff021916908363ffffffff160217905550611d88677bae98aca43cc3b960c01b613e94565b89835f01601c6101000a81548163ffffffff021916908363ffffffff160217905550611dbe67659d757bec6c81e960c01b613e94565b611dd2679bacb6581b17a66c60c01b613e94565b8573ffffffffffffffffffffffffffffffffffffffff167f06158f64af87bad9511f1430c50712739d96cb34b053f2c5a428e7306e5ce9908d83604051611e1a929190614a3b565b60405180910390a250611eb3565b611e3c67044a450b2421eef960c01b613e94565b611e5067642ad3d56366afbc60c01b613e94565b611e64677afe193ba99c9ae360c01b613e94565b8473ffffffffffffffffffffffffffffffffffffffff167f2ccaa1179b3f18ca497fb512701599a6fb6b44425224a283eef7348383cdb5308c604051611eaa9190614613565b60405180910390a25b611ecd565b611ecc67f50d2865a1c52dc160c01b613e94565b5b611ee167ab646e4550912d5860c01b613e94565b806bffffffffffffffffffffffff16830282600101819055505050505050505050505050565b600760109054906101000a900463ffffffff1681565b5f611f32670cdc288d874813bc60c01b613e94565b611f466731619534f444080360c01b613e94565b611f5a6780b5727febbde9cf60c01b613e94565b611f6e67dab9db37823f19c660c01b613e94565b5f6001600280549050039050611f8e6794ed848a761604f360c01b613e94565b611fa267311a87a7b4d0523560c01b613e94565b5f5b8181101561206357611fc067b4c032f0de37b32b60c01b613e94565b611fd467b8a9f1110574f3e660c01b613e94565b60028181548110611fe857611fe761493c565b5b905f5260205f2090600202015f01548410156120445761201267244c0243bd0b9e8b60c01b613e94565b6120266709b7114016bdc32860c01b613e94565b61203a679da077a735eb16b160c01b613e94565b8092505050612091565b61205867a4899fd2a53cd99d60c01b613e94565b806001019050611fa4565b5061207867d492d85566cb5bf460c01b613e94565b61208c678a7c0ae3b224a6eb60c01b613e94565b809150505b919050565b7f000000000000000000000000000000000000000000000000000000000000000081565b7f000000000000000000000000000000000000000000000000000000000000000081565b6120f267822ed1d17f680a3960c01b613e94565b61210667ade1e9bf78d70f8560c01b613e94565b61211a67ae3eb825be6931db60c01b613e94565b61212e6715b52dab4d9a855f60c01b613e94565b7f000000000000000000000000000000000000000000000000000000000000000073ffffffffffffffffffffffffffffffffffffffff166391d148547f00000000000000000000000000000000000000000000000000000000000000006121936140bd565b6040518363ffffffff1660e01b81526004016121b09291906148ea565b602060405180830381865afa1580156121cb573d5f803e3d5ffd5b505050506040513d601f19601f820116820180604052508101906121ef9190614917565b6122395761220767118f87478cb076ea60c01b613e94565b6040517fc183bcef00000000000000000000000000000000000000000000000000000000815260040160405180910390fd5b61224d67af1000d3a5b2c02b60c01b613e94565b61226167dccfa4001b1efa4460c01b613e94565b61227567e1a0d86f90e2c2b660c01b613e94565b61228967fecd50f437dd1f0660c01b613e94565b61229d6733f39c59192596a360c01b613e94565b6122b167e54356ea5642eb0660c01b613e94565b5f8163ffffffff1603612304576122d2672e607741f5a11e1a60c01b613e94565b6040517f7616640100000000000000000000000000000000000000000000000000000000815260040160405180910390fd5b612318679fb6e718394ad94160c01b613e94565b61232c6773df465d630c3baf60c01b613e94565b61234067480632622eb051e960c01b613e94565b6301e133808163ffffffff16111561239857612366670a2dbc98f8f1f33b60c01b613e94565b6040517f7616640100000000000000000000000000000000000000000000000000000000815260040160405180910390fd5b6123ac678839ccbbba7bd8db60c01b613e94565b6123c06711914e3111ae391360c01b613e94565b6123d467be5008e526ff55f860c01b613e94565b8063ffffffff166007600c9054906101000a900463ffffffff1663ffffffff167f56284005fd4a07abfe871ab11886346e5be67d6f44ef39c3670ecd42cdff756e60405160405180910390a361243467500e6bbfa3be222060c01b613e94565b806007600c6101000a81548163ffffffff021916908363ffffffff16021790555050565b60075f9054906101000a90046bffffffffffffffffffffffff1681565b6001602052805f5260405f205f915054906101000a900460ff1681565b61249a61448c565b6124ae6740be5aff2fcc8bc060c01b613e94565b6124c267c7278d0ab42a904160c01b613e94565b600282815481106124d6576124d561493c565b5b905f5260205f2090600202015f0154815f0181815250506125016704fdd9dcfdf664e860c01b613e94565b600282815481106125155761251461493c565b5b905f5260205f2090600202016001015f801515151581526020019081526020015f205f9054906101000a900467ffffffffffffffff16816020019067ffffffffffffffff16908167ffffffffffffffff168152505061257e676f7db5b5b756573360c01b613e94565b600282815481106125925761259161493c565b5b905f5260205f2090600202016001015f60011515151581526020019081526020015f205f9054906101000a900467ffffffffffffffff16816040019067ffffffffffffffff16908167ffffffffffffffff1681525050919050565b6126016714348a6d7d83a4ae60c01b613e94565b61261567ade1e9bf78d70f8560c01b613e94565b61262967ae3eb825be6931db60c01b613e94565b61263d6715b52dab4d9a855f60c01b613e94565b7f000000000000000000000000000000000000000000000000000000000000000073ffffffffffffffffffffffffffffffffffffffff166391d148547f00000000000000000000000000000000000000000000000000000000000000006126a26140bd565b6040518363ffffffff1660e01b81526004016126bf9291906148ea565b602060405180830381865afa1580156126da573d5f803e3d5ffd5b505050506040513d601f19601f820116820180604052508101906126fe9190614917565b6127485761271667118f87478cb076ea60c01b613e94565b6040517fc183bcef00000000000000000000000000000000000000000000000000000000815260040160405180910390fd5b61275c67af1000d3a5b2c02b60c01b613e94565b61277067dccfa4001b1efa4460c01b613e94565b6127846790b98f25e3fcdbd660c01b613e94565b612798676a03a367d884c06a60c01b613e94565b6127ac67b7454badd34ff71460c01b613e94565b6127c06702e6208a1fa7215e60c01b613e94565b60015f8273ffffffffffffffffffffffffffffffffffffffff1673ffffffffffffffffffffffffffffffffffffffff1681526020019081526020015f205f9054906101000a900460ff166128545761282267c5e34f6f804852ec60c01b613e94565b6040517f140d2e6400000000000000000000000000000000000000000000000000000000815260040160405180910390fd5b61286867ab4855569d7f385260c01b613e94565b61287c67f8e0cfe2c413a33660c01b613e94565b5f60015f8373ffffffffffffffffffffffffffffffffffffffff1673ffffffffffffffffffffffffffffffffffffffff1681526020019081526020015f205f6101000a81548160ff0219169083151502179055506128e4677407bd7972c3e7ac60c01b613e94565b6128f867b99510286a541a3860c01b613e94565b8073ffffffffffffffffffffffffffffffffffffffff167f7f4592154161245b30f64a97416a1dd131876b9223ac42f3e12d67d6c34dc80860405160405180910390a250565b6003602052805f5260405f205f915090505481565b5f805f9054906101000a900473ffffffffffffffffffffffffffffffffffffffff16905090565b61298e674946d8d690d9d5d760c01b613e94565b6129a267ade1e9bf78d70f8560c01b613e94565b6129b667ae3eb825be6931db60c01b613e94565b6129ca6715b52dab4d9a855f60c01b613e94565b7f000000000000000000000000000000000000000000000000000000000000000073ffffffffffffffffffffffffffffffffffffffff166391d148547f0000000000000000000000000000000000000000000000000000000000000000612a2f6140bd565b6040518363ffffffff1660e01b8152600401612a4c9291906148ea565b602060405180830381865afa158015612a67573d5f803e3d5ffd5b505050506040513d601f19601f82011682018060405250810190612a8b9190614917565b612ad557612aa367118f87478cb076ea60c01b613e94565b6040517fc183bcef00000000000000000000000000000000000000000000000000000000815260040160405180910390fd5b612ae967af1000d3a5b2c02b60c01b613e94565b612afd67dccfa4001b1efa4460c01b613e94565b612b11670ad9b6d1e3ba8a1960c01b613e94565b612b25672c53533ba4d28d1a60c01b613e94565b612b39679cd44111153fe8bf60c01b613e94565b612b4d67844d467d25dc290f60c01b613e94565b5f6002805490509050612b6a678e71620a4de8eea960c01b613e94565b612b7e678cd7ee034a55abd860c01b613e94565b808585905014612bce57612b9c67b5f688ab500046a260c01b613e94565b6040517f171f015100000000000000000000000000000000000000000000000000000000815260040160405180910390fd5b612be267017cebfecf76002060c01b613e94565b612bf667df34df7eb33cfd6660c01b613e94565b612c0a67245dbcc8e71df59260c01b613e94565b808383905014612c5a57612c2867b4111c9a104bb1cb60c01b613e94565b6040517f171f015100000000000000000000000000000000000000000000000000000000815260040160405180910390fd5b612c6e6794004e473055339660c01b613e94565b612c8267e10d77b5c7c64f3460c01b613e94565b612c9667b1caceff6e6de91960c01b613e94565b5f5b81811015612d2457612cb4674d1ad50132ef76aa60c01b613e94565b612cc867f62d00851548ff4260c01b613e94565b612cd25f82613e97565b612ce6671145f6ec3c81e11160c01b613e94565b612cfa67391baadfdc52b3a860c01b613e94565b612d05600182613e97565b612d196770e661be24e3f88360c01b613e94565b806001019050612c98565b50612d39676c05def8e08887af60c01b613e94565b612d4d67be23aec84d95614460c01b613e94565b5f612d6267aa40667266aa7f8f60c01b613e94565b612d76676baa21203bfb23e460c01b613e94565b5f5b8281101561320457612d9467c008298fc95771de60c01b613e94565b612da86778c897eb5591dd0060c01b613e94565b5f8114612fba57612dc3675f21448207e4d8e360c01b613e94565b612dd767d19f18488d08f6ad60c01b613e94565b612deb679393fbe9bb4378f860c01b613e94565b612dff67db812ebb18fa3c3960c01b613e94565b868682818110612e1257612e1161493c565b5b9050602002016020810190612e279190614a85565b67ffffffffffffffff16878760018403818110612e4757612e4661493c565b5b9050602002016020810190612e5c9190614a85565b67ffffffffffffffff161115612eb257612e8067f4614f703da33c3460c01b613e94565b6040517f22be228400000000000000000000000000000000000000000000000000000000815260040160405180910390fd5b612ec667eeef360f584b84b960c01b613e94565b612eda675e7c898ed283759b60c01b613e94565b612eee678f5236cb4c06a65f60c01b613e94565b848482818110612f0157612f0061493c565b5b9050602002016020810190612f169190614a85565b67ffffffffffffffff16858560018403818110612f3657612f3561493c565b5b9050602002016020810190612f4b9190614a85565b67ffffffffffffffff161115612fa157612f6f6704de5207bee1d85e60c01b613e94565b6040517f22be228400000000000000000000000000000000000000000000000000000000815260040160405180910390fd5b612fb5675c3ff250b15aa8ff60c01b613e94565b612fcf565b612fce6704a6d8b1b8ab237060c01b613e94565b5b612fe3678b396899b1f0456a60c01b613e94565b612ff767b1cbc35a9bf98c0860c01b613e94565b6002818154811061300b5761300a61493c565b5b905f5260205f2090600202016001015f60011515151581526020019081526020015f205f9054906101000a900467ffffffffffffffff1667ffffffffffffffff1685858381811061305f5761305e61493c565b5b90506020020160208101906130749190614a85565b67ffffffffffffffff1610156130a15761309867630c3494bef4744460c01b613e94565b600191506130b6565b6130b567ac1eeb96c7a9e6dd60c01b613e94565b5b6130ca678304835b282fe03760c01b613e94565b8686828181106130dd576130dc61493c565b5b90506020020160208101906130f29190614a85565b600282815481106131065761310561493c565b5b905f5260205f2090600202016001015f801515151581526020019081526020015f205f6101000a81548167ffffffffffffffff021916908367ffffffffffffffff160217905550613161675768a9cc5f738bad60c01b613e94565b8484828181106131745761317361493c565b5b90506020020160208101906131899190614a85565b6002828154811061319d5761319c61493c565b5b905f5260205f2090600202016001015f60011515151581526020019081526020015f205f6101000a81548167ffffffffffffffff021916908367ffffffffffffffff1602179055506131f967dfbbc825bd37f3f660c01b613e94565b806001019050612d78565b5061321967a7609639e76284b660c01b613e94565b61322d671e833d5e3bd301b560c01b613e94565b8015613295576132476765d4c03eaeb0a14f60c01b613e94565b61325a66b98de5086a74ed60c01b613e94565b6007601081819054906101000a900463ffffffff1660010191906101000a81548163ffffffff021916908363ffffffff1602179055506132aa565b6132a967ec363a6bfa690abe60c01b613e94565b5b6132be673fac322cbf7d3c0e60c01b613e94565b6132d267d01a850a433b487660c01b613e94565b7fbae765657af5c8138db72a088b635bef12d17b2c60f5d21b3103c4d03dc69e33868686866040516133079493929190614af3565b60405180910390a1505050505050565b7f000000000000000000000000000000000000000000000000000000000000000081565b5f61335067194bbd7958932ddc60c01b613e94565b613364678b12ada43e59739360c01b613e94565b61337867977f608c97b020d960c01b613e94565b5f73ffffffffffffffffffffffffffffffffffffffff168273ffffffffffffffffffffffffffffffffffffffff16036133f1576133bf67cdd8011d5d16f47660c01b613e94565b6040517f9c8d2cd200000000000000000000000000000000000000000000000000000000815260040160405180910390fd5b613405676269f0cc91baeae260c01b613e94565b61341967bb02ca993f988e3e60c01b613e94565b61342d677f4bb45a9f1bd76c60c01b613e94565b5f6134366140bd565b905061344c67938802cbf6e513cb60c01b613e94565b6134606712410f81e91895f460c01b613e94565b5f60045f871515151581526020019081526020015f205f8373ffffffffffffffffffffffffffffffffffffffff1673ffffffffffffffffffffffffffffffffffffffff1681526020019081526020015f2090506134c76787dacbbb102383c460c01b613e94565b6134db67fc8ef0746942028560c01b613e94565b5f815f015f9054906101000a90046bffffffffffffffffffffffff16905061350d67797bbef7bec8bc6060c01b613e94565b613521673c253236494691e760c01b613e94565b806bffffffffffffffffffffffff16866bffffffffffffffffffffffff16111561358b576135596759eb6f63fc7041df60c01b613e94565b6040517ff1bc94d200000000000000000000000000000000000000000000000000000000815260040160405180910390fd5b61359f6767109e6d6917ffa660c01b613e94565b6135b367ea5bb86905b253f260c01b613e94565b6135c7670176165819554c0560c01b613e94565b5f61360e60035f8673ffffffffffffffffffffffffffffffffffffffff1673ffffffffffffffffffffffffffffffffffffffff1681526020019081526020015f2054611f1d565b905061362467281e34276ff5631060c01b613e94565b613638671e4422093f0aee4c60c01b613e94565b87801561365d5750825f0160189054906101000a900463ffffffff1663ffffffff1642105b80156136bd57505f600282815481106136795761367861493c565b5b905f5260205f2090600202016001015f60011515151581526020019081526020015f205f9054906101000a900467ffffffffffffffff1667ffffffffffffffff1614155b80156136fa5750600760109054906101000a900463ffffffff1663ffffffff16835f01601c9054906101000a900463ffffffff1663ffffffff1610155b1561374557613713674c42e6856f55be9b60c01b613e94565b6040517f442c667900000000000000000000000000000000000000000000000000000000815260040160405180910390fd5b61375967a8ebc2e0296d98a560c01b613e94565b61376d67b3fc248e0f9f8ec660c01b613e94565b61378167ab06e123572c195460c01b613e94565b61378b8882613e97565b61379f67a736f4ee105bf58d60c01b613e94565b6137b3673c886895faed6dda60c01b613e94565b5f60055f8a1515151581526020019081526020015f205f8381526020019081526020015f205f9054906101000a90046bffffffffffffffffffffffff166bffffffffffffffffffffffff16905061381467cc6c30875d56bfb760c01b613e94565b61382867f3671c8430c42fd360c01b613e94565b61383c67c0f1b577f54240d360c01b613e94565b5f845f01600c9054906101000a90046bffffffffffffffffffffffff166bffffffffffffffffffffffff16670de0b6b3a764000067ffffffffffffffff168660010154866bffffffffffffffffffffffff168502038161389f5761389e614969565b5b040190506138b767be2bae14b29b3abb60c01b613e94565b6138cb673f079df6a82b1c1660c01b613e94565b5f60075f9054906101000a90046bffffffffffffffffffffffff1690506138fc67e708cd094fd399a160c01b613e94565b61391067bec07a56c50ae82260c01b613e94565b5f817f000000000000000000000000000000000000000000000000000000000000000073ffffffffffffffffffffffffffffffffffffffff166370a08231306040518263ffffffff1660e01b815260040161396b919061479f565b602060405180830381865afa158015613986573d5f803e3d5ffd5b505050506040513d601f19601f820116820180604052508101906139aa9190614b25565b0390506139c167a1059c45475ae7ed60c01b613e94565b6139d567e679fe3466db68d160c01b613e94565b826bffffffffffffffffffffffff16816bffffffffffffffffffffffff161015613a7157613a0d67a880bdb40a7e6fc460c01b613e94565b613a2167704b9d75c0f37fa160c01b613e94565b808303875f01600c6101000a8154816bffffffffffffffffffffffff02191690836bffffffffffffffffffffffff160217905550613a696751ab9b69bd8256de60c01b613e94565b809250613acc565b613a85674a3bed653bc69cd860c01b613e94565b613a996763fdc8abd3c050d860c01b613e94565b5f875f01600c6101000a8154816bffffffffffffffffffffffff02191690836bffffffffffffffffffffffff1602179055505b613ae067d77d9ad2b54a194960c01b613e94565b613af467bb925c717e14dc5160c01b613e94565b5f8b6bffffffffffffffffffffffff161115613bc757613b1e67194fe39ec67c952160c01b613e94565b613b3267ee21645bf7c6053e60c01b613e94565b8a86039550613b4b67dec443fd16404a2960c01b613e94565b85875f015f6101000a8154816bffffffffffffffffffffffff02191690836bffffffffffffffffffffffff160217905550613b9067e32e7e390052863e60c01b613e94565b8a820360075f6101000a8154816bffffffffffffffffffffffff02191690836bffffffffffffffffffffffff160217905550613bdc565b613bdb676c489f3893c7e5aa60c01b613e94565b5b613bf0675a46effa06bd13cc60c01b613e94565b8a83019850613c096797b2f6f058b322dd60c01b613e94565b613c1d6743cd234db899807160c01b613e94565b5f896bffffffffffffffffffffffff161115613e4357613c47677bb76906011043c760c01b613e94565b613c5b67831d4558be54006760c01b613e94565b613c6f67fa273532740f1d6f60c01b613e94565b613cc88a8a6bffffffffffffffffffffffff167f000000000000000000000000000000000000000000000000000000000000000073ffffffffffffffffffffffffffffffffffffffff1661417b9092919063ffffffff16565b613cdc67058ce974ad33ac1a60c01b613e94565b613cf067e3c2a76d8911c8a060c01b613e94565b8b15613d9c57613d0a67ea055e438edaa9e560c01b613e94565b613d1e675d4d9f4463064a2d60c01b613e94565b613d32670eedfc753cf9298560c01b613e94565b8973ffffffffffffffffffffffffffffffffffffffff168873ffffffffffffffffffffffffffffffffffffffff167ff3c33d3725075fd1322294e0dfa6208518b94da96056142615164b28c929fb3c8b604051613d8f9190614613565b60405180910390a3613e3e565b613db067f8e63d360f59388960c01b613e94565b613dc4672e064edd5870918b60c01b613e94565b613dd8675b586623e324cecb60c01b613e94565b8973ffffffffffffffffffffffffffffffffffffffff168873ffffffffffffffffffffffffffffffffffffffff167fff241160df1a450cec6805867d3cd5223fe6bc96a41e0ec0f8c0a31f2e9e54088b604051613e359190614613565b60405180910390a35b613e58565b613e57676a658c965c2e0c1560c01b613e94565b5b613e6c6789383f596468ccd660c01b613e94565b856bffffffffffffffffffffffff168402876001018190555050505050505050509392505050565b50565b613eab67fb0e2a01182814d460c01b613e94565b613ebf6714836ce097adeefb60c01b613e94565b613ed367cdd19091a0cc9c0560c01b613e94565b5f60065f841515151581526020019081526020015f205f8381526020019081526020015f205f9054906101000a900463ffffffff169050613f1e670827e65cf5d6afff60c01b613e94565b613f326741b6e1213fc01e2460c01b613e94565b8063ffffffff164203613f6d57613f5367c264bd4432407bbe60c01b613e94565b613f67675e76e11fbe10046a60c01b613e94565b506140b9565b613f816751d2467ab9e7727b60c01b613e94565b613f95676ab1caac705cf5a460c01b613e94565b60028281548110613fa957613fa861493c565b5b905f5260205f2090600202016001015f841515151581526020019081526020015f205f9054906101000a900467ffffffffffffffff1667ffffffffffffffff168163ffffffff1642030260055f851515151581526020019081526020015f205f8481526020019081526020015f205f8282829054906101000a90046bffffffffffffffffffffffff160192506101000a8154816bffffffffffffffffffffffff02191690836bffffffffffffffffffffffff1602179055506140756707e740bc3ab447e760c01b613e94565b4260065f851515151581526020019081526020015f205f8481526020019081526020015f205f6101000a81548163ffffffff021916908363ffffffff160217905550505b5050565b5f60145f369050101580156140d757506140d6336111f3565b5b156140eb57601436033560601c90506140ef565b3390505b90565b614175846323b872dd60e01b85858560405160240161411393929190614b3f565b604051602081830303815290604052907bffffffffffffffffffffffffffffffffffffffffffffffffffffffff19166020820180517bffffffffffffffffffffffffffffffffffffffffffffffffffffffff8381831617835250505050614201565b50505050565b6141fc8363a9059cbb60e01b848460405160240161419a929190614b77565b604051602081830303815290604052907bffffffffffffffffffffffffffffffffffffffffffffffffffffffff19166020820180517bffffffffffffffffffffffffffffffffffffffffffffffffffffffff8381831617835250505050614201565b505050565b5f614262826040518060400160405280602081526020017f5361666545524332303a206c6f772d6c6576656c2063616c6c206661696c65648152508573ffffffffffffffffffffffffffffffffffffffff166142c79092919063ffffffff16565b90505f815114806142835750808060200190518101906142829190614917565b5b6142c2576040517f08c379a00000000000000000000000000000000000000000000000000000000081526004016142b990614ba4565b60405180910390fd5b505050565b60606142d584845f856142de565b90509392505050565b606082471015614323576040517f08c379a000000000000000000000000000000000000000000000000000000000815260040161431a90614c07565b60405180910390fd5b5f808673ffffffffffffffffffffffffffffffffffffffff16858760405161434b9190614c92565b5f6040518083038185875af1925050503d805f8114614385576040519150601f19603f3d011682016040523d82523d5f602084013e61438a565b606091505b509150915061439b878383876143a7565b92505050949350505050565b60608315614408575f835103614400576143c08561441b565b6143ff576040517f08c379a00000000000000000000000000000000000000000000000000000000081526004016143f690614caf565b60405180910390fd5b5b829050614413565b614412838361443d565b5b949350505050565b5f808273ffffffffffffffffffffffffffffffffffffffff163b119050919050565b5f8251111561444f5781518083602001fd5b806040517f08c379a00000000000000000000000000000000000000000000000000000000081526004016144839190614cec565b60405180910390fd5b60405180606001604052805f81526020015f67ffffffffffffffff1681526020015f67ffffffffffffffff1681525090565b5f60208201905063ffffffff8316825292915050565b5f813590506bffffffffffffffffffffffff811681146144f2575f80fd5b919050565b5f8135905073ffffffffffffffffffffffffffffffffffffffff8116811461451d575f80fd5b919050565b5f8060408385031215614533575f80fd5b61453c836144d4565b915061454a602084016144f7565b90509250929050565b5f60208284031215614563575f80fd5b61456c826144f7565b905092915050565b8015158114614581575f80fd5b50565b5f8060408385031215614595575f80fd5b82356145a081614574565b809250506145b0602084016144f7565b90509250929050565b5f60a0820190506bffffffffffffffffffffffff808816835280871660208401525063ffffffff80861660408401528085166060840152508260808301529695505050505050565b5f602082019050821515825292915050565b5f6020820190506bffffffffffffffffffffffff8316825292915050565b5f8135905063ffffffff81168114614647575f80fd5b919050565b5f805f805f60808688031215614660575f80fd5b614669866144d4565b945061467760208701614631565b935061468560408701614631565b9250606086013567ffffffffffffffff808211156146a1575f80fd5b818801915088601f8301126146b4575f80fd5b8135818111156146c2575f80fd5b8960208285010111156146d3575f80fd5b6020830194508093505050509295509295909350565b5f602082840312156146f9575f80fd5b8135905092915050565b5f60208201905082825292915050565b5f60208201905082825292915050565b5f60208201905073ffffffffffffffffffffffffffffffffffffffff8316825292915050565b5f60208284031215614759575f80fd5b61476282614631565b905092915050565b5f60608201905082518252602083015167ffffffffffffffff8082166020850152806040860151166040850152505092915050565b5f60208201905073ffffffffffffffffffffffffffffffffffffffff8316825292915050565b5f8083601f8401126147d5575f80fd5b8235905067ffffffffffffffff8111156147ed575f80fd5b6020830191508360208260051b8501011115614807575f80fd5b9250929050565b5f805f8060408587031215614821575f80fd5b843567ffffffffffffffff80821115614838575f80fd5b614844888389016147c5565b9250809650508194506020870135915080821115614860575f80fd5b5061486d878288016147c5565b9150809350508091505092959194509250565b5f60208201905073ffffffffffffffffffffffffffffffffffffffff8316825292915050565b5f805f606084860312156148b8575f80fd5b83356148c381614574565b809350506148d3602085016144d4565b91506148e1604085016144f7565b90509250925092565b5f60408201905083825273ffffffffffffffffffffffffffffffffffffffff831660208301529392505050565b5f60208284031215614927575f80fd5b815161493281614574565b8091505092915050565b7f4e487b71000000000000000000000000000000000000000000000000000000005f52603260045260245ffd5b7f4e487b71000000000000000000000000000000000000000000000000000000005f52601260045260245ffd5b5f805f805f60a086880312156149aa575f80fd5b8535945060208601359350604086013560ff811681146149c8575f80fd5b8093505060608601359150608086013590509295509295909350565b5f60e08201905073ffffffffffffffffffffffffffffffffffffffff808a16835280891660208401525086604083015285606083015260ff851660808301528360a08301528260c083015298975050505050505050565b5f6040820190506bffffffffffffffffffffffff8416825263ffffffff831660208301529392505050565b5f8135905067ffffffffffffffff81168114614a80575f80fd5b919050565b5f60208284031215614a95575f80fd5b614a9e82614a66565b905092915050565b8183525f60208085019450825f5b85811015614ae65767ffffffffffffffff614ace83614a66565b16875282870196508282019150600181019050614ab4565b5050508390509392505050565b604081525f614b06604083018688614aa6565b8281036020840152614b19818587614aa6565b91505095945050505050565b5f60208284031215614b35575f80fd5b8151905092915050565b5f60608201905073ffffffffffffffffffffffffffffffffffffffff8086168352808516602084015250826040830152949350505050565b5f60408201905073ffffffffffffffffffffffffffffffffffffffff841682528260208301529392505050565b60208152602a60208201527f5361666545524332303a204552433230206f7065726174696f6e20646964206e60408201527f6f7420737563636565640000000000000000000000000000000000000000000060608201525f608082019050919050565b60208152602660208201527f416464726573733a20696e73756666696369656e742062616c616e636520666f60408201527f722063616c6c000000000000000000000000000000000000000000000000000060608201525f608082019050919050565b5f5b83811015614c87578082015181840152602081019050614c6c565b505f83830152505050565b5f8251614ca3818460208701614c6a565b80830191505092915050565b60208152601d60208201527f416464726573733a2063616c6c20746f206e6f6e2d636f6e747261637400000060408201525f606082019050919050565b602081525f8251806020840152614d0a816040850160208701614c6a565b60407fffffffffffffffffffffffffffffffffffffffffffffffffffffffffffffffe0601f8301168401019150509291505056fea2646970667358221220927d961522c7d090377a2cf36a24932b408919c6a4e6a80ffe3a159ece1a7fe764736f6c63430008150033",
  "linkReferences": {},
  "deployedLinkReferences": {}
}