{
  "_format": "hh-sol-artifact-1",
  "contractName": "EeseeDrops",
  "sourceName": "contracts/marketplace/EeseeDrops.sol",
  "abi": [
    {
      "inputs": [
        {
          "internalType": "contract IERC20",
          "name": "_ESE",
          "type": "address"
        },
        {
          "internalType": "address",
          "name": "_feeSplitter",
          "type": "address"
        },
        {
          "internalType": "contract IEeseeMinter",
          "name": "_minter",
          "type": "address"
        },
        {
          "internalType": "contract IEeseeStaking",
          "name": "_staking",
          "type": "address"
        },
        {
          "internalType": "contract IEeseeAccessManager",
          "name": "_accessManager",
          "type": "address"
        },
        {
          "internalType": "address",
          "name": "trustedForwarder",
          "type": "address"
        }
      ],
      "stateMutability": "nonpayable",
      "type": "constructor"
    },
    {
      "inputs": [],
      "name": "CallerNotAuthorized",
      "type": "error"
    },
    {
      "inputs": [],
      "name": "FeeTooHigh",
      "type": "error"
    },
    {
      "inputs": [],
      "name": "InvalidArrayLengths",
      "type": "error"
    },
    {
      "inputs": [],
      "name": "InvalidConstructor",
      "type": "error"
    },
    {
      "inputs": [],
      "name": "InvalidDropID",
      "type": "error"
    },
    {
      "inputs": [],
      "name": "InvalidEarningsCollector",
      "type": "error"
    },
    {
      "inputs": [],
      "name": "InvalidFee",
      "type": "error"
    },
    {
      "inputs": [],
      "name": "InvalidFeeSplitter",
      "type": "error"
    },
    {
      "inputs": [],
      "name": "InvalidQuantity",
      "type": "error"
    },
    {
      "inputs": [],
      "name": "InvalidRecipient",
      "type": "error"
    },
    {
      "anonymous": false,
      "inputs": [
        {
          "indexed": false,
          "internalType": "uint96",
          "name": "untrackedVolume",
          "type": "uint96"
        },
        {
          "indexed": true,
          "internalType": "address",
          "name": "recipient",
          "type": "address"
        }
      ],
      "name": "AddVolumeReverted",
      "type": "event"
    },
    {
      "anonymous": false,
      "inputs": [
        {
          "indexed": true,
          "internalType": "uint96",
          "name": "previousFee",
          "type": "uint96"
        },
        {
          "indexed": true,
          "internalType": "uint96",
          "name": "newFee",
          "type": "uint96"
        }
      ],
      "name": "ChangeFee",
      "type": "event"
    },
    {
      "anonymous": false,
      "inputs": [
        {
          "indexed": true,
          "internalType": "address",
          "name": "previousFeeSplitter",
          "type": "address"
        },
        {
          "indexed": true,
          "internalType": "address",
          "name": "newFeeSplitter",
          "type": "address"
        }
      ],
      "name": "ChangeFeeSplitter",
      "type": "event"
    },
    {
      "anonymous": false,
      "inputs": [
        {
          "indexed": true,
          "internalType": "address",
          "name": "to",
          "type": "address"
        },
        {
          "indexed": false,
          "internalType": "uint96",
          "name": "amount",
          "type": "uint96"
        }
      ],
      "name": "CollectFee",
      "type": "event"
    },
    {
      "anonymous": false,
      "inputs": [
        {
          "indexed": true,
          "internalType": "uint256",
          "name": "ID",
          "type": "uint256"
        },
        {
          "indexed": true,
          "internalType": "contract IERC721",
          "name": "collection",
          "type": "address"
        },
        {
          "indexed": true,
          "internalType": "address",
          "name": "earningsCollector",
          "type": "address"
        }
      ],
      "name": "ListDrop",
      "type": "event"
    },
    {
      "anonymous": false,
      "inputs": [
        {
          "indexed": true,
          "internalType": "uint256",
          "name": "ID",
          "type": "uint256"
        },
        {
          "indexed": true,
          "internalType": "contract IERC721",
          "name": "collection",
          "type": "address"
        },
        {
          "indexed": true,
          "internalType": "address",
          "name": "recipient",
          "type": "address"
        },
        {
          "indexed": false,
          "internalType": "uint256",
          "name": "fromTokenID",
          "type": "uint256"
        },
        {
          "indexed": false,
          "internalType": "uint32",
          "name": "quantity",
          "type": "uint32"
        },
        {
          "indexed": false,
          "internalType": "uint96",
          "name": "mintPrice",
          "type": "uint96"
        }
      ],
      "name": "MintDrop",
      "type": "event"
    },
    {
      "inputs": [],
      "name": "ADMIN_ROLE",
      "outputs": [
        {
          "internalType": "bytes32",
          "name": "",
          "type": "bytes32"
        }
      ],
      "stateMutability": "view",
      "type": "function"
    },
    {
      "inputs": [],
      "name": "ESE",
      "outputs": [
        {
          "internalType": "contract IERC20",
          "name": "",
          "type": "address"
        }
      ],
      "stateMutability": "view",
      "type": "function"
    },
    {
      "inputs": [],
      "name": "accessManager",
      "outputs": [
        {
          "internalType": "contract IEeseeAccessManager",
          "name": "",
          "type": "address"
        }
      ],
      "stateMutability": "view",
      "type": "function"
    },
    {
      "inputs": [
        {
          "internalType": "uint96",
          "name": "_fee",
          "type": "uint96"
        }
      ],
      "name": "changeFee",
      "outputs": [],
      "stateMutability": "nonpayable",
      "type": "function"
    },
    {
      "inputs": [
        {
          "internalType": "address",
          "name": "_feeSplitter",
          "type": "address"
        }
      ],
      "name": "changeFeeSplitter",
      "outputs": [],
      "stateMutability": "nonpayable",
      "type": "function"
    },
    {
      "inputs": [
        {
          "internalType": "uint256",
          "name": "",
          "type": "uint256"
        }
      ],
      "name": "drops",
      "outputs": [
        {
          "internalType": "uint96",
          "name": "fee",
          "type": "uint96"
        },
        {
          "internalType": "contract IERC721",
          "name": "collection",
          "type": "address"
        },
        {
          "internalType": "address",
          "name": "earningsCollector",
          "type": "address"
        }
      ],
      "stateMutability": "view",
      "type": "function"
    },
    {
      "inputs": [],
      "name": "fee",
      "outputs": [
        {
          "internalType": "uint96",
          "name": "",
          "type": "uint96"
        }
      ],
      "stateMutability": "view",
      "type": "function"
    },
    {
      "inputs": [],
      "name": "feeSplitter",
      "outputs": [
        {
          "internalType": "address",
          "name": "",
          "type": "address"
        }
      ],
      "stateMutability": "view",
      "type": "function"
    },
    {
      "inputs": [],
      "name": "getDropsLength",
      "outputs": [
        {
          "internalType": "uint256",
          "name": "length",
          "type": "uint256"
        }
      ],
      "stateMutability": "view",
      "type": "function"
    },
    {
      "inputs": [
        {
          "internalType": "uint256",
          "name": "ID",
          "type": "uint256"
        }
      ],
      "name": "getMintPrices",
      "outputs": [
        {
          "internalType": "uint96[]",
          "name": "",
          "type": "uint96[]"
        }
      ],
      "stateMutability": "view",
      "type": "function"
    },
    {
      "inputs": [],
      "name": "getTrustedForwarder",
      "outputs": [
        {
          "internalType": "address",
          "name": "forwarder",
          "type": "address"
        }
      ],
      "stateMutability": "view",
      "type": "function"
    },
    {
      "inputs": [
        {
          "internalType": "address",
          "name": "forwarder",
          "type": "address"
        }
      ],
      "name": "isTrustedForwarder",
      "outputs": [
        {
          "internalType": "bool",
          "name": "",
          "type": "bool"
        }
      ],
      "stateMutability": "view",
      "type": "function"
    },
    {
      "inputs": [
        {
          "components": [
            {
              "internalType": "string",
              "name": "name",
              "type": "string"
            },
            {
              "internalType": "string",
              "name": "symbol",
              "type": "string"
            },
            {
              "internalType": "string",
              "name": "baseURI",
              "type": "string"
            },
            {
              "internalType": "string",
              "name": "revealedURI",
              "type": "string"
            },
            {
              "internalType": "string",
              "name": "contractURI",
              "type": "string"
            },
            {
              "internalType": "address",
              "name": "royaltyReceiver",
              "type": "address"
            },
            {
              "internalType": "uint96",
              "name": "royaltyFeeNumerator",
              "type": "uint96"
            }
          ],
          "internalType": "struct DropMetadata",
          "name": "metadata",
          "type": "tuple"
        },
        {
          "components": [
            {
              "internalType": "uint32",
              "name": "duration",
              "type": "uint32"
            },
            {
              "internalType": "uint32",
              "name": "perAddressMintLimit",
              "type": "uint32"
            },
            {
              "internalType": "bytes32",
              "name": "allowListMerkleRoot",
              "type": "bytes32"
            }
          ],
          "internalType": "struct IEeseeNFTDrop.StageOptions[]",
          "name": "stages",
          "type": "tuple[]"
        },
        {
          "internalType": "uint96[]",
          "name": "mintPrices",
          "type": "uint96[]"
        },
        {
          "internalType": "uint32",
          "name": "mintLimit",
          "type": "uint32"
        },
        {
          "internalType": "uint32",
          "name": "mintStartTimestamp",
          "type": "uint32"
        },
        {
          "internalType": "address",
          "name": "earningsCollector",
          "type": "address"
        },
        {
          "internalType": "uint96",
          "name": "expectedFee",
          "type": "uint96"
        }
      ],
      "name": "listDrop",
      "outputs": [
        {
          "internalType": "uint256",
          "name": "ID",
          "type": "uint256"
        },
        {
          "internalType": "contract IERC721",
          "name": "collection",
          "type": "address"
        }
      ],
      "stateMutability": "nonpayable",
      "type": "function"
    },
    {
      "inputs": [
        {
          "internalType": "uint256[]",
          "name": "IDs",
          "type": "uint256[]"
        },
        {
          "internalType": "uint32[]",
          "name": "quantities",
          "type": "uint32[]"
        },
        {
          "internalType": "bytes32[][]",
          "name": "merkleProofs",
          "type": "bytes32[][]"
        },
        {
          "internalType": "address",
          "name": "recipient",
          "type": "address"
        },
        {
          "internalType": "bytes",
          "name": "permit",
          "type": "bytes"
        }
      ],
      "name": "mintDrops",
      "outputs": [
        {
          "internalType": "uint96",
          "name": "mintPrice",
          "type": "uint96"
        }
      ],
      "stateMutability": "nonpayable",
      "type": "function"
    },
    {
      "inputs": [],
      "name": "minter",
      "outputs": [
        {
          "internalType": "contract IEeseeMinter",
          "name": "",
          "type": "address"
        }
      ],
      "stateMutability": "view",
      "type": "function"
    },
    {
      "inputs": [],
      "name": "staking",
      "outputs": [
        {
          "internalType": "contract IEeseeStaking",
          "name": "",
          "type": "address"
        }
      ],
      "stateMutability": "view",
      "type": "function"
    }
  ],
  "bytecode": "0x61012060405261025860035f6101000a8154816bffffffffffffffffffffffff02191690836bffffffffffffffffffffffff16021790555034801562000043575f80fd5b5060405162003c8438038062003c84833981810160405281019062000069919062000653565b600180819055506200008c67320caaba0693f53f60c01b620005ed60201b60201c565b620000a86774cf05f907bb1ab860c01b620005ed60201b60201c565b620000c4678dd8a8ae45d2909960c01b620005ed60201b60201c565b5f73ffffffffffffffffffffffffffffffffffffffff168673ffffffffffffffffffffffffffffffffffffffff161480156200011857506200011767ebd64544e8195e8860c01b620005f060201b60201c565b5b806200019957505f73ffffffffffffffffffffffffffffffffffffffff168573ffffffffffffffffffffffffffffffffffffffff1614801562000173575062000172677b4c86dd16b5c66560c01b620005f060201b60201c565b5b8015620001985750620001976738a9a9718170302660c01b620005f060201b60201c565b5b5b806200021a57505f73ffffffffffffffffffffffffffffffffffffffff168473ffffffffffffffffffffffffffffffffffffffff16148015620001f45750620001f367de580e297a53550160c01b620005f060201b60201c565b5b80156200021957506200021867eb7f44834b85441260c01b620005f060201b60201c565b5b5b806200029b57505f73ffffffffffffffffffffffffffffffffffffffff168373ffffffffffffffffffffffffffffffffffffffff1614801562000275575062000274676670c2121466841360c01b620005f060201b60201c565b5b80156200029a57506200029967d995a9fefafb289e60c01b620005f060201b60201c565b5b5b80620002f757505f73ffffffffffffffffffffffffffffffffffffffff168273ffffffffffffffffffffffffffffffffffffffff16148015620002f65750620002f56733679cfa7334776660c01b620005f060201b60201c565b5b5b156200034b576200031967e9dcd1451f58d58c60c01b620005ed60201b60201c565b6040517f12c1701b00000000000000000000000000000000000000000000000000000000815260040160405180910390fd5b6200036767c5c9d15ce57b005860c01b620005ed60201b60201c565b6200038367813411cd7465317960c01b620005ed60201b60201c565b8573ffffffffffffffffffffffffffffffffffffffff1660808173ffffffffffffffffffffffffffffffffffffffff1681525050620003d3679df289ce1bac951960c01b620005ed60201b60201c565b846003600c6101000a81548173ffffffffffffffffffffffffffffffffffffffff021916908373ffffffffffffffffffffffffffffffffffffffff1602179055506200043067c264680c598acd1160c01b620005ed60201b60201c565b8373ffffffffffffffffffffffffffffffffffffffff1660a08173ffffffffffffffffffffffffffffffffffffffff168152505062000480677658a26fa47c3d6160c01b620005ed60201b60201c565b8273ffffffffffffffffffffffffffffffffffffffff1660c08173ffffffffffffffffffffffffffffffffffffffff1681525050620004d067b455d51db75b48e860c01b620005ed60201b60201c565b8173ffffffffffffffffffffffffffffffffffffffff1660e08173ffffffffffffffffffffffffffffffffffffffff168152505062000520676148084a3d40b5ea60c01b620005ed60201b60201c565b8173ffffffffffffffffffffffffffffffffffffffff166375b238fc6040518163ffffffff1660e01b8152600401602060405180830381865afa1580156200056a573d5f803e3d5ffd5b505050506040513d601f19601f82011682018060405250810190620005909190620006e8565b6101008181525050620005b4676545166cbb51aa7860c01b620005ed60201b60201c565b620005d067ebe60d5ea6dcd56f60c01b620005ed60201b60201c565b620005e181620005fa60201b60201c565b50505050505062000703565b50565b5f60019050919050565b805f806101000a81548173ffffffffffffffffffffffffffffffffffffffff021916908373ffffffffffffffffffffffffffffffffffffffff16021790555050565b60018060a01b038116811462000650575f80fd5b50565b5f805f805f8060c0878903121562000669575f80fd5b865162000676816200063c565b8096505060208701516200068a816200063c565b8095505060408701516200069e816200063c565b809450506060870151620006b2816200063c565b809350506080870151620006c6816200063c565b8092505060a0870151620006da816200063c565b809150509295509295509295565b5f60208284031215620006f9575f80fd5b8151905092915050565b60805160a05160c05160e05161010051613504620007805f395f81816115010152818161178c015261186001525f81816114c5015281816118240152611b7401525f8181610bf90152610d1401525f81816103710152610f6401525f81816106500152818161093101528181610af901526117b001526135045ff3fe608060405234801561000f575f80fd5b50600436106100fe575f3560e01c80636718a31811610095578063bb8bd72511610064578063bb8bd725146102c5578063ce1b815f146102e1578063ddca3f43146102ff578063fdcb60681461031d576100fe565b80636718a3181461023d5780636b7a22001461026d57806375b238fc14610289578063764bd0c5146102a7576100fe565b80634ffd12ac116100d15780634ffd12ac1461018c578063572b6c05146101bd5780635eb39968146101ed5780636052970c1461021f576100fe565b8063061d57af14610102578063075461721461012057806342fbeae01461013e5780634cf088d91461016e575b5f80fd5b61010a61033b565b60405161011791906126f4565b60405180910390f35b61012861036f565b6040516101359190612704565b60405180910390f35b610158600480360381019061015391906127aa565b610393565b60405161016591906128c4565b60405180910390f35b610176610d12565b60405161018391906128e2565b60405180910390f35b6101a660048036038101906101a1919061298f565b610d36565b6040516101b4929190612a6c565b60405180910390f35b6101d760048036038101906101d29190612a99565b61127c565b6040516101e49190612abe565b60405180910390f35b61020760048036038101906102029190612ad0565b6112d3565b60405161021693929190612b07565b60405180910390f35b61022761135d565b6040516102349190612b4d565b60405180910390f35b61025760048036038101906102529190612ad0565b611383565b6040516102649190612b73565b60405180910390f35b61028760048036038101906102829190612bcc565b611473565b005b61029161178a565b60405161029e9190612bed565b60405180910390f35b6102af6117ae565b6040516102bc9190612bfd565b60405180910390f35b6102df60048036038101906102da9190612a99565b6117d2565b005b6102e9611b2e565b6040516102f69190612b4d565b60405180910390f35b610307611b55565b60405161031491906128c4565b60405180910390f35b610325611b72565b6040516103329190612c23565b60405180910390f35b5f61035067c60b174f19f72fea60c01b611b96565b61036467e590ba0fac21a6fd60c01b611b96565b600280549050905090565b7f000000000000000000000000000000000000000000000000000000000000000081565b5f6103a867bb52ab4d8a06e52860c01b611b96565b6103b0611b99565b6103c467f3b04a9444d71bb860c01b611b96565b6103d8679a00269a86d904c860c01b611b96565b6103ec67a044a1bb3f49761c60c01b611b96565b61040067dbd5e7be1670933460c01b611b96565b5f73ffffffffffffffffffffffffffffffffffffffff168473ffffffffffffffffffffffffffffffffffffffff16036104795761044767f5003405f3d040e960c01b611b96565b6040517f9c8d2cd200000000000000000000000000000000000000000000000000000000815260040160405180910390fd5b61048d67e2267fc068f4d37160c01b611b96565b6104a1676f481962ef053e8760c01b611b96565b6104b567b018e8958204509760c01b611b96565b878790508a8a9050141580156104db57506104da6788dad7f53b4fca3960c01b611be8565b5b806105085750858590508a8a905014158015610507575061050667e7e4d22a9ec8416960c01b611be8565b5b5b1561055357610521672084b17be2e4f46f60c01b611b96565b6040517fa9854bc900000000000000000000000000000000000000000000000000000000815260040160405180910390fd5b6105676785aefe86a7a1587b60c01b611b96565b61057b6782e1c940304a0be560c01b611b96565b61058f678c8524434397d05260c01b611b96565b5f610598611bf2565b90506105ae67cbaff2a7658e71cf60c01b611b96565b6105c2676fa9f38c6f7463bc60c01b611b96565b5f84849050146106ea576105e0674aaecebe5b1afe7b60c01b611b96565b6105f467f480bdce932f39f660c01b611b96565b6106086794f5de1a66b98ebb60c01b611b96565b5f805f805f888881019061061c9190612c5a565b9450945094509450945061063a6734791ae66032fd3560c01b611b96565b61064e67ca996db2d308ea0960c01b611b96565b7f000000000000000000000000000000000000000000000000000000000000000073ffffffffffffffffffffffffffffffffffffffff1663d505accf873088888888886040518863ffffffff1660e01b81526004016106b39796959493929190612ca3565b5f604051808303815f87803b1580156106ca575f80fd5b505af11580156106dc573d5f803e3d5ffd5b5050505050505050506106ff565b6106fe674a5fbb44cb39bb6660c01b611b96565b5b61071367ef6bffc308999f1660c01b611b96565b6107276749ff92c48ac1b2f660c01b611b96565b5f61073c67837832288ad7ab9d60c01b611b96565b61075067fbedb67439d5c2b660c01b611b96565b5f5b8c8c90508110156109975761077167d6a380dbc7b7020960c01b611b96565b610785677fdfdc204328784d60c01b611b96565b5f6107f68e8e8481811061079c5761079b612cfa565b5b905060200201358d8d858181106107b6576107b5612cfa565b5b90506020020160208101906107cb9190612d27565b8c8c868181106107de576107dd612cfa565b5b90506020028101906107f09190612d48565b8c611c27565b905061080c678aff277ba9e19cb360c01b611b96565b805f01518561081b9190612de4565b94506108316726c334de543429d760c01b611b96565b61084567eb18cdf50ba50cc460c01b611b96565b5f61085a67f2227776c014ea6a60c01b611b96565b61086e67330711c7cbd0145460c01b611b96565b8160200151825f015103905061088e67d3719dca7452faf160c01b611b96565b8160200151840193506108ab67c2840077f05a9e1260c01b611b96565b8260010192506108c567e997a5943122687160c01b611b96565b6108d967577340e114bfd95860c01b611b96565b5f816bffffffffffffffffffffffff16111561097b5761090367c6781b59ceecbd0060c01b611b96565b61091767bfeddfcbe531856e60c01b611b96565b610976858360400151836bffffffffffffffffffffffff167f000000000000000000000000000000000000000000000000000000000000000073ffffffffffffffffffffffffffffffffffffffff166122a7909392919063ffffffff16565b610990565b61098f67f96ebf2ea3e9324e60c01b611b96565b5b5050610752565b506109ac67861c6b357ecfdb4a60c01b611b96565b6109c06728af422423e108a060c01b611b96565b5f836bffffffffffffffffffffffff1603610a07576109e967197c3406ee02a12560c01b611b96565b6109fd6747a2a2c6ba69d73460c01b611b96565b5f92505050610cfd565b610a1b67a3e29874d1ee857160c01b611b96565b610a2f673478804b43537fc960c01b611b96565b610a4367e1fe6d83e507727c60c01b611b96565b5f816bffffffffffffffffffffffff161115610bba57610a6d67d0292b02f11a0bed60c01b611b96565b610a81671f128bd4beee895660c01b611b96565b610a956732681560517383d860c01b611b96565b5f6003600c9054906101000a900473ffffffffffffffffffffffffffffffffffffffff169050610acf67d2652a74c56affe260c01b611b96565b610ae36739788c289c2c99a760c01b611b96565b610b3e8382846bffffffffffffffffffffffff167f000000000000000000000000000000000000000000000000000000000000000073ffffffffffffffffffffffffffffffffffffffff166122a7909392919063ffffffff16565b610b52675096d40cab74bb9c60c01b611b96565b610b666784418e060b6fe4fe60c01b611b96565b8073ffffffffffffffffffffffffffffffffffffffff167f194055900b5891c5b0c846e80054a4aad896f0756f69397a6eaeb7014193684a83604051610bac91906128c4565b60405180910390a250610bcf565b610bce678fb20cfc0ed3cf8c60c01b611b96565b5b610be367214fcb7a6818cfd960c01b611b96565b610bf7675f0bcbb90e0dd90060c01b611b96565b7f000000000000000000000000000000000000000000000000000000000000000073ffffffffffffffffffffffffffffffffffffffff16633f50adf184886040518363ffffffff1660e01b8152600401610c52929190612e13565b5f604051808303815f87803b158015610c69575f80fd5b505af1925050508015610c7a575060015b610cf957610c92675e228c08ea45a42160c01b611b96565b610ca66736d321bc076f426860c01b611b96565b8573ffffffffffffffffffffffffffffffffffffffff167fb88061c54967fd5e9babc5708c54ec3d2e4a358223a5e32fb7d4cba2f20e395784604051610cec91906128c4565b60405180910390a2610cfa565b5b50505b610d05612330565b9998505050505050505050565b7f000000000000000000000000000000000000000000000000000000000000000081565b5f80610d4c67081e754eb5ae5cca60c01b611b96565b610d606759ff03a9747d741f60c01b611b96565b610d746751479f5f356760c460c01b611b96565b878790508a8a905014610dc757610d95675db1870ec95b6aca60c01b611b96565b6040517fa9854bc900000000000000000000000000000000000000000000000000000000815260040160405180910390fd5b610ddb6710cdd9b00997530460c01b611b96565b610def67e6ee587008cbad1c60c01b611b96565b610e03678daa5307cd92ea8260c01b611b96565b5f73ffffffffffffffffffffffffffffffffffffffff168473ffffffffffffffffffffffffffffffffffffffff1603610e7c57610e4a671668b903848ad9df60c01b611b96565b6040517f26ab8c7c00000000000000000000000000000000000000000000000000000000815260040160405180910390fd5b610e9067d6e36f0a7bfb5c1960c01b611b96565b610ea467978da1360f38a6cd60c01b611b96565b610eb86752fab81a4d59dff260c01b611b96565b60035f9054906101000a90046bffffffffffffffffffffffff166bffffffffffffffffffffffff16836bffffffffffffffffffffffff1614610f3a57610f08676863aff36e4df81060c01b611b96565b6040517f58d620b300000000000000000000000000000000000000000000000000000000815260040160405180910390fd5b610f4e67feb3bba0103ce46a60c01b611b96565b610f62678872437879475da560c01b611b96565b7f000000000000000000000000000000000000000000000000000000000000000073ffffffffffffffffffffffffffffffffffffffff1663683e49498c88888e8e6040518663ffffffff1660e01b8152600401610fc3959493929190612f78565b6020604051808303815f875af1158015610fdf573d5f803e3d5ffd5b505050506040513d601f19601f8201168201806040525081019061100391906130d3565b905061101967e150ba7a4c93b22a60c01b611b96565b60028054905091506110356718bd5569a07a67c060c01b611b96565b611049677b03ba8dc3a3e29b60c01b611b96565b60026040518060800160405280856bffffffffffffffffffffffff1681526020018373ffffffffffffffffffffffffffffffffffffffff1681526020018673ffffffffffffffffffffffffffffffffffffffff1681526020018a8a808060200260200160405190810160405280939291908181526020018383602002808284375f81840152601f19601f82011690508083019250505050505050815250908060018154018082558091505060019003905f5260205f2090600302015f909190919091505f820151815f015f6101000a8154816bffffffffffffffffffffffff02191690836bffffffffffffffffffffffff1602179055506020820151815f01600c6101000a81548173ffffffffffffffffffffffffffffffffffffffff021916908373ffffffffffffffffffffffffffffffffffffffff1602179055506040820151816001015f6101000a81548173ffffffffffffffffffffffffffffffffffffffff021916908373ffffffffffffffffffffffffffffffffffffffff16021790555060608201518160020190805190602001906111e89291906125c4565b5050506111ff670d7f70d7c67d615660c01b611b96565b61121367565dd1e898df7b5260c01b611b96565b8373ffffffffffffffffffffffffffffffffffffffff168173ffffffffffffffffffffffffffffffffffffffff16837f116bd03b0074640426799ac56848def08d0fbc972c3be5a988b3d34cf61c0e6c60405160405180910390a4995099975050505050505050565b5f805f9054906101000a900473ffffffffffffffffffffffffffffffffffffffff1673ffffffffffffffffffffffffffffffffffffffff168273ffffffffffffffffffffffffffffffffffffffff16149050919050565b600281815481106112e2575f80fd5b905f5260205f2090600302015f91509050805f015f9054906101000a90046bffffffffffffffffffffffff1690805f01600c9054906101000a900473ffffffffffffffffffffffffffffffffffffffff1690806001015f9054906101000a900473ffffffffffffffffffffffffffffffffffffffff16905083565b6003600c9054906101000a900473ffffffffffffffffffffffffffffffffffffffff1681565b606061139967ba551b9b07941e9760c01b611b96565b6113ad676c8a2e59fc7b81e660c01b611b96565b6113c1679bf44469ea0d891b60c01b611b96565b600282815481106113d5576113d4612cfa565b5b905f5260205f20906003020160020180548060200260200160405190810160405280929190818152602001828054801561146757602002820191905f5260205f20905f905b82829054906101000a90046bffffffffffffffffffffffff166bffffffffffffffffffffffff16815260200190600c0190602082600b0104928301926001038202915080841161141a5790505b50505050509050919050565b611487678e4ae205d319374860c01b611b96565b61149b678ca6d1f66b974b5060c01b611b96565b6114af673c8409e80270406560c01b611b96565b6114c3675d3f7cb01c4138a260c01b611b96565b7f000000000000000000000000000000000000000000000000000000000000000073ffffffffffffffffffffffffffffffffffffffff166391d148547f0000000000000000000000000000000000000000000000000000000000000000611528611bf2565b6040518363ffffffff1660e01b81526004016115459291906130f8565b602060405180830381865afa158015611560573d5f803e3d5ffd5b505050506040513d601f19601f820116820180604052508101906115849190613125565b6115ce5761159c6745cd02b4e5cc3dc660c01b611b96565b6040517fc183bcef00000000000000000000000000000000000000000000000000000000815260040160405180910390fd5b6115e26740c1406a017db71260c01b611b96565b6115f6675b9b7e80cc78a84e60c01b611b96565b61160a6781217aabda37d77260c01b611b96565b61161e6781c80eb63c5cc6d360c01b611b96565b61163267369ca4be8d28b8ff60c01b611b96565b611646677b54727c86f1df8560c01b611b96565b611388816bffffffffffffffffffffffff1611156116a45761167267bc5b669bf9461a0d60c01b611b96565b6040517fcd4e616700000000000000000000000000000000000000000000000000000000815260040160405180910390fd5b6116b867fbcbb66a07122d9160c01b611b96565b6116cc6732676ac0120243e060c01b611b96565b6116e067b2b942bc72ca1c9e60c01b611b96565b806bffffffffffffffffffffffff1660035f9054906101000a90046bffffffffffffffffffffffff166bffffffffffffffffffffffff167f85918c0b3876da37fc015183d872313d22ea7eab60e9859c8658d429290e20b560405160405180910390a3611757672031695b72947f2a60c01b611b96565b8060035f6101000a8154816bffffffffffffffffffffffff02191690836bffffffffffffffffffffffff16021790555050565b7f000000000000000000000000000000000000000000000000000000000000000081565b7f000000000000000000000000000000000000000000000000000000000000000081565b6117e667b0c861f1cc5cf10760c01b611b96565b6117fa678ca6d1f66b974b5060c01b611b96565b61180e673c8409e80270406560c01b611b96565b611822675d3f7cb01c4138a260c01b611b96565b7f000000000000000000000000000000000000000000000000000000000000000073ffffffffffffffffffffffffffffffffffffffff166391d148547f0000000000000000000000000000000000000000000000000000000000000000611887611bf2565b6040518363ffffffff1660e01b81526004016118a49291906130f8565b602060405180830381865afa1580156118bf573d5f803e3d5ffd5b505050506040513d601f19601f820116820180604052508101906118e39190613125565b61192d576118fb6745cd02b4e5cc3dc660c01b611b96565b6040517fc183bcef00000000000000000000000000000000000000000000000000000000815260040160405180910390fd5b6119416740c1406a017db71260c01b611b96565b611955675b9b7e80cc78a84e60c01b611b96565b61196967bedda03bdbc7670860c01b611b96565b61197d6758654519c5c4d1ea60c01b611b96565b6119916784c831e33989840a60c01b611b96565b6119a5670685fc03a162b7b760c01b611b96565b5f73ffffffffffffffffffffffffffffffffffffffff168173ffffffffffffffffffffffffffffffffffffffff1603611a1e576119ec679cd1741f016168a360c01b611b96565b6040517f140ecf0500000000000000000000000000000000000000000000000000000000815260040160405180910390fd5b611a326770a92ba65f2331f760c01b611b96565b611a466702125e752516812260c01b611b96565b611a5a67fb3be943e862aebb60c01b611b96565b8073ffffffffffffffffffffffffffffffffffffffff166003600c9054906101000a900473ffffffffffffffffffffffffffffffffffffffff1673ffffffffffffffffffffffffffffffffffffffff167f523da6ae20ac3249365e93dcf61dffd12c54a455da42b245514301487fbfd93960405160405180910390a3611aea67f100469296d4da1e60c01b611b96565b806003600c6101000a81548173ffffffffffffffffffffffffffffffffffffffff021916908373ffffffffffffffffffffffffffffffffffffffff16021790555050565b5f805f9054906101000a900473ffffffffffffffffffffffffffffffffffffffff16905090565b60035f9054906101000a90046bffffffffffffffffffffffff1681565b7f000000000000000000000000000000000000000000000000000000000000000081565b50565b600260015403611bde576040517f08c379a0000000000000000000000000000000000000000000000000000000008152600401611bd59061314e565b60405180910390fd5b6002600181905550565b5f60019050919050565b5f60145f36905010158015611c0c5750611c0b3361127c565b5b15611c2057601436033560601c9050611c24565b3390505b90565b611c2f612689565b611c43672ba32907e0ab9cf060c01b611b96565b611c57679adb577fbc75872b60c01b611b96565b611c6b672a5b97c9421f248a60c01b611b96565b6002805490508610611cbd57611c8b672884a9d2f39b422860c01b611b96565b6040517f892a6c5600000000000000000000000000000000000000000000000000000000815260040160405180910390fd5b611cd167791638cfd7c0a8c660c01b611b96565b611ce5679f53ce9f6444c2d160c01b611b96565b611cf967c44b36919e86df2c60c01b611b96565b5f8563ffffffff1603611d4c57611d1a67b878e69c0b26c19d60c01b611b96565b6040517f524f409b00000000000000000000000000000000000000000000000000000000815260040160405180910390fd5b611d606797f7afb182c9492260c01b611b96565b611d7467550ba0a7916016d560c01b611b96565b611d88671e9eb364b01154d260c01b611b96565b5f60028781548110611d9d57611d9c612cfa565b5b905f5260205f2090600302019050611dbf67d6630c387ff83e3e60c01b611b96565b611dd3675ddd65c4e9da1d7260c01b611b96565b5f815f01600c9054906101000a900473ffffffffffffffffffffffffffffffffffffffff169050611e0e67916e1ef34150682c60c01b611b96565b611e2267a81c75cfc4ced5fc60c01b611b96565b5f819050611e3a671d3b8e181096462e60c01b611b96565b611e4e67b31ea1f3d5a0741a60c01b611b96565b5f8173ffffffffffffffffffffffffffffffffffffffff166375794a3c6040518163ffffffff1660e01b8152600401602060405180830381865afa158015611e98573d5f803e3d5ffd5b505050506040513d601f19601f82011682018060405250810190611ebc919061318b565b9050611ed26760e2c78e7e382e2b60c01b611b96565b611ee6676153e29b41ed741b60c01b611b96565b8173ffffffffffffffffffffffffffffffffffffffff1663daefb20c878b8b8b6040518563ffffffff1660e01b8152600401611f2594939291906131a5565b5f604051808303815f87803b158015611f3c575f80fd5b505af1158015611f4e573d5f803e3d5ffd5b50505050611f6667a6799537b93e78ff60c01b611b96565b611f7a6742c842d3f6a7f3b060c01b611b96565b611f8e6723d89522fca6e0fd60c01b611b96565b5f846002018373ffffffffffffffffffffffffffffffffffffffff166345c16a226040518163ffffffff1660e01b8152600401602060405180830381865afa158015611fdc573d5f803e3d5ffd5b505050506040513d601f19601f820116820180604052508101906120009190613221565b60ff168154811061201457612013612cfa565b5b905f5260205f209060029182820401919006600c029054906101000a90046bffffffffffffffffffffffff169050612056675ccbfd9201fd53f160c01b611b96565b61206a67b680e2cf9d32f91060c01b611b96565b5f816bffffffffffffffffffffffff1611156121ef5761209467226175bf4c83090360c01b611b96565b6120a86707e6d2055cf601ec60c01b611b96565b6120bc6796f8eb29c73049b960c01b611b96565b5f8a63ffffffff16826120cf9190613246565b90506120e5676b05baf9018b2d1460c01b611b96565b80875f01906bffffffffffffffffffffffff1690816bffffffffffffffffffffffff168152505061212067a7812c60aa97d16460c01b611b96565b856001015f9054906101000a900473ffffffffffffffffffffffffffffffffffffffff16876040019073ffffffffffffffffffffffffffffffffffffffff16908173ffffffffffffffffffffffffffffffffffffffff168152505061218f671f9d908385368c7560c01b611b96565b612710865f015f9054906101000a90046bffffffffffffffffffffffff16826121b89190613246565b6121c29190613278565b87602001906bffffffffffffffffffffffff1690816bffffffffffffffffffffffff168152505050612204565b612203672d0353437f98b61f60c01b611b96565b5b5061221967fbe2fa2047a9a4e860c01b611b96565b61222d6795331922b9153c5460c01b611b96565b8573ffffffffffffffffffffffffffffffffffffffff168373ffffffffffffffffffffffffffffffffffffffff168b7f3b5bb9dd169f3c5173eaec0ecaa429cfb4cb1b43fe41edc1d98b6e405add8d34848d8a5f0151604051612292939291906132ca565b60405180910390a45050505095945050505050565b61232a846323b872dd60e01b8585856040516024016122c8939291906132fc565b604051602081830303815290604052907bffffffffffffffffffffffffffffffffffffffffffffffffffffffff19166020820180517bffffffffffffffffffffffffffffffffffffffffffffffffffffffff8381831617835250505050612339565b50505050565b60018081905550565b5f61239a826040518060400160405280602081526020017f5361666545524332303a206c6f772d6c6576656c2063616c6c206661696c65648152508573ffffffffffffffffffffffffffffffffffffffff166123ff9092919063ffffffff16565b90505f815114806123bb5750808060200190518101906123ba9190613125565b5b6123fa576040517f08c379a00000000000000000000000000000000000000000000000000000000081526004016123f190613334565b60405180910390fd5b505050565b606061240d84845f85612416565b90509392505050565b60608247101561245b576040517f08c379a000000000000000000000000000000000000000000000000000000000815260040161245290613397565b60405180910390fd5b5f808673ffffffffffffffffffffffffffffffffffffffff1685876040516124839190613422565b5f6040518083038185875af1925050503d805f81146124bd576040519150601f19603f3d011682016040523d82523d5f602084013e6124c2565b606091505b50915091506124d3878383876124df565b92505050949350505050565b60608315612540575f835103612538576124f885612553565b612537576040517f08c379a000000000000000000000000000000000000000000000000000000000815260040161252e9061343f565b60405180910390fd5b5b82905061254b565b61254a8383612575565b5b949350505050565b5f808273ffffffffffffffffffffffffffffffffffffffff163b119050919050565b5f825111156125875781518083602001fd5b806040517f08c379a00000000000000000000000000000000000000000000000000000000081526004016125bb919061347c565b60405180910390fd5b828054828255905f5260205f2090600101600290048101928215612678579160200282015f5b8382111561263e57835183826101000a8154816bffffffffffffffffffffffff02191690836bffffffffffffffffffffffff1602179055509260200192600c01602081600b010492830192600103026125ea565b80156126765782816101000a8154906bffffffffffffffffffffffff0219169055600c01602081600b0104928301926001030261263e565b505b50905061268591906126d9565b5090565b60405180606001604052805f6bffffffffffffffffffffffff1681526020015f6bffffffffffffffffffffffff1681526020015f73ffffffffffffffffffffffffffffffffffffffff1681525090565b5b808211156126f0575f815f9055506001016126da565b5090565b5f60208201905082825292915050565b5f60208201905073ffffffffffffffffffffffffffffffffffffffff8316825292915050565b5f8083601f84011261273a575f80fd5b8235905067ffffffffffffffff811115612752575f80fd5b6020830191508360208260051b850101111561276c575f80fd5b9250929050565b73ffffffffffffffffffffffffffffffffffffffff81168114612794575f80fd5b50565b5f813590506127a581612773565b919050565b5f805f805f805f805f60a08a8c0312156127c2575f80fd5b893567ffffffffffffffff808211156127d9575f80fd5b6127e58d838e0161272a565b9250809b505081995060208c0135915080821115612801575f80fd5b61280d8d838e0161272a565b92508099505081975060408c0135915080821115612829575f80fd5b6128358d838e0161272a565b92508097505081955060608c0135915061284e82612773565b81945060808c0135915080821115612864575f80fd5b818c0191508c601f830112612877575f80fd5b813581811115612885575f80fd5b8d6020828501011115612896575f80fd5b6020830194508093505050509295985092959850929598565b6bffffffffffffffffffffffff811682525050565b5f6020820190506bffffffffffffffffffffffff8316825292915050565b5f60208201905073ffffffffffffffffffffffffffffffffffffffff8316825292915050565b5f8083601f840112612918575f80fd5b8235905067ffffffffffffffff811115612930575f80fd5b60208301915083602060608302850101111561294a575f80fd5b9250929050565b5f8135905063ffffffff81168114612967575f80fd5b919050565b5f813590506bffffffffffffffffffffffff8116811461298a575f80fd5b919050565b5f805f805f805f805f60e08a8c0312156129a7575f80fd5b893567ffffffffffffffff808211156129be575f80fd5b818c01915060e0828e0312156129d2575f80fd5b819a5060208c01359150808211156129e8575f80fd5b6129f48d838e01612908565b9250809a505081985060408c0135915080821115612a10575f80fd5b50612a1d8c828d0161272a565b91508097505080955050612a3360608b01612951565b9350612a4160808b01612951565b9250612a4f60a08b01612797565b9150612a5d60c08b0161296c565b90509295985092959850929598565b5f60408201905083825273ffffffffffffffffffffffffffffffffffffffff831660208301529392505050565b5f60208284031215612aa9575f80fd5b8135612ab481612773565b8091505092915050565b5f602082019050821515825292915050565b5f60208284031215612ae0575f80fd5b8135905092915050565b73ffffffffffffffffffffffffffffffffffffffff811682525050565b5f6060820190506bffffffffffffffffffffffff8516825273ffffffffffffffffffffffffffffffffffffffff8085166020840152808416604084015250949350505050565b5f60208201905073ffffffffffffffffffffffffffffffffffffffff8316825292915050565b5f602080830181845280855180835260408601915083870192505f5b81811015612bbe576bffffffffffffffffffffffff845116835284830192508484019350600181019050612b8f565b505080935050505092915050565b5f60208284031215612bdc575f80fd5b612be58261296c565b905092915050565b5f60208201905082825292915050565b5f60208201905073ffffffffffffffffffffffffffffffffffffffff8316825292915050565b5f60208201905073ffffffffffffffffffffffffffffffffffffffff8316825292915050565b60ff81168114612c57575f80fd5b50565b5f805f805f60a08688031215612c6e575f80fd5b85359450602086013593506040860135612c8781612c49565b8093505060608601359150608086013590509295509295909350565b5f60e08201905073ffffffffffffffffffffffffffffffffffffffff808a16835280891660208401525086604083015285606083015260ff851660808301528360a08301528260c083015298975050505050505050565b7f4e487b71000000000000000000000000000000000000000000000000000000005f52603260045260245ffd5b5f60208284031215612d37575f80fd5b612d4082612951565b905092915050565b5f8083357fffffffffffffffffffffffffffffffffffffffffffffffffffffffffffffffe1843603018112612d7b575f80fd5b80840190508035915067ffffffffffffffff821115612d98575f80fd5b602081019250508060051b3603821315612db0575f80fd5b9250929050565b7f4e487b71000000000000000000000000000000000000000000000000000000005f52601160045260245ffd5b5f6bffffffffffffffffffffffff80841681841601915080821115612e0c57612e0b612db7565b5b5092915050565b5f6040820190506bffffffffffffffffffffffff8416825273ffffffffffffffffffffffffffffffffffffffff831660208301529392505050565b5f8083357fffffffffffffffffffffffffffffffffffffffffffffffffffffffffffffffe1843603018112612e81575f80fd5b8381019050803591506020810192505067ffffffffffffffff811115612ea5575f80fd5b803603821315612eb3575f80fd5b9250929050565b81835281816020850137505f602082840101525f60207fffffffffffffffffffffffffffffffffffffffffffffffffffffffffffffffe0601f840116840101905092915050565b63ffffffff811682525050565b8183525f60208085019450825f5b85811015612f6b5763ffffffff80612f3384612951565b16885280612f42858501612951565b168489015250604080830135818901525060608088019750808301925050600181019050612f1c565b5050508390509392505050565b608081525f612f878788612e4e565b60e06080850152612f9d61016085018284612eba565b915050612fad6020890189612e4e565b7fffffffffffffffffffffffffffffffffffffffffffffffffffffffffffffff80808685030160a0870152612fe3848385612eba565b9350612ff260408c018c612e4e565b93509150808685030160c087015261300b848484612eba565b935061301a60608c018c612e4e565b93509150808685030160e0870152613033848484612eba565b935061304260808c018c612e4e565b9350915080868503016101008701525061305d838383612eba565b9250505060a088013561306f81612773565b61307d610120850182612aea565b5061308a60c0890161296c565b6130986101408501826128af565b506130a66020840188612f01565b6130b36040840187612f01565b82810360608401526130c6818587612f0e565b9150509695505050505050565b5f602082840312156130e3575f80fd5b81516130ee81612773565b8091505092915050565b5f60408201905083825273ffffffffffffffffffffffffffffffffffffffff831660208301529392505050565b5f60208284031215613135575f80fd5b81518015158114613144575f80fd5b8091505092915050565b60208152601f60208201527f5265656e7472616e637947756172643a207265656e7472616e742063616c6c0060408201525f606082019050919050565b5f6020828403121561319b575f80fd5b8151905092915050565b73ffffffffffffffffffffffffffffffffffffffff8516815263ffffffff84166020820152606060408201528160608201525f7f07ffffffffffffffffffffffffffffffffffffffffffffffffffffffffffffff831115613204575f80fd5b8260051b8085608085013760808184010191505095945050505050565b5f60208284031215613231575f80fd5b815161323c81612c49565b8091505092915050565b5f6bffffffffffffffffffffffff8084168184160281811692508083146132705761326f612db7565b5b505092915050565b5f6bffffffffffffffffffffffff808416806132bb577f4e487b71000000000000000000000000000000000000000000000000000000005f52601260045260245ffd5b80828516049250505092915050565b5f60608201905084825263ffffffff841660208301526bffffffffffffffffffffffff83166040830152949350505050565b5f60608201905073ffffffffffffffffffffffffffffffffffffffff8086168352808516602084015250826040830152949350505050565b60208152602a60208201527f5361666545524332303a204552433230206f7065726174696f6e20646964206e60408201527f6f7420737563636565640000000000000000000000000000000000000000000060608201525f608082019050919050565b60208152602660208201527f416464726573733a20696e73756666696369656e742062616c616e636520666f60408201527f722063616c6c000000000000000000000000000000000000000000000000000060608201525f608082019050919050565b5f5b838110156134175780820151818401526020810190506133fc565b505f83830152505050565b5f82516134338184602087016133fa565b80830191505092915050565b60208152601d60208201527f416464726573733a2063616c6c20746f206e6f6e2d636f6e747261637400000060408201525f606082019050919050565b602081525f825180602084015261349a8160408501602087016133fa565b60407fffffffffffffffffffffffffffffffffffffffffffffffffffffffffffffffe0601f8301168401019150509291505056fea2646970667358221220ee3676773198795970edc44cfc60950e94c895a2d23cf374c329abbd9a016f9264736f6c63430008150033",
  "linkReferences": {},
  "deployedLinkReferences": {}
}