{
  "_format": "hh-sol-artifact-1",
  "contractName": "EeseeDrops",
  "sourceName": "contracts/marketplace/EeseeDrops.sol",
  "abi": [
    {
      "inputs": [
        {
          "internalType": "contract IERC20",
          "name": "_ESE",
          "type": "address"
        },
        {
          "internalType": "address",
          "name": "_feeSplitter",
          "type": "address"
        },
        {
          "internalType": "contract IEeseeMinter",
          "name": "_minter",
          "type": "address"
        },
        {
          "internalType": "contract IEeseeStaking",
          "name": "_staking",
          "type": "address"
        },
        {
          "internalType": "contract IEeseeAccessManager",
          "name": "_accessManager",
          "type": "address"
        },
        {
          "internalType": "address",
          "name": "trustedForwarder",
          "type": "address"
        }
      ],
      "stateMutability": "nonpayable",
      "type": "constructor"
    },
    {
      "inputs": [],
      "name": "CallerNotAuthorized",
      "type": "error"
    },
    {
      "inputs": [],
      "name": "FeeTooHigh",
      "type": "error"
    },
    {
      "inputs": [],
      "name": "InvalidArrayLengths",
      "type": "error"
    },
    {
      "inputs": [],
      "name": "InvalidConstructor",
      "type": "error"
    },
    {
      "inputs": [],
      "name": "InvalidEarningsCollector",
      "type": "error"
    },
    {
      "inputs": [],
      "name": "InvalidQuantity",
      "type": "error"
    },
    {
      "anonymous": false,
      "inputs": [
        {
          "indexed": true,
          "internalType": "uint96",
          "name": "previousFee",
          "type": "uint96"
        },
        {
          "indexed": true,
          "internalType": "uint96",
          "name": "newFee",
          "type": "uint96"
        }
      ],
      "name": "ChangeFee",
      "type": "event"
    },
    {
      "anonymous": false,
      "inputs": [
        {
          "indexed": true,
          "internalType": "address",
          "name": "to",
          "type": "address"
        },
        {
          "indexed": false,
          "internalType": "uint96",
          "name": "amount",
          "type": "uint96"
        }
      ],
      "name": "CollectFee",
      "type": "event"
    },
    {
      "anonymous": false,
      "inputs": [
        {
          "indexed": true,
          "internalType": "uint256",
          "name": "ID",
          "type": "uint256"
        },
        {
          "indexed": true,
          "internalType": "contract IERC721",
          "name": "collection",
          "type": "address"
        },
        {
          "indexed": true,
          "internalType": "address",
          "name": "earningsCollector",
          "type": "address"
        }
      ],
      "name": "ListDrop",
      "type": "event"
    },
    {
      "anonymous": false,
      "inputs": [
        {
          "indexed": true,
          "internalType": "uint256",
          "name": "ID",
          "type": "uint256"
        },
        {
          "indexed": true,
          "internalType": "contract IERC721",
          "name": "collection",
          "type": "address"
        },
        {
          "indexed": true,
          "internalType": "address",
          "name": "recipient",
          "type": "address"
        },
        {
          "indexed": false,
          "internalType": "uint256",
          "name": "fromTokenID",
          "type": "uint256"
        },
        {
          "indexed": false,
          "internalType": "uint32",
          "name": "quantity",
          "type": "uint32"
        },
        {
          "indexed": false,
          "internalType": "uint96",
          "name": "mintPrice",
          "type": "uint96"
        }
      ],
      "name": "MintDrop",
      "type": "event"
    },
    {
      "inputs": [],
      "name": "ADMIN_ROLE",
      "outputs": [
        {
          "internalType": "bytes32",
          "name": "",
          "type": "bytes32"
        }
      ],
      "stateMutability": "view",
      "type": "function"
    },
    {
      "inputs": [],
      "name": "ESE",
      "outputs": [
        {
          "internalType": "contract IERC20",
          "name": "",
          "type": "address"
        }
      ],
      "stateMutability": "view",
      "type": "function"
    },
    {
      "inputs": [],
      "name": "accessManager",
      "outputs": [
        {
          "internalType": "contract IEeseeAccessManager",
          "name": "",
          "type": "address"
        }
      ],
      "stateMutability": "view",
      "type": "function"
    },
    {
      "inputs": [
        {
          "internalType": "uint96",
          "name": "_fee",
          "type": "uint96"
        }
      ],
      "name": "changeFee",
      "outputs": [],
      "stateMutability": "nonpayable",
      "type": "function"
    },
    {
      "inputs": [
        {
          "internalType": "uint256",
          "name": "",
          "type": "uint256"
        }
      ],
      "name": "drops",
      "outputs": [
        {
          "internalType": "uint96",
          "name": "fee",
          "type": "uint96"
        },
        {
          "internalType": "contract IERC721",
          "name": "collection",
          "type": "address"
        },
        {
          "internalType": "address",
          "name": "earningsCollector",
          "type": "address"
        }
      ],
      "stateMutability": "view",
      "type": "function"
    },
    {
      "inputs": [],
      "name": "fee",
      "outputs": [
        {
          "internalType": "uint96",
          "name": "",
          "type": "uint96"
        }
      ],
      "stateMutability": "view",
      "type": "function"
    },
    {
      "inputs": [],
      "name": "feeSplitter",
      "outputs": [
        {
          "internalType": "address",
          "name": "",
          "type": "address"
        }
      ],
      "stateMutability": "view",
      "type": "function"
    },
    {
      "inputs": [],
      "name": "getDropsLength",
      "outputs": [
        {
          "internalType": "uint256",
          "name": "length",
          "type": "uint256"
        }
      ],
      "stateMutability": "view",
      "type": "function"
    },
    {
      "inputs": [
        {
          "internalType": "uint256",
          "name": "ID",
          "type": "uint256"
        }
      ],
      "name": "getMintPrices",
      "outputs": [
        {
          "internalType": "uint96[]",
          "name": "",
          "type": "uint96[]"
        }
      ],
      "stateMutability": "view",
      "type": "function"
    },
    {
      "inputs": [],
      "name": "getTrustedForwarder",
      "outputs": [
        {
          "internalType": "address",
          "name": "forwarder",
          "type": "address"
        }
      ],
      "stateMutability": "view",
      "type": "function"
    },
    {
      "inputs": [
        {
          "internalType": "address",
          "name": "forwarder",
          "type": "address"
        }
      ],
      "name": "isTrustedForwarder",
      "outputs": [
        {
          "internalType": "bool",
          "name": "",
          "type": "bool"
        }
      ],
      "stateMutability": "view",
      "type": "function"
    },
    {
      "inputs": [
        {
          "components": [
            {
              "internalType": "string",
              "name": "name",
              "type": "string"
            },
            {
              "internalType": "string",
              "name": "symbol",
              "type": "string"
            },
            {
              "internalType": "string",
              "name": "baseURI",
              "type": "string"
            },
            {
              "internalType": "string",
              "name": "revealedURI",
              "type": "string"
            },
            {
              "internalType": "string",
              "name": "contractURI",
              "type": "string"
            },
            {
              "internalType": "address",
              "name": "royaltyReceiver",
              "type": "address"
            },
            {
              "internalType": "uint96",
              "name": "royaltyFeeNumerator",
              "type": "uint96"
            }
          ],
          "internalType": "struct DropMetadata",
          "name": "metadata",
          "type": "tuple"
        },
        {
          "components": [
            {
              "internalType": "uint32",
              "name": "duration",
              "type": "uint32"
            },
            {
              "internalType": "uint32",
              "name": "perAddressMintLimit",
              "type": "uint32"
            },
            {
              "internalType": "bytes32",
              "name": "allowListMerkleRoot",
              "type": "bytes32"
            }
          ],
          "internalType": "struct IEeseeNFTDrop.StageOptions[]",
          "name": "stages",
          "type": "tuple[]"
        },
        {
          "internalType": "uint96[]",
          "name": "mintPrices",
          "type": "uint96[]"
        },
        {
          "internalType": "uint32",
          "name": "mintLimit",
          "type": "uint32"
        },
        {
          "internalType": "uint32",
          "name": "mintStartTimestamp",
          "type": "uint32"
        },
        {
          "internalType": "address",
          "name": "earningsCollector",
          "type": "address"
        }
      ],
      "name": "listDrop",
      "outputs": [
        {
          "internalType": "uint256",
          "name": "ID",
          "type": "uint256"
        },
        {
          "internalType": "contract IERC721",
          "name": "collection",
          "type": "address"
        }
      ],
      "stateMutability": "nonpayable",
      "type": "function"
    },
    {
      "inputs": [
        {
          "internalType": "uint256[]",
          "name": "IDs",
          "type": "uint256[]"
        },
        {
          "internalType": "uint32[]",
          "name": "quantities",
          "type": "uint32[]"
        },
        {
          "internalType": "bytes32[][]",
          "name": "merkleProofs",
          "type": "bytes32[][]"
        },
        {
          "internalType": "address",
          "name": "recipient",
          "type": "address"
        },
        {
          "internalType": "bytes",
          "name": "permit",
          "type": "bytes"
        }
      ],
      "name": "mintDrops",
      "outputs": [
        {
          "internalType": "uint96",
          "name": "mintPrice",
          "type": "uint96"
        }
      ],
      "stateMutability": "nonpayable",
      "type": "function"
    },
    {
      "inputs": [],
      "name": "minter",
      "outputs": [
        {
          "internalType": "contract IEeseeMinter",
          "name": "",
          "type": "address"
        }
      ],
      "stateMutability": "view",
      "type": "function"
    },
    {
      "inputs": [],
      "name": "staking",
      "outputs": [
        {
          "internalType": "contract IEeseeStaking",
          "name": "",
          "type": "address"
        }
      ],
      "stateMutability": "view",
      "type": "function"
    }
  ],
  "bytecode": "0x61014060405261025860025f6101000a8154816bffffffffffffffffffffffff02191690836bffffffffffffffffffffffff16021790555034801562000043575f80fd5b506040516200378838038062003788833981810160405281019062000069919062000640565b6200008567b878e69c0b26c19d60c01b620005da60201b60201c565b620000a16797f7afb182c9492260c01b620005da60201b60201c565b620000bd67550ba0a7916016d560c01b620005da60201b60201c565b5f73ffffffffffffffffffffffffffffffffffffffff168673ffffffffffffffffffffffffffffffffffffffff1614801562000111575062000110671e9eb364b01154d260c01b620005dd60201b60201c565b5b806200019257505f73ffffffffffffffffffffffffffffffffffffffff168573ffffffffffffffffffffffffffffffffffffffff161480156200016c57506200016b67d6630c387ff83e3e60c01b620005dd60201b60201c565b5b801562000191575062000190675ddd65c4e9da1d7260c01b620005dd60201b60201c565b5b5b806200021357505f73ffffffffffffffffffffffffffffffffffffffff168473ffffffffffffffffffffffffffffffffffffffff16148015620001ed5750620001ec67916e1ef34150682c60c01b620005dd60201b60201c565b5b80156200021257506200021167a81c75cfc4ced5fc60c01b620005dd60201b60201c565b5b5b806200029457505f73ffffffffffffffffffffffffffffffffffffffff168373ffffffffffffffffffffffffffffffffffffffff161480156200026e57506200026d671d3b8e181096462e60c01b620005dd60201b60201c565b5b80156200029357506200029267b31ea1f3d5a0741a60c01b620005dd60201b60201c565b5b5b80620002f057505f73ffffffffffffffffffffffffffffffffffffffff168273ffffffffffffffffffffffffffffffffffffffff16148015620002ef5750620002ee6760e2c78e7e382e2b60c01b620005dd60201b60201c565b5b5b15620003445762000312676153e29b41ed741b60c01b620005da60201b60201c565b6040517f12c1701b00000000000000000000000000000000000000000000000000000000815260040160405180910390fd5b6200036067a6799537b93e78ff60c01b620005da60201b60201c565b6200037c6742c842d3f6a7f3b060c01b620005da60201b60201c565b8573ffffffffffffffffffffffffffffffffffffffff1660808173ffffffffffffffffffffffffffffffffffffffff1681525050620003cc6723d89522fca6e0fd60c01b620005da60201b60201c565b8473ffffffffffffffffffffffffffffffffffffffff166101208173ffffffffffffffffffffffffffffffffffffffff16815250506200041d675ccbfd9201fd53f160c01b620005da60201b60201c565b8373ffffffffffffffffffffffffffffffffffffffff1660a08173ffffffffffffffffffffffffffffffffffffffff16815250506200046d67b680e2cf9d32f91060c01b620005da60201b60201c565b8273ffffffffffffffffffffffffffffffffffffffff1660c08173ffffffffffffffffffffffffffffffffffffffff1681525050620004bd67226175bf4c83090360c01b620005da60201b60201c565b8173ffffffffffffffffffffffffffffffffffffffff1660e08173ffffffffffffffffffffffffffffffffffffffff16815250506200050d6707e6d2055cf601ec60c01b620005da60201b60201c565b8173ffffffffffffffffffffffffffffffffffffffff166375b238fc6040518163ffffffff1660e01b8152600401602060405180830381865afa15801562000557573d5f803e3d5ffd5b505050506040513d601f19601f820116820180604052508101906200057d9190620006d5565b6101008181525050620005a16796f8eb29c73049b960c01b620005da60201b60201c565b620005bd676b05baf9018b2d1460c01b620005da60201b60201c565b620005ce81620005e760201b60201c565b505050505050620006f0565b50565b5f60019050919050565b805f806101000a81548173ffffffffffffffffffffffffffffffffffffffff021916908373ffffffffffffffffffffffffffffffffffffffff16021790555050565b60018060a01b03811681146200063d575f80fd5b50565b5f805f805f8060c0878903121562000656575f80fd5b8651620006638162000629565b809650506020870151620006778162000629565b8095505060408701516200068b8162000629565b8094505060608701516200069f8162000629565b809350506080870151620006b38162000629565b8092505060a0870151620006c78162000629565b809150509295509295509295565b5f60208284031215620006e6575f80fd5b8151905092915050565b60805160a05160c05160e051610100516101205161301f620007695f395f8181610bb501528181610c340152610e8001525f818161100c015261126801525f8181610fd0015261179401525f8181610ce40152610d7b01525f818161034a015261144501525f81816107a5015261128c015261301f5ff3fe608060405234801561000f575f80fd5b50600436106100f3575f3560e01c80636718a31811610095578063ce1b815f11610064578063ce1b815f14610289578063d695ea4b146102a7578063ddca3f43146102d8578063fdcb6068146102f6576100f3565b80636718a318146102015780636b7a22001461023157806375b238fc1461024d578063764bd0c51461026b576100f3565b80634cf088d9116100d15780634cf088d914610163578063572b6c05146101815780635eb39968146101b15780636052970c146101e3576100f3565b8063061d57af146100f7578063075461721461011557806342fbeae014610133575b5f80fd5b6100ff610314565b60405161010c919061222e565b60405180910390f35b61011d610348565b60405161012a919061223e565b60405180910390f35b61014d600480360381019061014891906122e4565b61036c565b60405161015a91906123fe565b60405180910390f35b61016b610d79565b604051610178919061241c565b60405180910390f35b61019b60048036038101906101969190612442565b610d9d565b6040516101a89190612467565b60405180910390f35b6101cb60048036038101906101c69190612479565b610df4565b6040516101da939291906124b0565b60405180910390f35b6101eb610e7e565b6040516101f891906124f6565b60405180910390f35b61021b60048036038101906102169190612479565b610ea2565b604051610228919061251c565b60405180910390f35b61024b60048036038101906102469190612598565b610f92565b005b610255611266565b60405161026291906125b9565b60405180910390f35b61027361128a565b60405161028091906125c9565b60405180910390f35b6102916112ae565b60405161029e91906124f6565b60405180910390f35b6102c160048036038101906102bc9190612653565b6112d5565b6040516102cf929190612721565b60405180910390f35b6102e0611775565b6040516102ed91906123fe565b60405180910390f35b6102fe611792565b60405161030b919061274e565b60405180910390f35b5f610329671a065bd86820ea3d60c01b6117b6565b61033d673c748242a1bc04c160c01b6117b6565b600180549050905090565b7f000000000000000000000000000000000000000000000000000000000000000081565b5f610381677d7b25f66b1c25e960c01b6117b6565b61039567264e45a3af2b318c60c01b6117b6565b6103a96759ad968058179af860c01b6117b6565b878790508a8a9050141580156103cf57506103ce67afae32ef6503cb0760c01b6117b9565b5b806103fc5750858590508a8a9050141580156103fb57506103fa6780457d756003277b60c01b6117b9565b5b5b1561044757610415679ece83d76ecb333360c01b6117b6565b6040517fa9854bc900000000000000000000000000000000000000000000000000000000815260040160405180910390fd5b61045b679e6d769a6577f59160c01b6117b6565b61046f67ea8fe6520d9f8e3c60c01b6117b6565b610483676894877e31d39af260c01b6117b6565b5f8a8a905067ffffffffffffffff8111156104a1576104a0612774565b5b6040519080825280602002602001820160405280156104cf5781602001602082028036833780820191505090505b5090506104e667aa0dd7b75c759d4360c01b6117b6565b6104fa6783d7de158ed7a16760c01b6117b6565b5f8b8b905067ffffffffffffffff81111561051857610517612774565b5b6040519080825280602002602001820160405280156105465781602001602082028036833780820191505090505b50905061055d67073f73e42be7f72360c01b6117b6565b61057167fb1ab2310a4e1c0560c01b6117b6565b5f610586671ef18cd4ee6699a760c01b6117b6565b61059a67c67e9bd0dfad58e260c01b6117b6565b5f5b8d8d9050811015610779576105bb67dd0a4bd1aedbdb4b60c01b6117b6565b6105cf674c81bd91d524587f60c01b6117b6565b5f6106408f8f848181106105e6576105e56127a1565b5b905060200201358e8e85818110610600576105ff6127a1565b5b905060200201602081019061061591906127ce565b8d8d86818110610628576106276127a1565b5b905060200281019061063a91906127ef565b8d6117c3565b9050610656671f3375fae8901e7c60c01b6117b6565b806040015185838151811061066e5761066d6127a1565b5b602002602001019073ffffffffffffffffffffffffffffffffffffffff16908173ffffffffffffffffffffffffffffffffffffffff16815250506106bc6732387156ac562c6a60c01b6117b6565b805f0151866106cb919061288b565b95506106e1675d0d82f30b28f0f860c01b6117b6565b6106f567e8b9c0e6bda1c36d60c01b6117b6565b8060200151815f015103848381518110610712576107116127a1565b5b60200260200101906bffffffffffffffffffffffff1690816bffffffffffffffffffffffff168152505061075067ee06569f6460c73860c01b6117b6565b80602001518301925061076d675ffd97dbeed9b60360c01b6117b6565b8160010191505061059c565b5061078e67ec641760234acd1c60c01b6117b6565b6107a267ac1f5b898ec4649360c01b6117b6565b5f7f000000000000000000000000000000000000000000000000000000000000000090506107da67acff55c5311d894d60c01b6117b6565b6107ee679cc7f30087c6b7cf60c01b6117b6565b5f6107f7611db5565b905061080d67985021c11e980d0860c01b6117b6565b61082167b2d0398c148a3bc360c01b6117b6565b5f88889050146109295761083f6726ef3d1b8d61b83360c01b6117b6565b610853674374a7da3eafe6a160c01b6117b6565b61086767d97a8d2683fc2c1c60c01b6117b6565b5f805f805f8c8c81019061087b91906128cb565b945094509450945094506108996711f460368ef3b31860c01b6117b6565b6108ad67784dc4ea29b95fc160c01b6117b6565b8673ffffffffffffffffffffffffffffffffffffffff1663d505accf873088888888886040518863ffffffff1660e01b81526004016108f29796959493929190612914565b5f604051808303815f87803b158015610909575f80fd5b505af115801561091b573d5f803e3d5ffd5b50505050505050505061093e565b61093d670b440a8e57de693860c01b6117b6565b5b6109526773fac807afab5de560c01b6117b6565b61096667ab1f7a95068954dc60c01b6117b6565b5f866bffffffffffffffffffffffff16036109b05761098f677cabc02607ad239160c01b6117b6565b6109a367fca32885030b7ba760c01b6117b6565b5f95505050505050610d6c565b6109c467e8df35b4b256ba2560c01b6117b6565b6109d867216884fd2bef6e8a60c01b6117b6565b6109ec677ec5bbaf2aaf295360c01b6117b6565b5f5b8f8f9050811015610b3457610a0d67ebaad7a831e8500060c01b6117b6565b610a216776da8d973ff1d6ee60c01b6117b6565b5f858281518110610a3557610a346127a1565b5b60200260200101516bffffffffffffffffffffffff1614610aec57610a6467b13358b96990711b60c01b6117b6565b610a7867304ed92d357b0a1e60c01b6117b6565b610ae782878381518110610a8f57610a8e6127a1565b5b6020026020010151878481518110610aaa57610aa96127a1565b5b60200260200101516bffffffffffffffffffffffff168673ffffffffffffffffffffffffffffffffffffffff16611dea909392919063ffffffff16565b610b01565b610b0067f23054b1ac8adfac60c01b6117b6565b5b610b15678145582ea5257e9960c01b6117b6565b610b2967c121515e33a6682260c01b6117b6565b8060010190506109ee565b50610b49676f1abfb4ebc0f8b660c01b6117b6565b610b5d673a9f83b63f5f9c3760c01b6117b6565b5f836bffffffffffffffffffffffff161115610ca557610b876717a07c077c5b5bc560c01b6117b6565b610b9b67bf21c70d6aa9714e60c01b6117b6565b610baf675dfca61d1840693560c01b6117b6565b610c0a817f0000000000000000000000000000000000000000000000000000000000000000856bffffffffffffffffffffffff168573ffffffffffffffffffffffffffffffffffffffff16611dea909392919063ffffffff16565b610c1e674050bed5e6d1db5a60c01b6117b6565b610c32678fea95397f19a0c160c01b6117b6565b7f000000000000000000000000000000000000000000000000000000000000000073ffffffffffffffffffffffffffffffffffffffff167f194055900b5891c5b0c846e80054a4aad896f0756f69397a6eaeb7014193684a84604051610c9891906123fe565b60405180910390a2610cba565b610cb967612d35a642aa48d160c01b6117b6565b5b610cce67ef5d31bf7a1bf72060c01b6117b6565b610ce267e56bda892c19dcbf60c01b6117b6565b7f000000000000000000000000000000000000000000000000000000000000000073ffffffffffffffffffffffffffffffffffffffff16633f50adf1878b6040518363ffffffff1660e01b8152600401610d3d92919061296b565b5f604051808303815f87803b158015610d54575f80fd5b505af1925050508015610d65575060015b5050505050505b9998505050505050505050565b7f000000000000000000000000000000000000000000000000000000000000000081565b5f805f9054906101000a900473ffffffffffffffffffffffffffffffffffffffff1673ffffffffffffffffffffffffffffffffffffffff168273ffffffffffffffffffffffffffffffffffffffff16149050919050565b60018181548110610e03575f80fd5b905f5260205f2090600302015f91509050805f015f9054906101000a90046bffffffffffffffffffffffff1690805f01600c9054906101000a900473ffffffffffffffffffffffffffffffffffffffff1690806001015f9054906101000a900473ffffffffffffffffffffffffffffffffffffffff16905083565b7f000000000000000000000000000000000000000000000000000000000000000081565b6060610eb867e4505bd3b05765cf60c01b6117b6565b610ecc675ee98f9d30433ca660c01b6117b6565b610ee06709f3e0f282f46e7b60c01b6117b6565b60018281548110610ef457610ef36127a1565b5b905f5260205f209060030201600201805480602002602001604051908101604052809291908181526020018280548015610f8657602002820191905f5260205f20905f905b82829054906101000a90046bffffffffffffffffffffffff166bffffffffffffffffffffffff16815260200190600c0190602082600b01049283019260010382029150808411610f395790505b50505050509050919050565b610fa66796a0d67d48524aff60c01b6117b6565b610fba67acf1dcc8b15b439960c01b6117b6565b610fce675222c3b3096d75a360c01b6117b6565b7f000000000000000000000000000000000000000000000000000000000000000073ffffffffffffffffffffffffffffffffffffffff166391d148547f0000000000000000000000000000000000000000000000000000000000000000611033611db5565b6040518363ffffffff1660e01b81526004016110509291906129a6565b602060405180830381865afa15801561106b573d5f803e3d5ffd5b505050506040513d601f19601f8201168201806040525081019061108f91906129d3565b6110d9576110a767bc79b3b848a4e56060c01b6117b6565b6040517fc183bcef00000000000000000000000000000000000000000000000000000000815260040160405180910390fd5b6110ed67bbd7e9a60490dbb160c01b6117b6565b6111016790978f2d35d4a1c960c01b6117b6565b6111156763382729069852d260c01b6117b6565b6127106bffffffffffffffffffffffff16816bffffffffffffffffffffffff1611156111815761114f67bce07556e2a7387c60c01b6117b6565b6040517fcd4e616700000000000000000000000000000000000000000000000000000000815260040160405180910390fd5b611195677494aa3d176e85ad60c01b6117b6565b6111a96734f31b0e374762e060c01b6117b6565b6111bc66b6f12826ba41fe60c01b6117b6565b806bffffffffffffffffffffffff1660025f9054906101000a90046bffffffffffffffffffffffff166bffffffffffffffffffffffff167f85918c0b3876da37fc015183d872313d22ea7eab60e9859c8658d429290e20b560405160405180910390a36112336747ccdb63f188772860c01b6117b6565b8060025f6101000a8154816bffffffffffffffffffffffff02191690836bffffffffffffffffffffffff16021790555050565b7f000000000000000000000000000000000000000000000000000000000000000081565b7f000000000000000000000000000000000000000000000000000000000000000081565b5f805f9054906101000a900473ffffffffffffffffffffffffffffffffffffffff16905090565b5f806112eb67a7812c60aa97d16460c01b6117b6565b6112ff671f9d908385368c7560c01b6117b6565b611313672d0353437f98b61f60c01b6117b6565b8686905089899050146113665761133467fbe2fa2047a9a4e860c01b6117b6565b6040517fa9854bc900000000000000000000000000000000000000000000000000000000815260040160405180910390fd5b61137a6795331922b9153c5460c01b6117b6565b61138e67a464db6f934a0e0860c01b6117b6565b6113a26750701568866e2eb160c01b6117b6565b5f73ffffffffffffffffffffffffffffffffffffffff168373ffffffffffffffffffffffffffffffffffffffff160361141b576113e967114bcf2ffb36405d60c01b6117b6565b6040517f26ab8c7c00000000000000000000000000000000000000000000000000000000815260040160405180910390fd5b61142f679a80284307a05c5660c01b6117b6565b611443674cd04c6ffb556c5b60c01b6117b6565b7f000000000000000000000000000000000000000000000000000000000000000073ffffffffffffffffffffffffffffffffffffffff1663683e49498b87878d8d6040518663ffffffff1660e01b81526004016114a4959493929190612b26565b6020604051808303815f875af11580156114c0573d5f803e3d5ffd5b505050506040513d601f19601f820116820180604052508101906114e49190612c81565b90506114fa6709ed75f840d03a0d60c01b6117b6565b60018054905091506115166779a86050ae7fab8f60c01b6117b6565b61152a67cf237e9778d120c460c01b6117b6565b6001604051806080016040528060025f9054906101000a90046bffffffffffffffffffffffff166bffffffffffffffffffffffff1681526020018373ffffffffffffffffffffffffffffffffffffffff1681526020018573ffffffffffffffffffffffffffffffffffffffff1681526020018989808060200260200160405190810160405280939291908181526020018383602002808284375f81840152601f19601f82011690508083019250505050505050815250908060018154018082558091505060019003905f5260205f2090600302015f909190919091505f820151815f015f6101000a8154816bffffffffffffffffffffffff02191690836bffffffffffffffffffffffff1602179055506020820151815f01600c6101000a81548173ffffffffffffffffffffffffffffffffffffffff021916908373ffffffffffffffffffffffffffffffffffffffff1602179055506040820151816001015f6101000a81548173ffffffffffffffffffffffffffffffffffffffff021916908373ffffffffffffffffffffffffffffffffffffffff16021790555060608201518160020190805190602001906116e29291906120fe565b5050506116f9676469182a9263725160c01b6117b6565b61170d670fbeb476eea3359c60c01b6117b6565b8273ffffffffffffffffffffffffffffffffffffffff168173ffffffffffffffffffffffffffffffffffffffff16837f116bd03b0074640426799ac56848def08d0fbc972c3be5a988b3d34cf61c0e6c60405160405180910390a49850989650505050505050565b60025f9054906101000a90046bffffffffffffffffffffffff1681565b7f000000000000000000000000000000000000000000000000000000000000000081565b50565b5f60019050919050565b6117cb6121c3565b6117df670d3f1320416787c860c01b6117b6565b6117f36753957a76f83af45560c01b6117b6565b6118076746d55872f741c85c60c01b6117b6565b5f8563ffffffff160361185a5761182867032b1ad4488cab7d60c01b6117b6565b6040517f524f409b00000000000000000000000000000000000000000000000000000000815260040160405180910390fd5b61186e674db02a5f2048d3ce60c01b6117b6565b61188267e2f28bfad8dfd2b960c01b6117b6565b611896670282c3df2a8059f260c01b6117b6565b5f600187815481106118ab576118aa6127a1565b5b905f5260205f20906003020190506118cd6743c9c3edf3ec238660c01b6117b6565b6118e167aa3943ec5189c1eb60c01b6117b6565b5f815f01600c9054906101000a900473ffffffffffffffffffffffffffffffffffffffff16905061191c6726ef2b8243bbe5af60c01b6117b6565b611930679b5a4f705ab6a1d260c01b6117b6565b5f819050611948672f40cb95c6f895e760c01b6117b6565b61195c676bff6cf2a99d20bc60c01b6117b6565b5f8173ffffffffffffffffffffffffffffffffffffffff166375794a3c6040518163ffffffff1660e01b8152600401602060405180830381865afa1580156119a6573d5f803e3d5ffd5b505050506040513d601f19601f820116820180604052508101906119ca9190612ca6565b90506119e067905bcd8aa709812260c01b6117b6565b6119f467e230c7ec592f928c60c01b6117b6565b8173ffffffffffffffffffffffffffffffffffffffff1663daefb20c878b8b8b6040518563ffffffff1660e01b8152600401611a339493929190612cc0565b5f604051808303815f87803b158015611a4a575f80fd5b505af1158015611a5c573d5f803e3d5ffd5b50505050611a74676bf6f7233b849cad60c01b6117b6565b611a8867cf9862677089847060c01b6117b6565b611a9c67cf29ea1c4b0bd94a60c01b6117b6565b5f846002018373ffffffffffffffffffffffffffffffffffffffff166345c16a226040518163ffffffff1660e01b8152600401602060405180830381865afa158015611aea573d5f803e3d5ffd5b505050506040513d601f19601f82011682018060405250810190611b0e9190612d3c565b60ff1681548110611b2257611b216127a1565b5b905f5260205f209060029182820401919006600c029054906101000a90046bffffffffffffffffffffffff169050611b6467738f357076027b4260c01b6117b6565b611b786719ea2398c018813f60c01b6117b6565b5f816bffffffffffffffffffffffff161115611cfd57611ba267a823d894b419914a60c01b6117b6565b611bb667935ea1390b8059fb60c01b6117b6565b611bca67476901af4a2f7c3960c01b6117b6565b5f8a63ffffffff1682611bdd9190612d61565b9050611bf3678013f16fbb577ad060c01b6117b6565b80875f01906bffffffffffffffffffffffff1690816bffffffffffffffffffffffff1681525050611c2e67b14a63122e48c76160c01b6117b6565b856001015f9054906101000a900473ffffffffffffffffffffffffffffffffffffffff16876040019073ffffffffffffffffffffffffffffffffffffffff16908173ffffffffffffffffffffffffffffffffffffffff1681525050611c9d67586f1ebe4ee4527360c01b6117b6565b612710865f015f9054906101000a90046bffffffffffffffffffffffff1682611cc69190612d61565b611cd09190612d93565b87602001906bffffffffffffffffffffffff1690816bffffffffffffffffffffffff168152505050611d12565b611d1167d4bc3181586f482160c01b6117b6565b5b50611d276743699c660f5ba08f60c01b6117b6565b611d3b67f3f0a033af0efbd760c01b6117b6565b8573ffffffffffffffffffffffffffffffffffffffff168373ffffffffffffffffffffffffffffffffffffffff168b7f3b5bb9dd169f3c5173eaec0ecaa429cfb4cb1b43fe41edc1d98b6e405add8d34848d8a5f0151604051611da093929190612de5565b60405180910390a45050505095945050505050565b5f60145f36905010158015611dcf5750611dce33610d9d565b5b15611de357601436033560601c9050611de7565b3390505b90565b611e6d846323b872dd60e01b858585604051602401611e0b93929190612e17565b604051602081830303815290604052907bffffffffffffffffffffffffffffffffffffffffffffffffffffffff19166020820180517bffffffffffffffffffffffffffffffffffffffffffffffffffffffff8381831617835250505050611e73565b50505050565b5f611ed4826040518060400160405280602081526020017f5361666545524332303a206c6f772d6c6576656c2063616c6c206661696c65648152508573ffffffffffffffffffffffffffffffffffffffff16611f399092919063ffffffff16565b90505f81511480611ef5575080806020019051810190611ef491906129d3565b5b611f34576040517f08c379a0000000000000000000000000000000000000000000000000000000008152600401611f2b90612e4f565b60405180910390fd5b505050565b6060611f4784845f85611f50565b90509392505050565b606082471015611f95576040517f08c379a0000000000000000000000000000000000000000000000000000000008152600401611f8c90612eb2565b60405180910390fd5b5f808673ffffffffffffffffffffffffffffffffffffffff168587604051611fbd9190612f3d565b5f6040518083038185875af1925050503d805f8114611ff7576040519150601f19603f3d011682016040523d82523d5f602084013e611ffc565b606091505b509150915061200d87838387612019565b92505050949350505050565b6060831561207a575f835103612072576120328561208d565b612071576040517f08c379a000000000000000000000000000000000000000000000000000000000815260040161206890612f5a565b60405180910390fd5b5b829050612085565b61208483836120af565b5b949350505050565b5f808273ffffffffffffffffffffffffffffffffffffffff163b119050919050565b5f825111156120c15781518083602001fd5b806040517f08c379a00000000000000000000000000000000000000000000000000000000081526004016120f59190612f97565b60405180910390fd5b828054828255905f5260205f20906001016002900481019282156121b2579160200282015f5b8382111561217857835183826101000a8154816bffffffffffffffffffffffff02191690836bffffffffffffffffffffffff1602179055509260200192600c01602081600b01049283019260010302612124565b80156121b05782816101000a8154906bffffffffffffffffffffffff0219169055600c01602081600b01049283019260010302612178565b505b5090506121bf9190612213565b5090565b60405180606001604052805f6bffffffffffffffffffffffff1681526020015f6bffffffffffffffffffffffff1681526020015f73ffffffffffffffffffffffffffffffffffffffff1681525090565b5b8082111561222a575f815f905550600101612214565b5090565b5f60208201905082825292915050565b5f60208201905073ffffffffffffffffffffffffffffffffffffffff8316825292915050565b5f8083601f840112612274575f80fd5b8235905067ffffffffffffffff81111561228c575f80fd5b6020830191508360208260051b85010111156122a6575f80fd5b9250929050565b73ffffffffffffffffffffffffffffffffffffffff811681146122ce575f80fd5b50565b5f813590506122df816122ad565b919050565b5f805f805f805f805f60a08a8c0312156122fc575f80fd5b893567ffffffffffffffff80821115612313575f80fd5b61231f8d838e01612264565b9250809b505081995060208c013591508082111561233b575f80fd5b6123478d838e01612264565b92508099505081975060408c0135915080821115612363575f80fd5b61236f8d838e01612264565b92508097505081955060608c01359150612388826122ad565b81945060808c013591508082111561239e575f80fd5b818c0191508c601f8301126123b1575f80fd5b8135818111156123bf575f80fd5b8d60208285010111156123d0575f80fd5b6020830194508093505050509295985092959850929598565b6bffffffffffffffffffffffff811682525050565b5f6020820190506bffffffffffffffffffffffff8316825292915050565b5f60208201905073ffffffffffffffffffffffffffffffffffffffff8316825292915050565b5f60208284031215612452575f80fd5b813561245d816122ad565b8091505092915050565b5f602082019050821515825292915050565b5f60208284031215612489575f80fd5b8135905092915050565b73ffffffffffffffffffffffffffffffffffffffff811682525050565b5f6060820190506bffffffffffffffffffffffff8516825273ffffffffffffffffffffffffffffffffffffffff8085166020840152808416604084015250949350505050565b5f60208201905073ffffffffffffffffffffffffffffffffffffffff8316825292915050565b5f602080830181845280855180835260408601915083870192505f5b81811015612567576bffffffffffffffffffffffff845116835284830192508484019350600181019050612538565b505080935050505092915050565b5f813590506bffffffffffffffffffffffff81168114612593575f80fd5b919050565b5f602082840312156125a8575f80fd5b6125b182612575565b905092915050565b5f60208201905082825292915050565b5f60208201905073ffffffffffffffffffffffffffffffffffffffff8316825292915050565b5f8083601f8401126125ff575f80fd5b8235905067ffffffffffffffff811115612617575f80fd5b602083019150836020606083028501011115612631575f80fd5b9250929050565b5f8135905063ffffffff8116811461264e575f80fd5b919050565b5f805f805f805f8060c0898b03121561266a575f80fd5b883567ffffffffffffffff80821115612681575f80fd5b818b01915060e0828d031215612695575f80fd5b81995060208b01359150808211156126ab575f80fd5b6126b78c838d016125ef565b92508099505081975060408b01359150808211156126d3575f80fd5b506126e08b828c01612264565b915080965050809450506126f660608a01612638565b925061270460808a01612638565b915061271260a08a016122d1565b90509295985092959890939650565b5f60408201905083825273ffffffffffffffffffffffffffffffffffffffff831660208301529392505050565b5f60208201905073ffffffffffffffffffffffffffffffffffffffff8316825292915050565b7f4e487b71000000000000000000000000000000000000000000000000000000005f52604160045260245ffd5b7f4e487b71000000000000000000000000000000000000000000000000000000005f52603260045260245ffd5b5f602082840312156127de575f80fd5b6127e782612638565b905092915050565b5f8083357fffffffffffffffffffffffffffffffffffffffffffffffffffffffffffffffe1843603018112612822575f80fd5b80840190508035915067ffffffffffffffff82111561283f575f80fd5b602081019250508060051b3603821315612857575f80fd5b9250929050565b7f4e487b71000000000000000000000000000000000000000000000000000000005f52601160045260245ffd5b5f6bffffffffffffffffffffffff808416818416019150808211156128b3576128b261285e565b5b5092915050565b60ff811681146128c8575f80fd5b50565b5f805f805f60a086880312156128df575f80fd5b853594506020860135935060408601356128f8816128ba565b8093505060608601359150608086013590509295509295909350565b5f60e08201905073ffffffffffffffffffffffffffffffffffffffff808a16835280891660208401525086604083015285606083015260ff851660808301528360a08301528260c083015298975050505050505050565b5f6040820190506bffffffffffffffffffffffff8416825273ffffffffffffffffffffffffffffffffffffffff831660208301529392505050565b5f60408201905083825273ffffffffffffffffffffffffffffffffffffffff831660208301529392505050565b5f602082840312156129e3575f80fd5b815180151581146129f2575f80fd5b8091505092915050565b5f8083357fffffffffffffffffffffffffffffffffffffffffffffffffffffffffffffffe1843603018112612a2f575f80fd5b8381019050803591506020810192505067ffffffffffffffff811115612a53575f80fd5b803603821315612a61575f80fd5b9250929050565b81835281816020850137505f602082840101525f60207fffffffffffffffffffffffffffffffffffffffffffffffffffffffffffffffe0601f840116840101905092915050565b63ffffffff811682525050565b8183525f60208085019450825f5b85811015612b195763ffffffff80612ae184612638565b16885280612af0858501612638565b168489015250604080830135818901525060608088019750808301925050600181019050612aca565b5050508390509392505050565b608081525f612b3587886129fc565b60e06080850152612b4b61016085018284612a68565b915050612b5b60208901896129fc565b7fffffffffffffffffffffffffffffffffffffffffffffffffffffffffffffff80808685030160a0870152612b91848385612a68565b9350612ba060408c018c6129fc565b93509150808685030160c0870152612bb9848484612a68565b9350612bc860608c018c6129fc565b93509150808685030160e0870152612be1848484612a68565b9350612bf060808c018c6129fc565b93509150808685030161010087015250612c0b838383612a68565b9250505060a0880135612c1d816122ad565b612c2b610120850182612493565b50612c3860c08901612575565b612c466101408501826123e9565b50612c546020840188612aaf565b612c616040840187612aaf565b8281036060840152612c74818587612abc565b9150509695505050505050565b5f60208284031215612c91575f80fd5b8151612c9c816122ad565b8091505092915050565b5f60208284031215612cb6575f80fd5b8151905092915050565b73ffffffffffffffffffffffffffffffffffffffff8516815263ffffffff84166020820152606060408201528160608201525f7f07ffffffffffffffffffffffffffffffffffffffffffffffffffffffffffffff831115612d1f575f80fd5b8260051b8085608085013760808184010191505095945050505050565b5f60208284031215612d4c575f80fd5b8151612d57816128ba565b8091505092915050565b5f6bffffffffffffffffffffffff808416818416028181169250808314612d8b57612d8a61285e565b5b505092915050565b5f6bffffffffffffffffffffffff80841680612dd6577f4e487b71000000000000000000000000000000000000000000000000000000005f52601260045260245ffd5b80828516049250505092915050565b5f60608201905084825263ffffffff841660208301526bffffffffffffffffffffffff83166040830152949350505050565b5f60608201905073ffffffffffffffffffffffffffffffffffffffff8086168352808516602084015250826040830152949350505050565b60208152602a60208201527f5361666545524332303a204552433230206f7065726174696f6e20646964206e60408201527f6f7420737563636565640000000000000000000000000000000000000000000060608201525f608082019050919050565b60208152602660208201527f416464726573733a20696e73756666696369656e742062616c616e636520666f60408201527f722063616c6c000000000000000000000000000000000000000000000000000060608201525f608082019050919050565b5f5b83811015612f32578082015181840152602081019050612f17565b505f83830152505050565b5f8251612f4e818460208701612f15565b80830191505092915050565b60208152601d60208201527f416464726573733a2063616c6c20746f206e6f6e2d636f6e747261637400000060408201525f606082019050919050565b602081525f8251806020840152612fb5816040850160208701612f15565b60407fffffffffffffffffffffffffffffffffffffffffffffffffffffffffffffffe0601f8301168401019150509291505056fea26469706673582212208d05025a8a7c1dfd6188d6a1fef0e1f89c0941429705169413b3114eb0af303364736f6c63430008150033",
  "linkReferences": {},
  "deployedLinkReferences": {}
}