{
  "_format": "hh-sol-artifact-1",
  "contractName": "MockVRFCoordinator",
  "sourceName": "contracts/test/MockVRFCoordinator.sol",
  "abi": [
    {
      "inputs": [
        {
          "internalType": "uint64",
          "name": "",
          "type": "uint64"
        },
        {
          "internalType": "address",
          "name": "",
          "type": "address"
        }
      ],
      "name": "addConsumer",
      "outputs": [],
      "stateMutability": "nonpayable",
      "type": "function"
    },
    {
      "inputs": [],
      "name": "createSubscription",
      "outputs": [
        {
          "internalType": "uint64",
          "name": "subscriptionID",
          "type": "uint64"
        }
      ],
      "stateMutability": "nonpayable",
      "type": "function"
    },
    {
      "inputs": [
        {
          "internalType": "uint256",
          "name": "requestId",
          "type": "uint256"
        }
      ],
      "name": "fulfillWords",
      "outputs": [],
      "stateMutability": "nonpayable",
      "type": "function"
    },
    {
      "inputs": [
        {
          "internalType": "bytes32",
          "name": "",
          "type": "bytes32"
        },
        {
          "internalType": "uint64",
          "name": "",
          "type": "uint64"
        },
        {
          "internalType": "uint16",
          "name": "",
          "type": "uint16"
        },
        {
          "internalType": "uint32",
          "name": "callbackGasLimit",
          "type": "uint32"
        },
        {
          "internalType": "uint32",
          "name": "",
          "type": "uint32"
        }
      ],
      "name": "requestRandomWords",
      "outputs": [
        {
          "internalType": "uint256",
          "name": "",
          "type": "uint256"
        }
      ],
      "stateMutability": "nonpayable",
      "type": "function"
    }
  ],
  "bytecode": "0x60806040525f8055348015610012575f80fd5b506105f7806100205f395ff3fe608060405234801561000f575f80fd5b506004361061004a575f3560e01c80635d3b1d301461004e5780637341c10c1461007e578063a21a23e41461009a578063dceb841c146100b8575b5f80fd5b610068600480360381019061006391906103a1565b6100d4565b6040516100759190610405565b60405180910390f35b61009860048036038101906100939190610415565b610189565b005b6100a261018d565b6040516100af9190610462565b60405180910390f35b6100d260048036038101906100cd919061047c565b610191565b005b5f803390508060015f805481526020019081526020015f205f015f6101000a81548173ffffffffffffffffffffffffffffffffffffffff021916908373ffffffffffffffffffffffffffffffffffffffff1602179055508360015f805481526020019081526020015f205f0160146101000a81548163ffffffff021916908363ffffffff1602179055505f8054905060015f808282546101749190610496565b92505081905550809250505095945050505050565b5050565b5f90565b5f73ffffffffffffffffffffffffffffffffffffffff1660015f8381526020019081526020015f205f015f9054906101000a900473ffffffffffffffffffffffffffffffffffffffff1673ffffffffffffffffffffffffffffffffffffffff1603610231576040517f08c379a0000000000000000000000000000000000000000000000000000000008152600401610228906104d7565b60405180910390fd5b5f600167ffffffffffffffff81111561024d5761024c610514565b5b60405190808252806020026020018201604052801561027b5781602001602082028036833780820191505090505b50905081815f8151811061029257610291610541565b5b60200260200101818152505060015f8381526020019081526020015f205f015f9054906101000a900473ffffffffffffffffffffffffffffffffffffffff1673ffffffffffffffffffffffffffffffffffffffff16631fe543e360015f8581526020019081526020015f205f0160149054906101000a900463ffffffff1663ffffffff1684846040518463ffffffff1660e01b815260040161033592919061056e565b5f604051808303815f88803b15801561034c575f80fd5b5087f115801561035e573d5f803e3d5ffd5b50505050505050565b5f8135905067ffffffffffffffff81168114610381575f80fd5b919050565b5f8135905063ffffffff8116811461039c575f80fd5b919050565b5f805f805f60a086880312156103b5575f80fd5b853594506103c560208701610367565b9350604086013561ffff811681146103db575f80fd5b809350506103eb60608701610386565b91506103f960808701610386565b90509295509295909350565b5f60208201905082825292915050565b5f8060408385031215610426575f80fd5b61042f83610367565b9150602083013573ffffffffffffffffffffffffffffffffffffffff81168114610457575f80fd5b809150509250929050565b5f60208201905067ffffffffffffffff8316825292915050565b5f6020828403121561048c575f80fd5b8135905092915050565b5f8282019050808211156104d1577f4e487b71000000000000000000000000000000000000000000000000000000005f52601160045260245ffd5b92915050565b60208152601460208201527f726571756573744964204e4f542045584953545300000000000000000000000060408201525f606082019050919050565b7f4e487b71000000000000000000000000000000000000000000000000000000005f52604160045260245ffd5b7f4e487b71000000000000000000000000000000000000000000000000000000005f52603260045260245ffd5b5f60408201848352602060408185015281855180845260608601915082870193505f5b818110156105b2578451835283830192508385019450600181019050610591565b5050809350505050939250505056fea2646970667358221220a84d305b459c5547d25ea1d2183f24ae67a33a09a055287d38c5fb1feeabedba64736f6c63430008150033",
  "linkReferences": {},
  "deployedLinkReferences": {}
}