{
  "_format": "hh-sol-artifact-1",
  "contractName": "Eesee",
  "sourceName": "contracts/marketplace/Eesee.sol",
  "abi": [
    {
      "inputs": [
        {
          "internalType": "contract IERC20",
          "name": "_ESE",
          "type": "address"
        },
        {
          "internalType": "contract IEeseeStaking",
          "name": "_staking",
          "type": "address"
        },
        {
          "internalType": "contract IEeseeProxy",
          "name": "_proxy",
          "type": "address"
        },
        {
          "internalType": "contract IEeseeMinter",
          "name": "_minter",
          "type": "address"
        },
        {
          "internalType": "contract IEeseeRandom",
          "name": "_random",
          "type": "address"
        },
        {
          "internalType": "address",
          "name": "_feeSplitter",
          "type": "address"
        },
        {
          "internalType": "contract IRoyaltyEngineV1",
          "name": "_royaltyEngine",
          "type": "address"
        },
        {
          "internalType": "contract IEeseeAccessManager",
          "name": "_accessManager",
          "type": "address"
        },
        {
          "internalType": "address",
          "name": "trustedForwarder",
          "type": "address"
        }
      ],
      "stateMutability": "nonpayable",
      "type": "constructor"
    },
    {
      "inputs": [
        {
          "internalType": "uint256",
          "name": "ID",
          "type": "uint256"
        }
      ],
      "name": "AssetAlreadyClaimed",
      "type": "error"
    },
    {
      "inputs": [],
      "name": "BuyAmountTooLow",
      "type": "error"
    },
    {
      "inputs": [],
      "name": "BuyLimitExceeded",
      "type": "error"
    },
    {
      "inputs": [],
      "name": "CallerNotAuthorized",
      "type": "error"
    },
    {
      "inputs": [
        {
          "internalType": "uint256",
          "name": "ID",
          "type": "uint256"
        }
      ],
      "name": "CallerNotOwner",
      "type": "error"
    },
    {
      "inputs": [
        {
          "internalType": "uint256",
          "name": "ID",
          "type": "uint256"
        }
      ],
      "name": "CallerNotWinner",
      "type": "error"
    },
    {
      "inputs": [
        {
          "internalType": "uint64",
          "name": "maxDuration",
          "type": "uint64"
        }
      ],
      "name": "DurationTooHigh",
      "type": "error"
    },
    {
      "inputs": [
        {
          "internalType": "uint64",
          "name": "minDuration",
          "type": "uint64"
        }
      ],
      "name": "DurationTooLow",
      "type": "error"
    },
    {
      "inputs": [],
      "name": "ESEOverflow",
      "type": "error"
    },
    {
      "inputs": [],
      "name": "ExpiredDeadline",
      "type": "error"
    },
    {
      "inputs": [],
      "name": "FeeTooHigh",
      "type": "error"
    },
    {
      "inputs": [],
      "name": "InvalidAmount",
      "type": "error"
    },
    {
      "inputs": [],
      "name": "InvalidArrayLengths",
      "type": "error"
    },
    {
      "inputs": [],
      "name": "InvalidAsset",
      "type": "error"
    },
    {
      "inputs": [],
      "name": "InvalidConstructor",
      "type": "error"
    },
    {
      "inputs": [],
      "name": "InvalidData",
      "type": "error"
    },
    {
      "inputs": [],
      "name": "InvalidDuration",
      "type": "error"
    },
    {
      "inputs": [],
      "name": "InvalidFee",
      "type": "error"
    },
    {
      "inputs": [],
      "name": "InvalidFeeSplitter",
      "type": "error"
    },
    {
      "inputs": [],
      "name": "InvalidInterface",
      "type": "error"
    },
    {
      "inputs": [],
      "name": "InvalidLazyMintOwner",
      "type": "error"
    },
    {
      "inputs": [],
      "name": "InvalidLotID",
      "type": "error"
    },
    {
      "inputs": [],
      "name": "InvalidMsgValue",
      "type": "error"
    },
    {
      "inputs": [],
      "name": "InvalidOwner",
      "type": "error"
    },
    {
      "inputs": [],
      "name": "InvalidRecipient",
      "type": "error"
    },
    {
      "inputs": [],
      "name": "InvalidShortString",
      "type": "error"
    },
    {
      "inputs": [],
      "name": "InvalidSignature",
      "type": "error"
    },
    {
      "inputs": [],
      "name": "InvalidToken",
      "type": "error"
    },
    {
      "inputs": [],
      "name": "InvalidTokenID",
      "type": "error"
    },
    {
      "inputs": [],
      "name": "InvalidValueCall",
      "type": "error"
    },
    {
      "inputs": [
        {
          "internalType": "uint256",
          "name": "ID",
          "type": "uint256"
        }
      ],
      "name": "LotAlreadyFulfilled",
      "type": "error"
    },
    {
      "inputs": [
        {
          "internalType": "uint256",
          "name": "ID",
          "type": "uint256"
        }
      ],
      "name": "LotExpired",
      "type": "error"
    },
    {
      "inputs": [
        {
          "internalType": "uint256",
          "name": "ID",
          "type": "uint256"
        }
      ],
      "name": "LotNotClosed",
      "type": "error"
    },
    {
      "inputs": [
        {
          "internalType": "uint256",
          "name": "ID",
          "type": "uint256"
        }
      ],
      "name": "LotNotExists",
      "type": "error"
    },
    {
      "inputs": [
        {
          "internalType": "uint256",
          "name": "ID",
          "type": "uint256"
        }
      ],
      "name": "LotNotExpired",
      "type": "error"
    },
    {
      "inputs": [
        {
          "internalType": "uint256",
          "name": "ID",
          "type": "uint256"
        }
      ],
      "name": "LotNotFulfilled",
      "type": "error"
    },
    {
      "inputs": [
        {
          "internalType": "uint256",
          "name": "ID",
          "type": "uint256"
        }
      ],
      "name": "NoTicketsBought",
      "type": "error"
    },
    {
      "inputs": [
        {
          "internalType": "uint256",
          "name": "ID",
          "type": "uint256"
        }
      ],
      "name": "NoTicketsHeld",
      "type": "error"
    },
    {
      "inputs": [],
      "name": "NonceUsed",
      "type": "error"
    },
    {
      "inputs": [],
      "name": "ReentrantCall",
      "type": "error"
    },
    {
      "inputs": [
        {
          "internalType": "string",
          "name": "str",
          "type": "string"
        }
      ],
      "name": "StringTooLong",
      "type": "error"
    },
    {
      "inputs": [],
      "name": "TicketPriceTooLow",
      "type": "error"
    },
    {
      "inputs": [
        {
          "internalType": "uint256",
          "name": "ID",
          "type": "uint256"
        }
      ],
      "name": "TokensAlreadyClaimed",
      "type": "error"
    },
    {
      "inputs": [],
      "name": "TotalTicketsTooHigh",
      "type": "error"
    },
    {
      "inputs": [],
      "name": "TotalTicketsTooLow",
      "type": "error"
    },
    {
      "inputs": [],
      "name": "TransferNotSuccessful",
      "type": "error"
    },
    {
      "anonymous": false,
      "inputs": [
        {
          "indexed": false,
          "internalType": "uint96",
          "name": "untrackedVolume",
          "type": "uint96"
        },
        {
          "indexed": true,
          "internalType": "address",
          "name": "recipient",
          "type": "address"
        }
      ],
      "name": "AddVolumeReverted",
      "type": "event"
    },
    {
      "anonymous": false,
      "inputs": [
        {
          "indexed": true,
          "internalType": "uint256",
          "name": "ID",
          "type": "uint256"
        },
        {
          "indexed": true,
          "internalType": "address",
          "name": "recipient",
          "type": "address"
        },
        {
          "indexed": true,
          "internalType": "uint32",
          "name": "lowerBound",
          "type": "uint32"
        },
        {
          "indexed": false,
          "internalType": "uint32",
          "name": "ticketAmount",
          "type": "uint32"
        },
        {
          "indexed": false,
          "internalType": "uint96",
          "name": "tokensSpent",
          "type": "uint96"
        },
        {
          "indexed": false,
          "internalType": "uint32",
          "name": "bonusTickets",
          "type": "uint32"
        }
      ],
      "name": "BuyTickets",
      "type": "event"
    },
    {
      "anonymous": false,
      "inputs": [
        {
          "indexed": true,
          "internalType": "uint32",
          "name": "previousFee",
          "type": "uint32"
        },
        {
          "indexed": true,
          "internalType": "uint32",
          "name": "newFee",
          "type": "uint32"
        }
      ],
      "name": "ChangeFee",
      "type": "event"
    },
    {
      "anonymous": false,
      "inputs": [
        {
          "indexed": true,
          "internalType": "address",
          "name": "previousFeeSplitter",
          "type": "address"
        },
        {
          "indexed": true,
          "internalType": "address",
          "name": "newFeeSplitter",
          "type": "address"
        }
      ],
      "name": "ChangeFeeSplitter",
      "type": "event"
    },
    {
      "anonymous": false,
      "inputs": [
        {
          "indexed": true,
          "internalType": "uint64",
          "name": "previousMaxDuration",
          "type": "uint64"
        },
        {
          "indexed": true,
          "internalType": "uint64",
          "name": "newMaxDuration",
          "type": "uint64"
        }
      ],
      "name": "ChangeMaxDuration",
      "type": "event"
    },
    {
      "anonymous": false,
      "inputs": [
        {
          "indexed": true,
          "internalType": "uint64",
          "name": "previousMinDuration",
          "type": "uint64"
        },
        {
          "indexed": true,
          "internalType": "uint64",
          "name": "newMinDuration",
          "type": "uint64"
        }
      ],
      "name": "ChangeMinDuration",
      "type": "event"
    },
    {
      "anonymous": false,
      "inputs": [
        {
          "indexed": true,
          "internalType": "address",
          "name": "to",
          "type": "address"
        },
        {
          "indexed": false,
          "internalType": "uint96",
          "name": "amount",
          "type": "uint96"
        }
      ],
      "name": "CollectFee",
      "type": "event"
    },
    {
      "anonymous": false,
      "inputs": [
        {
          "indexed": true,
          "internalType": "address",
          "name": "recipient",
          "type": "address"
        },
        {
          "indexed": false,
          "internalType": "uint96",
          "name": "amount",
          "type": "uint96"
        }
      ],
      "name": "CollectRoyalty",
      "type": "event"
    },
    {
      "anonymous": false,
      "inputs": [
        {
          "indexed": true,
          "internalType": "uint256",
          "name": "ID",
          "type": "uint256"
        },
        {
          "indexed": true,
          "internalType": "address",
          "name": "signer",
          "type": "address"
        },
        {
          "indexed": true,
          "internalType": "uint256",
          "name": "nonce",
          "type": "uint256"
        }
      ],
      "name": "ConsumeNonce",
      "type": "event"
    },
    {
      "anonymous": false,
      "inputs": [
        {
          "indexed": true,
          "internalType": "uint256",
          "name": "ID",
          "type": "uint256"
        },
        {
          "components": [
            {
              "internalType": "address",
              "name": "token",
              "type": "address"
            },
            {
              "internalType": "uint256",
              "name": "tokenID",
              "type": "uint256"
            },
            {
              "internalType": "uint256",
              "name": "amount",
              "type": "uint256"
            },
            {
              "internalType": "enum AssetType",
              "name": "assetType",
              "type": "uint8"
            },
            {
              "internalType": "bytes",
              "name": "data",
              "type": "bytes"
            }
          ],
          "indexed": false,
          "internalType": "struct Asset",
          "name": "asset",
          "type": "tuple"
        },
        {
          "indexed": true,
          "internalType": "address",
          "name": "signer",
          "type": "address"
        },
        {
          "indexed": true,
          "internalType": "address",
          "name": "owner",
          "type": "address"
        },
        {
          "indexed": false,
          "internalType": "uint32",
          "name": "totalTickets",
          "type": "uint32"
        },
        {
          "indexed": false,
          "internalType": "uint96",
          "name": "ticketPrice",
          "type": "uint96"
        },
        {
          "indexed": false,
          "internalType": "uint32",
          "name": "endTimestamp",
          "type": "uint32"
        }
      ],
      "name": "CreateLot",
      "type": "event"
    },
    {
      "anonymous": false,
      "inputs": [],
      "name": "EIP712DomainChanged",
      "type": "event"
    },
    {
      "anonymous": false,
      "inputs": [
        {
          "indexed": true,
          "internalType": "uint256",
          "name": "ID",
          "type": "uint256"
        },
        {
          "indexed": true,
          "internalType": "address",
          "name": "winner",
          "type": "address"
        },
        {
          "indexed": true,
          "internalType": "address",
          "name": "recipient",
          "type": "address"
        },
        {
          "components": [
            {
              "internalType": "address",
              "name": "token",
              "type": "address"
            },
            {
              "internalType": "uint256",
              "name": "tokenID",
              "type": "uint256"
            },
            {
              "internalType": "uint256",
              "name": "amount",
              "type": "uint256"
            },
            {
              "internalType": "enum AssetType",
              "name": "assetType",
              "type": "uint8"
            },
            {
              "internalType": "bytes",
              "name": "data",
              "type": "bytes"
            }
          ],
          "indexed": false,
          "internalType": "struct Asset",
          "name": "asset",
          "type": "tuple"
        }
      ],
      "name": "ReceiveAsset",
      "type": "event"
    },
    {
      "anonymous": false,
      "inputs": [
        {
          "indexed": true,
          "internalType": "uint256",
          "name": "ID",
          "type": "uint256"
        },
        {
          "indexed": true,
          "internalType": "address",
          "name": "claimer",
          "type": "address"
        },
        {
          "indexed": true,
          "internalType": "address",
          "name": "recipient",
          "type": "address"
        },
        {
          "indexed": false,
          "internalType": "uint96",
          "name": "amount",
          "type": "uint96"
        }
      ],
      "name": "ReceiveTokens",
      "type": "event"
    },
    {
      "anonymous": false,
      "inputs": [
        {
          "indexed": true,
          "internalType": "uint256",
          "name": "ID",
          "type": "uint256"
        },
        {
          "indexed": true,
          "internalType": "address",
          "name": "owner",
          "type": "address"
        },
        {
          "indexed": true,
          "internalType": "address",
          "name": "recipient",
          "type": "address"
        },
        {
          "components": [
            {
              "internalType": "address",
              "name": "token",
              "type": "address"
            },
            {
              "internalType": "uint256",
              "name": "tokenID",
              "type": "uint256"
            },
            {
              "internalType": "uint256",
              "name": "amount",
              "type": "uint256"
            },
            {
              "internalType": "enum AssetType",
              "name": "assetType",
              "type": "uint8"
            },
            {
              "internalType": "bytes",
              "name": "data",
              "type": "bytes"
            }
          ],
          "indexed": false,
          "internalType": "struct Asset",
          "name": "asset",
          "type": "tuple"
        }
      ],
      "name": "ReclaimAsset",
      "type": "event"
    },
    {
      "anonymous": false,
      "inputs": [
        {
          "indexed": true,
          "internalType": "uint256",
          "name": "ID",
          "type": "uint256"
        },
        {
          "indexed": true,
          "internalType": "address",
          "name": "claimer",
          "type": "address"
        },
        {
          "indexed": true,
          "internalType": "address",
          "name": "recipient",
          "type": "address"
        },
        {
          "indexed": false,
          "internalType": "uint96",
          "name": "amount",
          "type": "uint96"
        }
      ],
      "name": "ReclaimTokens",
      "type": "event"
    },
    {
      "inputs": [],
      "name": "ESE",
      "outputs": [
        {
          "internalType": "contract IERC20",
          "name": "",
          "type": "address"
        }
      ],
      "stateMutability": "view",
      "type": "function"
    },
    {
      "inputs": [],
      "name": "accessManager",
      "outputs": [
        {
          "internalType": "contract IEeseeAccessManager",
          "name": "",
          "type": "address"
        }
      ],
      "stateMutability": "view",
      "type": "function"
    },
    {
      "inputs": [
        {
          "internalType": "uint256[]",
          "name": "IDs",
          "type": "uint256[]"
        },
        {
          "internalType": "uint32[]",
          "name": "amounts",
          "type": "uint32[]"
        },
        {
          "internalType": "address",
          "name": "recipient",
          "type": "address"
        },
        {
          "internalType": "bytes",
          "name": "permit",
          "type": "bytes"
        }
      ],
      "name": "buyTickets",
      "outputs": [
        {
          "internalType": "uint96",
          "name": "tokensSpent",
          "type": "uint96"
        }
      ],
      "stateMutability": "payable",
      "type": "function"
    },
    {
      "inputs": [
        {
          "internalType": "address",
          "name": "to",
          "type": "address"
        },
        {
          "internalType": "bytes",
          "name": "data",
          "type": "bytes"
        }
      ],
      "name": "callExternal",
      "outputs": [
        {
          "internalType": "bytes",
          "name": "",
          "type": "bytes"
        }
      ],
      "stateMutability": "payable",
      "type": "function"
    },
    {
      "inputs": [
        {
          "internalType": "uint32",
          "name": "_fee",
          "type": "uint32"
        }
      ],
      "name": "changeFee",
      "outputs": [],
      "stateMutability": "nonpayable",
      "type": "function"
    },
    {
      "inputs": [
        {
          "internalType": "address",
          "name": "_feeSplitter",
          "type": "address"
        }
      ],
      "name": "changeFeeSplitter",
      "outputs": [],
      "stateMutability": "nonpayable",
      "type": "function"
    },
    {
      "inputs": [
        {
          "internalType": "uint64",
          "name": "_maxDuration",
          "type": "uint64"
        }
      ],
      "name": "changeMaxDuration",
      "outputs": [],
      "stateMutability": "nonpayable",
      "type": "function"
    },
    {
      "inputs": [
        {
          "internalType": "uint64",
          "name": "_minDuration",
          "type": "uint64"
        }
      ],
      "name": "changeMinDuration",
      "outputs": [],
      "stateMutability": "nonpayable",
      "type": "function"
    },
    {
      "inputs": [
        {
          "components": [
            {
              "internalType": "address",
              "name": "token",
              "type": "address"
            },
            {
              "internalType": "uint256",
              "name": "tokenID",
              "type": "uint256"
            },
            {
              "internalType": "uint256",
              "name": "amount",
              "type": "uint256"
            },
            {
              "internalType": "enum AssetType",
              "name": "assetType",
              "type": "uint8"
            },
            {
              "internalType": "bytes",
              "name": "data",
              "type": "bytes"
            }
          ],
          "internalType": "struct Asset[]",
          "name": "assets",
          "type": "tuple[]"
        },
        {
          "components": [
            {
              "internalType": "uint32",
              "name": "totalTickets",
              "type": "uint32"
            },
            {
              "internalType": "uint96",
              "name": "ticketPrice",
              "type": "uint96"
            },
            {
              "internalType": "uint32",
              "name": "duration",
              "type": "uint32"
            },
            {
              "internalType": "address",
              "name": "owner",
              "type": "address"
            },
            {
              "internalType": "address",
              "name": "signer",
              "type": "address"
            },
            {
              "internalType": "bytes",
              "name": "signatureData",
              "type": "bytes"
            }
          ],
          "internalType": "struct IEesee.LotParams[]",
          "name": "params",
          "type": "tuple[]"
        },
        {
          "internalType": "uint32",
          "name": "expectedFee",
          "type": "uint32"
        }
      ],
      "name": "createLots",
      "outputs": [
        {
          "internalType": "uint256[]",
          "name": "IDs",
          "type": "uint256[]"
        }
      ],
      "stateMutability": "payable",
      "type": "function"
    },
    {
      "inputs": [
        {
          "components": [
            {
              "internalType": "address",
              "name": "token",
              "type": "address"
            },
            {
              "internalType": "uint256",
              "name": "tokenID",
              "type": "uint256"
            },
            {
              "internalType": "uint256",
              "name": "amount",
              "type": "uint256"
            },
            {
              "internalType": "enum AssetType",
              "name": "assetType",
              "type": "uint8"
            },
            {
              "internalType": "bytes",
              "name": "data",
              "type": "bytes"
            }
          ],
          "internalType": "struct Asset[]",
          "name": "assets",
          "type": "tuple[]"
        },
        {
          "components": [
            {
              "internalType": "uint32",
              "name": "totalTickets",
              "type": "uint32"
            },
            {
              "internalType": "uint96",
              "name": "ticketPrice",
              "type": "uint96"
            },
            {
              "internalType": "uint32",
              "name": "duration",
              "type": "uint32"
            },
            {
              "internalType": "address",
              "name": "owner",
              "type": "address"
            },
            {
              "internalType": "address",
              "name": "signer",
              "type": "address"
            },
            {
              "internalType": "bytes",
              "name": "signatureData",
              "type": "bytes"
            }
          ],
          "internalType": "struct IEesee.LotParams[]",
          "name": "params",
          "type": "tuple[]"
        },
        {
          "internalType": "uint32",
          "name": "expectedFee",
          "type": "uint32"
        },
        {
          "internalType": "uint32[]",
          "name": "amounts",
          "type": "uint32[]"
        },
        {
          "internalType": "address",
          "name": "recipient",
          "type": "address"
        },
        {
          "internalType": "bytes",
          "name": "permit",
          "type": "bytes"
        }
      ],
      "name": "createLotsAndBuyTickets",
      "outputs": [
        {
          "internalType": "uint256[]",
          "name": "IDs",
          "type": "uint256[]"
        },
        {
          "internalType": "uint96",
          "name": "tokensSpent",
          "type": "uint96"
        }
      ],
      "stateMutability": "payable",
      "type": "function"
    },
    {
      "inputs": [],
      "name": "eip712Domain",
      "outputs": [
        {
          "internalType": "bytes1",
          "name": "fields",
          "type": "bytes1"
        },
        {
          "internalType": "string",
          "name": "name",
          "type": "string"
        },
        {
          "internalType": "string",
          "name": "version",
          "type": "string"
        },
        {
          "internalType": "uint256",
          "name": "chainId",
          "type": "uint256"
        },
        {
          "internalType": "address",
          "name": "verifyingContract",
          "type": "address"
        },
        {
          "internalType": "bytes32",
          "name": "salt",
          "type": "bytes32"
        },
        {
          "internalType": "uint256[]",
          "name": "extensions",
          "type": "uint256[]"
        }
      ],
      "stateMutability": "view",
      "type": "function"
    },
    {
      "inputs": [],
      "name": "fee",
      "outputs": [
        {
          "internalType": "uint32",
          "name": "",
          "type": "uint32"
        }
      ],
      "stateMutability": "view",
      "type": "function"
    },
    {
      "inputs": [],
      "name": "feeSplitter",
      "outputs": [
        {
          "internalType": "address",
          "name": "",
          "type": "address"
        }
      ],
      "stateMutability": "view",
      "type": "function"
    },
    {
      "inputs": [
        {
          "internalType": "uint256",
          "name": "ID",
          "type": "uint256"
        },
        {
          "internalType": "uint32",
          "name": "transaction",
          "type": "uint32"
        }
      ],
      "name": "getBuyTicketsRecipient",
      "outputs": [
        {
          "internalType": "address",
          "name": "",
          "type": "address"
        }
      ],
      "stateMutability": "view",
      "type": "function"
    },
    {
      "inputs": [
        {
          "internalType": "uint256",
          "name": "ID",
          "type": "uint256"
        },
        {
          "internalType": "address",
          "name": "_address",
          "type": "address"
        }
      ],
      "name": "getLotBonusTicketsHeldByAddress",
      "outputs": [
        {
          "internalType": "uint32",
          "name": "",
          "type": "uint32"
        }
      ],
      "stateMutability": "view",
      "type": "function"
    },
    {
      "inputs": [
        {
          "internalType": "uint256",
          "name": "ID",
          "type": "uint256"
        },
        {
          "internalType": "uint32",
          "name": "ticket",
          "type": "uint32"
        }
      ],
      "name": "getLotTicketHolder",
      "outputs": [
        {
          "internalType": "address",
          "name": "",
          "type": "address"
        }
      ],
      "stateMutability": "view",
      "type": "function"
    },
    {
      "inputs": [
        {
          "internalType": "uint256",
          "name": "ID",
          "type": "uint256"
        },
        {
          "internalType": "address",
          "name": "_address",
          "type": "address"
        }
      ],
      "name": "getLotTicketsHeldByAddress",
      "outputs": [
        {
          "internalType": "uint32",
          "name": "",
          "type": "uint32"
        }
      ],
      "stateMutability": "view",
      "type": "function"
    },
    {
      "inputs": [],
      "name": "getLotsLength",
      "outputs": [
        {
          "internalType": "uint256",
          "name": "length",
          "type": "uint256"
        }
      ],
      "stateMutability": "view",
      "type": "function"
    },
    {
      "inputs": [],
      "name": "getTrustedForwarder",
      "outputs": [
        {
          "internalType": "address",
          "name": "forwarder",
          "type": "address"
        }
      ],
      "stateMutability": "view",
      "type": "function"
    },
    {
      "inputs": [
        {
          "internalType": "address",
          "name": "forwarder",
          "type": "address"
        }
      ],
      "name": "isTrustedForwarder",
      "outputs": [
        {
          "internalType": "bool",
          "name": "",
          "type": "bool"
        }
      ],
      "stateMutability": "view",
      "type": "function"
    },
    {
      "inputs": [
        {
          "internalType": "uint256",
          "name": "",
          "type": "uint256"
        }
      ],
      "name": "lots",
      "outputs": [
        {
          "internalType": "uint32",
          "name": "totalTickets",
          "type": "uint32"
        },
        {
          "internalType": "uint32",
          "name": "bonusTickets",
          "type": "uint32"
        },
        {
          "internalType": "uint32",
          "name": "ticketsBought",
          "type": "uint32"
        },
        {
          "internalType": "uint96",
          "name": "ticketPrice",
          "type": "uint96"
        },
        {
          "internalType": "uint32",
          "name": "transactions",
          "type": "uint32"
        },
        {
          "internalType": "uint32",
          "name": "endTimestamp",
          "type": "uint32"
        },
        {
          "internalType": "uint32",
          "name": "fee",
          "type": "uint32"
        },
        {
          "internalType": "bool",
          "name": "closed",
          "type": "bool"
        },
        {
          "internalType": "bool",
          "name": "buyout",
          "type": "bool"
        },
        {
          "internalType": "bool",
          "name": "assetClaimed",
          "type": "bool"
        },
        {
          "internalType": "bool",
          "name": "tokensClaimed",
          "type": "bool"
        },
        {
          "internalType": "address",
          "name": "owner",
          "type": "address"
        },
        {
          "components": [
            {
              "internalType": "address",
              "name": "token",
              "type": "address"
            },
            {
              "internalType": "uint256",
              "name": "tokenID",
              "type": "uint256"
            },
            {
              "internalType": "uint256",
              "name": "amount",
              "type": "uint256"
            },
            {
              "internalType": "enum AssetType",
              "name": "assetType",
              "type": "uint8"
            },
            {
              "internalType": "bytes",
              "name": "data",
              "type": "bytes"
            }
          ],
          "internalType": "struct Asset",
          "name": "asset",
          "type": "tuple"
        }
      ],
      "stateMutability": "view",
      "type": "function"
    },
    {
      "inputs": [],
      "name": "maxDuration",
      "outputs": [
        {
          "internalType": "uint64",
          "name": "",
          "type": "uint64"
        }
      ],
      "stateMutability": "view",
      "type": "function"
    },
    {
      "inputs": [],
      "name": "minDuration",
      "outputs": [
        {
          "internalType": "uint64",
          "name": "",
          "type": "uint64"
        }
      ],
      "stateMutability": "view",
      "type": "function"
    },
    {
      "inputs": [
        {
          "internalType": "bytes[]",
          "name": "data",
          "type": "bytes[]"
        }
      ],
      "name": "multicall",
      "outputs": [
        {
          "internalType": "bytes[]",
          "name": "results",
          "type": "bytes[]"
        }
      ],
      "stateMutability": "payable",
      "type": "function"
    },
    {
      "inputs": [
        {
          "internalType": "address",
          "name": "",
          "type": "address"
        },
        {
          "internalType": "uint256",
          "name": "",
          "type": "uint256"
        }
      ],
      "name": "nonceUsed",
      "outputs": [
        {
          "internalType": "bool",
          "name": "",
          "type": "bool"
        }
      ],
      "stateMutability": "view",
      "type": "function"
    },
    {
      "inputs": [
        {
          "internalType": "address",
          "name": "",
          "type": "address"
        },
        {
          "internalType": "address",
          "name": "",
          "type": "address"
        },
        {
          "internalType": "uint256[]",
          "name": "",
          "type": "uint256[]"
        },
        {
          "internalType": "uint256[]",
          "name": "",
          "type": "uint256[]"
        },
        {
          "internalType": "bytes",
          "name": "",
          "type": "bytes"
        }
      ],
      "name": "onERC1155BatchReceived",
      "outputs": [
        {
          "internalType": "bytes4",
          "name": "",
          "type": "bytes4"
        }
      ],
      "stateMutability": "nonpayable",
      "type": "function"
    },
    {
      "inputs": [
        {
          "internalType": "address",
          "name": "",
          "type": "address"
        },
        {
          "internalType": "address",
          "name": "",
          "type": "address"
        },
        {
          "internalType": "uint256",
          "name": "",
          "type": "uint256"
        },
        {
          "internalType": "uint256",
          "name": "",
          "type": "uint256"
        },
        {
          "internalType": "bytes",
          "name": "",
          "type": "bytes"
        }
      ],
      "name": "onERC1155Received",
      "outputs": [
        {
          "internalType": "bytes4",
          "name": "",
          "type": "bytes4"
        }
      ],
      "stateMutability": "nonpayable",
      "type": "function"
    },
    {
      "inputs": [
        {
          "internalType": "address",
          "name": "",
          "type": "address"
        },
        {
          "internalType": "address",
          "name": "",
          "type": "address"
        },
        {
          "internalType": "uint256",
          "name": "",
          "type": "uint256"
        },
        {
          "internalType": "bytes",
          "name": "",
          "type": "bytes"
        }
      ],
      "name": "onERC721Received",
      "outputs": [
        {
          "internalType": "bytes4",
          "name": "",
          "type": "bytes4"
        }
      ],
      "stateMutability": "nonpayable",
      "type": "function"
    },
    {
      "inputs": [],
      "name": "random",
      "outputs": [
        {
          "internalType": "contract IEeseeRandom",
          "name": "",
          "type": "address"
        }
      ],
      "stateMutability": "view",
      "type": "function"
    },
    {
      "inputs": [
        {
          "internalType": "uint256[]",
          "name": "IDs",
          "type": "uint256[]"
        },
        {
          "internalType": "address",
          "name": "recipient",
          "type": "address"
        }
      ],
      "name": "receiveAssets",
      "outputs": [
        {
          "components": [
            {
              "internalType": "address",
              "name": "token",
              "type": "address"
            },
            {
              "internalType": "uint256",
              "name": "tokenID",
              "type": "uint256"
            },
            {
              "internalType": "uint256",
              "name": "amount",
              "type": "uint256"
            },
            {
              "internalType": "enum AssetType",
              "name": "assetType",
              "type": "uint8"
            },
            {
              "internalType": "bytes",
              "name": "data",
              "type": "bytes"
            }
          ],
          "internalType": "struct Asset[]",
          "name": "assets",
          "type": "tuple[]"
        }
      ],
      "stateMutability": "payable",
      "type": "function"
    },
    {
      "inputs": [
        {
          "internalType": "uint256[]",
          "name": "IDs",
          "type": "uint256[]"
        },
        {
          "internalType": "address",
          "name": "recipient",
          "type": "address"
        }
      ],
      "name": "receiveTokens",
      "outputs": [
        {
          "internalType": "uint96",
          "name": "amount",
          "type": "uint96"
        }
      ],
      "stateMutability": "payable",
      "type": "function"
    },
    {
      "inputs": [
        {
          "internalType": "uint256[]",
          "name": "IDs",
          "type": "uint256[]"
        },
        {
          "internalType": "address",
          "name": "recipient",
          "type": "address"
        }
      ],
      "name": "reclaimAssets",
      "outputs": [
        {
          "components": [
            {
              "internalType": "address",
              "name": "token",
              "type": "address"
            },
            {
              "internalType": "uint256",
              "name": "tokenID",
              "type": "uint256"
            },
            {
              "internalType": "uint256",
              "name": "amount",
              "type": "uint256"
            },
            {
              "internalType": "enum AssetType",
              "name": "assetType",
              "type": "uint8"
            },
            {
              "internalType": "bytes",
              "name": "data",
              "type": "bytes"
            }
          ],
          "internalType": "struct Asset[]",
          "name": "assets",
          "type": "tuple[]"
        }
      ],
      "stateMutability": "payable",
      "type": "function"
    },
    {
      "inputs": [
        {
          "internalType": "uint256[]",
          "name": "IDs",
          "type": "uint256[]"
        },
        {
          "internalType": "address",
          "name": "recipient",
          "type": "address"
        }
      ],
      "name": "reclaimTokens",
      "outputs": [
        {
          "internalType": "uint96",
          "name": "amount",
          "type": "uint96"
        }
      ],
      "stateMutability": "payable",
      "type": "function"
    },
    {
      "inputs": [],
      "name": "staking",
      "outputs": [
        {
          "internalType": "contract IEeseeStaking",
          "name": "",
          "type": "address"
        }
      ],
      "stateMutability": "view",
      "type": "function"
    },
    {
      "inputs": [
        {
          "internalType": "bytes4",
          "name": "interfaceId",
          "type": "bytes4"
        }
      ],
      "name": "supportsInterface",
      "outputs": [
        {
          "internalType": "bool",
          "name": "",
          "type": "bool"
        }
      ],
      "stateMutability": "view",
      "type": "function"
    }
  ],
  "bytecode": "0x6102606040526201518060075f6101000a81548167ffffffffffffffff021916908367ffffffffffffffff16021790555062278d00600760086101000a81548167ffffffffffffffff021916908367ffffffffffffffff160217905550610258600760106101000a81548163ffffffff021916908363ffffffff1602179055503480156200008b575f80fd5b506040516200cb163803806200cb168339818101604052810190620000b1919062000b93565b6040518060400160405280600581526020017f45657365650000000000000000000000000000000000000000000000000000008152506040518060400160405280600181526020017f31000000000000000000000000000000000000000000000000000000000000008152506200013360018362000a0660201b90919060201c565b61012081815250506200015160028262000a0660201b90919060201c565b6101408181525050818051906020012060e08181525050808051906020012061010081815250504660a081815250506200019062000a5b60201b60201c565b608081815250503073ffffffffffffffffffffffffffffffffffffffff1660c08173ffffffffffffffffffffffffffffffffffffffff16815250505050620001e967434c37f38cc5f56660c01b62000ab760201b60201c565b6200020567118ea6ea42f9921d60c01b62000ab760201b60201c565b600160038190555062000229672f78f5fd0722fdee60c01b62000aba60201b60201c565b62000245679e633bd61750965660c01b62000aba60201b60201c565b620002616740d3f34cf5a0917660c01b62000aba60201b60201c565b5f73ffffffffffffffffffffffffffffffffffffffff168973ffffffffffffffffffffffffffffffffffffffff16148015620002b55750620002b467057600e06990ef6560c01b62000abd60201b60201c565b5b806200033657505f73ffffffffffffffffffffffffffffffffffffffff168873ffffffffffffffffffffffffffffffffffffffff161480156200031057506200030f673816c869b51b3aaf60c01b62000abd60201b60201c565b5b80156200033557506200033467ef3bcec6a265b3eb60c01b62000abd60201b60201c565b5b5b80620003b757505f73ffffffffffffffffffffffffffffffffffffffff168773ffffffffffffffffffffffffffffffffffffffff1614801562000391575062000390673e3ef0b76ca22db860c01b62000abd60201b60201c565b5b8015620003b65750620003b56783badaa64542e5f160c01b62000abd60201b60201c565b5b5b806200043857505f73ffffffffffffffffffffffffffffffffffffffff168673ffffffffffffffffffffffffffffffffffffffff161480156200041257506200041167c3a18060e673b3a160c01b62000abd60201b60201c565b5b80156200043757506200043667fc364da72c6fc25260c01b62000abd60201b60201c565b5b5b80620004b957505f73ffffffffffffffffffffffffffffffffffffffff168573ffffffffffffffffffffffffffffffffffffffff1614801562000493575062000492677233122ba9c657cd60c01b62000abd60201b60201c565b5b8015620004b85750620004b7676b70bbb710341a7760c01b62000abd60201b60201c565b5b5b806200053a57505f73ffffffffffffffffffffffffffffffffffffffff168473ffffffffffffffffffffffffffffffffffffffff16148015620005145750620005136793dea48a31ef7fc760c01b62000abd60201b60201c565b5b8015620005395750620005386758f799c8d40a9cd060c01b62000abd60201b60201c565b5b5b80620005bb57505f73ffffffffffffffffffffffffffffffffffffffff168373ffffffffffffffffffffffffffffffffffffffff1614801562000595575062000594673648b89ad910f5e260c01b62000abd60201b60201c565b5b8015620005ba5750620005b967faa10d8897ddf30d60c01b62000abd60201b60201c565b5b5b806200061757505f73ffffffffffffffffffffffffffffffffffffffff168273ffffffffffffffffffffffffffffffffffffffff161480156200061657506200061567145d71697dce0f6e60c01b62000abd60201b60201c565b5b5b156200066b576200063967950de8711b97ab7a60c01b62000aba60201b60201c565b6040517f12c1701b00000000000000000000000000000000000000000000000000000000815260040160405180910390fd5b62000687679b4b4791725e330460c01b62000aba60201b60201c565b620006a367bfb370399e29aeb660c01b62000aba60201b60201c565b8873ffffffffffffffffffffffffffffffffffffffff166101608173ffffffffffffffffffffffffffffffffffffffff1681525050620006f467a9d8766edb3ba8ed60c01b62000aba60201b60201c565b8773ffffffffffffffffffffffffffffffffffffffff166101808173ffffffffffffffffffffffffffffffffffffffff16815250506200074567662ec04dee477bcd60c01b62000aba60201b60201c565b8673ffffffffffffffffffffffffffffffffffffffff166101a08173ffffffffffffffffffffffffffffffffffffffff1681525050620007966717714b5f96fdcdcb60c01b62000aba60201b60201c565b8573ffffffffffffffffffffffffffffffffffffffff166101c08173ffffffffffffffffffffffffffffffffffffffff1681525050620007e7679670761f3c159f0860c01b62000aba60201b60201c565b8473ffffffffffffffffffffffffffffffffffffffff166101e08173ffffffffffffffffffffffffffffffffffffffff1681525050620008386792747232498cc25060c01b62000aba60201b60201c565b8360055f6101000a81548173ffffffffffffffffffffffffffffffffffffffff021916908373ffffffffffffffffffffffffffffffffffffffff160217905550620008946773300c47fb122bbc60c01b62000aba60201b60201c565b8273ffffffffffffffffffffffffffffffffffffffff166102408173ffffffffffffffffffffffffffffffffffffffff1681525050620008e56756ac5f0fdb8ea91060c01b62000aba60201b60201c565b8173ffffffffffffffffffffffffffffffffffffffff166102008173ffffffffffffffffffffffffffffffffffffffff16815250506200093667a9f6b36a334e543360c01b62000aba60201b60201c565b8173ffffffffffffffffffffffffffffffffffffffff166375b238fc6040518163ffffffff1660e01b8152600401602060405180830381865afa15801562000980573d5f803e3d5ffd5b505050506040513d601f19601f82011682018060405250810190620009a6919062000c6c565b6102208181525050620009ca67c4e40af17455c21a60c01b62000aba60201b60201c565b620009e6670c84b4abd2878d5c60c01b62000aba60201b60201c565b620009f78162000ac760201b60201c565b50505050505050505062000ed6565b5f60208351101562000a2b5762000a238362000b0960201b60201c565b905062000a55565b8262000a3d8362000b7360201b60201c565b5f01908162000a4d919062000d54565b5060ff5f1b90505b92915050565b5f7f8b73c3c69bb8fe3d512ecc4cf759cc79239f7b179b0ffacaa9a75d522b39400f60e05161010051463060405160200162000a9c95949392919062000e29565b60405160208183030381529060405280519060200120905090565b50565b50565b5f60019050919050565b805f806101000a81548173ffffffffffffffffffffffffffffffffffffffff021916908373ffffffffffffffffffffffffffffffffffffffff16021790555050565b5f80829050601f8151111562000b5857826040517f305a27a900000000000000000000000000000000000000000000000000000000815260040162000b4f919062000e5d565b60405180910390fd5b80518162000b669062000ead565b5f1c175f1b915050919050565b5f819050919050565b60018060a01b038116811462000b90575f80fd5b50565b5f805f805f805f805f6101208a8c03121562000bad575f80fd5b895162000bba8162000b7c565b8099505060208a015162000bce8162000b7c565b8098505060408a015162000be28162000b7c565b8097505060608a015162000bf68162000b7c565b8096505060808a015162000c0a8162000b7c565b8095505060a08a015162000c1e8162000b7c565b8094505060c08a015162000c328162000b7c565b8093505060e08a015162000c468162000b7c565b809250506101008a015162000c5b8162000b7c565b809150509295985092959850929598565b5f6020828403121562000c7d575f80fd5b8151905092915050565b634e487b7160e01b5f52604160045260245ffd5b5f8160011c9050600182168062000cb357607f821691505b60208210810362000cd257634e487b7160e01b5f52602260045260245ffd5b50919050565b805f52505f60205f20905090565b601f82111562000d37575f81815260208120601f850160051c8101602086101562000d0f578190505b601f850160051c820191505b8181101562000d335782815560018101905062000d1b565b5050505b505050565b5f8260011b5f198460031b1c19831617905092915050565b815160018060401b0381111562000d705762000d6f62000c87565b5b62000d888162000d81845462000c9b565b8462000ce6565b5f6020809150601f83116001811462000dbf575f841562000daa578387015190505b62000db6858262000d3c565b86555062000e21565b601f19841662000dcf8662000cd8565b5f5b8281101562000df6578589015182556001820191508486019550848101905062000dd1565b508582101562000e1557848801515f1960f88860031b161c1981168255505b505060018460011b0185555b505050505050565b5f60a08201905086825285602083015284604083015283606083015260018060a01b03831660808301529695505050505050565b5f6020808352835180828501525f5b8181101562000e8d5782818701015160408287010152828101905062000e6c565b505f604082860101526040601f19601f8301168501019250505092915050565b5f815160208301519150602081101562000ed0575f198160200360031b1b821691505b50919050565b60805160a05160c05160e05161010051610120516101405161016051610180516101a0516101c0516101e05161020051610220516102405161bb12620010045f395f61948501525f818161312f01528181616a6801528181616dfd01526174d601525f81816130f301528181616a2c01528181616dc10152818161749a015261776701525f818161177d01528181611f07015281816127f201528181613b2e0152615bca01525f8181612f0a015261434a01525f611fbf01525f8181610f0b015261110a01525f8181610daf01528181610e9c01528181611e610152818161307f01528181614dfc0152818161687a0152818161698c01526196ee01525f6133ce01525f61339a01525f6199bb01525f61999a01525f618af601525f618b4c01525f618b75015261bb125ff3fe608060405260043610610233575f3560e01c8063870fb26211610137578063ce1b815f116100af578063eecd5b9c1161007e578063f23a6e6111610063578063f23a6e611461086e578063f80db741146108aa578063fdcb6068146108d257610233565b8063eecd5b9c146107ea578063f1648e841461082657610233565b8063ce1b815f14610732578063d00c8c771461075c578063d798bd8c14610784578063ddca3f43146107c057610233565b8063ac9650d811610106578063ba7b8f13116100eb578063ba7b8f131461069e578063bb8bd725146106ce578063bc197c81146106f657610233565b8063ac9650d81461063e578063ad364d251461066e57610233565b8063870fb262146105775780638a5e3ea0146105a75780639796a67d146105e3578063a469d3e61461060d57610233565b8063572b6c05116101ca5780636db5c8fd11610199578063764bd0c51161017e578063764bd0c5146104f55780638142dd531461051f57806384b0196e1461054757610233565b80636db5c8fd1461049b578063727c2e96146104c557610233565b8063572b6c05146103db5780635ec01e4d146104175780636052970c1461044157806364629f2c1461046b57610233565b806334fb48801161020657806334fb48801461031b5780634cf088d914610357578063567157611461038157806356b53e2b146103ab57610233565b806301ffc9a714610237578063127b3be514610273578063150b7a02146102a35780631647795e146102df575b5f80fd5b348015610242575f80fd5b5061025d60048036038101906102589190619cc9565b6108fc565b60405161026a9190619d1b565b60405180910390f35b61028d60048036038101906102889190619f3c565b610975565b60405161029a9190619fe5565b60405180910390f35b3480156102ae575f80fd5b506102c960048036038101906102c4919061a0a0565b611018565b6040516102d6919061a10c565b60405180910390f35b3480156102ea575f80fd5b506103056004803603810190610300919061a13e565b61102b565b6040516103129190619d1b565b60405180910390f35b348015610326575f80fd5b50610341600480360381019061033c919061a16c565b611055565b60405161034e919061a1a7565b60405180910390f35b348015610362575f80fd5b5061036b611108565b604051610378919061a1da565b60405180910390f35b34801561038c575f80fd5b5061039561112c565b6040516103a2919061a200565b60405180910390f35b6103c560048036038101906103c0919061a21a565b611145565b6040516103d29190619fe5565b60405180910390f35b3480156103e6575f80fd5b5061040160048036038101906103fc919061a271565b611eae565b60405161040e9190619d1b565b60405180910390f35b348015610422575f80fd5b5061042b611f05565b604051610438919061a296565b60405180910390f35b34801561044c575f80fd5b50610455611f29565b604051610462919061a2bc565b60405180910390f35b6104856004803603810190610480919061a2e2565b611f4e565b604051610492919061a3ac565b60405180910390f35b3480156104a6575f80fd5b506104af612068565b6040516104bc919061a200565b60405180910390f35b6104df60048036038101906104da919061a21a565b612082565b6040516104ec919061a493565b60405180910390f35b348015610500575f80fd5b5061050961307d565b604051610516919061a518565b60405180910390f35b34801561052a575f80fd5b506105456004803603810190610540919061a559565b6130a1565b005b348015610552575f80fd5b5061055b61338a565b60405161056e979695949392919061a5ba565b60405180910390f35b610591600480360381019061058c919061a21a565b613487565b60405161059e919061a493565b60405180910390f35b3480156105b2575f80fd5b506105cd60048036038101906105c8919061a651565b6144bc565b6040516105da919061a2bc565b60405180910390f35b3480156105ee575f80fd5b506105f761455f565b604051610604919061a67b565b60405180910390f35b6106276004803603810190610622919061a68b565b614593565b60405161063592919061a775565b60405180910390f35b6106586004803603810190610653919061a7a4565b614600565b604051610665919061a7e8565b60405180910390f35b6106886004803603810190610683919061a86d565b614aad565b604051610695919061a8ef565b60405180910390f35b6106b860048036038101906106b3919061a21a565b6151d5565b6040516106c59190619fe5565b60405180910390f35b3480156106d9575f80fd5b506106f460048036038101906106ef919061a271565b6169da565b005b348015610701575f80fd5b5061071c6004803603810190610717919061a909565b616d34565b604051610729919061a10c565b60405180910390f35b34801561073d575f80fd5b50610746616d48565b604051610753919061a2bc565b60405180910390f35b348015610767575f80fd5b50610782600480360381019061077d919061a9b4565b616d6f565b005b34801561078f575f80fd5b506107aa60048036038101906107a5919061a16c565b61708b565b6040516107b7919061a1a7565b60405180910390f35b3480156107cb575f80fd5b506107d461713e565b6040516107e1919061a1a7565b60405180910390f35b3480156107f5575f80fd5b50610810600480360381019061080b919061a651565b617154565b60405161081d919061a2bc565b60405180910390f35b348015610831575f80fd5b5061084c6004803603810190610847919061a9e5565b6171c2565b6040516108659d9c9b9a9998979695949392919061a9ff565b60405180910390f35b348015610879575f80fd5b50610894600480360381019061088f919061aacc565b617434565b6040516108a1919061a10c565b60405180910390f35b3480156108b5575f80fd5b506108d060048036038101906108cb919061a9b4565b617448565b005b3480156108dd575f80fd5b506108e6617765565b6040516108f3919061ab41565b60405180910390f35b5f7f4e2312e0000000000000000000000000000000000000000000000000000000007bffffffffffffffffffffffffffffffffffffffffffffffffffffffff1916827bffffffffffffffffffffffffffffffffffffffffffffffffffffffff1916148061096e575061096d82617789565b5b9050919050565b5f61098a670164b42460513d6260c01b6177f2565b61099e672f8918b1db123d9860c01b6177f5565b6109b267b53eee39a20a876360c01b6177f5565b6109c6672cb92297046e1c0660c01b6177f5565b5f34141580156109d857506001600354145b15610a23576109f167089165a55de6d8a260c01b6177f5565b6040517f1841b4e100000000000000000000000000000000000000000000000000000000815260040160405180910390fd5b610a37670f1e592b01554bd760c01b6177f5565b610a4b67b2de3a12fd0a1b6660c01b6177f5565b610a5f6735acaac3ce83c59460c01b6177f2565b610a736711808c6b656fc20d60c01b6177f2565b83610a88677eb760e4c7b5f57560c01b6177f2565b610a9c6709890c48da55818160c01b6177f2565b610ab0672267eeafeb7c99a460c01b6177f2565b5f73ffffffffffffffffffffffffffffffffffffffff168173ffffffffffffffffffffffffffffffffffffffff1603610b2957610af76768dcabd166b821cb60c01b6177f2565b6040517f9c8d2cd200000000000000000000000000000000000000000000000000000000815260040160405180910390fd5b610b3d677e6f6ba8892f6e4860c01b6177f2565b610b5167102575401d9c5f5360c01b6177f2565b610b65675d51f10d2d76dcba60c01b6177f2565b610b79676d52b776e33995f560c01b6177f2565b610b8d67b720d6e3e250a86a60c01b6177f2565b610ba167ee421b9ea41c6c7360c01b6177f2565b86869050885114610bf257610bc067d82ca30db5eac43760c01b6177f2565b6040517fa9854bc900000000000000000000000000000000000000000000000000000000815260040160405180910390fd5b610c06677fc902cc67bf2ce260c01b6177f2565b610c1a67206caf6bf5ca9d7460c01b6177f2565b610c2e67e6af7dddf736bd6460c01b6177f2565b5f5b8851811015610cc557610c4d67e1a42acb8d1a9e7560c01b6177f2565b610c99898281518110610c6357610c6261ab67565b5b6020026020010151898984818110610c7e57610c7d61ab67565b5b9050602002016020810190610c93919061a559565b886177f8565b83610ca4919061abc1565b9250610cba67c25db0dbb7d3dd4360c01b6177f2565b806001019050610c30565b50610cda670ad60f167c0fe24860c01b6177f2565b610cee67014a9f85682c403f60c01b6177f2565b5f610cf7618229565b9050610d0d67df5f8ef2090a5d6d60c01b6177f2565b610d216708a17800e48b309e60c01b6177f2565b5f8585905014610e4957610d3f67b69c7ff0c2ac9f9f60c01b6177f2565b610d5367e30236c2621ff7cd60c01b6177f2565b610d6767742f26f1e9bffa7e60c01b6177f2565b5f805f805f8989810190610d7b919061abf0565b94509450945094509450610d99675882a40dc39355f360c01b6177f2565b610dad676f188af8aceaf64060c01b6177f2565b7f000000000000000000000000000000000000000000000000000000000000000073ffffffffffffffffffffffffffffffffffffffff1663d505accf873088888888886040518863ffffffff1660e01b8152600401610e12979695949392919061ac3e565b5f604051808303815f87803b158015610e29575f80fd5b505af1158015610e3b573d5f803e3d5ffd5b505050505050505050610e5e565b610e5d67d0a9cabf580c365d60c01b6177f2565b5b610e7267b27554754eaf276f60c01b6177f2565b610e86673ff4cf08cdd2fdef60c01b6177f2565b610ee18130856bffffffffffffffffffffffff167f000000000000000000000000000000000000000000000000000000000000000073ffffffffffffffffffffffffffffffffffffffff1661825e909392919063ffffffff16565b610ef56772816cb50f5baebe60c01b6177f2565b610f0967ae0903388b9b341c60c01b6177f2565b7f000000000000000000000000000000000000000000000000000000000000000073ffffffffffffffffffffffffffffffffffffffff16633f50adf184886040518363ffffffff1660e01b8152600401610f6492919061ac95565b5f604051808303815f87803b158015610f7b575f80fd5b505af1925050508015610f8c575060015b61100b57610fa46704ba4b0153d942ef60c01b6177f2565b610fb867a22f9f037095c67b60c01b6177f2565b8573ffffffffffffffffffffffffffffffffffffffff167fb88061c54967fd5e9babc5708c54ec3d2e4a358223a5e32fb7d4cba2f20e395784604051610ffe9190619fe5565b60405180910390a261100c565b5b50509695505050505050565b5f63150b7a0260e01b9050949350505050565b6006602052815f5260405f20602052805f5260405f205f915091509054906101000a900460ff1681565b5f61106a67d604395f7be9884f60c01b6177f2565b61107e672c857ed906e3b5fe60c01b6177f2565b61109267ddc0f5fb754fff7760c01b6177f2565b600483815481106110a6576110a561ab67565b5b905f5260205f2090600b0201600a015f8373ffffffffffffffffffffffffffffffffffffffff1673ffffffffffffffffffffffffffffffffffffffff1681526020019081526020015f205f9054906101000a900463ffffffff16905092915050565b7f000000000000000000000000000000000000000000000000000000000000000081565b60075f9054906101000a900467ffffffffffffffff1681565b5f61115a6725448211558575fb60c01b6177f2565b61116e672f8918b1db123d9860c01b6177f5565b61118267b53eee39a20a876360c01b6177f5565b611196672cb92297046e1c0660c01b6177f5565b5f34141580156111a857506001600354145b156111f3576111c167089165a55de6d8a260c01b6177f5565b6040517f1841b4e100000000000000000000000000000000000000000000000000000000815260040160405180910390fd5b611207670f1e592b01554bd760c01b6177f5565b61121b67b2de3a12fd0a1b6660c01b6177f5565b61122f6726c34e295fa4c44160c01b6177f2565b6112436714cdab451139121960c01b6177f2565b81611258677eb760e4c7b5f57560c01b6177f2565b61126c6709890c48da55818160c01b6177f2565b611280672267eeafeb7c99a460c01b6177f2565b5f73ffffffffffffffffffffffffffffffffffffffff168173ffffffffffffffffffffffffffffffffffffffff16036112f9576112c76768dcabd166b821cb60c01b6177f2565b6040517f9c8d2cd200000000000000000000000000000000000000000000000000000000815260040160405180910390fd5b61130d677e6f6ba8892f6e4860c01b6177f2565b61132167102575401d9c5f5360c01b6177f2565b611335675265beee7b55e81e60c01b6177f2565b6113496708c60035ca7cc44460c01b6177f2565b61135d67fe07eeeca2bd4a1760c01b6177f2565b61137167b7e0aa4cf6e4b78460c01b6177f2565b5f61137a618229565b905061139067af48ff1432ad324b60c01b6177f2565b6113a4670a98890cad1d365a60c01b6177f2565b5f5b86869050811015611e23576113c567294793a4ed463e6660c01b6177f2565b6113d967972731017c05ccd960c01b6177f2565b5f8787838181106113ed576113ec61ab67565b5b90506020020135905061140a67aa60896fb5c03a4260c01b6177f2565b61141e67b176b15a0516504d60c01b6177f2565b611427816182e7565b61143b67232a2916fcae1c5b60c01b6177f2565b61144f67f04555ceb1b11f3860c01b6177f2565b5f600482815481106114645761146361ab67565b5b905f5260205f2090600b0201905061148667ed03a1d29fdb45cc60c01b6177f2565b61149a67d985f1f102885f0f60c01b6177f2565b5f815f01600c9054906101000a90046bffffffffffffffffffffffff1690506114cd67379657ca9236da7c60c01b6177f2565b6114e1670efc0e135b4e7d2b60c01b6177f2565b5f816bffffffffffffffffffffffff16036115475761150a678f0dc97bc70478fb60c01b6177f2565b826040517fc87c164100000000000000000000000000000000000000000000000000000000815260040161153e919061a67b565b60405180910390fd5b61155b67a019ef6cc96efcfa60c01b6177f2565b61156f67a156116dd2f12ca660c01b6177f2565b611583674f13ff07daae205b60c01b6177f2565b5f826009015f8773ffffffffffffffffffffffffffffffffffffffff1673ffffffffffffffffffffffffffffffffffffffff1681526020019081526020015f205f9054906101000a900463ffffffff1690506115e9673c2d67681c45059760c01b6177f2565b6115fd670a92563015bdea0160c01b6177f2565b5f8163ffffffff160361165b5761161e679a2467b5f56e6cd760c01b6177f2565b836040517fae267ff0000000000000000000000000000000000000000000000000000000008152600401611652919061a67b565b60405180910390fd5b61166f6714ee2cfb5888ce9960c01b6177f2565b611683678741dd767f15136160c01b6177f2565b61169767661f125f9c1a6a3c60c01b6177f2565b8260010160059054906101000a900460ff16156116ff576116c26796b9ee09172a1f4960c01b6177f2565b836040517fcc1bf0580000000000000000000000000000000000000000000000000000000081526004016116f6919061a67b565b60405180910390fd5b6117136783f0b8f4c6e70f0060c01b6177f2565b611727674e5a2b3fb3a9087160c01b6177f2565b61173b676bc4b0f31ec27ca360c01b6177f2565b5f835f01601c9054906101000a900463ffffffff16905061176667b76b74d53b5a14ca60c01b6177f2565b61177a679b999bffd4e8d15160c01b6177f2565b5f7f000000000000000000000000000000000000000000000000000000000000000073ffffffffffffffffffffffffffffffffffffffff1663fa95b139836040518263ffffffff1660e01b81526004016117d4919061acd0565b6040805180830381865afa1580156117ee573d5f803e3d5ffd5b505050506040513d601f19601f82011682018060405250810190611812919061ace6565b91505061182967699e8d4f51e0b58c60c01b6177f2565b61183d6748fe8575afc2cf6460c01b6177f2565b5f81036118fc5761185867c129b766b4b75ec660c01b6177f2565b61186c67d63a14e111ac964c60c01b6177f2565b6118806794c1cea9829d67bb60c01b6177f2565b62015180820163ffffffff1642116118e3576118a667e9ca79d2fc6a371060c01b6177f2565b856040517f128471ac0000000000000000000000000000000000000000000000000000000081526004016118da919061a67b565b60405180910390fd5b6118f767c1701ff32d140da460c01b6177f2565b6119b0565b6119106721b1b3482e9e03cd60c01b6177f2565b611924678faae545be9e4a0d60c01b6177f2565b61193867de87d3d0a62ea03160c01b6177f2565b62015180820163ffffffff16811161199b5761195e67818cf82ef399307260c01b6177f2565b856040517fcc1bf058000000000000000000000000000000000000000000000000000000008152600401611992919061a67b565b60405180910390fd5b6119af671c1a402eca867c9860c01b6177f2565b5b6119c467fdb908c202e8147460c01b6177f2565b6119d867c140985296e9b01d60c01b6177f2565b6119ec675290fab07d2ff0ee60c01b6177f2565b5f8363ffffffff1685029050611a0c67e80c24067e06b83460c01b6177f2565b808b019a50611a2567ab9869824a7d8be460c01b6177f2565b876001019750611a3f67335d2a2ad55d0cd460c01b6177f2565b83865f0160088282829054906101000a900463ffffffff160392506101000a81548163ffffffff021916908363ffffffff160217905550611a8a67d0e91cc85bad008360c01b6177f2565b5f866009015f8b73ffffffffffffffffffffffffffffffffffffffff1673ffffffffffffffffffffffffffffffffffffffff1681526020019081526020015f205f6101000a81548163ffffffff021916908363ffffffff160217905550611afb67a0b1deb863508cc060c01b6177f2565b611b0f67c330cedf5da711e660c01b6177f2565b8b73ffffffffffffffffffffffffffffffffffffffff168973ffffffffffffffffffffffffffffffffffffffff16887f5f0d5e01c94f6e597b35974549cefd32ab7f862eea9e90e19105e4b9b15c6f8a84604051611b6d9190619fe5565b60405180910390a450611b8a671a3e5e26929e82a360c01b6177f2565b611b9e67249c59f58738386560c01b6177f2565b5f855f0160089054906101000a900463ffffffff1663ffffffff16148015611c4e57508460010160069054906101000a900460ff168015611bef5750611bee672da7abdad52f27e560c01b61838c565b5b80611c4d575060046005811115611c0957611c0861a3c6565b5b856002016003015f9054906101000a900460ff166005811115611c2f57611c2e61a3c6565b5b148015611c4c5750611c4b67aa468ba6e897757760c01b61838c565b5b5b5b15611e0357611c6767012637d04666800160c01b6177f2565b60048681548110611c7b57611c7a61ab67565b5b905f5260205f2090600b02015f8082015f6101000a81549063ffffffff02191690555f820160046101000a81549063ffffffff02191690555f820160086101000a81549063ffffffff02191690555f8201600c6101000a8154906bffffffffffffffffffffffff02191690555f820160186101000a81549063ffffffff02191690555f8201601c6101000a81549063ffffffff0219169055600182015f6101000a81549063ffffffff02191690556001820160046101000a81549060ff02191690556001820160056101000a81549060ff02191690556001820160066101000a81549060ff02191690556001820160076101000a81549060ff02191690556001820160086101000a81549073ffffffffffffffffffffffffffffffffffffffff0219169055600282015f8082015f6101000a81549073ffffffffffffffffffffffffffffffffffffffff0219169055600182015f9055600282015f9055600382015f6101000a81549060ff0219169055600482015f611dfa9190619c1e565b50505050611e18565b611e1767122bdf9b0aebd3b860c01b6177f2565b5b5050505050506113a6565b50611e38674f02d330818cf49b60c01b6177f2565b611e4c678d5ac5297a8715da60c01b6177f2565b611ea584846bffffffffffffffffffffffff167f000000000000000000000000000000000000000000000000000000000000000073ffffffffffffffffffffffffffffffffffffffff166183969092919063ffffffff16565b50509392505050565b5f805f9054906101000a900473ffffffffffffffffffffffffffffffffffffffff1673ffffffffffffffffffffffffffffffffffffffff168273ffffffffffffffffffffffffffffffffffffffff16149050919050565b7f000000000000000000000000000000000000000000000000000000000000000081565b60055f9054906101000a900473ffffffffffffffffffffffffffffffffffffffff1681565b6060611f6467815417f454b6a74f60c01b6177f2565b611f7867806c3a090170c83e60c01b6177f2565b611f8c672978769f65fcfe5060c01b6177f2565b611f955f61841c565b611fa9671ac01b9a5083fd1560c01b6177f2565b611fbd6718d8a16d5c59526760c01b6177f2565b7f000000000000000000000000000000000000000000000000000000000000000073ffffffffffffffffffffffffffffffffffffffff166364629f2c348686866040518563ffffffff1660e01b815260040161201b9392919061ad50565b5f6040518083038185885af1158015612036573d5f803e3d5ffd5b50505050506040513d5f823e3d601f19601f8201168201806040525081019061205f919061addb565b90509392505050565b600760089054906101000a900467ffffffffffffffff1681565b606061209867d651c21a66c42d6f60c01b6177f2565b6120ac672f8918b1db123d9860c01b6177f5565b6120c067b53eee39a20a876360c01b6177f5565b6120d4672cb92297046e1c0660c01b6177f5565b5f34141580156120e657506001600354145b15612131576120ff67089165a55de6d8a260c01b6177f5565b6040517f1841b4e100000000000000000000000000000000000000000000000000000000815260040160405180910390fd5b612145670f1e592b01554bd760c01b6177f5565b61215967b2de3a12fd0a1b6660c01b6177f5565b61216d6748b56c4ebc615eae60c01b6177f2565b61218167c431d10d200ab5cd60c01b6177f2565b81612196677eb760e4c7b5f57560c01b6177f2565b6121aa6709890c48da55818160c01b6177f2565b6121be672267eeafeb7c99a460c01b6177f2565b5f73ffffffffffffffffffffffffffffffffffffffff168173ffffffffffffffffffffffffffffffffffffffff1603612237576122056768dcabd166b821cb60c01b6177f2565b6040517f9c8d2cd200000000000000000000000000000000000000000000000000000000815260040160405180910390fd5b61224b677e6f6ba8892f6e4860c01b6177f2565b61225f67102575401d9c5f5360c01b6177f2565b61227367dd4534a7e07030cb60c01b6177f2565b61228767e593fd80ca6e0f7160c01b6177f2565b61229b67e7c1240c823299f560c01b6177f2565b8484905067ffffffffffffffff8111156122b8576122b7619d2d565b5b6040519080825280602002602001820160405280156122f157816020015b6122de619c5b565b8152602001906001900390816122d65790505b509150612308671014a4a5823eb03760c01b6177f2565b61231c6766abc0d9bfdcd19f60c01b6177f2565b5f612325618229565b905061233b67ac070abe21383da860c01b6177f2565b61234f67e340ee8fbd2fba2a60c01b6177f2565b5f5b8686905081101561307357612370679d721e40d9482b1d60c01b6177f2565b61238467c0e4dbbf0780f45660c01b6177f2565b5f8787838181106123985761239761ab67565b5b9050602002013590506123b5678b722243b334a8ca60c01b6177f2565b6123c9678c69e7f2a1c8c3e760c01b6177f2565b6123d2816182e7565b6123e6672aa8f535a84ec6bb60c01b6177f2565b6123fa67ba387b79e59202fc60c01b6177f2565b5f6004828154811061240f5761240e61ab67565b5b905f5260205f2090600b02019050612431679badc4e6cc72f36560c01b6177f2565b612445679678e61fdb7e700d60c01b6177f2565b5f8160010160089054906101000a900473ffffffffffffffffffffffffffffffffffffffff16905061248167080c55f8f769bab760c01b6177f2565b61249567940d47df972f5f2060c01b6177f2565b5f73ffffffffffffffffffffffffffffffffffffffff168173ffffffffffffffffffffffffffffffffffffffff1603612519576124dc672c7d945b8f93d7f160c01b6177f2565b826040517fc87c1641000000000000000000000000000000000000000000000000000000008152600401612510919061a67b565b60405180910390fd5b61252d672b30a845e0107ea660c01b6177f2565b6125416706b28e0b0664844660c01b6177f2565b61255567ee09d23f4452bf8f60c01b6177f2565b8073ffffffffffffffffffffffffffffffffffffffff168573ffffffffffffffffffffffffffffffffffffffff16146125d95761259c677b1c788e51f447aa60c01b6177f2565b826040517fc9cd77cf0000000000000000000000000000000000000000000000000000000081526004016125d0919061a67b565b60405180910390fd5b6125ed67539e6390b77835e760c01b6177f2565b61260167e1e4c4ef7a9f30bc60c01b6177f2565b6126156781ac4809825ff1d460c01b6177f2565b8160010160059054906101000a900460ff161561267d57612640671460c665a547292160c01b6177f2565b826040517fcc1bf058000000000000000000000000000000000000000000000000000000008152600401612674919061a67b565b60405180910390fd5b61269167980c4ba402704d9b60c01b6177f2565b6126a56748f645a7ea719e4860c01b6177f2565b6126b9671e84c71a83ca423c60c01b6177f2565b8160010160069054906101000a900460ff1615612721576126e4678b0a7d846319990e60c01b6177f2565b826040517fd181585f000000000000000000000000000000000000000000000000000000008152600401612718919061a67b565b60405180910390fd5b61273567ac4db2642fdcc64b60c01b6177f2565b6127496713b84bd9d9e585bf60c01b6177f2565b61275d677296bcbcb497342560c01b6177f2565b5f825f01601c9054906101000a900463ffffffff169050612788675bf9e18ac0f0b6b660c01b6177f2565b61279c6735d5dd757d383fb360c01b6177f2565b8260010160049054906101000a900460ff1615612a2b576127c767f9239adf20c04b6160c01b6177f2565b6127db675a866b8741158c8560c01b6177f2565b6127ef679c6653fb356c672c60c01b6177f2565b5f7f000000000000000000000000000000000000000000000000000000000000000073ffffffffffffffffffffffffffffffffffffffff1663fa95b139836040518263ffffffff1660e01b8152600401612849919061acd0565b6040805180830381865afa158015612863573d5f803e3d5ffd5b505050506040513d601f19601f82011682018060405250810190612887919061ace6565b91505061289e677ee294a6f6bea22a60c01b6177f2565b6128b267a039eafd56a9e60d60c01b6177f2565b5f8103612971576128cd67673be8464106d97460c01b6177f2565b6128e1674ebc4cd630e2a27e60c01b6177f2565b6128f567fa261f762396991c60c01b6177f2565b62015180820163ffffffff1642116129585761291b6788615085631954a960c01b6177f2565b846040517f128471ac00000000000000000000000000000000000000000000000000000000815260040161294f919061a67b565b60405180910390fd5b61296c6782b473416fc9597260c01b6177f2565b612a25565b61298567d0fb0ee88e87425d60c01b6177f2565b612999671ebb1380be1a90b760c01b6177f2565b6129ad67cd8393238502405160c01b6177f2565b62015180820163ffffffff168111612a10576129d367200740e5d4797a2160c01b6177f2565b846040517fcc1bf058000000000000000000000000000000000000000000000000000000008152600401612a07919061a67b565b60405180910390fd5b612a2467e1ba26eb0f447f2d60c01b6177f2565b5b50612ac6565b612a3f676414d87904560ee460c01b6177f2565b612a5367532a97cfdc64e57660c01b6177f2565b8063ffffffff164211612ab157612a74675db6bf49a0ea824860c01b6177f2565b836040517f128471ac000000000000000000000000000000000000000000000000000000008152600401612aa8919061a67b565b60405180910390fd5b612ac5675ae948ad5b05f67560c01b6177f2565b5b612ada67334bd2f23f6308fe60c01b6177f2565b612aee67d46719d8e3bc745060c01b6177f2565b5f836002016040518060a00160405290815f82015f9054906101000a900473ffffffffffffffffffffffffffffffffffffffff1673ffffffffffffffffffffffffffffffffffffffff1673ffffffffffffffffffffffffffffffffffffffff1681526020016001820154815260200160028201548152602001600382015f9054906101000a900460ff166005811115612b8a57612b8961a3c6565b5b6005811115612b9c57612b9b61a3c6565b5b8152602001600482018054612bb09061ae16565b80601f0160208091040260200160405190810160405280929190818152602001828054612bdc9061ae16565b8015612c275780601f10612bfe57610100808354040283529160200191612c27565b820191905f5260205f20905b815481529060010190602001808311612c0a57829003601f168201915b5050505050815250509050612c4667807ef43d167a63d660c01b6177f2565b612c5a6769930b105a26cbce60c01b6177f2565b8360010160079054906101000a900460ff168015612c885750612c87677c7c111cfd2ea49460c01b61838c565b5b80612cc757505f845f0160089054906101000a900463ffffffff1663ffffffff16148015612cc65750612cc56788acd90c9699f3cf60c01b61838c565b5b5b15612e9057612ce067e1ba101bb92e5bde60c01b6177f2565b612cf467928fd31fad47891960c01b6177f2565b60048581548110612d0857612d0761ab67565b5b905f5260205f2090600b02015f8082015f6101000a81549063ffffffff02191690555f820160046101000a81549063ffffffff02191690555f820160086101000a81549063ffffffff02191690555f8201600c6101000a8154906bffffffffffffffffffffffff02191690555f820160186101000a81549063ffffffff02191690555f8201601c6101000a81549063ffffffff0219169055600182015f6101000a81549063ffffffff02191690556001820160046101000a81549060ff02191690556001820160056101000a81549060ff02191690556001820160066101000a81549060ff02191690556001820160076101000a81549060ff02191690556001820160086101000a81549073ffffffffffffffffffffffffffffffffffffffff0219169055600282015f8082015f6101000a81549073ffffffffffffffffffffffffffffffffffffffff0219169055600182015f9055600282015f9055600382015f6101000a81549060ff0219169055600482015f612e879190619c1e565b50505050612ed6565b612ea4675b1de7b3f92d2b1560c01b6177f2565b612eb86709ea98990722dd2a60c01b6177f2565b60018460010160066101000a81548160ff0219169083151502179055505b612eea674ee6e5e1c492e74860c01b6177f2565b8073__$72af780dd7c349ae107e216b14f91847d4$__63dbe6079f90918c7f00000000000000000000000000000000000000000000000000000000000000006040518463ffffffff1660e01b8152600401612f479392919061ae6a565b5f60405180830381865af4158015612f61573d5f803e3d5ffd5b505050506040513d5f823e3d601f19601f82011682018060405250810190612f89919061aebb565b898781518110612f9c57612f9b61ab67565b5b6020026020010181905250612fbb6720b29a22bc02e64d60c01b6177f2565b612fcf67acdd960cdb992d9c60c01b6177f2565b8973ffffffffffffffffffffffffffffffffffffffff168773ffffffffffffffffffffffffffffffffffffffff16867f12650d05f405bb47df1fbc670929e68d0b595cc452e0ed396c0dff2382ddd8b58c8a815181106130325761303161ab67565b5b6020026020010151604051613047919061af65565b60405180910390a46130636701097bae123b4ec960c01b6177f2565b8560010195505050505050612351565b5050509392505050565b7f000000000000000000000000000000000000000000000000000000000000000081565b6130b56795e03820ae06d74460c01b6177f2565b6130c967b53800bce9b6bceb60c01b6177f2565b6130dd677fe4ac375304862060c01b6177f2565b6130f16718fa391ce27629b960c01b6177f2565b7f000000000000000000000000000000000000000000000000000000000000000073ffffffffffffffffffffffffffffffffffffffff166391d148547f0000000000000000000000000000000000000000000000000000000000000000613156618229565b6040518363ffffffff1660e01b815260040161317392919061af7f565b602060405180830381865afa15801561318e573d5f803e3d5ffd5b505050506040513d601f19601f820116820180604052508101906131b2919061afac565b6131fc576131ca67cf565b1b2b34165f60c01b6177f2565b6040517fc183bcef00000000000000000000000000000000000000000000000000000000815260040160405180910390fd5b613210678fc12f8a3455358460c01b6177f2565b61322467510063072f43ee9560c01b6177f2565b61323867dc11938569ac705a60c01b6177f2565b61324c67bdea3e38951f572860c01b6177f2565b613260677d409f9c585732c460c01b6177f2565b61327467c57acad6a80c562660c01b6177f2565b6113888163ffffffff1611156132ca5761329867f0b745353f1b728660c01b6177f2565b6040517fcd4e616700000000000000000000000000000000000000000000000000000000815260040160405180910390fd5b6132de6770d1bdf94d0d778760c01b6177f2565b6132f267c7c1d167296b102660c01b6177f2565b6133066794f611f7ee8f6bfb60c01b6177f2565b8063ffffffff16600760109054906101000a900463ffffffff1663ffffffff167fe50fb4e9ec0119d495079e81085516243df607978f5087d4d1d0d15107e323df60405160405180910390a361336667d40872af729e789060c01b6177f2565b80600760106101000a81548163ffffffff021916908363ffffffff16021790555050565b5f6060805f805f60606133c760017f00000000000000000000000000000000000000000000000000000000000000006186d890919063ffffffff16565b6133fb60027f00000000000000000000000000000000000000000000000000000000000000006186d890919063ffffffff16565b46305f801b5f67ffffffffffffffff81111561341a57613419619d2d565b5b6040519080825280602002602001820160405280156134485781602001602082028036833780820191505090505b507f0f00000000000000000000000000000000000000000000000000000000000000959493929190965096509650965096509650965090919293949596565b606061349d6724e91cbe20b9044760c01b6177f2565b6134b1672f8918b1db123d9860c01b6177f5565b6134c567b53eee39a20a876360c01b6177f5565b6134d9672cb92297046e1c0660c01b6177f5565b5f34141580156134eb57506001600354145b156135365761350467089165a55de6d8a260c01b6177f5565b6040517f1841b4e100000000000000000000000000000000000000000000000000000000815260040160405180910390fd5b61354a670f1e592b01554bd760c01b6177f5565b61355e67b2de3a12fd0a1b6660c01b6177f5565b6135726708215f709a722d7660c01b6177f2565b613586678f264e8b7b227ae860c01b6177f2565b8161359b677eb760e4c7b5f57560c01b6177f2565b6135af6709890c48da55818160c01b6177f2565b6135c3672267eeafeb7c99a460c01b6177f2565b5f73ffffffffffffffffffffffffffffffffffffffff168173ffffffffffffffffffffffffffffffffffffffff160361363c5761360a6768dcabd166b821cb60c01b6177f2565b6040517f9c8d2cd200000000000000000000000000000000000000000000000000000000815260040160405180910390fd5b613650677e6f6ba8892f6e4860c01b6177f2565b61366467102575401d9c5f5360c01b6177f2565b61367867f82e06c6d2a0b07760c01b6177f2565b61368c67863b61fab9be0fe160c01b6177f2565b6136a067817955792dc98b0760c01b6177f2565b8484905067ffffffffffffffff8111156136bd576136bc619d2d565b5b6040519080825280602002602001820160405280156136f657816020015b6136e3619c5b565b8152602001906001900390816136db5790505b50915061370d672d30a46489b7d3e060c01b6177f2565b6137216780a553dbc333865460c01b6177f2565b5f61372a618229565b905061374067185e7e4f341ec02660c01b6177f2565b61375467dd37c0f792787b0f60c01b6177f2565b5f5b868690508110156144b2576137756734b1cae546aaf6f960c01b6177f2565b613789677888162a697b971f60c01b6177f2565b5f87878381811061379d5761379c61ab67565b5b9050602002013590506137ba674729518c7b7dcad060c01b6177f2565b6137ce675a2ff86a4247a9cc60c01b6177f2565b6137d7816182e7565b6137eb67df5853fefadc6c3b60c01b6177f2565b6137ff676f27e3b622f9785560c01b6177f2565b5f600482815481106138145761381361ab67565b5b905f5260205f2090600b020190506138366772af5897d1c9d55b60c01b6177f2565b61384a6766b58dfa6bcb37d960c01b6177f2565b5f815f01601c9054906101000a900463ffffffff169050613875677e14f4fd3261860960c01b6177f2565b61388967023696c9431f0cfc60c01b6177f2565b5f8163ffffffff16036138e7576138aa67dc90c71be28451ed60c01b6177f2565b826040517fc87c16410000000000000000000000000000000000000000000000000000000081526004016138de919061a67b565b60405180910390fd5b6138fb67d2817836c6e18b0560c01b6177f2565b61390f671190d294eb1b682a60c01b6177f2565b61392367597f79727a91117a60c01b6177f2565b8160010160049054906101000a900460ff1661398a5761394d67193311d859b5410160c01b6177f2565b826040517f3fae9476000000000000000000000000000000000000000000000000000000008152600401613981919061a67b565b60405180910390fd5b61399e671591e5433c765d9760c01b6177f2565b6139b267ad4c13f118c39c8860c01b6177f2565b6139c667c7d80703502a315660c01b6177f2565b8160010160059054906101000a900460ff1615613aee576139f16786399455de30427f60c01b6177f2565b613a0567faab0c5e813845f260c01b6177f2565b613a1967e1d8f9502f56a0bc60c01b6177f2565b816008015f8063ffffffff1681526020019081526020015f205f9054906101000a900473ffffffffffffffffffffffffffffffffffffffff1673ffffffffffffffffffffffffffffffffffffffff168573ffffffffffffffffffffffffffffffffffffffff1614613ad557613a9867ed7c97d61e6543c060c01b6177f2565b826040517f1d12a9fe000000000000000000000000000000000000000000000000000000008152600401613acc919061a67b565b60405180910390fd5b613ae96709dc736b2c42274760c01b6177f2565b613ebd565b613b0267716799fe3e25bb5660c01b6177f2565b613b166746426ad2bea5e03d60c01b6177f2565b613b2a67b25b2d609aac85be60c01b6177f2565b5f807f000000000000000000000000000000000000000000000000000000000000000073ffffffffffffffffffffffffffffffffffffffff1663fa95b139846040518263ffffffff1660e01b8152600401613b85919061acd0565b6040805180830381865afa158015613b9f573d5f803e3d5ffd5b505050506040513d601f19601f82011682018060405250810190613bc3919061ace6565b91509150613bdb6756e59fda1a25046260c01b6177f2565b613bef6770f7c6a4eb04844960c01b6177f2565b5f8103613c4657613c0a6728dc3c48b4eef95060c01b6177f2565b846040517e4337df000000000000000000000000000000000000000000000000000000008152600401613c3d919061a67b565b60405180910390fd5b613c5a677fcdbe44620be27160c01b6177f2565b613c6e67fd6d1f9f86e617b760c01b6177f2565b613c82677f7b919b804529d460c01b6177f2565b62015180830163ffffffff16811115613ce657613ca967548625a76381ff5860c01b6177f2565b846040517f6250c2b4000000000000000000000000000000000000000000000000000000008152600401613cdd919061a67b565b60405180910390fd5b613cfa67321e110dfbaa5a7e60c01b6177f2565b613d0e67185306b4021674d060c01b6177f2565b613d226701a3604fd81b6ef960c01b6177f2565b613d36679cfefa3845b09e8160c01b6177f2565b5f6101008681613d4957613d4861afd5565b5b069050613d6067dac3c87caf90014160c01b6177f2565b613d746714063b9a4209c13160c01b6177f2565b5f816101000384901c8285901b179050613d98671dbd95c5e277c0a560c01b6177f2565b613dac6791aba0ece19d0d8c60c01b6177f2565b5f613df587885f0160049054906101000a900463ffffffff16895f0160089054906101000a900463ffffffff160163ffffffff168481613def57613dee61afd5565b5b06618785565b9050613e0b672e2db09ccb30cc1360c01b6177f2565b613e1f67b80d0c1de0a3144c60c01b6177f2565b8073ffffffffffffffffffffffffffffffffffffffff168a73ffffffffffffffffffffffffffffffffffffffff1614613ea357613e6667d0e2797d0b2d9cbb60c01b6177f2565b876040517f1d12a9fe000000000000000000000000000000000000000000000000000000008152600401613e9a919061a67b565b60405180910390fd5b613eb767de12c1b9071e7b3060c01b6177f2565b50505050505b613ed167e5ab774b1c69a0aa60c01b6177f2565b613ee56704993068d3e63eb760c01b6177f2565b8160010160069054906101000a900460ff1615613f4d57613f10674421ce981c47315360c01b6177f2565b826040517fd181585f000000000000000000000000000000000000000000000000000000008152600401613f44919061a67b565b60405180910390fd5b613f616782175ec1ca971b9d60c01b6177f2565b613f756730d4e0b382f2383460c01b6177f2565b613f89678d7ea15e7a27ea2360c01b6177f2565b5f826002016040518060a00160405290815f82015f9054906101000a900473ffffffffffffffffffffffffffffffffffffffff1673ffffffffffffffffffffffffffffffffffffffff1673ffffffffffffffffffffffffffffffffffffffff1681526020016001820154815260200160028201548152602001600382015f9054906101000a900460ff1660058111156140255761402461a3c6565b5b60058111156140375761403661a3c6565b5b815260200160048201805461404b9061ae16565b80601f01602080910402602001604051908101604052809291908181526020018280546140779061ae16565b80156140c25780601f10614099576101008083540402835291602001916140c2565b820191905f5260205f20905b8154815290600101906020018083116140a557829003601f168201915b50505050508152505090506140e167f97ab9a520e4f58b60c01b6177f2565b6140f5676d0ec80d1060b31a60c01b6177f2565b8260010160079054906101000a900460ff16156142d057614120677952f6d8afa78d1160c01b6177f2565b61413467ebd61bc59450f76d60c01b6177f2565b600484815481106141485761414761ab67565b5b905f5260205f2090600b02015f8082015f6101000a81549063ffffffff02191690555f820160046101000a81549063ffffffff02191690555f820160086101000a81549063ffffffff02191690555f8201600c6101000a8154906bffffffffffffffffffffffff02191690555f820160186101000a81549063ffffffff02191690555f8201601c6101000a81549063ffffffff0219169055600182015f6101000a81549063ffffffff02191690556001820160046101000a81549060ff02191690556001820160056101000a81549060ff02191690556001820160066101000a81549060ff02191690556001820160076101000a81549060ff02191690556001820160086101000a81549073ffffffffffffffffffffffffffffffffffffffff0219169055600282015f8082015f6101000a81549073ffffffffffffffffffffffffffffffffffffffff0219169055600182015f9055600282015f9055600382015f6101000a81549060ff0219169055600482015f6142c79190619c1e565b50505050614316565b6142e467b89163e8abacedb660c01b6177f2565b6142f867e2f578625ee1ff2760c01b6177f2565b60018360010160066101000a81548160ff0219169083151502179055505b61432a673b31bac45b32fef960c01b6177f2565b8073__$72af780dd7c349ae107e216b14f91847d4$__63dbe6079f90918b7f00000000000000000000000000000000000000000000000000000000000000006040518463ffffffff1660e01b81526004016143879392919061ae6a565b5f60405180830381865af41580156143a1573d5f803e3d5ffd5b505050506040513d5f823e3d601f19601f820116820180604052508101906143c9919061aebb565b8886815181106143dc576143db61ab67565b5b60200260200101819052506143fb674672ce69449164ef60c01b6177f2565b61440f676121c47846bf1bc860c01b6177f2565b8873ffffffffffffffffffffffffffffffffffffffff168673ffffffffffffffffffffffffffffffffffffffff16857f02f768edc2c81c64ab82d5a40a06c32639e178bb3de87f04202451161e2162688b89815181106144725761447161ab67565b5b6020026020010151604051614487919061af65565b60405180910390a46144a36790c407e69ce9d3cb60c01b6177f2565b84600101945050505050613756565b5050509392505050565b5f6144d1673ec7daa5e6fcf07b60c01b6177f2565b6144e567fa922955d1ad0aa060c01b6177f2565b6144f96793538324ddfe783560c01b6177f2565b6004838154811061450d5761450c61ab67565b5b905f5260205f2090600b02016008015f8363ffffffff1663ffffffff1681526020019081526020015f205f9054906101000a900473ffffffffffffffffffffffffffffffffffffffff16905092915050565b5f6145746742dbfd79b5b8a69c60c01b6177f2565b614588679bd024302f9488cc60c01b6177f2565b600480549050905090565b60605f6145aa677a0ac3d9bfa5491560c01b6177f2565b6145be67c62ac4538ffad8b360c01b6177f2565b6145cb8c8c8c8c8c614aad565b91506145e1673dbbebeb3aa0b15e60c01b6177f2565b6145ef828888888888610975565b90509a509a98505050505050505050565b6060614616676aa1dd8d056b891b60c01b6177f5565b61462a67491111abc0b6d6d860c01b6177f5565b61463e67fbb80491b7eb2ce160c01b6177f5565b5f34146147065761465967b3e817d33459d14f60c01b6177f5565b61466d673332990ccbf0ce4a60c01b6177f5565b61468167586074a59331f17860c01b6177f5565b6001600354146146d15761469f67acf65869e0b9125960c01b6177f5565b6040517f37ed32e800000000000000000000000000000000000000000000000000000000815260040160405180910390fd5b6146e5677e99aa352f4e7e7e60c01b6177f5565b6146f967f705c459a098e4ac60c01b6177f5565b600260038190555061471b565b61471a67586d10bf30950aa160c01b6177f5565b5b61472f67cb9d6094afec81cc60c01b6177f5565b8282905067ffffffffffffffff81111561474c5761474b619d2d565b5b60405190808252806020026020018201604052801561477f57816020015b606081526020019060019003908161476a5790505b509050614796676a1db80d8f38e89e60c01b6177f5565b6147aa67a9a5f1ea0cb1131e60c01b6177f5565b5f5b838390508110156149a2576147cb67590e1e2031bc3f2b60c01b6177f5565b6147df67c2e75f972ba068f160c01b6177f5565b5f803073ffffffffffffffffffffffffffffffffffffffff1686868581811061480b5761480a61ab67565b5b905060200281019061481d919061b002565b60405161482b92919061b06e565b5f60405180830381855af49150503d805f8114614863576040519150601f19603f3d011682016040523d82523d5f602084013e614868565b606091505b50915091506148816774f49dfc93c3ddca60c01b6177f5565b6148956761f8865cb8d1862b60c01b6177f5565b8161493a576148ae67b075d6a5d5903e5a60c01b6177f5565b6148c26794e32301aac7ed9960c01b6177f5565b6148d6679a7fccca8e59fc2460c01b6177f5565b5f81510361490a576148f267bf85717d4b534c2560c01b6177f5565b61490667adb9f166d3c19e2360c01b6177f5565b5f80fd5b61491e670869031e6bbc5a1860c01b6177f5565b6149326738ad2dcbcb38156360c01b6177f5565b805181602001fd5b61494e670a45e41dea67376560c01b6177f5565b61496267482c25fde4cec06360c01b6177f5565b808484815181106149765761497561ab67565b5b602002602001018190525061499567e99bb167837b480160c01b6177f5565b82600101925050506147ac565b506149b767d1d0fc2cec78a2fe60c01b6177f5565b6149cb674a78efbc9515c05860c01b6177f5565b5f3414614a92576149e667db9076f2357fddf160c01b6177f5565b6149fa67465e50982a07135b60c01b6177f5565b614a0e67d11ba2f1ddd8190f60c01b6177f5565b6003805414614a5d57614a2b67dbd2f42137f754ad60c01b6177f5565b6040517fd5bcee7e00000000000000000000000000000000000000000000000000000000815260040160405180910390fd5b614a7167aa8dec6ddfc9dded60c01b6177f5565b614a8567f563b24f3a472f2c60c01b6177f5565b6001600381905550614aa7565b614aa667f25c373c4f5e698e60c01b6177f5565b5b92915050565b6060614ac36735466f32b919acc260c01b6177f2565b614ad767b7ae98410747f7bd60c01b6177f2565b614aeb675a7349dc811c579d60c01b6177f2565b600760109054906101000a900463ffffffff1663ffffffff168263ffffffff1614614b5657614b2467828dc631dfc50d6160c01b6177f2565b6040517f58d620b300000000000000000000000000000000000000000000000000000000815260040160405180910390fd5b614b6a6704f32ef8d2bb595e60c01b6177f2565b614b7e677f778162d07e421b60c01b6177f2565b614b9267da1d2388c01540e460c01b6177f2565b838390508686905014614be557614bb36706d7eaa64a9d6c7360c01b6177f2565b6040517fa9854bc900000000000000000000000000000000000000000000000000000000815260040160405180910390fd5b614bf9673b6bfd698b5748f460c01b6177f2565b614c0d67166830c3c6ba229860c01b6177f2565b8585905067ffffffffffffffff811115614c2a57614c29619d2d565b5b604051908082528060200260200182016040528015614c585781602001602082028036833780820191505090505b509050614c6f67a4034a523bd5b26560c01b6177f2565b614c8367beb4e285491f158960c01b6177f2565b5f349050614c9b679379468dfa5467ea60c01b6177f2565b614caf6788720318201ec28260c01b6177f2565b5f614cb8618229565b9050614cce6738f1f1f559d2f6e660c01b6177f2565b614ce26743a7eccfbd65787660c01b6177f2565b5f614ceb618af3565b9050614d016733b1b59eeba7ea9460c01b6177f2565b614d156726babe9a322acbe060c01b6177f2565b5f5b8989905081101561519757614d36676ef9752f845f387260c01b6177f2565b614d4a67cd80fdfeddeeba1b60c01b6177f2565b5f614d5f677d6a3f58ff87b10c60c01b6177f2565b614d73675240b6e718ecf20760c01b6177f2565b5f614d8867985db138ea9c718260c01b6177f2565b8b8b84818110614d9b57614d9a61ab67565b5b9050602002810190614dad919061b084565b614db69061b0c2565b73__$72af780dd7c349ae107e216b14f91847d4$__637bbdd17290918c8c87818110614de557614de461ab67565b5b9050602002810190614df7919061b146565b8989897f00000000000000000000000000000000000000000000000000000000000000006040518763ffffffff1660e01b8152600401614e3c9695949392919061b213565b606060405180830381865af4158015614e57573d5f803e3d5ffd5b505050506040513d601f19601f82011682018060405250810190614e7b919061b30f565b809850819350829450505050614e9b6746c24f614f952c3c60c01b6177f2565b614eef8c8c85818110614eb157614eb061ab67565b5b9050602002810190614ec3919061b084565b8b8b86818110614ed657614ed561ab67565b5b9050602002810190614ee8919061b146565b8a85618ba9565b878481518110614f0257614f0161ab67565b5b602002602001018181525050614f2267af86190849653bb460c01b6177f2565b614f36673ad04e1159b357bb60c01b6177f2565b8173ffffffffffffffffffffffffffffffffffffffff168573ffffffffffffffffffffffffffffffffffffffff161461516157614f7d6771cf421977a5c15a60c01b6177f2565b614f91671cb104b0fc98ca3960c01b6177f2565b614fa5673196b61f234e571c60c01b6177f2565b60065f8373ffffffffffffffffffffffffffffffffffffffff1673ffffffffffffffffffffffffffffffffffffffff1681526020019081526020015f205f8281526020019081526020015f205f9054906101000a900460ff16156150495761501767a4436c8fc2c7d35760c01b6177f2565b6040517f1f6d5aef00000000000000000000000000000000000000000000000000000000815260040160405180910390fd5b61505d67e291e128aaf0523660c01b6177f2565b61507167190dd3a4efcb955b60c01b6177f2565b600160065f8473ffffffffffffffffffffffffffffffffffffffff1673ffffffffffffffffffffffffffffffffffffffff1681526020019081526020015f205f8381526020019081526020015f205f6101000a81548160ff0219169083151502179055506150e967a2960579faece6d460c01b6177f2565b6150fd67245e4a37ca32347d60c01b6177f2565b808273ffffffffffffffffffffffffffffffffffffffff168885815181106151285761512761ab67565b5b60200260200101517fc4e3e09840282d09a125dc68ec6d3f9ddc391b467fbe53aad57c80dc183bb73b60405160405180910390a4615176565b615175679adf8fc3c437ded760c01b6177f2565b5b61518a67a2dffea2bc539ff160c01b6177f2565b8260010192505050614d17565b506151ac67f4074d61dc085c7460c01b6177f2565b6151c0679d67081a5501624760c01b6177f2565b6151c98361841c565b50505095945050505050565b5f6151ea6749b1f726626caee860c01b6177f2565b6151fe672f8918b1db123d9860c01b6177f5565b61521267b53eee39a20a876360c01b6177f5565b615226672cb92297046e1c0660c01b6177f5565b5f341415801561523857506001600354145b156152835761525167089165a55de6d8a260c01b6177f5565b6040517f1841b4e100000000000000000000000000000000000000000000000000000000815260040160405180910390fd5b615297670f1e592b01554bd760c01b6177f5565b6152ab67b2de3a12fd0a1b6660c01b6177f5565b6152bf679a88f163126c834760c01b6177f2565b6152d36793e4dca11b818c0360c01b6177f2565b816152e8677eb760e4c7b5f57560c01b6177f2565b6152fc6709890c48da55818160c01b6177f2565b615310672267eeafeb7c99a460c01b6177f2565b5f73ffffffffffffffffffffffffffffffffffffffff168173ffffffffffffffffffffffffffffffffffffffff1603615389576153576768dcabd166b821cb60c01b6177f2565b6040517f9c8d2cd200000000000000000000000000000000000000000000000000000000815260040160405180910390fd5b61539d677e6f6ba8892f6e4860c01b6177f2565b6153b167102575401d9c5f5360c01b6177f2565b6153c5679d768444e8e7f96e60c01b6177f2565b6153d96706198351cd7dabec60c01b6177f2565b6153ed67473bf18aede563e360c01b6177f2565b61540167e56b0f05aa86cc5a60c01b6177f2565b5f61540a618229565b9050615420679ebc1944fb7ab2c560c01b6177f2565b61543467a41a2941b71d288060c01b6177f2565b5f61544967d79915bc5c8f08ac60c01b6177f2565b61545d672ff6bc07068659b060c01b6177f2565b5f5b8787905081101561679d5761547e670ec9caf0cc51920c60c01b6177f2565b6154926731bae196fa3e872a60c01b6177f2565b5f8888838181106154a6576154a561ab67565b5b9050602002013590506154c367cb0c8b3ee12c3f9160c01b6177f2565b6154d767b7ebb633228f1db560c01b6177f2565b6154e0816182e7565b6154f467969be587a661246560c01b6177f2565b615508674e42ca89e7a8975d60c01b6177f2565b5f6004828154811061551d5761551c61ab67565b5b905f5260205f2090600b0201905061553f6728b80b577b2891b660c01b6177f2565b61555367758ec123bda18bb160c01b6177f2565b5f8160010160089054906101000a900473ffffffffffffffffffffffffffffffffffffffff16905061558f6775e0cdafb586726060c01b6177f2565b6155a367a4d1af12da9a47bc60c01b6177f2565b5f73ffffffffffffffffffffffffffffffffffffffff168173ffffffffffffffffffffffffffffffffffffffff1603615627576155ea67496ab26e5aed8e8e60c01b6177f2565b826040517fc87c164100000000000000000000000000000000000000000000000000000000815260040161561e919061a67b565b60405180910390fd5b61563b67ebc77e8901ac86c860c01b6177f2565b61564f67123e8beb9a14498760c01b6177f2565b6156636731ee33c62c323fd660c01b6177f2565b5f825f0160089054906101000a900463ffffffff16905061568e67a30c69752f78e0a260c01b6177f2565b6156a267084d8b61bafd4cb360c01b6177f2565b5f8163ffffffff1603615700576156c367b0f79ac6511d679660c01b6177f2565b836040517ff27cfd460000000000000000000000000000000000000000000000000000000081526004016156f7919061a67b565b60405180910390fd5b615714674bf27cc0621b7c7560c01b6177f2565b61572867bc6fe4cb708ca3ad60c01b6177f2565b61573c67f9cc46fd37e88fbe60c01b6177f2565b5f615751676d9a1e8ae415095460c01b6177f2565b61576567e99f7674d1aac6c960c01b6177f2565b5f846002016003015f9054906101000a900460ff16905061579067e254a1d99f092e1660c01b6177f2565b6157a467ea3db1d44b4960cf60c01b6177f2565b8460010160059054906101000a900460ff1615615afb576157cf67d187e7962559005b60c01b6177f2565b6157e367f1f53108f5cbee6d60c01b6177f2565b6157f76747a2d0a91f9551cc60c01b6177f2565b6004600581111561580b5761580a61a3c6565b5b81600581111561581e5761581d61a3c6565b5b036159345761583767cd7b619aa8a269a260c01b6177f2565b61584b67dfb3d4208d86163860c01b6177f2565b61585f67c057003a1f4264df60c01b6177f2565b846008015f8063ffffffff1681526020019081526020015f205f9054906101000a900473ffffffffffffffffffffffffffffffffffffffff1673ffffffffffffffffffffffffffffffffffffffff168973ffffffffffffffffffffffffffffffffffffffff161461591b576158de67930160b65c9288d660c01b6177f2565b856040517f1d12a9fe000000000000000000000000000000000000000000000000000000008152600401615912919061a67b565b60405180910390fd5b61592f679db1fc26e7c4fa8660c01b6177f2565b615af6565b61594867052117c6c66b84e260c01b6177f2565b61595c6724d48f4ba510bc3a60c01b6177f2565b615970672a207156e77e669c60c01b6177f2565b8373ffffffffffffffffffffffffffffffffffffffff168973ffffffffffffffffffffffffffffffffffffffff16146159f4576159b767ad8cbbab715a819760c01b6177f2565b856040517fc9cd77cf0000000000000000000000000000000000000000000000000000000081526004016159eb919061a67b565b60405180910390fd5b615a0867d3bd345463cc6b2960c01b6177f2565b615a1c6763e68a47be514b8260c01b6177f2565b615a30676a6f4a77a3de8b3460c01b6177f2565b5f6005811115615a4357615a4261a3c6565b5b816005811115615a5657615a5561a3c6565b5b148015615a735750615a7267d8ef5caa7b1d886960c01b61838c565b5b80615abe575060016005811115615a8d57615a8c61a3c6565b5b816005811115615aa057615a9f61a3c6565b5b148015615abd5750615abc67a24a476fa45a0b6660c01b61838c565b5b5b15615ae057615ad76756ca9ffa4eb242a460c01b6177f2565b60019150615af5565b615af467dc4ea278f2c59eb860c01b6177f2565b5b5b6161cd565b615b0f67044a6381018f470860c01b6177f2565b615b23678b1ce1f8efc8fd7160c01b6177f2565b615b376714cc4b6d277c3e1c60c01b6177f2565b5f615b4c67153beb5f94dc71df60c01b6177f2565b615b60670f3c8057b023880860c01b6177f2565b615b746776954e4623c6eb3f60c01b6177f2565b5f615b8967720f93506673bc1c60c01b6177f2565b615b9d6704f887167b35b41d60c01b6177f2565b5f875f01601c9054906101000a900463ffffffff169050615bc86747be8a0ffed91bc560c01b6177f2565b7f000000000000000000000000000000000000000000000000000000000000000073ffffffffffffffffffffffffffffffffffffffff1663fa95b139826040518263ffffffff1660e01b8152600401615c21919061acd0565b6040805180830381865afa158015615c3b573d5f803e3d5ffd5b505050506040513d601f19601f82011682018060405250810190615c5f919061ace6565b8093508194505050615c7b67cca7d41bc53006f160c01b6177f2565b615c8f67bd3ac88b25b7137d60c01b6177f2565b5f8203615ce657615caa6767fab7ffd33f087060c01b6177f2565b886040517e4337df000000000000000000000000000000000000000000000000000000008152600401615cdd919061a67b565b60405180910390fd5b615cfa67c129690c67d0175860c01b6177f2565b615d0e6735764ad3b213ac2560c01b6177f2565b615d22672335dec7099a03be60c01b6177f2565b62015180810163ffffffff16821115615d8657615d4967f2f9687ed05477a760c01b6177f2565b886040517f6250c2b4000000000000000000000000000000000000000000000000000000008152600401615d7d919061a67b565b60405180910390fd5b615d9a678d0c5ff9ebc28f7b60c01b6177f2565b5050615db067a62e729a98bbf4f260c01b6177f2565b615dc4674c524effc69aabb460c01b6177f2565b8560010160049054906101000a900460ff16158015615df35750615df267a9f21bcc749f81a060c01b61838c565b5b80615e3e575060046005811115615e0d57615e0c61a3c6565b5b826005811115615e2057615e1f61a3c6565b5b148015615e3d5750615e3c67c06e9355b9cf216160c01b61838c565b5b5b1561600957615e5767b8f1dbc2cbf0b45f60c01b6177f2565b615e6b67a85c3f3de9f3706160c01b6177f2565b615e7f67c78ec7177ab83a5a60c01b6177f2565b615e93671fbb34fbc307a32d60c01b6177f2565b5f6101008881615ea657615ea561afd5565b5b069050615ebd677fb2a36ad53eeb7760c01b6177f2565b615ed16721df23211cada7ce60c01b6177f2565b5f816101000383901c8284901b179050615ef5679a4caf663250a80560c01b6177f2565b615f0967a42bf5d023bdda1260c01b6177f2565b5f615f3f898a5f0160049054906101000a900463ffffffff16890163ffffffff168481615f3957615f3861afd5565b5b06618785565b9050615f5567f21500e1077ea99c60c01b6177f2565b615f6967ac0b5d8a5ba15bc360c01b6177f2565b8073ffffffffffffffffffffffffffffffffffffffff168d73ffffffffffffffffffffffffffffffffffffffff1614615fed57615fb067d5fbcd9018d5e6e260c01b6177f2565b896040517f1d12a9fe000000000000000000000000000000000000000000000000000000008152600401615fe4919061a67b565b60405180910390fd5b6160016704685782d73d74bb60c01b6177f2565b5050506161cb565b61601d67d8fd8ba09b41198f60c01b6177f2565b6160316706065887bc9fca5660c01b6177f2565b61604567d50d4973b25acacc60c01b6177f2565b8473ffffffffffffffffffffffffffffffffffffffff168a73ffffffffffffffffffffffffffffffffffffffff16146160c95761608c67a2e81ea9509ba21860c01b6177f2565b866040517fc9cd77cf0000000000000000000000000000000000000000000000000000000081526004016160c0919061a67b565b60405180910390fd5b6160dd67a42e849ce3e09e3c60c01b6177f2565b6160f167c80592d75435b65f60c01b6177f2565b6161056778b2efe107a81e5c60c01b6177f2565b5f60058111156161185761611761a3c6565b5b82600581111561612b5761612a61a3c6565b5b148015616148575061614767488ce800cc648fd860c01b61838c565b5b806161935750600160058111156161625761616161a3c6565b5b8260058111156161755761617461a3c6565b5b148015616192575061619167d7bd9ecef7c94b6660c01b61838c565b5b5b156161b5576161ac67ee0f33b2381f66b760c01b6177f2565b600192506161ca565b6161c9678cb39b8128f40d9960c01b6177f2565b5b5b505b6161e16701c4ff17ec827ac660c01b6177f2565b6161f56755ce04a183ffbab160c01b6177f2565b61620967c87b07f592b5a48f60c01b6177f2565b5f8363ffffffff16865f01600c9054906101000a90046bffffffffffffffffffffffff16029050616244672f0965903520026e60c01b6177f2565b61625867d0c60c0e3945c0ff60c01b6177f2565b82156162c757616272677188ae38a86706f260c01b6177f2565b61628667a58426a1b7abd18b60c01b6177f2565b6162be866002015f015f9054906101000a900473ffffffffffffffffffffffffffffffffffffffff1687600201600101548388619444565b810390506162dc565b6162db67b799be61e68fea9760c01b6177f2565b5b6162f0675a1cc4ff012f34d460c01b6177f2565b61630467bbd2f35f138dbdf360c01b6177f2565b5f61271063ffffffff16876001015f9054906101000a900463ffffffff1663ffffffff16836bffffffffffffffffffffffff1602816163465761634561afd5565b5b04905061635d67424e339a0581101460c01b6177f2565b808a0199506163766756e0f86a5c3f068460c01b6177f2565b808203915061638f67288ca4f3e1b79f8d60c01b6177f2565b818d019c506163a86711c2b2719aeadd6660c01b6177f2565b8860010198506163c267e2cbaff8259bdb4160c01b6177f2565b6163d6675879a96925fda5cf60c01b6177f2565b8d73ffffffffffffffffffffffffffffffffffffffff168b73ffffffffffffffffffffffffffffffffffffffff16897ff5c3d0ba946ce1f61c398ccdceab30952250a5c3a614f566ec2fd5f1dabd17bf856040516164349190619fe5565b60405180910390a4505061645267b93e6474697f49e360c01b6177f2565b61646667a157f13d4a1bd13c60c01b6177f2565b8460010160079054906101000a900460ff16156164ce5761649167c999f80a7ff2488d60c01b6177f2565b856040517f3be20bf10000000000000000000000000000000000000000000000000000000081526004016164c5919061a67b565b60405180910390fd5b6164e267a472928e1a27389f60c01b6177f2565b6164f667818f9e7979963d6b60c01b6177f2565b61650a671a2c965b4f412f2e60c01b6177f2565b8460010160069054906101000a900460ff168015616538575061653767ba1e384e2d81904b60c01b61838c565b5b806165835750600460058111156165525761655161a3c6565b5b8160058111156165655761656461a3c6565b5b1480156165825750616581675db4f81758d79f7460c01b61838c565b5b5b1561674c5761659c67867ae12016e8ed7660c01b6177f2565b6165b067d9950a26d742dba260c01b6177f2565b600486815481106165c4576165c361ab67565b5b905f5260205f2090600b02015f8082015f6101000a81549063ffffffff02191690555f820160046101000a81549063ffffffff02191690555f820160086101000a81549063ffffffff02191690555f8201600c6101000a8154906bffffffffffffffffffffffff02191690555f820160186101000a81549063ffffffff02191690555f8201601c6101000a81549063ffffffff0219169055600182015f6101000a81549063ffffffff02191690556001820160046101000a81549060ff02191690556001820160056101000a81549060ff02191690556001820160066101000a81549060ff02191690556001820160076101000a81549060ff02191690556001820160086101000a81549073ffffffffffffffffffffffffffffffffffffffff0219169055600282015f8082015f6101000a81549073ffffffffffffffffffffffffffffffffffffffff0219169055600182015f9055600282015f9055600382015f6101000a81549060ff0219169055600482015f6167439190619c1e565b50505050616792565b61676067ac47a20e3b9d506b60c01b6177f2565b616774676dcb8c2af3a48b4f60c01b6177f2565b60018560010160076101000a81548160ff0219169083151502179055505b50505050505061545f565b506167b267cf336c6c9578f68760c01b6177f2565b6167c667b5a6a216777bb6db60c01b6177f2565b5f816bffffffffffffffffffffffff16111561693a576167f067e03c64341234bbbd60c01b6177f2565b6168046708d6fd209770faed60c01b6177f2565b616818677656835e324be41b60c01b6177f2565b5f60055f9054906101000a900473ffffffffffffffffffffffffffffffffffffffff16905061685167207ea21a234770bd60c01b6177f2565b61686567392c260f4cb468c960c01b6177f2565b6168be81836bffffffffffffffffffffffff167f000000000000000000000000000000000000000000000000000000000000000073ffffffffffffffffffffffffffffffffffffffff166183969092919063ffffffff16565b6168d2670538c44e10bcc1d960c01b6177f2565b6168e667a307b55c4a574e1260c01b6177f2565b8073ffffffffffffffffffffffffffffffffffffffff167f194055900b5891c5b0c846e80054a4aad896f0756f69397a6eaeb7014193684a8360405161692c9190619fe5565b60405180910390a25061694f565b61694e67387b4fa2eca61cfb60c01b6177f2565b5b61696367ed3c30dc39456c7660c01b6177f2565b6169776770d6fec57c217d0d60c01b6177f2565b6169d085856bffffffffffffffffffffffff167f000000000000000000000000000000000000000000000000000000000000000073ffffffffffffffffffffffffffffffffffffffff166183969092919063ffffffff16565b5050509392505050565b6169ee674ad6c59452be7d3d60c01b6177f2565b616a0267b53800bce9b6bceb60c01b6177f2565b616a16677fe4ac375304862060c01b6177f2565b616a2a6718fa391ce27629b960c01b6177f2565b7f000000000000000000000000000000000000000000000000000000000000000073ffffffffffffffffffffffffffffffffffffffff166391d148547f0000000000000000000000000000000000000000000000000000000000000000616a8f618229565b6040518363ffffffff1660e01b8152600401616aac92919061af7f565b602060405180830381865afa158015616ac7573d5f803e3d5ffd5b505050506040513d601f19601f82011682018060405250810190616aeb919061afac565b616b3557616b0367cf565b1b2b34165f60c01b6177f2565b6040517fc183bcef00000000000000000000000000000000000000000000000000000000815260040160405180910390fd5b616b49678fc12f8a3455358460c01b6177f2565b616b5d67510063072f43ee9560c01b6177f2565b616b716765e9e3d11c412eee60c01b6177f2565b616b856721e8fc796eead33460c01b6177f2565b616b99673aee3f0b64ad831a60c01b6177f2565b616bad67025cce2ccc108d7760c01b6177f2565b5f73ffffffffffffffffffffffffffffffffffffffff168173ffffffffffffffffffffffffffffffffffffffff1603616c2657616bf467d35155a106b37fd860c01b6177f2565b6040517f140ecf0500000000000000000000000000000000000000000000000000000000815260040160405180910390fd5b616c3a6726d67fa3243a823660c01b6177f2565b616c4e67a3c37a9c81413d2960c01b6177f2565b616c6267105d176ca28c157460c01b6177f2565b8073ffffffffffffffffffffffffffffffffffffffff1660055f9054906101000a900473ffffffffffffffffffffffffffffffffffffffff1673ffffffffffffffffffffffffffffffffffffffff167f523da6ae20ac3249365e93dcf61dffd12c54a455da42b245514301487fbfd93960405160405180910390a3616cf167bc9a7dece3fd00b260c01b6177f2565b8060055f6101000a81548173ffffffffffffffffffffffffffffffffffffffff021916908373ffffffffffffffffffffffffffffffffffffffff16021790555050565b5f63bc197c8160e01b905095945050505050565b5f805f9054906101000a900473ffffffffffffffffffffffffffffffffffffffff16905090565b616d83673d7589dfef9970e560c01b6177f2565b616d9767b53800bce9b6bceb60c01b6177f2565b616dab677fe4ac375304862060c01b6177f2565b616dbf6718fa391ce27629b960c01b6177f2565b7f000000000000000000000000000000000000000000000000000000000000000073ffffffffffffffffffffffffffffffffffffffff166391d148547f0000000000000000000000000000000000000000000000000000000000000000616e24618229565b6040518363ffffffff1660e01b8152600401616e4192919061af7f565b602060405180830381865afa158015616e5c573d5f803e3d5ffd5b505050506040513d601f19601f82011682018060405250810190616e80919061afac565b616eca57616e9867cf565b1b2b34165f60c01b6177f2565b6040517fc183bcef00000000000000000000000000000000000000000000000000000000815260040160405180910390fd5b616ede678fc12f8a3455358460c01b6177f2565b616ef267510063072f43ee9560c01b6177f2565b616f0667266d820b950f3ffe60c01b6177f2565b616f1a675cbb4e7372e5455d60c01b6177f2565b616f2e67fc8189fe1544a1b160c01b6177f2565b616f4267d24c7e41efe450e260c01b6177f2565b600760089054906101000a900467ffffffffffffffff1667ffffffffffffffff168167ffffffffffffffff1610616fb957616f8767c784b1b345dca32a60c01b6177f2565b6040517f7616640100000000000000000000000000000000000000000000000000000000815260040160405180910390fd5b616fcd67923f6b36a12be5a160c01b6177f2565b616fe167fcecf928542b19af60c01b6177f2565b616ff5676b581ca7c362f13760c01b6177f2565b8067ffffffffffffffff1660075f9054906101000a900467ffffffffffffffff1667ffffffffffffffff167fc14524dbf6dcb0f48ded31a41c202c3dca437c6c5bc3cc6138e880cfed08370360405160405180910390a3617060677ad11007c5be0bac60c01b6177f2565b8060075f6101000a81548167ffffffffffffffff021916908367ffffffffffffffff16021790555050565b5f6170a06709538048bbddc67860c01b6177f2565b6170b467db939bbae902c9aa60c01b6177f2565b6170c86799ef1b40d6a9cda760c01b6177f2565b600483815481106170dc576170db61ab67565b5b905f5260205f2090600b02016009015f8373ffffffffffffffffffffffffffffffffffffffff1673ffffffffffffffffffffffffffffffffffffffff1681526020019081526020015f205f9054906101000a900463ffffffff16905092915050565b600760109054906101000a900463ffffffff1681565b5f61716967c917fa1e487bf88e60c01b6177f2565b61717d67e6fe8839ae3911f860c01b6177f2565b6171916724c1fd41b2e5304860c01b6177f2565b6171ba600484815481106171a8576171a761ab67565b5b905f5260205f2090600b020183618785565b905092915050565b600481815481106171d1575f80fd5b905f5260205f2090600b02015f91509050805f015f9054906101000a900463ffffffff1690805f0160049054906101000a900463ffffffff1690805f0160089054906101000a900463ffffffff1690805f01600c9054906101000a90046bffffffffffffffffffffffff1690805f0160189054906101000a900463ffffffff1690805f01601c9054906101000a900463ffffffff1690806001015f9054906101000a900463ffffffff16908060010160049054906101000a900460ff16908060010160059054906101000a900460ff16908060010160069054906101000a900460ff16908060010160079054906101000a900460ff16908060010160089054906101000a900473ffffffffffffffffffffffffffffffffffffffff1690806002016040518060a00160405290815f82015f9054906101000a900473ffffffffffffffffffffffffffffffffffffffff1673ffffffffffffffffffffffffffffffffffffffff1673ffffffffffffffffffffffffffffffffffffffff1681526020016001820154815260200160028201548152602001600382015f9054906101000a900460ff1660058111156173895761738861a3c6565b5b600581111561739b5761739a61a3c6565b5b81526020016004820180546173af9061ae16565b80601f01602080910402602001604051908101604052809291908181526020018280546173db9061ae16565b80156174265780601f106173fd57610100808354040283529160200191617426565b820191905f5260205f20905b81548152906001019060200180831161740957829003601f168201915b50505050508152505090508d565b5f63f23a6e6160e01b905095945050505050565b61745c672f04b55dc6331c0d60c01b6177f2565b61747067b53800bce9b6bceb60c01b6177f2565b617484677fe4ac375304862060c01b6177f2565b6174986718fa391ce27629b960c01b6177f2565b7f000000000000000000000000000000000000000000000000000000000000000073ffffffffffffffffffffffffffffffffffffffff166391d148547f00000000000000000000000000000000000000000000000000000000000000006174fd618229565b6040518363ffffffff1660e01b815260040161751a92919061af7f565b602060405180830381865afa158015617535573d5f803e3d5ffd5b505050506040513d601f19601f82011682018060405250810190617559919061afac565b6175a35761757167cf565b1b2b34165f60c01b6177f2565b6040517fc183bcef00000000000000000000000000000000000000000000000000000000815260040160405180910390fd5b6175b7678fc12f8a3455358460c01b6177f2565b6175cb67510063072f43ee9560c01b6177f2565b6175df67782785f26bc5384c60c01b6177f2565b6175f36737101db0c37dfb3960c01b6177f2565b617607675b804e474e6b11db60c01b6177f2565b61761b67408a5597f174ae6a60c01b6177f2565b60075f9054906101000a900467ffffffffffffffff1667ffffffffffffffff168167ffffffffffffffff16116176915761765f678ad6ee38d571be6e60c01b6177f2565b6040517f7616640100000000000000000000000000000000000000000000000000000000815260040160405180910390fd5b6176a567072494d1c3755b0060c01b6177f2565b6176b9673838a446cd82be1e60c01b6177f2565b6176cd67871b439f3e32a4b460c01b6177f2565b8067ffffffffffffffff16600760089054906101000a900467ffffffffffffffff1667ffffffffffffffff167f48752fb030a2abe76f2d8d8681d69fa9de4ec037bb3d50f9e6b81672a8fda7bb60405160405180910390a3617739678f2b6330d46d26cc60c01b6177f2565b80600760086101000a81548167ffffffffffffffff021916908367ffffffffffffffff16021790555050565b7f000000000000000000000000000000000000000000000000000000000000000081565b5f7f01ffc9a7000000000000000000000000000000000000000000000000000000007bffffffffffffffffffffffffffffffffffffffffffffffffffffffff1916827bffffffffffffffffffffffffffffffffffffffffffffffffffffffff1916149050919050565b50565b50565b5f61780d671f9ded6663ad189e60c01b6177f2565b617821676712aca6fdcb51bb60c01b6177f2565b6178356767e0cead60a84e9560c01b6177f2565b61783e846182e7565b61785267cdc3404e826b13a560c01b6177f2565b6178666711ae4dbcbe8617a860c01b6177f2565b5f8363ffffffff16036178b957617887676e42c526b3f4a71160c01b6177f2565b6040517fb405724900000000000000000000000000000000000000000000000000000000815260040160405180910390fd5b6178cd677c97df2522c309c660c01b6177f2565b6178e1671e49e44843907c8e60c01b6177f2565b6178f5674699041827aded4560c01b6177f2565b5f6004858154811061790a5761790961ab67565b5b905f5260205f2090600b0201905061792c675c5010fefa8149e760c01b6177f2565b61794067bacc33fca021dbe360c01b6177f2565b5f815f015f9054906101000a900463ffffffff16905061796a6784ea4791cc24584e60c01b6177f2565b61797e671996dd5347d0e99f60c01b6177f2565b5f8163ffffffff16036179dc5761799f677895de5afb2674ef60c01b6177f2565b856040517fc87c16410000000000000000000000000000000000000000000000000000000081526004016179d3919061a67b565b60405180910390fd5b6179f067fcc61894f69a9e9e60c01b6177f2565b617a04679f348da8f2729cf860c01b6177f2565b617a18674e3a5e17972618f460c01b6177f2565b5f825f0160089054906101000a900463ffffffff169050617a43677dc6b155c837c18c60c01b6177f2565b617a576723a16d03cdb91d5c60c01b6177f2565b5f8187617a64919061b345565b9050617a7a67c68a0fc8d69f84b360c01b6177f2565b617a8e67067cee4da104f62560c01b6177f2565b8263ffffffff168163ffffffff161115617ae857617ab667d30fd858f58f0cd360c01b6177f2565b6040517fbe601f7600000000000000000000000000000000000000000000000000000000815260040160405180910390fd5b617afc678a39f1459c89b8f860c01b6177f2565b617b1067b1ff563200e5735060c01b6177f2565b617b246780a7410e0b23ac0e60c01b6177f2565b835f01601c9054906101000a900463ffffffff1663ffffffff16421115617b9657617b5967e649592c2aa5c98460c01b6177f2565b876040517f6250c2b4000000000000000000000000000000000000000000000000000000008152600401617b8d919061a67b565b60405180910390fd5b617baa6774cb22523a5d0a9860c01b6177f2565b617bbe67fd13982babe4db7160c01b6177f2565b617bd2679a51ad1285a850b560c01b6177f2565b617be667b64f67f8d4a98cdb60c01b6177f2565b5f617bfb67c9b85b4ecca7477860c01b6177f2565b617c0f67820a70f7bd45ffab60c01b6177f2565b617c2367a5721a1f4e922a9a60c01b6177f2565b5f8463ffffffff166004028963ffffffff168a63ffffffff160281617c4b57617c4a61afd5565b5b049050617c62678f4cfaa9529fa78660c01b6177f2565b80915050617c7a67a3799c5171630c8460c01b6177f2565b617c8e6722f4b803bed7c62c60c01b6177f2565b5f855f0160049054906101000a900463ffffffff169050617cb967db1c4010bc086db160c01b6177f2565b617ccd673e8886622a37dd0e60c01b6177f2565b5f8282019050617ce767cacbb8c65be720e660c01b6177f2565b80875f0160046101000a81548163ffffffff021916908363ffffffff160217905550617d1d67f432c76e2a1c803f60c01b6177f2565b617d31671632140f8d15252660c01b6177f2565b5f876009015f8b73ffffffffffffffffffffffffffffffffffffffff1673ffffffffffffffffffffffffffffffffffffffff1681526020019081526020015f205f9054906101000a900463ffffffff168b019050617d9967eb6381254efdd3b660c01b6177f2565b8388600a015f8c73ffffffffffffffffffffffffffffffffffffffff1673ffffffffffffffffffffffffffffffffffffffff1681526020019081526020015f205f8282829054906101000a900463ffffffff160192506101000a81548163ffffffff021916908363ffffffff160217905550617e1f67495de18f95d7dcbf60c01b6177f2565b80886009015f8c73ffffffffffffffffffffffffffffffffffffffff1673ffffffffffffffffffffffffffffffffffffffff1681526020019081526020015f205f6101000a81548163ffffffff021916908363ffffffff160217905550617e906749355730be6acd0460c01b6177f2565b84885f0160086101000a81548163ffffffff021916908363ffffffff160217905550617ec6676a90a15e53204b8160c01b6177f2565b617eda67ee46e1a7ca24656260c01b6177f2565b5f885f0160189054906101000a900463ffffffff169050617f0567ecb15745655ed72260c01b6177f2565b8a896008015f8363ffffffff1663ffffffff1681526020019081526020015f205f6101000a81548173ffffffffffffffffffffffffffffffffffffffff021916908373ffffffffffffffffffffffffffffffffffffffff160217905550617f766729f9fd9683148dd460c01b6177f2565b828601896007015f8363ffffffff1663ffffffff1681526020019081526020015f205f6101000a81548163ffffffff021916908363ffffffff160217905550617fc9670f195b583b80edf960c01b6177f2565b80600101905080895f0160186101000a81548163ffffffff021916908363ffffffff160217905550618005674e3296af7945b46c60c01b6177f2565b61801967a27df87f9e512f9d60c01b6177f2565b8763ffffffff168663ffffffff16036181465761804067be8fb2ba84c675b760c01b6177f2565b61805467fe6ccee2e2002bf260c01b6177f2565b42895f01601c6101000a81548163ffffffff021916908363ffffffff16021790555061808a67c51db82f7072a33560c01b6177f2565b60018960010160046101000a81548160ff0219169083151502179055506180bb6785a277b8ef6d155160c01b6177f2565b6180cf6742e509fe6ae0e2c660c01b6177f2565b8763ffffffff168263ffffffff160361812c576180f66784a4273d76d83a2a60c01b6177f2565b61810a6704ae9ae66c20c8cd60c01b6177f2565b60018960010160056101000a81548160ff021916908315150217905550618141565b61814067ed43cbab010a7a0560c01b6177f2565b5b61815b565b61815a673a4f94f36aa4b80560c01b6177f2565b5b61816f679e5172cf141d401f60c01b6177f2565b8b63ffffffff16895f01600c9054906101000a90046bffffffffffffffffffffffff160299506181a9673da65d72a7b6cf8360c01b6177f2565b6181bd67953a37c4d9f147f960c01b6177f2565b83870163ffffffff168b73ffffffffffffffffffffffffffffffffffffffff168e7f8772ec5268199c7b7dbfea9344db6e4dcdf075620f23f073c29aa98a7678356d8f8e8a6040516182119392919061b36c565b60405180910390a45050505050505050509392505050565b5f60145f36905010158015618243575061824233611eae565b5b1561825757601436033560601c905061825b565b3390505b90565b6182e1846323b872dd60e01b85858560405160240161827f9392919061b3a2565b604051602081830303815290604052907bffffffffffffffffffffffffffffffffffffffffffffffffffffffff19166020820180517bffffffffffffffffffffffffffffffffffffffffffffffffffffffff8381831617835250505050619834565b50505050565b6182fb67f903221605f89f9a60c01b6177f2565b61830f67dc814806315f972660c01b6177f2565b61832367ed4be0867c6ea28a60c01b6177f2565b60048054905081106183755761834367166aeedf0cd0bac860c01b6177f2565b6040517fd9fd6a1c00000000000000000000000000000000000000000000000000000000815260040160405180910390fd5b6183896794cda1b3188fe76e60c01b6177f2565b50565b5f60019050919050565b6184178363a9059cbb60e01b84846040516024016183b592919061b3da565b604051602081830303815290604052907bffffffffffffffffffffffffffffffffffffffffffffffffffffffff19166020820180517bffffffffffffffffffffffffffffffffffffffffffffffffffffffff8381831617835250505050619834565b505050565b618430672984bd3a8e5bfdbb60c01b6177f5565b6184446792b10051807f033960c01b6177f5565b618458671dc1011aa5385ae260c01b6177f5565b5f340361848c5761847367d12930585e063ea660c01b6177f5565b61848767b4e1bc28485b3b5560c01b6177f5565b6186d5565b6184a0676dfa7d342bd6bef660c01b6177f5565b6184b467350fc7d7ebc4408960c01b6177f5565b6184c8670950121a7e366bb760c01b6177f5565b5f60035490506184e2672e71670c8d90b1d360c01b6177f5565b6184f667a80320d2d703126360c01b6177f5565b600381036185445761851267ce22b0145e1890ef60c01b6177f5565b6040517fd5bcee7e00000000000000000000000000000000000000000000000000000000815260040160405180910390fd5b618558672c4c9b208a3d85de60c01b6177f5565b61856c67c84509d86bfd565660c01b6177f5565b61858067aef554c71b68b68560c01b6177f5565b5f82036186055761859b677aa17e6963800b0b60c01b6177f5565b6185af676a791ca5c1d5bdcc60c01b6177f5565b6185c367f6fe5fed5f3380fc60c01b6177f5565b600281036185eb576185df6724e51ff581d0cf2a60c01b6177f5565b60038081905550618600565b6185ff67c863acba7ca6822d60c01b6177f5565b5b6186d3565b61861967b30c0dfa5975b0e160c01b6177f5565b61862d67bf88966f6a97aca660c01b6177f5565b60018114801561864d575061864c67ec6d95c092ec80b460c01b6198fa565b5b806186745750348214158015618673575061867267edebbb5713eef5a560c01b6198fa565b5b5b156186be5761868c6612841a553cf32460c01b6177f5565b6040517f1841b4e100000000000000000000000000000000000000000000000000000000815260040160405180910390fd5b6186d267f46950b6cc64d70960c01b6177f5565b5b505b50565b606060ff5f1b83146186f4576186ed83619904565b905061877f565b8180546187009061ae16565b80601f016020809104026020016040519081016040528092919081815260200182805461872c9061ae16565b80156187775780601f1061874e57610100808354040283529160200191618777565b820191905f5260205f20905b81548152906001019060200180831161875a57829003601f168201915b505050505090505b92915050565b5f61879a67f488f0fc37e4850c60c01b6177f2565b6187ae6757fd7766e05528fa60c01b6177f2565b6187c267bc309d1740da41ae60c01b6177f2565b5f835f0160189054906101000a900463ffffffff1690506187ed674e34775b59e4e19160c01b6177f2565b61880167c1599f647961433d60c01b6177f2565b61881567878e67ef934eab5460c01b6177f2565b5f8163ffffffff1614801561883a5750618839670cc7c832249edc4760c01b61838c565b5b8061889e5750836007015f6001830363ffffffff1663ffffffff1681526020019081526020015f205f9054906101000a900463ffffffff1663ffffffff168363ffffffff161015801561889d575061889c67f3d1b13b17b9c8e160c01b61838c565b5b5b156188e8576188b7674b6bcd03907487d960c01b6177f2565b6188cb674891948c69f5c38860c01b6177f2565b6188df67390b11de9b75069060c01b6177f2565b5f915050618aed565b6188fc6724e5a38ba9ede56160c01b6177f2565b6189106713dc5f97a7509e4260c01b6177f2565b618924679d3eb123dc2c306160c01b6177f2565b5f6189396778f975e2f378904360c01b6177f2565b61894d67e9e7b7b2294ccd6060c01b6177f2565b5b8163ffffffff168163ffffffff161015618a815761897667b84c988d2ba2e61f60c01b6177f2565b61898a67b01470f12c8181e260c01b6177f2565b5f600283831861899a919061b407565b8383166189a7919061b345565b90506189bd675888fded9ed65add60c01b6177f2565b6189d167810d02d18451bf2660c01b6177f2565b8463ffffffff16866007015f8363ffffffff1663ffffffff1681526020019081526020015f205f9054906101000a900463ffffffff1663ffffffff161115618a4357618a2767aaf5e194bc495a3760c01b6177f2565b618a3b67363926ac9635099560c01b6177f2565b809250618a7b565b618a57671989e1430abb4a6e60c01b6177f2565b618a6b672810c7c8445c546460c01b6177f2565b600181618a78919061b345565b91505b5061894e565b618a956723898c663f0ba0d260c01b6177f2565b618aa9678ef741f397b1820760c01b6177f2565b846008015f8263ffffffff1663ffffffff1681526020019081526020015f205f9054906101000a900473ffffffffffffffffffffffffffffffffffffffff16925050505b92915050565b5f7f000000000000000000000000000000000000000000000000000000000000000073ffffffffffffffffffffffffffffffffffffffff163073ffffffffffffffffffffffffffffffffffffffff16148015618b6e57507f000000000000000000000000000000000000000000000000000000000000000046145b15618b9b577f00000000000000000000000000000000000000000000000000000000000000009050618ba6565b618ba3619976565b90505b90565b5f618bbe6729528c19e2a447e760c01b6177f2565b618bd267e784f26c341f153a60c01b6177f2565b618be6670c156462fbc7a74c60c01b6177f2565b60075f9054906101000a900467ffffffffffffffff1667ffffffffffffffff16846040016020810190618c19919061a559565b63ffffffff161015618c8b57618c39672d47b1811b61e44860c01b6177f2565b60075f9054906101000a900467ffffffffffffffff166040517f0c3aad97000000000000000000000000000000000000000000000000000000008152600401618c82919061a200565b60405180910390fd5b618c9f6757ebc70cc1ed44ba60c01b6177f2565b618cb3670dfd036fab028c5c60c01b6177f2565b618cc7679441e2d01e80075160c01b6177f2565b600760089054906101000a900467ffffffffffffffff1667ffffffffffffffff16846040016020810190618cfb919061a559565b63ffffffff161115618d6e57618d1b67ec8657054fed2bd160c01b6177f2565b600760089054906101000a900467ffffffffffffffff166040517fa78341a2000000000000000000000000000000000000000000000000000000008152600401618d65919061a200565b60405180910390fd5b618d82671d3293bba10352e560c01b6177f2565b618d966785c88608e50e9ddb60c01b6177f2565b618daa677fe229c6e0646ab460c01b6177f2565b5f845f016020810190618dbd919061a559565b63ffffffff1603618e0e57618ddc671273e7e8bceb101960c01b6177f2565b6040517f3cfbac5700000000000000000000000000000000000000000000000000000000815260040160405180910390fd5b618e2267a29127be7e26b81d60c01b6177f2565b618e3667dfe826b69009fd0960c01b6177f2565b618e4a677963c663814fea6760c01b6177f2565b633b9aca00845f016020810190618e61919061a559565b63ffffffff161115618eb357618e8167bba37af2f458306b60c01b6177f2565b6040517f09d9a0c600000000000000000000000000000000000000000000000000000000815260040160405180910390fd5b618ec76745e3556bccecd3f060c01b6177f2565b618edb67b3722a90fb2a1db360c01b6177f2565b618eef679a430669cd306bd760c01b6177f2565b5f846020016020810190618f03919061b451565b6bffffffffffffffffffffffff1603618f5c57618f2a67fcfe881762e7efe160c01b6177f2565b6040517f1d133e9000000000000000000000000000000000000000000000000000000000815260040160405180910390fd5b618f7067a6f735dc6d809c8760c01b6177f2565b618f8467140c097775d97d7760c01b6177f2565b618f9867ed504a4bc5e3d97160c01b6177f2565b5f73ffffffffffffffffffffffffffffffffffffffff16846060016020810190618fc2919061a271565b73ffffffffffffffffffffffffffffffffffffffff160361902357618ff16732fc0eee691c066960c01b6177f2565b6040517f49e27cff00000000000000000000000000000000000000000000000000000000815260040160405180910390fd5b619037671000ef5cb327064a60c01b6177f2565b61904b67e0b3123092667ff260c01b6177f2565b61905f67fe494e499103300960c01b6177f2565b6b033b2e3c9fd0803ce80000006bffffffffffffffffffffffff16845f01602081019061908c919061a559565b63ffffffff168560200160208101906190a5919061b451565b6190af919061b472565b6bffffffffffffffffffffffff161115619109576190d767eb84feb87170269660c01b6177f2565b6040517fba7848b900000000000000000000000000000000000000000000000000000000815260040160405180910390fd5b61911d679b67979a09a4bb5260c01b6177f2565b61913167f3ed60cecedd5dd560c01b6177f2565b600480549050905061914d671249e3741d44e13a60c01b6177f2565b61916167d79e5ea553c04a5a60c01b6177f2565b5f600460018160018154018082558091505003905f5260205f2090600b02019050619196673f18f7d4fdd9462760c01b6177f2565b858160020181816191a7919061b636565b9050506191be6710f8bebe8f1a88f260c01b6177f2565b8460600160208101906191d1919061a271565b8160010160086101000a81548173ffffffffffffffffffffffffffffffffffffffff021916908373ffffffffffffffffffffffffffffffffffffffff160217905550619227670524e360d3a7513e60c01b6177f2565b845f016020810190619239919061a559565b815f015f6101000a81548163ffffffff021916908363ffffffff16021790555061926d67238d0d0418d30cf860c01b6177f2565b846020016020810190619280919061b451565b815f01600c6101000a8154816bffffffffffffffffffffffff02191690836bffffffffffffffffffffffff1602179055506192c5671df94cf2f4dbb41a60c01b6177f2565b83816001015f6101000a81548163ffffffff021916908363ffffffff1602179055506192fb676859e874b3b92fec60c01b6177f2565b61930f6759fa4426c0f728fb60c01b6177f2565b61932367894057fba99524d860c01b6177f2565b5f856040016020810190619337919061a559565b4201905061934f67082f828302fdd5a760c01b6177f2565b80825f01601c6101000a81548163ffffffff021916908363ffffffff1602179055506193856774d153b79c626d6460c01b6177f2565b619399677b1898057b33173e60c01b6177f2565b8560600160208101906193ac919061a271565b73ffffffffffffffffffffffffffffffffffffffff168473ffffffffffffffffffffffffffffffffffffffff16847ff806f15c2cacb4703b6edc897c2cbe33990d7d191bd57bbf4a8ae9ab2315bf758a8a5f01602081019061940e919061a559565b8b6020016020810190619421919061b451565b87604051619432949392919061b72b565b60405180910390a45050949350505050565b5f619459678827721d6c22f15460c01b6177f2565b61946d67a22eeb5d4358594b60c01b6177f2565b619481673df9af2b3dd9dbdb60c01b6177f2565b5f807f000000000000000000000000000000000000000000000000000000000000000073ffffffffffffffffffffffffffffffffffffffff1663f533b8028888886040518463ffffffff1660e01b81526004016194e09392919061b7e3565b5f604051808303815f875af11580156194fb573d5f803e3d5ffd5b505050506040513d5f823e3d601f19601f82011682018060405250810190619523919061b895565b9150915061953b67efd89de000cd7b1f60c01b6177f2565b61954f673d9d74258559044960c01b6177f2565b5f5b82518110156198295761956e6714ec2a94b8e8e86360c01b6177f2565b619582673549d8d4d2714b7960c01b6177f2565b5f8282815181106195965761959561ab67565b5b602002602001015190506195b467cd5234bdcc7199b560c01b6177f2565b6195c867436353109a7d436e60c01b6177f2565b5f73ffffffffffffffffffffffffffffffffffffffff168483815181106195f2576195f161ab67565b5b602002602001015173ffffffffffffffffffffffffffffffffffffffff161415801561966457508573ffffffffffffffffffffffffffffffffffffffff168483815181106196435761964261ab67565b5b602002602001015173ffffffffffffffffffffffffffffffffffffffff1614155b801561967e57505f816bffffffffffffffffffffffff1614155b156197f45761969767cfb83c83ffaed52160c01b6177f2565b6196ab67cfa5dbbf6251b30b60c01b6177f2565b6196bf670b2f18fb0b06750f60c01b6177f2565b6197328483815181106196d5576196d461ab67565b5b6020026020010151826bffffffffffffffffffffffff167f000000000000000000000000000000000000000000000000000000000000000073ffffffffffffffffffffffffffffffffffffffff166183969092919063ffffffff16565b61974667465ef1b8ef408a8760c01b6177f2565b61975a67af2a87b2f7e9f4a560c01b6177f2565b808501945061977367dcd3a587b5e0c80660c01b6177f2565b619787674724e7467d03192460c01b6177f2565b83828151811061979a5761979961ab67565b5b602002602001015173ffffffffffffffffffffffffffffffffffffffff167fd5a02d893cdcfe3f25286206f6f6592510f6a8f56272801f6c28d347625f317e826040516197e79190619fe5565b60405180910390a2619809565b61980867a6c0acc3a3dc51a760c01b6177f2565b5b61981d677d858c2e711a713060c01b6177f2565b81600101915050619551565b505050949350505050565b5f619895826040518060400160405280602081526020017f5361666545524332303a206c6f772d6c6576656c2063616c6c206661696c65648152508573ffffffffffffffffffffffffffffffffffffffff16619a0b9092919063ffffffff16565b90505f815114806198b65750808060200190518101906198b5919061afac565b5b6198f5576040517f08c379a00000000000000000000000000000000000000000000000000000000081526004016198ec9061b960565b60405180910390fd5b505050565b5f60019050919050565b60605f61991083619a22565b90505f602067ffffffffffffffff81111561992e5761992d619d2d565b5b6040519080825280601f01601f1916602001820160405280156199605781602001600182028036833780820191505090505b5090508181528360208201528092505050919050565b5f7f8b73c3c69bb8fe3d512ecc4cf759cc79239f7b179b0ffacaa9a75d522b39400f7f00000000000000000000000000000000000000000000000000000000000000007f000000000000000000000000000000000000000000000000000000000000000046306040516020016199f095949392919061b9c3565b60405160208183030381529060405280519060200120905090565b6060619a1984845f85619a70565b90509392505050565b5f8060ff835f1c169050601f811115619a67576040517fb3512b0c00000000000000000000000000000000000000000000000000000000815260040160405180910390fd5b80915050919050565b606082471015619ab5576040517f08c379a0000000000000000000000000000000000000000000000000000000008152600401619aac9061ba05565b60405180910390fd5b5f808673ffffffffffffffffffffffffffffffffffffffff168587604051619add919061ba68565b5f6040518083038185875af1925050503d805f8114619b17576040519150601f19603f3d011682016040523d82523d5f602084013e619b1c565b606091505b5091509150619b2d87838387619b39565b92505050949350505050565b60608315619b9a575f835103619b9257619b5285619bad565b619b91576040517f08c379a0000000000000000000000000000000000000000000000000000000008152600401619b889061ba85565b60405180910390fd5b5b829050619ba5565b619ba48383619bcf565b5b949350505050565b5f808273ffffffffffffffffffffffffffffffffffffffff163b119050919050565b5f82511115619be15781518083602001fd5b806040517f08c379a0000000000000000000000000000000000000000000000000000000008152600401619c15919061bac2565b60405180910390fd5b508054619c2a9061ae16565b5f825580601f10619c3b5750619c58565b601f0160209004905f5260205f2090810190619c579190619cae565b5b50565b6040518060a001604052805f73ffffffffffffffffffffffffffffffffffffffff1681526020015f81526020015f81526020015f6005811115619ca157619ca061a3c6565b5b8152602001606081525090565b5b80821115619cc5575f815f905550600101619caf565b5090565b5f60208284031215619cd9575f80fd5b81357fffffffff0000000000000000000000000000000000000000000000000000000081168114619d08575f80fd5b8091505092915050565b80151582525050565b5f602082019050821515825292915050565b7f4e487b71000000000000000000000000000000000000000000000000000000005f52604160045260245ffd5b5f604051905060a0810181811067ffffffffffffffff82111715619d8157619d80619d2d565b5b806040525090565b5f60405190507fffffffffffffffffffffffffffffffffffffffffffffffffffffffffffffffe0601f830116810181811067ffffffffffffffff82111715619dd457619dd3619d2d565b5b8060405250919050565b5f67ffffffffffffffff821115619df857619df7619d2d565b5b60208260051b019050919050565b5f82601f830112619e15575f80fd5b81356020619e2a619e2583619dde565b619d89565b808382528282019150828460051b870101935086841115619e49575f80fd5b8286015b84811015619e68578035835283830192508381019050619e4d565b508094505050505092915050565b5f8083601f840112619e86575f80fd5b8235905067ffffffffffffffff811115619e9e575f80fd5b6020830191508360208260051b8501011115619eb8575f80fd5b9250929050565b73ffffffffffffffffffffffffffffffffffffffff81168114619ee0575f80fd5b50565b5f81359050619ef181619ebf565b919050565b5f8083601f840112619f06575f80fd5b8235905067ffffffffffffffff811115619f1e575f80fd5b602083019150836020828501011115619f35575f80fd5b9250929050565b5f805f805f8060808789031215619f51575f80fd5b863567ffffffffffffffff80821115619f68575f80fd5b619f748a838b01619e06565b97506020890135915080821115619f89575f80fd5b619f958a838b01619e76565b92508097505081955060408901359150619fae82619ebf565b8194506060890135915080821115619fc4575f80fd5b50619fd189828a01619ef6565b915080935050809150509295509295509295565b5f6020820190506bffffffffffffffffffffffff8316825292915050565b5f67ffffffffffffffff82111561a01d5761a01c619d2d565b5b60207fffffffffffffffffffffffffffffffffffffffffffffffffffffffffffffffe0601f840116019050919050565b5f82601f83011261a05c575f80fd5b813561a06f61a06a8261a003565b619d89565b81815284602083860101111561a083575f80fd5b816020850160208301375f60208383010152809250505092915050565b5f805f806080858703121561a0b3575f80fd5b843561a0be81619ebf565b80945050602085013561a0d081619ebf565b8093505060408501359150606085013567ffffffffffffffff81111561a0f4575f80fd5b61a1008782880161a04d565b91505092959194509250565b5f6020820190507fffffffff000000000000000000000000000000000000000000000000000000008316825292915050565b5f806040838503121561a14f575f80fd5b823561a15a81619ebf565b80925050602083013590509250929050565b5f806040838503121561a17d575f80fd5b82359150602083013561a18f81619ebf565b809150509250929050565b63ffffffff811682525050565b5f60208201905063ffffffff8316825292915050565b73ffffffffffffffffffffffffffffffffffffffff811682525050565b5f60208201905073ffffffffffffffffffffffffffffffffffffffff8316825292915050565b5f60208201905067ffffffffffffffff8316825292915050565b5f805f6040848603121561a22c575f80fd5b833567ffffffffffffffff81111561a242575f80fd5b61a24e86828701619e76565b91508094505080925050602084013561a26681619ebf565b809150509250925092565b5f6020828403121561a281575f80fd5b813561a28c81619ebf565b8091505092915050565b5f60208201905073ffffffffffffffffffffffffffffffffffffffff8316825292915050565b5f60208201905073ffffffffffffffffffffffffffffffffffffffff8316825292915050565b5f805f6040848603121561a2f4575f80fd5b833561a2ff81619ebf565b80935050602084013567ffffffffffffffff81111561a31c575f80fd5b61a32886828701619ef6565b915080935050809150509250925092565b5f5b8381101561a35657808201518184015260208101905061a33b565b505f83830152505050565b5f815180845261a37881602086016020860161a339565b60207fffffffffffffffffffffffffffffffffffffffffffffffffffffffffffffffe0601f83011685010191505092915050565b602081525f61a3be602083018461a361565b905092915050565b7f4e487b71000000000000000000000000000000000000000000000000000000005f52602160045260245ffd5b6006811061a428577f4e487b71000000000000000000000000000000000000000000000000000000005f52602160045260245ffd5b8082525050565b73ffffffffffffffffffffffffffffffffffffffff815116825260208101516020830152604081015160408301525f606082015161a470606085018261a3f3565b50608082015160a0608085015261a48a60a085018261a361565b91505092915050565b5f602080830181845280855180835260408601915060408160051b87010192508387015f5b8281101561a509577fffffffffffffffffffffffffffffffffffffffffffffffffffffffffffffffc088860301845261a4f285835161a42f565b94508582019150858401935060018101905061a4b8565b50505050809250505092915050565b5f60208201905073ffffffffffffffffffffffffffffffffffffffff8316825292915050565b5f8135905063ffffffff8116811461a554575f80fd5b919050565b5f6020828403121561a569575f80fd5b61a5728261a53e565b905092915050565b5f8151808452602080850194508084015f5b8381101561a5ad57815187528287019650828201915060018101905061a58c565b5050505082905092915050565b7fff000000000000000000000000000000000000000000000000000000000000008816815260e060208201525f61a5f460e083018961a361565b828103604084015261a606818961a361565b905086606084015273ffffffffffffffffffffffffffffffffffffffff861660808401528460a084015282810360c084015261a642818561a57a565b91505098975050505050505050565b5f806040838503121561a662575f80fd5b8235915061a6726020840161a53e565b90509250929050565b5f60208201905082825292915050565b5f805f805f805f805f8060c08b8d03121561a6a4575f80fd5b8a3567ffffffffffffffff8082111561a6bb575f80fd5b61a6c78e838f01619e76565b9250809c5050819a5060208d013591508082111561a6e3575f80fd5b61a6ef8e838f01619e76565b9250809a505081985061a70460408e0161a53e565b975060608d013591508082111561a719575f80fd5b61a7258e838f01619e76565b92508097505081955061a73a60808e01619ee3565b945060a08d013591508082111561a74f575f80fd5b5061a75c8d828e01619ef6565b915080935050809150509295989b9194979a5092959850565b604081525f61a787604083018561a57a565b90506bffffffffffffffffffffffff831660208301529392505050565b5f806020838503121561a7b5575f80fd5b823567ffffffffffffffff81111561a7cb575f80fd5b61a7d785828601619e76565b915080935050809150509250929050565b5f602080830181845280855180835260408601915060408160051b87010192508387015f5b8281101561a85e577fffffffffffffffffffffffffffffffffffffffffffffffffffffffffffffffc088860301845261a84785835161a361565b94508582019150858401935060018101905061a80d565b50505050809250505092915050565b5f805f805f6060868803121561a881575f80fd5b853567ffffffffffffffff8082111561a898575f80fd5b61a8a489838a01619e76565b925080975050819550602088013591508082111561a8c0575f80fd5b5061a8cd88828901619e76565b9150809450508092505061a8e36040870161a53e565b90509295509295909350565b602081525f61a901602083018461a57a565b905092915050565b5f805f805f60a0868803121561a91d575f80fd5b853561a92881619ebf565b80955050602086013561a93a81619ebf565b80945050604086013567ffffffffffffffff8082111561a958575f80fd5b61a96489838a01619e06565b9450606088013591508082111561a979575f80fd5b61a98589838a01619e06565b9350608088013591508082111561a99a575f80fd5b5061a9a78882890161a04d565b9150509295509295909350565b5f6020828403121561a9c4575f80fd5b813567ffffffffffffffff8116811461a9db575f80fd5b8091505092915050565b5f6020828403121561a9f5575f80fd5b8135905092915050565b63ffffffff8e16815263ffffffff8d16602082015263ffffffff8c1660408201526bffffffffffffffffffffffff8b16606082015261aa41608082018b61a19a565b61aa4e60a082018a61a19a565b61aa5b60c082018961a19a565b61aa6860e0820188619d12565b61aa76610100820187619d12565b61aa84610120820186619d12565b61aa92610140820185619d12565b61aaa061016082018461a1bd565b6101a06101808201525f61aab86101a083018461a42f565b90509e9d5050505050505050505050505050565b5f805f805f60a0868803121561aae0575f80fd5b853561aaeb81619ebf565b80955050602086013561aafd81619ebf565b809450506040860135925060608601359150608086013567ffffffffffffffff81111561ab28575f80fd5b61ab348882890161a04d565b9150509295509295909350565b5f60208201905073ffffffffffffffffffffffffffffffffffffffff8316825292915050565b7f4e487b71000000000000000000000000000000000000000000000000000000005f52603260045260245ffd5b7f4e487b71000000000000000000000000000000000000000000000000000000005f52601160045260245ffd5b5f6bffffffffffffffffffffffff8084168184160191508082111561abe95761abe861ab94565b5b5092915050565b5f805f805f60a0868803121561ac04575f80fd5b8535945060208601359350604086013560ff8116811461ac22575f80fd5b8093505060608601359150608086013590509295509295909350565b5f60e08201905073ffffffffffffffffffffffffffffffffffffffff808a16835280891660208401525086604083015285606083015260ff851660808301528360a08301528260c083015298975050505050505050565b5f6040820190506bffffffffffffffffffffffff8416825273ffffffffffffffffffffffffffffffffffffffff831660208301529392505050565b5f60208201905063ffffffff8316825292915050565b5f806040838503121561acf7575f80fd5b82519150602083015190509250929050565b81835281816020850137505f602082840101525f60207fffffffffffffffffffffffffffffffffffffffffffffffffffffffffffffffe0601f840116840101905092915050565b73ffffffffffffffffffffffffffffffffffffffff84168152604060208201525f61ad7f60408301848661ad09565b9050949350505050565b5f82601f83011261ad98575f80fd5b815161adab61ada68261a003565b619d89565b81815284602083860101111561adbf575f80fd5b61add082602083016020870161a339565b809250505092915050565b5f6020828403121561adeb575f80fd5b815167ffffffffffffffff81111561ae01575f80fd5b61ae0d8482850161ad89565b91505092915050565b5f8160011c9050600182168061ae2d57607f821691505b60208210810361ae64577f4e487b71000000000000000000000000000000000000000000000000000000005f52602260045260245ffd5b50919050565b606081525f61ae7c606083018661a42f565b905073ffffffffffffffffffffffffffffffffffffffff8085166020840152808416604084015250949350505050565b6006811061aeb8575f80fd5b50565b5f6020828403121561aecb575f80fd5b815167ffffffffffffffff8082111561aee2575f80fd5b818401915060a0828603121561aef6575f80fd5b61aefe619d5a565b825161af0981619ebf565b808252506020830151602082015260408301516040820152606083015161af2f8161aeac565b8060608301525060808301518281111561af47575f80fd5b61af538782860161ad89565b60808301525080935050505092915050565b602081525f61af77602083018461a42f565b905092915050565b5f60408201905083825273ffffffffffffffffffffffffffffffffffffffff831660208301529392505050565b5f6020828403121561afbc575f80fd5b8151801515811461afcb575f80fd5b8091505092915050565b7f4e487b71000000000000000000000000000000000000000000000000000000005f52601260045260245ffd5b5f8083357fffffffffffffffffffffffffffffffffffffffffffffffffffffffffffffffe184360301811261b035575f80fd5b80840190508035915067ffffffffffffffff82111561b052575f80fd5b6020810192505080360382131561b067575f80fd5b9250929050565b818382375f8282015f8152809150509392505050565b5f82357fffffffffffffffffffffffffffffffffffffffffffffffffffffffffffffff6183360301811261b0b6575f80fd5b80830191505092915050565b5f60a0823603121561b0d2575f80fd5b61b0da619d5a565b823561b0e581619ebf565b808252506020830135602082015260408301356040820152606083013561b10b8161aeac565b80606083015250608083013567ffffffffffffffff81111561b12b575f80fd5b61b1373682860161a04d565b60808301525080915050919050565b5f82357fffffffffffffffffffffffffffffffffffffffffffffffffffffffffffffff4183360301811261b178575f80fd5b80830191505092915050565b5f813590506bffffffffffffffffffffffff8116811461b1a2575f80fd5b919050565b5f8083357fffffffffffffffffffffffffffffffffffffffffffffffffffffffffffffffe184360301811261b1da575f80fd5b8381019050803591506020810192505067ffffffffffffffff81111561b1fe575f80fd5b80360382131561b20c575f80fd5b9250929050565b60c081525f61b22560c083018961a42f565b828103602084015263ffffffff8061b23c8a61a53e565b1682526bffffffffffffffffffffffff61b25860208b0161b184565b1660208301528061b26b60408b0161a53e565b16604083015250606088013561b28081619ebf565b73ffffffffffffffffffffffffffffffffffffffff811660608301525061b2a960808901619ee3565b61b2b6608083018261a1bd565b5061b2c460a089018961b1a7565b60c060a084015261b2d960c08401828461ad09565b935050505085604083015261b2f1606083018661a1bd565b83608083015261b30460a083018461a1bd565b979650505050505050565b5f805f6060848603121561b321575f80fd5b835161b32c81619ebf565b8093505060208401519150604084015190509250925092565b5f63ffffffff8084168184160191508082111561b3655761b36461ab94565b5b5092915050565b5f60608201905063ffffffff80861683526bffffffffffffffffffffffff85166020840152808416604084015250949350505050565b5f60608201905073ffffffffffffffffffffffffffffffffffffffff8086168352808516602084015250826040830152949350505050565b5f60408201905073ffffffffffffffffffffffffffffffffffffffff841682528260208301529392505050565b5f63ffffffff8084168061b442577f4e487b71000000000000000000000000000000000000000000000000000000005f52601260045260245ffd5b80828516049250505092915050565b5f6020828403121561b461575f80fd5b61b46a8261b184565b905092915050565b5f6bffffffffffffffffffffffff80841681841602818116925080831461b49c5761b49b61ab94565b5b505092915050565b805f52505f60205f20905090565b601f82111561b4ff575f81815260208120601f850160051c8101602086101561b4d9578190505b601f850160051c820191505b8181101561b4fb5782815560018101905061b4e5565b5050505b505050565b5f8260011b7fffffffffffffffffffffffffffffffffffffffffffffffffffffffffffffffff8460031b1c19831617905092915050565b67ffffffffffffffff83111561b5545761b553619d2d565b5b61b5688361b562835461ae16565b8361b4b2565b5f601f84116001811461b595575f851561b583578285013590505b61b58d868261b504565b84555061b62f565b7fffffffffffffffffffffffffffffffffffffffffffffffffffffffffffffffe0851661b5c18461b4a4565b835b8281101561b5e85784870135825560018201915060208501945060208101905061b5c3565b508682101561b623577fffffffffffffffffffffffffffffffffffffffffffffffffffffffffffffffff60f88860031b161c19848701351681555b505060018560011b0183555b5050505050565b813561b64181619ebf565b73ffffffffffffffffffffffffffffffffffffffff81167fffffffffffffffffffffffff000000000000000000000000000000000000000083541617825550602082013560018201556040820135600282015560038101606083013561b6a68161aeac565b6006811061b6db577f4e487b71000000000000000000000000000000000000000000000000000000005f52602160045260245ffd5b7fffffffffffffffffffffffffffffffffffffffffffffffffffffffffffffff0082541660ff82168117835550505061b717608083018361b002565b61b72581836004860161b53b565b50505050565b608081525f853561b73b81619ebf565b73ffffffffffffffffffffffffffffffffffffffff8116608084015250602086013560a0830152604086013560c0830152606086013561b77a8161aeac565b61b78760e084018261a3f3565b5061b795608087018761b1a7565b60a061010085015261b7ac6101208501828461ad09565b9250505063ffffffff80861660208401526bffffffffffffffffffffffff8516604084015280841660608401525095945050505050565b5f60608201905073ffffffffffffffffffffffffffffffffffffffff851682528360208301526bffffffffffffffffffffffff83166040830152949350505050565b5f82601f83011261b834575f80fd5b8151602061b84961b84483619dde565b619d89565b808382528282019150828460051b87010193508684111561b868575f80fd5b8286015b8481101561b88757805183528383019250838101905061b86c565b508094505050505092915050565b5f806040838503121561b8a6575f80fd5b825167ffffffffffffffff8082111561b8bd575f80fd5b818501915085601f83011261b8d0575f80fd5b8151602061b8e561b8e083619dde565b619d89565b808382528282019150828460051b87010193508984111561b904575f80fd5b82860195505b8386101561b93057855161b91d81619ebf565b808352508282019150828601955061b90a565b809750505080870151935050508082111561b949575f80fd5b5061b9568582860161b825565b9150509250929050565b60208152602a60208201527f5361666545524332303a204552433230206f7065726174696f6e20646964206e60408201527f6f7420737563636565640000000000000000000000000000000000000000000060608201525f608082019050919050565b5f60a08201905086825285602083015284604083015283606083015273ffffffffffffffffffffffffffffffffffffffff831660808301529695505050505050565b60208152602660208201527f416464726573733a20696e73756666696369656e742062616c616e636520666f60408201527f722063616c6c000000000000000000000000000000000000000000000000000060608201525f608082019050919050565b5f825161ba7981846020870161a339565b80830191505092915050565b60208152601d60208201527f416464726573733a2063616c6c20746f206e6f6e2d636f6e747261637400000060408201525f606082019050919050565b602081525f61bad4602083018461a361565b90509291505056fea2646970667358221220bc52c606e67b957fac7b4afd01515340aeec06c26afd3c7de9787be4ffd3b59a64736f6c63430008150033",
  "linkReferences": {
    "contracts/libraries/AssetTransfer.sol": {
      "AssetTransfer": [
        {
          "length": 20,
          "start": 16113
        },
        {
          "length": 20,
          "start": 21297
        },
        {
          "length": 20,
          "start": 23996
        }
      ]
    }
  },
  "deployedLinkReferences": {
    "contracts/libraries/AssetTransfer.sol": {
      "AssetTransfer": [
        {
          "length": 20,
          "start": 12013
        },
        {
          "length": 20,
          "start": 17197
        },
        {
          "length": 20,
          "start": 19896
        }
      ]
    }
  }
}