{
  "_format": "hh-sol-artifact-1",
  "contractName": "EeseeMinter",
  "sourceName": "contracts/NFT/EeseeMinter.sol",
  "abi": [
    {
      "inputs": [
        {
          "internalType": "address",
          "name": "_EeseeNFTLazyMintImplementation",
          "type": "address"
        },
        {
          "internalType": "address",
          "name": "_EeseeNFTDropImplementation",
          "type": "address"
        },
        {
          "internalType": "contract IEeseeRandom",
          "name": "_random",
          "type": "address"
        },
        {
          "internalType": "address",
          "name": "_trustedForwarder",
          "type": "address"
        }
      ],
      "stateMutability": "nonpayable",
      "type": "constructor"
    },
    {
      "inputs": [],
      "name": "IncorrectTokenURILength",
      "type": "error"
    },
    {
      "inputs": [],
      "name": "InvalidConstructor",
      "type": "error"
    },
    {
      "inputs": [],
      "name": "InvalidOwner",
      "type": "error"
    },
    {
      "inputs": [],
      "name": "InvalidRecipient",
      "type": "error"
    },
    {
      "anonymous": false,
      "inputs": [
        {
          "indexed": true,
          "internalType": "contract IERC721",
          "name": "collection",
          "type": "address"
        },
        {
          "indexed": true,
          "internalType": "address",
          "name": "sender",
          "type": "address"
        }
      ],
      "name": "DeployDrop",
      "type": "event"
    },
    {
      "anonymous": false,
      "inputs": [
        {
          "indexed": true,
          "internalType": "contract IERC721",
          "name": "collection",
          "type": "address"
        },
        {
          "indexed": true,
          "internalType": "address",
          "name": "sender",
          "type": "address"
        },
        {
          "indexed": true,
          "internalType": "address",
          "name": "owner",
          "type": "address"
        },
        {
          "indexed": false,
          "internalType": "uint256",
          "name": "collectionID",
          "type": "uint256"
        }
      ],
      "name": "DeployLazyMint",
      "type": "event"
    },
    {
      "anonymous": false,
      "inputs": [
        {
          "indexed": true,
          "internalType": "contract IERC721",
          "name": "collection",
          "type": "address"
        },
        {
          "indexed": true,
          "internalType": "uint256",
          "name": "tokenID",
          "type": "uint256"
        },
        {
          "indexed": true,
          "internalType": "address",
          "name": "recipient",
          "type": "address"
        }
      ],
      "name": "LazyMint",
      "type": "event"
    },
    {
      "inputs": [],
      "name": "EeseeNFTDropImplementation",
      "outputs": [
        {
          "internalType": "address",
          "name": "",
          "type": "address"
        }
      ],
      "stateMutability": "view",
      "type": "function"
    },
    {
      "inputs": [],
      "name": "EeseeNFTLazyMintImplementation",
      "outputs": [
        {
          "internalType": "address",
          "name": "",
          "type": "address"
        }
      ],
      "stateMutability": "view",
      "type": "function"
    },
    {
      "inputs": [
        {
          "components": [
            {
              "internalType": "string",
              "name": "name",
              "type": "string"
            },
            {
              "internalType": "string",
              "name": "symbol",
              "type": "string"
            },
            {
              "internalType": "string",
              "name": "baseURI",
              "type": "string"
            },
            {
              "internalType": "string",
              "name": "revealedURI",
              "type": "string"
            },
            {
              "internalType": "string",
              "name": "contractURI",
              "type": "string"
            },
            {
              "internalType": "address",
              "name": "royaltyReceiver",
              "type": "address"
            },
            {
              "internalType": "uint96",
              "name": "royaltyFeeNumerator",
              "type": "uint96"
            }
          ],
          "internalType": "struct DropMetadata",
          "name": "metadata",
          "type": "tuple"
        },
        {
          "internalType": "uint32",
          "name": "mintLimit",
          "type": "uint32"
        },
        {
          "internalType": "uint32",
          "name": "mintStartTimestamp",
          "type": "uint32"
        },
        {
          "components": [
            {
              "internalType": "uint32",
              "name": "duration",
              "type": "uint32"
            },
            {
              "internalType": "uint32",
              "name": "perAddressMintLimit",
              "type": "uint32"
            },
            {
              "internalType": "bytes32",
              "name": "allowListMerkleRoot",
              "type": "bytes32"
            }
          ],
          "internalType": "struct IEeseeNFTDrop.StageOptions[]",
          "name": "stages",
          "type": "tuple[]"
        }
      ],
      "name": "deployDropCollection",
      "outputs": [
        {
          "internalType": "contract IERC721",
          "name": "collection",
          "type": "address"
        }
      ],
      "stateMutability": "nonpayable",
      "type": "function"
    },
    {
      "inputs": [
        {
          "internalType": "uint256",
          "name": "collectionID",
          "type": "uint256"
        },
        {
          "internalType": "address",
          "name": "owner",
          "type": "address"
        },
        {
          "components": [
            {
              "internalType": "string",
              "name": "name",
              "type": "string"
            },
            {
              "internalType": "string",
              "name": "symbol",
              "type": "string"
            },
            {
              "internalType": "string",
              "name": "contractURI",
              "type": "string"
            }
          ],
          "internalType": "struct LazyMintCollectionMetadata",
          "name": "collectionMetadata",
          "type": "tuple"
        },
        {
          "components": [
            {
              "internalType": "string",
              "name": "URI",
              "type": "string"
            },
            {
              "internalType": "address",
              "name": "royaltyReceiver",
              "type": "address"
            },
            {
              "internalType": "uint96",
              "name": "royaltyFeeNumerator",
              "type": "uint96"
            }
          ],
          "internalType": "struct LazyMintTokenMetadata",
          "name": "tokenMetadata",
          "type": "tuple"
        },
        {
          "internalType": "address",
          "name": "recipient",
          "type": "address"
        }
      ],
      "name": "lazyMint",
      "outputs": [
        {
          "internalType": "contract IERC721",
          "name": "collection",
          "type": "address"
        },
        {
          "internalType": "uint256",
          "name": "tokenID",
          "type": "uint256"
        }
      ],
      "stateMutability": "nonpayable",
      "type": "function"
    },
    {
      "inputs": [
        {
          "internalType": "address",
          "name": "",
          "type": "address"
        },
        {
          "internalType": "address",
          "name": "",
          "type": "address"
        },
        {
          "internalType": "uint256",
          "name": "",
          "type": "uint256"
        }
      ],
      "name": "lazyMintCollections",
      "outputs": [
        {
          "internalType": "contract IEeseeNFTLazyMint",
          "name": "",
          "type": "address"
        }
      ],
      "stateMutability": "view",
      "type": "function"
    },
    {
      "inputs": [],
      "name": "random",
      "outputs": [
        {
          "internalType": "contract IEeseeRandom",
          "name": "",
          "type": "address"
        }
      ],
      "stateMutability": "view",
      "type": "function"
    },
    {
      "inputs": [],
      "name": "trustedForwarder",
      "outputs": [
        {
          "internalType": "address",
          "name": "",
          "type": "address"
        }
      ],
      "stateMutability": "view",
      "type": "function"
    }
  ],
  "bytecode": "0x61010060405234801562000011575f80fd5b506040516200179b3803806200179b83398181016040528101906200003791906200039a565b6200005367bd057b5da257a7d560c01b6200037660201b60201c565b6200006f67881b00159ccb539060c01b6200037660201b60201c565b6200008b6786aa99136b8f700f60c01b6200037660201b60201c565b5f73ffffffffffffffffffffffffffffffffffffffff168473ffffffffffffffffffffffffffffffffffffffff16148015620000df5750620000de67d92bbba3f25ebd3d60c01b6200037960201b60201c565b5b806200016057505f73ffffffffffffffffffffffffffffffffffffffff168373ffffffffffffffffffffffffffffffffffffffff161480156200013a57506200013967c8dfb30decf28c4d60c01b6200037960201b60201c565b5b80156200015f57506200015e6771aa80b2a2564a8760c01b6200037960201b60201c565b5b5b80620001bc57505f73ffffffffffffffffffffffffffffffffffffffff168273ffffffffffffffffffffffffffffffffffffffff16148015620001bb5750620001ba67168d4d2ec107171260c01b6200037960201b60201c565b5b5b156200021057620001de674bb136606b48520d60c01b6200037660201b60201c565b6040517f12c1701b00000000000000000000000000000000000000000000000000000000815260040160405180910390fd5b6200022c67672f4e2c2ac22a5860c01b6200037660201b60201c565b6200024867d3c7194badae920860c01b6200037660201b60201c565b8373ffffffffffffffffffffffffffffffffffffffff1660808173ffffffffffffffffffffffffffffffffffffffff168152505062000298672e7fe77ab4c6387860c01b6200037660201b60201c565b8273ffffffffffffffffffffffffffffffffffffffff1660a08173ffffffffffffffffffffffffffffffffffffffff1681525050620002e8679a2cc2b5496437fd60c01b6200037660201b60201c565b8173ffffffffffffffffffffffffffffffffffffffff1660c08173ffffffffffffffffffffffffffffffffffffffff16815250506200033867b57b18d6531da80a60c01b6200037660201b60201c565b8073ffffffffffffffffffffffffffffffffffffffff1660e08173ffffffffffffffffffffffffffffffffffffffff16815250505050505062000404565b50565b5f60019050919050565b60018060a01b038116811462000397575f80fd5b50565b5f805f8060808587031215620003ae575f80fd5b8451620003bb8162000383565b809450506020850151620003cf8162000383565b809350506040850151620003e38162000383565b809250506060850151620003f78162000383565b8091505092959194509250565b60805160a05160c05160e0516113406200045b5f395f818161053c015281816109840152610a9801525f818161088c015261096201525f818161018a01526108f101525f81816104cc0152610abc01526113405ff3fe608060405234801561000f575f80fd5b506004361061007b575f3560e01c80635ec01e4d116100595780635ec01e4d146100fe578063683e49491461011c5780637da0a8771461014c578063e71bcfaa1461016a5761007b565b80630d817dd51461007f57806319141eb81461009d57806348da46ac146100cd575b5f80fd5b610087610188565b6040516100949190610bb4565b60405180910390f35b6100b760048036038101906100b29190610c05565b6101ac565b6040516100c49190610c3e565b60405180910390f35b6100e760048036038101906100e29190610c7d565b6101f3565b6040516100f5929190610d06565b60405180910390f35b61010661088a565b6040516101139190610d33565b60405180910390f35b61013660048036038101906101319190610d74565b6108ae565b6040516101439190610e30565b60405180910390f35b610154610a96565b6040516101619190610bb4565b60405180910390f35b610172610aba565b60405161017f9190610bb4565b60405180910390f35b7f000000000000000000000000000000000000000000000000000000000000000081565b5f602052825f5260405f20602052815f5260405f20602052805f5260405f205f92509250509054906101000a900473ffffffffffffffffffffffffffffffffffffffff1681565b5f80610209675dbebace8ea0503d60c01b610ade565b61021d670bdb7850c95b4f4260c01b610ade565b61023167a37fd0e86a128a6760c01b610ade565b5f73ffffffffffffffffffffffffffffffffffffffff168673ffffffffffffffffffffffffffffffffffffffff16036102aa5761027867b13df40d1de7538060c01b610ade565b6040517f49e27cff00000000000000000000000000000000000000000000000000000000815260040160405180910390fd5b6102be67b8b872acd61792ee60c01b610ade565b6102d2673ec686d9b7775d4760c01b610ade565b6102e6677ad07f21c839adab60c01b610ade565b5f73ffffffffffffffffffffffffffffffffffffffff168373ffffffffffffffffffffffffffffffffffffffff160361035f5761032d676c42ce55993e4bdf60c01b610ade565b6040517f9c8d2cd200000000000000000000000000000000000000000000000000000000815260040160405180910390fd5b610373678a124fcfb991072c60c01b610ade565b610387670b76f94beef17f6760c01b610ade565b61039b67c8df2ca5af14024c60c01b610ade565b5f805f3373ffffffffffffffffffffffffffffffffffffffff1673ffffffffffffffffffffffffffffffffffffffff1681526020019081526020015f205f8873ffffffffffffffffffffffffffffffffffffffff1673ffffffffffffffffffffffffffffffffffffffff1681526020019081526020015f205f8981526020019081526020015f205f9054906101000a900473ffffffffffffffffffffffffffffffffffffffff1690506104586724e79adcdbc138a560c01b610ade565b61046c675ebe2642540ed09e60c01b610ade565b5f73ffffffffffffffffffffffffffffffffffffffff168173ffffffffffffffffffffffffffffffffffffffff1603610740576104b367b7d31842b4303e5360c01b610ade565b6104c767604fb1c3f531da2060c01b610ade565b6104f07f0000000000000000000000000000000000000000000000000000000000000000610ae1565b905061050667054c3f417c2b494060c01b610ade565b61051a679b70fb5d014f643560c01b610ade565b8073ffffffffffffffffffffffffffffffffffffffff1663cd6371108989308a7f00000000000000000000000000000000000000000000000000000000000000006040518663ffffffff1660e01b815260040161057b959493929190610f09565b5f604051808303815f87803b158015610592575f80fd5b505af11580156105a4573d5f803e3d5ffd5b505050506105bc67a67b75de1ba81da660c01b610ade565b8092506105d367e425dfc1af3fcf3960c01b610ade565b6105e7679b04a1ab7b71cf8760c01b610ade565b8673ffffffffffffffffffffffffffffffffffffffff163373ffffffffffffffffffffffffffffffffffffffff168473ffffffffffffffffffffffffffffffffffffffff167f7b2c3567de4e9ecc799f5f0e9dce474da34d181e806a66ac44b615903e039e1f8b60405161065b9190610fe0565b60405180910390a46106776735073c6ebad0326360c01b610ade565b805f803373ffffffffffffffffffffffffffffffffffffffff1673ffffffffffffffffffffffffffffffffffffffff1681526020019081526020015f205f8973ffffffffffffffffffffffffffffffffffffffff1673ffffffffffffffffffffffffffffffffffffffff1681526020019081526020015f205f8a81526020019081526020015f205f6101000a81548173ffffffffffffffffffffffffffffffffffffffff021916908373ffffffffffffffffffffffffffffffffffffffff16021790555061076c565b61075467472f489ecb92734160c01b610ade565b610768671bd6ff5a6a8aa65c60c01b610ade565b8092505b61078067c05f5fc9a6b4c03a60c01b610ade565b8073ffffffffffffffffffffffffffffffffffffffff16638d00963585876040518363ffffffff1660e01b81526004016107bb929190611028565b6020604051808303815f875af11580156107d7573d5f803e3d5ffd5b505050506040513d601f19601f820116820180604052508101906107fb91906110aa565b915061081167e0c90b4a9ea193eb60c01b610ade565b610824665425fd8d5d6c3960c01b610ade565b8373ffffffffffffffffffffffffffffffffffffffff16828473ffffffffffffffffffffffffffffffffffffffff167f5ec79347029da012fb45e8147e480631ca8839acf693701e28c0833a0b5535b660405160405180910390a4509550959350505050565b7f000000000000000000000000000000000000000000000000000000000000000081565b5f6108c367ec8f8f0997d7823160c01b610ade565b6108d767488aa8da7e03e54c60c01b610ade565b6108eb67b56e6c4806f419cf60c01b610ade565b5f6109157f0000000000000000000000000000000000000000000000000000000000000000610ae1565b905061092b67bc48de4aa4c8fbf760c01b610ade565b61093f67cf3fd2d8d8f2009660c01b610ade565b8073ffffffffffffffffffffffffffffffffffffffff1663ea856cb888888888887f0000000000000000000000000000000000000000000000000000000000000000337f00000000000000000000000000000000000000000000000000000000000000006040518963ffffffff1660e01b81526004016109c698979695949392919061113b565b5f604051808303815f87803b1580156109dd575f80fd5b505af11580156109ef573d5f803e3d5ffd5b50505050610a0767cfe4b798229cd86860c01b610ade565b809150610a1e677597643a6cd4456e60c01b610ade565b610a3267e3decdc5530fb66160c01b610ade565b3373ffffffffffffffffffffffffffffffffffffffff168273ffffffffffffffffffffffffffffffffffffffff167f58b70f62481a5dbb55416d737982366bedaed9e03d87174dafbd014a74ffb78a60405160405180910390a35095945050505050565b7f000000000000000000000000000000000000000000000000000000000000000081565b7f000000000000000000000000000000000000000000000000000000000000000081565b50565b5f763d602d80600a3d3981f3363d3d373d3d3d363d730000008260601b60e81c175f526e5af43d82803e903d91602b57fd5bf38260781b17602052603760095ff090505f73ffffffffffffffffffffffffffffffffffffffff168173ffffffffffffffffffffffffffffffffffffffff1603610b92576040517f08c379a0000000000000000000000000000000000000000000000000000000008152600401610b89906112cd565b60405180910390fd5b919050565b73ffffffffffffffffffffffffffffffffffffffff811682525050565b5f60208201905073ffffffffffffffffffffffffffffffffffffffff8316825292915050565b5f8135905073ffffffffffffffffffffffffffffffffffffffff81168114610c00575f80fd5b919050565b5f805f60608486031215610c17575f80fd5b610c2084610bda565b9250610c2e60208501610bda565b9150604084013590509250925092565b5f60208201905073ffffffffffffffffffffffffffffffffffffffff8316825292915050565b5f60608284031215610c74575f80fd5b81905092915050565b5f805f805f60a08688031215610c91575f80fd5b85359450610ca160208701610bda565b9350604086013567ffffffffffffffff80821115610cbd575f80fd5b610cc989838a01610c64565b94506060880135915080821115610cde575f80fd5b50610ceb88828901610c64565b925050610cfa60808701610bda565b90509295509295909350565b5f60408201905073ffffffffffffffffffffffffffffffffffffffff841682528260208301529392505050565b5f60208201905073ffffffffffffffffffffffffffffffffffffffff8316825292915050565b5f8135905063ffffffff81168114610d6f575f80fd5b919050565b5f805f805f60808688031215610d88575f80fd5b853567ffffffffffffffff80821115610d9f575f80fd5b818801915060e0828a031215610db3575f80fd5b819650610dc260208901610d59565b9550610dd060408901610d59565b94506060880135915080821115610de5575f80fd5b818801915088601f830112610df8575f80fd5b813581811115610e06575f80fd5b896020606083028501011115610e1a575f80fd5b6020830194508093505050509295509295909350565b5f60208201905073ffffffffffffffffffffffffffffffffffffffff8316825292915050565b5f8083357fffffffffffffffffffffffffffffffffffffffffffffffffffffffffffffffe1843603018112610e89575f80fd5b8381019050803591506020810192505067ffffffffffffffff811115610ead575f80fd5b803603821315610ebb575f80fd5b9250929050565b81835281816020850137505f602082840101525f60207fffffffffffffffffffffffffffffffffffffffffffffffffffffffffffffffe0601f840116840101905092915050565b8581525f73ffffffffffffffffffffffffffffffffffffffff8087166020840152808616604084015260a06060840152610f438586610e56565b606060a0860152610f5961010086018284610ec2565b915050610f696020870187610e56565b7fffffffffffffffffffffffffffffffffffffffffffffffffffffffffffffff60808785030160c0880152610f9f848385610ec2565b9350610fae60408a018a610e56565b93509150808785030160e088015250610fc8838383610ec2565b94505050508084166080840152509695505050505050565b5f60208201905082825292915050565b5f813590506bffffffffffffffffffffffff8116811461100e575f80fd5b919050565b6bffffffffffffffffffffffff811682525050565b5f73ffffffffffffffffffffffffffffffffffffffff8085168352604060208401526110548485610e56565b6060604086015261106960a086018284610ec2565b9150508161107960208701610bda565b1660608501526bffffffffffffffffffffffff61109860408701610ff0565b16608085015280925050509392505050565b5f602082840312156110ba575f80fd5b8151905092915050565b63ffffffff811682525050565b8183525f60208085019450825f5b8581101561112e5763ffffffff806110f684610d59565b16885280611105858501610d59565b1684890152506040808301358189015250606080880197508083019250506001810190506110df565b5050508390509392505050565b60e081525f61114a8a8b610e56565b60e08085015261115f6101c085018284610ec2565b91505061116f60208c018c610e56565b7fffffffffffffffffffffffffffffffffffffffffffffffffffffffffffffff2080868503016101008701526111a6848385610ec2565b93506111b560408f018f610e56565b9350915080868503016101208701526111cf848484610ec2565b93506111de60608f018f610e56565b9350915080868503016101408701526111f8848484610ec2565b935061120760808f018f610e56565b93509150808685030161016087015250611222838383610ec2565b9250505073ffffffffffffffffffffffffffffffffffffffff61124760a08d01610bda565b1661018084015261125a60c08c01610ff0565b6112686101a0850182611013565b50611276602084018b6110c4565b611283604084018a6110c4565b828103606084015261129681888a6110d1565b9150506112a66080830186610b97565b6112b360a0830185610b97565b6112c060c0830184610b97565b9998505050505050505050565b60208152601660208201527f455243313136373a20637265617465206661696c65640000000000000000000060408201525f60608201905091905056fea2646970667358221220c4976eb87991e611e3efd7a5ae41f30ca75ab28411f72864f9690bbb75f69ad664736f6c63430008150033",
  "linkReferences": {},
  "deployedLinkReferences": {}
}