{
  "_format": "hh-sol-artifact-1",
  "contractName": "Eesee",
  "sourceName": "contracts/marketplace/Eesee.sol",
  "abi": [
    {
      "inputs": [
        {
          "internalType": "contract IERC20",
          "name": "_ESE",
          "type": "address"
        },
        {
          "internalType": "contract IEeseeStaking",
          "name": "_staking",
          "type": "address"
        },
        {
          "internalType": "contract IEeseeSwap",
          "name": "_swap",
          "type": "address"
        },
        {
          "internalType": "contract IEeseeMinter",
          "name": "_minter",
          "type": "address"
        },
        {
          "internalType": "contract IEeseeRandom",
          "name": "_random",
          "type": "address"
        },
        {
          "internalType": "address",
          "name": "_feeSplitter",
          "type": "address"
        },
        {
          "internalType": "contract IRoyaltyEngineV1",
          "name": "_royaltyEngine",
          "type": "address"
        },
        {
          "internalType": "contract IEeseeAccessManager",
          "name": "_accessManager",
          "type": "address"
        },
        {
          "internalType": "address",
          "name": "trustedForwarder",
          "type": "address"
        }
      ],
      "stateMutability": "nonpayable",
      "type": "constructor"
    },
    {
      "inputs": [],
      "name": "AllTicketsBought",
      "type": "error"
    },
    {
      "inputs": [
        {
          "internalType": "uint256",
          "name": "ID",
          "type": "uint256"
        }
      ],
      "name": "AssetAlreadyClaimed",
      "type": "error"
    },
    {
      "inputs": [],
      "name": "BuyAmountTooLow",
      "type": "error"
    },
    {
      "inputs": [],
      "name": "CallReverted",
      "type": "error"
    },
    {
      "inputs": [],
      "name": "CallerNotAuthorized",
      "type": "error"
    },
    {
      "inputs": [
        {
          "internalType": "uint256",
          "name": "ID",
          "type": "uint256"
        }
      ],
      "name": "CallerNotOwner",
      "type": "error"
    },
    {
      "inputs": [
        {
          "internalType": "uint256",
          "name": "ID",
          "type": "uint256"
        }
      ],
      "name": "CallerNotWinner",
      "type": "error"
    },
    {
      "inputs": [
        {
          "internalType": "uint64",
          "name": "maxDuration",
          "type": "uint64"
        }
      ],
      "name": "DurationTooHigh",
      "type": "error"
    },
    {
      "inputs": [
        {
          "internalType": "uint64",
          "name": "minDuration",
          "type": "uint64"
        }
      ],
      "name": "DurationTooLow",
      "type": "error"
    },
    {
      "inputs": [],
      "name": "ESEOverflow",
      "type": "error"
    },
    {
      "inputs": [],
      "name": "ExpiredDeadline",
      "type": "error"
    },
    {
      "inputs": [],
      "name": "FeeTooHigh",
      "type": "error"
    },
    {
      "inputs": [],
      "name": "InvalidAmount",
      "type": "error"
    },
    {
      "inputs": [],
      "name": "InvalidArrayLengths",
      "type": "error"
    },
    {
      "inputs": [],
      "name": "InvalidAsset",
      "type": "error"
    },
    {
      "inputs": [],
      "name": "InvalidData",
      "type": "error"
    },
    {
      "inputs": [],
      "name": "InvalidDuration",
      "type": "error"
    },
    {
      "inputs": [],
      "name": "InvalidInterface",
      "type": "error"
    },
    {
      "inputs": [],
      "name": "InvalidMsgValue",
      "type": "error"
    },
    {
      "inputs": [],
      "name": "InvalidOwner",
      "type": "error"
    },
    {
      "inputs": [],
      "name": "InvalidRecipient",
      "type": "error"
    },
    {
      "inputs": [],
      "name": "InvalidShortString",
      "type": "error"
    },
    {
      "inputs": [],
      "name": "InvalidSignature",
      "type": "error"
    },
    {
      "inputs": [],
      "name": "InvalidToken",
      "type": "error"
    },
    {
      "inputs": [],
      "name": "InvalidTokenID",
      "type": "error"
    },
    {
      "inputs": [
        {
          "internalType": "uint256",
          "name": "ID",
          "type": "uint256"
        }
      ],
      "name": "LotAlreadyFulfilled",
      "type": "error"
    },
    {
      "inputs": [
        {
          "internalType": "uint256",
          "name": "ID",
          "type": "uint256"
        }
      ],
      "name": "LotExpired",
      "type": "error"
    },
    {
      "inputs": [
        {
          "internalType": "uint256",
          "name": "ID",
          "type": "uint256"
        }
      ],
      "name": "LotNotExists",
      "type": "error"
    },
    {
      "inputs": [
        {
          "internalType": "uint256",
          "name": "ID",
          "type": "uint256"
        }
      ],
      "name": "LotNotExpired",
      "type": "error"
    },
    {
      "inputs": [
        {
          "internalType": "uint256",
          "name": "ID",
          "type": "uint256"
        }
      ],
      "name": "LotNotFulfilled",
      "type": "error"
    },
    {
      "inputs": [],
      "name": "MaxTicketsTooHigh",
      "type": "error"
    },
    {
      "inputs": [],
      "name": "MaxTicketsTooLow",
      "type": "error"
    },
    {
      "inputs": [
        {
          "internalType": "uint256",
          "name": "ID",
          "type": "uint256"
        }
      ],
      "name": "NoTicketsBought",
      "type": "error"
    },
    {
      "inputs": [
        {
          "internalType": "uint256",
          "name": "ID",
          "type": "uint256"
        }
      ],
      "name": "NoTicketsHeld",
      "type": "error"
    },
    {
      "inputs": [],
      "name": "NonceUsed",
      "type": "error"
    },
    {
      "inputs": [
        {
          "internalType": "string",
          "name": "str",
          "type": "string"
        }
      ],
      "name": "StringTooLong",
      "type": "error"
    },
    {
      "inputs": [],
      "name": "TicketPriceTooLow",
      "type": "error"
    },
    {
      "inputs": [
        {
          "internalType": "uint256",
          "name": "ID",
          "type": "uint256"
        }
      ],
      "name": "TokensAlreadyClaimed",
      "type": "error"
    },
    {
      "inputs": [],
      "name": "TransferNotSuccessful",
      "type": "error"
    },
    {
      "anonymous": false,
      "inputs": [
        {
          "indexed": true,
          "internalType": "uint256",
          "name": "ID",
          "type": "uint256"
        },
        {
          "indexed": true,
          "internalType": "address",
          "name": "recipient",
          "type": "address"
        },
        {
          "indexed": true,
          "internalType": "uint32",
          "name": "lowerBound",
          "type": "uint32"
        },
        {
          "indexed": false,
          "internalType": "uint32",
          "name": "ticketAmount",
          "type": "uint32"
        },
        {
          "indexed": false,
          "internalType": "uint96",
          "name": "tokensSpent",
          "type": "uint96"
        },
        {
          "indexed": false,
          "internalType": "uint32",
          "name": "bonusTickets",
          "type": "uint32"
        }
      ],
      "name": "BuyTickets",
      "type": "event"
    },
    {
      "anonymous": false,
      "inputs": [
        {
          "indexed": true,
          "internalType": "uint32",
          "name": "previousFee",
          "type": "uint32"
        },
        {
          "indexed": true,
          "internalType": "uint32",
          "name": "newFee",
          "type": "uint32"
        }
      ],
      "name": "ChangeFee",
      "type": "event"
    },
    {
      "anonymous": false,
      "inputs": [
        {
          "indexed": true,
          "internalType": "uint64",
          "name": "previousMaxDuration",
          "type": "uint64"
        },
        {
          "indexed": true,
          "internalType": "uint64",
          "name": "newMaxDuration",
          "type": "uint64"
        }
      ],
      "name": "ChangeMaxDuration",
      "type": "event"
    },
    {
      "anonymous": false,
      "inputs": [
        {
          "indexed": true,
          "internalType": "uint64",
          "name": "previousMinDuration",
          "type": "uint64"
        },
        {
          "indexed": true,
          "internalType": "uint64",
          "name": "newMinDuration",
          "type": "uint64"
        }
      ],
      "name": "ChangeMinDuration",
      "type": "event"
    },
    {
      "anonymous": false,
      "inputs": [
        {
          "indexed": true,
          "internalType": "address",
          "name": "to",
          "type": "address"
        },
        {
          "indexed": false,
          "internalType": "uint96",
          "name": "amount",
          "type": "uint96"
        }
      ],
      "name": "CollectFee",
      "type": "event"
    },
    {
      "anonymous": false,
      "inputs": [
        {
          "indexed": true,
          "internalType": "address",
          "name": "recipient",
          "type": "address"
        },
        {
          "indexed": false,
          "internalType": "uint96",
          "name": "amount",
          "type": "uint96"
        }
      ],
      "name": "CollectRoyalty",
      "type": "event"
    },
    {
      "anonymous": false,
      "inputs": [
        {
          "indexed": true,
          "internalType": "uint256",
          "name": "ID",
          "type": "uint256"
        },
        {
          "indexed": true,
          "internalType": "address",
          "name": "signer",
          "type": "address"
        },
        {
          "indexed": true,
          "internalType": "uint256",
          "name": "nonce",
          "type": "uint256"
        }
      ],
      "name": "ConsumeNonce",
      "type": "event"
    },
    {
      "anonymous": false,
      "inputs": [
        {
          "indexed": true,
          "internalType": "uint256",
          "name": "ID",
          "type": "uint256"
        },
        {
          "components": [
            {
              "internalType": "address",
              "name": "token",
              "type": "address"
            },
            {
              "internalType": "uint256",
              "name": "tokenID",
              "type": "uint256"
            },
            {
              "internalType": "uint256",
              "name": "amount",
              "type": "uint256"
            },
            {
              "internalType": "enum AssetType",
              "name": "assetType",
              "type": "uint8"
            },
            {
              "internalType": "bytes",
              "name": "data",
              "type": "bytes"
            }
          ],
          "indexed": false,
          "internalType": "struct Asset",
          "name": "asset",
          "type": "tuple"
        },
        {
          "indexed": true,
          "internalType": "address",
          "name": "owner",
          "type": "address"
        },
        {
          "indexed": false,
          "internalType": "uint32",
          "name": "maxTickets",
          "type": "uint32"
        },
        {
          "indexed": false,
          "internalType": "uint96",
          "name": "ticketPrice",
          "type": "uint96"
        },
        {
          "indexed": false,
          "internalType": "uint32",
          "name": "endTimestamp",
          "type": "uint32"
        }
      ],
      "name": "CreateLot",
      "type": "event"
    },
    {
      "anonymous": false,
      "inputs": [],
      "name": "EIP712DomainChanged",
      "type": "event"
    },
    {
      "anonymous": false,
      "inputs": [
        {
          "indexed": true,
          "internalType": "uint256",
          "name": "ID",
          "type": "uint256"
        },
        {
          "indexed": true,
          "internalType": "address",
          "name": "winner",
          "type": "address"
        },
        {
          "indexed": true,
          "internalType": "address",
          "name": "recipient",
          "type": "address"
        },
        {
          "components": [
            {
              "internalType": "address",
              "name": "token",
              "type": "address"
            },
            {
              "internalType": "uint256",
              "name": "tokenID",
              "type": "uint256"
            },
            {
              "internalType": "uint256",
              "name": "amount",
              "type": "uint256"
            },
            {
              "internalType": "enum AssetType",
              "name": "assetType",
              "type": "uint8"
            },
            {
              "internalType": "bytes",
              "name": "data",
              "type": "bytes"
            }
          ],
          "indexed": false,
          "internalType": "struct Asset",
          "name": "asset",
          "type": "tuple"
        }
      ],
      "name": "ReceiveAsset",
      "type": "event"
    },
    {
      "anonymous": false,
      "inputs": [
        {
          "indexed": true,
          "internalType": "uint256",
          "name": "ID",
          "type": "uint256"
        },
        {
          "indexed": true,
          "internalType": "address",
          "name": "claimer",
          "type": "address"
        },
        {
          "indexed": true,
          "internalType": "address",
          "name": "recipient",
          "type": "address"
        },
        {
          "indexed": false,
          "internalType": "uint96",
          "name": "amount",
          "type": "uint96"
        }
      ],
      "name": "ReceiveTokens",
      "type": "event"
    },
    {
      "anonymous": false,
      "inputs": [
        {
          "indexed": true,
          "internalType": "uint256",
          "name": "ID",
          "type": "uint256"
        },
        {
          "indexed": true,
          "internalType": "address",
          "name": "owner",
          "type": "address"
        },
        {
          "indexed": true,
          "internalType": "address",
          "name": "recipient",
          "type": "address"
        },
        {
          "components": [
            {
              "internalType": "address",
              "name": "token",
              "type": "address"
            },
            {
              "internalType": "uint256",
              "name": "tokenID",
              "type": "uint256"
            },
            {
              "internalType": "uint256",
              "name": "amount",
              "type": "uint256"
            },
            {
              "internalType": "enum AssetType",
              "name": "assetType",
              "type": "uint8"
            },
            {
              "internalType": "bytes",
              "name": "data",
              "type": "bytes"
            }
          ],
          "indexed": false,
          "internalType": "struct Asset",
          "name": "asset",
          "type": "tuple"
        }
      ],
      "name": "ReclaimAsset",
      "type": "event"
    },
    {
      "anonymous": false,
      "inputs": [
        {
          "indexed": true,
          "internalType": "uint256",
          "name": "ID",
          "type": "uint256"
        },
        {
          "indexed": true,
          "internalType": "address",
          "name": "claimer",
          "type": "address"
        },
        {
          "indexed": true,
          "internalType": "address",
          "name": "recipient",
          "type": "address"
        },
        {
          "indexed": false,
          "internalType": "uint96",
          "name": "amount",
          "type": "uint96"
        }
      ],
      "name": "ReclaimTokens",
      "type": "event"
    },
    {
      "inputs": [],
      "name": "ESE",
      "outputs": [
        {
          "internalType": "contract IERC20",
          "name": "",
          "type": "address"
        }
      ],
      "stateMutability": "view",
      "type": "function"
    },
    {
      "inputs": [],
      "name": "accessManager",
      "outputs": [
        {
          "internalType": "contract IEeseeAccessManager",
          "name": "",
          "type": "address"
        }
      ],
      "stateMutability": "view",
      "type": "function"
    },
    {
      "inputs": [
        {
          "internalType": "uint256[]",
          "name": "IDs",
          "type": "uint256[]"
        },
        {
          "internalType": "uint32[]",
          "name": "amounts",
          "type": "uint32[]"
        },
        {
          "internalType": "address",
          "name": "recipient",
          "type": "address"
        },
        {
          "internalType": "bytes",
          "name": "permit",
          "type": "bytes"
        }
      ],
      "name": "buyTickets",
      "outputs": [
        {
          "internalType": "uint96",
          "name": "tokensSpent",
          "type": "uint96"
        }
      ],
      "stateMutability": "nonpayable",
      "type": "function"
    },
    {
      "inputs": [
        {
          "internalType": "uint32",
          "name": "_fee",
          "type": "uint32"
        }
      ],
      "name": "changeFee",
      "outputs": [],
      "stateMutability": "nonpayable",
      "type": "function"
    },
    {
      "inputs": [
        {
          "internalType": "uint64",
          "name": "_maxDuration",
          "type": "uint64"
        }
      ],
      "name": "changeMaxDuration",
      "outputs": [],
      "stateMutability": "nonpayable",
      "type": "function"
    },
    {
      "inputs": [
        {
          "internalType": "uint64",
          "name": "_minDuration",
          "type": "uint64"
        }
      ],
      "name": "changeMinDuration",
      "outputs": [],
      "stateMutability": "nonpayable",
      "type": "function"
    },
    {
      "inputs": [
        {
          "components": [
            {
              "internalType": "address",
              "name": "token",
              "type": "address"
            },
            {
              "internalType": "uint256",
              "name": "tokenID",
              "type": "uint256"
            },
            {
              "internalType": "uint256",
              "name": "amount",
              "type": "uint256"
            },
            {
              "internalType": "enum AssetType",
              "name": "assetType",
              "type": "uint8"
            },
            {
              "internalType": "bytes",
              "name": "data",
              "type": "bytes"
            }
          ],
          "internalType": "struct Asset[]",
          "name": "assets",
          "type": "tuple[]"
        },
        {
          "components": [
            {
              "internalType": "uint32",
              "name": "maxTickets",
              "type": "uint32"
            },
            {
              "internalType": "uint96",
              "name": "ticketPrice",
              "type": "uint96"
            },
            {
              "internalType": "uint32",
              "name": "duration",
              "type": "uint32"
            },
            {
              "internalType": "address",
              "name": "owner",
              "type": "address"
            },
            {
              "internalType": "address",
              "name": "signer",
              "type": "address"
            },
            {
              "internalType": "bytes",
              "name": "signatureData",
              "type": "bytes"
            }
          ],
          "internalType": "struct IEesee.LotParams[]",
          "name": "params",
          "type": "tuple[]"
        }
      ],
      "name": "createLots",
      "outputs": [
        {
          "internalType": "uint256[]",
          "name": "IDs",
          "type": "uint256[]"
        }
      ],
      "stateMutability": "payable",
      "type": "function"
    },
    {
      "inputs": [
        {
          "components": [
            {
              "internalType": "address",
              "name": "token",
              "type": "address"
            },
            {
              "internalType": "uint256",
              "name": "tokenID",
              "type": "uint256"
            },
            {
              "internalType": "uint256",
              "name": "amount",
              "type": "uint256"
            },
            {
              "internalType": "enum AssetType",
              "name": "assetType",
              "type": "uint8"
            },
            {
              "internalType": "bytes",
              "name": "data",
              "type": "bytes"
            }
          ],
          "internalType": "struct Asset[]",
          "name": "assets",
          "type": "tuple[]"
        },
        {
          "components": [
            {
              "internalType": "uint32",
              "name": "maxTickets",
              "type": "uint32"
            },
            {
              "internalType": "uint96",
              "name": "ticketPrice",
              "type": "uint96"
            },
            {
              "internalType": "uint32",
              "name": "duration",
              "type": "uint32"
            },
            {
              "internalType": "address",
              "name": "owner",
              "type": "address"
            },
            {
              "internalType": "address",
              "name": "signer",
              "type": "address"
            },
            {
              "internalType": "bytes",
              "name": "signatureData",
              "type": "bytes"
            }
          ],
          "internalType": "struct IEesee.LotParams[]",
          "name": "params",
          "type": "tuple[]"
        },
        {
          "internalType": "uint32[]",
          "name": "amounts",
          "type": "uint32[]"
        },
        {
          "internalType": "address",
          "name": "recipient",
          "type": "address"
        },
        {
          "internalType": "bytes",
          "name": "permit",
          "type": "bytes"
        }
      ],
      "name": "createLotsAndBuyTickets",
      "outputs": [
        {
          "internalType": "uint256[]",
          "name": "IDs",
          "type": "uint256[]"
        },
        {
          "internalType": "uint96",
          "name": "tokensSpent",
          "type": "uint96"
        }
      ],
      "stateMutability": "payable",
      "type": "function"
    },
    {
      "inputs": [],
      "name": "eip712Domain",
      "outputs": [
        {
          "internalType": "bytes1",
          "name": "fields",
          "type": "bytes1"
        },
        {
          "internalType": "string",
          "name": "name",
          "type": "string"
        },
        {
          "internalType": "string",
          "name": "version",
          "type": "string"
        },
        {
          "internalType": "uint256",
          "name": "chainId",
          "type": "uint256"
        },
        {
          "internalType": "address",
          "name": "verifyingContract",
          "type": "address"
        },
        {
          "internalType": "bytes32",
          "name": "salt",
          "type": "bytes32"
        },
        {
          "internalType": "uint256[]",
          "name": "extensions",
          "type": "uint256[]"
        }
      ],
      "stateMutability": "view",
      "type": "function"
    },
    {
      "inputs": [],
      "name": "fee",
      "outputs": [
        {
          "internalType": "uint32",
          "name": "",
          "type": "uint32"
        }
      ],
      "stateMutability": "view",
      "type": "function"
    },
    {
      "inputs": [],
      "name": "feeSplitter",
      "outputs": [
        {
          "internalType": "address",
          "name": "",
          "type": "address"
        }
      ],
      "stateMutability": "view",
      "type": "function"
    },
    {
      "inputs": [
        {
          "internalType": "uint256",
          "name": "ID",
          "type": "uint256"
        },
        {
          "internalType": "uint32",
          "name": "transaction",
          "type": "uint32"
        }
      ],
      "name": "getBuyTicketsRecipient",
      "outputs": [
        {
          "internalType": "address",
          "name": "",
          "type": "address"
        }
      ],
      "stateMutability": "view",
      "type": "function"
    },
    {
      "inputs": [
        {
          "internalType": "uint256",
          "name": "ID",
          "type": "uint256"
        },
        {
          "internalType": "address",
          "name": "_address",
          "type": "address"
        }
      ],
      "name": "getLotBonusTicketsHeldByAddress",
      "outputs": [
        {
          "internalType": "uint32",
          "name": "",
          "type": "uint32"
        }
      ],
      "stateMutability": "view",
      "type": "function"
    },
    {
      "inputs": [
        {
          "internalType": "uint256",
          "name": "ID",
          "type": "uint256"
        },
        {
          "internalType": "uint32",
          "name": "ticket",
          "type": "uint32"
        }
      ],
      "name": "getLotTicketHolder",
      "outputs": [
        {
          "internalType": "address",
          "name": "",
          "type": "address"
        }
      ],
      "stateMutability": "view",
      "type": "function"
    },
    {
      "inputs": [
        {
          "internalType": "uint256",
          "name": "ID",
          "type": "uint256"
        },
        {
          "internalType": "address",
          "name": "_address",
          "type": "address"
        }
      ],
      "name": "getLotTicketsHeldByAddress",
      "outputs": [
        {
          "internalType": "uint32",
          "name": "",
          "type": "uint32"
        }
      ],
      "stateMutability": "view",
      "type": "function"
    },
    {
      "inputs": [],
      "name": "getLotsLength",
      "outputs": [
        {
          "internalType": "uint256",
          "name": "length",
          "type": "uint256"
        }
      ],
      "stateMutability": "view",
      "type": "function"
    },
    {
      "inputs": [],
      "name": "getTrustedForwarder",
      "outputs": [
        {
          "internalType": "address",
          "name": "forwarder",
          "type": "address"
        }
      ],
      "stateMutability": "view",
      "type": "function"
    },
    {
      "inputs": [
        {
          "internalType": "address",
          "name": "forwarder",
          "type": "address"
        }
      ],
      "name": "isTrustedForwarder",
      "outputs": [
        {
          "internalType": "bool",
          "name": "",
          "type": "bool"
        }
      ],
      "stateMutability": "view",
      "type": "function"
    },
    {
      "inputs": [
        {
          "internalType": "uint256",
          "name": "",
          "type": "uint256"
        }
      ],
      "name": "lots",
      "outputs": [
        {
          "internalType": "uint32",
          "name": "maxTickets",
          "type": "uint32"
        },
        {
          "internalType": "uint32",
          "name": "bonusTickets",
          "type": "uint32"
        },
        {
          "internalType": "uint32",
          "name": "ticketsBought",
          "type": "uint32"
        },
        {
          "internalType": "uint96",
          "name": "ticketPrice",
          "type": "uint96"
        },
        {
          "internalType": "uint32",
          "name": "transactions",
          "type": "uint32"
        },
        {
          "internalType": "uint32",
          "name": "endTimestamp",
          "type": "uint32"
        },
        {
          "internalType": "uint32",
          "name": "fee",
          "type": "uint32"
        },
        {
          "internalType": "bool",
          "name": "closed",
          "type": "bool"
        },
        {
          "internalType": "bool",
          "name": "buyout",
          "type": "bool"
        },
        {
          "internalType": "bool",
          "name": "assetClaimed",
          "type": "bool"
        },
        {
          "internalType": "bool",
          "name": "tokensClaimed",
          "type": "bool"
        },
        {
          "internalType": "address",
          "name": "owner",
          "type": "address"
        },
        {
          "components": [
            {
              "internalType": "address",
              "name": "token",
              "type": "address"
            },
            {
              "internalType": "uint256",
              "name": "tokenID",
              "type": "uint256"
            },
            {
              "internalType": "uint256",
              "name": "amount",
              "type": "uint256"
            },
            {
              "internalType": "enum AssetType",
              "name": "assetType",
              "type": "uint8"
            },
            {
              "internalType": "bytes",
              "name": "data",
              "type": "bytes"
            }
          ],
          "internalType": "struct Asset",
          "name": "asset",
          "type": "tuple"
        }
      ],
      "stateMutability": "view",
      "type": "function"
    },
    {
      "inputs": [],
      "name": "maxDuration",
      "outputs": [
        {
          "internalType": "uint64",
          "name": "",
          "type": "uint64"
        }
      ],
      "stateMutability": "view",
      "type": "function"
    },
    {
      "inputs": [],
      "name": "minDuration",
      "outputs": [
        {
          "internalType": "uint64",
          "name": "",
          "type": "uint64"
        }
      ],
      "stateMutability": "view",
      "type": "function"
    },
    {
      "inputs": [
        {
          "internalType": "bytes[]",
          "name": "data",
          "type": "bytes[]"
        }
      ],
      "name": "multicall",
      "outputs": [
        {
          "internalType": "bytes[]",
          "name": "results",
          "type": "bytes[]"
        }
      ],
      "stateMutability": "payable",
      "type": "function"
    },
    {
      "inputs": [
        {
          "internalType": "address",
          "name": "",
          "type": "address"
        },
        {
          "internalType": "address",
          "name": "",
          "type": "address"
        },
        {
          "internalType": "uint256[]",
          "name": "",
          "type": "uint256[]"
        },
        {
          "internalType": "uint256[]",
          "name": "",
          "type": "uint256[]"
        },
        {
          "internalType": "bytes",
          "name": "",
          "type": "bytes"
        }
      ],
      "name": "onERC1155BatchReceived",
      "outputs": [
        {
          "internalType": "bytes4",
          "name": "",
          "type": "bytes4"
        }
      ],
      "stateMutability": "nonpayable",
      "type": "function"
    },
    {
      "inputs": [
        {
          "internalType": "address",
          "name": "",
          "type": "address"
        },
        {
          "internalType": "address",
          "name": "",
          "type": "address"
        },
        {
          "internalType": "uint256",
          "name": "",
          "type": "uint256"
        },
        {
          "internalType": "uint256",
          "name": "",
          "type": "uint256"
        },
        {
          "internalType": "bytes",
          "name": "",
          "type": "bytes"
        }
      ],
      "name": "onERC1155Received",
      "outputs": [
        {
          "internalType": "bytes4",
          "name": "",
          "type": "bytes4"
        }
      ],
      "stateMutability": "nonpayable",
      "type": "function"
    },
    {
      "inputs": [
        {
          "internalType": "address",
          "name": "",
          "type": "address"
        },
        {
          "internalType": "address",
          "name": "",
          "type": "address"
        },
        {
          "internalType": "uint256",
          "name": "",
          "type": "uint256"
        },
        {
          "internalType": "bytes",
          "name": "",
          "type": "bytes"
        }
      ],
      "name": "onERC721Received",
      "outputs": [
        {
          "internalType": "bytes4",
          "name": "",
          "type": "bytes4"
        }
      ],
      "stateMutability": "nonpayable",
      "type": "function"
    },
    {
      "inputs": [],
      "name": "random",
      "outputs": [
        {
          "internalType": "contract IEeseeRandom",
          "name": "",
          "type": "address"
        }
      ],
      "stateMutability": "view",
      "type": "function"
    },
    {
      "inputs": [
        {
          "internalType": "uint256[]",
          "name": "IDs",
          "type": "uint256[]"
        },
        {
          "internalType": "address",
          "name": "recipient",
          "type": "address"
        }
      ],
      "name": "receiveAssets",
      "outputs": [
        {
          "components": [
            {
              "internalType": "address",
              "name": "token",
              "type": "address"
            },
            {
              "internalType": "uint256",
              "name": "tokenID",
              "type": "uint256"
            },
            {
              "internalType": "uint256",
              "name": "amount",
              "type": "uint256"
            },
            {
              "internalType": "enum AssetType",
              "name": "assetType",
              "type": "uint8"
            },
            {
              "internalType": "bytes",
              "name": "data",
              "type": "bytes"
            }
          ],
          "internalType": "struct Asset[]",
          "name": "assets",
          "type": "tuple[]"
        }
      ],
      "stateMutability": "nonpayable",
      "type": "function"
    },
    {
      "inputs": [
        {
          "internalType": "uint256[]",
          "name": "IDs",
          "type": "uint256[]"
        },
        {
          "internalType": "address",
          "name": "recipient",
          "type": "address"
        }
      ],
      "name": "receiveTokens",
      "outputs": [
        {
          "internalType": "uint96",
          "name": "amount",
          "type": "uint96"
        }
      ],
      "stateMutability": "nonpayable",
      "type": "function"
    },
    {
      "inputs": [
        {
          "internalType": "uint256[]",
          "name": "IDs",
          "type": "uint256[]"
        },
        {
          "internalType": "address",
          "name": "recipient",
          "type": "address"
        }
      ],
      "name": "reclaimAssets",
      "outputs": [
        {
          "components": [
            {
              "internalType": "address",
              "name": "token",
              "type": "address"
            },
            {
              "internalType": "uint256",
              "name": "tokenID",
              "type": "uint256"
            },
            {
              "internalType": "uint256",
              "name": "amount",
              "type": "uint256"
            },
            {
              "internalType": "enum AssetType",
              "name": "assetType",
              "type": "uint8"
            },
            {
              "internalType": "bytes",
              "name": "data",
              "type": "bytes"
            }
          ],
          "internalType": "struct Asset[]",
          "name": "assets",
          "type": "tuple[]"
        }
      ],
      "stateMutability": "nonpayable",
      "type": "function"
    },
    {
      "inputs": [
        {
          "internalType": "uint256[]",
          "name": "IDs",
          "type": "uint256[]"
        },
        {
          "internalType": "address",
          "name": "recipient",
          "type": "address"
        }
      ],
      "name": "reclaimTokens",
      "outputs": [
        {
          "internalType": "uint96",
          "name": "amount",
          "type": "uint96"
        }
      ],
      "stateMutability": "nonpayable",
      "type": "function"
    },
    {
      "inputs": [],
      "name": "staking",
      "outputs": [
        {
          "internalType": "contract IEeseeStaking",
          "name": "",
          "type": "address"
        }
      ],
      "stateMutability": "view",
      "type": "function"
    },
    {
      "inputs": [
        {
          "internalType": "bytes4",
          "name": "interfaceId",
          "type": "bytes4"
        }
      ],
      "name": "supportsInterface",
      "outputs": [
        {
          "internalType": "bool",
          "name": "",
          "type": "bool"
        }
      ],
      "stateMutability": "view",
      "type": "function"
    },
    {
      "inputs": [
        {
          "components": [
            {
              "internalType": "bytes",
              "name": "swapData",
              "type": "bytes"
            },
            {
              "components": [
                {
                  "internalType": "contract IEeseeMarketplaceRouter",
                  "name": "router",
                  "type": "address"
                },
                {
                  "internalType": "bytes",
                  "name": "data",
                  "type": "bytes"
                }
              ],
              "internalType": "struct MarketplaceRouterData[]",
              "name": "marketplaceRoutersData",
              "type": "tuple[]"
            }
          ],
          "internalType": "struct SwapParams",
          "name": "swapParams",
          "type": "tuple"
        },
        {
          "internalType": "address",
          "name": "recipient",
          "type": "address"
        }
      ],
      "name": "swapTokensForAssets",
      "outputs": [
        {
          "components": [
            {
              "internalType": "address",
              "name": "token",
              "type": "address"
            },
            {
              "internalType": "uint256",
              "name": "tokenID",
              "type": "uint256"
            },
            {
              "internalType": "uint256",
              "name": "amount",
              "type": "uint256"
            },
            {
              "internalType": "enum AssetType",
              "name": "assetType",
              "type": "uint8"
            },
            {
              "internalType": "bytes",
              "name": "data",
              "type": "bytes"
            }
          ],
          "internalType": "struct Asset[]",
          "name": "assets",
          "type": "tuple[]"
        },
        {
          "internalType": "contract IERC20",
          "name": "dstToken",
          "type": "address"
        },
        {
          "internalType": "uint256",
          "name": "returnAmount",
          "type": "uint256"
        },
        {
          "internalType": "uint96",
          "name": "dust",
          "type": "uint96"
        }
      ],
      "stateMutability": "nonpayable",
      "type": "function"
    }
  ],
  "bytecode": "0x6102806040526201518060055f6101000a81548167ffffffffffffffff021916908367ffffffffffffffff16021790555062278d00600560086101000a81548167ffffffffffffffff021916908367ffffffffffffffff160217905550610258600560106101000a81548163ffffffff021916908363ffffffff1602179055503480156200008b575f80fd5b506040516200b64a3803806200b64a8339818101604052810190620000b19190620006dd565b6040518060400160405280600581526020017f45657365650000000000000000000000000000000000000000000000000000008152506040518060400160405280600181526020017f3100000000000000000000000000000000000000000000000000000000000000815250620001336001836200055d60201b90919060201c565b6101208181525050620001516002826200055d60201b90919060201c565b6101408181525050818051906020012060e08181525050808051906020012061010081815250504660a0818152505062000190620005b260201b60201c565b608081815250503073ffffffffffffffffffffffffffffffffffffffff1660c08173ffffffffffffffffffffffffffffffffffffffff16815250505050620001e967de12c1b9071e7b3060c01b6200060e60201b60201c565b6200020567e5ab774b1c69a0aa60c01b6200060e60201b60201c565b8873ffffffffffffffffffffffffffffffffffffffff166101608173ffffffffffffffffffffffffffffffffffffffff1681525050620002566704993068d3e63eb760c01b6200060e60201b60201c565b8773ffffffffffffffffffffffffffffffffffffffff166101808173ffffffffffffffffffffffffffffffffffffffff1681525050620002a7674421ce981c47315360c01b6200060e60201b60201c565b8673ffffffffffffffffffffffffffffffffffffffff166101a08173ffffffffffffffffffffffffffffffffffffffff1681525050620002f86782175ec1ca971b9d60c01b6200060e60201b60201c565b8573ffffffffffffffffffffffffffffffffffffffff166101c08173ffffffffffffffffffffffffffffffffffffffff1681525050620003496730d4e0b382f2383460c01b6200060e60201b60201c565b8473ffffffffffffffffffffffffffffffffffffffff166101e08173ffffffffffffffffffffffffffffffffffffffff16815250506200039a678d7ea15e7a27ea2360c01b6200060e60201b60201c565b8373ffffffffffffffffffffffffffffffffffffffff166102008173ffffffffffffffffffffffffffffffffffffffff1681525050620003eb67f97ab9a520e4f58b60c01b6200060e60201b60201c565b8273ffffffffffffffffffffffffffffffffffffffff166102608173ffffffffffffffffffffffffffffffffffffffff16815250506200043c676d0ec80d1060b31a60c01b6200060e60201b60201c565b8173ffffffffffffffffffffffffffffffffffffffff166102208173ffffffffffffffffffffffffffffffffffffffff16815250506200048d677952f6d8afa78d1160c01b6200060e60201b60201c565b8173ffffffffffffffffffffffffffffffffffffffff166375b238fc6040518163ffffffff1660e01b8152600401602060405180830381865afa158015620004d7573d5f803e3d5ffd5b505050506040513d601f19601f82011682018060405250810190620004fd9190620007b6565b61024081815250506200052167ebd61bc59450f76d60c01b6200060e60201b60201c565b6200053d67b89163e8abacedb660c01b6200060e60201b60201c565b6200054e816200061160201b60201c565b50505050505050505062000a20565b5f60208351101562000582576200057a836200065360201b60201c565b9050620005ac565b826200059483620006bd60201b60201c565b5f019081620005a491906200089e565b5060ff5f1b90505b92915050565b5f7f8b73c3c69bb8fe3d512ecc4cf759cc79239f7b179b0ffacaa9a75d522b39400f60e051610100514630604051602001620005f395949392919062000973565b60405160208183030381529060405280519060200120905090565b50565b805f806101000a81548173ffffffffffffffffffffffffffffffffffffffff021916908373ffffffffffffffffffffffffffffffffffffffff16021790555050565b5f80829050601f81511115620006a257826040517f305a27a9000000000000000000000000000000000000000000000000000000008152600401620006999190620009a7565b60405180910390fd5b805181620006b090620009f7565b5f1c175f1b915050919050565b5f819050919050565b60018060a01b0381168114620006da575f80fd5b50565b5f805f805f805f805f6101208a8c031215620006f7575f80fd5b89516200070481620006c6565b8099505060208a01516200071881620006c6565b8098505060408a01516200072c81620006c6565b8097505060608a01516200074081620006c6565b8096505060808a01516200075481620006c6565b8095505060a08a01516200076881620006c6565b8094505060c08a01516200077c81620006c6565b8093505060e08a01516200079081620006c6565b809250506101008a0151620007a581620006c6565b809150509295985092959850929598565b5f60208284031215620007c7575f80fd5b8151905092915050565b634e487b7160e01b5f52604160045260245ffd5b5f8160011c90506001821680620007fd57607f821691505b6020821081036200081c57634e487b7160e01b5f52602260045260245ffd5b50919050565b805f52505f60205f20905090565b601f82111562000881575f81815260208120601f850160051c8101602086101562000859578190505b601f850160051c820191505b818110156200087d5782815560018101905062000865565b5050505b505050565b5f8260011b5f198460031b1c19831617905092915050565b815160018060401b03811115620008ba57620008b9620007d1565b5b620008d281620008cb8454620007e5565b8462000830565b5f6020809150601f83116001811462000909575f8415620008f4578387015190505b62000900858262000886565b8655506200096b565b601f198416620009198662000822565b5f5b828110156200094057858901518255600182019150848601955084810190506200091b565b50858210156200095f57848801515f1960f88860031b161c1981168255505b505060018460011b0185555b505050505050565b5f60a08201905086825285602083015284604083015283606083015260018060a01b03831660808301529695505050505050565b5f6020808352835180828501525f5b81811015620009d757828187010151604082870101528281019050620009b6565b505f604082860101526040601f19601f8301168501019250505092915050565b5f815160208301519150602081101562000a1a575f198160200360031b1b821691505b50919050565b60805160a05160c05160e05161010051610120516101405161016051610180516101a0516101c0516101e0516102005161022051610240516102605161ab0e62000b3c5f395f61829001525f818161316201528181615fa8015261668101525f818161312601528181615f6c01528181616645015261691201525f818161220a0152615c7d01525f8181611a5d015281816121e60152818161289701528181613a7e015261502b01525f81816123dc015261365601525f615e3e01525f8181610d8e015261155501525f8181610b68015281816110e501528181612141015281816130b2015261487d01525f61340701525f6133d301525f61872b01525f61870a01525f61746101525f6174b701525f6174e0015261ab0e5ff3fe6080604052600436106101fd575f3560e01c806384b0196e1161011c578063ce1b815f116100af578063eecd5b9c1161007e578063f23a6e6111610063578063f23a6e611461081f578063f80db7411461085b578063fdcb606814610883576101fd565b8063eecd5b9c1461079b578063f1648e84146107d7576101fd565b8063ce1b815f146106e3578063d00c8c771461070d578063d798bd8c14610735578063ddca3f4314610771576101fd565b8063ac9650d8116100eb578063ac9650d8146105fc578063ba7b8f131461062c578063bc197c8114610668578063c8b84d17146106a4576101fd565b806384b0196e1461052a578063870fb2621461055a5780638a5e3ea0146105965780639796a67d146105d2576101fd565b806356b53e2b116101945780636db5c8fd116101635780636db5c8fd14610472578063727c2e961461049c578063764bd0c5146104d85780638142dd5314610502576101fd565b806356b53e2b146103a6578063572b6c05146103e25780635ec01e4d1461041e5780636052970c14610448576101fd565b806334fb4880116101d057806334fb4880146102e65780633d32afba146103225780634cf088d914610352578063567157611461037c576101fd565b806301ffc9a714610201578063127b3be51461023d578063150b7a021461027957806333fe3463146102b5575b5f80fd5b34801561020c575f80fd5b5061022760048036038101906102229190618aab565b6108ad565b6040516102349190618afd565b60405180910390f35b348015610248575f80fd5b50610263600480360381019061025e9190618d1e565b610926565b6040516102709190618dc7565b60405180910390f35b348015610284575f80fd5b5061029f600480360381019061029a9190618e82565b610e1c565b6040516102ac9190618eee565b60405180910390f35b6102cf60048036038101906102ca9190618f20565b610e2f565b6040516102dd92919061903e565b60405180910390f35b3480156102f1575f80fd5b5061030c6004803603810190610307919061906d565b610e9a565b60405161031991906190a8565b60405180910390f35b61033c600480360381019061033791906190be565b610f4d565b6040516103499190619130565b60405180910390f35b34801561035d575f80fd5b50610366611553565b604051610373919061914a565b60405180910390f35b348015610387575f80fd5b50610390611577565b60405161039d9190619170565b60405180910390f35b3480156103b1575f80fd5b506103cc60048036038101906103c7919061918a565b611590565b6040516103d99190618dc7565b60405180910390f35b3480156103ed575f80fd5b50610408600480360381019061040391906191e1565b61218d565b6040516104159190618afd565b60405180910390f35b348015610429575f80fd5b506104326121e4565b60405161043f9190619206565b60405180910390f35b348015610453575f80fd5b5061045c612208565b6040516104699190619249565b60405180910390f35b34801561047d575f80fd5b5061048661222c565b6040516104939190619170565b60405180910390f35b3480156104a7575f80fd5b506104c260048036038101906104bd919061918a565b612246565b6040516104cf9190619409565b60405180910390f35b3480156104e3575f80fd5b506104ec6130b0565b6040516104f99190619423565b60405180910390f35b34801561050d575f80fd5b5061052860048036038101906105239190619464565b6130d4565b005b348015610535575f80fd5b5061053e6133c3565b6040516105519796959493929190619485565b60405180910390f35b348015610565575f80fd5b50610580600480360381019061057b919061918a565b6134c0565b60405161058d9190619409565b60405180910390f35b3480156105a1575f80fd5b506105bc60048036038101906105b7919061951c565b6143da565b6040516105c99190619249565b60405180910390f35b3480156105dd575f80fd5b506105e661447d565b6040516105f39190619546565b60405180910390f35b61061660048036038101906106119190619556565b6144b1565b604051610623919061959a565b60405180910390f35b348015610637575f80fd5b50610652600480360381019061064d919061918a565b614755565b60405161065f9190618dc7565b60405180910390f35b348015610673575f80fd5b5061068e6004803603810190610689919061961f565b615dfb565b60405161069b9190618eee565b60405180910390f35b3480156106af575f80fd5b506106ca60048036038101906106c591906196ca565b615e0f565b6040516106da9493929190619722565b60405180910390f35b3480156106ee575f80fd5b506106f7615ef3565b6040516107049190619249565b60405180910390f35b348015610718575f80fd5b50610733600480360381019061072e9190619775565b615f1a565b005b348015610740575f80fd5b5061075b6004803603810190610756919061906d565b616236565b60405161076891906190a8565b60405180910390f35b34801561077c575f80fd5b506107856162e9565b60405161079291906190a8565b60405180910390f35b3480156107a6575f80fd5b506107c160048036038101906107bc919061951c565b6162ff565b6040516107ce9190619249565b60405180910390f35b3480156107e2575f80fd5b506107fd60048036038101906107f891906197a6565b61636d565b6040516108169d9c9b9a999897969594939291906197c0565b60405180910390f35b34801561082a575f80fd5b506108456004803603810190610840919061988d565b6165df565b6040516108529190618eee565b60405180910390f35b348015610866575f80fd5b50610881600480360381019061087c9190619775565b6165f3565b005b34801561088e575f80fd5b50610897616910565b6040516108a49190619902565b60405180910390f35b5f7f4e2312e0000000000000000000000000000000000000000000000000000000007bffffffffffffffffffffffffffffffffffffffffffffffffffffffff1916827bffffffffffffffffffffffffffffffffffffffffffffffffffffffff1916148061091f575061091e82616934565b5b9050919050565b5f61093b6731ee33c62c323fd660c01b61699d565b61094f67a30c69752f78e0a260c01b61699d565b61096367084d8b61bafd4cb360c01b61699d565b858590508751146109b45761098267b0f79ac6511d679660c01b61699d565b6040517fa9854bc900000000000000000000000000000000000000000000000000000000815260040160405180910390fd5b6109c8674bf27cc0621b7c7560c01b61699d565b6109dc67bc6fe4cb708ca3ad60c01b61699d565b6109f067f9cc46fd37e88fbe60c01b61699d565b5f73ffffffffffffffffffffffffffffffffffffffff168473ffffffffffffffffffffffffffffffffffffffff1603610a6957610a37676d9a1e8ae415095460c01b61699d565b6040517f9c8d2cd200000000000000000000000000000000000000000000000000000000815260040160405180910390fd5b610a7d67e99f7674d1aac6c960c01b61699d565b610a9167e254a1d99f092e1660c01b61699d565b610aa567ea3db1d44b4960cf60c01b61699d565b5f5b8751811015610b3c57610ac467d187e7962559005b60c01b61699d565b610b10888281518110610ada57610ad9619928565b5b6020026020010151888884818110610af557610af4619928565b5b9050602002016020810190610b0a9190619464565b876169a0565b82610b1b9190619982565b9150610b3167f1f53108f5cbee6d60c01b61699d565b806001019050610aa7565b50610b516747a2d0a91f9551cc60c01b61699d565b610b6567cd7b619aa8a269a260c01b61699d565b5f7f00000000000000000000000000000000000000000000000000000000000000009050610b9d67dfb3d4208d86163860c01b61699d565b610bb167c057003a1f4264df60c01b61699d565b5f610bba6173a0565b9050610bd067930160b65c9288d660c01b61699d565b610be4679db1fc26e7c4fa8660c01b61699d565b5f8585905014610cec57610c0267052117c6c66b84e260c01b61699d565b610c166724d48f4ba510bc3a60c01b61699d565b610c2a672a207156e77e669c60c01b61699d565b5f805f805f8989810190610c3e91906199b1565b94509450945094509450610c5c67ad8cbbab715a819760c01b61699d565b610c7067d3bd345463cc6b2960c01b61699d565b8673ffffffffffffffffffffffffffffffffffffffff1663d505accf873088888888886040518863ffffffff1660e01b8152600401610cb597969594939291906199ff565b5f604051808303815f87803b158015610ccc575f80fd5b505af1158015610cde573d5f803e3d5ffd5b505050505050505050610d01565b610d006763e68a47be514b8260c01b61699d565b5b610d15676a6f4a77a3de8b3460c01b61699d565b610d2967d8ef5caa7b1d886960c01b61699d565b610d648130856bffffffffffffffffffffffff168573ffffffffffffffffffffffffffffffffffffffff166173d5909392919063ffffffff16565b610d7867a24a476fa45a0b6660c01b61699d565b610d8c6756ca9ffa4eb242a460c01b61699d565b7f000000000000000000000000000000000000000000000000000000000000000073ffffffffffffffffffffffffffffffffffffffff16633f50adf184886040518363ffffffff1660e01b8152600401610de7929190619a56565b5f604051808303815f87803b158015610dfe575f80fd5b505af1925050508015610e0f575060015b5050509695505050505050565b5f63150b7a0260e01b9050949350505050565b60605f610e4667dc4ea278f2c59eb860c01b61699d565b610e5a67044a6381018f470860c01b61699d565b610e668b8b8b8b610f4d565b9150610e7c678b1ce1f8efc8fd7160c01b61699d565b610e8a828888888888610926565b9050995099975050505050505050565b5f610eaf6785c88608e50e9ddb60c01b61699d565b610ec3677fe229c6e0646ab460c01b61699d565b610ed7671273e7e8bceb101960c01b61699d565b60038381548110610eeb57610eea619928565b5b905f5260205f2090600b0201600a015f8373ffffffffffffffffffffffffffffffffffffffff1673ffffffffffffffffffffffffffffffffffffffff1681526020019081526020015f205f9054906101000a900463ffffffff16905092915050565b6060610f6367e2f578625ee1ff2760c01b61699d565b610f77673b31bac45b32fef960c01b61699d565b610f8b674672ce69449164ef60c01b61699d565b828290508585905014610fde57610fac676121c47846bf1bc860c01b61699d565b6040517fa9854bc900000000000000000000000000000000000000000000000000000000815260040160405180910390fd5b610ff26790c407e69ce9d3cb60c01b61699d565b611006673eb1d102fcc8e21160c01b61699d565b8484905067ffffffffffffffff81111561102357611022618b0f565b5b6040519080825280602002602001820160405280156110515781602001602082028036833780820191505090505b5090506110686747150ad780617a0e60c01b61699d565b61107c67299d961e2d52affe60c01b61699d565b5f6110856173a0565b905061109b678619bc606dce952460c01b61699d565b6110af6706198351cd7dabec60c01b61699d565b5f6110b861745e565b90506110ce67473bf18aede563e360c01b61699d565b6110e267e56b0f05aa86cc5a60c01b61699d565b5f7f0000000000000000000000000000000000000000000000000000000000000000905061111a679ebc1944fb7ab2c560c01b61699d565b61112e67a41a2941b71d288060c01b61699d565b5f5b888890508110156115475761114f67d79915bc5c8f08ac60c01b61699d565b611163672ff6bc07068659b060c01b61699d565b5f808a8a8481811061117857611177619928565b5b905060200281019061118a9190619a91565b61119390619ade565b73__$72af780dd7c349ae107e216b14f91847d4$__63bf3fd4c790918b8b878181106111c2576111c1619928565b5b90506020028101906111d49190619b62565b8989896040518663ffffffff1660e01b81526004016111f7959493929190619c6f565b6040805180830381865af4158015611211573d5f803e3d5ffd5b505050506040513d601f19601f820116820180604052508101906112359190619d68565b9150915061124d670ec9caf0cc51920c60c01b61699d565b61129f8b8b8581811061126357611262619928565b5b90506020028101906112759190619a91565b8a8a8681811061128857611287619928565b5b905060200281019061129a9190619b62565b617514565b8784815181106112b2576112b1619928565b5b6020026020010181815250506112d26731bae196fa3e872a60c01b61699d565b6112e667cb0c8b3ee12c3f9160c01b61699d565b8173ffffffffffffffffffffffffffffffffffffffff168673ffffffffffffffffffffffffffffffffffffffff16146115115761132d67b7ebb633228f1db560c01b61699d565b61134167969be587a661246560c01b61699d565b611355674e42ca89e7a8975d60c01b61699d565b60045f8373ffffffffffffffffffffffffffffffffffffffff1673ffffffffffffffffffffffffffffffffffffffff1681526020019081526020015f205f8281526020019081526020015f205f9054906101000a900460ff16156113f9576113c76728b80b577b2891b660c01b61699d565b6040517f1f6d5aef00000000000000000000000000000000000000000000000000000000815260040160405180910390fd5b61140d67758ec123bda18bb160c01b61699d565b6114216775e0cdafb586726060c01b61699d565b600160045f8473ffffffffffffffffffffffffffffffffffffffff1673ffffffffffffffffffffffffffffffffffffffff1681526020019081526020015f205f8381526020019081526020015f205f6101000a81548160ff02191690831515021790555061149967a4d1af12da9a47bc60c01b61699d565b6114ad67496ab26e5aed8e8e60c01b61699d565b808273ffffffffffffffffffffffffffffffffffffffff168885815181106114d8576114d7619928565b5b60200260200101517fc4e3e09840282d09a125dc68ec6d3f9ddc391b467fbe53aad57c80dc183bb73b60405160405180910390a4611526565b61152567ebc77e8901ac86c860c01b61699d565b5b61153a67123e8beb9a14498760c01b61699d565b8260010192505050611130565b50505050949350505050565b7f000000000000000000000000000000000000000000000000000000000000000081565b60055f9054906101000a900467ffffffffffffffff1681565b5f6115a56704f32ef8d2bb595e60c01b61699d565b6115b9677f778162d07e421b60c01b61699d565b6115cd67da1d2388c01540e460c01b61699d565b5f73ffffffffffffffffffffffffffffffffffffffff168273ffffffffffffffffffffffffffffffffffffffff1603611646576116146706d7eaa64a9d6c7360c01b61699d565b6040517f9c8d2cd200000000000000000000000000000000000000000000000000000000815260040160405180910390fd5b61165a673b6bfd698b5748f460c01b61699d565b61166e67166830c3c6ba229860c01b61699d565b61168267a4034a523bd5b26560c01b61699d565b5f61168b6173a0565b90506116a167beb4e285491f158960c01b61699d565b6116b5679379468dfa5467ea60c01b61699d565b5f5b85859050811015612103576116d66788720318201ec28260c01b61699d565b6116ea6738f1f1f559d2f6e660c01b61699d565b5f8686838181106116fe576116fd619928565b5b90506020020135905061171b6743a7eccfbd65787660c01b61699d565b61172f6733b1b59eeba7ea9460c01b61699d565b5f6003828154811061174457611743619928565b5b905f5260205f2090600b020190506117666726babe9a322acbe060c01b61699d565b61177a676ef9752f845f387260c01b61699d565b5f815f01600c9054906101000a90046bffffffffffffffffffffffff1690506117ad67cd80fdfeddeeba1b60c01b61699d565b6117c1677d6a3f58ff87b10c60c01b61699d565b5f816bffffffffffffffffffffffff1603611827576117ea675240b6e718ecf20760c01b61699d565b826040517fc87c164100000000000000000000000000000000000000000000000000000000815260040161181e9190619546565b60405180910390fd5b61183b67985db138ea9c718260c01b61699d565b61184f6746c24f614f952c3c60c01b61699d565b61186367af86190849653bb460c01b61699d565b5f826009015f8773ffffffffffffffffffffffffffffffffffffffff1673ffffffffffffffffffffffffffffffffffffffff1681526020019081526020015f205f9054906101000a900463ffffffff1690506118c9673ad04e1159b357bb60c01b61699d565b6118dd6771cf421977a5c15a60c01b61699d565b5f8163ffffffff160361193b576118fe671cb104b0fc98ca3960c01b61699d565b836040517fae267ff00000000000000000000000000000000000000000000000000000000081526004016119329190619546565b60405180910390fd5b61194f673196b61f234e571c60c01b61699d565b61196367a4436c8fc2c7d35760c01b61699d565b61197767e291e128aaf0523660c01b61699d565b8260010160059054906101000a900460ff16156119df576119a267190dd3a4efcb955b60c01b61699d565b836040517fcc1bf0580000000000000000000000000000000000000000000000000000000081526004016119d69190619546565b60405180910390fd5b6119f367a2960579faece6d460c01b61699d565b611a0767245e4a37ca32347d60c01b61699d565b611a1b679adf8fc3c437ded760c01b61699d565b5f835f01601c9054906101000a900463ffffffff169050611a4667a2dffea2bc539ff160c01b61699d565b611a5a67f4074d61dc085c7460c01b61699d565b5f7f000000000000000000000000000000000000000000000000000000000000000073ffffffffffffffffffffffffffffffffffffffff1663fa95b139836040518263ffffffff1660e01b8152600401611ab49190619d96565b6040805180830381865afa158015611ace573d5f803e3d5ffd5b505050506040513d601f19601f82011682018060405250810190611af29190619dac565b915050611b09679d67081a5501624760c01b61699d565b611b1d67b90a70c97a95fd3b60c01b61699d565b5f8103611bdc57611b3867e061de1007184a5660c01b61699d565b611b4c679d2cecdac7c7fa1f60c01b61699d565b611b6067638779fd5af764a260c01b61699d565b62015180820163ffffffff164211611bc357611b86676d52b776e33995f560c01b61699d565b856040517f128471ac000000000000000000000000000000000000000000000000000000008152600401611bba9190619546565b60405180910390fd5b611bd767b720d6e3e250a86a60c01b61699d565b611c90565b611bf067ee421b9ea41c6c7360c01b61699d565b611c0467d82ca30db5eac43760c01b61699d565b611c18677fc902cc67bf2ce260c01b61699d565b62015180820163ffffffff168111611c7b57611c3e67206caf6bf5ca9d7460c01b61699d565b856040517fcc1bf058000000000000000000000000000000000000000000000000000000008152600401611c729190619546565b60405180910390fd5b611c8f67e6af7dddf736bd6460c01b61699d565b5b611ca467e1a42acb8d1a9e7560c01b61699d565b611cb867c25db0dbb7d3dd4360c01b61699d565b611ccc670ad60f167c0fe24860c01b61699d565b5f8363ffffffff1685029050611cec67014a9f85682c403f60c01b61699d565b808a019950611d0567df5f8ef2090a5d6d60c01b61699d565b876001019750611d1f6708a17800e48b309e60c01b61699d565b83865f0160088282829054906101000a900463ffffffff160392506101000a81548163ffffffff021916908363ffffffff160217905550611d6a67b69c7ff0c2ac9f9f60c01b61699d565b5f866009015f8b73ffffffffffffffffffffffffffffffffffffffff1673ffffffffffffffffffffffffffffffffffffffff1681526020019081526020015f205f6101000a81548163ffffffff021916908363ffffffff160217905550611ddb67e30236c2621ff7cd60c01b61699d565b611def67742f26f1e9bffa7e60c01b61699d565b8a73ffffffffffffffffffffffffffffffffffffffff168973ffffffffffffffffffffffffffffffffffffffff16887f5f0d5e01c94f6e597b35974549cefd32ab7f862eea9e90e19105e4b9b15c6f8a84604051611e4d9190618dc7565b60405180910390a450611e6a675882a40dc39355f360c01b61699d565b611e7e676f188af8aceaf64060c01b61699d565b5f855f0160089054906101000a900463ffffffff1663ffffffff16148015611f2e57508460010160069054906101000a900460ff168015611ecf5750611ece67d0a9cabf580c365d60c01b617da1565b5b80611f2d575060046005811115611ee957611ee861926f565b5b856002016003015f9054906101000a900460ff166005811115611f0f57611f0e61926f565b5b148015611f2c5750611f2b67b27554754eaf276f60c01b617da1565b5b5b5b156120e357611f47673ff4cf08cdd2fdef60c01b61699d565b60038681548110611f5b57611f5a619928565b5b905f5260205f2090600b02015f8082015f6101000a81549063ffffffff02191690555f820160046101000a81549063ffffffff02191690555f820160086101000a81549063ffffffff02191690555f8201600c6101000a8154906bffffffffffffffffffffffff02191690555f820160186101000a81549063ffffffff02191690555f8201601c6101000a81549063ffffffff0219169055600182015f6101000a81549063ffffffff02191690556001820160046101000a81549060ff02191690556001820160056101000a81549060ff02191690556001820160066101000a81549060ff02191690556001820160076101000a81549060ff02191690556001820160086101000a81549073ffffffffffffffffffffffffffffffffffffffff0219169055600282015f8082015f6101000a81549073ffffffffffffffffffffffffffffffffffffffff0219169055600182015f9055600282015f9055600382015f6101000a81549060ff0219169055600482015f6120da9190618a00565b505050506120f8565b6120f76772816cb50f5baebe60c01b61699d565b5b5050505050506116b7565b5061211867ae0903388b9b341c60c01b61699d565b61212c6704ba4b0153d942ef60c01b61699d565b61218583836bffffffffffffffffffffffff167f000000000000000000000000000000000000000000000000000000000000000073ffffffffffffffffffffffffffffffffffffffff16617dab9092919063ffffffff16565b509392505050565b5f805f9054906101000a900473ffffffffffffffffffffffffffffffffffffffff1673ffffffffffffffffffffffffffffffffffffffff168273ffffffffffffffffffffffffffffffffffffffff16149050919050565b7f000000000000000000000000000000000000000000000000000000000000000081565b7f000000000000000000000000000000000000000000000000000000000000000081565b600560089054906101000a900467ffffffffffffffff1681565b606061225c672da7abdad52f27e560c01b61699d565b61227067aa468ba6e897757760c01b61699d565b61228467012637d04666800160c01b61699d565b5f73ffffffffffffffffffffffffffffffffffffffff168273ffffffffffffffffffffffffffffffffffffffff16036122fd576122cb67122bdf9b0aebd3b860c01b61699d565b6040517f9c8d2cd200000000000000000000000000000000000000000000000000000000815260040160405180910390fd5b612311674f02d330818cf49b60c01b61699d565b612325678d5ac5297a8715da60c01b61699d565b8383905067ffffffffffffffff81111561234257612341618b0f565b5b60405190808252806020026020018201604052801561237b57816020015b612368618a3d565b8152602001906001900390816123605790505b50905061239267815417f454b6a74f60c01b61699d565b6123a667806c3a090170c83e60c01b61699d565b5f6123af6173a0565b90506123c5672978769f65fcfe5060c01b61699d565b6123d9671ac01b9a5083fd1560c01b61699d565b5f7f000000000000000000000000000000000000000000000000000000000000000090506124116718d8a16d5c59526760c01b61699d565b61242567da8dd06f9930ae5660c01b61699d565b5f5b868690508110156130a6576124466768e0396377bf72d660c01b61699d565b61245a675cbb4e7372e5455d60c01b61699d565b5f87878381811061246e5761246d619928565b5b90506020020135905061248b67fc8189fe1544a1b160c01b61699d565b61249f67d24c7e41efe450e260c01b61699d565b5f600382815481106124b4576124b3619928565b5b905f5260205f2090600b020190506124d667c784b1b345dca32a60c01b61699d565b6124ea67923f6b36a12be5a160c01b61699d565b5f8160010160089054906101000a900473ffffffffffffffffffffffffffffffffffffffff16905061252667fcecf928542b19af60c01b61699d565b61253a676b581ca7c362f13760c01b61699d565b5f73ffffffffffffffffffffffffffffffffffffffff168173ffffffffffffffffffffffffffffffffffffffff16036125be57612581677ad11007c5be0bac60c01b61699d565b826040517fc87c16410000000000000000000000000000000000000000000000000000000081526004016125b59190619546565b60405180910390fd5b6125d2676d51159f30da1c3460c01b61699d565b6125e6678335a2efb379dc9860c01b61699d565b6125fa6737101db0c37dfb3960c01b61699d565b8073ffffffffffffffffffffffffffffffffffffffff168673ffffffffffffffffffffffffffffffffffffffff161461267e57612641675b804e474e6b11db60c01b61699d565b826040517fc9cd77cf0000000000000000000000000000000000000000000000000000000081526004016126759190619546565b60405180910390fd5b61269267408a5597f174ae6a60c01b61699d565b6126a6678ad6ee38d571be6e60c01b61699d565b6126ba67072494d1c3755b0060c01b61699d565b8160010160059054906101000a900460ff1615612722576126e5673838a446cd82be1e60c01b61699d565b826040517fcc1bf0580000000000000000000000000000000000000000000000000000000081526004016127199190619546565b60405180910390fd5b61273667871b439f3e32a4b460c01b61699d565b61274a678f2b6330d46d26cc60c01b61699d565b61275e67b51cca792d48760d60c01b61699d565b8160010160069054906101000a900460ff16156127c6576127896750898b312c752b3c60c01b61699d565b826040517fd181585f0000000000000000000000000000000000000000000000000000000081526004016127bd9190619546565b60405180910390fd5b6127da67bdea3e38951f572860c01b61699d565b6127ee677d409f9c585732c460c01b61699d565b61280267c57acad6a80c562660c01b61699d565b5f825f01601c9054906101000a900463ffffffff16905061282d67f0b745353f1b728660c01b61699d565b6128416770d1bdf94d0d778760c01b61699d565b8260010160049054906101000a900460ff1615612ad05761286c67c7c1d167296b102660c01b61699d565b6128806794f611f7ee8f6bfb60c01b61699d565b61289467d40872af729e789060c01b61699d565b5f7f000000000000000000000000000000000000000000000000000000000000000073ffffffffffffffffffffffffffffffffffffffff1663fa95b139836040518263ffffffff1660e01b81526004016128ee9190619d96565b6040805180830381865afa158015612908573d5f803e3d5ffd5b505050506040513d601f19601f8201168201806040525081019061292c9190619dac565b9150506129436741ccfcff2204467b60c01b61699d565b6129576748f3fcf408a0090360c01b61699d565b5f8103612a16576129726721e8fc796eead33460c01b61699d565b612986673aee3f0b64ad831a60c01b61699d565b61299a67025cce2ccc108d7760c01b61699d565b62015180820163ffffffff1642116129fd576129c067d35155a106b37fd860c01b61699d565b846040517f128471ac0000000000000000000000000000000000000000000000000000000081526004016129f49190619546565b60405180910390fd5b612a116726d67fa3243a823660c01b61699d565b612aca565b612a2a67a3c37a9c81413d2960c01b61699d565b612a3e67105d176ca28c157460c01b61699d565b612a5267bc9a7dece3fd00b260c01b61699d565b62015180820163ffffffff168111612ab557612a786742dbfd79b5b8a69c60c01b61699d565b846040517fcc1bf058000000000000000000000000000000000000000000000000000000008152600401612aac9190619546565b60405180910390fd5b612ac9679bd024302f9488cc60c01b61699d565b5b50612b6b565b612ae467c917fa1e487bf88e60c01b61699d565b612af867e6fe8839ae3911f860c01b61699d565b8063ffffffff164211612b5657612b196724c1fd41b2e5304860c01b61699d565b836040517f128471ac000000000000000000000000000000000000000000000000000000008152600401612b4d9190619546565b60405180910390fd5b612b6a6709538048bbddc67860c01b61699d565b5b612b7f67db939bbae902c9aa60c01b61699d565b612b936799ef1b40d6a9cda760c01b61699d565b5f836002016040518060a00160405290815f82015f9054906101000a900473ffffffffffffffffffffffffffffffffffffffff1673ffffffffffffffffffffffffffffffffffffffff1673ffffffffffffffffffffffffffffffffffffffff1681526020016001820154815260200160028201548152602001600382015f9054906101000a900460ff166005811115612c2f57612c2e61926f565b5b6005811115612c4157612c4061926f565b5b8152602001600482018054612c5590619dcf565b80601f0160208091040260200160405190810160405280929190818152602001828054612c8190619dcf565b8015612ccc5780601f10612ca357610100808354040283529160200191612ccc565b820191905f5260205f20905b815481529060010190602001808311612caf57829003601f168201915b5050505050815250509050612ceb67d604395f7be9884f60c01b61699d565b612cff672c857ed906e3b5fe60c01b61699d565b5f845f0160089054906101000a900463ffffffff1663ffffffff1603612ee357612d3367ddc0f5fb754fff7760c01b61699d565b612d47673ec7daa5e6fcf07b60c01b61699d565b60038581548110612d5b57612d5a619928565b5b905f5260205f2090600b02015f8082015f6101000a81549063ffffffff02191690555f820160046101000a81549063ffffffff02191690555f820160086101000a81549063ffffffff02191690555f8201600c6101000a8154906bffffffffffffffffffffffff02191690555f820160186101000a81549063ffffffff02191690555f8201601c6101000a81549063ffffffff0219169055600182015f6101000a81549063ffffffff02191690556001820160046101000a81549060ff02191690556001820160056101000a81549060ff02191690556001820160066101000a81549060ff02191690556001820160076101000a81549060ff02191690556001820160086101000a81549073ffffffffffffffffffffffffffffffffffffffff0219169055600282015f8082015f6101000a81549073ffffffffffffffffffffffffffffffffffffffff0219169055600182015f9055600282015f9055600382015f6101000a81549060ff0219169055600482015f612eda9190618a00565b50505050612f29565b612ef767fa922955d1ad0aa060c01b61699d565b612f0b6793538324ddfe783560c01b61699d565b60018460010160066101000a81548160ff0219169083151502179055505b612f3d6735466f32b919acc260c01b61699d565b8073__$72af780dd7c349ae107e216b14f91847d4$__63dbe6079f90918c8a6040518463ffffffff1660e01b8152600401612f7a93929190619e23565b5f60405180830381865af4158015612f94573d5f803e3d5ffd5b505050506040513d5f823e3d601f19601f82011682018060405250810190612fbc9190619f2a565b898781518110612fcf57612fce619928565b5b6020026020010181905250612fee67b7ae98410747f7bd60c01b61699d565b613002675a7349dc811c579d60c01b61699d565b8973ffffffffffffffffffffffffffffffffffffffff168873ffffffffffffffffffffffffffffffffffffffff16867f12650d05f405bb47df1fbc670929e68d0b595cc452e0ed396c0dff2382ddd8b58c8a8151811061306557613064619928565b5b602002602001015160405161307a9190619f65565b60405180910390a461309667828dc631dfc50d6160c01b61699d565b8560010195505050505050612427565b5050509392505050565b7f000000000000000000000000000000000000000000000000000000000000000081565b6130e8674fa0c667ff5384d460c01b61699d565b6130fc6714063b9a4209c13160c01b61699d565b613110671dbd95c5e277c0a560c01b61699d565b6131246791aba0ece19d0d8c60c01b61699d565b7f000000000000000000000000000000000000000000000000000000000000000073ffffffffffffffffffffffffffffffffffffffff166391d148547f00000000000000000000000000000000000000000000000000000000000000006131896173a0565b6040518363ffffffff1660e01b81526004016131a6929190619f7f565b602060405180830381865afa1580156131c1573d5f803e3d5ffd5b505050506040513d601f19601f820116820180604052508101906131e59190619fac565b61322f576131fd672e2db09ccb30cc1360c01b61699d565b6040517fc183bcef00000000000000000000000000000000000000000000000000000000815260040160405180910390fd5b61324367b80d0c1de0a3144c60c01b61699d565b61325767d0e2797d0b2d9cbb60c01b61699d565b61326b673b835de6071a6d5a60c01b61699d565b61327f67c931485e36397ee360c01b61699d565b6132936715c677a5dbe6b02e60c01b61699d565b6132a767cbdcca04226481aa60c01b61699d565b61271063ffffffff168163ffffffff161115613303576132d167b9dfc1f9caf45f8360c01b61699d565b6040517fcd4e616700000000000000000000000000000000000000000000000000000000815260040160405180910390fd5b61331767b0fc00e99b84809560c01b61699d565b61332b671978520f0b87c68360c01b61699d565b61333f67050e8a926a9f1b4760c01b61699d565b8063ffffffff16600560109054906101000a900463ffffffff1663ffffffff167fe50fb4e9ec0119d495079e81085516243df607978f5087d4d1d0d15107e323df60405160405180910390a361339f67c15b205080b6cf1b60c01b61699d565b80600560106101000a81548163ffffffff021916908363ffffffff16021790555050565b5f6060805f805f606061340060017f0000000000000000000000000000000000000000000000000000000000000000617e3190919063ffffffff16565b61343460027f0000000000000000000000000000000000000000000000000000000000000000617e3190919063ffffffff16565b46305f801b5f67ffffffffffffffff81111561345357613452618b0f565b5b6040519080825280602002602001820160405280156134815781602001602082028036833780820191505090505b507f0f00000000000000000000000000000000000000000000000000000000000000959493929190965096509650965096509650965090919293949596565b60606134d66714cc4b6d277c3e1c60c01b61699d565b6134ea67153beb5f94dc71df60c01b61699d565b6134fe670f3c8057b023880860c01b61699d565b5f73ffffffffffffffffffffffffffffffffffffffff168273ffffffffffffffffffffffffffffffffffffffff1603613577576135456776954e4623c6eb3f60c01b61699d565b6040517f9c8d2cd200000000000000000000000000000000000000000000000000000000815260040160405180910390fd5b61358b67720f93506673bc1c60c01b61699d565b61359f6704f887167b35b41d60c01b61699d565b8383905067ffffffffffffffff8111156135bc576135bb618b0f565b5b6040519080825280602002602001820160405280156135f557816020015b6135e2618a3d565b8152602001906001900390816135da5790505b50905061360c6747be8a0ffed91bc560c01b61699d565b61362067cca7d41bc53006f160c01b61699d565b5f6136296173a0565b905061363f67bd3ac88b25b7137d60c01b61699d565b6136536767fab7ffd33f087060c01b61699d565b5f7f0000000000000000000000000000000000000000000000000000000000000000905061368b67c129690c67d0175860c01b61699d565b61369f6735764ad3b213ac2560c01b61699d565b5f5b868690508110156143d0576136c0672335dec7099a03be60c01b61699d565b6136d467f2f9687ed05477a760c01b61699d565b5f8787838181106136e8576136e7619928565b5b905060200201359050613705678d0c5ff9ebc28f7b60c01b61699d565b61371967a62e729a98bbf4f260c01b61699d565b5f6003828154811061372e5761372d619928565b5b905f5260205f2090600b02019050613750674c524effc69aabb460c01b61699d565b61376467a9f21bcc749f81a060c01b61699d565b5f815f01601c9054906101000a900463ffffffff16905061378f67c06e9355b9cf216160c01b61699d565b6137a367b8f1dbc2cbf0b45f60c01b61699d565b5f8163ffffffff1603613801576137c467a85c3f3de9f3706160c01b61699d565b826040517fc87c16410000000000000000000000000000000000000000000000000000000081526004016137f89190619546565b60405180910390fd5b61381567c78ec7177ab83a5a60c01b61699d565b613829671fbb34fbc307a32d60c01b61699d565b61383d677fb2a36ad53eeb7760c01b61699d565b5f825f0160089054906101000a900463ffffffff1690506138686721df23211cada7ce60c01b61699d565b61387c679a4caf663250a80560c01b61699d565b5f8163ffffffff16036138da5761389d67a42bf5d023bdda1260c01b61699d565b836040517ff27cfd460000000000000000000000000000000000000000000000000000000081526004016138d19190619546565b60405180910390fd5b6138ee67f21500e1077ea99c60c01b61699d565b61390267ac0b5d8a5ba15bc360c01b61699d565b61391667d5fbcd9018d5e6e260c01b61699d565b8260010160059054906101000a900460ff1615613a3e576139416704685782d73d74bb60c01b61699d565b61395567d8fd8ba09b41198f60c01b61699d565b6139696706065887bc9fca5660c01b61699d565b826008015f8063ffffffff1681526020019081526020015f205f9054906101000a900473ffffffffffffffffffffffffffffffffffffffff1673ffffffffffffffffffffffffffffffffffffffff168773ffffffffffffffffffffffffffffffffffffffff1614613a25576139e867d50d4973b25acacc60c01b61699d565b836040517f1d12a9fe000000000000000000000000000000000000000000000000000000008152600401613a1c9190619546565b60405180910390fd5b613a3967a2e81ea9509ba21860c01b61699d565b613dfa565b613a5267a42e849ce3e09e3c60c01b61699d565b613a6667c80592d75435b65f60c01b61699d565b613a7a6778b2efe107a81e5c60c01b61699d565b5f807f000000000000000000000000000000000000000000000000000000000000000073ffffffffffffffffffffffffffffffffffffffff1663fa95b139856040518263ffffffff1660e01b8152600401613ad59190619d96565b6040805180830381865afa158015613aef573d5f803e3d5ffd5b505050506040513d601f19601f82011682018060405250810190613b139190619dac565b91509150613b2b67488ce800cc648fd860c01b61699d565b613b3f67d7bd9ecef7c94b6660c01b61699d565b5f8103613b9657613b5a67ee0f33b2381f66b760c01b61699d565b856040517e4337df000000000000000000000000000000000000000000000000000000008152600401613b8d9190619546565b60405180910390fd5b613baa678cb39b8128f40d9960c01b61699d565b613bbe6701c4ff17ec827ac660c01b61699d565b613bd26755ce04a183ffbab160c01b61699d565b62015180840163ffffffff16811115613c3657613bf967c87b07f592b5a48f60c01b61699d565b856040517f6250c2b4000000000000000000000000000000000000000000000000000000008152600401613c2d9190619546565b60405180910390fd5b613c4a672f0965903520026e60c01b61699d565b613c5e67d0c60c0e3945c0ff60c01b61699d565b613c72677188ae38a86706f260c01b61699d565b613c8667a58426a1b7abd18b60c01b61699d565b5f6101008781613c9957613c98619fd5565b5b069050613cb067b799be61e68fea9760c01b61699d565b613cc4675a1cc4ff012f34d460c01b61699d565b5f816101000384901c8285901b179050613ce867bbd2f35f138dbdf360c01b61699d565b613cfc67424e339a0581101460c01b61699d565b5f613d3288895f0160049054906101000a900463ffffffff16880163ffffffff168481613d2c57613d2b619fd5565b5b06617ede565b9050613d486756e0f86a5c3f068460c01b61699d565b613d5c67288ca4f3e1b79f8d60c01b61699d565b8073ffffffffffffffffffffffffffffffffffffffff168c73ffffffffffffffffffffffffffffffffffffffff1614613de057613da36711c2b2719aeadd6660c01b61699d565b886040517f1d12a9fe000000000000000000000000000000000000000000000000000000008152600401613dd79190619546565b60405180910390fd5b613df467e2cbaff8259bdb4160c01b61699d565b50505050505b613e0e675879a96925fda5cf60c01b61699d565b613e2267b93e6474697f49e360c01b61699d565b8260010160069054906101000a900460ff1615613e8a57613e4d67a157f13d4a1bd13c60c01b61699d565b836040517fd181585f000000000000000000000000000000000000000000000000000000008152600401613e819190619546565b60405180910390fd5b613e9e67c999f80a7ff2488d60c01b61699d565b613eb267a472928e1a27389f60c01b61699d565b613ec667818f9e7979963d6b60c01b61699d565b5f836002016040518060a00160405290815f82015f9054906101000a900473ffffffffffffffffffffffffffffffffffffffff1673ffffffffffffffffffffffffffffffffffffffff1673ffffffffffffffffffffffffffffffffffffffff1681526020016001820154815260200160028201548152602001600382015f9054906101000a900460ff166005811115613f6257613f6161926f565b5b6005811115613f7457613f7361926f565b5b8152602001600482018054613f8890619dcf565b80601f0160208091040260200160405190810160405280929190818152602001828054613fb490619dcf565b8015613fff5780601f10613fd657610100808354040283529160200191613fff565b820191905f5260205f20905b815481529060010190602001808311613fe257829003601f168201915b505050505081525050905061401e671a2c965b4f412f2e60c01b61699d565b61403267ba1e384e2d81904b60c01b61699d565b8360010160079054906101000a900460ff161561420d5761405d675db4f81758d79f7460c01b61699d565b61407167867ae12016e8ed7660c01b61699d565b6003858154811061408557614084619928565b5b905f5260205f2090600b02015f8082015f6101000a81549063ffffffff02191690555f820160046101000a81549063ffffffff02191690555f820160086101000a81549063ffffffff02191690555f8201600c6101000a8154906bffffffffffffffffffffffff02191690555f820160186101000a81549063ffffffff02191690555f8201601c6101000a81549063ffffffff0219169055600182015f6101000a81549063ffffffff02191690556001820160046101000a81549060ff02191690556001820160056101000a81549060ff02191690556001820160066101000a81549060ff02191690556001820160076101000a81549060ff02191690556001820160086101000a81549073ffffffffffffffffffffffffffffffffffffffff0219169055600282015f8082015f6101000a81549073ffffffffffffffffffffffffffffffffffffffff0219169055600182015f9055600282015f9055600382015f6101000a81549060ff0219169055600482015f6142049190618a00565b50505050614253565b61422167d9950a26d742dba260c01b61699d565b61423567ac47a20e3b9d506b60c01b61699d565b60018460010160066101000a81548160ff0219169083151502179055505b614267676dcb8c2af3a48b4f60c01b61699d565b8073__$72af780dd7c349ae107e216b14f91847d4$__63dbe6079f90918c8a6040518463ffffffff1660e01b81526004016142a493929190619e23565b5f60405180830381865af41580156142be573d5f803e3d5ffd5b505050506040513d5f823e3d601f19601f820116820180604052508101906142e69190619f2a565b8987815181106142f9576142f8619928565b5b602002602001018190525061431867cf336c6c9578f68760c01b61699d565b61432c67b5a6a216777bb6db60c01b61699d565b8973ffffffffffffffffffffffffffffffffffffffff168873ffffffffffffffffffffffffffffffffffffffff16867f02f768edc2c81c64ab82d5a40a06c32639e178bb3de87f04202451161e2162688c8a8151811061438f5761438e619928565b5b60200260200101516040516143a49190619f65565b60405180910390a46143c067e03c64341234bbbd60c01b61699d565b85600101955050505050506136a1565b5050509392505050565b5f6143ef67a29127be7e26b81d60c01b61699d565b61440367dfe826b69009fd0960c01b61699d565b614417677963c663814fea6760c01b61699d565b6003838154811061442b5761442a619928565b5b905f5260205f2090600b02016008015f8363ffffffff1663ffffffff1681526020019081526020015f205f9054906101000a900473ffffffffffffffffffffffffffffffffffffffff16905092915050565b5f61449267e784f26c341f153a60c01b61699d565b6144a6670c156462fbc7a74c60c01b61699d565b600380549050905090565b60606144c767465e50982a07135b60c01b61824c565b6144db67d11ba2f1ddd8190f60c01b61824c565b8282905067ffffffffffffffff8111156144f8576144f7618b0f565b5b60405190808252806020026020018201604052801561452b57816020015b60608152602001906001900390816145165790505b50905061454267dbd2f42137f754ad60c01b61824c565b61455667aa8dec6ddfc9dded60c01b61824c565b5f5b8383905081101561474e5761457767f563b24f3a472f2c60c01b61824c565b61458b67f25c373c4f5e698e60c01b61824c565b5f803073ffffffffffffffffffffffffffffffffffffffff168686858181106145b7576145b6619928565b5b90506020028101906145c9919061a002565b6040516145d792919061a06e565b5f60405180830381855af49150503d805f811461460f576040519150601f19603f3d011682016040523d82523d5f602084013e614614565b606091505b509150915061462d672984bd3a8e5bfdbb60c01b61824c565b6146416792b10051807f033960c01b61824c565b816146e65761465a671dc1011aa5385ae260c01b61824c565b61466e67d12930585e063ea660c01b61824c565b61468267b4e1bc28485b3b5560c01b61824c565b5f8151036146b65761469e676dfa7d342bd6bef660c01b61824c565b6146b267350fc7d7ebc4408960c01b61824c565b5f80fd5b6146ca670950121a7e366bb760c01b61824c565b6146de672e71670c8d90b1d360c01b61824c565b805181602001fd5b6146fa67a80320d2d703126360c01b61824c565b61470e67ce22b0145e1890ef60c01b61824c565b8084848151811061472257614721619928565b5b6020026020010181905250614741672c4c9b208a3d85de60c01b61824c565b8260010192505050614558565b5092915050565b5f61476a6708d6fd209770faed60c01b61699d565b61477e677656835e324be41b60c01b61699d565b61479267207ea21a234770bd60c01b61699d565b5f73ffffffffffffffffffffffffffffffffffffffff168273ffffffffffffffffffffffffffffffffffffffff160361480b576147d967392c260f4cb468c960c01b61699d565b6040517f9c8d2cd200000000000000000000000000000000000000000000000000000000815260040160405180910390fd5b61481f670538c44e10bcc1d960c01b61699d565b61483367a307b55c4a574e1260c01b61699d565b61484767387b4fa2eca61cfb60c01b61699d565b5f6148506173a0565b905061486667ed3c30dc39456c7660c01b61699d565b61487a6770d6fec57c217d0d60c01b61699d565b5f7f000000000000000000000000000000000000000000000000000000000000000090506148b2670427c658306c9f5660c01b61699d565b6148c6677f9c9d17a50f90a160c01b61699d565b5f6148db6736373c2b391ffd4560c01b61699d565b6148ef672e8d476dfa65be4d60c01b61699d565b5f5b87879050811015615bff5761491067e593fd80ca6e0f7160c01b61699d565b61492467e7c1240c823299f560c01b61699d565b5f88888381811061493857614937619928565b5b905060200201359050614955671014a4a5823eb03760c01b61699d565b6149696766abc0d9bfdcd19f60c01b61699d565b5f6003828154811061497e5761497d619928565b5b905f5260205f2090600b020190506149a067ac070abe21383da860c01b61699d565b6149b467e340ee8fbd2fba2a60c01b61699d565b5f8160010160089054906101000a900473ffffffffffffffffffffffffffffffffffffffff1690506149f0679d721e40d9482b1d60c01b61699d565b614a0467c0e4dbbf0780f45660c01b61699d565b5f73ffffffffffffffffffffffffffffffffffffffff168173ffffffffffffffffffffffffffffffffffffffff1603614a8857614a4b678b722243b334a8ca60c01b61699d565b826040517fc87c1641000000000000000000000000000000000000000000000000000000008152600401614a7f9190619546565b60405180910390fd5b614a9c678c69e7f2a1c8c3e760c01b61699d565b614ab0672aa8f535a84ec6bb60c01b61699d565b614ac467ba387b79e59202fc60c01b61699d565b5f825f0160089054906101000a900463ffffffff169050614aef679badc4e6cc72f36560c01b61699d565b614b03679678e61fdb7e700d60c01b61699d565b5f8163ffffffff1603614b6157614b2467080c55f8f769bab760c01b61699d565b836040517ff27cfd46000000000000000000000000000000000000000000000000000000008152600401614b589190619546565b60405180910390fd5b614b7567940d47df972f5f2060c01b61699d565b614b89672c7d945b8f93d7f160c01b61699d565b614b9d672b30a845e0107ea660c01b61699d565b5f614bb26706b28e0b0664844660c01b61699d565b614bc667ee09d23f4452bf8f60c01b61699d565b5f846002016003015f9054906101000a900460ff169050614bf1677b1c788e51f447aa60c01b61699d565b614c0567539e6390b77835e760c01b61699d565b8460010160059054906101000a900460ff1615614f5c57614c3067e1e4c4ef7a9f30bc60c01b61699d565b614c446781ac4809825ff1d460c01b61699d565b614c58671460c665a547292160c01b61699d565b60046005811115614c6c57614c6b61926f565b5b816005811115614c7f57614c7e61926f565b5b03614d9557614c9867980c4ba402704d9b60c01b61699d565b614cac6748f645a7ea719e4860c01b61699d565b614cc0671e84c71a83ca423c60c01b61699d565b846008015f8063ffffffff1681526020019081526020015f205f9054906101000a900473ffffffffffffffffffffffffffffffffffffffff1673ffffffffffffffffffffffffffffffffffffffff168a73ffffffffffffffffffffffffffffffffffffffff1614614d7c57614d3f678b0a7d846319990e60c01b61699d565b856040517f1d12a9fe000000000000000000000000000000000000000000000000000000008152600401614d739190619546565b60405180910390fd5b614d9067ac4db2642fdcc64b60c01b61699d565b614f57565b614da96713b84bd9d9e585bf60c01b61699d565b614dbd677296bcbcb497342560c01b61699d565b614dd1675bf9e18ac0f0b6b660c01b61699d565b8373ffffffffffffffffffffffffffffffffffffffff168a73ffffffffffffffffffffffffffffffffffffffff1614614e5557614e186735d5dd757d383fb360c01b61699d565b856040517fc9cd77cf000000000000000000000000000000000000000000000000000000008152600401614e4c9190619546565b60405180910390fd5b614e6967f9239adf20c04b6160c01b61699d565b614e7d675a866b8741158c8560c01b61699d565b614e91679c6653fb356c672c60c01b61699d565b5f6005811115614ea457614ea361926f565b5b816005811115614eb757614eb661926f565b5b148015614ed45750614ed3677ee294a6f6bea22a60c01b617da1565b5b80614f1f575060016005811115614eee57614eed61926f565b5b816005811115614f0157614f0061926f565b5b148015614f1e5750614f1d67a039eafd56a9e60d60c01b617da1565b5b5b15614f4157614f3867673be8464106d97460c01b61699d565b60019150614f56565b614f55674ebc4cd630e2a27e60c01b61699d565b5b5b61562e565b614f7067fa261f762396991c60c01b61699d565b614f846788615085631954a960c01b61699d565b614f986782b473416fc9597260c01b61699d565b5f614fad67d0fb0ee88e87425d60c01b61699d565b614fc1671ebb1380be1a90b760c01b61699d565b614fd567cd8393238502405160c01b61699d565b5f614fea67200740e5d4797a2160c01b61699d565b614ffe67e1ba26eb0f447f2d60c01b61699d565b5f875f01601c9054906101000a900463ffffffff169050615029676414d87904560ee460c01b61699d565b7f000000000000000000000000000000000000000000000000000000000000000073ffffffffffffffffffffffffffffffffffffffff1663fa95b139826040518263ffffffff1660e01b81526004016150829190619d96565b6040805180830381865afa15801561509c573d5f803e3d5ffd5b505050506040513d601f19601f820116820180604052508101906150c09190619dac565b80935081945050506150dc67532a97cfdc64e57660c01b61699d565b6150f0675db6bf49a0ea824860c01b61699d565b5f82036151475761510b675ae948ad5b05f67560c01b61699d565b886040517e4337df00000000000000000000000000000000000000000000000000000000815260040161513e9190619546565b60405180910390fd5b61515b67334bd2f23f6308fe60c01b61699d565b61516f67d46719d8e3bc745060c01b61699d565b61518367807ef43d167a63d660c01b61699d565b62015180810163ffffffff168211156151e7576151aa6769930b105a26cbce60c01b61699d565b886040517f6250c2b40000000000000000000000000000000000000000000000000000000081526004016151de9190619546565b60405180910390fd5b6151fb677c7c111cfd2ea49460c01b61699d565b50506152116788acd90c9699f3cf60c01b61699d565b61522567e1ba101bb92e5bde60c01b61699d565b8560010160049054906101000a900460ff16158015615254575061525367928fd31fad47891960c01b617da1565b5b8061529f57506004600581111561526e5761526d61926f565b5b8260058111156152815761528061926f565b5b14801561529e575061529d675b1de7b3f92d2b1560c01b617da1565b5b5b1561546a576152b86709ea98990722dd2a60c01b61699d565b6152cc674ee6e5e1c492e74860c01b61699d565b6152e06720b29a22bc02e64d60c01b61699d565b6152f467acdd960cdb992d9c60c01b61699d565b5f610100888161530757615306619fd5565b5b06905061531e6701097bae123b4ec960c01b61699d565b61533267c0fe493fad6c8f5960c01b61699d565b5f816101000383901c8284901b179050615356677f5cdc4d0c55507060c01b61699d565b61536a67b07b1f26029efa3160c01b61699d565b5f6153a0898a5f0160049054906101000a900463ffffffff16890163ffffffff16848161539a57615399619fd5565b5b06617ede565b90506153b667fe281998990e890260c01b61699d565b6153ca6708c60035ca7cc44460c01b61699d565b8073ffffffffffffffffffffffffffffffffffffffff168e73ffffffffffffffffffffffffffffffffffffffff161461544e5761541167fe07eeeca2bd4a1760c01b61699d565b896040517f1d12a9fe0000000000000000000000000000000000000000000000000000000081526004016154459190619546565b60405180910390fd5b61546267b7e0aa4cf6e4b78460c01b61699d565b50505061562c565b61547e67af48ff1432ad324b60c01b61699d565b615492670a98890cad1d365a60c01b61699d565b6154a667294793a4ed463e6660c01b61699d565b8473ffffffffffffffffffffffffffffffffffffffff168b73ffffffffffffffffffffffffffffffffffffffff161461552a576154ed67972731017c05ccd960c01b61699d565b866040517fc9cd77cf0000000000000000000000000000000000000000000000000000000081526004016155219190619546565b60405180910390fd5b61553e67aa60896fb5c03a4260c01b61699d565b61555267b176b15a0516504d60c01b61699d565b61556667232a2916fcae1c5b60c01b61699d565b5f60058111156155795761557861926f565b5b82600581111561558c5761558b61926f565b5b1480156155a957506155a867f04555ceb1b11f3860c01b617da1565b5b806155f45750600160058111156155c3576155c261926f565b5b8260058111156155d6576155d561926f565b5b1480156155f357506155f267ed03a1d29fdb45cc60c01b617da1565b5b5b156156165761560d67d985f1f102885f0f60c01b61699d565b6001925061562b565b61562a67379657ca9236da7c60c01b61699d565b5b5b505b615642670efc0e135b4e7d2b60c01b61699d565b615656678f0dc97bc70478fb60c01b61699d565b61566a67a019ef6cc96efcfa60c01b61699d565b5f8363ffffffff16865f01600c9054906101000a90046bffffffffffffffffffffffff160290506156a567a156116dd2f12ca660c01b61699d565b6156b9674f13ff07daae205b60c01b61699d565b8215615729576156d3673c2d67681c45059760c01b61699d565b6156e7670a92563015bdea0160c01b61699d565b615720866002015f015f9054906101000a900473ffffffffffffffffffffffffffffffffffffffff16876002016001015483888e61824f565b8103905061573e565b61573d679a2467b5f56e6cd760c01b61699d565b5b6157526714ee2cfb5888ce9960c01b61699d565b615766678741dd767f15136160c01b61699d565b5f61271063ffffffff16876001015f9054906101000a900463ffffffff1663ffffffff16836bffffffffffffffffffffffff1602816157a8576157a7619fd5565b5b0490506157bf67661f125f9c1a6a3c60c01b61699d565b808a0199506157d86796b9ee09172a1f4960c01b61699d565b80820391506157f16783f0b8f4c6e70f0060c01b61699d565b818d019c5061580a674e5a2b3fb3a9087160c01b61699d565b886001019850615824676bc4b0f31ec27ca360c01b61699d565b61583867b76b74d53b5a14ca60c01b61699d565b8d73ffffffffffffffffffffffffffffffffffffffff168c73ffffffffffffffffffffffffffffffffffffffff16897ff5c3d0ba946ce1f61c398ccdceab30952250a5c3a614f566ec2fd5f1dabd17bf856040516158969190618dc7565b60405180910390a450506158b4679b999bffd4e8d15160c01b61699d565b6158c867699e8d4f51e0b58c60c01b61699d565b8460010160079054906101000a900460ff1615615930576158f36748fe8575afc2cf6460c01b61699d565b856040517f3be20bf10000000000000000000000000000000000000000000000000000000081526004016159279190619546565b60405180910390fd5b61594467c129b766b4b75ec660c01b61699d565b61595867d63a14e111ac964c60c01b61699d565b61596c6794c1cea9829d67bb60c01b61699d565b8460010160069054906101000a900460ff16801561599a575061599967e9ca79d2fc6a371060c01b617da1565b5b806159e55750600460058111156159b4576159b361926f565b5b8160058111156159c7576159c661926f565b5b1480156159e457506159e367c1701ff32d140da460c01b617da1565b5b5b15615bae576159fe6721b1b3482e9e03cd60c01b61699d565b615a12678faae545be9e4a0d60c01b61699d565b60038681548110615a2657615a25619928565b5b905f5260205f2090600b02015f8082015f6101000a81549063ffffffff02191690555f820160046101000a81549063ffffffff02191690555f820160086101000a81549063ffffffff02191690555f8201600c6101000a8154906bffffffffffffffffffffffff02191690555f820160186101000a81549063ffffffff02191690555f8201601c6101000a81549063ffffffff0219169055600182015f6101000a81549063ffffffff02191690556001820160046101000a81549060ff02191690556001820160056101000a81549060ff02191690556001820160066101000a81549060ff02191690556001820160076101000a81549060ff02191690556001820160086101000a81549073ffffffffffffffffffffffffffffffffffffffff0219169055600282015f8082015f6101000a81549073ffffffffffffffffffffffffffffffffffffffff0219169055600182015f9055600282015f9055600382015f6101000a81549060ff0219169055600482015f615ba59190618a00565b50505050615bf4565b615bc267de87d3d0a62ea03160c01b61699d565b615bd667818cf82ef399307260c01b61699d565b60018560010160076101000a81548160ff0219169083151502179055505b5050505050506148f1565b50615c14671c1a402eca867c9860c01b61699d565b615c2867fdb908c202e8147460c01b61699d565b5f816bffffffffffffffffffffffff161115615d7b57615c5267c140985296e9b01d60c01b61699d565b615c66675290fab07d2ff0ee60c01b61699d565b615c7a67e80c24067e06b83460c01b61699d565b5f7f00000000000000000000000000000000000000000000000000000000000000009050615cb267ab9869824a7d8be460c01b61699d565b615cc667335d2a2ad55d0cd460c01b61699d565b615cff81836bffffffffffffffffffffffff168573ffffffffffffffffffffffffffffffffffffffff16617dab9092919063ffffffff16565b615d1367d0e91cc85bad008360c01b61699d565b615d2767a0b1deb863508cc060c01b61699d565b8073ffffffffffffffffffffffffffffffffffffffff167f194055900b5891c5b0c846e80054a4aad896f0756f69397a6eaeb7014193684a83604051615d6d9190618dc7565b60405180910390a250615d90565b615d8f67c330cedf5da711e660c01b61699d565b5b615da4671a3e5e26929e82a360c01b61699d565b615db867249c59f58738386560c01b61699d565b615df185856bffffffffffffffffffffffff168473ffffffffffffffffffffffffffffffffffffffff16617dab9092919063ffffffff16565b5050509392505050565b5f63bc197c8160e01b905095945050505050565b60605f805f615e2867a22f9f037095c67b60c01b61699d565b615e3c6729528c19e2a447e760c01b61699d565b7f000000000000000000000000000000000000000000000000000000000000000073ffffffffffffffffffffffffffffffffffffffff1663c8b84d1787876040518363ffffffff1660e01b8152600401615e9792919061a084565b5f604051808303815f875af1158015615eb2573d5f803e3d5ffd5b505050506040513d5f823e3d601f19601f82011682018060405250810190615eda919061a25c565b8094508195508296508397505050505092959194509250565b5f805f9054906101000a900473ffffffffffffffffffffffffffffffffffffffff16905090565b615f2e67785da34758286c9f60c01b61699d565b615f426714063b9a4209c13160c01b61699d565b615f56671dbd95c5e277c0a560c01b61699d565b615f6a6791aba0ece19d0d8c60c01b61699d565b7f000000000000000000000000000000000000000000000000000000000000000073ffffffffffffffffffffffffffffffffffffffff166391d148547f0000000000000000000000000000000000000000000000000000000000000000615fcf6173a0565b6040518363ffffffff1660e01b8152600401615fec929190619f7f565b602060405180830381865afa158015616007573d5f803e3d5ffd5b505050506040513d601f19601f8201168201806040525081019061602b9190619fac565b61607557616043672e2db09ccb30cc1360c01b61699d565b6040517fc183bcef00000000000000000000000000000000000000000000000000000000815260040160405180910390fd5b61608967b80d0c1de0a3144c60c01b61699d565b61609d67d0e2797d0b2d9cbb60c01b61699d565b6160b16751527da17a71632560c01b61699d565b6160c567e05a681de34a274560c01b61699d565b6160d9672b07b749a7015a2560c01b61699d565b6160ed679fd8072aa6e3162060c01b61699d565b600560089054906101000a900467ffffffffffffffff1667ffffffffffffffff168167ffffffffffffffff16106161645761613267217562acac8a693260c01b61699d565b6040517f7616640100000000000000000000000000000000000000000000000000000000815260040160405180910390fd5b616178678db1c0f8cbd8476160c01b61699d565b61618c672e4d5dda46eb167460c01b61699d565b6161a0677861ba148dd4677760c01b61699d565b8067ffffffffffffffff1660055f9054906101000a900467ffffffffffffffff1667ffffffffffffffff167fc14524dbf6dcb0f48ded31a41c202c3dca437c6c5bc3cc6138e880cfed08370360405160405180910390a361620b671ff4e899354733a460c01b61699d565b8060055f6101000a81548167ffffffffffffffff021916908367ffffffffffffffff16021790555050565b5f61624b679441e2d01e80075160c01b61699d565b61625f67ec8657054fed2bd160c01b61699d565b616273671d3293bba10352e560c01b61699d565b6003838154811061628757616286619928565b5b905f5260205f2090600b02016009015f8373ffffffffffffffffffffffffffffffffffffffff1673ffffffffffffffffffffffffffffffffffffffff1681526020019081526020015f205f9054906101000a900463ffffffff16905092915050565b600560109054906101000a900463ffffffff1681565b5f616314672d47b1811b61e44860c01b61699d565b6163286757ebc70cc1ed44ba60c01b61699d565b61633c670dfd036fab028c5c60c01b61699d565b6163656003848154811061635357616352619928565b5b905f5260205f2090600b020183617ede565b905092915050565b6003818154811061637c575f80fd5b905f5260205f2090600b02015f91509050805f015f9054906101000a900463ffffffff1690805f0160049054906101000a900463ffffffff1690805f0160089054906101000a900463ffffffff1690805f01600c9054906101000a90046bffffffffffffffffffffffff1690805f0160189054906101000a900463ffffffff1690805f01601c9054906101000a900463ffffffff1690806001015f9054906101000a900463ffffffff16908060010160049054906101000a900460ff16908060010160059054906101000a900460ff16908060010160069054906101000a900460ff16908060010160079054906101000a900460ff16908060010160089054906101000a900473ffffffffffffffffffffffffffffffffffffffff1690806002016040518060a00160405290815f82015f9054906101000a900473ffffffffffffffffffffffffffffffffffffffff1673ffffffffffffffffffffffffffffffffffffffff1673ffffffffffffffffffffffffffffffffffffffff1681526020016001820154815260200160028201548152602001600382015f9054906101000a900460ff1660058111156165345761653361926f565b5b60058111156165465761654561926f565b5b815260200160048201805461655a90619dcf565b80601f016020809104026020016040519081016040528092919081815260200182805461658690619dcf565b80156165d15780601f106165a8576101008083540402835291602001916165d1565b820191905f5260205f20905b8154815290600101906020018083116165b457829003601f168201915b50505050508152505090508d565b5f63f23a6e6160e01b905095945050505050565b616607675cd1911bc2f46cf060c01b61699d565b61661b6714063b9a4209c13160c01b61699d565b61662f671dbd95c5e277c0a560c01b61699d565b6166436791aba0ece19d0d8c60c01b61699d565b7f000000000000000000000000000000000000000000000000000000000000000073ffffffffffffffffffffffffffffffffffffffff166391d148547f00000000000000000000000000000000000000000000000000000000000000006166a86173a0565b6040518363ffffffff1660e01b81526004016166c5929190619f7f565b602060405180830381865afa1580156166e0573d5f803e3d5ffd5b505050506040513d601f19601f820116820180604052508101906167049190619fac565b61674e5761671c672e2db09ccb30cc1360c01b61699d565b6040517fc183bcef00000000000000000000000000000000000000000000000000000000815260040160405180910390fd5b61676267b80d0c1de0a3144c60c01b61699d565b61677667d0e2797d0b2d9cbb60c01b61699d565b61678a67ed5128b93c50151d60c01b61699d565b61679e679053b2599b3f921b60c01b61699d565b6167b267bf166dcec228cb7060c01b61699d565b6167c6677d0c1a9da9fbf80260c01b61699d565b60055f9054906101000a900467ffffffffffffffff1667ffffffffffffffff168167ffffffffffffffff161161683c5761680a67c6a75f318f248e1460c01b61699d565b6040517f7616640100000000000000000000000000000000000000000000000000000000815260040160405180910390fd5b616850677c3dea61307048a160c01b61699d565b6168646756161a48f3a8666760c01b61699d565b616878677ce1cf8f0b64998860c01b61699d565b8067ffffffffffffffff16600560089054906101000a900467ffffffffffffffff1667ffffffffffffffff167f48752fb030a2abe76f2d8d8681d69fa9de4ec037bb3d50f9e6b81672a8fda7bb60405160405180910390a36168e467b8e749575321fcb760c01b61699d565b80600560086101000a81548167ffffffffffffffff021916908367ffffffffffffffff16021790555050565b7f000000000000000000000000000000000000000000000000000000000000000081565b5f7f01ffc9a7000000000000000000000000000000000000000000000000000000007bffffffffffffffffffffffffffffffffffffffffffffffffffffffff1916827bffffffffffffffffffffffffffffffffffffffffffffffffffffffff1916149050919050565b50565b5f6169b5679f348da8f2729cf860c01b61699d565b6169c9674e3a5e17972618f460c01b61699d565b6169dd677dc6b155c837c18c60c01b61699d565b5f8363ffffffff1603616a30576169fe6723a16d03cdb91d5c60c01b61699d565b6040517fb405724900000000000000000000000000000000000000000000000000000000815260040160405180910390fd5b616a4467c68a0fc8d69f84b360c01b61699d565b616a5867067cee4da104f62560c01b61699d565b616a6c67d30fd858f58f0cd360c01b61699d565b5f60038581548110616a8157616a80619928565b5b905f5260205f2090600b02019050616aa3678a39f1459c89b8f860c01b61699d565b616ab767b1ff563200e5735060c01b61699d565b5f815f015f9054906101000a900463ffffffff169050616ae16780a7410e0b23ac0e60c01b61699d565b616af567e649592c2aa5c98460c01b61699d565b5f8163ffffffff1603616b5357616b166774cb22523a5d0a9860c01b61699d565b856040517fc87c1641000000000000000000000000000000000000000000000000000000008152600401616b4a9190619546565b60405180910390fd5b616b6767fd13982babe4db7160c01b61699d565b616b7b679a51ad1285a850b560c01b61699d565b616b8f67b64f67f8d4a98cdb60c01b61699d565b5f825f0160089054906101000a900463ffffffff169050616bba67c9b85b4ecca7477860c01b61699d565b616bce67820a70f7bd45ffab60c01b61699d565b5f8187616bdb919061a33d565b9050616bf167a5721a1f4e922a9a60c01b61699d565b616c05678f4cfaa9529fa78660c01b61699d565b8263ffffffff168163ffffffff161115616c5f57616c2d67a3799c5171630c8460c01b61699d565b6040517ffd0e37de00000000000000000000000000000000000000000000000000000000815260040160405180910390fd5b616c736722f4b803bed7c62c60c01b61699d565b616c8767db1c4010bc086db160c01b61699d565b616c9b673e8886622a37dd0e60c01b61699d565b835f01601c9054906101000a900463ffffffff1663ffffffff16421115616d0d57616cd067cacbb8c65be720e660c01b61699d565b876040517f6250c2b4000000000000000000000000000000000000000000000000000000008152600401616d049190619546565b60405180910390fd5b616d2167f432c76e2a1c803f60c01b61699d565b616d35671632140f8d15252660c01b61699d565b616d4967eb6381254efdd3b660c01b61699d565b616d5d67495de18f95d7dcbf60c01b61699d565b5f616d726749355730be6acd0460c01b61699d565b616d86676a90a15e53204b8160c01b61699d565b616d9a67ee46e1a7ca24656260c01b61699d565b5f8463ffffffff166004028963ffffffff168a63ffffffff160281616dc257616dc1619fd5565b5b049050616dd967ecb15745655ed72260c01b61699d565b80915050616df16729f9fd9683148dd460c01b61699d565b616e05670f195b583b80edf960c01b61699d565b5f855f0160049054906101000a900463ffffffff169050616e30674e3296af7945b46c60c01b61699d565b616e4467a27df87f9e512f9d60c01b61699d565b5f8282019050616e5e67be8fb2ba84c675b760c01b61699d565b80875f0160046101000a81548163ffffffff021916908363ffffffff160217905550616e9467fe6ccee2e2002bf260c01b61699d565b616ea867c51db82f7072a33560c01b61699d565b5f876009015f8b73ffffffffffffffffffffffffffffffffffffffff1673ffffffffffffffffffffffffffffffffffffffff1681526020019081526020015f205f9054906101000a900463ffffffff168b019050616f106785a277b8ef6d155160c01b61699d565b8388600a015f8c73ffffffffffffffffffffffffffffffffffffffff1673ffffffffffffffffffffffffffffffffffffffff1681526020019081526020015f205f8282829054906101000a900463ffffffff160192506101000a81548163ffffffff021916908363ffffffff160217905550616f966742e509fe6ae0e2c660c01b61699d565b80886009015f8c73ffffffffffffffffffffffffffffffffffffffff1673ffffffffffffffffffffffffffffffffffffffff1681526020019081526020015f205f6101000a81548163ffffffff021916908363ffffffff1602179055506170076784a4273d76d83a2a60c01b61699d565b84885f0160086101000a81548163ffffffff021916908363ffffffff16021790555061703d6704ae9ae66c20c8cd60c01b61699d565b61705167ed43cbab010a7a0560c01b61699d565b5f885f0160189054906101000a900463ffffffff16905061707c673a4f94f36aa4b80560c01b61699d565b8a896008015f8363ffffffff1663ffffffff1681526020019081526020015f205f6101000a81548173ffffffffffffffffffffffffffffffffffffffff021916908373ffffffffffffffffffffffffffffffffffffffff1602179055506170ed679e5172cf141d401f60c01b61699d565b828601896007015f8363ffffffff1663ffffffff1681526020019081526020015f205f6101000a81548163ffffffff021916908363ffffffff160217905550617140673da65d72a7b6cf8360c01b61699d565b80600101905080895f0160186101000a81548163ffffffff021916908363ffffffff16021790555061717c67953a37c4d9f147f960c01b61699d565b617190678827721d6c22f15460c01b61699d565b8763ffffffff168663ffffffff16036172bd576171b767a22eeb5d4358594b60c01b61699d565b6171cb673df9af2b3dd9dbdb60c01b61699d565b42895f01601c6101000a81548163ffffffff021916908363ffffffff16021790555061720167efd89de000cd7b1f60c01b61699d565b60018960010160046101000a81548160ff021916908315150217905550617232673d9d74258559044960c01b61699d565b6172466714ec2a94b8e8e86360c01b61699d565b8763ffffffff168263ffffffff16036172a35761726d673549d8d4d2714b7960c01b61699d565b61728167cd5234bdcc7199b560c01b61699d565b60018960010160056101000a81548160ff0219169083151502179055506172b8565b6172b767436353109a7d436e60c01b61699d565b5b6172d2565b6172d167cfb83c83ffaed52160c01b61699d565b5b6172e667cfa5dbbf6251b30b60c01b61699d565b8b63ffffffff16895f01600c9054906101000a90046bffffffffffffffffffffffff16029950617320670b2f18fb0b06750f60c01b61699d565b61733467465ef1b8ef408a8760c01b61699d565b83870163ffffffff168b73ffffffffffffffffffffffffffffffffffffffff168e7f8772ec5268199c7b7dbfea9344db6e4dcdf075620f23f073c29aa98a7678356d8f8e8a6040516173889392919061a364565b60405180910390a45050505050505050509392505050565b5f60145f369050101580156173ba57506173b93361218d565b5b156173ce57601436033560601c90506173d2565b3390505b90565b617458846323b872dd60e01b8585856040516024016173f69392919061a39a565b604051602081830303815290604052907bffffffffffffffffffffffffffffffffffffffffffffffffffffffff19166020820180517bffffffffffffffffffffffffffffffffffffffffffffffffffffffff8381831617835250505050618620565b50505050565b5f7f000000000000000000000000000000000000000000000000000000000000000073ffffffffffffffffffffffffffffffffffffffff163073ffffffffffffffffffffffffffffffffffffffff161480156174d957507f000000000000000000000000000000000000000000000000000000000000000046145b15617506577f00000000000000000000000000000000000000000000000000000000000000009050617511565b61750e6186e6565b90505b90565b5f61752967bba37af2f458306b60c01b61699d565b61753d6745e3556bccecd3f060c01b61699d565b61755167b3722a90fb2a1db360c01b61699d565b60055f9054906101000a900467ffffffffffffffff1667ffffffffffffffff168260400160208101906175849190619464565b63ffffffff1610156175f6576175a4679a430669cd306bd760c01b61699d565b60055f9054906101000a900467ffffffffffffffff166040517f0c3aad970000000000000000000000000000000000000000000000000000000081526004016175ed9190619170565b60405180910390fd5b61760a67fcfe881762e7efe160c01b61699d565b61761e67a6f735dc6d809c8760c01b61699d565b61763267140c097775d97d7760c01b61699d565b600560089054906101000a900467ffffffffffffffff1667ffffffffffffffff168260400160208101906176669190619464565b63ffffffff1611156176d95761768667ed504a4bc5e3d97160c01b61699d565b600560089054906101000a900467ffffffffffffffff166040517fa78341a20000000000000000000000000000000000000000000000000000000081526004016176d09190619170565b60405180910390fd5b6176ed6732fc0eee691c066960c01b61699d565b617701671000ef5cb327064a60c01b61699d565b61771567e0b3123092667ff260c01b61699d565b5f825f0160208101906177289190619464565b63ffffffff16036177795761774767fe494e499103300960c01b61699d565b6040517f8a28b1c100000000000000000000000000000000000000000000000000000000815260040160405180910390fd5b61778d67eb84feb87170269660c01b61699d565b6177a1679b67979a09a4bb5260c01b61699d565b6177b567f3ed60cecedd5dd560c01b61699d565b633b9aca00825f0160208101906177cc9190619464565b63ffffffff16111561781e576177ec671249e3741d44e13a60c01b61699d565b6040517f6eb9daa600000000000000000000000000000000000000000000000000000000815260040160405180910390fd5b61783267d79e5ea553c04a5a60c01b61699d565b617846673f18f7d4fdd9462760c01b61699d565b61785a6710f8bebe8f1a88f260c01b61699d565b5f82602001602081019061786e919061a3d2565b6bffffffffffffffffffffffff16036178c757617895670524e360d3a7513e60c01b61699d565b6040517f1d133e9000000000000000000000000000000000000000000000000000000000815260040160405180910390fd5b6178db67238d0d0418d30cf860c01b61699d565b6178ef671df94cf2f4dbb41a60c01b61699d565b617903676859e874b3b92fec60c01b61699d565b5f73ffffffffffffffffffffffffffffffffffffffff1682606001602081019061792d91906191e1565b73ffffffffffffffffffffffffffffffffffffffff160361798e5761795c6759fa4426c0f728fb60c01b61699d565b6040517f49e27cff00000000000000000000000000000000000000000000000000000000815260040160405180910390fd5b6179a267894057fba99524d860c01b61699d565b6179b667082f828302fdd5a760c01b61699d565b6179ca6774d153b79c626d6460c01b61699d565b6402540be4126bffffffffffffffffffffffff16825f0160208101906179f09190619464565b63ffffffff16836020016020810190617a09919061a3d2565b617a13919061a3f7565b6bffffffffffffffffffffffff161115617a6d57617a3b677b1898057b33173e60c01b61699d565b6040517fba7848b900000000000000000000000000000000000000000000000000000000815260040160405180910390fd5b617a81671f9ded6663ad189e60c01b61699d565b617a95676712aca6fdcb51bb60c01b61699d565b6003805490509050617ab16767e0cead60a84e9560c01b61699d565b617ac567cdc3404e826b13a560c01b61699d565b5f600360018160018154018082558091505003905f5260205f2090600b02019050617afa6711ae4dbcbe8617a860c01b61699d565b83816002018181617b0b919061a5bb565b905050617b22676e42c526b3f4a71160c01b61699d565b826060016020810190617b3591906191e1565b8160010160086101000a81548173ffffffffffffffffffffffffffffffffffffffff021916908373ffffffffffffffffffffffffffffffffffffffff160217905550617b8b677c97df2522c309c660c01b61699d565b825f016020810190617b9d9190619464565b815f015f6101000a81548163ffffffff021916908363ffffffff160217905550617bd1671e49e44843907c8e60c01b61699d565b826020016020810190617be4919061a3d2565b815f01600c6101000a8154816bffffffffffffffffffffffff02191690836bffffffffffffffffffffffff160217905550617c29674699041827aded4560c01b61699d565b600560109054906101000a900463ffffffff16816001015f6101000a81548163ffffffff021916908363ffffffff160217905550617c71675c5010fefa8149e760c01b61699d565b617c8567bacc33fca021dbe360c01b61699d565b617c996784ea4791cc24584e60c01b61699d565b5f836040016020810190617cad9190619464565b42019050617cc5671996dd5347d0e99f60c01b61699d565b80825f01601c6101000a81548163ffffffff021916908363ffffffff160217905550617cfb677895de5afb2674ef60c01b61699d565b617d0f67fcc61894f69a9e9e60c01b61699d565b836060016020810190617d2291906191e1565b73ffffffffffffffffffffffffffffffffffffffff16837f013797a4dd0d3bd8e7e0388aa58492f147542bff18ec424a1bac5729f8a2c1ce87875f016020810190617d6d9190619464565b886020016020810190617d80919061a3d2565b86604051617d91949392919061a6b0565b60405180910390a3505092915050565b5f60019050919050565b617e2c8363a9059cbb60e01b8484604051602401617dca92919061a768565b604051602081830303815290604052907bffffffffffffffffffffffffffffffffffffffffffffffffffffffff19166020820180517bffffffffffffffffffffffffffffffffffffffffffffffffffffffff8381831617835250505050618620565b505050565b606060ff5f1b8314617e4d57617e468361877b565b9050617ed8565b818054617e5990619dcf565b80601f0160208091040260200160405190810160405280929190818152602001828054617e8590619dcf565b8015617ed05780601f10617ea757610100808354040283529160200191617ed0565b820191905f5260205f20905b815481529060010190602001808311617eb357829003601f168201915b505050505090505b92915050565b5f617ef3679d3eb123dc2c306160c01b61699d565b617f076778f975e2f378904360c01b61699d565b617f1b67e9e7b7b2294ccd6060c01b61699d565b5f835f0160189054906101000a900463ffffffff169050617f4667b84c988d2ba2e61f60c01b61699d565b617f5a67b01470f12c8181e260c01b61699d565b617f6e675888fded9ed65add60c01b61699d565b5f8163ffffffff16148015617f935750617f9267810d02d18451bf2660c01b617da1565b5b80617ff75750836007015f6001830363ffffffff1663ffffffff1681526020019081526020015f205f9054906101000a900463ffffffff1663ffffffff168363ffffffff1610158015617ff65750617ff567aaf5e194bc495a3760c01b617da1565b5b5b156180415761801067363926ac9635099560c01b61699d565b618024671989e1430abb4a6e60c01b61699d565b618038672810c7c8445c546460c01b61699d565b5f915050618246565b6180556723898c663f0ba0d260c01b61699d565b618069678ef741f397b1820760c01b61699d565b61807d67f903221605f89f9a60c01b61699d565b5f61809267dc814806315f972660c01b61699d565b6180a667ed4be0867c6ea28a60c01b61699d565b5b8163ffffffff168163ffffffff1610156181da576180cf67166aeedf0cd0bac860c01b61699d565b6180e36794cda1b3188fe76e60c01b61699d565b5f60028383186180f3919061a795565b838316618100919061a33d565b905061811667b9e6e5e9f27bd92a60c01b61699d565b61812a67ba3fb78a04f320a760c01b61699d565b8463ffffffff16866007015f8363ffffffff1663ffffffff1681526020019081526020015f205f9054906101000a900463ffffffff1663ffffffff16111561819c57618180676cc6ec5ebfd5af0060c01b61699d565b6181946744caaa540c204a7760c01b61699d565b8092506181d4565b6181b0676e2b5a5528f62f7060c01b61699d565b6181c467cf2637e6cf353c0060c01b61699d565b6001816181d1919061a33d565b91505b506180a7565b6181ee67b3780ae47ac2bb1e60c01b61699d565b618202670b6eceac10c7b7f260c01b61699d565b846008015f8263ffffffff1663ffffffff1681526020019081526020015f205f9054906101000a900473ffffffffffffffffffffffffffffffffffffffff16925050505b92915050565b50565b5f61826467af2a87b2f7e9f4a560c01b61699d565b61827867dcd3a587b5e0c80660c01b61699d565b61828c674724e7467d03192460c01b61699d565b5f807f000000000000000000000000000000000000000000000000000000000000000073ffffffffffffffffffffffffffffffffffffffff1663f533b8028989896040518463ffffffff1660e01b81526004016182eb9392919061a7df565b5f604051808303815f875af1158015618306573d5f803e3d5ffd5b505050506040513d5f823e3d601f19601f8201168201806040525081019061832e919061a891565b9150915061834667a6c0acc3a3dc51a760c01b61699d565b61835a677d858c2e711a713060c01b61699d565b5f5b82518110156186145761837967f488f0fc37e4850c60c01b61699d565b61838d6757fd7766e05528fa60c01b61699d565b5f8282815181106183a1576183a0619928565b5b602002602001015190506183bf67bc309d1740da41ae60c01b61699d565b6183d3674e34775b59e4e19160c01b61699d565b5f73ffffffffffffffffffffffffffffffffffffffff168483815181106183fd576183fc619928565b5b602002602001015173ffffffffffffffffffffffffffffffffffffffff161415801561846f57508673ffffffffffffffffffffffffffffffffffffffff1684838151811061844e5761844d619928565b5b602002602001015173ffffffffffffffffffffffffffffffffffffffff1614155b801561848957505f816bffffffffffffffffffffffff1614155b156185df576184a267c1599f647961433d60c01b61699d565b6184b667878e67ef934eab5460c01b61699d565b6184ca670cc7c832249edc4760c01b61699d565b61851d8483815181106184e0576184df619928565b5b6020026020010151826bffffffffffffffffffffffff168873ffffffffffffffffffffffffffffffffffffffff16617dab9092919063ffffffff16565b61853167f3d1b13b17b9c8e160c01b61699d565b618545674b6bcd03907487d960c01b61699d565b808501945061855e674891948c69f5c38860c01b61699d565b61857267390b11de9b75069060c01b61699d565b83828151811061858557618584619928565b5b602002602001015173ffffffffffffffffffffffffffffffffffffffff167fd5a02d893cdcfe3f25286206f6f6592510f6a8f56272801f6c28d347625f317e826040516185d29190618dc7565b60405180910390a26185f4565b6185f36724e5a38ba9ede56160c01b61699d565b5b6186086713dc5f97a7509e4260c01b61699d565b8160010191505061835c565b50505095945050505050565b5f618681826040518060400160405280602081526020017f5361666545524332303a206c6f772d6c6576656c2063616c6c206661696c65648152508573ffffffffffffffffffffffffffffffffffffffff166187ed9092919063ffffffff16565b90505f815114806186a25750808060200190518101906186a19190619fac565b5b6186e1576040517f08c379a00000000000000000000000000000000000000000000000000000000081526004016186d89061a95c565b60405180910390fd5b505050565b5f7f8b73c3c69bb8fe3d512ecc4cf759cc79239f7b179b0ffacaa9a75d522b39400f7f00000000000000000000000000000000000000000000000000000000000000007f0000000000000000000000000000000000000000000000000000000000000000463060405160200161876095949392919061a9bf565b60405160208183030381529060405280519060200120905090565b60605f61878783618804565b90505f602067ffffffffffffffff8111156187a5576187a4618b0f565b5b6040519080825280601f01601f1916602001820160405280156187d75781602001600182028036833780820191505090505b5090508181528360208201528092505050919050565b60606187fb84845f85618852565b90509392505050565b5f8060ff835f1c169050601f811115618849576040517fb3512b0c00000000000000000000000000000000000000000000000000000000815260040160405180910390fd5b80915050919050565b606082471015618897576040517f08c379a000000000000000000000000000000000000000000000000000000000815260040161888e9061aa01565b60405180910390fd5b5f808673ffffffffffffffffffffffffffffffffffffffff1685876040516188bf919061aa64565b5f6040518083038185875af1925050503d805f81146188f9576040519150601f19603f3d011682016040523d82523d5f602084013e6188fe565b606091505b509150915061890f8783838761891b565b92505050949350505050565b6060831561897c575f835103618974576189348561898f565b618973576040517f08c379a000000000000000000000000000000000000000000000000000000000815260040161896a9061aa81565b60405180910390fd5b5b829050618987565b61898683836189b1565b5b949350505050565b5f808273ffffffffffffffffffffffffffffffffffffffff163b119050919050565b5f825111156189c35781518083602001fd5b806040517f08c379a00000000000000000000000000000000000000000000000000000000081526004016189f7919061aabe565b60405180910390fd5b508054618a0c90619dcf565b5f825580601f10618a1d5750618a3a565b601f0160209004905f5260205f2090810190618a399190618a90565b5b50565b6040518060a001604052805f73ffffffffffffffffffffffffffffffffffffffff1681526020015f81526020015f81526020015f6005811115618a8357618a8261926f565b5b8152602001606081525090565b5b80821115618aa7575f815f905550600101618a91565b5090565b5f60208284031215618abb575f80fd5b81357fffffffff0000000000000000000000000000000000000000000000000000000081168114618aea575f80fd5b8091505092915050565b80151582525050565b5f602082019050821515825292915050565b7f4e487b71000000000000000000000000000000000000000000000000000000005f52604160045260245ffd5b5f604051905060a0810181811067ffffffffffffffff82111715618b6357618b62618b0f565b5b806040525090565b5f60405190507fffffffffffffffffffffffffffffffffffffffffffffffffffffffffffffffe0601f830116810181811067ffffffffffffffff82111715618bb657618bb5618b0f565b5b8060405250919050565b5f67ffffffffffffffff821115618bda57618bd9618b0f565b5b60208260051b019050919050565b5f82601f830112618bf7575f80fd5b81356020618c0c618c0783618bc0565b618b6b565b808382528282019150828460051b870101935086841115618c2b575f80fd5b8286015b84811015618c4a578035835283830192508381019050618c2f565b508094505050505092915050565b5f8083601f840112618c68575f80fd5b8235905067ffffffffffffffff811115618c80575f80fd5b6020830191508360208260051b8501011115618c9a575f80fd5b9250929050565b73ffffffffffffffffffffffffffffffffffffffff81168114618cc2575f80fd5b50565b5f81359050618cd381618ca1565b919050565b5f8083601f840112618ce8575f80fd5b8235905067ffffffffffffffff811115618d00575f80fd5b602083019150836020828501011115618d17575f80fd5b9250929050565b5f805f805f8060808789031215618d33575f80fd5b863567ffffffffffffffff80821115618d4a575f80fd5b618d568a838b01618be8565b97506020890135915080821115618d6b575f80fd5b618d778a838b01618c58565b92508097505081955060408901359150618d9082618ca1565b8194506060890135915080821115618da6575f80fd5b50618db389828a01618cd8565b915080935050809150509295509295509295565b5f6020820190506bffffffffffffffffffffffff8316825292915050565b5f67ffffffffffffffff821115618dff57618dfe618b0f565b5b60207fffffffffffffffffffffffffffffffffffffffffffffffffffffffffffffffe0601f840116019050919050565b5f82601f830112618e3e575f80fd5b8135618e51618e4c82618de5565b618b6b565b818152846020838601011115618e65575f80fd5b816020850160208301375f60208383010152809250505092915050565b5f805f8060808587031215618e95575f80fd5b8435618ea081618ca1565b809450506020850135618eb281618ca1565b8093505060408501359150606085013567ffffffffffffffff811115618ed6575f80fd5b618ee287828801618e2f565b91505092959194509250565b5f6020820190507fffffffff000000000000000000000000000000000000000000000000000000008316825292915050565b5f805f805f805f805f60a08a8c031215618f38575f80fd5b893567ffffffffffffffff80821115618f4f575f80fd5b618f5b8d838e01618c58565b9250809b505081995060208c0135915080821115618f77575f80fd5b618f838d838e01618c58565b92508099505081975060408c0135915080821115618f9f575f80fd5b618fab8d838e01618c58565b92508097505081955060608c01359150618fc482618ca1565b81945060808c0135915080821115618fda575f80fd5b50618fe78c828d01618cd8565b915080935050809150509295985092959850929598565b5f8151808452602080850194508084015f5b83811015619031578151875282870196508282019150600181019050619010565b5050505082905092915050565b604081525f6190506040830185618ffe565b90506bffffffffffffffffffffffff831660208301529392505050565b5f806040838503121561907e575f80fd5b82359150602083013561909081618ca1565b809150509250929050565b63ffffffff811682525050565b5f60208201905063ffffffff8316825292915050565b5f805f80604085870312156190d1575f80fd5b843567ffffffffffffffff808211156190e8575f80fd5b6190f488838901618c58565b9250809650508194506020870135915080821115619110575f80fd5b5061911d87828801618c58565b9150809350508091505092959194509250565b602081525f6191426020830184618ffe565b905092915050565b5f60208201905073ffffffffffffffffffffffffffffffffffffffff8316825292915050565b5f60208201905067ffffffffffffffff8316825292915050565b5f805f6040848603121561919c575f80fd5b833567ffffffffffffffff8111156191b2575f80fd5b6191be86828701618c58565b9150809450508092505060208401356191d681618ca1565b809150509250925092565b5f602082840312156191f1575f80fd5b81356191fc81618ca1565b8091505092915050565b5f60208201905073ffffffffffffffffffffffffffffffffffffffff8316825292915050565b73ffffffffffffffffffffffffffffffffffffffff811682525050565b5f60208201905073ffffffffffffffffffffffffffffffffffffffff8316825292915050565b7f4e487b71000000000000000000000000000000000000000000000000000000005f52602160045260245ffd5b600681106192d1577f4e487b71000000000000000000000000000000000000000000000000000000005f52602160045260245ffd5b8082525050565b5f5b838110156192f55780820151818401526020810190506192da565b505f83830152505050565b5f81518084526193178160208601602086016192d8565b60207fffffffffffffffffffffffffffffffffffffffffffffffffffffffffffffffe0601f83011685010191505092915050565b73ffffffffffffffffffffffffffffffffffffffff815116825260208101516020830152604081015160408301525f606082015161938c606085018261929c565b50608082015160a060808501526193a660a0850182619300565b91505092915050565b5f81518084526020808501808196508360051b810191508286015f5b858110156193fa5782840389526193e384835161934b565b9350848201915084890198506001810190506193cb565b50505080935050505092915050565b602081525f61941b60208301846193af565b905092915050565b5f60208201905073ffffffffffffffffffffffffffffffffffffffff8316825292915050565b5f8135905063ffffffff8116811461945f575f80fd5b919050565b5f60208284031215619474575f80fd5b61947d82619449565b905092915050565b7fff000000000000000000000000000000000000000000000000000000000000008816815260e060208201525f6194bf60e0830189619300565b82810360408401526194d18189619300565b905086606084015273ffffffffffffffffffffffffffffffffffffffff861660808401528460a084015282810360c084015261950d8185618ffe565b91505098975050505050505050565b5f806040838503121561952d575f80fd5b8235915061953d60208401619449565b90509250929050565b5f60208201905082825292915050565b5f8060208385031215619567575f80fd5b823567ffffffffffffffff81111561957d575f80fd5b61958985828601618c58565b915080935050809150509250929050565b5f602080830181845280855180835260408601915060408160051b87010192508387015f5b82811015619610577fffffffffffffffffffffffffffffffffffffffffffffffffffffffffffffffc08886030184526195f9858351619300565b9450858201915085840193506001810190506195bf565b50505050809250505092915050565b5f805f805f60a08688031215619633575f80fd5b853561963e81618ca1565b80955050602086013561965081618ca1565b80945050604086013567ffffffffffffffff8082111561966e575f80fd5b61967a89838a01618be8565b9450606088013591508082111561968f575f80fd5b61969b89838a01618be8565b935060808801359150808211156196b0575f80fd5b506196bd88828901618e2f565b9150509295509295909350565b5f80604083850312156196db575f80fd5b823567ffffffffffffffff8111156196f1575f80fd5b808401905060408186031215619705575f80fd5b80925050602083013561971781618ca1565b809150509250929050565b608081525f61973460808301876193af565b905073ffffffffffffffffffffffffffffffffffffffff851660208301528360408301526bffffffffffffffffffffffff8316606083015295945050505050565b5f60208284031215619785575f80fd5b813567ffffffffffffffff8116811461979c575f80fd5b8091505092915050565b5f602082840312156197b6575f80fd5b8135905092915050565b63ffffffff8e16815263ffffffff8d16602082015263ffffffff8c1660408201526bffffffffffffffffffffffff8b166060820152619802608082018b61909b565b61980f60a082018a61909b565b61981c60c082018961909b565b61982960e0820188618af4565b619837610100820187618af4565b619845610120820186618af4565b619853610140820185618af4565b61986161016082018461922c565b6101a06101808201525f6198796101a083018461934b565b90509e9d5050505050505050505050505050565b5f805f805f60a086880312156198a1575f80fd5b85356198ac81618ca1565b8095505060208601356198be81618ca1565b809450506040860135925060608601359150608086013567ffffffffffffffff8111156198e9575f80fd5b6198f588828901618e2f565b9150509295509295909350565b5f60208201905073ffffffffffffffffffffffffffffffffffffffff8316825292915050565b7f4e487b71000000000000000000000000000000000000000000000000000000005f52603260045260245ffd5b7f4e487b71000000000000000000000000000000000000000000000000000000005f52601160045260245ffd5b5f6bffffffffffffffffffffffff808416818416019150808211156199aa576199a9619955565b5b5092915050565b5f805f805f60a086880312156199c5575f80fd5b8535945060208601359350604086013560ff811681146199e3575f80fd5b8093505060608601359150608086013590509295509295909350565b5f60e08201905073ffffffffffffffffffffffffffffffffffffffff808a16835280891660208401525086604083015285606083015260ff851660808301528360a08301528260c083015298975050505050505050565b5f6040820190506bffffffffffffffffffffffff8416825273ffffffffffffffffffffffffffffffffffffffff831660208301529392505050565b5f82357fffffffffffffffffffffffffffffffffffffffffffffffffffffffffffffff61833603018112619ac3575f80fd5b80830191505092915050565b60068110619adb575f80fd5b50565b5f60a08236031215619aee575f80fd5b619af6618b3c565b8235619b0181618ca1565b8082525060208301356020820152604083013560408201526060830135619b2781619acf565b80606083015250608083013567ffffffffffffffff811115619b47575f80fd5b619b5336828601618e2f565b60808301525080915050919050565b5f82357fffffffffffffffffffffffffffffffffffffffffffffffffffffffffffffff41833603018112619b94575f80fd5b80830191505092915050565b6bffffffffffffffffffffffff81168114619bb9575f80fd5b50565b5f8083357fffffffffffffffffffffffffffffffffffffffffffffffffffffffffffffffe1843603018112619bef575f80fd5b8381019050803591506020810192505067ffffffffffffffff811115619c13575f80fd5b803603821315619c21575f80fd5b9250929050565b81835281816020850137505f602082840101525f60207fffffffffffffffffffffffffffffffffffffffffffffffffffffffffffffffe0601f840116840101905092915050565b60a081525f619c8160a083018861934b565b828103602084015263ffffffff80619c9889619449565b1682526020880135619ca981619ba0565b6bffffffffffffffffffffffff811660208401525080619ccb60408a01619449565b166040830152506060870135619ce081618ca1565b73ffffffffffffffffffffffffffffffffffffffff8116606083015250619d0960808801618cc5565b619d16608083018261922c565b50619d2460a0880188619bbc565b60c060a0840152619d3960c084018284619c28565b9350505050619d4b604083018661922c565b836060830152619d5e608083018461922c565b9695505050505050565b5f8060408385031215619d79575f80fd5b8251619d8481618ca1565b80925050602083015190509250929050565b5f60208201905063ffffffff8316825292915050565b5f8060408385031215619dbd575f80fd5b82519150602083015190509250929050565b5f8160011c90506001821680619de657607f821691505b602082108103619e1d577f4e487b71000000000000000000000000000000000000000000000000000000005f52602260045260245ffd5b50919050565b606081525f619e35606083018661934b565b905073ffffffffffffffffffffffffffffffffffffffff8085166020840152808416604084015250949350505050565b5f60a08284031215619e75575f80fd5b619e7d618b3c565b90508151619e8a81618ca1565b8082525060208201516020820152604082015160408201526060820151619eb081619acf565b80606083015250608082015167ffffffffffffffff811115619ed0575f80fd5b808301905083601f820112619ee3575f80fd5b8051619ef6619ef182618de5565b618b6b565b818152856020838501011115619f0a575f80fd5b619f1b8260208301602086016192d8565b80608085015250505092915050565b5f60208284031215619f3a575f80fd5b815167ffffffffffffffff811115619f50575f80fd5b619f5c84828501619e65565b91505092915050565b602081525f619f77602083018461934b565b905092915050565b5f60408201905083825273ffffffffffffffffffffffffffffffffffffffff831660208301529392505050565b5f60208284031215619fbc575f80fd5b81518015158114619fcb575f80fd5b8091505092915050565b7f4e487b71000000000000000000000000000000000000000000000000000000005f52601260045260245ffd5b5f8083357fffffffffffffffffffffffffffffffffffffffffffffffffffffffffffffffe184360301811261a035575f80fd5b80840190508035915067ffffffffffffffff82111561a052575f80fd5b6020810192505080360382131561a067575f80fd5b9250929050565b818382375f8282015f8152809150509392505050565b5f604080835261a0948586619bbc565b828386015261a0a7608086018284619c28565b9150506020808701357fffffffffffffffffffffffffffffffffffffffffffffffffffffffffffffffe188360301811261a0df575f80fd5b8781019050803582820167ffffffffffffffff82111561a0fd575f80fd5b8160051b80360382131561a10f575f80fd5b7fffffffffffffffffffffffffffffffffffffffffffffffffffffffffffffffc08987030160608a0152858387528587019050858288010191505f807fffffffffffffffffffffffffffffffffffffffffffffffffffffffffffffffa1873603015b8682101561a215577fffffffffffffffffffffffffffffffffffffffffffffffffffffffffffffffe08a8603018452853581811261a1ad578384fd5b8881019050898101803561a1c081618ca1565b73ffffffffffffffffffffffffffffffffffffffff811688525061a1e68d830182619bbc565b925090508c8b88015261a1fc8d88018383619c28565b965050508886019550888401935060018201915061a171565b505050508097505050505061a22c8186018761922c565b5050509392505050565b5f8151905061a24481618ca1565b919050565b5f8151905061a25781619ba0565b919050565b5f805f806080858703121561a26f575f80fd5b845167ffffffffffffffff8082111561a286575f80fd5b818701915087601f83011261a299575f80fd5b8151602061a2ae61a2a983618bc0565b618b6b565b808382528282019150828460051b87010193508b84111561a2cd575f80fd5b8286015b8481101561a3085780518681111561a2e8575f8081fd5b61a2f68e86838b0101619e65565b8452508383019250838101905061a2d1565b50809950505061a319818a0161a236565b9650505050506040850151915061a3326060860161a249565b905092959194509250565b5f63ffffffff8084168184160191508082111561a35d5761a35c619955565b5b5092915050565b5f60608201905063ffffffff80861683526bffffffffffffffffffffffff85166020840152808416604084015250949350505050565b5f60608201905073ffffffffffffffffffffffffffffffffffffffff8086168352808516602084015250826040830152949350505050565b5f6020828403121561a3e2575f80fd5b813561a3ed81619ba0565b8091505092915050565b5f6bffffffffffffffffffffffff80841681841602818116925080831461a4215761a420619955565b5b505092915050565b805f52505f60205f20905090565b601f82111561a484575f81815260208120601f850160051c8101602086101561a45e578190505b601f850160051c820191505b8181101561a4805782815560018101905061a46a565b5050505b505050565b5f8260011b7fffffffffffffffffffffffffffffffffffffffffffffffffffffffffffffffff8460031b1c19831617905092915050565b67ffffffffffffffff83111561a4d95761a4d8618b0f565b5b61a4ed8361a4e78354619dcf565b8361a437565b5f601f84116001811461a51a575f851561a508578285013590505b61a512868261a489565b84555061a5b4565b7fffffffffffffffffffffffffffffffffffffffffffffffffffffffffffffffe0851661a5468461a429565b835b8281101561a56d5784870135825560018201915060208501945060208101905061a548565b508682101561a5a8577fffffffffffffffffffffffffffffffffffffffffffffffffffffffffffffffff60f88860031b161c19848701351681555b505060018560011b0183555b5050505050565b813561a5c681618ca1565b73ffffffffffffffffffffffffffffffffffffffff81167fffffffffffffffffffffffff000000000000000000000000000000000000000083541617825550602082013560018201556040820135600282015560038101606083013561a62b81619acf565b6006811061a660577f4e487b71000000000000000000000000000000000000000000000000000000005f52602160045260245ffd5b7fffffffffffffffffffffffffffffffffffffffffffffffffffffffffffffff0082541660ff82168117835550505061a69c608083018361a002565b61a6aa81836004860161a4c0565b50505050565b608081525f853561a6c081618ca1565b73ffffffffffffffffffffffffffffffffffffffff8116608084015250602086013560a0830152604086013560c0830152606086013561a6ff81619acf565b61a70c60e084018261929c565b5061a71a6080870187619bbc565b60a061010085015261a73161012085018284619c28565b9250505063ffffffff80861660208401526bffffffffffffffffffffffff8516604084015280841660608401525095945050505050565b5f60408201905073ffffffffffffffffffffffffffffffffffffffff841682528260208301529392505050565b5f63ffffffff8084168061a7d0577f4e487b71000000000000000000000000000000000000000000000000000000005f52601260045260245ffd5b80828516049250505092915050565b5f60608201905073ffffffffffffffffffffffffffffffffffffffff851682528360208301526bffffffffffffffffffffffff83166040830152949350505050565b5f82601f83011261a830575f80fd5b8151602061a84561a84083618bc0565b618b6b565b808382528282019150828460051b87010193508684111561a864575f80fd5b8286015b8481101561a88357805183528383019250838101905061a868565b508094505050505092915050565b5f806040838503121561a8a2575f80fd5b825167ffffffffffffffff8082111561a8b9575f80fd5b818501915085601f83011261a8cc575f80fd5b8151602061a8e161a8dc83618bc0565b618b6b565b808382528282019150828460051b87010193508984111561a900575f80fd5b82860195505b8386101561a92c57855161a91981618ca1565b808352508282019150828601955061a906565b809750505080870151935050508082111561a945575f80fd5b5061a9528582860161a821565b9150509250929050565b60208152602a60208201527f5361666545524332303a204552433230206f7065726174696f6e20646964206e60408201527f6f7420737563636565640000000000000000000000000000000000000000000060608201525f608082019050919050565b5f60a08201905086825285602083015284604083015283606083015273ffffffffffffffffffffffffffffffffffffffff831660808301529695505050505050565b60208152602660208201527f416464726573733a20696e73756666696369656e742062616c616e636520666f60408201527f722063616c6c000000000000000000000000000000000000000000000000000060608201525f608082019050919050565b5f825161aa758184602087016192d8565b80830191505092915050565b60208152601d60208201527f416464726573733a2063616c6c20746f206e6f6e2d636f6e747261637400000060408201525f606082019050919050565b602081525f61aad06020830184619300565b90509291505056fea264697066735822122061d2db9773714f99fce93f684b8c6937e1b5f891eaf19217041d024abbab317264736f6c63430008150033",
  "linkReferences": {
    "contracts/libraries/AssetTransfer.sol": {
      "AssetTransfer": [
        {
          "length": 20,
          "start": 7377
        },
        {
          "length": 20,
          "start": 14972
        },
        {
          "length": 20,
          "start": 19878
        }
      ]
    }
  },
  "deployedLinkReferences": {
    "contracts/libraries/AssetTransfer.sol": {
      "AssetTransfer": [
        {
          "length": 20,
          "start": 4501
        },
        {
          "length": 20,
          "start": 12096
        },
        {
          "length": 20,
          "start": 17002
        }
      ]
    }
  }
}