{
  "_format": "hh-sol-artifact-1",
  "contractName": "EeseeAccessManager",
  "sourceName": "contracts/admin/EeseeAccessManager.sol",
  "abi": [
    {
      "inputs": [],
      "stateMutability": "nonpayable",
      "type": "constructor"
    },
    {
      "inputs": [],
      "name": "CallerNotAdmin",
      "type": "error"
    },
    {
      "anonymous": false,
      "inputs": [
        {
          "indexed": true,
          "internalType": "bytes32",
          "name": "role",
          "type": "bytes32"
        },
        {
          "indexed": true,
          "internalType": "address",
          "name": "account",
          "type": "address"
        }
      ],
      "name": "RoleGranted",
      "type": "event"
    },
    {
      "anonymous": false,
      "inputs": [
        {
          "indexed": true,
          "internalType": "bytes32",
          "name": "role",
          "type": "bytes32"
        },
        {
          "indexed": true,
          "internalType": "address",
          "name": "account",
          "type": "address"
        }
      ],
      "name": "RoleRevoked",
      "type": "event"
    },
    {
      "inputs": [],
      "name": "ADMIN_ROLE",
      "outputs": [
        {
          "internalType": "bytes32",
          "name": "",
          "type": "bytes32"
        }
      ],
      "stateMutability": "view",
      "type": "function"
    },
    {
      "inputs": [
        {
          "internalType": "bytes32",
          "name": "role",
          "type": "bytes32"
        },
        {
          "internalType": "address",
          "name": "account",
          "type": "address"
        }
      ],
      "name": "grantRole",
      "outputs": [],
      "stateMutability": "nonpayable",
      "type": "function"
    },
    {
      "inputs": [
        {
          "internalType": "bytes32",
          "name": "role",
          "type": "bytes32"
        },
        {
          "internalType": "address",
          "name": "account",
          "type": "address"
        }
      ],
      "name": "hasRole",
      "outputs": [
        {
          "internalType": "bool",
          "name": "",
          "type": "bool"
        }
      ],
      "stateMutability": "view",
      "type": "function"
    },
    {
      "inputs": [
        {
          "internalType": "bytes32",
          "name": "role",
          "type": "bytes32"
        },
        {
          "internalType": "address",
          "name": "account",
          "type": "address"
        }
      ],
      "name": "revokeRole",
      "outputs": [],
      "stateMutability": "nonpayable",
      "type": "function"
    }
  ],
  "bytecode": "0x608060405234801561000f575f80fd5b5061002a6753dac774e87a7aee60c01b61007560201b60201c565b61004467b3be228d6edf5e9260c01b61007560201b60201c565b61005e6746b85a50400252f660c01b61007560201b60201c565b6100705f801b3361007860201b60201c565b6102bc565b50565b61009267dddc68e8d0277c1460c01b61007560201b60201c565b6100ac672c80653ee306361a60c01b61007560201b60201c565b6100c667da3dcc173abc9fad60c01b61007560201b60201c565b6100d6828261020d60201b60201c565b6101ee576100f4674d73b010fc74c71f60c01b61007560201b60201c565b61010e67f799ae37809c474460c01b61007560201b60201c565b60015f808481526020019081526020015f205f8373ffffffffffffffffffffffffffffffffffffffff1673ffffffffffffffffffffffffffffffffffffffff1681526020019081526020015f205f6101000a81548160ff02191690831515021790555061018b67b1b3807a6fcf0e5c60c01b61007560201b60201c565b6101a5676261ce9d5cd79cc460c01b61007560201b60201c565b8073ffffffffffffffffffffffffffffffffffffffff16827f2ae6a113c0ed5b78a53413ffbb7679881f11145ccfba4fb92e863dfcd5a1d2f360405160405180910390a3610209565b61020867de5aac033ce1dd8e60c01b61007560201b60201c565b5b5050565b5f61022867a1624ea799e7ac3260c01b61007560201b60201c565b6102426794029ac92fd989fe60c01b61007560201b60201c565b61025c6734e016793df0561d60c01b61007560201b60201c565b5f808481526020019081526020015f205f8373ffffffffffffffffffffffffffffffffffffffff1673ffffffffffffffffffffffffffffffffffffffff1681526020019081526020015f205f9054906101000a900460ff16905092915050565b6106e4806102c95f395ff3fe608060405234801561000f575f80fd5b506004361061004a575f3560e01c80632f2ff15d1461004e57806375b238fc1461006a57806391d1485414610088578063d547741f146100b8575b5f80fd5b61006860048036038101906100639190610646565b6100d4565b005b610072610200565b60405161007f919061068c565b60405180910390f35b6100a2600480360381019061009d9190610646565b610206565b6040516100af919061069c565b60405180910390f35b6100d260048036038101906100cd9190610646565b6102a3565b005b6100e867870a958f7b1ba13e60c01b6104e4565b6100fc67cfb0a8ee767f091b60c01b6104e4565b61011067342c853cb3741a2c60c01b6104e4565b6101246705a8d9981717c3d660c01b6104e4565b6101305f801b33610206565b61017a57610148677bf54e839273226060c01b6104e4565b6040517f06d919f200000000000000000000000000000000000000000000000000000000815260040160405180910390fd5b61018e675721741bd934b96f60c01b6104e4565b6101a267817b72542035b26c60c01b6104e4565b6101b6671feac894264c24f860c01b6104e4565b6101ca675127dc3a2b4a08d060c01b6104e4565b6101de67aeee718c6f3258d560c01b6104e4565b6101f2677b8c30adc2bad9c060c01b6104e4565b6101fc82826104e7565b5050565b5f801b81565b5f61021b67a1624ea799e7ac3260c01b6104e4565b61022f6794029ac92fd989fe60c01b6104e4565b6102436734e016793df0561d60c01b6104e4565b5f808481526020019081526020015f205f8373ffffffffffffffffffffffffffffffffffffffff1673ffffffffffffffffffffffffffffffffffffffff1681526020019081526020015f205f9054906101000a900460ff16905092915050565b6102b76750661550cf1bde1060c01b6104e4565b6102cb67cfb0a8ee767f091b60c01b6104e4565b6102df67342c853cb3741a2c60c01b6104e4565b6102f36705a8d9981717c3d660c01b6104e4565b6102ff5f801b33610206565b61034957610317677bf54e839273226060c01b6104e4565b6040517f06d919f200000000000000000000000000000000000000000000000000000000815260040160405180910390fd5b61035d675721741bd934b96f60c01b6104e4565b61037167817b72542035b26c60c01b6104e4565b61038567333681f48916a49b60c01b6104e4565b610399675038ba3755c3acfa60c01b6104e4565b6103ad67c13c02fb3f8e693560c01b6104e4565b6103c167fed2753d15122a1f60c01b6104e4565b6103cb8282610206565b156104cb576103e467536729ea2f6a1ab060c01b6104e4565b6103f867b95306a9cd7f1f2760c01b6104e4565b5f805f8481526020019081526020015f205f8373ffffffffffffffffffffffffffffffffffffffff1673ffffffffffffffffffffffffffffffffffffffff1681526020019081526020015f205f6101000a81548160ff02191690831515021790555061046e67b633de4328b4031460c01b6104e4565b61048267e4d675e48f86dabc60c01b6104e4565b8073ffffffffffffffffffffffffffffffffffffffff16827f155aaafb6329a2098580462df33ec4b7441b19729b9601c5fc17ae1cf99a8a5260405160405180910390a36104e0565b6104df6702530618b6178d7e60c01b6104e4565b5b5050565b50565b6104fb67dddc68e8d0277c1460c01b6104e4565b61050f672c80653ee306361a60c01b6104e4565b61052367da3dcc173abc9fad60c01b6104e4565b61052d8282610206565b61062d57610545674d73b010fc74c71f60c01b6104e4565b61055967f799ae37809c474460c01b6104e4565b60015f808481526020019081526020015f205f8373ffffffffffffffffffffffffffffffffffffffff1673ffffffffffffffffffffffffffffffffffffffff1681526020019081526020015f205f6101000a81548160ff0219169083151502179055506105d067b1b3807a6fcf0e5c60c01b6104e4565b6105e4676261ce9d5cd79cc460c01b6104e4565b8073ffffffffffffffffffffffffffffffffffffffff16827f2ae6a113c0ed5b78a53413ffbb7679881f11145ccfba4fb92e863dfcd5a1d2f360405160405180910390a3610642565b61064167de5aac033ce1dd8e60c01b6104e4565b5b5050565b5f8060408385031215610657575f80fd5b82359150602083013573ffffffffffffffffffffffffffffffffffffffff81168114610681575f80fd5b809150509250929050565b5f60208201905082825292915050565b5f60208201905082151582529291505056fea2646970667358221220688dba7dccc7eca9346be613e01826da849e8169f1918e5938b01ac65d178b2364736f6c63430008150033",
  "linkReferences": {},
  "deployedLinkReferences": {}
}