{
  "_format": "hh-sol-artifact-1",
  "contractName": "ESE",
  "sourceName": "contracts/token/ESE.sol",
  "abi": [
    {
      "inputs": [
        {
          "components": [
            {
              "internalType": "uint32",
              "name": "cliff",
              "type": "uint32"
            },
            {
              "internalType": "uint32",
              "name": "duration",
              "type": "uint32"
            },
            {
              "internalType": "uint16",
              "name": "TGEMintShare",
              "type": "uint16"
            }
          ],
          "internalType": "struct ESE.ConstructorVestingParams[]",
          "name": "_vestingStages",
          "type": "tuple[]"
        }
      ],
      "stateMutability": "nonpayable",
      "type": "constructor"
    },
    {
      "inputs": [],
      "name": "InvalidShortString",
      "type": "error"
    },
    {
      "inputs": [
        {
          "internalType": "string",
          "name": "str",
          "type": "string"
        }
      ],
      "name": "StringTooLong",
      "type": "error"
    },
    {
      "anonymous": false,
      "inputs": [
        {
          "indexed": true,
          "internalType": "uint256",
          "name": "stage",
          "type": "uint256"
        },
        {
          "indexed": true,
          "internalType": "address",
          "name": "beneficiary",
          "type": "address"
        },
        {
          "indexed": false,
          "internalType": "uint256",
          "name": "vestingAmount",
          "type": "uint256"
        },
        {
          "indexed": false,
          "internalType": "uint256",
          "name": "TGEAmount",
          "type": "uint256"
        }
      ],
      "name": "AddVestingBeneficiary",
      "type": "event"
    },
    {
      "anonymous": false,
      "inputs": [
        {
          "indexed": true,
          "internalType": "address",
          "name": "owner",
          "type": "address"
        },
        {
          "indexed": true,
          "internalType": "address",
          "name": "spender",
          "type": "address"
        },
        {
          "indexed": false,
          "internalType": "uint256",
          "name": "value",
          "type": "uint256"
        }
      ],
      "name": "Approval",
      "type": "event"
    },
    {
      "anonymous": false,
      "inputs": [],
      "name": "EIP712DomainChanged",
      "type": "event"
    },
    {
      "anonymous": false,
      "inputs": [
        {
          "indexed": false,
          "internalType": "uint256",
          "name": "TGE",
          "type": "uint256"
        }
      ],
      "name": "Initialize",
      "type": "event"
    },
    {
      "anonymous": false,
      "inputs": [
        {
          "indexed": true,
          "internalType": "address",
          "name": "from",
          "type": "address"
        },
        {
          "indexed": true,
          "internalType": "address",
          "name": "to",
          "type": "address"
        },
        {
          "indexed": false,
          "internalType": "uint256",
          "name": "value",
          "type": "uint256"
        }
      ],
      "name": "Transfer",
      "type": "event"
    },
    {
      "inputs": [],
      "name": "DOMAIN_SEPARATOR",
      "outputs": [
        {
          "internalType": "bytes32",
          "name": "",
          "type": "bytes32"
        }
      ],
      "stateMutability": "view",
      "type": "function"
    },
    {
      "inputs": [],
      "name": "TGE",
      "outputs": [
        {
          "internalType": "uint256",
          "name": "",
          "type": "uint256"
        }
      ],
      "stateMutability": "view",
      "type": "function"
    },
    {
      "inputs": [
        {
          "internalType": "uint256",
          "name": "stage",
          "type": "uint256"
        },
        {
          "components": [
            {
              "internalType": "uint256",
              "name": "amount",
              "type": "uint256"
            },
            {
              "internalType": "address",
              "name": "addr",
              "type": "address"
            }
          ],
          "internalType": "struct ESE.Beneficiary[]",
          "name": "beneficiaries",
          "type": "tuple[]"
        }
      ],
      "name": "addVestingBeneficiaries",
      "outputs": [],
      "stateMutability": "nonpayable",
      "type": "function"
    },
    {
      "inputs": [
        {
          "internalType": "address",
          "name": "owner",
          "type": "address"
        },
        {
          "internalType": "address",
          "name": "spender",
          "type": "address"
        }
      ],
      "name": "allowance",
      "outputs": [
        {
          "internalType": "uint256",
          "name": "",
          "type": "uint256"
        }
      ],
      "stateMutability": "view",
      "type": "function"
    },
    {
      "inputs": [
        {
          "internalType": "address",
          "name": "spender",
          "type": "address"
        },
        {
          "internalType": "uint256",
          "name": "amount",
          "type": "uint256"
        }
      ],
      "name": "approve",
      "outputs": [
        {
          "internalType": "bool",
          "name": "",
          "type": "bool"
        }
      ],
      "stateMutability": "nonpayable",
      "type": "function"
    },
    {
      "inputs": [
        {
          "internalType": "address",
          "name": "account",
          "type": "address"
        }
      ],
      "name": "balanceOf",
      "outputs": [
        {
          "internalType": "uint256",
          "name": "",
          "type": "uint256"
        }
      ],
      "stateMutability": "view",
      "type": "function"
    },
    {
      "inputs": [
        {
          "internalType": "uint256",
          "name": "amount",
          "type": "uint256"
        }
      ],
      "name": "burn",
      "outputs": [],
      "stateMutability": "nonpayable",
      "type": "function"
    },
    {
      "inputs": [
        {
          "internalType": "address",
          "name": "account",
          "type": "address"
        },
        {
          "internalType": "uint256",
          "name": "amount",
          "type": "uint256"
        }
      ],
      "name": "burnFrom",
      "outputs": [],
      "stateMutability": "nonpayable",
      "type": "function"
    },
    {
      "inputs": [],
      "name": "decimals",
      "outputs": [
        {
          "internalType": "uint8",
          "name": "",
          "type": "uint8"
        }
      ],
      "stateMutability": "view",
      "type": "function"
    },
    {
      "inputs": [
        {
          "internalType": "address",
          "name": "spender",
          "type": "address"
        },
        {
          "internalType": "uint256",
          "name": "subtractedValue",
          "type": "uint256"
        }
      ],
      "name": "decreaseAllowance",
      "outputs": [
        {
          "internalType": "bool",
          "name": "",
          "type": "bool"
        }
      ],
      "stateMutability": "nonpayable",
      "type": "function"
    },
    {
      "inputs": [],
      "name": "eip712Domain",
      "outputs": [
        {
          "internalType": "bytes1",
          "name": "fields",
          "type": "bytes1"
        },
        {
          "internalType": "string",
          "name": "name",
          "type": "string"
        },
        {
          "internalType": "string",
          "name": "version",
          "type": "string"
        },
        {
          "internalType": "uint256",
          "name": "chainId",
          "type": "uint256"
        },
        {
          "internalType": "address",
          "name": "verifyingContract",
          "type": "address"
        },
        {
          "internalType": "bytes32",
          "name": "salt",
          "type": "bytes32"
        },
        {
          "internalType": "uint256[]",
          "name": "extensions",
          "type": "uint256[]"
        }
      ],
      "stateMutability": "view",
      "type": "function"
    },
    {
      "inputs": [
        {
          "internalType": "address",
          "name": "spender",
          "type": "address"
        },
        {
          "internalType": "uint256",
          "name": "addedValue",
          "type": "uint256"
        }
      ],
      "name": "increaseAllowance",
      "outputs": [
        {
          "internalType": "bool",
          "name": "",
          "type": "bool"
        }
      ],
      "stateMutability": "nonpayable",
      "type": "function"
    },
    {
      "inputs": [
        {
          "internalType": "uint256",
          "name": "_TGE",
          "type": "uint256"
        }
      ],
      "name": "initialize",
      "outputs": [],
      "stateMutability": "nonpayable",
      "type": "function"
    },
    {
      "inputs": [],
      "name": "name",
      "outputs": [
        {
          "internalType": "string",
          "name": "",
          "type": "string"
        }
      ],
      "stateMutability": "view",
      "type": "function"
    },
    {
      "inputs": [
        {
          "internalType": "address",
          "name": "owner",
          "type": "address"
        }
      ],
      "name": "nonces",
      "outputs": [
        {
          "internalType": "uint256",
          "name": "",
          "type": "uint256"
        }
      ],
      "stateMutability": "view",
      "type": "function"
    },
    {
      "inputs": [
        {
          "internalType": "address",
          "name": "owner",
          "type": "address"
        },
        {
          "internalType": "address",
          "name": "spender",
          "type": "address"
        },
        {
          "internalType": "uint256",
          "name": "value",
          "type": "uint256"
        },
        {
          "internalType": "uint256",
          "name": "deadline",
          "type": "uint256"
        },
        {
          "internalType": "uint8",
          "name": "v",
          "type": "uint8"
        },
        {
          "internalType": "bytes32",
          "name": "r",
          "type": "bytes32"
        },
        {
          "internalType": "bytes32",
          "name": "s",
          "type": "bytes32"
        }
      ],
      "name": "permit",
      "outputs": [],
      "stateMutability": "nonpayable",
      "type": "function"
    },
    {
      "inputs": [],
      "name": "symbol",
      "outputs": [
        {
          "internalType": "string",
          "name": "",
          "type": "string"
        }
      ],
      "stateMutability": "view",
      "type": "function"
    },
    {
      "inputs": [],
      "name": "totalSupply",
      "outputs": [
        {
          "internalType": "uint256",
          "name": "",
          "type": "uint256"
        }
      ],
      "stateMutability": "view",
      "type": "function"
    },
    {
      "inputs": [
        {
          "internalType": "uint256",
          "name": "stage",
          "type": "uint256"
        }
      ],
      "name": "totalVestedAmount",
      "outputs": [
        {
          "internalType": "uint256",
          "name": "",
          "type": "uint256"
        }
      ],
      "stateMutability": "view",
      "type": "function"
    },
    {
      "inputs": [
        {
          "internalType": "address",
          "name": "to",
          "type": "address"
        },
        {
          "internalType": "uint256",
          "name": "amount",
          "type": "uint256"
        }
      ],
      "name": "transfer",
      "outputs": [
        {
          "internalType": "bool",
          "name": "",
          "type": "bool"
        }
      ],
      "stateMutability": "nonpayable",
      "type": "function"
    },
    {
      "inputs": [
        {
          "internalType": "address",
          "name": "from",
          "type": "address"
        },
        {
          "internalType": "address",
          "name": "to",
          "type": "address"
        },
        {
          "internalType": "uint256",
          "name": "amount",
          "type": "uint256"
        }
      ],
      "name": "transferFrom",
      "outputs": [
        {
          "internalType": "bool",
          "name": "",
          "type": "bool"
        }
      ],
      "stateMutability": "nonpayable",
      "type": "function"
    },
    {
      "inputs": [
        {
          "internalType": "uint256",
          "name": "stage",
          "type": "uint256"
        },
        {
          "internalType": "address",
          "name": "account",
          "type": "address"
        }
      ],
      "name": "vestedAmount",
      "outputs": [
        {
          "internalType": "uint256",
          "name": "",
          "type": "uint256"
        }
      ],
      "stateMutability": "view",
      "type": "function"
    },
    {
      "inputs": [
        {
          "internalType": "uint256",
          "name": "",
          "type": "uint256"
        }
      ],
      "name": "vestingStages",
      "outputs": [
        {
          "internalType": "uint256",
          "name": "amount",
          "type": "uint256"
        },
        {
          "internalType": "uint128",
          "name": "cliff",
          "type": "uint128"
        },
        {
          "internalType": "uint128",
          "name": "duration",
          "type": "uint128"
        }
      ],
      "stateMutability": "view",
      "type": "function"
    },
    {
      "inputs": [],
      "name": "vestingStagesLength",
      "outputs": [
        {
          "internalType": "uint256",
          "name": "",
          "type": "uint256"
        }
      ],
      "stateMutability": "view",
      "type": "function"
    }
  ],
  "bytecode": "0x6101a060405234801562000011575f80fd5b5060405162004e0a38038062004e0a8339818101604052810190620000379190620007f8565b6040518060400160405280600581526020017f6565736565000000000000000000000000000000000000000000000000000000815250806040518060400160405280600181526020017f31000000000000000000000000000000000000000000000000000000000000008152506040518060400160405280600581526020017f65657365650000000000000000000000000000000000000000000000000000008152506040518060400160405280600481526020017f24455345000000000000000000000000000000000000000000000000000000008152508160039081620001219190620009be565b508060049081620001339190620009be565b5050506200014c6005836200063960201b90919060201c565b61012081815250506200016a6006826200063960201b90919060201c565b6101408181525050818051906020012060e08181525050808051906020012061010081815250504660a08181525050620001a96200068e60201b60201c565b608081815250503073ffffffffffffffffffffffffffffffffffffffff1660c08173ffffffffffffffffffffffffffffffffffffffff168152505050505062000203678ebc134fc44e778560c01b620006ea60201b60201c565b6200021f67776e489c2f1fd95360c01b620006ea60201b60201c565b6200023b67f25a92533c64703760c01b620006ea60201b60201c565b6200025767aa5571f7fe44365b60c01b620006ea60201b60201c565b600a815111156200029f576040517f08c379a0000000000000000000000000000000000000000000000000000000008152600401620002969062000a93565b60405180910390fd5b620002bb67f99a4b2604fb020760c01b620006ea60201b60201c565b620002d7678722049ab01e2cb360c01b620006ea60201b60201c565b620002f367dc36362cf1d61f3c60c01b620006ea60201b60201c565b5f5b8151811015620005ba576200031b6791f7a2556385fd5c60c01b620006ea60201b60201c565b6200033767830b8fbad2e4cddd60c01b620006ea60201b60201c565b5f60095f8381526020019081526020015f2090506200036767346b7b113159662260c01b620006ea60201b60201c565b8282815181106200037d576200037c62000ad0565b5b60200260200101515f015163ffffffff16816001015f6101000a8154816fffffffffffffffffffffffffffffffff02191690836fffffffffffffffffffffffffffffffff160217905550620003e367159e8ae2772d952b60c01b620006ea60201b60201c565b828281518110620003f957620003f862000ad0565b5b60200260200101516020015163ffffffff168160010160106101000a8154816fffffffffffffffffffffffffffffffff02191690836fffffffffffffffffffffffffffffffff160217905550620004616794ac7fdc8556554760c01b620006ea60201b60201c565b6200047d67b3b94dd6990dcce360c01b620006ea60201b60201c565b5f83838151811062000494576200049362000ad0565b5b60200260200101516040015161ffff169050620004c2673eb193c2c65bee9c60c01b620006ea60201b60201c565b620004de67b40d8ba6aff4b2c360c01b620006ea60201b60201c565b620004fa679bf17765a3cc510d60c01b620006ea60201b60201c565b61271081111562000542576040517f08c379a0000000000000000000000000000000000000000000000000000000008152600401620005399062000ae4565b60405180910390fd5b6200055e673b076723847f6db660c01b620006ea60201b60201c565b6200057a67d87a02f458f9299660c01b620006ea60201b60201c565b80600c5f8581526020019081526020015f2081905550620005ac67e28067842d2a532860c01b620006ea60201b60201c565b8260010192505050620002f5565b50620005d76795f324a0707012d960c01b620006ea60201b60201c565b3373ffffffffffffffffffffffffffffffffffffffff166101808173ffffffffffffffffffffffffffffffffffffffff1681525050620006286792de8ecfbb7b04ff60c01b620006ea60201b60201c565b805161016081815250505062000bce565b5f6020835110156200065e576200065683620006ed60201b60201c565b905062000688565b8262000670836200075760201b60201c565b5f019081620006809190620009be565b5060ff5f1b90505b92915050565b5f7f8b73c3c69bb8fe3d512ecc4cf759cc79239f7b179b0ffacaa9a75d522b39400f60e051610100514630604051602001620006cf95949392919062000b21565b60405160208183030381529060405280519060200120905090565b50565b5f80829050601f815111156200073c57826040517f305a27a900000000000000000000000000000000000000000000000000000000815260040162000733919062000b55565b60405180910390fd5b8051816200074a9062000ba5565b5f1c175f1b915050919050565b5f819050919050565b634e487b7160e01b5f52604160045260245ffd5b5f60405190506060810181811060018060401b03821117156200079c576200079b62000760565b5b806040525090565b5f6040519050601f19601f830116810181811060018060401b0382111715620007d257620007d162000760565b5b8060405250919050565b5f8151905063ffffffff81168114620007f3575f80fd5b919050565b5f60208083850312156200080a575f80fd5b825160018060401b038082111562000820575f80fd5b818501915085601f83011262000834575f80fd5b8151818111156200084a576200084962000760565b5b6200085a848260051b01620007a4565b91508181835284830192506060858184028601019250888311156200087d575f80fd5b85850194505b82851015620008f65780858a0312156200089c575f8081fd5b620008a662000774565b620008b186620007dc565b8152620008c0878701620007dc565b8782015260408087015161ffff81168114620008db575f8081fd5b80828401525050808552508584019350808501945062000883565b50809550505050505092915050565b5f8160011c905060018216806200091d57607f821691505b6020821081036200093c57634e487b7160e01b5f52602260045260245ffd5b50919050565b805f52505f60205f20905090565b601f821115620009a1575f81815260208120601f850160051c8101602086101562000979578190505b601f850160051c820191505b818110156200099d5782815560018101905062000985565b5050505b505050565b5f8260011b5f198460031b1c19831617905092915050565b815160018060401b03811115620009da57620009d962000760565b5b620009f281620009eb845462000905565b8462000950565b5f6020809150601f83116001811462000a29575f841562000a14578387015190505b62000a208582620009a6565b86555062000a8b565b601f19841662000a398662000942565b5f5b8281101562000a60578589015182556001820191508486019550848101905062000a3b565b508582101562000a7f57848801515f1960f88860031b161c1981168255505b505060018460011b0185555b505050505050565b60208152601b60208201527f4553453a20496e76616c69642076657374696e6720737461676573000000000060408201525f606082019050919050565b634e487b7160e01b5f52603260045260245ffd5b60208152601960208201527f4553453a20496e76616c6964205447454d696e7453686172650000000000000060408201525f606082019050919050565b5f60a08201905086825285602083015284604083015283606083015260018060a01b03831660808301529695505050505050565b5f6020808352835180828501525f5b8181101562000b855782818701015160408287010152828101905062000b64565b505f604082860101526040601f19601f8301168501019250505092915050565b5f815160208301519150602081101562000bc8575f198160200360031b1b821691505b50919050565b60805160a05160c05160e05161010051610120516101405161016051610180516141ac62000c5e5f395f8181610737015261189b01525f8181610851015281816110d9015281816111ea0152818161177f01528181611ec40152612b2601525f6113d601525f6113a201525f61309e01525f61307d01525f61222401525f61227a01525f6122a301526141ac5ff3fe608060405234801561000f575f80fd5b5060043610610196575f3560e01c806370a08231116100e1578063a457c2d71161008a578063dd62ed3e11610064578063dd62ed3e146104c4578063e5106662146104f4578063fe4b84df1461051257610196565b8063a457c2d714610448578063a9059cbb14610478578063d505accf146104a857610196565b806384b0196e116100bb57806384b0196e146103e85780638867596f1461040c57806395d89b411461042a57610196565b806370a082311461036c57806379cc67901461039c5780637ecebe00146103b857610196565b8063313ce567116101435780633e6c53111161011d5780633e6c5311146102f05780633f6406f51461032057806342966c681461035057610196565b8063313ce567146102845780633644e515146102a257806339509351146102c057610196565b80630dd88660116101745780630dd886601461021a57806318160ddd1461023657806323b872dd1461025457610196565b8063036c151b1461019a57806306fdde03146101cc578063095ea7b3146101ea575b5f80fd5b6101b460048036038101906101af919061343f565b61052e565b6040516101c393929190613459565b60405180910390f35b6101d461058b565b6040516101e191906134f4565b60405180910390f35b61020460048036038101906101ff9190613539565b61061b565b6040516102119190613563565b60405180910390f35b610234600480360381019061022f9190613575565b61063d565b005b61023e610fa1565b60405161024b91906135ed565b60405180910390f35b61026e600480360381019061026991906135fd565b61100c565b60405161027b9190613563565b60405180910390f35b61028c61103a565b6040516102999190613636565b60405180910390f35b6102aa611042565b6040516102b79190613649565b60405180910390f35b6102da60048036038101906102d59190613539565b611050565b6040516102e79190613563565b60405180910390f35b61030a60048036038101906103059190613659565b611086565b60405161031791906135ed565b60405180910390f35b61033a6004803603810190610335919061343f565b611197565b60405161034791906135ed565b60405180910390f35b61036a6004803603810190610365919061343f565b6112a6565b005b61038660048036038101906103819190613683565b6112ba565b60405161039391906135ed565b60405180910390f35b6103b660048036038101906103b19190613539565b611325565b005b6103d260048036038101906103cd9190613683565b611345565b6040516103df91906135ed565b60405180910390f35b6103f0611392565b60405161040397969594939291906136a4565b60405180910390f35b61041461148f565b60405161042191906135ed565b60405180910390f35b610432611495565b60405161043f91906134f4565b60405180910390f35b610462600480360381019061045d9190613539565b611525565b60405161046f9190613563565b60405180910390f35b610492600480360381019061048d9190613539565b61159a565b60405161049f9190613563565b60405180910390f35b6104c260048036038101906104bd919061376a565b6115bc565b005b6104de60048036038101906104d991906137d8565b6116fb565b6040516104eb91906135ed565b60405180910390f35b6104fc61177d565b60405161050991906135ed565b60405180910390f35b61052c6004803603810190610527919061343f565b6117a1565b005b6009602052805f5260405f205f91509050805f015490806001015f9054906101000a90046fffffffffffffffffffffffffffffffff16908060010160109054906101000a90046fffffffffffffffffffffffffffffffff16905083565b60606003805461059a90613809565b80601f01602080910402602001604051908101604052809291908181526020018280546105c690613809565b80156106115780601f106105e857610100808354040283529160200191610611565b820191905f5260205f20905b8154815290600101906020018083116105f457829003601f168201915b5050505050905090565b5f80610625611b4b565b9050610632818585611b52565b600191505092915050565b6106516763425e5046b71e5660c01b611d15565b610665677efc24015d3d702660c01b611d15565b6106796711aafd285db14d4d60c01b611d15565b61068d67577ebf7005536a4060c01b611d15565b6106a1679bee12cd07aafb4d60c01b611d15565b5f600a54146106e5576040517f08c379a00000000000000000000000000000000000000000000000000000000081526004016106dc9061385d565b60405180910390fd5b6106f96799e35b12adfb090160c01b611d15565b61070d67c1c878edf1a39aad60c01b611d15565b61072167e43d8032df6b9e2760c01b611d15565b610735671d4681d2a624922260c01b611d15565b7f000000000000000000000000000000000000000000000000000000000000000073ffffffffffffffffffffffffffffffffffffffff163373ffffffffffffffffffffffffffffffffffffffff16146107c3576040517f08c379a00000000000000000000000000000000000000000000000000000000081526004016107ba9061389a565b60405180910390fd5b6107d76770b20bbf85c4f90c60c01b611d15565b6107eb67288b98d430e334cd60c01b611d15565b6107ff67802c1d6e71c8dc0660c01b611d15565b610813676093d3b713a8ecad60c01b611d15565b610827676c389543a20c349060c01b611d15565b61083b67b2cd83a5a7de633960c01b611d15565b61084f670de2ddf13466187360c01b611d15565b7f000000000000000000000000000000000000000000000000000000000000000083106108b1576040517f08c379a00000000000000000000000000000000000000000000000000000000081526004016108a8906138d7565b60405180910390fd5b6108c567b2802eb151923a0960c01b611d15565b6108d967307427e33bdb0e7060c01b611d15565b6108ed67eadeed68e8b67d8960c01b611d15565b5f60095f8581526020019081526020015f2090506109156778f01ccd609aa2d060c01b611d15565b6109296742375129e3eb751960c01b611d15565b5f600c5f8681526020019081526020015f2054905061095267e5abec40a95535f260c01b611d15565b610966677bd93db176330c0b60c01b611d15565b5f61097b67c1dbd491efc4e54f60c01b611d15565b61098f676372a591df69ebbb60c01b611d15565b5f5b85859050811015610e78576109b067f2be1eee441f334f60c01b611d15565b6109c467c7e178a731af155d60c01b611d15565b5f8686838181106109d8576109d7613914565b5b90506040020160200160208101906109f09190613683565b9050610a0667195576e7484ad02c60c01b611d15565b610a1a67f4063b48a2e7e27c60c01b611d15565b610a2e674893a9e80aa19d4d60c01b611d15565b5f73ffffffffffffffffffffffffffffffffffffffff168173ffffffffffffffffffffffffffffffffffffffff1603610a9c576040517f08c379a0000000000000000000000000000000000000000000000000000000008152600401610a9390613941565b60405180910390fd5b610ab0675268865076512a3560c01b611d15565b610ac46790c525b304c92a1e60c01b611d15565b610ad8675dc0970920e25b2660c01b611d15565b610aec6757847f3e94c80ee460c01b611d15565b600d5f8981526020019081526020015f205f8273ffffffffffffffffffffffffffffffffffffffff1673ffffffffffffffffffffffffffffffffffffffff1681526020019081526020015f205f9054906101000a900460ff1615610b85576040517f08c379a0000000000000000000000000000000000000000000000000000000008152600401610b7c9061397e565b60405180910390fd5b610b996757605a81415d526860c01b611d15565b610bad672dc5518421acc24560c01b611d15565b6001600d5f8a81526020019081526020015f205f8373ffffffffffffffffffffffffffffffffffffffff1673ffffffffffffffffffffffffffffffffffffffff1681526020019081526020015f205f6101000a81548160ff021916908315150217905550610c2567a822b022ed907ae860c01b611d15565b610c39672a13d4c29dd4402760c01b611d15565b5f878784818110610c4d57610c4c613914565b5b9050604002015f01359050610c6c67d0bcf9eea3d87f3660c01b611d15565b610c8067ca4a63794f4f274a60c01b611d15565b5f6127108683610c9091906139e8565b610c9a9190613a36565b9050610cb06741fd914d90b272f660c01b611d15565b610cc4676bcf044669b1778460c01b611d15565b5f8114610d1657610cdf67b6582bd9c0d7986460c01b611d15565b610cf367ef37590778f3be9360c01b611d15565b610d07678886bbad39800c3360c01b611d15565b610d118382611d18565b610d2b565b610d2a6723bc5ca40ebbb59d60c01b611d15565b5b610d3f67bb0d7e222a1db23860c01b611d15565b610d5367848d73ad549e75bd60c01b611d15565b5f8183610d609190613a74565b9050610d7667d481d41c496a16b760c01b611d15565b80886002015f8673ffffffffffffffffffffffffffffffffffffffff1673ffffffffffffffffffffffffffffffffffffffff1681526020019081526020015f2081905550610dce67c385f73c87d54b6260c01b611d15565b8086610dda9190613a91565b9550610df067882e978121d1416b60c01b611d15565b846001019450610e0a67cdc99aa911ce768160c01b611d15565b610e1e67a473bfc1f65b434e60c01b611d15565b8373ffffffffffffffffffffffffffffffffffffffff168b7f87a2a26d2607234ccad00364d83bb52165a3a95129e439e15da8c058ddd1a7c88385604051610e67929190613aae565b60405180910390a350505050610991565b50610e8d67b1ffeaea930555bb60c01b611d15565b80835f015f828254610e9f9190613a91565b92505081905550610eba67e66d79ab17ba9aa860c01b611d15565b80600e5f828254610ecb9190613a91565b92505081905550610ee667056be46f078197ee60c01b611d15565b610efa67a33ae025486f6ab460c01b611d15565b6b033b2e3c9fd0803ce8000000600e54610f12611e66565b610f1c9190613a91565b1115610f8557610f36672de6f0d7147f29b060c01b611d15565b610f4a670702692ffbe7819c60c01b611d15565b6040517f08c379a0000000000000000000000000000000000000000000000000000000008152600401610f7c90613ac5565b60405180910390fd5b610f99671d0f93d07ec59f0660c01b611d15565b505050505050565b5f610fb667e608b255b77e37fc60c01b611d15565b610fca67631e744e4317ff9260c01b611d15565b610fde67dc0dabcaf435a38f60c01b611d15565b610ff2673d342fdaf0d3b3a760c01b611d15565b600f54610ffd611e6f565b611005611e66565b0103905090565b5f80611016611b4b565b9050611023858285611f2a565b61102e858585611fb5565b60019150509392505050565b5f6012905090565b5f61104b612221565b905090565b5f8061105a611b4b565b905061107b81858561106c85896116fb565b6110769190613a91565b611b52565b600191505092915050565b5f61109b67ddf00ee8131b33a060c01b611d15565b6110af6718259da8092e122d60c01b611d15565b6110c36748cbe5938a93af4060c01b611d15565b6110d767cc9f757a7a8d5ffa60c01b611d15565b7f00000000000000000000000000000000000000000000000000000000000000008310611139576040517f08c379a0000000000000000000000000000000000000000000000000000000008152600401611130906138d7565b60405180910390fd5b61114d67b977c0d49fe8a44360c01b611d15565b6111616760ad25fcb58b99f560c01b611d15565b61117567c692a75edd5d2d1d60c01b611d15565b61118f60095f8581526020019081526020015f20836122d7565b905092915050565b5f6111ac67a48b2a8b00285c8260c01b611d15565b6111c067f0fc726634adc22560c01b611d15565b6111d4673d244e280eb6be7460c01b611d15565b6111e8676c0d54d8376b24c560c01b611d15565b7f0000000000000000000000000000000000000000000000000000000000000000821061124a576040517f08c379a0000000000000000000000000000000000000000000000000000000008152600401611241906138d7565b60405180910390fd5b61125e67dbb5c919bf85cc4c60c01b611d15565b61127267ca002b9e14e218dc60c01b611d15565b611286678f77b03b8a278cc960c01b611d15565b61129f60095f8481526020019081526020015f20612611565b9050919050565b6112b76112b1611b4b565b8261290e565b50565b5f6112cf67d556f0e74dd1f1cc60c01b611d15565b6112e367fdd9c2705879cac860c01b611d15565b6112f7672b9edf6cac9b869860c01b611d15565b61130b6702b28315ae53337660c01b611d15565b61131482612ad1565b61131d83612be5565b019050919050565b61133782611331611b4b565b83611f2a565b611341828261290e565b5050565b5f61138b60075f8473ffffffffffffffffffffffffffffffffffffffff1673ffffffffffffffffffffffffffffffffffffffff1681526020019081526020015f20612c2a565b9050919050565b5f6060805f805f60606113cf60057f0000000000000000000000000000000000000000000000000000000000000000612c3690919063ffffffff16565b61140360067f0000000000000000000000000000000000000000000000000000000000000000612c3690919063ffffffff16565b46305f801b5f67ffffffffffffffff81111561142257611421613b02565b5b6040519080825280602002602001820160405280156114505781602001602082028036833780820191505090505b507f0f00000000000000000000000000000000000000000000000000000000000000959493929190965096509650965096509650965090919293949596565b600a5481565b6060600480546114a490613809565b80601f01602080910402602001604051908101604052809291908181526020018280546114d090613809565b801561151b5780601f106114f25761010080835404028352916020019161151b565b820191905f5260205f20905b8154815290600101906020018083116114fe57829003601f168201915b5050505050905090565b5f8061152f611b4b565b90505f61153c82866116fb565b905083811015611581576040517f08c379a000000000000000000000000000000000000000000000000000000000815260040161157890613b2f565b60405180910390fd5b61158e8286868403611b52565b60019250505092915050565b5f806115a4611b4b565b90506115b1818585611fb5565b600191505092915050565b834211156115ff576040517f08c379a00000000000000000000000000000000000000000000000000000000081526004016115f690613b92565b60405180910390fd5b5f7f6e71edae12b1b97f4d1f60370fef10105fa2faae0126114a169c64845d6126c988888861162d8c612ce3565b8960405160200161164396959493929190613bcf565b6040516020818303038152906040528051906020012090505f61166582612d3e565b90505f61167482878787612d57565b90508973ffffffffffffffffffffffffffffffffffffffff168173ffffffffffffffffffffffffffffffffffffffff16146116e4576040517f08c379a00000000000000000000000000000000000000000000000000000000081526004016116db90613c1c565b60405180910390fd5b6116ef8a8a8a611b52565b50505050505050505050565b5f60015f8473ffffffffffffffffffffffffffffffffffffffff1673ffffffffffffffffffffffffffffffffffffffff1681526020019081526020015f205f8373ffffffffffffffffffffffffffffffffffffffff1673ffffffffffffffffffffffffffffffffffffffff1681526020019081526020015f2054905092915050565b7f000000000000000000000000000000000000000000000000000000000000000081565b6117b567a2b2821508b0949260c01b611d15565b6117c9677efc24015d3d702660c01b611d15565b6117dd6711aafd285db14d4d60c01b611d15565b6117f167577ebf7005536a4060c01b611d15565b611805679bee12cd07aafb4d60c01b611d15565b5f600a5414611849576040517f08c379a00000000000000000000000000000000000000000000000000000000081526004016118409061385d565b60405180910390fd5b61185d6799e35b12adfb090160c01b611d15565b61187167c1c878edf1a39aad60c01b611d15565b61188567e43d8032df6b9e2760c01b611d15565b611899671d4681d2a624922260c01b611d15565b7f000000000000000000000000000000000000000000000000000000000000000073ffffffffffffffffffffffffffffffffffffffff163373ffffffffffffffffffffffffffffffffffffffff1614611927576040517f08c379a000000000000000000000000000000000000000000000000000000000815260040161191e9061389a565b60405180910390fd5b61193b6770b20bbf85c4f90c60c01b611d15565b61194f67288b98d430e334cd60c01b611d15565b61196367e6f0d0da97e8892060c01b611d15565b611977671b0e8ced3728020b60c01b611d15565b61198b67f28f5bb1a7071fe860c01b611d15565b61199f67205640308c3d68de60c01b611d15565b5f81036119d6576119ba67033fb59cd1d8576160c01b611d15565b6119ce6729da252131e2991c60c01b611d15565b429050611ace565b6119ea67e141b457d671d62160c01b611d15565b6119fe67ef9fa6f8c3ce900660c01b611d15565b4281108015611a1d5750611a1c67bd7da7d52fecfaa760c01b612d80565b5b80611a5157506276a70042611a329190613a91565b81118015611a505750611a4f67e98633cf0e0a43f860c01b612d80565b5b5b15611ab957611a6a67ca7233b13deaaccd60c01b611d15565b611a7e67b00e88f216b7ff2760c01b611d15565b6040517f08c379a0000000000000000000000000000000000000000000000000000000008152600401611ab090613c59565b60405180910390fd5b611acd67d4bbf1548b65d02a60c01b611d15565b5b611ae2679f1255c2a8d5ffbd60c01b611d15565b80600a81905550611afd67153797b8297969d660c01b611d15565b611b116796e939823661b16760c01b611d15565b7fc43e48cf47e9fa186d0f4096c61d1fcb54159799f935a2aa32e5589688ee36e181604051611b4091906135ed565b60405180910390a150565b5f33905090565b5f73ffffffffffffffffffffffffffffffffffffffff168373ffffffffffffffffffffffffffffffffffffffff1603611bc0576040517f08c379a0000000000000000000000000000000000000000000000000000000008152600401611bb790613c96565b60405180910390fd5b5f73ffffffffffffffffffffffffffffffffffffffff168273ffffffffffffffffffffffffffffffffffffffff1603611c2e576040517f08c379a0000000000000000000000000000000000000000000000000000000008152600401611c2590613cf9565b60405180910390fd5b8060015f8573ffffffffffffffffffffffffffffffffffffffff1673ffffffffffffffffffffffffffffffffffffffff1681526020019081526020015f205f8473ffffffffffffffffffffffffffffffffffffffff1673ffffffffffffffffffffffffffffffffffffffff1681526020019081526020015f20819055508173ffffffffffffffffffffffffffffffffffffffff168373ffffffffffffffffffffffffffffffffffffffff167f8c5be1e5ebec7d5bd14f71427d1e84f3dd0314c0f7b2291e5b200ac8c7c3b92583604051611d0891906135ed565b60405180910390a3505050565b50565b5f73ffffffffffffffffffffffffffffffffffffffff168273ffffffffffffffffffffffffffffffffffffffff1603611d86576040517f08c379a0000000000000000000000000000000000000000000000000000000008152600401611d7d90613d5c565b60405180910390fd5b611d915f8383612d8a565b8060025f828254611da29190613a91565b92505081905550805f808473ffffffffffffffffffffffffffffffffffffffff1673ffffffffffffffffffffffffffffffffffffffff1681526020019081526020015f205f82825401925050819055508173ffffffffffffffffffffffffffffffffffffffff165f73ffffffffffffffffffffffffffffffffffffffff167fddf252ad1be2c89b69c2b068fc378daa952ba7f163c4a11628f55a4df523b3ef83604051611e4f91906135ed565b60405180910390a3611e625f8383613054565b5050565b5f600254905090565b5f611e8467eff18f5d0f2978eb60c01b611d15565b611e9867501701d9da52a54460c01b611d15565b611eac67b540d6da0795cf6860c01b611d15565b611ec067b46282946cfabe7360c01b611d15565b5f5b7f0000000000000000000000000000000000000000000000000000000000000000811015611f2657611efe67541ae1fff890cb0d60c01b611d15565b611f1760095f8381526020019081526020015f20612611565b82019150806001019050611ec2565b5090565b5f611f3584846116fb565b90507fffffffffffffffffffffffffffffffffffffffffffffffffffffffffffffffff8114611faf5781811015611fa1576040517f08c379a0000000000000000000000000000000000000000000000000000000008152600401611f9890613d99565b60405180910390fd5b611fae8484848403611b52565b5b50505050565b5f73ffffffffffffffffffffffffffffffffffffffff168373ffffffffffffffffffffffffffffffffffffffff1603612023576040517f08c379a000000000000000000000000000000000000000000000000000000000815260040161201a90613dd6565b60405180910390fd5b5f73ffffffffffffffffffffffffffffffffffffffff168273ffffffffffffffffffffffffffffffffffffffff1603612091576040517f08c379a000000000000000000000000000000000000000000000000000000000815260040161208890613e39565b60405180910390fd5b61209c838383612d8a565b5f805f8573ffffffffffffffffffffffffffffffffffffffff1673ffffffffffffffffffffffffffffffffffffffff1681526020019081526020015f205490508181101561211f576040517f08c379a000000000000000000000000000000000000000000000000000000000815260040161211690613e9c565b60405180910390fd5b8181035f808673ffffffffffffffffffffffffffffffffffffffff1673ffffffffffffffffffffffffffffffffffffffff1681526020019081526020015f2081905550815f808573ffffffffffffffffffffffffffffffffffffffff1673ffffffffffffffffffffffffffffffffffffffff1681526020019081526020015f205f82825401925050819055508273ffffffffffffffffffffffffffffffffffffffff168473ffffffffffffffffffffffffffffffffffffffff167fddf252ad1be2c89b69c2b068fc378daa952ba7f163c4a11628f55a4df523b3ef8460405161220891906135ed565b60405180910390a361221b848484613054565b50505050565b5f7f000000000000000000000000000000000000000000000000000000000000000073ffffffffffffffffffffffffffffffffffffffff163073ffffffffffffffffffffffffffffffffffffffff1614801561229c57507f000000000000000000000000000000000000000000000000000000000000000046145b156122c9577f000000000000000000000000000000000000000000000000000000000000000090506122d4565b6122d1613059565b90505b90565b5f6122ec67f55afb3a1660f4c160c01b611d15565b61230067519ab2a6c6c838f860c01b611d15565b61231467516e3c11ed2eb29c60c01b611d15565b5f836002015f8473ffffffffffffffffffffffffffffffffffffffff1673ffffffffffffffffffffffffffffffffffffffff1681526020019081526020015f2054905061236b67e64135a739b3902960c01b611d15565b61237f673904616f8520556060c01b611d15565b5f81036123cb5761239a67cb17d2fdc879135c60c01b611d15565b6123ae67e360abbf0261287960c01b611d15565b6123c267e7ad40d1afab9ef660c01b611d15565b5f91505061260b565b6123df6714048bf9218c285660c01b611d15565b6123f3670b6f31a68bb2cc0960c01b611d15565b612407675f429df5ec40d70460c01b611d15565b61241b67d48f285d34571daa60c01b611d15565b5f846001015f9054906101000a90046fffffffffffffffffffffffffffffffff166fffffffffffffffffffffffffffffffff16600a5401905061246867014f78e4700f87b960c01b611d15565b61247c678e51bd4d9a89e87e60c01b611d15565b804210156124ca576124986781e27c8d79496db560c01b611d15565b6124ac67a0de2e39597de92960c01b611d15565b6124c067f60011d6c95f661560c01b611d15565b5f9250505061260b565b6124de67b4c674dbe94118eb60c01b611d15565b6124f267b2ce123ecd42ea5c60c01b611d15565b61250667997aa9ab02dc7b0260c01b611d15565b5f8560010160109054906101000a90046fffffffffffffffffffffffffffffffff166fffffffffffffffffffffffffffffffff16905061255067e7193218e08e7af360c01b611d15565b612564671d66ecb007cfe6cc60c01b611d15565b80820142106125b45761258167565879349dec7cb160c01b611d15565b61259567582eb9ff1b771be060c01b611d15565b6125a967e28d9c8d6ee88b2560c01b611d15565b82935050505061260b565b6125c8679a9afd16dd3b3f1860c01b611d15565b6125dc679b490646777bd82660c01b611d15565b6125f06777dacc5ba01c5eae60c01b611d15565b8082420384028161260457612603613a09565b5b0493505050505b92915050565b5f612626672fa5f143aee9e8e160c01b611d15565b61263a67e49c78925399548860c01b611d15565b61264e67ad2501a2b638392660c01b611d15565b5f825f015490506126696720927f3beab31ac960c01b611d15565b61267d67edde52b3583b43e160c01b611d15565b5f81036126c9576126986782500862a0fc417c60c01b611d15565b6126ac67091c602ad08c160060c01b611d15565b6126c06792b37ac54647a7f160c01b611d15565b5f915050612909565b6126dd67049185395151f21a60c01b611d15565b6126f16762d1e474f4cd7a4760c01b611d15565b61270567d814643e35f3541160c01b611d15565b61271967c3ab14cacab23d2d60c01b611d15565b5f836001015f9054906101000a90046fffffffffffffffffffffffffffffffff166fffffffffffffffffffffffffffffffff16600a54019050612766677d5e17a3d65c902e60c01b611d15565b61277a6707b37f1ece3a503a60c01b611d15565b804210156127c857612796672b8c0c9962b0763760c01b611d15565b6127aa6777078c7a8bbbb66e60c01b611d15565b6127be679c8a7416a28f7ed860c01b611d15565b5f92505050612909565b6127dc67af36b65766b1cc4660c01b611d15565b6127f067cddf8fd28eb4736760c01b611d15565b6128046722d3e102f68bb76360c01b611d15565b5f8460010160109054906101000a90046fffffffffffffffffffffffffffffffff166fffffffffffffffffffffffffffffffff16905061284e678a1cade43ab830ef60c01b611d15565b612862675199d106141c1e3b60c01b611d15565b80820142106128b25761287f67913b880512b580f060c01b611d15565b61289367021ccb9fd9c8541a60c01b611d15565b6128a767cd406889a3c0f58d60c01b611d15565b829350505050612909565b6128c6675a3da612878588b660c01b611d15565b6128da677f7df4e79f82b25a60c01b611d15565b6128ee674524fe596248665260c01b611d15565b8082420384028161290257612901613a09565b5b0493505050505b919050565b5f73ffffffffffffffffffffffffffffffffffffffff168273ffffffffffffffffffffffffffffffffffffffff160361297c576040517f08c379a000000000000000000000000000000000000000000000000000000000815260040161297390613eff565b60405180910390fd5b612987825f83612d8a565b5f805f8473ffffffffffffffffffffffffffffffffffffffff1673ffffffffffffffffffffffffffffffffffffffff1681526020019081526020015f2054905081811015612a0a576040517f08c379a0000000000000000000000000000000000000000000000000000000008152600401612a0190613f62565b60405180910390fd5b8181035f808573ffffffffffffffffffffffffffffffffffffffff1673ffffffffffffffffffffffffffffffffffffffff1681526020019081526020015f20819055508160025f82825403925050819055505f73ffffffffffffffffffffffffffffffffffffffff168373ffffffffffffffffffffffffffffffffffffffff167fddf252ad1be2c89b69c2b068fc378daa952ba7f163c4a11628f55a4df523b3ef84604051612ab991906135ed565b60405180910390a3612acc835f84613054565b505050565b5f612ae66720df0afd82ea351960c01b611d15565b612afa67b3a7d2fbbdda2be560c01b611d15565b612b0e67a89d56cc1252192a60c01b611d15565b612b22674f7db5f7f953b50060c01b611d15565b5f5b7f0000000000000000000000000000000000000000000000000000000000000000811015612b8957612b60670109878ab3734f6960c01b611d15565b612b7a60095f8381526020019081526020015f20846122d7565b82019150806001019050612b24565b50612b9e67f4965bdf58d6339b60c01b611d15565b600b5f8373ffffffffffffffffffffffffffffffffffffffff1673ffffffffffffffffffffffffffffffffffffffff1681526020019081526020015f205481039050919050565b5f805f8373ffffffffffffffffffffffffffffffffffffffff1673ffffffffffffffffffffffffffffffffffffffff1681526020019081526020015f20549050919050565b5f815f01549050919050565b606060ff5f1b8314612c5257612c4b836130ee565b9050612cdd565b818054612c5e90613809565b80601f0160208091040260200160405190810160405280929190818152602001828054612c8a90613809565b8015612cd55780601f10612cac57610100808354040283529160200191612cd5565b820191905f5260205f20905b815481529060010190602001808311612cb857829003601f168201915b505050505090505b92915050565b5f8060075f8473ffffffffffffffffffffffffffffffffffffffff1673ffffffffffffffffffffffffffffffffffffffff1681526020019081526020015f209050612d2d81612c2a565b9150612d3881613160565b50919050565b5f612d50612d4a612221565b83613174565b9050919050565b5f805f612d66878787876131b4565b91509150612d738161328c565b8192505050949350505050565b5f60019050919050565b612d9e67729628d97cd83f6960c01b611d15565b612db26782d3b191682b14c260c01b611d15565b612dc6670cbee67176a7d64860c01b611d15565b5f73ffffffffffffffffffffffffffffffffffffffff168373ffffffffffffffffffffffffffffffffffffffff161461303a57612e0d676789a8cf2e39146d60c01b611d15565b612e2167a735e0ba640832ac60c01b611d15565b612e356755a2ec41281ec6a260c01b611d15565b5f600a549050612e4f674e1e5a3e5b94bc8c60c01b611d15565b612e636709a892dc003254d460c01b611d15565b612e7767acf962cdeae2afbc60c01b611d15565b5f8114158015612e875750428111155b612ec6576040517f08c379a0000000000000000000000000000000000000000000000000000000008152600401612ebd90613fc5565b60405180910390fd5b612eda67c47de7d95744ca4e60c01b611d15565b612eee676d6506c02944b9c660c01b611d15565b612f0267ce02fb20a6c524a660c01b611d15565b5f612f0c85612ad1565b9050612f2267edf9b6375879b82260c01b611d15565b612f36679040a445d6f2d11c60c01b611d15565b5f81111561301e57612f52678def086a4634709660c01b611d15565b612f666720cae8e4eeb02d5660c01b611d15565b612f7a6782707b21de1a959260c01b611d15565b612f848582611d18565b612f98674c43dcaf297c790b60c01b611d15565b612fac67ce283e30c93cd69f60c01b611d15565b80600f5f8282540192505081905550612fcf67d9f59dd0ba8dd0e960c01b611d15565b80600b5f8773ffffffffffffffffffffffffffffffffffffffff1673ffffffffffffffffffffffffffffffffffffffff1681526020019081526020015f205f8282540192505081905550613033565b6130326719508113f502932660c01b611d15565b5b505061304f565b61304e676d0af74825cb59b160c01b611d15565b5b505050565b505050565b5f7f8b73c3c69bb8fe3d512ecc4cf759cc79239f7b179b0ffacaa9a75d522b39400f7f00000000000000000000000000000000000000000000000000000000000000007f000000000000000000000000000000000000000000000000000000000000000046306040516020016130d3959493929190614002565b60405160208183030381529060405280519060200120905090565b60605f6130fa836133f1565b90505f602067ffffffffffffffff81111561311857613117613b02565b5b6040519080825280601f01601f19166020018201604052801561314a5781602001600182028036833780820191505090505b5090508181528360208201528092505050919050565b6001815f015f828254019250508190555050565b5f6040517f190100000000000000000000000000000000000000000000000000000000000081528360028201528260228201526042812091505092915050565b5f807f7fffffffffffffffffffffffffffffff5d576e7357a4501ddfe92f46681b20a0835f1c11156131ec575f600391509150613283565b5f6001878787876040515f815260200160405260405161320f9493929190614044565b6020604051602081039080840390855afa15801561322f573d5f803e3d5ffd5b5050506020604051035190505f73ffffffffffffffffffffffffffffffffffffffff168173ffffffffffffffffffffffffffffffffffffffff160361327b575f60019250925050613283565b805f92509250505b94509492505050565b5f600481111561329f5761329e61406c565b5b8160048111156132b2576132b161406c565b5b03156133ee57600160048111156132cc576132cb61406c565b5b8160048111156132df576132de61406c565b5b0361331f576040517f08c379a000000000000000000000000000000000000000000000000000000000815260040161331690614099565b60405180910390fd5b600260048111156133335761333261406c565b5b8160048111156133465761334561406c565b5b03613386576040517f08c379a000000000000000000000000000000000000000000000000000000000815260040161337d906140d6565b60405180910390fd5b6003600481111561339a5761339961406c565b5b8160048111156133ad576133ac61406c565b5b036133ed576040517f08c379a00000000000000000000000000000000000000000000000000000000081526004016133e490614113565b60405180910390fd5b5b50565b5f8060ff835f1c169050601f811115613436576040517fb3512b0c00000000000000000000000000000000000000000000000000000000815260040160405180910390fd5b80915050919050565b5f6020828403121561344f575f80fd5b8135905092915050565b5f6060820190508482526fffffffffffffffffffffffffffffffff8085166020840152808416604084015250949350505050565b5f81518084525f5b818110156134b757602080828601015181838801015250602081019050613495565b505f6020828601015260207fffffffffffffffffffffffffffffffffffffffffffffffffffffffffffffffe0601f83011685010191505092915050565b602081525f613506602083018461348d565b905092915050565b5f8135905073ffffffffffffffffffffffffffffffffffffffff81168114613534575f80fd5b919050565b5f806040838503121561354a575f80fd5b6135538361350e565b9150602083013590509250929050565b5f602082019050821515825292915050565b5f805f60408486031215613587575f80fd5b83359250602084013567ffffffffffffffff808211156135a5575f80fd5b818601915086601f8301126135b8575f80fd5b8135818111156135c6575f80fd5b8760208260061b85010111156135da575f80fd5b6020830194508093505050509250925092565b5f60208201905082825292915050565b5f805f6060848603121561360f575f80fd5b6136188461350e565b92506136266020850161350e565b9150604084013590509250925092565b5f60208201905060ff8316825292915050565b5f60208201905082825292915050565b5f806040838503121561366a575f80fd5b8235915061367a6020840161350e565b90509250929050565b5f60208284031215613693575f80fd5b61369c8261350e565b905092915050565b7fff00000000000000000000000000000000000000000000000000000000000000881681525f602060e0818401526136df60e084018a61348d565b83810360408501526136f1818a61348d565b905087606085015273ffffffffffffffffffffffffffffffffffffffff871660808501528560a085015283810360c0850152808551808352838301915083870192505f5b81811015613756578351835284830192508484019350600181019050613735565b505080935050505098975050505050505050565b5f805f805f805f60e0888a031215613780575f80fd5b6137898861350e565b96506137976020890161350e565b95506040880135945060608801359350608088013560ff811681146137ba575f80fd5b8093505060a0880135915060c0880135905092959891949750929550565b5f80604083850312156137e9575f80fd5b6137f28361350e565b91506138006020840161350e565b90509250929050565b5f8160011c9050600182168061382057607f821691505b602082108103613857577f4e487b71000000000000000000000000000000000000000000000000000000005f52602260045260245ffd5b50919050565b60208152601860208201527f4553453a20416c726561647920696e697469616c697a6564000000000000000060408201525f606082019050919050565b60208152601c60208201527f4553453a2043616c6c6572206e6f74205f696e697469616c697a65720000000060408201525f606082019050919050565b60208152601260208201527f4553453a20496e76616c6964207374616765000000000000000000000000000060408201525f606082019050919050565b7f4e487b71000000000000000000000000000000000000000000000000000000005f52603260045260245ffd5b60208152601860208201527f4553453a20496e76616c69642042656e6566696369617279000000000000000060408201525f606082019050919050565b60208152601e60208201527f4553453a2042656e656669636961727920616c7265616479206164646564000060408201525f606082019050919050565b7f4e487b71000000000000000000000000000000000000000000000000000000005f52601160045260245ffd5b5f82820290508181048314821517613a0357613a026139bb565b5b92915050565b7f4e487b71000000000000000000000000000000000000000000000000000000005f52601260045260245ffd5b5f82613a69577f4e487b71000000000000000000000000000000000000000000000000000000005f52601260045260245ffd5b828204905092915050565b5f828203905081811115613a8b57613a8a6139bb565b5b92915050565b5f828201905080821115613aa857613aa76139bb565b5b92915050565b5f6040820190508382528260208301529392505050565b60208152600d60208201527f4553453a204f766572666c6f770000000000000000000000000000000000000060408201525f606082019050919050565b7f4e487b71000000000000000000000000000000000000000000000000000000005f52604160045260245ffd5b60208152602560208201527f45524332303a2064656372656173656420616c6c6f77616e63652062656c6f7760408201527f207a65726f00000000000000000000000000000000000000000000000000000060608201525f608082019050919050565b60208152601d60208201527f45524332305065726d69743a206578706972656420646561646c696e6500000060408201525f606082019050919050565b5f60c08201905087825273ffffffffffffffffffffffffffffffffffffffff80881660208401528087166040840152508460608301528360808301528260a0830152979650505050505050565b60208152601e60208201527f45524332305065726d69743a20696e76616c6964207369676e6174757265000060408201525f606082019050919050565b60208152601a60208201527f4553453a20496e76616c6964205447452074696d657374616d7000000000000060408201525f606082019050919050565b60208152602460208201527f45524332303a20617070726f76652066726f6d20746865207a65726f2061646460408201527f726573730000000000000000000000000000000000000000000000000000000060608201525f608082019050919050565b60208152602260208201527f45524332303a20617070726f766520746f20746865207a65726f20616464726560408201527f737300000000000000000000000000000000000000000000000000000000000060608201525f608082019050919050565b60208152601f60208201527f45524332303a206d696e7420746f20746865207a65726f20616464726573730060408201525f606082019050919050565b60208152601d60208201527f45524332303a20696e73756666696369656e7420616c6c6f77616e636500000060408201525f606082019050919050565b60208152602560208201527f45524332303a207472616e736665722066726f6d20746865207a65726f20616460408201527f647265737300000000000000000000000000000000000000000000000000000060608201525f608082019050919050565b60208152602360208201527f45524332303a207472616e7366657220746f20746865207a65726f206164647260408201527f657373000000000000000000000000000000000000000000000000000000000060608201525f608082019050919050565b60208152602660208201527f45524332303a207472616e7366657220616d6f756e742065786365656473206260408201527f616c616e6365000000000000000000000000000000000000000000000000000060608201525f608082019050919050565b60208152602160208201527f45524332303a206275726e2066726f6d20746865207a65726f2061646472657360408201527f730000000000000000000000000000000000000000000000000000000000000060608201525f608082019050919050565b60208152602260208201527f45524332303a206275726e20616d6f756e7420657863656564732062616c616e60408201527f636500000000000000000000000000000000000000000000000000000000000060608201525f608082019050919050565b60208152601460208201527f4553453a20544745206e6f74207374617274656400000000000000000000000060408201525f606082019050919050565b5f60a08201905086825285602083015284604083015283606083015273ffffffffffffffffffffffffffffffffffffffff831660808301529695505050505050565b5f60808201905085825260ff8516602083015283604083015282606083015295945050505050565b7f4e487b71000000000000000000000000000000000000000000000000000000005f52602160045260245ffd5b60208152601860208201527f45434453413a20696e76616c6964207369676e6174757265000000000000000060408201525f606082019050919050565b60208152601f60208201527f45434453413a20696e76616c6964207369676e6174757265206c656e6774680060408201525f606082019050919050565b60208152602260208201527f45434453413a20696e76616c6964207369676e6174757265202773272076616c60408201527f756500000000000000000000000000000000000000000000000000000000000060608201525f60808201905091905056fea26469706673582212209e3973cca3db11c0e3f1de656c38023226ced1129f01066ac758713ad1b9543e64736f6c63430008150033",
  "linkReferences": {},
  "deployedLinkReferences": {}
}