{
  "_format": "hh-sol-artifact-1",
  "contractName": "EeseeNFTDrop",
  "sourceName": "contracts/NFT/EeseeNFTDrop.sol",
  "abi": [
    {
      "inputs": [],
      "name": "ApprovalCallerNotOwnerNorApproved",
      "type": "error"
    },
    {
      "inputs": [],
      "name": "ApprovalQueryForNonexistentToken",
      "type": "error"
    },
    {
      "inputs": [],
      "name": "BalanceQueryForZeroAddress",
      "type": "error"
    },
    {
      "inputs": [],
      "name": "InvalidProof",
      "type": "error"
    },
    {
      "inputs": [],
      "name": "InvalidStage",
      "type": "error"
    },
    {
      "inputs": [],
      "name": "MintERC2309QuantityExceedsLimit",
      "type": "error"
    },
    {
      "inputs": [],
      "name": "MintLimitExceeded",
      "type": "error"
    },
    {
      "inputs": [],
      "name": "MintTimestampNotInFuture",
      "type": "error"
    },
    {
      "inputs": [],
      "name": "MintToZeroAddress",
      "type": "error"
    },
    {
      "inputs": [],
      "name": "MintZeroQuantity",
      "type": "error"
    },
    {
      "inputs": [],
      "name": "MintingEnded",
      "type": "error"
    },
    {
      "inputs": [],
      "name": "MintingNotStarted",
      "type": "error"
    },
    {
      "inputs": [],
      "name": "OwnerQueryForNonexistentToken",
      "type": "error"
    },
    {
      "inputs": [],
      "name": "OwnershipNotInitializedForExtraData",
      "type": "error"
    },
    {
      "inputs": [],
      "name": "PresaleStageLimitExceeded",
      "type": "error"
    },
    {
      "inputs": [],
      "name": "TransferCallerNotOwnerNorApproved",
      "type": "error"
    },
    {
      "inputs": [],
      "name": "TransferFromIncorrectOwner",
      "type": "error"
    },
    {
      "inputs": [],
      "name": "TransferToNonERC721ReceiverImplementer",
      "type": "error"
    },
    {
      "inputs": [],
      "name": "TransferToZeroAddress",
      "type": "error"
    },
    {
      "inputs": [],
      "name": "URIQueryForNonexistentToken",
      "type": "error"
    },
    {
      "inputs": [],
      "name": "ZeroSaleStageDuration",
      "type": "error"
    },
    {
      "anonymous": false,
      "inputs": [
        {
          "indexed": true,
          "internalType": "address",
          "name": "owner",
          "type": "address"
        },
        {
          "indexed": true,
          "internalType": "address",
          "name": "approved",
          "type": "address"
        },
        {
          "indexed": true,
          "internalType": "uint256",
          "name": "tokenId",
          "type": "uint256"
        }
      ],
      "name": "Approval",
      "type": "event"
    },
    {
      "anonymous": false,
      "inputs": [
        {
          "indexed": true,
          "internalType": "address",
          "name": "owner",
          "type": "address"
        },
        {
          "indexed": true,
          "internalType": "address",
          "name": "operator",
          "type": "address"
        },
        {
          "indexed": false,
          "internalType": "bool",
          "name": "approved",
          "type": "bool"
        }
      ],
      "name": "ApprovalForAll",
      "type": "event"
    },
    {
      "anonymous": false,
      "inputs": [
        {
          "indexed": true,
          "internalType": "uint256",
          "name": "fromTokenId",
          "type": "uint256"
        },
        {
          "indexed": false,
          "internalType": "uint256",
          "name": "toTokenId",
          "type": "uint256"
        },
        {
          "indexed": true,
          "internalType": "address",
          "name": "from",
          "type": "address"
        },
        {
          "indexed": true,
          "internalType": "address",
          "name": "to",
          "type": "address"
        }
      ],
      "name": "ConsecutiveTransfer",
      "type": "event"
    },
    {
      "anonymous": false,
      "inputs": [
        {
          "indexed": false,
          "internalType": "uint8",
          "name": "version",
          "type": "uint8"
        }
      ],
      "name": "Initialized",
      "type": "event"
    },
    {
      "anonymous": false,
      "inputs": [
        {
          "indexed": true,
          "internalType": "address",
          "name": "from",
          "type": "address"
        },
        {
          "indexed": true,
          "internalType": "address",
          "name": "to",
          "type": "address"
        },
        {
          "indexed": true,
          "internalType": "uint256",
          "name": "tokenId",
          "type": "uint256"
        }
      ],
      "name": "Transfer",
      "type": "event"
    },
    {
      "inputs": [
        {
          "internalType": "address",
          "name": "to",
          "type": "address"
        },
        {
          "internalType": "uint256",
          "name": "tokenId",
          "type": "uint256"
        }
      ],
      "name": "approve",
      "outputs": [],
      "stateMutability": "payable",
      "type": "function"
    },
    {
      "inputs": [
        {
          "internalType": "address",
          "name": "owner",
          "type": "address"
        }
      ],
      "name": "balanceOf",
      "outputs": [
        {
          "internalType": "uint256",
          "name": "",
          "type": "uint256"
        }
      ],
      "stateMutability": "view",
      "type": "function"
    },
    {
      "inputs": [],
      "name": "baseURI",
      "outputs": [
        {
          "internalType": "string",
          "name": "",
          "type": "string"
        }
      ],
      "stateMutability": "view",
      "type": "function"
    },
    {
      "inputs": [],
      "name": "contractURI",
      "outputs": [
        {
          "internalType": "string",
          "name": "",
          "type": "string"
        }
      ],
      "stateMutability": "view",
      "type": "function"
    },
    {
      "inputs": [
        {
          "internalType": "uint256",
          "name": "tokenId",
          "type": "uint256"
        }
      ],
      "name": "getApproved",
      "outputs": [
        {
          "internalType": "address",
          "name": "",
          "type": "address"
        }
      ],
      "stateMutability": "view",
      "type": "function"
    },
    {
      "inputs": [],
      "name": "getSaleStage",
      "outputs": [
        {
          "internalType": "uint8",
          "name": "index",
          "type": "uint8"
        }
      ],
      "stateMutability": "view",
      "type": "function"
    },
    {
      "inputs": [],
      "name": "getTrustedForwarder",
      "outputs": [
        {
          "internalType": "address",
          "name": "forwarder",
          "type": "address"
        }
      ],
      "stateMutability": "view",
      "type": "function"
    },
    {
      "inputs": [
        {
          "components": [
            {
              "internalType": "string",
              "name": "name",
              "type": "string"
            },
            {
              "internalType": "string",
              "name": "symbol",
              "type": "string"
            },
            {
              "internalType": "string",
              "name": "baseURI",
              "type": "string"
            },
            {
              "internalType": "string",
              "name": "revealedURI",
              "type": "string"
            },
            {
              "internalType": "string",
              "name": "contractURI",
              "type": "string"
            },
            {
              "internalType": "address",
              "name": "royaltyReceiver",
              "type": "address"
            },
            {
              "internalType": "uint96",
              "name": "royaltyFeeNumerator",
              "type": "uint96"
            }
          ],
          "internalType": "struct DropMetadata",
          "name": "metadata",
          "type": "tuple"
        },
        {
          "internalType": "uint32",
          "name": "_mintLimit",
          "type": "uint32"
        },
        {
          "internalType": "uint32",
          "name": "mintStartTimestamp",
          "type": "uint32"
        },
        {
          "components": [
            {
              "internalType": "uint32",
              "name": "duration",
              "type": "uint32"
            },
            {
              "internalType": "uint32",
              "name": "perAddressMintLimit",
              "type": "uint32"
            },
            {
              "internalType": "bytes32",
              "name": "allowListMerkleRoot",
              "type": "bytes32"
            }
          ],
          "internalType": "struct IEeseeNFTDrop.StageOptions[]",
          "name": "salesOptions",
          "type": "tuple[]"
        },
        {
          "internalType": "contract IEeseeRandom",
          "name": "_random",
          "type": "address"
        },
        {
          "internalType": "address",
          "name": "_minter",
          "type": "address"
        },
        {
          "internalType": "address",
          "name": "trustedForwarder",
          "type": "address"
        }
      ],
      "name": "initialize",
      "outputs": [],
      "stateMutability": "nonpayable",
      "type": "function"
    },
    {
      "inputs": [
        {
          "internalType": "address",
          "name": "owner",
          "type": "address"
        },
        {
          "internalType": "address",
          "name": "operator",
          "type": "address"
        }
      ],
      "name": "isApprovedForAll",
      "outputs": [
        {
          "internalType": "bool",
          "name": "",
          "type": "bool"
        }
      ],
      "stateMutability": "view",
      "type": "function"
    },
    {
      "inputs": [
        {
          "internalType": "address",
          "name": "forwarder",
          "type": "address"
        }
      ],
      "name": "isTrustedForwarder",
      "outputs": [
        {
          "internalType": "bool",
          "name": "",
          "type": "bool"
        }
      ],
      "stateMutability": "view",
      "type": "function"
    },
    {
      "inputs": [
        {
          "internalType": "address",
          "name": "recipient",
          "type": "address"
        },
        {
          "internalType": "uint32",
          "name": "quantity",
          "type": "uint32"
        },
        {
          "internalType": "bytes32[]",
          "name": "merkleProof",
          "type": "bytes32[]"
        }
      ],
      "name": "mint",
      "outputs": [],
      "stateMutability": "nonpayable",
      "type": "function"
    },
    {
      "inputs": [],
      "name": "mintLimit",
      "outputs": [
        {
          "internalType": "uint32",
          "name": "",
          "type": "uint32"
        }
      ],
      "stateMutability": "view",
      "type": "function"
    },
    {
      "inputs": [],
      "name": "minter",
      "outputs": [
        {
          "internalType": "address",
          "name": "",
          "type": "address"
        }
      ],
      "stateMutability": "view",
      "type": "function"
    },
    {
      "inputs": [],
      "name": "name",
      "outputs": [
        {
          "internalType": "string",
          "name": "",
          "type": "string"
        }
      ],
      "stateMutability": "view",
      "type": "function"
    },
    {
      "inputs": [],
      "name": "nextTokenId",
      "outputs": [
        {
          "internalType": "uint256",
          "name": "",
          "type": "uint256"
        }
      ],
      "stateMutability": "view",
      "type": "function"
    },
    {
      "inputs": [
        {
          "internalType": "uint256",
          "name": "tokenId",
          "type": "uint256"
        }
      ],
      "name": "ownerOf",
      "outputs": [
        {
          "internalType": "address",
          "name": "",
          "type": "address"
        }
      ],
      "stateMutability": "view",
      "type": "function"
    },
    {
      "inputs": [],
      "name": "random",
      "outputs": [
        {
          "internalType": "contract IEeseeRandom",
          "name": "",
          "type": "address"
        }
      ],
      "stateMutability": "view",
      "type": "function"
    },
    {
      "inputs": [],
      "name": "revealedURI",
      "outputs": [
        {
          "internalType": "string",
          "name": "",
          "type": "string"
        }
      ],
      "stateMutability": "view",
      "type": "function"
    },
    {
      "inputs": [
        {
          "internalType": "uint256",
          "name": "tokenId",
          "type": "uint256"
        },
        {
          "internalType": "uint256",
          "name": "salePrice",
          "type": "uint256"
        }
      ],
      "name": "royaltyInfo",
      "outputs": [
        {
          "internalType": "address",
          "name": "",
          "type": "address"
        },
        {
          "internalType": "uint256",
          "name": "",
          "type": "uint256"
        }
      ],
      "stateMutability": "view",
      "type": "function"
    },
    {
      "inputs": [
        {
          "internalType": "address",
          "name": "from",
          "type": "address"
        },
        {
          "internalType": "address",
          "name": "to",
          "type": "address"
        },
        {
          "internalType": "uint256",
          "name": "tokenId",
          "type": "uint256"
        }
      ],
      "name": "safeTransferFrom",
      "outputs": [],
      "stateMutability": "payable",
      "type": "function"
    },
    {
      "inputs": [
        {
          "internalType": "address",
          "name": "from",
          "type": "address"
        },
        {
          "internalType": "address",
          "name": "to",
          "type": "address"
        },
        {
          "internalType": "uint256",
          "name": "tokenId",
          "type": "uint256"
        },
        {
          "internalType": "bytes",
          "name": "_data",
          "type": "bytes"
        }
      ],
      "name": "safeTransferFrom",
      "outputs": [],
      "stateMutability": "payable",
      "type": "function"
    },
    {
      "inputs": [
        {
          "internalType": "address",
          "name": "operator",
          "type": "address"
        },
        {
          "internalType": "bool",
          "name": "approved",
          "type": "bool"
        }
      ],
      "name": "setApprovalForAll",
      "outputs": [],
      "stateMutability": "nonpayable",
      "type": "function"
    },
    {
      "inputs": [
        {
          "internalType": "uint256",
          "name": "",
          "type": "uint256"
        }
      ],
      "name": "stages",
      "outputs": [
        {
          "internalType": "uint32",
          "name": "startTimestamp",
          "type": "uint32"
        },
        {
          "components": [
            {
              "internalType": "uint32",
              "name": "duration",
              "type": "uint32"
            },
            {
              "internalType": "uint32",
              "name": "perAddressMintLimit",
              "type": "uint32"
            },
            {
              "internalType": "bytes32",
              "name": "allowListMerkleRoot",
              "type": "bytes32"
            }
          ],
          "internalType": "struct IEeseeNFTDrop.StageOptions",
          "name": "stageOptions",
          "type": "tuple"
        }
      ],
      "stateMutability": "view",
      "type": "function"
    },
    {
      "inputs": [
        {
          "internalType": "bytes4",
          "name": "interfaceId",
          "type": "bytes4"
        }
      ],
      "name": "supportsInterface",
      "outputs": [
        {
          "internalType": "bool",
          "name": "",
          "type": "bool"
        }
      ],
      "stateMutability": "view",
      "type": "function"
    },
    {
      "inputs": [],
      "name": "symbol",
      "outputs": [
        {
          "internalType": "string",
          "name": "",
          "type": "string"
        }
      ],
      "stateMutability": "view",
      "type": "function"
    },
    {
      "inputs": [
        {
          "internalType": "uint256",
          "name": "tokenId",
          "type": "uint256"
        }
      ],
      "name": "tokenURI",
      "outputs": [
        {
          "internalType": "string",
          "name": "",
          "type": "string"
        }
      ],
      "stateMutability": "view",
      "type": "function"
    },
    {
      "inputs": [],
      "name": "totalSupply",
      "outputs": [
        {
          "internalType": "uint256",
          "name": "",
          "type": "uint256"
        }
      ],
      "stateMutability": "view",
      "type": "function"
    },
    {
      "inputs": [
        {
          "internalType": "address",
          "name": "from",
          "type": "address"
        },
        {
          "internalType": "address",
          "name": "to",
          "type": "address"
        },
        {
          "internalType": "uint256",
          "name": "tokenId",
          "type": "uint256"
        }
      ],
      "name": "transferFrom",
      "outputs": [],
      "stateMutability": "payable",
      "type": "function"
    },
    {
      "inputs": [
        {
          "internalType": "uint8",
          "name": "saleStageIndex",
          "type": "uint8"
        },
        {
          "internalType": "address",
          "name": "claimer",
          "type": "address"
        },
        {
          "internalType": "bytes32[]",
          "name": "merkleProof",
          "type": "bytes32[]"
        }
      ],
      "name": "verifyCanMint",
      "outputs": [
        {
          "internalType": "bool",
          "name": "",
          "type": "bool"
        }
      ],
      "stateMutability": "view",
      "type": "function"
    }
  ],
  "bytecode": "0x608060405234801561000f575f80fd5b50614db38061001d5f395ff3fe6080604052600436106101c1575f3560e01c80636c0360eb116100f6578063b88d4fde11610094578063e8a3d48511610063578063e8a3d48514610647578063e985e9c514610671578063ea856cb8146106ad578063f7e8d6ea146106d5576101c1565b8063b88d4fde1461059d578063c87b56dd146105b9578063ce1b815f146105f5578063daefb20c1461061f576101c1565b8063845ddcb2116100d0578063845ddcb2146104e457806395d89b4114610521578063996517cf1461054b578063a22cb46514610575576101c1565b80636c0360eb1461045457806370a082311461047e57806375794a3c146104ba576101c1565b806323b872dd1161016357806345c16a221161013d57806345c16a2214610388578063572b6c05146103b25780635ec01e4d146103ee5780636352211e14610418576101c1565b806323b872dd146103135780632a55205a1461032f57806342842e0e1461036c576101c1565b8063081812fc1161019f578063081812fc14610255578063095ea7b31461029157806316497e15146102ad57806318160ddd146102e9576101c1565b806301ffc9a7146101c557806306fdde0314610201578063075461721461022b575b5f80fd5b3480156101d0575f80fd5b506101eb60048036038101906101e69190613e55565b6106ff565b6040516101f89190613e7a565b60405180910390f35b34801561020c575f80fd5b50610215610794565b6040516102229190613eff565b60405180910390f35b348015610236575f80fd5b5061023f61082d565b60405161024c9190613f19565b60405180910390f35b348015610260575f80fd5b5061027b60048036038101906102769190613f3f565b610852565b6040516102889190613f19565b60405180910390f35b6102ab60048036038101906102a69190613f90565b6108d5565b005b3480156102b8575f80fd5b506102d360048036038101906102ce9190614007565b6108e5565b6040516102e09190613e7a565b60405180910390f35b3480156102f4575f80fd5b506102fd610a19565b60405161030a9190614078565b60405180910390f35b61032d60048036038101906103289190614088565b610a40565b005b34801561033a575f80fd5b50610355600480360381019061035091906140c9565b610d84565b6040516103639291906140ec565b60405180910390f35b61038660048036038101906103819190614088565b610f60565b005b348015610393575f80fd5b5061039c610f7f565b6040516103a99190614119565b60405180910390f35b3480156103bd575f80fd5b506103d860048036038101906103d3919061412c565b6111a7565b6040516103e59190613e7a565b60405180910390f35b3480156103f9575f80fd5b506104026111ff565b60405161040f9190614151565b60405180910390f35b348015610423575f80fd5b5061043e60048036038101906104399190613f3f565b611224565b60405161044b9190613f19565b60405180910390f35b34801561045f575f80fd5b50610468611235565b6040516104759190613eff565b60405180910390f35b348015610489575f80fd5b506104a4600480360381019061049f919061412c565b6112c1565b6040516104b19190614078565b60405180910390f35b3480156104c5575f80fd5b506104ce61137f565b6040516104db9190614078565b60405180910390f35b3480156104ef575f80fd5b5061050a60048036038101906105059190613f3f565b6113c9565b604051610518929190614177565b60405180910390f35b34801561052c575f80fd5b50610535611464565b6040516105429190613eff565b60405180910390f35b348015610556575f80fd5b5061055f6114fd565b60405161056c91906141af565b60405180910390f35b348015610580575f80fd5b5061059b600480360381019061059691906141c5565b611512565b005b6105b760048036038101906105b2919061422f565b611621565b005b3480156105c4575f80fd5b506105df60048036038101906105da9190613f3f565b611693565b6040516105ec9190613eff565b60405180910390f35b348015610600575f80fd5b50610609611be5565b6040516106169190613f19565b60405180910390f35b34801561062a575f80fd5b5061064560048036038101906106409190614341565b611c0d565b005b348015610652575f80fd5b5061065b6123e3565b6040516106689190613eff565b60405180910390f35b34801561067c575f80fd5b50610697600480360381019061069291906143ad565b61246f565b6040516106a49190613e7a565b60405180910390f35b3480156106b8575f80fd5b506106d360048036038101906106ce91906143e6565b612506565b005b3480156106e0575f80fd5b506106e9612b83565b6040516106f69190613eff565b60405180910390f35b5f61071467918efe4bcdc0b8e660c01b612c0f565b6107286716aa33ecd41095f960c01b612c0f565b61073c677a37b6a77c4db1e360c01b612c0f565b61074582612c12565b80156107615750610760674e8060dceeb6545360c01b612ca3565b5b8061078d575061077082612cad565b801561078c575061078b678d7d009c9e486d3c60c01b612ca3565b5b5b9050919050565b606061079e612d26565b60020180546107ac906144dc565b80601f01602080910402602001604051908101604052809291908181526020018280546107d8906144dc565b80156108235780601f106107fa57610100808354040283529160200191610823565b820191905f5260205f20905b81548152906001019060200180831161080657829003601f168201915b5050505050905090565b600a5f9054906101000a900473ffffffffffffffffffffffffffffffffffffffff1681565b5f61085c82612d52565b610892576040517fcf4700e400000000000000000000000000000000000000000000000000000000815260040160405180910390fd5b61089a612d26565b6006015f8381526020019081526020015f205f015f9054906101000a900473ffffffffffffffffffffffffffffffffffffffff169050919050565b6108e182826001612dbe565b5050565b5f6108fa67f0caab63f0087e7b60c01b612c0f565b61090e67975b8a0c331f2b7760c01b612c0f565b61092267067bc385d28b3c9260c01b612c0f565b5f846040516020016109349190613f19565b6040516020818303038152906040528051906020012060405160200161095a9190614530565b60405160208183030381529060405280519060200120905061098667dcd77f5d0957c95c60c01b612c0f565b61099a67d0ad1a0d86a099db60c01b612c0f565b610a0e8484808060200260200160405190810160405280939291908181526020018383602002808284375f81840152601f19601f8201169050808301925050505050505060088860ff16815481106109f5576109f4614540565b5b905f5260205f2090600402016002016001015483612f0e565b915050949350505050565b5f610a22612f24565b610a2a612d26565b60010154610a36612d26565b5f01540303905090565b5f610a4a82612f68565b90508373ffffffffffffffffffffffffffffffffffffffff168173ffffffffffffffffffffffffffffffffffffffff1614610ab1576040517fa114810000000000000000000000000000000000000000000000000000000000815260040160405180910390fd5b5f80610abc84613072565b91509150610ad28187610acd61309e565b6130e8565b610b1e57610ae786610ae261309e565b61246f565b610b1d576040517f59c896be00000000000000000000000000000000000000000000000000000000815260040160405180910390fd5b5b5f73ffffffffffffffffffffffffffffffffffffffff168573ffffffffffffffffffffffffffffffffffffffff1603610b83576040517fea553b3400000000000000000000000000000000000000000000000000000000815260040160405180910390fd5b610b90868686600161312b565b8015610b9a575f82555b610ba2612d26565b6005015f8773ffffffffffffffffffffffffffffffffffffffff1673ffffffffffffffffffffffffffffffffffffffff1681526020019081526020015f205f81546001900391905081905550610bf6612d26565b6005015f8673ffffffffffffffffffffffffffffffffffffffff1673ffffffffffffffffffffffffffffffffffffffff1681526020019081526020015f205f815460010191905081905550610c7485610c50888887613131565b7c020000000000000000000000000000000000000000000000000000000017613158565b610c7c612d26565b6004015f8681526020019081526020015f20819055505f7c0200000000000000000000000000000000000000000000000000000000841603610d14575f6001850190505f610cc8612d26565b6004015f8381526020019081526020015f205403610d1257610ce8612d26565b5f01548114610d115783610cfa612d26565b6004015f8381526020019081526020015f20819055505b5b505b838573ffffffffffffffffffffffffffffffffffffffff168773ffffffffffffffffffffffffffffffffffffffff167fddf252ad1be2c89b69c2b068fc378daa952ba7f163c4a11628f55a4df523b3ef60405160405180910390a4610d7c8686866001613182565b505050505050565b5f805f60025f8681526020019081526020015f206040518060400160405290815f82015f9054906101000a900473ffffffffffffffffffffffffffffffffffffffff1673ffffffffffffffffffffffffffffffffffffffff1673ffffffffffffffffffffffffffffffffffffffff1681526020015f820160149054906101000a90046bffffffffffffffffffffffff166bffffffffffffffffffffffff166bffffffffffffffffffffffff168152505090505f73ffffffffffffffffffffffffffffffffffffffff16815f015173ffffffffffffffffffffffffffffffffffffffff1603610f0d5760016040518060400160405290815f82015f9054906101000a900473ffffffffffffffffffffffffffffffffffffffff1673ffffffffffffffffffffffffffffffffffffffff1673ffffffffffffffffffffffffffffffffffffffff1681526020015f820160149054906101000a90046bffffffffffffffffffffffff166bffffffffffffffffffffffff166bffffffffffffffffffffffff168152505090505b5f610f16613188565b6bffffffffffffffffffffffff1682602001516bffffffffffffffffffffffff1686610f42919061459a565b610f4c91906145e8565b9050815f0151819350935050509250929050565b610f7a83838360405180602001604052805f815250611621565b505050565b5f610f94676e5857ef953e4e0260c01b612c0f565b610fa867df7132af0720241c60c01b612c0f565b610fbc6754609a3d9cb0f06060c01b612c0f565b5f6008805490509050610fd9675a219c03b7f06e3b60c01b612c0f565b610fed67fd7b9527f6303f6460c01b612c0f565b5f5b818160ff1610156111765761100e6799cde45aa9b6b14c60c01b612c0f565b6110226779b5c5e3c5d4041860c01b612c0f565b5f60088260ff168154811061103a57611039614540565b5b905f5260205f209060040201905061105c671dd4ad1a13d66c5560c01b612c0f565b61107067d5d5fd9c8161d46360c01b612c0f565b6110846708ab0d1febce2d8560c01b612c0f565b5f815f015f9054906101000a900463ffffffff1663ffffffff1690506110b46718b584558f391e1e60c01b612c0f565b6110c867988f48a1fcf4091760c01b612c0f565b8042101580156110f45750816002015f015f9054906101000a900463ffffffff1663ffffffff16810142105b156111415761110d67e9f1fb792d8fb96f60c01b612c0f565b6111216706a7b7c562771e7f60c01b612c0f565b611135671943f2a484bb246460c01b612c0f565b829450505050506111a4565b611155670dc89d928ec606fd60c01b612c0f565b6111696705e87b4ff382fea660c01b612c0f565b8260010192505050610fef565b5061118b6744e2c92ebf7daae360c01b612c0f565b61119f677da7a3fc320711ff60c01b612c0f565b809150505b90565b5f60035f9054906101000a900473ffffffffffffffffffffffffffffffffffffffff1673ffffffffffffffffffffffffffffffffffffffff168273ffffffffffffffffffffffffffffffffffffffff16149050919050565b60095f9054906101000a900473ffffffffffffffffffffffffffffffffffffffff1681565b5f61122e82612f68565b9050919050565b60048054611242906144dc565b80601f016020809104026020016040519081016040528092919081815260200182805461126e906144dc565b80156112b95780601f10611290576101008083540402835291602001916112b9565b820191905f5260205f20905b81548152906001019060200180831161129c57829003601f168201915b505050505081565b5f8073ffffffffffffffffffffffffffffffffffffffff168273ffffffffffffffffffffffffffffffffffffffff1603611327576040517f8f4eb60400000000000000000000000000000000000000000000000000000000815260040160405180910390fd5b67ffffffffffffffff611338612d26565b6005015f8473ffffffffffffffffffffffffffffffffffffffff1673ffffffffffffffffffffffffffffffffffffffff1681526020019081526020015f2054169050919050565b5f6113946715a321cba645b20760c01b612c0f565b6113a8678842025e6264697a60c01b612c0f565b6113bc67e5b8a8487c5b544e60c01b612c0f565b6113c4613191565b905090565b600881815481106113d8575f80fd5b905f5260205f2090600402015f91509050805f015f9054906101000a900463ffffffff1690806002016040518060600160405290815f82015f9054906101000a900463ffffffff1663ffffffff1663ffffffff1681526020015f820160049054906101000a900463ffffffff1663ffffffff1663ffffffff168152602001600182015481525050905082565b606061146e612d26565b600301805461147c906144dc565b80601f01602080910402602001604051908101604052809291908181526020018280546114a8906144dc565b80156114f35780601f106114ca576101008083540402835291602001916114f3565b820191905f5260205f20905b8154815290600101906020018083116114d657829003601f168201915b5050505050905090565b60075f9054906101000a900463ffffffff1681565b8061151b612d26565b6007015f61152761309e565b73ffffffffffffffffffffffffffffffffffffffff1673ffffffffffffffffffffffffffffffffffffffff1681526020019081526020015f205f8473ffffffffffffffffffffffffffffffffffffffff1673ffffffffffffffffffffffffffffffffffffffff1681526020019081526020015f205f6101000a81548160ff0219169083151502179055508173ffffffffffffffffffffffffffffffffffffffff166115d061309e565b73ffffffffffffffffffffffffffffffffffffffff167f17307eab39ab6107e8899845ad3d59bd9653f200f220920489ca2b5937696c31836040516116159190613e7a565b60405180910390a35050565b61162c848484610a40565b5f8373ffffffffffffffffffffffffffffffffffffffff163b1461168d57611656848484846131a2565b61168c576040517fd1a57ed600000000000000000000000000000000000000000000000000000000815260040160405180910390fd5b5b50505050565b60606116a96782405ec93d405e8f60c01b612c0f565b6116bd67d5b729aa42fedbdc60c01b612c0f565b6116d167525696a2e90b5fdb60c01b612c0f565b6116da82612d52565b611724576116f2673192faf9e17a798560c01b612c0f565b6040517fa14c4b5000000000000000000000000000000000000000000000000000000000815260040160405180910390fd5b6117386744555285b999344b60c01b612c0f565b61174c67d858830a10d54bc860c01b612c0f565b5f61176167da32f3010e731fde60c01b612c0f565b5f61177667ab04c063f27f842f60c01b612c0f565b61178a679ff47f1e27629b4060c01b612c0f565b61179e67b27c78e07dc3521860c01b612c0f565b5f6008600160088054905003815481106117bb576117ba614540565b5b905f5260205f20906004020190506117dd672c8fcd65b395f44960c01b612c0f565b60095f9054906101000a900473ffffffffffffffffffffffffffffffffffffffff1673ffffffffffffffffffffffffffffffffffffffff1663fa95b139826002015f015f9054906101000a900463ffffffff16835f015f9054906101000a900463ffffffff16016040518263ffffffff1660e01b81526004016118609190614602565b6040805180830381865afa15801561187a573d5f803e3d5ffd5b505050506040513d601f19601f8201168201806040525081019061189e9190614618565b8093508194505050506118bb677e65e10320cb7e8960c01b612c0f565b6118cf678038a6fcb69a920360c01b612c0f565b5f8103611a4e576118ea672c82fd83dd3fe3f660c01b612c0f565b6118fe67a8a6bdecfaf3447560c01b612c0f565b6119116617969eb40454df60c01b612c0f565b5f6004805461191f906144dc565b80601f016020809104026020016040519081016040528092919081815260200182805461194b906144dc565b80156119965780601f1061196d57610100808354040283529160200191611996565b820191905f5260205f20905b81548152906001019060200180831161197957829003601f168201915b505050505090506119b1677ac39dc160737b3060c01b612c0f565b6119c567471c9239646ef03860c01b612c0f565b5f8151141580156119e657506119e567264f3605471174b760c01b612ca3565b5b80611a015750611a00679e607c153b0ca93760c01b6132ed565b5b611a195760405180602001604052805f815250611a44565b80611a23866132f3565b604051602001611a3492919061463b565b6040516020818303038152906040525b9350505050611be0565b611a626722d69b9fed15bbde60c01b612c0f565b611a76679508a6a304b9c76060c01b612c0f565b611a8a67c8bd838313644e5b60c01b612c0f565b5f60058054611a98906144dc565b80601f0160208091040260200160405190810160405280929190818152602001828054611ac4906144dc565b8015611b0f5780601f10611ae657610100808354040283529160200191611b0f565b820191905f5260205f20905b815481529060010190602001808311611af257829003601f168201915b50505050509050611b2a6707bad43fb8672e3c60c01b612c0f565b611b3e677bf9e6124be9011d60c01b612c0f565b5f815114158015611b5f5750611b5e67cfca9f48b1b9a86b60c01b612ca3565b5b80611b7a5750611b796742901153db03fb1860c01b6132ed565b5b611b925760405180602001604052805f815250611bda565b80611bb9611b9e610a19565b8588611baa919061466f565b611bb4919061468c565b6132f3565b604051602001611bca92919061463b565b6040516020818303038152906040525b93505050505b919050565b5f60035f9054906101000a900473ffffffffffffffffffffffffffffffffffffffff16905090565b611c2167ab77e9bd4a0ab99860c01b612c0f565b611c3567e3802652a192e7a960c01b612c0f565b611c49678029004c24d057a760c01b612c0f565b611c5d6785afe1347e521bc460c01b612c0f565b611c7167e989ca3d110ff75b60c01b612c0f565b600a5f9054906101000a900473ffffffffffffffffffffffffffffffffffffffff1673ffffffffffffffffffffffffffffffffffffffff163373ffffffffffffffffffffffffffffffffffffffff1614611d00576040517f08c379a0000000000000000000000000000000000000000000000000000000008152600401611cf7906146a6565b60405180910390fd5b611d146749cd5e70e17111e460c01b612c0f565b611d28675c8920461bfb547060c01b612c0f565b611d3c67ba71a582be1e69de60c01b612c0f565b611d5067e3673008689e8c5460c01b612c0f565b611d6467d67158560aa0055660c01b612c0f565b611d7867df1b2ccc9fdf4d6860c01b612c0f565b60085f81548110611d8c57611d8b614540565b5b905f5260205f2090600402015f015f9054906101000a900463ffffffff1663ffffffff16421015611dfd57611dcb679e24cc4914f985ac60c01b612c0f565b6040517fd230774200000000000000000000000000000000000000000000000000000000815260040160405180910390fd5b611e11678d309277526720e860c01b612c0f565b611e25670370e845302e528160c01b612c0f565b611e3967559835059ce453fc60c01b612c0f565b5f6008805490509050611e56678132c9abedb5e40c60c01b612c0f565b611e6a67a8f886e48243f48060c01b612c0f565b611e7e671ebd4d1735dd2c2560c01b612c0f565b5f60086001830381548110611e9657611e95614540565b5b905f5260205f2090600402019050611eb867387092147b15a8f860c01b612c0f565b611ecc67776b49e59f6ca1e560c01b612c0f565b806002015f015f9054906101000a900463ffffffff16815f015f9054906101000a900463ffffffff160163ffffffff164210611f4857611f1667d83baab020daa91260c01b612c0f565b6040517ff48339e400000000000000000000000000000000000000000000000000000000815260040160405180910390fd5b611f5c676dc4068ac308f16560c01b612c0f565b50611f7167688e5d1c6e581ce960c01b612c0f565b611f85672cff37ad4f2208c060c01b612c0f565b5f611f8e610f7f565b9050611fa467ec1c1a09b19b4f2e60c01b612c0f565b611fb867ca2f71694173337260c01b612c0f565b5f60088260ff1681548110611fd057611fcf614540565b5b905f5260205f2090600402016002019050611ff567d8cea92faac086b660c01b612c0f565b6120096789977715602cdcdb60c01b612c0f565b5f801b8160010154141580156120285750612026828887876108e5565b155b15612073576120416710a418d3bb68a91860c01b612c0f565b6040517f09bde33900000000000000000000000000000000000000000000000000000000815260040160405180910390fd5b61208767e3b2b4a7bf4b895f60c01b612c0f565b61209b6701c0414e0d65629d60c01b612c0f565b6120af670de3c146b800737960c01b612c0f565b5f8660088460ff16815481106120c8576120c7614540565b5b905f5260205f2090600402016001015f8a73ffffffffffffffffffffffffffffffffffffffff1673ffffffffffffffffffffffffffffffffffffffff1681526020019081526020015f205f9054906101000a900463ffffffff1661212c91906146e3565b90506121426720aa004025c046e560c01b612c0f565b61215667edf54e169340c0ee60c01b612c0f565b5f825f0160049054906101000a900463ffffffff16905061218167ae18fcdec9b3624860c01b612c0f565b6121956706facf35230734f760c01b612c0f565b5f8163ffffffff16141580156121b657508063ffffffff168263ffffffff16115b15612201576121cf67f26710d26545585d60c01b612c0f565b6040517fb643bfa600000000000000000000000000000000000000000000000000000000815260040160405180910390fd5b61221567c6cff240490527c960c01b612c0f565b6122296740594932b7b9955460c01b612c0f565b61223d6702ee08c89945c86e60c01b612c0f565b5f60075f9054906101000a900463ffffffff169050612266676c06fbee6ee6624d60c01b612c0f565b61227a671b575a4237f787c760c01b612c0f565b5f8163ffffffff16141580156122ad57508063ffffffff168963ffffffff166122a1610a19565b6122ab919061466f565b115b156122f8576122c66701f1d4c7e9673e1660c01b612c0f565b6040517fb643bfa600000000000000000000000000000000000000000000000000000000815260040160405180910390fd5b61230c674e57a5dbbb0b1cf060c01b612c0f565b61232067717fe8f7d2f7396760c01b612c0f565b8260088660ff168154811061233857612337614540565b5b905f5260205f2090600402016001015f8c73ffffffffffffffffffffffffffffffffffffffff1673ffffffffffffffffffffffffffffffffffffffff1681526020019081526020015f205f6101000a81548163ffffffff021916908363ffffffff1602179055506123b367a89f7ccc31bf1e1260c01b612c0f565b6123c767f93f288eeeed306a60c01b612c0f565b6123d78a8a63ffffffff16613343565b50505050505050505050565b600680546123f0906144dc565b80601f016020809104026020016040519081016040528092919081815260200182805461241c906144dc565b80156124675780601f1061243e57610100808354040283529160200191612467565b820191905f5260205f20905b81548152906001019060200180831161244a57829003601f168201915b505050505081565b5f612478612d26565b6007015f8473ffffffffffffffffffffffffffffffffffffffff1673ffffffffffffffffffffffffffffffffffffffff1681526020019081526020015f205f8373ffffffffffffffffffffffffffffffffffffffff1673ffffffffffffffffffffffffffffffffffffffff1681526020019081526020015f205f9054906101000a900460ff16905092915050565b61251a67162837c8ce989c5060c01b612c0f565b5f8060019054906101000a900460ff16159050808015612549575060015f8054906101000a900460ff1660ff16105b80612575575061255830613360565b158015612574575060015f8054906101000a900460ff1660ff16145b5b6125b4576040517f08c379a00000000000000000000000000000000000000000000000000000000081526004016125ab9061470a565b60405180910390fd5b60015f806101000a81548160ff021916908360ff16021790555080156125ef5760015f60016101000a81548160ff0219169083151502179055505b61260367289ce83ac7cbdc9a60c01b612c0f565b61261767f4cbdab9083283a160c01b612c0f565b61261f613382565b5f0160019054906101000a900460ff166126505761263b613382565b5f015f9054906101000a900460ff1615612659565b6126586133ae565b5b612698576040517f08c379a000000000000000000000000000000000000000000000000000000000815260040161268f9061476d565b60405180910390fd5b5f6126a1613382565b5f0160019054906101000a900460ff1615905080156127005760016126c4613382565b5f0160016101000a81548160ff02191690831515021790555060016126e7613382565b5f015f6101000a81548160ff0219169083151502179055505b6127146727ee142c639af60060c01b612c0f565b612728677c42021922af4a4f60c01b612c0f565b61273c67e8bd1c85e987b81960c01b612c0f565b612750675725b0023e6549db60c01b612c0f565b6127fb8a805f019061276291906147d0565b8080601f0160208091040260200160405190810160405280939291908181526020018383808284375f81840152601f19601f820116905080830192505050505050508b80602001906127b491906147d0565b8080601f0160208091040260200160405190810160405280939291908181526020018383808284375f81840152601f19601f820116905080830192505050505050506133c2565b61280f6739e5e040b81a236a60c01b612c0f565b83600a5f6101000a81548173ffffffffffffffffffffffffffffffffffffffff021916908373ffffffffffffffffffffffffffffffffffffffff1602179055506128636713dc4959e9a22ca660c01b612c0f565b89806040019061287391906147d0565b600491826128829291906148d3565b50612897677f7c3c3deede527860c01b612c0f565b8980606001906128a791906147d0565b600591826128b69291906148d3565b506128cb67d57bf345b71c6a1060c01b612c0f565b8980608001906128db91906147d0565b600691826128ea9291906148d3565b506128ff6712d03104b169063060c01b612c0f565b8860075f6101000a81548163ffffffff021916908363ffffffff16021790555061293367f28c4388e4a8bbad60c01b612c0f565b6129476797c48fb74b0015a460c01b612c0f565b5f73ffffffffffffffffffffffffffffffffffffffff168a60a0016020810190612971919061412c565b73ffffffffffffffffffffffffffffffffffffffff16141580156129b557505f8a60c00160208101906129a491906149ce565b6bffffffffffffffffffffffff1614155b15612a29576129ce673d0c6b97d42ecdd560c01b612c0f565b6129e267105ce4339b6861f960c01b612c0f565b6129f6678cc8795b531ad65660c01b612c0f565b612a248a60a0016020810190612a0c919061412c565b8b60c0016020810190612a1f91906149ce565b613427565b612a3e565b612a3d67f259cde3667b6e8a60c01b612c0f565b5b612a526779ed16642a7e306060c01b612c0f565b612a6667d4b8c0a5bef3dc5360c01b612c0f565b612a718888886135b7565b612a85676347780d44555a6060c01b612c0f565b8460095f6101000a81548173ffffffffffffffffffffffffffffffffffffffff021916908373ffffffffffffffffffffffffffffffffffffffff160217905550612ad967da2f5981aab85c4160c01b612c0f565b612aed67feea59ad55200a1860c01b612c0f565b612af683613982565b8015612b1f575f612b05613382565b5f0160016101000a81548160ff0219169083151502179055505b508015612b78575f8060016101000a81548160ff0219169083151502179055507f7f26b83ff96e1f2b6a682f133852f6798a09c465da95921460cefb38474024986001604051612b6f9190614a03565b60405180910390a15b505050505050505050565b60058054612b90906144dc565b80601f0160208091040260200160405190810160405280929190818152602001828054612bbc906144dc565b8015612c075780601f10612bde57610100808354040283529160200191612c07565b820191905f5260205f20905b815481529060010190602001808311612bea57829003601f168201915b505050505081565b50565b5f6301ffc9a760e01b827bffffffffffffffffffffffffffffffffffffffffffffffffffffffff19161480612c6c57506380ac58cd60e01b827bffffffffffffffffffffffffffffffffffffffffffffffffffffffff1916145b80612c9c5750635b5e139f60e01b827bffffffffffffffffffffffffffffffffffffffffffffffffffffffff1916145b9050919050565b5f60019050919050565b5f7f2a55205a000000000000000000000000000000000000000000000000000000007bffffffffffffffffffffffffffffffffffffffffffffffffffffffff1916827bffffffffffffffffffffffffffffffffffffffffffffffffffffffff19161480612d1f5750612d1e826139c5565b5b9050919050565b5f807f2569078dfb4b0305704d3008e7403993ae9601b85f7ae5e742de3de8f8011c4090508091505090565b5f81612d5c612f24565b11158015612d735750612d6d612d26565b5f015482105b8015612db757505f7c0100000000000000000000000000000000000000000000000000000000612da1612d26565b6004015f8581526020019081526020015f205416145b9050919050565b5f612dc883611224565b90508115612e53578073ffffffffffffffffffffffffffffffffffffffff16612def61309e565b73ffffffffffffffffffffffffffffffffffffffff1614612e5257612e1b81612e1661309e565b61246f565b612e51576040517fcfb3b94200000000000000000000000000000000000000000000000000000000815260040160405180910390fd5b5b5b83612e5c612d26565b6006015f8581526020019081526020015f205f015f6101000a81548173ffffffffffffffffffffffffffffffffffffffff021916908373ffffffffffffffffffffffffffffffffffffffff160217905550828473ffffffffffffffffffffffffffffffffffffffff168273ffffffffffffffffffffffffffffffffffffffff167f8c5be1e5ebec7d5bd14f71427d1e84f3dd0314c0f7b2291e5b200ac8c7c3b92560405160405180910390a450505050565b5f82612f1a8584613a2e565b1490509392505050565b5f612f39672bd362a69f7e997460c01b612c0f565b612f4d6728677a218abea8fb60c01b612c0f565b612f6167ed1314852a6a832860c01b612c0f565b6001905090565b5f81612f72612f24565b1161303b57612f7f612d26565b6004015f8381526020019081526020015f205490505f7c010000000000000000000000000000000000000000000000000000000082160361303a575f810361303557612fc9612d26565b5f01548210613004576040517fdf2d9b4200000000000000000000000000000000000000000000000000000000815260040160405180910390fd5b5b61300d612d26565b6004015f836001900393508381526020019081526020015f205490505f810361306d57613005565b61306d565b5b6040517fdf2d9b4200000000000000000000000000000000000000000000000000000000815260040160405180910390fd5b919050565b5f805f61307d612d26565b6006015f8581526020019081526020015f2090508092508254915050915091565b5f6130b36727972b275f44e44360c01b612c0f565b6130c767bb8dbf8a17ae098f60c01b612c0f565b6130db671b9427329dd53a0860c01b612c0f565b6130e3613a82565b905090565b5f73ffffffffffffffffffffffffffffffffffffffff8316925073ffffffffffffffffffffffffffffffffffffffff821691508382148383141790509392505050565b50505050565b5f8060e883901c905060e8613147868684613ab7565b62ffffff16901b9150509392505050565b5f73ffffffffffffffffffffffffffffffffffffffff83169250814260a01b178317905092915050565b50505050565b5f612710905090565b5f61319a612d26565b5f0154905090565b5f8373ffffffffffffffffffffffffffffffffffffffff1663150b7a026131c761309e565b8786866040518563ffffffff1660e01b81526004016131e99493929190614a16565b6020604051808303815f875af192505050801561322457506040513d601f19601f820116820180604052508101906132219190614a5f565b60015b61329a573d805f8114613252576040519150601f19603f3d011682016040523d82523d5f602084013e613257565b606091505b505f815103613292576040517fd1a57ed600000000000000000000000000000000000000000000000000000000815260040160405180910390fd5b805181602001fd5b63150b7a0260e01b7bffffffffffffffffffffffffffffffffffffffffffffffffffffffff1916817bffffffffffffffffffffffffffffffffffffffffffffffffffffffff191614915050949350505050565b5f919050565b606060a06040510180604052602081039150505f815280825b60011561332e57600183039250600a81066030018353600a810490508061330c575b50818103905060208203915080825250919050565b61335c828260405180602001604052805f815250613abf565b5050565b5f808273ffffffffffffffffffffffffffffffffffffffff163b119050919050565b5f807fee151c8401928dc223602bb187aff91b9a56c7cae5476ef1b3287b085a16c85f90508091505090565b5f803090505f813b90505f81149250505090565b6133ca613382565b5f0160019054906101000a900460ff16613419576040517f08c379a000000000000000000000000000000000000000000000000000000000815260040161341090614a84565b60405180910390fd5b6134238282613b68565b5050565b61342f613188565b6bffffffffffffffffffffffff16816bffffffffffffffffffffffff16111561348d576040517f08c379a000000000000000000000000000000000000000000000000000000000815260040161348490614ae7565b60405180910390fd5b5f73ffffffffffffffffffffffffffffffffffffffff168273ffffffffffffffffffffffffffffffffffffffff16036134fb576040517f08c379a00000000000000000000000000000000000000000000000000000000081526004016134f290614b4a565b60405180910390fd5b60405180604001604052808373ffffffffffffffffffffffffffffffffffffffff168152602001826bffffffffffffffffffffffff1681525060015f820151815f015f6101000a81548173ffffffffffffffffffffffffffffffffffffffff021916908373ffffffffffffffffffffffffffffffffffffffff1602179055506020820151815f0160146101000a8154816bffffffffffffffffffffffff02191690836bffffffffffffffffffffffff1602179055509050505050565b6135cb67219e0fcec309c31f60c01b612c0f565b6135df6775818d5a5dbeeb2060c01b612c0f565b6135f3674cc0687bc3f8a25560c01b612c0f565b8263ffffffff1642106136465761361467f62846984f8a5b6560c01b612c0f565b6040517f36c9c0b900000000000000000000000000000000000000000000000000000000815260040160405180910390fd5b61365a67b6592231b01bb92360c01b612c0f565b61366e672da174026aed27c660c01b612c0f565b61368267f0e4de0c275b06a560c01b612c0f565b6005828290501180156136a557506136a4670dc7b8e8bd095e4f60c01b612ca3565b5b806136ce57505f828290501480156136cd57506136cc67096ba5c153cee19960c01b612ca3565b5b5b15613719576136e7674456c01314afcdbb60c01b612c0f565b6040517f0d1e6e7900000000000000000000000000000000000000000000000000000000815260040160405180910390fd5b61372d67427b119329a6c01e60c01b612c0f565b61374167901b41a6a2e1f13460c01b612c0f565b613755670c5d960c5253665f60c01b612c0f565b5f83905061376d6702dd8f877e7b525060c01b612c0f565b6137816710d6b4b17cc9007a60c01b612c0f565b5f5b838390508160ff16101561397b576137a567c804e7ce74e7f2bc60c01b612c0f565b6137b9678023c1549d628e1560c01b612c0f565b5f84848360ff168181106137d0576137cf614540565b5b9050606002015f0160208101906137e79190614b87565b63ffffffff16036138385761380667045bd09fc20f4d9160c01b612c0f565b6040517f4cf9338f00000000000000000000000000000000000000000000000000000000815260040160405180910390fd5b61384c67a63ca157bfd2d4ff60c01b612c0f565b61386067cdc0ecdcd8d119bf60c01b612c0f565b613874676763de009780125260c01b612c0f565b5f600860018160018154018082558091505003905f5260205f20906004020190506138a967936cfe574f7a21ac60c01b612c0f565b82815f015f6101000a81548163ffffffff021916908363ffffffff1602179055506138de672ac370f99231e59c60c01b612c0f565b84848360ff168181106138f4576138f3614540565b5b9050606002015f01602081019061390b9190614b87565b8361391691906146e3565b925061392c670e1e0488c80817dc60c01b612c0f565b84848360ff1681811061394257613941614540565b5b9050606002018160020181816139589190614bac565b90505061396f676c02b0f88957bddd60c01b612c0f565b81600101915050613783565b5050505050565b8060035f6101000a81548173ffffffffffffffffffffffffffffffffffffffff021916908373ffffffffffffffffffffffffffffffffffffffff16021790555050565b5f7f01ffc9a7000000000000000000000000000000000000000000000000000000007bffffffffffffffffffffffffffffffffffffffffffffffffffffffff1916827bffffffffffffffffffffffffffffffffffffffffffffffffffffffff1916149050919050565b5f808290505f5b8451811015613a7757613a6282868381518110613a5557613a54614540565b5b6020026020010151613c0b565b91508080613a6f90614c3e565b915050613a35565b508091505092915050565b5f60145f36905010158015613a9c5750613a9b336111a7565b5b15613ab057601436033560601c9050613ab4565b3390505b90565b5f9392505050565b613ac98383613c35565b5f8373ffffffffffffffffffffffffffffffffffffffff163b14613b63575f613af0612d26565b5f015490505f83820390505b613b0e5f8683806001019450866131a2565b613b44576040517fd1a57ed600000000000000000000000000000000000000000000000000000000815260040160405180910390fd5b818110613afc5781613b54612d26565b5f015414613b60575f80fd5b50505b505050565b613b70613382565b5f0160019054906101000a900460ff16613bbf576040517f08c379a0000000000000000000000000000000000000000000000000000000008152600401613bb690614a84565b60405180910390fd5b81613bc8612d26565b6002019081613bd79190614c7a565b5080613be1612d26565b6003019081613bf09190614c7a565b50613bf9612f24565b613c01612d26565b5f01819055505050565b5f818310613c2257613c1d8284613e02565b613c2d565b613c2c8383613e02565b5b905092915050565b5f613c3e612d26565b5f015490505f8203613c7c576040517fb562e8dd00000000000000000000000000000000000000000000000000000000815260040160405180910390fd5b613c885f84838561312b565b600160406001901b178202613c9b612d26565b6005015f8573ffffffffffffffffffffffffffffffffffffffff1673ffffffffffffffffffffffffffffffffffffffff1681526020019081526020015f205f8282540192505081905550613d0383613cf45f865f613131565b613cfd85613e16565b17613158565b613d0b612d26565b6004015f8381526020019081526020015f20819055505f80838301905073ffffffffffffffffffffffffffffffffffffffff8516915082825f7fddf252ad1be2c89b69c2b068fc378daa952ba7f163c4a11628f55a4df523b3ef5f80a4600183015b818114613da65780835f7fddf252ad1be2c89b69c2b068fc378daa952ba7f163c4a11628f55a4df523b3ef5f80a4600181019050613d6d565b505f8203613de0576040517f2e07630000000000000000000000000000000000000000000000000000000000815260040160405180910390fd5b80613de9612d26565b5f01819055505050613dfd5f848385613182565b505050565b5f825f528160205260405f20905092915050565b5f6001821460e11b9050919050565b7fffffffff0000000000000000000000000000000000000000000000000000000081168114613e52575f80fd5b50565b5f60208284031215613e65575f80fd5b8135613e7081613e25565b8091505092915050565b5f602082019050821515825292915050565b5f5b83811015613ea9578082015181840152602081019050613e8e565b505f83830152505050565b5f8151808452613ecb816020860160208601613e8c565b60207fffffffffffffffffffffffffffffffffffffffffffffffffffffffffffffffe0601f83011685010191505092915050565b602081525f613f116020830184613eb4565b905092915050565b5f60208201905073ffffffffffffffffffffffffffffffffffffffff8316825292915050565b5f60208284031215613f4f575f80fd5b8135905092915050565b73ffffffffffffffffffffffffffffffffffffffff81168114613f7a575f80fd5b50565b5f81359050613f8b81613f59565b919050565b5f8060408385031215613fa1575f80fd5b8235613fac81613f59565b80925050602083013590509250929050565b5f8083601f840112613fce575f80fd5b8235905067ffffffffffffffff811115613fe6575f80fd5b6020830191508360208260051b8501011115614000575f80fd5b9250929050565b5f805f806060858703121561401a575f80fd5b843560ff8116811461402a575f80fd5b80945050602085013561403c81613f59565b80935050604085013567ffffffffffffffff811115614059575f80fd5b61406587828801613fbe565b9150809350508091505092959194509250565b5f60208201905082825292915050565b5f805f6060848603121561409a575f80fd5b83356140a581613f59565b8093505060208401356140b781613f59565b80925050604084013590509250925092565b5f80604083850312156140da575f80fd5b82359150602083013590509250929050565b5f60408201905073ffffffffffffffffffffffffffffffffffffffff841682528260208301529392505050565b5f60208201905060ff8316825292915050565b5f6020828403121561413c575f80fd5b813561414781613f59565b8091505092915050565b5f60208201905073ffffffffffffffffffffffffffffffffffffffff8316825292915050565b5f60808201905063ffffffff808516835280845116602084015280602085015116604084015250604083015160608301529392505050565b5f60208201905063ffffffff8316825292915050565b5f80604083850312156141d6575f80fd5b82356141e181613f59565b80925050602083013580151581146141f7575f80fd5b809150509250929050565b7f4e487b71000000000000000000000000000000000000000000000000000000005f52604160045260245ffd5b5f805f8060808587031215614242575f80fd5b843561424d81613f59565b80945050602085013561425f81613f59565b8093505060408501359150606085013567ffffffffffffffff80821115614284575f80fd5b818701915087601f830112614297575f80fd5b8135818111156142aa576142a9614202565b5b7fffffffffffffffffffffffffffffffffffffffffffffffffffffffffffffffe060405181603f83601f86011601168101915080821084831117156142f2576142f1614202565b5b816040528281528a602084870101111561430a575f80fd5b826020860160208301375f60208483010152809550505050505092959194509250565b63ffffffff8116811461433e575f80fd5b50565b5f805f8060608587031215614354575f80fd5b843561435f81613f59565b8094505060208501356143718161432d565b80935050604085013567ffffffffffffffff81111561438e575f80fd5b61439a87828801613fbe565b9150809350508091505092959194509250565b5f80604083850312156143be575f80fd5b82356143c981613f59565b8092505060208301356143db81613f59565b809150509250929050565b5f805f805f805f8060e0898b0312156143fd575f80fd5b883567ffffffffffffffff80821115614414575f80fd5b818b01915060e0828d031215614428575f80fd5b81995060208b0135915061443b8261432d565b81985060408b0135915061444e8261432d565b81975060608b0135915080821115614464575f80fd5b818b0191508b601f830112614477575f80fd5b813581811115614485575f80fd5b8c6020606083028501011115614499575f80fd5b6020830197508096505050506144b160808a01613f7d565b92506144bf60a08a01613f7d565b91506144cd60c08a01613f7d565b90509295985092959890939650565b5f8160011c905060018216806144f357607f821691505b60208210810361452a577f4e487b71000000000000000000000000000000000000000000000000000000005f52602260045260245ffd5b50919050565b8181525f60208201905092915050565b7f4e487b71000000000000000000000000000000000000000000000000000000005f52603260045260245ffd5b7f4e487b71000000000000000000000000000000000000000000000000000000005f52601160045260245ffd5b5f828202905081810483148215176145b5576145b461456d565b5b92915050565b7f4e487b71000000000000000000000000000000000000000000000000000000005f52601260045260245ffd5b5f826145f7576145f66145bb565b5b828204905092915050565b5f60208201905063ffffffff8316825292915050565b5f8060408385031215614629575f80fd5b82519150602083015190509250929050565b5f835161464c818460208801613e8c565b80830190508351614661818360208801613e8c565b808201925050509392505050565b5f8282019050808211156146865761468561456d565b5b92915050565b5f8261469b5761469a6145bb565b5b828206905092915050565b60208152601860208201527f43616c6c6572206973206e6f7420746865206d696e746572000000000000000060408201525f606082019050919050565b5f63ffffffff808416818416019150808211156147035761470261456d565b5b5092915050565b60208152602e60208201527f496e697469616c697a61626c653a20636f6e747261637420697320616c72656160408201527f647920696e697469616c697a656400000000000000000000000000000000000060608201525f608082019050919050565b60208152603760208201527f455243373231415f5f496e697469616c697a61626c653a20636f6e747261637460408201527f20697320616c726561647920696e697469616c697a656400000000000000000060608201525f608082019050919050565b5f8083357fffffffffffffffffffffffffffffffffffffffffffffffffffffffffffffffe1843603018112614803575f80fd5b80840190508035915067ffffffffffffffff821115614820575f80fd5b60208101925050803603821315614835575f80fd5b9250929050565b805f52505f60205f20905090565b601f821115614897575f81815260208120601f850160051c81016020861015614871578190505b601f850160051c820191505b818110156148935782815560018101905061487d565b5050505b505050565b5f8260011b7fffffffffffffffffffffffffffffffffffffffffffffffffffffffffffffffff8460031b1c19831617905092915050565b67ffffffffffffffff8311156148ec576148eb614202565b5b614900836148fa83546144dc565b8361484a565b5f601f84116001811461492d575f851561491b578285013590505b614925868261489c565b8455506149c7565b7fffffffffffffffffffffffffffffffffffffffffffffffffffffffffffffffe085166149598461483c565b835b828110156149805784870135825560018201915060208501945060208101905061495b565b50868210156149bb577fffffffffffffffffffffffffffffffffffffffffffffffffffffffffffffffff60f88860031b161c19848701351681555b505060018560011b0183555b5050505050565b5f602082840312156149de575f80fd5b81356bffffffffffffffffffffffff811681146149f9575f80fd5b8091505092915050565b5f60208201905060ff8316825292915050565b5f73ffffffffffffffffffffffffffffffffffffffff808716835280861660208401525083604083015260806060830152614a546080830184613eb4565b905095945050505050565b5f60208284031215614a6f575f80fd5b8151614a7a81613e25565b8091505092915050565b60208152603460208201527f455243373231415f5f496e697469616c697a61626c653a20636f6e747261637460408201527f206973206e6f7420696e697469616c697a696e6700000000000000000000000060608201525f608082019050919050565b60208152602a60208201527f455243323938313a20726f79616c7479206665652077696c6c2065786365656460408201527f2073616c6550726963650000000000000000000000000000000000000000000060608201525f608082019050919050565b60208152601960208201527f455243323938313a20696e76616c69642072656365697665720000000000000060408201525f606082019050919050565b5f60208284031215614b97575f80fd5b8135614ba28161432d565b8091505092915050565b8135614bb78161432d565b63ffffffff811690508154817fffffffffffffffffffffffffffffffffffffffffffffffffffffffff0000000082161783556020840135614bf78161432d565b67ffffffff000000008160201b16837fffffffffffffffffffffffffffffffffffffffffffffffff0000000000000000841617178455505050604082013560018201555050565b5f7fffffffffffffffffffffffffffffffffffffffffffffffffffffffffffffffff8203614c6f57614c6e61456d565b5b600182019050919050565b815167ffffffffffffffff811115614c9557614c94614202565b5b614ca981614ca384546144dc565b8461484a565b5f6020809150601f831160018114614cdb575f8415614cc9578387015190505b614cd3858261489c565b865550614d75565b7fffffffffffffffffffffffffffffffffffffffffffffffffffffffffffffffe08416614d078661483c565b5f5b82811015614d2c5785890151825560018201915084860195508481019050614d09565b5085821015614d6957848801517fffffffffffffffffffffffffffffffffffffffffffffffffffffffffffffffff60f88860031b161c1981168255505b505060018460011b0185555b50505050505056fea2646970667358221220f8cae692db9597d64a75b6452fd1722c1a64c9733eff46a8c3b269488699e09064736f6c63430008150033",
  "linkReferences": {},
  "deployedLinkReferences": {}
}