{
  "_format": "hh-sol-artifact-1",
  "contractName": "EeseePeriphery",
  "sourceName": "contracts/periphery/EeseePeriphery.sol",
  "abi": [
    {
      "inputs": [
        {
          "internalType": "contract IEesee",
          "name": "_Eesee",
          "type": "address"
        },
        {
          "internalType": "contract IEeseeDrops",
          "name": "_EeseeDrops",
          "type": "address"
        },
        {
          "internalType": "address",
          "name": "_OneInchRouter",
          "type": "address"
        },
        {
          "internalType": "contract IEeseeAccessManager",
          "name": "_accessManager",
          "type": "address"
        },
        {
          "internalType": "address",
          "name": "trustedForwarder",
          "type": "address"
        }
      ],
      "stateMutability": "nonpayable",
      "type": "constructor"
    },
    {
      "inputs": [],
      "name": "CallerNotAuthorized",
      "type": "error"
    },
    {
      "inputs": [],
      "name": "EthDepositRejected",
      "type": "error"
    },
    {
      "inputs": [],
      "name": "InvalidAsset",
      "type": "error"
    },
    {
      "inputs": [],
      "name": "InvalidConstructor",
      "type": "error"
    },
    {
      "inputs": [],
      "name": "InvalidMsgValue",
      "type": "error"
    },
    {
      "inputs": [],
      "name": "InvalidSwapDescription",
      "type": "error"
    },
    {
      "inputs": [],
      "name": "LotExpired",
      "type": "error"
    },
    {
      "inputs": [],
      "name": "LotNotExists",
      "type": "error"
    },
    {
      "inputs": [],
      "name": "LotNotFulfilled",
      "type": "error"
    },
    {
      "inputs": [],
      "name": "NoTicketsBought",
      "type": "error"
    },
    {
      "inputs": [],
      "name": "PartialFillNotAllowed",
      "type": "error"
    },
    {
      "inputs": [],
      "name": "SwapNotSuccessful",
      "type": "error"
    },
    {
      "anonymous": false,
      "inputs": [
        {
          "indexed": false,
          "internalType": "address",
          "name": "account",
          "type": "address"
        }
      ],
      "name": "Paused",
      "type": "event"
    },
    {
      "anonymous": false,
      "inputs": [
        {
          "indexed": false,
          "internalType": "address",
          "name": "account",
          "type": "address"
        }
      ],
      "name": "Unpaused",
      "type": "event"
    },
    {
      "inputs": [],
      "name": "ESE",
      "outputs": [
        {
          "internalType": "contract IERC20",
          "name": "",
          "type": "address"
        }
      ],
      "stateMutability": "view",
      "type": "function"
    },
    {
      "inputs": [],
      "name": "Eesee",
      "outputs": [
        {
          "internalType": "contract IEesee",
          "name": "",
          "type": "address"
        }
      ],
      "stateMutability": "view",
      "type": "function"
    },
    {
      "inputs": [],
      "name": "EeseeDrops",
      "outputs": [
        {
          "internalType": "contract IEeseeDrops",
          "name": "",
          "type": "address"
        }
      ],
      "stateMutability": "view",
      "type": "function"
    },
    {
      "inputs": [],
      "name": "OneInchRouter",
      "outputs": [
        {
          "internalType": "address",
          "name": "",
          "type": "address"
        }
      ],
      "stateMutability": "view",
      "type": "function"
    },
    {
      "inputs": [],
      "name": "PAUSER_ROLE",
      "outputs": [
        {
          "internalType": "bytes32",
          "name": "",
          "type": "bytes32"
        }
      ],
      "stateMutability": "view",
      "type": "function"
    },
    {
      "inputs": [],
      "name": "accessManager",
      "outputs": [
        {
          "internalType": "contract IEeseeAccessManager",
          "name": "",
          "type": "address"
        }
      ],
      "stateMutability": "view",
      "type": "function"
    },
    {
      "inputs": [
        {
          "internalType": "uint256[]",
          "name": "IDs",
          "type": "uint256[]"
        },
        {
          "internalType": "uint32[]",
          "name": "amounts",
          "type": "uint32[]"
        },
        {
          "internalType": "bytes",
          "name": "swapData",
          "type": "bytes"
        },
        {
          "internalType": "address",
          "name": "recipient",
          "type": "address"
        }
      ],
      "name": "buyTicketsWithSwap",
      "outputs": [
        {
          "internalType": "uint256",
          "name": "tokensSpent",
          "type": "uint256"
        },
        {
          "internalType": "uint96",
          "name": "dust",
          "type": "uint96"
        }
      ],
      "stateMutability": "payable",
      "type": "function"
    },
    {
      "inputs": [
        {
          "components": [
            {
              "internalType": "address",
              "name": "token",
              "type": "address"
            },
            {
              "internalType": "uint256",
              "name": "tokenID",
              "type": "uint256"
            },
            {
              "internalType": "uint256",
              "name": "amount",
              "type": "uint256"
            },
            {
              "internalType": "enum AssetType",
              "name": "assetType",
              "type": "uint8"
            },
            {
              "internalType": "bytes",
              "name": "data",
              "type": "bytes"
            }
          ],
          "internalType": "struct Asset[]",
          "name": "assets",
          "type": "tuple[]"
        },
        {
          "components": [
            {
              "internalType": "uint32",
              "name": "totalTickets",
              "type": "uint32"
            },
            {
              "internalType": "uint96",
              "name": "ticketPrice",
              "type": "uint96"
            },
            {
              "internalType": "uint32",
              "name": "duration",
              "type": "uint32"
            },
            {
              "internalType": "address",
              "name": "owner",
              "type": "address"
            },
            {
              "internalType": "address",
              "name": "signer",
              "type": "address"
            },
            {
              "internalType": "bytes",
              "name": "signatureData",
              "type": "bytes"
            }
          ],
          "internalType": "struct IEesee.LotParams[]",
          "name": "params",
          "type": "tuple[]"
        },
        {
          "internalType": "uint32",
          "name": "expectedFee",
          "type": "uint32"
        },
        {
          "internalType": "uint32[]",
          "name": "amounts",
          "type": "uint32[]"
        },
        {
          "internalType": "bytes",
          "name": "swapData",
          "type": "bytes"
        },
        {
          "internalType": "address",
          "name": "recipient",
          "type": "address"
        }
      ],
      "name": "createLotsAndBuyTicketsWithSwap",
      "outputs": [
        {
          "internalType": "uint256[]",
          "name": "IDs",
          "type": "uint256[]"
        },
        {
          "internalType": "uint256",
          "name": "tokensSpent",
          "type": "uint256"
        },
        {
          "internalType": "uint96",
          "name": "dust",
          "type": "uint96"
        }
      ],
      "stateMutability": "payable",
      "type": "function"
    },
    {
      "inputs": [
        {
          "internalType": "uint256",
          "name": "ID",
          "type": "uint256"
        }
      ],
      "name": "getLotWinner",
      "outputs": [
        {
          "internalType": "address",
          "name": "winner",
          "type": "address"
        },
        {
          "internalType": "bool",
          "name": "isAssetWinner",
          "type": "bool"
        }
      ],
      "stateMutability": "view",
      "type": "function"
    },
    {
      "inputs": [],
      "name": "getTrustedForwarder",
      "outputs": [
        {
          "internalType": "address",
          "name": "forwarder",
          "type": "address"
        }
      ],
      "stateMutability": "view",
      "type": "function"
    },
    {
      "inputs": [
        {
          "internalType": "address",
          "name": "forwarder",
          "type": "address"
        }
      ],
      "name": "isTrustedForwarder",
      "outputs": [
        {
          "internalType": "bool",
          "name": "",
          "type": "bool"
        }
      ],
      "stateMutability": "view",
      "type": "function"
    },
    {
      "inputs": [
        {
          "internalType": "uint256[]",
          "name": "IDs",
          "type": "uint256[]"
        },
        {
          "internalType": "uint32[]",
          "name": "quantities",
          "type": "uint32[]"
        },
        {
          "internalType": "bytes32[][]",
          "name": "merkleProofs",
          "type": "bytes32[][]"
        },
        {
          "internalType": "bytes",
          "name": "swapData",
          "type": "bytes"
        },
        {
          "internalType": "address",
          "name": "recipient",
          "type": "address"
        }
      ],
      "name": "mintDropsWithSwap",
      "outputs": [
        {
          "internalType": "uint256",
          "name": "tokensSpent",
          "type": "uint256"
        },
        {
          "internalType": "uint96",
          "name": "dust",
          "type": "uint96"
        }
      ],
      "stateMutability": "payable",
      "type": "function"
    },
    {
      "inputs": [],
      "name": "pause",
      "outputs": [],
      "stateMutability": "nonpayable",
      "type": "function"
    },
    {
      "inputs": [],
      "name": "paused",
      "outputs": [
        {
          "internalType": "bool",
          "name": "",
          "type": "bool"
        }
      ],
      "stateMutability": "view",
      "type": "function"
    },
    {
      "inputs": [],
      "name": "random",
      "outputs": [
        {
          "internalType": "contract IEeseeRandom",
          "name": "",
          "type": "address"
        }
      ],
      "stateMutability": "view",
      "type": "function"
    },
    {
      "inputs": [],
      "name": "returnInterval",
      "outputs": [
        {
          "internalType": "uint48",
          "name": "",
          "type": "uint48"
        }
      ],
      "stateMutability": "view",
      "type": "function"
    },
    {
      "inputs": [],
      "name": "unpause",
      "outputs": [],
      "stateMutability": "nonpayable",
      "type": "function"
    },
    {
      "stateMutability": "payable",
      "type": "receive"
    }
  ],
  "bytecode": "0x61016060405234801562000011575f80fd5b50604051620048db380380620048db8339818101604052810190620000379190620008a0565b5f8060146101000a81548160ff0219169083151502179055506200006c673cf65a90a9168d6a60c01b6200083a60201b60201c565b620000886741945f982756dd6a60c01b6200083a60201b60201c565b620000a467b0888d56e6d9094d60c01b6200083a60201b60201c565b5f73ffffffffffffffffffffffffffffffffffffffff168573ffffffffffffffffffffffffffffffffffffffff16148015620000f85750620000f767972ac49f4975d93b60c01b6200083d60201b60201c565b5b806200017957505f73ffffffffffffffffffffffffffffffffffffffff168473ffffffffffffffffffffffffffffffffffffffff1614801562000153575062000152674c6a167a517c356b60c01b6200083d60201b60201c565b5b80156200017857506200017767fd38ead5bcc9574a60c01b6200083d60201b60201c565b5b5b80620001fa57505f73ffffffffffffffffffffffffffffffffffffffff168373ffffffffffffffffffffffffffffffffffffffff16148015620001d45750620001d36723fa91f7ed932ddd60c01b6200083d60201b60201c565b5b8015620001f95750620001f86722f123a3aab1e13760c01b6200083d60201b60201c565b5b5b806200025657505f73ffffffffffffffffffffffffffffffffffffffff168273ffffffffffffffffffffffffffffffffffffffff161480156200025557506200025467e33d396e1ea1f28560c01b6200083d60201b60201c565b5b5b15620002aa576200027867c09009e8885cf36a60c01b6200083a60201b60201c565b6040517f12c1701b00000000000000000000000000000000000000000000000000000000815260040160405180910390fd5b620002c6679f373e12089326d560c01b6200083a60201b60201c565b620002e267b82d67f9cd9ca37a60c01b6200083a60201b60201c565b8473ffffffffffffffffffffffffffffffffffffffff1660a08173ffffffffffffffffffffffffffffffffffffffff168152505062000332678c151525db5f7de560c01b6200083a60201b60201c565b60a05173ffffffffffffffffffffffffffffffffffffffff16635ec01e4d6040518163ffffffff1660e01b8152600401602060405180830381865afa1580156200037e573d5f803e3d5ffd5b505050506040513d601f19601f82011682018060405250810190620003a4919062000920565b73ffffffffffffffffffffffffffffffffffffffff1660e08173ffffffffffffffffffffffffffffffffffffffff1681525050620003f3671e4d232f2edd52b760c01b6200083a60201b60201c565b60e05173ffffffffffffffffffffffffffffffffffffffff16636eaccadb6040518163ffffffff1660e01b8152600401602060405180830381865afa1580156200043f573d5f803e3d5ffd5b505050506040513d601f19601f8201168201806040525081019062000465919062000948565b65ffffffffffff166101208165ffffffffffff1681525050620004996775bebb280c4a038c60c01b6200083a60201b60201c565b8373ffffffffffffffffffffffffffffffffffffffff1660c08173ffffffffffffffffffffffffffffffffffffffff1681525050620004e967bcfb8ca226ea204f60c01b6200083a60201b60201c565b60a05173ffffffffffffffffffffffffffffffffffffffff1663764bd0c56040518163ffffffff1660e01b8152600401602060405180830381865afa15801562000535573d5f803e3d5ffd5b505050506040513d601f19601f820116820180604052508101906200055b919062000979565b73ffffffffffffffffffffffffffffffffffffffff1660808173ffffffffffffffffffffffffffffffffffffffff1681525050620005aa675af5f793a1b5832a60c01b6200083a60201b60201c565b8273ffffffffffffffffffffffffffffffffffffffff166101008173ffffffffffffffffffffffffffffffffffffffff1681525050620005fb673e655ad84e6ddc1f60c01b6200083a60201b60201c565b8173ffffffffffffffffffffffffffffffffffffffff166101408173ffffffffffffffffffffffffffffffffffffffff16815250506200064c67b59b0d7d7c3afa4e60c01b6200083a60201b60201c565b620006686778d93afdca8118de60c01b6200083a60201b60201c565b60805173ffffffffffffffffffffffffffffffffffffffff1663095ea7b3867fffffffffffffffffffffffffffffffffffffffffffffffffffffffffffffffff6040518363ffffffff1660e01b8152600401620006c7929190620009a1565b6020604051808303815f875af1158015620006e4573d5f803e3d5ffd5b505050506040513d601f19601f820116820180604052508101906200070a9190620009c0565b506200072767e3d92e910205d54560c01b6200083a60201b60201c565b6200074367e7199053e557db4460c01b6200083a60201b60201c565b60805173ffffffffffffffffffffffffffffffffffffffff1663095ea7b3857fffffffffffffffffffffffffffffffffffffffffffffffffffffffffffffffff6040518363ffffffff1660e01b8152600401620007a2929190620009a1565b6020604051808303815f875af1158015620007bf573d5f803e3d5ffd5b505050506040513d601f19601f82011682018060405250810190620007e59190620009c0565b506200080267f06876364198f55360c01b6200083a60201b60201c565b6200081e67cb1a592a1873137e60c01b6200083a60201b60201c565b6200082f816200084760201b60201c565b5050505050620009eb565b50565b5f60019050919050565b805f806101000a81548173ffffffffffffffffffffffffffffffffffffffff021916908373ffffffffffffffffffffffffffffffffffffffff16021790555050565b60018060a01b03811681146200089d575f80fd5b50565b5f805f805f60a08688031215620008b5575f80fd5b8551620008c28162000889565b809550506020860151620008d68162000889565b809450506040860151620008ea8162000889565b809350506060860151620008fe8162000889565b809250506080860151620009128162000889565b809150509295509295909350565b5f6020828403121562000931575f80fd5b81516200093e8162000889565b8091505092915050565b5f6020828403121562000959575f80fd5b815165ffffffffffff811681146200096f575f80fd5b8091505092915050565b5f602082840312156200098a575f80fd5b8151620009978162000889565b8091505092915050565b5f60408201905060018060a01b03841682528260208301529392505050565b5f60208284031215620009d1575f80fd5b81518015158114620009e1575f80fd5b8091505092915050565b60805160a05160c05160e051610100516101205161014051613e3562000aa65f395f81816105400152818161081901526119f901525f8181610c8201526112df01525f81816117f40152818161214101526121bb01525f818161075d015261118f01525f818161072401526118fd01525f81816107a501528181610b9e01528181610ce601528181610f5d0152818161156d015261172201525f818161078101528181611c7201528181611d03015261245d0152613e355ff3fe608060405260043610610111575f3560e01c80638a50a8f0116100a4578063c3b6d6dd11610073578063d3b0714911610058578063d3b071491461041c578063e63ab1e91461044d578063fdcb606814610477576101c0565b8063c3b6d6dd146103c8578063ce1b815f146103f2576101c0565b80638a50a8f0146102fe5780638d497cfa14610330578063975faaed1461035a5780639f8c41fc14610397576101c0565b80635ec01e4d116100e05780635ec01e4d1461026a578063764bd0c5146102945780638313ae40146102be5780638456cb59146102e8576101c0565b80633f4ba83a146101c4578063572b6c05146101da5780635c5b831d146102165780635c975abb14610240576101c0565b366101c05761012a67f469ada183b5118560c01b6104a1565b3273ffffffffffffffffffffffffffffffffffffffff166101496104a4565b73ffffffffffffffffffffffffffffffffffffffff16036101aa5761017867e739c49b451c2b3c60c01b6104a1565b6040517f1b10b0f900000000000000000000000000000000000000000000000000000000815260040160405180910390fd5b6101be672cec3eeef6a9011960c01b6104a1565b005b5f80fd5b3480156101cf575f80fd5b506101d86104ee565b005b3480156101e5575f80fd5b5061020060048036038101906101fb91906129f5565b6106cb565b60405161020d9190612a1a565b60405180910390f35b348015610221575f80fd5b5061022a610722565b6040516102379190612a2c565b60405180910390f35b34801561024b575f80fd5b50610254610746565b6040516102619190612a1a565b60405180910390f35b348015610275575f80fd5b5061027e61075b565b60405161028b9190612a52565b60405180910390f35b34801561029f575f80fd5b506102a861077f565b6040516102b59190612a78565b60405180910390f35b3480156102c9575f80fd5b506102d26107a3565b6040516102df9190612a9e565b60405180910390f35b3480156102f3575f80fd5b506102fc6107c7565b005b61031860048036038101906103139190612b6e565b6109a4565b60405161032793929190612c67565b60405180910390f35b34801561033b575f80fd5b50610344610c80565b6040516103519190612ccf565b60405180910390f35b348015610365575f80fd5b50610380600480360381019061037b9190612ce7565b610ca4565b60405161038e929190612d1e565b60405180910390f35b6103b160048036038101906103ac9190612d4d565b611662565b6040516103bf929190612dff565b60405180910390f35b3480156103d3575f80fd5b506103dc6117f2565b6040516103e99190612e24565b60405180910390f35b3480156103fd575f80fd5b50610406611816565b6040516104139190612e24565b60405180910390f35b61043660048036038101906104319190612e4a565b61183d565b604051610444929190612dff565b60405180910390f35b348015610458575f80fd5b506104616119d3565b60405161046e9190612f27565b60405180910390f35b348015610482575f80fd5b5061048b6119f7565b6040516104989190612f37565b60405180910390f35b50565b5f6104b9672f878fc7868c170560c01b6104a1565b6104cd67f40f1a15c083b8a960c01b6104a1565b6104e167aacb577dd20737a860c01b6104a1565b6104e9611a1b565b905090565b6105026750d3ec12fa21363160c01b6104a1565b6105166785655914afdf9c7360c01b6104a1565b61052a6754abbeafa9d5bc8e60c01b6104a1565b61053e679eb260ba09d62aae60c01b6104a1565b7f000000000000000000000000000000000000000000000000000000000000000073ffffffffffffffffffffffffffffffffffffffff166391d148547f65d7a28e3265b37a6474929f336521b332c1681b933f6cb9f3376673440d862a6105a36104a4565b6040518363ffffffff1660e01b81526004016105c0929190612f5d565b602060405180830381865afa1580156105db573d5f803e3d5ffd5b505050506040513d601f19601f820116820180604052508101906105ff9190612f8a565b610649576106176741b30a96d88d8a6060c01b6104a1565b6040517fc183bcef00000000000000000000000000000000000000000000000000000000815260040160405180910390fd5b61065d67399262e3f0e2c64b60c01b6104a1565b61067167c23d4f09a32e769f60c01b6104a1565b610685674810182aa219f18d60c01b6104a1565b610699675e9d2830ba3050ad60c01b6104a1565b6106ad67454b86876f76359c60c01b6104a1565b6106c16739cbb266fa5a7c7760c01b6104a1565b6106c9611a50565b565b5f805f9054906101000a900473ffffffffffffffffffffffffffffffffffffffff1673ffffffffffffffffffffffffffffffffffffffff168273ffffffffffffffffffffffffffffffffffffffff16149050919050565b7f000000000000000000000000000000000000000000000000000000000000000081565b5f8060149054906101000a900460ff16905090565b7f000000000000000000000000000000000000000000000000000000000000000081565b7f000000000000000000000000000000000000000000000000000000000000000081565b7f000000000000000000000000000000000000000000000000000000000000000081565b6107db67683919341c49927460c01b6104a1565b6107ef6785655914afdf9c7360c01b6104a1565b6108036754abbeafa9d5bc8e60c01b6104a1565b610817679eb260ba09d62aae60c01b6104a1565b7f000000000000000000000000000000000000000000000000000000000000000073ffffffffffffffffffffffffffffffffffffffff166391d148547f65d7a28e3265b37a6474929f336521b332c1681b933f6cb9f3376673440d862a61087c6104a4565b6040518363ffffffff1660e01b8152600401610899929190612f5d565b602060405180830381865afa1580156108b4573d5f803e3d5ffd5b505050506040513d601f19601f820116820180604052508101906108d89190612f8a565b610922576108f06741b30a96d88d8a6060c01b6104a1565b6040517fc183bcef00000000000000000000000000000000000000000000000000000000815260040160405180910390fd5b61093667399262e3f0e2c64b60c01b6104a1565b61094a67c23d4f09a32e769f60c01b6104a1565b61095e677291859173d344e860c01b6104a1565b610972673ea95d4bd316a06860c01b6104a1565b61098667507e399c0ed703da60c01b6104a1565b61099a674de6c0f0c224781560c01b6104a1565b6109a2611ab1565b565b60605f806109bc676eeecff7ac7f4f2d60c01b6104a1565b6109c4611b13565b6109d867bc964b6324b9ce5a60c01b6104a1565b6109ec6745675423a603edc560c01b6104a1565b610a0067fdebbb8f7feafb0b60c01b6104a1565b610a146736dbb00a9664c5c760c01b6104a1565b5f610a29671de6a0dbca8e0c4460c01b6104a1565b610a338787611b5d565b8094508192505050610a4f670fb9ea19ebb9964b60c01b6104a1565b610a63677b12579bb761828360c01b6104a1565b5f5b8e8e9050811015610b8757610a84674ed7970f9bf4f76f60c01b6104a1565b610a9867df829be22566de3a60c01b6104a1565b60036005811115610aac57610aab612fb3565b5b8f8f83818110610abf57610abe612fe0565b5b9050602002810190610ad1919061300d565b6060016020810190610ae39190613061565b6005811115610af557610af4612fb3565b5b03610b4057610b0e67ec1d96e18918e7db60c01b6104a1565b6040517fc891add200000000000000000000000000000000000000000000000000000000815260040160405180910390fd5b610b54678125088cc922b17560c01b6104a1565b610b68677ee8987316050ef660c01b6104a1565b610b7c67f8f4fb29029bee4c60c01b6104a1565b806001019050610a65565b50610b9c67cc9cba07b6e89e1760c01b6104a1565b7f000000000000000000000000000000000000000000000000000000000000000073ffffffffffffffffffffffffffffffffffffffff1663a469d3e68f8f8f8f8f8f8f8d6040518963ffffffff1660e01b8152600401610c039897969594939291906132e1565b5f604051808303815f875af1158015610c1e573d5f803e3d5ffd5b505050506040513d5f823e3d601f19601f82011682018060405250810190610c469190613556565b8093508195505050610c62676d61986dc834ac2460c01b6104a1565b610c6d818387612393565b9150509a509a509a975050505050505050565b7f000000000000000000000000000000000000000000000000000000000000000081565b5f80610cba67a80082309ff79b6d60c01b6104a1565b610cce6734937c044c7fd10b60c01b6104a1565b610ce2671c22e2263abfc47660c01b6104a1565b5f807f000000000000000000000000000000000000000000000000000000000000000073ffffffffffffffffffffffffffffffffffffffff1663f1648e8460e01b86604051602401610d349190613611565b604051602081830303815290604052907bffffffffffffffffffffffffffffffffffffffffffffffffffffffff19166020820180517bffffffffffffffffffffffffffffffffffffffffffffffffffffffff8381831617835250505050604051610d9e9190613649565b5f60405180830381855afa9150503d805f8114610dd6576040519150601f19603f3d011682016040523d82523d5f602084013e610ddb565b606091505b5091509150610df467fc6b2c50a065ae6c60c01b6104a1565b610e0867ffdfa3cf88ddc71f60c01b6104a1565b81610e5357610e2167bfed5183fa28a23560c01b6104a1565b6040517f46ca5edf00000000000000000000000000000000000000000000000000000000815260040160405180910390fd5b610e6767dab3c0a4f77a092460c01b6104a1565b610e7b67cc7443f473820aa260c01b6104a1565b610e8f67c053e42fd6b13d8b60c01b6104a1565b5f610ea46779d5f5a8d4c38e0560c01b6104a1565b610eb867ff49d23c3bcd3dce60c01b6104a1565b610ecc67eb0e347fc18fe38660c01b6104a1565b5f610ee167b17a1ba67655af6360c01b6104a1565b61012083015190506102208301519150610f056702506e0d6bdccee060c01b6104a1565b610f1967f2a37b636f0c150960c01b6104a1565b801561102b57610f33676ac85a133e7c5e7e60c01b6104a1565b610f4767ae2156276c93ed5560c01b6104a1565b610f5b67aaadd877ac4f74f760c01b6104a1565b7f000000000000000000000000000000000000000000000000000000000000000073ffffffffffffffffffffffffffffffffffffffff16638a5e3ea0885f6040518363ffffffff1660e01b8152600401610fb6929190613666565b602060405180830381865afa158015610fd1573d5f803e3d5ffd5b505050506040513d601f19601f82011682018060405250810190610ff59190613683565b6004600581111561100957611008612fb3565b5b83600581111561101c5761101b612fb3565b5b1415955095505050505061165d565b61103f6732fe91746313a45360c01b6104a1565b5061105467c75ffa653ed5ed3a60c01b6104a1565b6110686754e48d7d092ff8eb60c01b6104a1565b5f61107d67af5a0b28af035ce760c01b6104a1565b611091679e18ca52eb19f1f160c01b6104a1565b6110a567b02fbaa9c62e3cb560c01b6104a1565b5f6110ba671b5998c543d6b51760c01b6104a1565b60c084015190506110d567e2617be5e250783860c01b6104a1565b6110e967848687a53e89cd5b60c01b6104a1565b5f8163ffffffff160361113c5761110a67c073c0029739fc5a60c01b6104a1565b6040517f46ca5edf00000000000000000000000000000000000000000000000000000000815260040160405180910390fd5b61115067260fe1f20f3562e260c01b6104a1565b6111646786e5283c28bd098c60c01b6104a1565b611178678f3dba3f50c691fb60c01b6104a1565b5f61118d67e5a5a813620ae24160c01b6104a1565b7f000000000000000000000000000000000000000000000000000000000000000073ffffffffffffffffffffffffffffffffffffffff1663fa95b139836040518263ffffffff1660e01b81526004016111e691906136a8565b6040805180830381865afa158015611200573d5f803e3d5ffd5b505050506040513d601f19601f8201168201806040525081019061122491906136be565b809250819450505061124067848d959b552ab16a60c01b6104a1565b611254670b0bf6bdf935262660c01b6104a1565b5f81036112a15761126f670765e651c2069aee60c01b6104a1565b6040517f7500063a00000000000000000000000000000000000000000000000000000000815260040160405180910390fd5b6112b567576412f4086d106b60c01b6104a1565b6112c967656155c8cdc33dff60c01b6104a1565b6112dd672d10c6e765c3e36b60c01b6104a1565b7f00000000000000000000000000000000000000000000000000000000000000008263ffffffff160165ffffffffffff1681111561135b5761132967818aac7eff934b0c60c01b6104a1565b6040517f0180357f00000000000000000000000000000000000000000000000000000000815260040160405180910390fd5b61136f671d3944e8ab202c4760c01b6104a1565b5050611385677bc23d3363680d4d60c01b6104a1565b611399670911893a9738682d60c01b6104a1565b5f6113ae67148780d2a9d89e8b60c01b6104a1565b6113c26723b40561237560db60c01b6104a1565b5f6113d7678ba166d17a3e7d9d60c01b6104a1565b60608501519150604085015190506113f9677dbee1d9ef59b07060c01b6104a1565b61140d6736d533c8d169007c60c01b6104a1565b5f8263ffffffff16036114605761142e67c160b575f9c771d060c01b6104a1565b6040517fd10cc50f00000000000000000000000000000000000000000000000000000000815260040160405180910390fd5b61147467852f7765d587013460c01b6104a1565b611488674e397a643c12c60d60c01b6104a1565b61149c67f0512d1204f466b260c01b6104a1565b5f6114b167a9531a649191ff3d60c01b6104a1565b61010086015190506114cd67572fe6fe166f842c60c01b6104a1565b6114e1677b592157bb9060d560c01b6104a1565b6114f56760b30340d768187d60c01b6104a1565b5f6101008b81611508576115076136e1565b5b06905061151f67bb847c9dc470547e60c01b6104a1565b6115336746a71d908a019f0460c01b6104a1565b5f816101000386901c8287901b1790506115576733fcfe90bfa48f9260c01b6104a1565b61156b67c44a735a40ad851760c01b6104a1565b7f000000000000000000000000000000000000000000000000000000000000000073ffffffffffffffffffffffffffffffffffffffff1663eecd5b9c8d86880163ffffffff1684816115c0576115bf6136e1565b5b066040518363ffffffff1660e01b81526004016115de92919061370e565b602060405180830381865afa1580156115f9573d5f803e3d5ffd5b505050506040513d601f19601f8201168201806040525081019061161d9190613683565b83801561164f57506004600581111561163957611638612fb3565b5b88600581111561164c5761164b612fb3565b5b14155b9a509a505050505050505050505b915091565b5f80611678676dd34bb4c9de3f0660c01b6104a1565b611680611b13565b61169467115afa0b23106a5460c01b6104a1565b6116a867e6b9ccfd96bc75d160c01b6104a1565b6116bc67fc3218219fb0c94a60c01b6104a1565b6116d067837016522590665360c01b6104a1565b5f6116e5674ff3fc867bb3c80c60c01b6104a1565b6116ef8686611b5d565b809450819250505061170b677d2ac0f50cfa582460c01b6104a1565b61171f6788e57468b680694e60c01b6104a1565b5f7f000000000000000000000000000000000000000000000000000000000000000073ffffffffffffffffffffffffffffffffffffffff1663127b3be58c8c8c8c8a6040518663ffffffff1660e01b8152600401611781959493929190613776565b6020604051808303815f875af115801561179d573d5f803e3d5ffd5b505050506040513d601f19601f820116820180604052508101906117c191906137d6565b90506117d7674fc20e741ad0e77c60c01b6104a1565b6117e2828287612393565b9250505097509795505050505050565b7f000000000000000000000000000000000000000000000000000000000000000081565b5f805f9054906101000a900473ffffffffffffffffffffffffffffffffffffffff16905090565b5f8061185367da01bc0f86ba2a1660c01b6104a1565b61185b611b13565b61186f677a2b6744408a890660c01b6104a1565b61188367a63ec731dda882da60c01b6104a1565b61189767fc98f86cecf47c1660c01b6104a1565b6118ab67dfa5d6a32c01af6760c01b6104a1565b5f6118c067f2f8b6beb410670c60c01b6104a1565b6118ca8686611b5d565b80945081925050506118e6678e2a5a338e8dabb660c01b6104a1565b6118fa67e48f265f7ed2d7ee60c01b6104a1565b5f7f000000000000000000000000000000000000000000000000000000000000000073ffffffffffffffffffffffffffffffffffffffff166342fbeae08e8e8e8e8e8e8c6040518863ffffffff1660e01b815260040161196097969594939291906137fb565b6020604051808303815f875af115801561197c573d5f803e3d5ffd5b505050506040513d601f19601f820116820180604052508101906119a091906137d6565b90506119b667dc1e56225d710fd960c01b6104a1565b6119c1828287612393565b92505050995099975050505050505050565b7f65d7a28e3265b37a6474929f336521b332c1681b933f6cb9f3376673440d862a81565b7f000000000000000000000000000000000000000000000000000000000000000081565b5f60145f36905010158015611a355750611a34336106cb565b5b15611a4957601436033560601c9050611a4d565b3390505b90565b611a586124c2565b5f8060146101000a81548160ff0219169083151502179055507f5db9ee0a495bf2e6ff9c91a7834c1ba4fdd244a5e8aa4e537bd38aeae4b073aa611a9a6104a4565b604051611aa79190612e24565b60405180910390a1565b611ab9611b13565b60015f60146101000a81548160ff0219169083151502179055507f62e78cea01bee320cd4e420270b5ea74000d11b0c9f74754ebdbfc544b05a258611afc6104a4565b604051611b099190612e24565b60405180910390a1565b611b1b610746565b15611b5b576040517f08c379a0000000000000000000000000000000000000000000000000000000008152600401611b5290613928565b60405180910390fd5b565b5f80611b73678189e611ba0142db60c01b6104a1565b611b87676597bcec4914b41260c01b6104a1565b611b9b6784d6a964558a7dcc60c01b6104a1565b5f84846004908092611baf93929190613965565b810190611bbc9190613a1e565b50915050611bd467817acbccbef7dcf160c01b6104a1565b611be867645575723b8cd84e60c01b6104a1565b6312aa3caf60e01b7bffffffffffffffffffffffffffffffffffffffffffffffffffffffff191685855f90600492611c2293929190613965565b90611c2d9190613b1c565b7bffffffffffffffffffffffffffffffffffffffffffffffffffffffff191614158015611c6a5750611c6967cfabd3e1a41ab6ef60c01b61250b565b5b80611cfb57507f000000000000000000000000000000000000000000000000000000000000000073ffffffffffffffffffffffffffffffffffffffff16815f015173ffffffffffffffffffffffffffffffffffffffff16148015611cde5750611cdd6748c6769b329edd1360c01b61250b565b5b8015611cfa5750611cf96758cfa7598eb831f560c01b61250b565b5b5b80611d8e57507f000000000000000000000000000000000000000000000000000000000000000073ffffffffffffffffffffffffffffffffffffffff16816020015173ffffffffffffffffffffffffffffffffffffffff1614158015611d715750611d70675348a540b991410260c01b61250b565b5b8015611d8d5750611d8c67295b6860bf5af2e060c01b61250b565b5b5b80611dd457505f8160800151148015611db75750611db66726c2c149e018e36b60c01b61250b565b5b8015611dd35750611dd2672f78a42656ccd37660c01b61250b565b5b5b80611e2b57503073ffffffffffffffffffffffffffffffffffffffff16816060015173ffffffffffffffffffffffffffffffffffffffff1614158015611e2a5750611e2967e9ea36531523de7c60c01b61250b565b5b5b15611e7657611e44675caa7ea0ea190da260c01b6104a1565b6040517f3034d71300000000000000000000000000000000000000000000000000000000815260040160405180910390fd5b611e8a67193f314f07c78fc060c01b6104a1565b611e9e67b99ff896d43f1ba160c01b6104a1565b611eb26767ac8868e29cdcaa60c01b6104a1565b5f73ffffffffffffffffffffffffffffffffffffffff16815f015173ffffffffffffffffffffffffffffffffffffffff16148015611f005750611eff67dc54394927ad1a9c60c01b61250b565b5b80611f69575073eeeeeeeeeeeeeeeeeeeeeeeeeeeeeeeeeeeeeeee73ffffffffffffffffffffffffffffffffffffffff16815f015173ffffffffffffffffffffffffffffffffffffffff16148015611f685750611f676794db845a36d93a0560c01b61250b565b5b5b1561201457611f82670fa0046c0d5e186b60c01b6104a1565b611f9667fe8dc0c8887cb76a60c01b6104a1565b611faa67d32933818731a9b760c01b6104a1565b80608001513414611ffb57611fc967bb8d01a4c36d8fed60c01b6104a1565b6040517f1841b4e100000000000000000000000000000000000000000000000000000000815260040160405180910390fd5b61200f6782135c6e6911daf460c01b6104a1565b61218f565b612028671444d2dafbe3033460c01b6104a1565b61203c67f523bd9159240ac460c01b6104a1565b61205067243c0076770fc8e660c01b6104a1565b5f341461209d5761206b67967698da06d034d460c01b6104a1565b6040517f1841b4e100000000000000000000000000000000000000000000000000000000815260040160405180910390fd5b6120b16703edecb181ac96e560c01b6104a1565b6120c567d86e869d7330e20560c01b6104a1565b6120d9670ab6f3a01cffc55060c01b6104a1565b6121146120e46104a4565b308360800151845f015173ffffffffffffffffffffffffffffffffffffffff16612515909392919063ffffffff16565b612128677be13fe85efc334660c01b6104a1565b61213c67c65bd5df6ab5bddd60c01b6104a1565b61218e7f00000000000000000000000000000000000000000000000000000000000000008260800151835f015173ffffffffffffffffffffffffffffffffffffffff1661259e9092919063ffffffff16565b5b6121a367e1dd283dc800b47560c01b6104a1565b6121b7674524a46782fc865b60c01b6104a1565b5f807f000000000000000000000000000000000000000000000000000000000000000073ffffffffffffffffffffffffffffffffffffffff16348888604051612201929190613b66565b5f6040518083038185875af1925050503d805f811461223b576040519150601f19603f3d011682016040523d82523d5f602084013e612240565b606091505b50915091506122596753f5a90e5c49584d60c01b6104a1565b61226d67439be7c6415a9f4060c01b6104a1565b816122b85761228667c0cc9d00301d4c5d60c01b6104a1565b6040517fa4f2ebb600000000000000000000000000000000000000000000000000000000815260040160405180910390fd5b6122cc67a03a2ec2220ef71360c01b6104a1565b6122e067a3e73cc62db5421260c01b6104a1565b808060200190518101906122f491906136be565b80955081965050506123106770ad850503b7a36560c01b6104a1565b6123246773ec1a8fa6c12fa260c01b6104a1565b8260800151841461237557612343670382292be0f1f32460c01b6104a1565b6040517f8ef0017c00000000000000000000000000000000000000000000000000000000815260040160405180910390fd5b6123896748346ac6ae40cb9660c01b6104a1565b5050509250929050565b5f6123a867eaff2ac0856171b460c01b6104a1565b6123bc674a35b77f4c9284b960c01b6104a1565b6123d06770a76a309bfb315a60c01b6104a1565b826bffffffffffffffffffffffff16846bffffffffffffffffffffffff16146124a6576124076729f30f9c5e15950e60c01b6104a1565b61241b671728b983da0bbab660c01b6104a1565b82840390506124346787f5a0a946cf8c3260c01b6104a1565b61244867012d04941ba0ee6760c01b6104a1565b6124a182826bffffffffffffffffffffffff167f000000000000000000000000000000000000000000000000000000000000000073ffffffffffffffffffffffffffffffffffffffff166126ad9092919063ffffffff16565b6124bb565b6124ba6733e52d41e5148ce560c01b6104a1565b5b9392505050565b6124ca610746565b612509576040517f08c379a000000000000000000000000000000000000000000000000000000000815260040161250090613b7c565b60405180910390fd5b565b5f60019050919050565b612598846323b872dd60e01b85858560405160240161253693929190613bb9565b604051602081830303815290604052907bffffffffffffffffffffffffffffffffffffffffffffffffffffffff19166020820180517bffffffffffffffffffffffffffffffffffffffffffffffffffffffff8381831617835250505050612733565b50505050565b5f8373ffffffffffffffffffffffffffffffffffffffff1663dd62ed3e30856040518363ffffffff1660e01b81526004016125da929190613bf1565b602060405180830381865afa1580156125f5573d5f803e3d5ffd5b505050506040513d601f19601f820116820180604052508101906126199190613c22565b90506126a78463095ea7b360e01b8585856126349190613c3c565b604051602401612645929190613c7d565b604051602081830303815290604052907bffffffffffffffffffffffffffffffffffffffffffffffffffffffff19166020820180517bffffffffffffffffffffffffffffffffffffffffffffffffffffffff8381831617835250505050612733565b50505050565b61272e8363a9059cbb60e01b84846040516024016126cc929190613c7d565b604051602081830303815290604052907bffffffffffffffffffffffffffffffffffffffffffffffffffffffff19166020820180517bffffffffffffffffffffffffffffffffffffffffffffffffffffffff8381831617835250505050612733565b505050565b5f612794826040518060400160405280602081526020017f5361666545524332303a206c6f772d6c6576656c2063616c6c206661696c65648152508573ffffffffffffffffffffffffffffffffffffffff166127f99092919063ffffffff16565b90505f815114806127b55750808060200190518101906127b49190612f8a565b5b6127f4576040517f08c379a00000000000000000000000000000000000000000000000000000000081526004016127eb90613caa565b60405180910390fd5b505050565b606061280784845f85612810565b90509392505050565b606082471015612855576040517f08c379a000000000000000000000000000000000000000000000000000000000815260040161284c90613d0d565b60405180910390fd5b5f808673ffffffffffffffffffffffffffffffffffffffff16858760405161287d9190613649565b5f6040518083038185875af1925050503d805f81146128b7576040519150601f19603f3d011682016040523d82523d5f602084013e6128bc565b606091505b50915091506128cd878383876128d9565b92505050949350505050565b6060831561293a575f835103612932576128f28561294d565b612931576040517f08c379a000000000000000000000000000000000000000000000000000000000815260040161292890613d70565b60405180910390fd5b5b829050612945565b612944838361296f565b5b949350505050565b5f808273ffffffffffffffffffffffffffffffffffffffff163b119050919050565b5f825111156129815781518083602001fd5b806040517f08c379a00000000000000000000000000000000000000000000000000000000081526004016129b59190613dad565b60405180910390fd5b73ffffffffffffffffffffffffffffffffffffffff811681146129df575f80fd5b50565b5f813590506129f0816129be565b919050565b5f60208284031215612a05575f80fd5b8135612a10816129be565b8091505092915050565b5f602082019050821515825292915050565b5f60208201905073ffffffffffffffffffffffffffffffffffffffff8316825292915050565b5f60208201905073ffffffffffffffffffffffffffffffffffffffff8316825292915050565b5f60208201905073ffffffffffffffffffffffffffffffffffffffff8316825292915050565b5f60208201905073ffffffffffffffffffffffffffffffffffffffff8316825292915050565b5f8083601f840112612ad4575f80fd5b8235905067ffffffffffffffff811115612aec575f80fd5b6020830191508360208260051b8501011115612b06575f80fd5b9250929050565b5f8135905063ffffffff81168114612b23575f80fd5b919050565b5f8083601f840112612b38575f80fd5b8235905067ffffffffffffffff811115612b50575f80fd5b602083019150836020828501011115612b67575f80fd5b9250929050565b5f805f805f805f805f8060c08b8d031215612b87575f80fd5b8a3567ffffffffffffffff80821115612b9e575f80fd5b612baa8e838f01612ac4565b9250809c5050819a5060208d0135915080821115612bc6575f80fd5b612bd28e838f01612ac4565b9250809a5050819850612be760408e01612b0d565b975060608d0135915080821115612bfc575f80fd5b612c088e838f01612ac4565b92508097505081955060808d0135915080821115612c24575f80fd5b50612c318d828e01612b28565b91508094505080925050612c4760a08c016129e2565b90509295989b9194979a5092959850565b5f81525f602082019050919050565b5f6060820160608352808651808352608085019150602092508288015f5b82811015612ca6578151845284840193508482019150600181019050612c85565b505050809250508481840152506bffffffffffffffffffffffff83166040830152949350505050565b5f60208201905065ffffffffffff8316825292915050565b5f60208284031215612cf7575f80fd5b8135905092915050565b73ffffffffffffffffffffffffffffffffffffffff811682525050565b5f60408201905073ffffffffffffffffffffffffffffffffffffffff8416825282151560208301529392505050565b5f805f805f805f6080888a031215612d63575f80fd5b873567ffffffffffffffff80821115612d7a575f80fd5b612d868b838c01612ac4565b92508099505081975060208a0135915080821115612da2575f80fd5b612dae8b838c01612ac4565b92508097505081955060408a0135915080821115612dca575f80fd5b50612dd78a828b01612b28565b915080945050809250506060880135612def816129be565b8091505092959891949750929550565b5f6040820190508382526bffffffffffffffffffffffff831660208301529392505050565b5f60208201905073ffffffffffffffffffffffffffffffffffffffff8316825292915050565b5f805f805f805f805f60a08a8c031215612e62575f80fd5b893567ffffffffffffffff80821115612e79575f80fd5b612e858d838e01612ac4565b9250809b505081995060208c0135915080821115612ea1575f80fd5b612ead8d838e01612ac4565b92508099505081975060408c0135915080821115612ec9575f80fd5b612ed58d838e01612ac4565b92508097505081955060608c0135915080821115612ef1575f80fd5b50612efe8c828d01612b28565b9150809450508092505060808a0135612f16816129be565b809150509295985092959850929598565b5f60208201905082825292915050565b5f60208201905073ffffffffffffffffffffffffffffffffffffffff8316825292915050565b5f60408201905083825273ffffffffffffffffffffffffffffffffffffffff831660208301529392505050565b5f60208284031215612f9a575f80fd5b81518015158114612fa9575f80fd5b8091505092915050565b7f4e487b71000000000000000000000000000000000000000000000000000000005f52602160045260245ffd5b7f4e487b71000000000000000000000000000000000000000000000000000000005f52603260045260245ffd5b5f82357fffffffffffffffffffffffffffffffffffffffffffffffffffffffffffffff6183360301811261303f575f80fd5b80830191505092915050565b5f813590506006811061305c575f80fd5b919050565b5f60208284031215613071575f80fd5b61307a8261304b565b905092915050565b5f8083357fffffffffffffffffffffffffffffffffffffffffffffffffffffffffffffffe18436030181126130b5575f80fd5b8381019050803591506020810192505067ffffffffffffffff8111156130d9575f80fd5b8036038213156130e7575f80fd5b9250929050565b81835281816020850137505f602082840101525f60207fffffffffffffffffffffffffffffffffffffffffffffffffffffffffffffffe0601f840116840101905092915050565b63ffffffff811682525050565b6bffffffffffffffffffffffff8116811461315b575f80fd5b50565b8183525f6020808501808196508560051b81019150845f805b88811015613288578385038a5282357fffffffffffffffffffffffffffffffffffffffffffffffffffffffffffffff418936030181126131b5578283fd5b888101905060c063ffffffff806131cb84612b0d565b168852888301356131db81613142565b6bffffffffffffffffffffffff81168a8a0152506040816131fd828601612b0d565b16818a01525050606080830135613213816129be565b73ffffffffffffffffffffffffffffffffffffffff8116828a01525050608061323d8184016129e2565b613249828a0182612d01565b505060a061325981840184613082565b935082828a015261326d838a0185836130ee565b9850505050508583019250858a019950600181019050613177565b5050505080925050509392505050565b8183525f60208085019450825f5b858110156132d45763ffffffff6132bc83612b0d565b168752828701965082820191506001810190506132a6565b5050508390509392505050565b5f60c0820160c08352808a825260e08401905060e08b60051b85010191508b5f5b8c81101561342a577fffffffffffffffffffffffffffffffffffffffffffffffffffffffffffffff2086850301835281357fffffffffffffffffffffffffffffffffffffffffffffffffffffffffffffff618f3603018112613362575f80fd5b8e8101905060a08135613374816129be565b73ffffffffffffffffffffffffffffffffffffffff811687525060208083013581880152604080840135818901525060606133b081850161304b565b600681106133e5577f4e487b71000000000000000000000000000000000000000000000000000000005f52602160045260245ffd5b80828a0152505060806133fa81850185613082565b945083828a015261340e848a0186836130ee565b9850505080850194508086019550505050600181019050613302565b505050828103602084015261344081898b61315e565b905061344f6040840188613135565b8281036060840152613462818688613298565b90506134716080840185612d01565b82810360a084015261348281612c58565b9150509998505050505050505050565b7f4e487b71000000000000000000000000000000000000000000000000000000005f52604160045260245ffd5b5f604051905060e0810181811067ffffffffffffffff821117156134e6576134e5613492565b5b806040525090565b5f60405190507fffffffffffffffffffffffffffffffffffffffffffffffffffffffffffffffe0601f830116810181811067ffffffffffffffff8211171561353957613538613492565b5b8060405250919050565b5f8151905061355181613142565b919050565b5f8060408385031215613567575f80fd5b825167ffffffffffffffff8082111561357e575f80fd5b818501915085601f830112613591575f80fd5b81516020828211156135a6576135a5613492565b5b8160051b92506135b78184016134ee565b80838252828201915082858701019450898511156135d3575f80fd5b82860195505b848610156135f45785518252828201915082860195506135d9565b8097505050613604818801613543565b9450505050509250929050565b5f60208201905082825292915050565b5f5b8381101561363e578082015181840152602081019050613623565b505f83830152505050565b5f825161365a818460208701613621565b80830191505092915050565b5f60408201905083825263ffffffff831660208301529392505050565b5f60208284031215613693575f80fd5b815161369e816129be565b8091505092915050565b5f60208201905063ffffffff8316825292915050565b5f80604083850312156136cf575f80fd5b82519150602083015190509250929050565b7f4e487b71000000000000000000000000000000000000000000000000000000005f52601260045260245ffd5b5f60408201905083825263ffffffff831660208301529392505050565b8183525f7f07ffffffffffffffffffffffffffffffffffffffffffffffffffffffffffffff83111561375b575f80fd5b8260051b808360208701376020818601019150509392505050565b608081525f61378960808301878961372b565b828103602084015261379c818688613298565b905073ffffffffffffffffffffffffffffffffffffffff8416604084015282810360608401525f8152602081019150509695505050505050565b5f602082840312156137e6575f80fd5b81516137f181613142565b8091505092915050565b60a081525f61380e60a08301898b61372b565b60208382038185015261382282898b613298565b9150838203604085015281868352818301905060058288821b850101895f5b8a8110156138f5577fffffffffffffffffffffffffffffffffffffffffffffffffffffffffffffffe087840301855281357fffffffffffffffffffffffffffffffffffffffffffffffffffffffffffffffe18d36030181126138a1575f80fd5b8c810190508035878201915067ffffffffffffffff8111156138c1575f80fd5b80861b36038213156138d1575f80fd5b6138dc85828461372b565b9450505085820191508585019450600181019050613841565b50506139046060880189612d01565b868103608088015261391581612c58565b9550505050505098975050505050505050565b60208152601060208201527f5061757361626c653a207061757365640000000000000000000000000000000060408201525f606082019050919050565b5f8085851115613973575f80fd5b8386111561397f575f80fd5b8483019150848603905094509492505050565b5f82601f8301126139a1575f80fd5b813567ffffffffffffffff8111156139bc576139bb613492565b5b6139ed60207fffffffffffffffffffffffffffffffffffffffffffffffffffffffffffffffe0601f840116016134ee565b818152846020838601011115613a01575f80fd5b816020850160208301375f60208383010152809250505092915050565b5f805f838503610120811215613a32575f80fd5b8435613a3d816129be565b8094505060e07fffffffffffffffffffffffffffffffffffffffffffffffffffffffffffffffe082011215613a70575f80fd5b50613a796134bf565b6020850135613a87816129be565b808252506040850135613a99816129be565b806020830152506060850135613aae816129be565b806040830152506080850135613ac3816129be565b8060608301525060a0850135608082015260c085013560a082015260e085013560c08201528092505061010084013567ffffffffffffffff811115613b06575f80fd5b613b1286828701613992565b9150509250925092565b5f81357fffffffff0000000000000000000000000000000000000000000000000000000080821692506004851015613b5e5780818660040360031b1b83161692505b505092915050565b818382375f8282015f8152809150509392505050565b60208152601460208201527f5061757361626c653a206e6f742070617573656400000000000000000000000060408201525f606082019050919050565b5f60608201905073ffffffffffffffffffffffffffffffffffffffff8086168352808516602084015250826040830152949350505050565b5f60408201905073ffffffffffffffffffffffffffffffffffffffff80851683528084166020840152509392505050565b5f60208284031215613c32575f80fd5b8151905092915050565b5f828201905080821115613c77577f4e487b71000000000000000000000000000000000000000000000000000000005f52601160045260245ffd5b92915050565b5f60408201905073ffffffffffffffffffffffffffffffffffffffff841682528260208301529392505050565b60208152602a60208201527f5361666545524332303a204552433230206f7065726174696f6e20646964206e60408201527f6f7420737563636565640000000000000000000000000000000000000000000060608201525f608082019050919050565b60208152602660208201527f416464726573733a20696e73756666696369656e742062616c616e636520666f60408201527f722063616c6c000000000000000000000000000000000000000000000000000060608201525f608082019050919050565b60208152601d60208201527f416464726573733a2063616c6c20746f206e6f6e2d636f6e747261637400000060408201525f606082019050919050565b602081525f8251806020840152613dcb816040850160208701613621565b60407fffffffffffffffffffffffffffffffffffffffffffffffffffffffffffffffe0601f8301168401019150509291505056fea2646970667358221220470d115b0a71e5f17636e9f9c97b224b6b536488e7c735f35d1589644cf9114c64736f6c63430008150033",
  "linkReferences": {},
  "deployedLinkReferences": {}
}