{
  "_format": "hh-sol-artifact-1",
  "contractName": "EeseeRandom",
  "sourceName": "contracts/random/EeseeRandom.sol",
  "abi": [
    {
      "inputs": [
        {
          "components": [
            {
              "internalType": "address",
              "name": "vrfCoordinator",
              "type": "address"
            },
            {
              "internalType": "bytes32",
              "name": "keyHash",
              "type": "bytes32"
            },
            {
              "internalType": "uint16",
              "name": "minimumRequestConfirmations",
              "type": "uint16"
            },
            {
              "internalType": "uint32",
              "name": "callbackGasLimit",
              "type": "uint32"
            }
          ],
          "internalType": "struct IEeseeRandom.ChainlinkContructorArgs",
          "name": "chainlinkArgs",
          "type": "tuple"
        },
        {
          "internalType": "contract IEeseeAccessManager",
          "name": "_accessManager",
          "type": "address"
        }
      ],
      "stateMutability": "nonpayable",
      "type": "constructor"
    },
    {
      "inputs": [],
      "name": "CallOnTheSameBlock",
      "type": "error"
    },
    {
      "inputs": [],
      "name": "CallerNotAuthorized",
      "type": "error"
    },
    {
      "inputs": [],
      "name": "InvalidAccessManager",
      "type": "error"
    },
    {
      "inputs": [],
      "name": "InvalidAutomationInterval",
      "type": "error"
    },
    {
      "inputs": [
        {
          "internalType": "address",
          "name": "have",
          "type": "address"
        },
        {
          "internalType": "address",
          "name": "want",
          "type": "address"
        }
      ],
      "name": "OnlyCoordinatorCanFulfill",
      "type": "error"
    },
    {
      "inputs": [],
      "name": "UpkeepNotNeeded",
      "type": "error"
    },
    {
      "anonymous": false,
      "inputs": [
        {
          "indexed": true,
          "internalType": "address",
          "name": "_contract",
          "type": "address"
        }
      ],
      "name": "ApproveContract",
      "type": "event"
    },
    {
      "anonymous": false,
      "inputs": [
        {
          "indexed": true,
          "internalType": "uint32",
          "name": "previousAutomationInterval",
          "type": "uint32"
        },
        {
          "indexed": true,
          "internalType": "uint32",
          "name": "newAutomationInterval",
          "type": "uint32"
        }
      ],
      "name": "ChangeAutomationInterval",
      "type": "event"
    },
    {
      "anonymous": false,
      "inputs": [
        {
          "indexed": true,
          "internalType": "uint32",
          "name": "previousCallbackGasLimit",
          "type": "uint32"
        },
        {
          "indexed": true,
          "internalType": "uint32",
          "name": "newCallbackGasLimit",
          "type": "uint32"
        }
      ],
      "name": "ChangeCallbackGasLimit",
      "type": "event"
    },
    {
      "anonymous": false,
      "inputs": [
        {
          "indexed": true,
          "internalType": "uint256",
          "name": "randomWord",
          "type": "uint256"
        }
      ],
      "name": "FulfillRandomWords",
      "type": "event"
    },
    {
      "anonymous": false,
      "inputs": [
        {
          "indexed": true,
          "internalType": "uint256",
          "name": "requestID",
          "type": "uint256"
        }
      ],
      "name": "RequestWords",
      "type": "event"
    },
    {
      "inputs": [],
      "name": "RETURN_INTERVAL",
      "outputs": [
        {
          "internalType": "uint48",
          "name": "",
          "type": "uint48"
        }
      ],
      "stateMutability": "view",
      "type": "function"
    },
    {
      "inputs": [],
      "name": "accessManager",
      "outputs": [
        {
          "internalType": "contract IEeseeAccessManager",
          "name": "",
          "type": "address"
        }
      ],
      "stateMutability": "view",
      "type": "function"
    },
    {
      "inputs": [],
      "name": "automationInterval",
      "outputs": [
        {
          "internalType": "uint32",
          "name": "",
          "type": "uint32"
        }
      ],
      "stateMutability": "view",
      "type": "function"
    },
    {
      "inputs": [],
      "name": "callbackGasLimit",
      "outputs": [
        {
          "internalType": "uint32",
          "name": "",
          "type": "uint32"
        }
      ],
      "stateMutability": "view",
      "type": "function"
    },
    {
      "inputs": [
        {
          "internalType": "uint32",
          "name": "_automationInterval",
          "type": "uint32"
        }
      ],
      "name": "changeAutomationInterval",
      "outputs": [],
      "stateMutability": "nonpayable",
      "type": "function"
    },
    {
      "inputs": [
        {
          "internalType": "uint32",
          "name": "_callbackGasLimit",
          "type": "uint32"
        }
      ],
      "name": "changeCallbackGasLimit",
      "outputs": [],
      "stateMutability": "nonpayable",
      "type": "function"
    },
    {
      "inputs": [
        {
          "internalType": "bytes",
          "name": "",
          "type": "bytes"
        }
      ],
      "name": "checkUpkeep",
      "outputs": [
        {
          "internalType": "bool",
          "name": "upkeepNeeded",
          "type": "bool"
        },
        {
          "internalType": "bytes",
          "name": "",
          "type": "bytes"
        }
      ],
      "stateMutability": "view",
      "type": "function"
    },
    {
      "inputs": [
        {
          "internalType": "uint256",
          "name": "_timestamp",
          "type": "uint256"
        }
      ],
      "name": "getRandomFromTimestamp",
      "outputs": [
        {
          "internalType": "uint256",
          "name": "word",
          "type": "uint256"
        },
        {
          "internalType": "uint256",
          "name": "timestamp",
          "type": "uint256"
        }
      ],
      "stateMutability": "view",
      "type": "function"
    },
    {
      "inputs": [
        {
          "internalType": "bytes",
          "name": "",
          "type": "bytes"
        }
      ],
      "name": "performUpkeep",
      "outputs": [],
      "stateMutability": "nonpayable",
      "type": "function"
    },
    {
      "inputs": [],
      "name": "performUpkeep",
      "outputs": [],
      "stateMutability": "nonpayable",
      "type": "function"
    },
    {
      "inputs": [],
      "name": "performUpkeepTimestamp",
      "outputs": [
        {
          "internalType": "uint64",
          "name": "",
          "type": "uint64"
        }
      ],
      "stateMutability": "view",
      "type": "function"
    },
    {
      "inputs": [
        {
          "internalType": "uint256",
          "name": "",
          "type": "uint256"
        }
      ],
      "name": "random",
      "outputs": [
        {
          "internalType": "uint256",
          "name": "word",
          "type": "uint256"
        },
        {
          "internalType": "uint256",
          "name": "timestamp",
          "type": "uint256"
        }
      ],
      "stateMutability": "view",
      "type": "function"
    },
    {
      "inputs": [
        {
          "internalType": "uint256",
          "name": "requestId",
          "type": "uint256"
        },
        {
          "internalType": "uint256[]",
          "name": "randomWords",
          "type": "uint256[]"
        }
      ],
      "name": "rawFulfillRandomWords",
      "outputs": [],
      "stateMutability": "nonpayable",
      "type": "function"
    },
    {
      "inputs": [],
      "name": "subscriptionID",
      "outputs": [
        {
          "internalType": "uint64",
          "name": "",
          "type": "uint64"
        }
      ],
      "stateMutability": "view",
      "type": "function"
    },
    {
      "inputs": [],
      "name": "vrfCoordinator",
      "outputs": [
        {
          "internalType": "contract VRFCoordinatorV2Interface",
          "name": "",
          "type": "address"
        }
      ],
      "stateMutability": "view",
      "type": "function"
    }
  ],
  "bytecode": "0x61016060405261a8c0600160086101000a81548163ffffffff021916908363ffffffff16021790555034801562000034575f80fd5b506040516200214a3803806200214a83398181016040528101906200005a91906200050a565b815f01518073ffffffffffffffffffffffffffffffffffffffff1660808173ffffffffffffffffffffffffffffffffffffffff168152505050620000af671fe83012c72abadd60c01b620004b360201b60201c565b620000cb67bcfff8dade7b5b0460c01b620004b360201b60201c565b620000e767b7f84926f10384c760c01b620004b360201b60201c565b5f73ffffffffffffffffffffffffffffffffffffffff168173ffffffffffffffffffffffffffffffffffffffff160362000169576200013767726b8cfbd3cfb50a60c01b620004b360201b60201c565b6040517fa98154e200000000000000000000000000000000000000000000000000000000815260040160405180910390fd5b62000185678b614c5750676f5160c01b620004b360201b60201c565b620001a167962af87f5b4ade1560c01b620004b360201b60201c565b815f015173ffffffffffffffffffffffffffffffffffffffff166101208173ffffffffffffffffffffffffffffffffffffffff1681525050620001f5670ab7e834cda931d260c01b620004b360201b60201c565b6101205173ffffffffffffffffffffffffffffffffffffffff1663a21a23e46040518163ffffffff1660e01b81526004016020604051808303815f875af115801562000243573d5f803e3d5ffd5b505050506040513d601f19601f82011682018060405250810190620002699190620005b7565b67ffffffffffffffff1660e08167ffffffffffffffff1681525050620002a067288ec6a59bdac6d560c01b620004b360201b60201c565b620002bc6777007faaab5654e860c01b620004b360201b60201c565b6101205173ffffffffffffffffffffffffffffffffffffffff16637341c10c60e051306040518363ffffffff1660e01b8152600401620002fe929190620005e8565b5f604051808303815f87803b15801562000316575f80fd5b505af115801562000329573d5f803e3d5ffd5b505050506200034967bd0f62f81f50819360c01b620004b360201b60201c565b816020015161014081815250506200037267fc45d4f3a89568e060c01b620004b360201b60201c565b816040015161ffff166101008161ffff1681525050620003a3673ec2e77c25ac014460c01b620004b360201b60201c565b81606001516001600c6101000a81548163ffffffff021916908363ffffffff160217905550620003e4673724b1e00701666860c01b620004b360201b60201c565b8073ffffffffffffffffffffffffffffffffffffffff1660a08173ffffffffffffffffffffffffffffffffffffffff168152505062000434673f9d0f4872d8af1060c01b620004b360201b60201c565b8073ffffffffffffffffffffffffffffffffffffffff166375b238fc6040518163ffffffff1660e01b8152600401602060405180830381865afa1580156200047e573d5f803e3d5ffd5b505050506040513d601f19601f82011682018060405250810190620004a491906200060f565b60c0818152505050506200062a565b50565b5f8151905060018060a01b0381168114620004cf575f80fd5b919050565b5f8151905061ffff81168114620004e9575f80fd5b919050565b5f8151905063ffffffff8116811462000505575f80fd5b919050565b5f8082840360a08112156200051d575f80fd5b60808112156200052b575f80fd5b506040516080810181811060018060401b03821117156200055a57634e487b7160e01b5f52604160045260245ffd5b80604052506200056a84620004b6565b8152602084015160208201526200058460408501620004d4565b60408201526200059760608501620004ee565b606082015280925050620005ae60808401620004b6565b90509250929050565b5f60208284031215620005c8575f80fd5b815160018060401b0381168114620005de575f80fd5b8091505092915050565b5f60408201905060018060401b038416825260018060a01b03831660208301529392505050565b5f6020828403121562000620575f80fd5b8151905092915050565b60805160a05160c05160e051610100516101205161014051611a9d620006ad5f395f61106d01525f8181610790015261103101525f6110af01525f818161076c015261108e01525f81816107f60152610a6101525f81816105fe0152818161085301528181610abe0152610dc901525f81816102d8015261032c0152611a9d5ff3fe608060405234801561000f575f80fd5b50600436106100f3575f3560e01c806375d1d2d111610095578063f06e230f11610064578063f06e230f1461024d578063f5d1180e1461026b578063fa95b13914610287578063fdcb6068146102b8576100f3565b806375d1d2d1146101c4578063a3e56fa8146101e2578063b863bd3714610200578063e86a51cb14610231576100f3565b8063669a6ae3116100d1578063669a6ae31461014d5780636e04ff0d1461016b5780636e4d243a1461019c5780636eaccadb146101a6576100f3565b80631fe543e3146100f757806324f74697146101135780634585e33b14610131575b5f80fd5b610111600480360381019061010c919061159e565b6102d6565b005b61011b610396565b6040516101289190611652565b60405180910390f35b61014b60048036038101906101469190611668565b6103ac565b005b6101556104bf565b6040516101629190611652565b60405180910390f35b610185600480360381019061018091906116d5565b6104d5565b604051610193929190611784565b60405180910390f35b6101a461058b565b005b6101ae610763565b6040516101bb91906117fa565b60405180910390f35b6101cc61076a565b6040516101d99190611812565b60405180910390f35b6101ea61078e565b6040516101f7919061182c565b60405180910390f35b61021a60048036038101906102159190611852565b6107b2565b60405161022892919061186c565b60405180910390f35b61024b60048036038101906102469190611883565b6107e0565b005b610255610a32565b6040516102629190611812565b60405180910390f35b61028560048036038101906102809190611883565b610a4b565b005b6102a1600480360381019061029c9190611852565b610d38565b6040516102af92919061186c565b60405180910390f35b6102c0610dc7565b6040516102cd91906118b0565b60405180910390f35b7f000000000000000000000000000000000000000000000000000000000000000073ffffffffffffffffffffffffffffffffffffffff163373ffffffffffffffffffffffffffffffffffffffff161461038857337f00000000000000000000000000000000000000000000000000000000000000006040517f1cf993f400000000000000000000000000000000000000000000000000000000815260040161037f9291906118d6565b60405180910390fd5b6103928282610deb565b5050565b6001600c9054906101000a900463ffffffff1681565b6103c0674b10c89dc077d4ff60c01b610fef565b6103d467efdd166d6b6fde4d60c01b610fef565b6103e8676244cf291526706760c01b610fef565b5f61040060405180602001604052805f8152506104d5565b509050610417679ed3e5d9365899d460c01b610fef565b61042b6712590e02b223e6eb60c01b610fef565b8061047657610444679a80d411a59e75fd60c01b610fef565b6040517f865676e300000000000000000000000000000000000000000000000000000000815260040160405180910390fd5b61048a6791204738a6846f2c60c01b610fef565b61049e670d14ef63ca9ca15e60c01b610fef565b6104b267b08c92f0a5abf8f360c01b610fef565b6104ba610ff2565b505050565b600160089054906101000a900463ffffffff1681565b5f60606104ec6784b1c14f9cc8ee9a60c01b610fef565b61050067beb3322abc2a363460c01b610fef565b610514679edae61db038e64760c01b610fef565b600160089054906101000a900463ffffffff1663ffffffff1660015f9054906101000a900467ffffffffffffffff1667ffffffffffffffff1642031061057157610568672dbd3114366fb9f160c01b610fef565b60019150610586565b610585677f286a6a1c14064460c01b610fef565b5b915091565b61059f679441244991aac0af60c01b610fef565b7f2a2c268c7cd0f39b7cc90b7a2a94e8493b3e1a763a91e9860bf316284c8e155f6105d4670c6a0f8e05f9bf3860c01b610fef565b6105e867f043d53e6b895f3e60c01b610fef565b6105fc672262ee87d43f640860c01b610fef565b7f000000000000000000000000000000000000000000000000000000000000000073ffffffffffffffffffffffffffffffffffffffff166391d1485482336040518363ffffffff1660e01b8152600401610657929190611907565b602060405180830381865afa158015610672573d5f803e3d5ffd5b505050506040513d601f19601f820116820180604052508101906106969190611934565b6106e0576106ae67e8c75923a00aa80860c01b610fef565b6040517fc183bcef00000000000000000000000000000000000000000000000000000000815260040160405180910390fd5b6106f467d2cda6f8b01dc90d60c01b610fef565b610708679b3edba7356bbd1d60c01b610fef565b61071c670329d919d285f37660c01b610fef565b610730677d32c07e1d08ebb960c01b610fef565b61074467efd9a8ceb062c0b960c01b610fef565b6107586765dce3d39aff9a9a60c01b610fef565b610760610ff2565b50565b6201518081565b7f000000000000000000000000000000000000000000000000000000000000000081565b7f000000000000000000000000000000000000000000000000000000000000000081565b5f81815481106107c0575f80fd5b905f5260205f2090600202015f91509050805f0154908060010154905082565b6107f46709d02e73aa1e131960c01b610fef565b7f0000000000000000000000000000000000000000000000000000000000000000610829670c6a0f8e05f9bf3860c01b610fef565b61083d67f043d53e6b895f3e60c01b610fef565b610851672262ee87d43f640860c01b610fef565b7f000000000000000000000000000000000000000000000000000000000000000073ffffffffffffffffffffffffffffffffffffffff166391d1485482336040518363ffffffff1660e01b81526004016108ac929190611907565b602060405180830381865afa1580156108c7573d5f803e3d5ffd5b505050506040513d601f19601f820116820180604052508101906108eb9190611934565b6109355761090367e8c75923a00aa80860c01b610fef565b6040517fc183bcef00000000000000000000000000000000000000000000000000000000815260040160405180910390fd5b61094967d2cda6f8b01dc90d60c01b610fef565b61095d679b3edba7356bbd1d60c01b610fef565b610971679d28cf7b7df5fc8c60c01b610fef565b61098567b8941accd433d13360c01b610fef565b6109996703f896b8500f441460c01b610fef565b6109ad672b0c5e8075f352b260c01b610fef565b8163ffffffff166001600c9054906101000a900463ffffffff1663ffffffff167f1b5bc0e8369be8178f996135188f0f6bd65acd9785c2ee825f399781598c741860405160405180910390a3610a0d679a0dd5470f58447260c01b610fef565b816001600c6101000a81548163ffffffff021916908363ffffffff1602179055505050565b60015f9054906101000a900467ffffffffffffffff1681565b610a5f674a55be3cb4909f0d60c01b610fef565b7f0000000000000000000000000000000000000000000000000000000000000000610a94670c6a0f8e05f9bf3860c01b610fef565b610aa867f043d53e6b895f3e60c01b610fef565b610abc672262ee87d43f640860c01b610fef565b7f000000000000000000000000000000000000000000000000000000000000000073ffffffffffffffffffffffffffffffffffffffff166391d1485482336040518363ffffffff1660e01b8152600401610b17929190611907565b602060405180830381865afa158015610b32573d5f803e3d5ffd5b505050506040513d601f19601f82011682018060405250810190610b569190611934565b610ba057610b6e67e8c75923a00aa80860c01b610fef565b6040517fc183bcef00000000000000000000000000000000000000000000000000000000815260040160405180910390fd5b610bb467d2cda6f8b01dc90d60c01b610fef565b610bc8679b3edba7356bbd1d60c01b610fef565b610bdc679ec85c72739856a760c01b610fef565b610bf0674a09f1e6828f767e60c01b610fef565b610c046770e7a97e9e938abe60c01b610fef565b610c18679d53bc7efcd899c560c01b610fef565b6201518065ffffffffffff168263ffffffff161115610c7757610c45674aab9a73fb9878e960c01b610fef565b6040517fd05dad4900000000000000000000000000000000000000000000000000000000815260040160405180910390fd5b610c8b67dbf8b03a657eab6260c01b610fef565b610c9f67366213b9c81a038760c01b610fef565b610cb3673af1009bf079099f60c01b610fef565b8163ffffffff16600160089054906101000a900463ffffffff1663ffffffff167f3ad7100a9d211edd63b63bb4432939b90399415afe4ff5c1b3eaff93fd6fcf3960405160405180910390a3610d1367758b1546f4e617bf60c01b610fef565b81600160086101000a81548163ffffffff021916908363ffffffff1602179055505050565b5f80610d4e673d770471e3fcfc7560c01b610fef565b610d626731e7e428cb9d698760c01b610fef565b610d7667d76fa3448e1a153b60c01b610fef565b5f610d8a845f6111d990919063ffffffff16565b9050610da0677c30c143efd2bc2f60c01b610fef565b610db467ec2cee9ec392c6ea60c01b610fef565b805f015181602001519250925050915091565b7f000000000000000000000000000000000000000000000000000000000000000081565b610dff67390bb88d1b9a85ec60c01b610fef565b610e13676b1f361d0323f48560c01b610fef565b610e2767f3f312f30f49cfa560c01b610fef565b5f80805490509050610e436797692a8671a3f7bf60c01b610fef565b610e57674a3a6f45306ae2d460c01b610fef565b5f81118015610e8a5750425f6001830381548110610e7857610e7761195d565b5b905f5260205f20906002020160010154145b15610ed557610ea367dbf1837de8b4790860c01b610fef565b6040517fa094db0f00000000000000000000000000000000000000000000000000000000815260040160405180910390fd5b610ee96750b68b981e6b189f60c01b610fef565b610efd67c2cbaa0b7cd8f4b660c01b610fef565b610f116782cfdfeb26a1231860c01b610fef565b5f6040518060400160405280845f81518110610f3057610f2f61195d565b5b6020026020010151815260200142815250908060018154018082558091505060019003905f5260205f2090600202015f909190919091505f820151815f0155602082015181600101555050610f8f67729656be7bb237c460c01b610fef565b610fa367e80baf128e5746fd60c01b610fef565b815f81518110610fb657610fb561195d565b5b60200260200101517f41a7c5307276c3ee1dd4b0850ff28b9666beaa3df758778d16591980b22e5b8460405160405180910390a2505050565b50565b6110066715be66758eb4ced860c01b610fef565b61101a67c9fba286f913c84960c01b610fef565b61102e673b512a27b300b64b60c01b610fef565b5f7f000000000000000000000000000000000000000000000000000000000000000073ffffffffffffffffffffffffffffffffffffffff16635d3b1d307f00000000000000000000000000000000000000000000000000000000000000007f00000000000000000000000000000000000000000000000000000000000000007f00000000000000000000000000000000000000000000000000000000000000006001600c9054906101000a900463ffffffff1660016040518663ffffffff1660e01b815260040161110395949392919061198a565b6020604051808303815f875af115801561111f573d5f803e3d5ffd5b505050506040513d601f19601f8201168201806040525081019061114391906119ce565b9050611159671af8899d6ac381f360c01b610fef565b4260015f6101000a81548167ffffffffffffffff021916908367ffffffffffffffff16021790555061119567444dec1089deb8b560c01b610fef565b6111a9670efd08fb38f8a7bc60c01b610fef565b807f1b16b976bbe9076ba9909ce80b254d69fae61ba08ea75053e0f77ddc40e8db7760405160405180910390a250565b6111e1611504565b6111f567132fef639345adcc60c01b6114d2565b61120967e324ff9cb8a101b960c01b6114d2565b61121d679e6be6f7955da5bb60c01b6114d2565b5f838054905090506112396776699757c7d0b89260c01b6114d2565b61124d6730ec8f3c36679b6f60c01b6114d2565b61126167e8f539d6c38c8c7660c01b6114d2565b5f81148015611280575061127f67ded7ad7eeb31640a60c01b6114d5565b5b806112cc575083600182038154811061129c5761129b61195d565b5b905f5260205f2090600202016001015483101580156112cb57506112ca67240cb82c413c7be060c01b6114d5565b5b5b15611313576112e567bdaa3b96c0f07e2c60c01b6114d2565b6112f9671571d26ea1c7e5b060c01b6114d2565b61130d67df89f872511b876b60c01b6114d2565b506114cc565b61132767bed714e03c5f381b60c01b6114d2565b61133b6760e347a41a83411b60c01b6114d2565b61134f6718180e4a73b75bbc60c01b6114d2565b5f61136467fd2c3a6614d01c7860c01b6114d2565b611378671f0fca910f653fae60c01b6114d2565b5b8181101561147657611395671140e02bdef5fa5960c01b6114d2565b6113a96721f8ebff950ce69660c01b6114d2565b5f6113b482846114df565b90506113ca672fb395f65cc2d18b60c01b6114d2565b6113de6754789c10adf7f08a60c01b6114d2565b848682815481106113f2576113f161195d565b5b905f5260205f2090600202016001015411156114385761141c6770490121d7e4911760c01b6114d2565b61143067dedc6b5c112d057d60c01b6114d2565b809250611470565b61144c67dbf6b5787994ee4760c01b6114d2565b61146067c5ed9495bc806a8660c01b6114d2565b60018161146d91906119e8565b91505b50611379565b61148a67eeb38d7d0b33fa4560c01b6114d2565b84818154811061149d5761149c61195d565b5b905f5260205f2090600202016040518060400160405290815f8201548152602001600182015481525050925050505b92915050565b50565b5f60019050919050565b5f60028284186114ef9190611a29565b8284166114fc91906119e8565b905092915050565b60405180604001604052805f81526020015f81525090565b7f4e487b71000000000000000000000000000000000000000000000000000000005f52604160045260245ffd5b5f60405190507fffffffffffffffffffffffffffffffffffffffffffffffffffffffffffffffe0601f830116810181811067ffffffffffffffff821117156115945761159361151c565b5b8060405250919050565b5f80604083850312156115af575f80fd5b8235915060208084013567ffffffffffffffff808211156115ce575f80fd5b818601915086601f8301126115e1575f80fd5b8135818111156115f4576115f361151c565b5b8060051b9150611605848301611549565b8082825285820191508584860101935089841115611621575f80fd5b85850194505b83851015611642578435825285820191508585019450611627565b8096505050505050509250929050565b5f60208201905063ffffffff8316825292915050565b5f8060208385031215611679575f80fd5b823567ffffffffffffffff80821115611690575f80fd5b818501915085601f8301126116a3575f80fd5b8135818111156116b1575f80fd5b8660208285010111156116c2575f80fd5b6020830194508093505050509250929050565b5f60208083850312156116e6575f80fd5b823567ffffffffffffffff808211156116fd575f80fd5b818501915085601f830112611710575f80fd5b8135818111156117235761172261151c565b5b611753847fffffffffffffffffffffffffffffffffffffffffffffffffffffffffffffffe0601f84011601611549565b91508082528684828501011115611768575f80fd5b80848401858401375f8482840101525080935050505092915050565b82151581525f602060408184015283518060408501525f5b818110156117bb5782818701015160608287010152828101905061179c565b505f6060828601015260607fffffffffffffffffffffffffffffffffffffffffffffffffffffffffffffffe0601f830116850101925050509392505050565b5f60208201905065ffffffffffff8316825292915050565b5f60208201905067ffffffffffffffff8316825292915050565b5f60208201905073ffffffffffffffffffffffffffffffffffffffff8316825292915050565b5f60208284031215611862575f80fd5b8135905092915050565b5f6040820190508382528260208301529392505050565b5f60208284031215611893575f80fd5b813563ffffffff811681146118a6575f80fd5b8091505092915050565b5f60208201905073ffffffffffffffffffffffffffffffffffffffff8316825292915050565b5f60408201905073ffffffffffffffffffffffffffffffffffffffff80851683528084166020840152509392505050565b5f60408201905083825273ffffffffffffffffffffffffffffffffffffffff831660208301529392505050565b5f60208284031215611944575f80fd5b81518015158114611953575f80fd5b8091505092915050565b7f4e487b71000000000000000000000000000000000000000000000000000000005f52603260045260245ffd5b5f60a08201905086825267ffffffffffffffff8616602083015261ffff8516604083015263ffffffff80851660608401528084166080840152509695505050505050565b5f602082840312156119de575f80fd5b8151905092915050565b5f828201905080821115611a23577f4e487b71000000000000000000000000000000000000000000000000000000005f52601160045260245ffd5b92915050565b5f82611a5c577f4e487b71000000000000000000000000000000000000000000000000000000005f52601260045260245ffd5b82820490509291505056fea26469706673582212200f48b5cd18f20aa04ad11e6a2f5b54ed3a3cea88af17dfd6e20c6b9dcd87650264736f6c63430008150033",
  "linkReferences": {},
  "deployedLinkReferences": {}
}