{
  "_format": "hh-sol-artifact-1",
  "contractName": "EeseeStaking",
  "sourceName": "contracts/rewards/EeseeStaking.sol",
  "abi": [
    {
      "inputs": [
        {
          "internalType": "address",
          "name": "_ESE",
          "type": "address"
        },
        {
          "components": [
            {
              "internalType": "uint256",
              "name": "volumeBreakpoint",
              "type": "uint256"
            },
            {
              "internalType": "uint64",
              "name": "rewardRateFlexible",
              "type": "uint64"
            },
            {
              "internalType": "uint64",
              "name": "rewardRateLocked",
              "type": "uint64"
            }
          ],
          "internalType": "struct IEeseeStaking._TierData[]",
          "name": "_tierData",
          "type": "tuple[]"
        },
        {
          "internalType": "contract IEeseeAccessManager",
          "name": "_accessManager",
          "type": "address"
        },
        {
          "internalType": "address",
          "name": "trustedForwarder",
          "type": "address"
        }
      ],
      "stateMutability": "nonpayable",
      "type": "constructor"
    },
    {
      "inputs": [],
      "name": "AlreadyGranted",
      "type": "error"
    },
    {
      "inputs": [],
      "name": "CallerNotAuthorized",
      "type": "error"
    },
    {
      "inputs": [],
      "name": "CallerNotVolumeUpdater",
      "type": "error"
    },
    {
      "inputs": [],
      "name": "InsufficientStake",
      "type": "error"
    },
    {
      "inputs": [],
      "name": "InvalidBreakpoint",
      "type": "error"
    },
    {
      "inputs": [],
      "name": "InvalidConstructor",
      "type": "error"
    },
    {
      "inputs": [],
      "name": "InvalidDuration",
      "type": "error"
    },
    {
      "inputs": [],
      "name": "InvalidRecipient",
      "type": "error"
    },
    {
      "inputs": [],
      "name": "InvalidRewardRate",
      "type": "error"
    },
    {
      "inputs": [],
      "name": "InvalidTiersLength",
      "type": "error"
    },
    {
      "inputs": [],
      "name": "VolumeUpdaterNotGranted",
      "type": "error"
    },
    {
      "inputs": [],
      "name": "WithdrawalNotAvailable",
      "type": "error"
    },
    {
      "anonymous": false,
      "inputs": [
        {
          "indexed": true,
          "internalType": "uint64",
          "name": "previousDuration",
          "type": "uint64"
        },
        {
          "indexed": true,
          "internalType": "uint64",
          "name": "newDuration",
          "type": "uint64"
        }
      ],
      "name": "ChangeDuration",
      "type": "event"
    },
    {
      "anonymous": false,
      "inputs": [
        {
          "indexed": true,
          "internalType": "address",
          "name": "user",
          "type": "address"
        },
        {
          "indexed": false,
          "internalType": "uint96",
          "name": "amount",
          "type": "uint96"
        }
      ],
      "name": "DepositFlexible",
      "type": "event"
    },
    {
      "anonymous": false,
      "inputs": [
        {
          "indexed": true,
          "internalType": "address",
          "name": "user",
          "type": "address"
        },
        {
          "indexed": false,
          "internalType": "uint96",
          "name": "amount",
          "type": "uint96"
        },
        {
          "indexed": false,
          "internalType": "uint64",
          "name": "unlockTime",
          "type": "uint64"
        }
      ],
      "name": "DepositLocked",
      "type": "event"
    },
    {
      "anonymous": false,
      "inputs": [
        {
          "indexed": true,
          "internalType": "address",
          "name": "account",
          "type": "address"
        }
      ],
      "name": "GrantVolumeUpdater",
      "type": "event"
    },
    {
      "anonymous": false,
      "inputs": [
        {
          "indexed": true,
          "internalType": "address",
          "name": "account",
          "type": "address"
        }
      ],
      "name": "RevokeVolumeUpdater",
      "type": "event"
    },
    {
      "anonymous": false,
      "inputs": [
        {
          "indexed": false,
          "internalType": "uint64[]",
          "name": "rewardRatesFlexible",
          "type": "uint64[]"
        },
        {
          "indexed": false,
          "internalType": "uint64[]",
          "name": "rewardRatesLocked",
          "type": "uint64[]"
        }
      ],
      "name": "UpdateRewardRates",
      "type": "event"
    },
    {
      "anonymous": false,
      "inputs": [
        {
          "indexed": true,
          "internalType": "address",
          "name": "sender",
          "type": "address"
        },
        {
          "indexed": true,
          "internalType": "address",
          "name": "recipient",
          "type": "address"
        },
        {
          "indexed": false,
          "internalType": "uint96",
          "name": "amount",
          "type": "uint96"
        }
      ],
      "name": "WithdrawFlexible",
      "type": "event"
    },
    {
      "anonymous": false,
      "inputs": [
        {
          "indexed": true,
          "internalType": "address",
          "name": "sender",
          "type": "address"
        },
        {
          "indexed": true,
          "internalType": "address",
          "name": "recipient",
          "type": "address"
        },
        {
          "indexed": false,
          "internalType": "uint96",
          "name": "amount",
          "type": "uint96"
        }
      ],
      "name": "WithdrawLocked",
      "type": "event"
    },
    {
      "inputs": [],
      "name": "ADMIN_ROLE",
      "outputs": [
        {
          "internalType": "bytes32",
          "name": "",
          "type": "bytes32"
        }
      ],
      "stateMutability": "view",
      "type": "function"
    },
    {
      "inputs": [],
      "name": "ESE",
      "outputs": [
        {
          "internalType": "contract IERC20",
          "name": "",
          "type": "address"
        }
      ],
      "stateMutability": "view",
      "type": "function"
    },
    {
      "inputs": [],
      "name": "accessManager",
      "outputs": [
        {
          "internalType": "contract IEeseeAccessManager",
          "name": "",
          "type": "address"
        }
      ],
      "stateMutability": "view",
      "type": "function"
    },
    {
      "inputs": [
        {
          "internalType": "uint96",
          "name": "_volume",
          "type": "uint96"
        },
        {
          "internalType": "address",
          "name": "_address",
          "type": "address"
        }
      ],
      "name": "addVolume",
      "outputs": [],
      "stateMutability": "nonpayable",
      "type": "function"
    },
    {
      "inputs": [
        {
          "internalType": "uint64",
          "name": "_duration",
          "type": "uint64"
        }
      ],
      "name": "changeDuration",
      "outputs": [],
      "stateMutability": "nonpayable",
      "type": "function"
    },
    {
      "inputs": [
        {
          "internalType": "bool",
          "name": "isLocked",
          "type": "bool"
        },
        {
          "internalType": "uint96",
          "name": "amount",
          "type": "uint96"
        },
        {
          "internalType": "bytes",
          "name": "permit",
          "type": "bytes"
        }
      ],
      "name": "deposit",
      "outputs": [],
      "stateMutability": "nonpayable",
      "type": "function"
    },
    {
      "inputs": [],
      "name": "duration",
      "outputs": [
        {
          "internalType": "uint64",
          "name": "",
          "type": "uint64"
        }
      ],
      "stateMutability": "view",
      "type": "function"
    },
    {
      "inputs": [],
      "name": "getTrustedForwarder",
      "outputs": [
        {
          "internalType": "address",
          "name": "forwarder",
          "type": "address"
        }
      ],
      "stateMutability": "view",
      "type": "function"
    },
    {
      "inputs": [
        {
          "internalType": "address",
          "name": "_address",
          "type": "address"
        }
      ],
      "name": "grantVolumeUpdater",
      "outputs": [],
      "stateMutability": "nonpayable",
      "type": "function"
    },
    {
      "inputs": [
        {
          "internalType": "address",
          "name": "forwarder",
          "type": "address"
        }
      ],
      "name": "isTrustedForwarder",
      "outputs": [
        {
          "internalType": "bool",
          "name": "",
          "type": "bool"
        }
      ],
      "stateMutability": "view",
      "type": "function"
    },
    {
      "inputs": [
        {
          "internalType": "bool",
          "name": "isLocked",
          "type": "bool"
        },
        {
          "internalType": "address",
          "name": "_user",
          "type": "address"
        }
      ],
      "name": "pendingReward",
      "outputs": [
        {
          "internalType": "uint96",
          "name": "",
          "type": "uint96"
        }
      ],
      "stateMutability": "view",
      "type": "function"
    },
    {
      "inputs": [
        {
          "internalType": "address",
          "name": "_address",
          "type": "address"
        }
      ],
      "name": "revokeVolumeUpdater",
      "outputs": [],
      "stateMutability": "nonpayable",
      "type": "function"
    },
    {
      "inputs": [
        {
          "internalType": "uint256",
          "name": "_volume",
          "type": "uint256"
        }
      ],
      "name": "tier",
      "outputs": [
        {
          "internalType": "uint256",
          "name": "",
          "type": "uint256"
        }
      ],
      "stateMutability": "view",
      "type": "function"
    },
    {
      "inputs": [
        {
          "internalType": "uint256",
          "name": "_tier",
          "type": "uint256"
        }
      ],
      "name": "tierInfo",
      "outputs": [
        {
          "components": [
            {
              "internalType": "uint256",
              "name": "volumeBreakpoint",
              "type": "uint256"
            },
            {
              "internalType": "uint64",
              "name": "rewardRateFlexible",
              "type": "uint64"
            },
            {
              "internalType": "uint64",
              "name": "rewardRateLocked",
              "type": "uint64"
            }
          ],
          "internalType": "struct IEeseeStaking._TierData",
          "name": "_tierData",
          "type": "tuple"
        }
      ],
      "stateMutability": "view",
      "type": "function"
    },
    {
      "inputs": [],
      "name": "totalDeposits",
      "outputs": [
        {
          "internalType": "uint96",
          "name": "",
          "type": "uint96"
        }
      ],
      "stateMutability": "view",
      "type": "function"
    },
    {
      "inputs": [
        {
          "internalType": "uint64[]",
          "name": "rewardRatesFlexible",
          "type": "uint64[]"
        },
        {
          "internalType": "uint64[]",
          "name": "rewardRatesLocked",
          "type": "uint64[]"
        }
      ],
      "name": "updateRewardRates",
      "outputs": [],
      "stateMutability": "nonpayable",
      "type": "function"
    },
    {
      "inputs": [
        {
          "internalType": "bool",
          "name": "",
          "type": "bool"
        },
        {
          "internalType": "address",
          "name": "",
          "type": "address"
        }
      ],
      "name": "userInfo",
      "outputs": [
        {
          "internalType": "uint96",
          "name": "amount",
          "type": "uint96"
        },
        {
          "internalType": "uint96",
          "name": "reward",
          "type": "uint96"
        },
        {
          "internalType": "uint64",
          "name": "unlockTime",
          "type": "uint64"
        },
        {
          "internalType": "uint256",
          "name": "rewardDebt",
          "type": "uint256"
        }
      ],
      "stateMutability": "view",
      "type": "function"
    },
    {
      "inputs": [
        {
          "internalType": "address",
          "name": "",
          "type": "address"
        }
      ],
      "name": "volume",
      "outputs": [
        {
          "internalType": "uint256",
          "name": "",
          "type": "uint256"
        }
      ],
      "stateMutability": "view",
      "type": "function"
    },
    {
      "inputs": [
        {
          "internalType": "address",
          "name": "",
          "type": "address"
        }
      ],
      "name": "volumeUpdaters",
      "outputs": [
        {
          "internalType": "bool",
          "name": "",
          "type": "bool"
        }
      ],
      "stateMutability": "view",
      "type": "function"
    },
    {
      "inputs": [
        {
          "internalType": "bool",
          "name": "isLocked",
          "type": "bool"
        },
        {
          "internalType": "uint96",
          "name": "amount",
          "type": "uint96"
        },
        {
          "internalType": "address",
          "name": "recipient",
          "type": "address"
        }
      ],
      "name": "withdraw",
      "outputs": [
        {
          "internalType": "uint96",
          "name": "ESEReceived",
          "type": "uint96"
        }
      ],
      "stateMutability": "nonpayable",
      "type": "function"
    }
  ],
  "bytecode": "0x60e06040526276a7006007600c6101000a81548167ffffffffffffffff021916908367ffffffffffffffff1602179055503480156200003c575f80fd5b506040516200550438038062005504833981810160405281019062000062919062000ae7565b6200007e67519d4578c3fbb13860c01b620009a060201b60201c565b6200009a67c11cb9d7a76c081860c01b620009a060201b60201c565b620000b667408e6c2e88aeb70f60c01b620009a060201b60201c565b5f73ffffffffffffffffffffffffffffffffffffffff168473ffffffffffffffffffffffffffffffffffffffff161480156200010a57506200010967a7a6e87f7a58873260c01b620009a360201b60201c565b5b806200016657505f73ffffffffffffffffffffffffffffffffffffffff168273ffffffffffffffffffffffffffffffffffffffff161480156200016557506200016467753a4dcff6eb408c60c01b620009a360201b60201c565b5b5b15620001ba576200018867c16a29a643e4975f60c01b620009a060201b60201c565b6040517f12c1701b00000000000000000000000000000000000000000000000000000000815260040160405180910390fd5b620001d667c892769b29878d8060c01b620009a060201b60201c565b620001f2679416cfb6e07615b960c01b620009a060201b60201c565b6200020e67dc238aaf82d5af9260c01b620009a060201b60201c565b5f83511480156200023757506200023667ba2bb0138de3db5660c01b620009a360201b60201c565b5b80620002695750600a83511180156200026857506200026767138f8f4cb25ba17960c01b620009a360201b60201c565b5b5b15620002bd576200028b675acbadc5411ac29a60c01b620009a060201b60201c565b6040517f171f015100000000000000000000000000000000000000000000000000000000815260040160405180910390fd5b620002d967bb0af2e897db02de60c01b620009a060201b60201c565b620002f56704f8ee589843913860c01b620009a060201b60201c565b62000311672f16bf3bc049b6d560c01b620009a060201b60201c565b5f5b8351811015620008195762000339676179e95d61d7f59c60c01b620009a060201b60201c565b62000355679bcfdc2324135af660c01b620009a060201b60201c565b5f8482815181106200036c576200036b62000c1a565b5b602002602001015190506200039267dc1af7edc506b7cd60c01b620009a060201b60201c565b620003ae670d791af1767015fc60c01b620009a060201b60201c565b5f82146200069757620003d26766304d9aec89d73860c01b620009a060201b60201c565b620003ee6766e5efc209c1b7b060c01b620009a060201b60201c565b6200040a67cc567de211edd5d260c01b620009a060201b60201c565b62000414620009ef565b6200042f667dbca1f43d1a4b60c01b620009a060201b60201c565b85600184038151811062000448576200044762000c1a565b5b602002602001015190506200046e67c9f9eb9e8a60d75960c01b620009a060201b60201c565b6200048a67ccbd8078b58c721e60c01b620009a060201b60201c565b815f0151815f015110620004e657620004b467174a80e5fb06031460c01b620009a060201b60201c565b6040517f09ebd95400000000000000000000000000000000000000000000000000000000815260040160405180910390fd5b6200050267c4c832d251554a9b60c01b620009a060201b60201c565b6200051e679cb87c2f3b71914e60c01b620009a060201b60201c565b6200053a67584a9a005fc5ca4460c01b620009a060201b60201c565b816020015167ffffffffffffffff16816020015167ffffffffffffffff161115620005ad576200057b67296531b13a617b9760c01b620009a060201b60201c565b6040517f22be228400000000000000000000000000000000000000000000000000000000815260040160405180910390fd5b620005c96790999ded115f527760c01b620009a060201b60201c565b620005e567dd857318f3bac02d60c01b620009a060201b60201c565b62000601674ec11dd1c065458c60c01b620009a060201b60201c565b816040015167ffffffffffffffff16816040015167ffffffffffffffff1611156200067457620006426721b5b5fa5fc8308f60c01b620009a060201b60201c565b6040517f22be228400000000000000000000000000000000000000000000000000000000815260040160405180910390fd5b62000690674626a1a0398c6bef60c01b620009a060201b60201c565b50620006b4565b620006b367bf1fea5f84ffe71960c01b620009a060201b60201c565b5b620006d067308ebbb224710eae60c01b620009a060201b60201c565b620006ec676c909d2d9b35719160c01b620009a060201b60201c565b5f600260018160018154018082558091505003905f5260205f2090600202019050620007296777d41f18e80a03a160c01b620009a060201b60201c565b815f0151815f0181905550620007506767ea7dc95a56bf6360c01b620009a060201b60201c565b8160200151816001015f801515151581526020019081526020015f205f6101000a81548167ffffffffffffffff021916908367ffffffffffffffff160217905550620007ad6771bbd926ebf9343a60c01b620009a060201b60201c565b8160400151816001015f60011515151581526020019081526020015f205f6101000a81548167ffffffffffffffff021916908367ffffffffffffffff1602179055506200080b67e3e8baf2c241f84d60c01b620009a060201b60201c565b826001019250505062000313565b5062000836678d6de51a37a8a9e560c01b620009a060201b60201c565b8373ffffffffffffffffffffffffffffffffffffffff1660808173ffffffffffffffffffffffffffffffffffffffff1681525050620008866785a6297839c89c2960c01b620009a060201b60201c565b8173ffffffffffffffffffffffffffffffffffffffff1660a08173ffffffffffffffffffffffffffffffffffffffff1681525050620008d667f6f5e27c1d39d6b360c01b620009a060201b60201c565b8173ffffffffffffffffffffffffffffffffffffffff166375b238fc6040518163ffffffff1660e01b8152600401602060405180830381865afa15801562000920573d5f803e3d5ffd5b505050506040513d601f19601f8201168201806040525081019062000946919062000c2e565b60c081815250506200096967b66bf85e988cbb3960c01b620009a060201b60201c565b6200098567ecd5ce45e737293b60c01b620009a060201b60201c565b6200099681620009ad60201b60201c565b5050505062000c49565b50565b5f60019050919050565b805f806101000a81548173ffffffffffffffffffffffffffffffffffffffff021916908373ffffffffffffffffffffffffffffffffffffffff16021790555050565b60405180606001604052805f81526020015f67ffffffffffffffff1681526020015f67ffffffffffffffff1681525090565b60018060a01b038116811462000a35575f80fd5b50565b5f8151905062000a488162000a21565b919050565b634e487b7160e01b5f52604160045260245ffd5b5f60405190506060810181811060018060401b038211171562000a895762000a8862000a4d565b5b806040525090565b5f6040519050601f19601f830116810181811060018060401b038211171562000abf5762000abe62000a4d565b5b8060405250919050565b5f8151905060018060401b038116811462000ae2575f80fd5b919050565b5f805f806080858703121562000afb575f80fd5b845162000b088162000a21565b8094505060208086015160018060401b038082111562000b26575f80fd5b818801915088601f83011262000b3a575f80fd5b81518181111562000b505762000b4f62000a4d565b5b62000b60848260051b0162000a91565b915081818352848301925060608581840286010192508b83111562000b83575f80fd5b85850194505b8285101562000be95780858d03121562000ba2575f8081fd5b62000bac62000a61565b8551815262000bbd87870162000ac9565b87820152604062000bd081880162000ac9565b8183015250808552508584019350808501945062000b89565b81985062000bfa60408c0162000a38565b975062000c09818c0162000a38565b965050505050505092959194509250565b634e487b7160e01b5f52603260045260245ffd5b5f6020828403121562000c3f575f80fd5b8151905092915050565b60805160a05160c05161483c62000cc85f395f8181610df3015281816115d60152818161183f01528181611bcc0152611ecf01525f8181610db70152818161180301528181611b9001528181611e930152612eaa01525f81816115fa0152818161269a01528181612c43015281816134100152613780015261483c5ff3fe608060405234801561000f575f80fd5b506004361061016a575f3560e01c806393d3e57b116100cb578063e4ac768b1161007f578063f39185e611610064578063f39185e6146103e3578063fdcb6068146103ff578063ffc84f491461041d5761016a565b8063e4ac768b146103ab578063e77abc2e146103c75761016a565b8063a83f5890116100b0578063a83f589014610341578063adeabba91461035d578063ce1b815f1461038d5761016a565b806393d3e57b146102e1578063a267c2c4146103115761016a565b8063586d533c1161012257806375b238fc1161010757806375b238fc14610287578063764bd0c5146102a55780637d882097146102c35761016a565b8063586d533c146102275780636dda34db146102575761016a565b8063443a739711610153578063443a7397146101a85780635639fd47146101c4578063572b6c05146101f75761016a565b80630fb5a6b41461016e5780633f50adf11461018c575b5f80fd5b61017661044d565b6040516101839190613fcd565b60405180910390f35b6101a660048036038101906101a19190614035565b610467565b005b6101c260048036038101906101bd9190614066565b610d65565b005b6101de60048036038101906101d99190614097565b6110b7565b6040516101ee94939291906140cc565b60405180910390f35b610211600480360381019061020c9190614066565b61112f565b60405161021e919061410d565b60405180910390f35b610241600480360381019061023c9190614097565b611186565b60405161024e919061411f565b60405180910390f35b610271600480360381019061026c919061413d565b61145b565b60405161027e9190614157565b60405180910390f35b61028f6115d4565b60405161029c9190614167565b60405180910390f35b6102ad6115f8565b6040516102ba9190614177565b60405180910390f35b6102cb61161c565b6040516102d8919061411f565b60405180910390f35b6102fb60048036038101906102f69190614066565b611639565b604051610308919061410d565b60405180910390f35b61032b6004803603810190610326919061413d565b611656565b604051610338919061419d565b60405180910390f35b61035b60048036038101906103569190614066565b6117b1565b005b61037760048036038101906103729190614066565b611b02565b6040516103849190614157565b60405180910390f35b610395611b17565b6040516103a291906141d2565b60405180910390f35b6103c560048036038101906103c09190614217565b611b3e565b005b6103e160048036038101906103dc9190614281565b611e41565b005b6103fd60048036038101906103f891906142f3565b612628565b005b610407612ea8565b6040516104149190614384565b60405180910390f35b610437600480360381019061043291906143aa565b612ecc565b604051610444919061411f565b60405180910390f35b6007600c9054906101000a900467ffffffffffffffff1681565b61047b6756957ff1d3b2efc660c01b61398f565b61048f6702fcc9692d6ae92660c01b61398f565b6104a36752f1ef85c8b05c5260c01b61398f565b5f151560015f3373ffffffffffffffffffffffffffffffffffffffff1673ffffffffffffffffffffffffffffffffffffffff1681526020019081526020015f205f9054906101000a900460ff1615150361053d5761050b67767468367b70a95060c01b61398f565b6040517f0ca16f7800000000000000000000000000000000000000000000000000000000815260040160405180910390fd5b61055167e6de7a38dd7e25d160c01b61398f565b61056567c5bf05824011469f60c01b61398f565b610579675e0d53867fae225660c01b61398f565b5f60035f8373ffffffffffffffffffffffffffffffffffffffff1673ffffffffffffffffffffffffffffffffffffffff1681526020019081526020015f205490506105ce67539159c2679a40da60c01b61398f565b6105e2675dea8e0efd8bfaaf60c01b61398f565b5f6105f767dd946f198b8bd97e60c01b61398f565b836bffffffffffffffffffffffff168201905061061e67d964ab5b67ec9b2460c01b61398f565b61063267940e9d377aeb623960c01b61398f565b5f61063c8361145b565b9050610652676b6429955d06395e60c01b61398f565b61066667e5801e92ba865cae60c01b61398f565b5f6106708361145b565b905061068667cedf5b436a558abd60c01b61398f565b61069a673c74aefa91ccc4d160c01b61398f565b5f60045f801515151581526020019081526020015f205f8773ffffffffffffffffffffffffffffffffffffffff1673ffffffffffffffffffffffffffffffffffffffff1681526020019081526020015f20905061070167f8d92c7525fc1eab60c01b61398f565b61071567747331093f89192060c01b61398f565b5f815f015f9054906101000a90046bffffffffffffffffffffffff166bffffffffffffffffffffffff16905061075567b72d7854b773acb760c01b61398f565b61076967545d58b236e48f0c60c01b61398f565b5f81146109a3576107846714f04b514a85801060c01b61398f565b6107986725a7a3a7dd822a4560c01b61398f565b6107ac67ccf310a76be9347c60c01b61398f565b6107b65f85613992565b6107ca67739b3faac6c89f3960c01b61398f565b6107de6735d7ec030ccfe9bb60c01b61398f565b828414610989576107f967ae735b8b17290dd060c01b61398f565b61080d673eed416805423e1060c01b61398f565b61082167e8804da414ecdf8f60c01b61398f565b61082b5f84613992565b61083f679e723f11c8b24c3660c01b61398f565b61085367a10fffe10c8efd7460c01b61398f565b61086767e8e3c4e16678665660c01b61398f565b5f60055f801515151581526020019081526020015f205f8681526020019081526020015f205f9054906101000a90046bffffffffffffffffffffffff1660055f801515151581526020019081526020015f205f8681526020019081526020015f205f9054906101000a90046bffffffffffffffffffffffff160390506108f7675299d81a43a5b62b60c01b61398f565b61090b676e9ba8c65ee82bb160c01b61398f565b5f816bffffffffffffffffffffffff161461096e57610934675e4ee862a53b7d2460c01b61398f565b6109486702476da66f40eae660c01b61398f565b806bffffffffffffffffffffffff168202836001015f8282540192505081905550610983565b61098267b71bb843929a6e9760c01b61398f565b5b5061099e565b61099d671a9768289dc9aa1360c01b61398f565b5b6109b8565b6109b7677414a0400a42be0460c01b61398f565b5b6109cc67d1afb50b5211c96660c01b61398f565b6109e06763a3c08955dc3f6360c01b61398f565b5f60045f60011515151581526020019081526020015f205f8973ffffffffffffffffffffffffffffffffffffffff1673ffffffffffffffffffffffffffffffffffffffff1681526020019081526020015f209050610a48678a098de475e62e2960c01b61398f565b610a5c679fd3eaf6b1f0345760c01b61398f565b5f815f015f9054906101000a90046bffffffffffffffffffffffff166bffffffffffffffffffffffff169050610a9c67e226192f69cacd9b60c01b61398f565b610ab06781087053e265eedb60c01b61398f565b5f8114610cee57610acb67ae9816e86e11461e60c01b61398f565b610adf67d00537c5128e7b6e60c01b61398f565b610af367567c144744ce1e1060c01b61398f565b610afe600187613992565b610b12671f19c7dd7e3db57f60c01b61398f565b610b2667ba139f30e6303a7c60c01b61398f565b848614610cd457610b4167a0c0ee054bf39a5460c01b61398f565b610b55671119004b461e223060c01b61398f565b610b696731d17d06f7d6d80f60c01b61398f565b610b74600186613992565b610b8867c9095c987af0bc3660c01b61398f565b610b9c6737f68e44b903159760c01b61398f565b610bb0678b165b2d6424c39060c01b61398f565b5f60055f60011515151581526020019081526020015f205f8881526020019081526020015f205f9054906101000a90046bffffffffffffffffffffffff1660055f60011515151581526020019081526020015f205f8881526020019081526020015f205f9054906101000a90046bffffffffffffffffffffffff16039050610c4267b1beb8b9d20b237860c01b61398f565b610c56676ee48f7251acac4060c01b61398f565b5f816bffffffffffffffffffffffff1614610cb957610c7f6745a6da5e3685679560c01b61398f565b610c9367b3076edfbfeab4a360c01b61398f565b806bffffffffffffffffffffffff168202836001015f8282540192505081905550610cce565b610ccd67a91477b89f2a29e460c01b61398f565b5b50610ce9565b610ce867010f6497de4eda4c60c01b61398f565b5b610d03565b610d026707a0a208a878135960c01b61398f565b5b610d176770fd83c8634d9cac60c01b61398f565b8660035f8b73ffffffffffffffffffffffffffffffffffffffff1673ffffffffffffffffffffffffffffffffffffffff1681526020019081526020015f208190555050505050505050505050565b610d7967fb6ee03a54330adf60c01b61398f565b610d8d67c35de9cb95d6dc9f60c01b61398f565b610da167eb2f5b7239f95ad260c01b61398f565b610db567ce481ec4aaed5c9560c01b61398f565b7f000000000000000000000000000000000000000000000000000000000000000073ffffffffffffffffffffffffffffffffffffffff166391d148547f0000000000000000000000000000000000000000000000000000000000000000610e1a613bcc565b6040518363ffffffff1660e01b8152600401610e379291906143ee565b602060405180830381865afa158015610e52573d5f803e3d5ffd5b505050506040513d601f19601f82011682018060405250810190610e76919061441b565b610ec057610e8e67c50f88f07c66187760c01b61398f565b6040517fc183bcef00000000000000000000000000000000000000000000000000000000815260040160405180910390fd5b610ed4679f0dee98624731db60c01b61398f565b610ee8670fd24e3a6d4fe48860c01b61398f565b610efc6786eafa3666b56ab460c01b61398f565b610f10670e03da2f4d0c2fcf60c01b61398f565b610f2467e6653d4974f265ae60c01b61398f565b610f3867d186df479dd27d4b60c01b61398f565b60015f8273ffffffffffffffffffffffffffffffffffffffff1673ffffffffffffffffffffffffffffffffffffffff1681526020019081526020015f205f9054906101000a900460ff1615610fcd57610f9b67dbaebb3be8e4c23460c01b61398f565b6040517f87b38f7700000000000000000000000000000000000000000000000000000000815260040160405180910390fd5b610fe16732de71bdc5581d5760c01b61398f565b610ff567e47022ab455cd69560c01b61398f565b6001805f8373ffffffffffffffffffffffffffffffffffffffff1673ffffffffffffffffffffffffffffffffffffffff1681526020019081526020015f205f6101000a81548160ff02191690831515021790555061105d67a8aca39ea461ca9360c01b61398f565b61107167c4ebb161b565491c60c01b61398f565b8073ffffffffffffffffffffffffffffffffffffffff167f7257d24c2acadc447212ec9e171741cbf5ba10691439c768931a286a4f224ee160405160405180910390a250565b6004602052815f5260405f20602052805f5260405f205f9150915050805f015f9054906101000a90046bffffffffffffffffffffffff1690805f01600c9054906101000a90046bffffffffffffffffffffffff1690805f0160189054906101000a900467ffffffffffffffff16908060010154905084565b5f805f9054906101000a900473ffffffffffffffffffffffffffffffffffffffff1673ffffffffffffffffffffffffffffffffffffffff168273ffffffffffffffffffffffffffffffffffffffff16149050919050565b5f61119b67a7a0d63c5a31c1a460c01b61398f565b6111af67bed9fce58cab395c60c01b61398f565b6111c367aaa8a763ba53cb2760c01b61398f565b5f60045f851515151581526020019081526020015f205f8473ffffffffffffffffffffffffffffffffffffffff1673ffffffffffffffffffffffffffffffffffffffff1681526020019081526020015f20905061122a67710442fff8dc68c760c01b61398f565b61123e6731940d29716a904a60c01b61398f565b5f61128560035f8673ffffffffffffffffffffffffffffffffffffffff1673ffffffffffffffffffffffffffffffffffffffff1681526020019081526020015f205461145b565b905061129b677d01f76d2f6437e460c01b61398f565b6112af67025d929e0fd3170260c01b61398f565b6112c36760b9bc8ce97738ec60c01b61398f565b5f60055f871515151581526020019081526020015f205f8381526020019081526020015f205f9054906101000a90046bffffffffffffffffffffffff166bffffffffffffffffffffffff166002838154811061132257611321614440565b5b905f5260205f2090600202016001015f881515151581526020019081526020015f205f9054906101000a900467ffffffffffffffff1667ffffffffffffffff1660065f891515151581526020019081526020015f205f8581526020019081526020015f205f9054906101000a900467ffffffffffffffff1667ffffffffffffffff164203020190506113be6733b243382c6ff77660c01b61398f565b6113d267fea1dcdb15a80ede60c01b61398f565b825f01600c9054906101000a90046bffffffffffffffffffffffff166bffffffffffffffffffffffff16670de0b6b3a764000067ffffffffffffffff168460010154855f015f9054906101000a90046bffffffffffffffffffffffff166bffffffffffffffffffffffff168402038161144e5761144d61446d565b5b0401935050505092915050565b5f61147067c689580d46cab01f60c01b61398f565b611484672cf9192f5f58297a60c01b61398f565b61149867394112a87678438560c01b61398f565b6114ac675355f1d979d8afe660c01b61398f565b5f60016002805490500390506114cc67be17ef9f90dbec3960c01b61398f565b6114e067584d0e8443f701a660c01b61398f565b5f5b818110156115a1576114fe678dba27f00e7381ac60c01b61398f565b6115126794316b9cd089710860c01b61398f565b6002818154811061152657611525614440565b5b905f5260205f2090600202015f015484101561158257611550672b4b364dc6d1622260c01b61398f565b611564672be8d60235a92d8360c01b61398f565b61157867925328ad25e2c7bb60c01b61398f565b80925050506115cf565b611596675d147bf63d13e66760c01b61398f565b8060010190506114e2565b506115b667b2dd0c08e83b761760c01b61398f565b6115ca678a31d2c60f15c90e60c01b61398f565b809150505b919050565b7f000000000000000000000000000000000000000000000000000000000000000081565b7f000000000000000000000000000000000000000000000000000000000000000081565b60075f9054906101000a90046bffffffffffffffffffffffff1681565b6001602052805f5260405f205f915054906101000a900460ff1681565b61165e613f9b565b61167267081d1e44251909b260c01b61398f565b6116866726e2b1d5acb2a33360c01b61398f565b6002828154811061169a57611699614440565b5b905f5260205f2090600202015f0154815f0181815250506116c567586ae8a8105e3f2060c01b61398f565b600282815481106116d9576116d8614440565b5b905f5260205f2090600202016001015f801515151581526020019081526020015f205f9054906101000a900467ffffffffffffffff16816020019067ffffffffffffffff16908167ffffffffffffffff168152505061174267be2fdefbbb4c5fd260c01b61398f565b6002828154811061175657611755614440565b5b905f5260205f2090600202016001015f60011515151581526020019081526020015f205f9054906101000a900467ffffffffffffffff16816040019067ffffffffffffffff16908167ffffffffffffffff1681525050919050565b6117c567927ba980518f284360c01b61398f565b6117d967c35de9cb95d6dc9f60c01b61398f565b6117ed67eb2f5b7239f95ad260c01b61398f565b61180167ce481ec4aaed5c9560c01b61398f565b7f000000000000000000000000000000000000000000000000000000000000000073ffffffffffffffffffffffffffffffffffffffff166391d148547f0000000000000000000000000000000000000000000000000000000000000000611866613bcc565b6040518363ffffffff1660e01b81526004016118839291906143ee565b602060405180830381865afa15801561189e573d5f803e3d5ffd5b505050506040513d601f19601f820116820180604052508101906118c2919061441b565b61190c576118da67c50f88f07c66187760c01b61398f565b6040517fc183bcef00000000000000000000000000000000000000000000000000000000815260040160405180910390fd5b611920679f0dee98624731db60c01b61398f565b611934670fd24e3a6d4fe48860c01b61398f565b611948672f0ef87428d0b98160c01b61398f565b61195c67361cad15380f71a860c01b61398f565b61197067819f1774ea55e18660c01b61398f565b61198467de84c23ac1ae91d260c01b61398f565b60015f8273ffffffffffffffffffffffffffffffffffffffff1673ffffffffffffffffffffffffffffffffffffffff1681526020019081526020015f205f9054906101000a900460ff16611a18576119e6673ce3f0a49693fe1d60c01b61398f565b6040517f140d2e6400000000000000000000000000000000000000000000000000000000815260040160405180910390fd5b611a2c6725ff820d0905689060c01b61398f565b611a4067a7383192ab6fb32660c01b61398f565b5f60015f8373ffffffffffffffffffffffffffffffffffffffff1673ffffffffffffffffffffffffffffffffffffffff1681526020019081526020015f205f6101000a81548160ff021916908315150217905550611aa867b13a09dd20c65d0360c01b61398f565b611abc67b3a610811092818c60c01b61398f565b8073ffffffffffffffffffffffffffffffffffffffff167f7f4592154161245b30f64a97416a1dd131876b9223ac42f3e12d67d6c34dc80860405160405180910390a250565b6003602052805f5260405f205f915090505481565b5f805f9054906101000a900473ffffffffffffffffffffffffffffffffffffffff16905090565b611b5267e5b32fec334e132860c01b61398f565b611b6667c35de9cb95d6dc9f60c01b61398f565b611b7a67eb2f5b7239f95ad260c01b61398f565b611b8e67ce481ec4aaed5c9560c01b61398f565b7f000000000000000000000000000000000000000000000000000000000000000073ffffffffffffffffffffffffffffffffffffffff166391d148547f0000000000000000000000000000000000000000000000000000000000000000611bf3613bcc565b6040518363ffffffff1660e01b8152600401611c109291906143ee565b602060405180830381865afa158015611c2b573d5f803e3d5ffd5b505050506040513d601f19601f82011682018060405250810190611c4f919061441b565b611c9957611c6767c50f88f07c66187760c01b61398f565b6040517fc183bcef00000000000000000000000000000000000000000000000000000000815260040160405180910390fd5b611cad679f0dee98624731db60c01b61398f565b611cc1670fd24e3a6d4fe48860c01b61398f565b611cd567fedea094d9cbc64e60c01b61398f565b611ce967152c442ff4d7274860c01b61398f565b611cfd67b797333c1a891a6560c01b61398f565b611d11678fa3800b8aa0c0cb60c01b61398f565b63096601808167ffffffffffffffff161115611d6d57611d3b673cf8116d9b904a0360c01b61398f565b6040517f7616640100000000000000000000000000000000000000000000000000000000815260040160405180910390fd5b611d8167cedd7fdd2b599b7160c01b61398f565b611d9567efae5aa4318502e860c01b61398f565b611da96796127ac0439fe59260c01b61398f565b8067ffffffffffffffff166007600c9054906101000a900467ffffffffffffffff1667ffffffffffffffff167f545cb79c165238dec76913b579867509be38c57457a5e21ef93106edeb11834b60405160405180910390a3611e15676b986774676fbc5d60c01b61398f565b806007600c6101000a81548167ffffffffffffffff021916908367ffffffffffffffff16021790555050565b611e5567ba89c21236de65d760c01b61398f565b611e6967c35de9cb95d6dc9f60c01b61398f565b611e7d67eb2f5b7239f95ad260c01b61398f565b611e9167ce481ec4aaed5c9560c01b61398f565b7f000000000000000000000000000000000000000000000000000000000000000073ffffffffffffffffffffffffffffffffffffffff166391d148547f0000000000000000000000000000000000000000000000000000000000000000611ef6613bcc565b6040518363ffffffff1660e01b8152600401611f139291906143ee565b602060405180830381865afa158015611f2e573d5f803e3d5ffd5b505050506040513d601f19601f82011682018060405250810190611f52919061441b565b611f9c57611f6a67c50f88f07c66187760c01b61398f565b6040517fc183bcef00000000000000000000000000000000000000000000000000000000815260040160405180910390fd5b611fb0679f0dee98624731db60c01b61398f565b611fc4670fd24e3a6d4fe48860c01b61398f565b611fd867b5a3232fabafb5fb60c01b61398f565b611fec67f4e3821cda5f1bcc60c01b61398f565b61200067bfa6a6b3fc7a788560c01b61398f565b612014679fd19d92d1692dd960c01b61398f565b5f6002805490509050612031677b0da91cbb69eaef60c01b61398f565b61204567791ab2eee04cfb2660c01b61398f565b80858590501461209557612063675f38fd18be254e1a60c01b61398f565b6040517f171f015100000000000000000000000000000000000000000000000000000000815260040160405180910390fd5b6120a96763c95acee30b038960c01b61398f565b6120bd670685fdd9e779f89760c01b61398f565b6120d1670e532abb37d379be60c01b61398f565b808383905014612121576120ef67b028f66490d5e33d60c01b61398f565b6040517f171f015100000000000000000000000000000000000000000000000000000000815260040160405180910390fd5b61213567d958177e81a69b4560c01b61398f565b61214967f3e8617122f3ffbb60c01b61398f565b61215d67390cb9096329767060c01b61398f565b5f5b818110156121eb5761217b6753c0230c71d7fda860c01b61398f565b61218f67a68c39c55301baef60c01b61398f565b6121995f82613992565b6121ad67c6dfacb90536078a60c01b61398f565b6121c16712c126f9f2b3164b60c01b61398f565b6121cc600182613992565b6121e067081f77efba6d7a5f60c01b61398f565b80600101905061215f565b50612200672a102928b0efe89c60c01b61398f565b61221467c5c625983f6162bd60c01b61398f565b5f5b818110156125bb5761223267e2cf1dd6074bb4ed60c01b61398f565b612246673d38c50ba6046b0d60c01b61398f565b5f811461245857612261674c292c843bbe1e3260c01b61398f565b61227567a58702185d84070060c01b61398f565b61228967622e4a3588e85b4a60c01b61398f565b61229d673d62e23e1676f67760c01b61398f565b8585828181106122b0576122af614440565b5b90506020020160208101906122c59190614217565b67ffffffffffffffff168686600184038181106122e5576122e4614440565b5b90506020020160208101906122fa9190614217565b67ffffffffffffffff1611156123505761231e67c0c42fada62d7e2c60c01b61398f565b6040517f22be228400000000000000000000000000000000000000000000000000000000815260040160405180910390fd5b612364679f2b50038817167660c01b61398f565b61237867d0035403806471ea60c01b61398f565b61238c675050486d6b07579960c01b61398f565b83838281811061239f5761239e614440565b5b90506020020160208101906123b49190614217565b67ffffffffffffffff168484600184038181106123d4576123d3614440565b5b90506020020160208101906123e99190614217565b67ffffffffffffffff16111561243f5761240d67fc082cb316ec22b160c01b61398f565b6040517f22be228400000000000000000000000000000000000000000000000000000000815260040160405180910390fd5b61245367aab2bbefe7854b0060c01b61398f565b61246d565b61246c675faf80595984646460c01b61398f565b5b612481675d330919a2f7c72260c01b61398f565b85858281811061249457612493614440565b5b90506020020160208101906124a99190614217565b600282815481106124bd576124bc614440565b5b905f5260205f2090600202016001015f801515151581526020019081526020015f205f6101000a81548167ffffffffffffffff021916908367ffffffffffffffff1602179055506125186783019c4625e36a6e60c01b61398f565b83838281811061252b5761252a614440565b5b90506020020160208101906125409190614217565b6002828154811061255457612553614440565b5b905f5260205f2090600202016001015f60011515151581526020019081526020015f205f6101000a81548167ffffffffffffffff021916908367ffffffffffffffff1602179055506125b06795ced6488aa0bb2860c01b61398f565b806001019050612216565b506125d06726e3aa06b1d93bd760c01b61398f565b6125e467f44d1f1281bc3b8160c01b61398f565b7fbae765657af5c8138db72a088b635bef12d17b2c60f5d21b3103c4d03dc69e338585858560405161261994939291906144e7565b60405180910390a15050505050565b61263c676b7ddfed52f34b6760c01b61398f565b61265067da425855a409e36060c01b61398f565b612664677c76fce7b18bad2060c01b61398f565b5f61266d613bcc565b905061268367e66ca4bc5b446d2760c01b61398f565b6126976750469c61e201694360c01b61398f565b5f7f000000000000000000000000000000000000000000000000000000000000000090506126cf67b4ecf6c9b9f3e89960c01b61398f565b6126e36787aeda1d095c3eef60c01b61398f565b5f84849050146127eb576127016776703364fcb3229360c01b61398f565b61271567d67593d42e2f7f1360c01b61398f565b6127296795bea59787684ba360c01b61398f565b5f805f805f888881019061273d9190614519565b9450945094509450945061275b674be28214d0ba25f260c01b61398f565b61276f67b1b7955390b654f460c01b61398f565b8573ffffffffffffffffffffffffffffffffffffffff1663d505accf883088888888886040518863ffffffff1660e01b81526004016127b49796959493929190614567565b5f604051808303815f87803b1580156127cb575f80fd5b505af11580156127dd573d5f803e3d5ffd5b505050505050505050612800565b6127ff67506ed91237707e0560c01b61398f565b5b61281467a2444f8c33d2ff2260c01b61398f565b612828679c6ee9ca33d23afa60c01b61398f565b5f61286f60035f8573ffffffffffffffffffffffffffffffffffffffff1673ffffffffffffffffffffffffffffffffffffffff1681526020019081526020015f205461145b565b905061288567446e57f29146183960c01b61398f565b612899676620db7b0415834160c01b61398f565b6128a38782613992565b6128b767f6be98e8e276f08b60c01b61398f565b6128cb67b5dd0d07753d0eca60c01b61398f565b5f60055f891515151581526020019081526020015f205f8381526020019081526020015f205f9054906101000a90046bffffffffffffffffffffffff166bffffffffffffffffffffffff16905061292c67d4792200325c586f60c01b61398f565b612940673e0fcce3c5ba007360c01b61398f565b61295467030f24330bb4aad260c01b61398f565b5f60045f8a1515151581526020019081526020015f205f8673ffffffffffffffffffffffffffffffffffffffff1673ffffffffffffffffffffffffffffffffffffffff1681526020019081526020015f2090506129bb672d221448cc533c8160c01b61398f565b6129cf675795323662035d4160c01b61398f565b5f815f015f9054906101000a90046bffffffffffffffffffffffff169050612a0167e9bce821f537d5c260c01b61398f565b612a156706baf7fdd0ee319760c01b61398f565b5f816bffffffffffffffffffffffff161115612adf57612a3f677099c6aa932de25760c01b61398f565b612a536777e1fe96849fac6960c01b61398f565b670de0b6b3a764000067ffffffffffffffff168260010154826bffffffffffffffffffffffff1685020381612a8b57612a8a61446d565b5b04825f01600c8282829054906101000a90046bffffffffffffffffffffffff160192506101000a8154816bffffffffffffffffffffffff02191690836bffffffffffffffffffffffff160217905550612af4565b612af36761e014bda995db7760c01b61398f565b5b612b086795e651bce5c26dec60c01b61398f565b612b1c6721a9a1519d60f2c660c01b61398f565b5f896bffffffffffffffffffffffff161115612e5a57612b4667a63792646f7ab4c460c01b61398f565b612b5a675f63ef5417fadaca60c01b61398f565b8881019050612b736785d4a649a047a90760c01b61398f565b80825f015f6101000a8154816bffffffffffffffffffffffff02191690836bffffffffffffffffffffffff160217905550612bb8679534b3572c17802860c01b61398f565b8860075f8282829054906101000a90046bffffffffffffffffffffffff160192506101000a8154816bffffffffffffffffffffffff02191690836bffffffffffffffffffffffff160217905550612c19675ee6eb3558e41c0460c01b61398f565b612c2d67acc879efa1f04fb460c01b61398f565b612c8886308b6bffffffffffffffffffffffff167f000000000000000000000000000000000000000000000000000000000000000073ffffffffffffffffffffffffffffffffffffffff16613c01909392919063ffffffff16565b612c9c67c03bdf898078c28860c01b61398f565b612cb067388837d473c02d7560c01b61398f565b8915612dca57612cca67cb5f8fb597fd314c60c01b61398f565b612cde671555e7ed3739506460c01b61398f565b612cf267e45518b0926db39a60c01b61398f565b5f6007600c9054906101000a900467ffffffffffffffff1642019050612d226755003cb7cac529b260c01b61398f565b80835f0160186101000a81548167ffffffffffffffff021916908367ffffffffffffffff160217905550612d60677f40370115948ce660c01b61398f565b612d7467fe8c56ffc834959b60c01b61398f565b8673ffffffffffffffffffffffffffffffffffffffff167f5ddcce653204fe618b4f2097e3af9a165bb97b03d8486c6de3819faecf7396e58b83604051612dbc9291906145be565b60405180910390a250612e55565b612dde67d4108cd8927c3e3460c01b61398f565b612df26795b9c948ebf077d760c01b61398f565b612e06675ad971110986d38f60c01b61398f565b8573ffffffffffffffffffffffffffffffffffffffff167f2ccaa1179b3f18ca497fb512701599a6fb6b44425224a283eef7348383cdb5308a604051612e4c919061411f565b60405180910390a25b612e6f565b612e6e670e531636755574a960c01b61398f565b5b612e8367520dc100cd92011c60c01b61398f565b806bffffffffffffffffffffffff168302826001018190555050505050505050505050565b7f000000000000000000000000000000000000000000000000000000000000000081565b5f612ee167fb3450fe96994fea60c01b61398f565b612ef5675e079424601548c560c01b61398f565b612f096766d0114e80a4b4ec60c01b61398f565b5f73ffffffffffffffffffffffffffffffffffffffff168273ffffffffffffffffffffffffffffffffffffffff1603612f8257612f5067ee3f50bd9e1df45e60c01b61398f565b6040517f9c8d2cd200000000000000000000000000000000000000000000000000000000815260040160405180910390fd5b612f9667f09caf8194aa96eb60c01b61398f565b612faa678dec734bbab3e0d860c01b61398f565b612fbe678c66fab23bf17b1660c01b61398f565b5f612fc7613bcc565b9050612fdd67dabda09899e1fd3160c01b61398f565b612ff167fc673e0786a83b8060c01b61398f565b5f60045f871515151581526020019081526020015f205f8373ffffffffffffffffffffffffffffffffffffffff1673ffffffffffffffffffffffffffffffffffffffff1681526020019081526020015f20905061305867a6240267e7e173c960c01b61398f565b61306c67f9bea9599aba52e360c01b61398f565b8580156130995750805f0160189054906101000a900467ffffffffffffffff1667ffffffffffffffff1642105b156130e4576130b267bb3c9d095beb3f0560c01b61398f565b6040517f442c667900000000000000000000000000000000000000000000000000000000815260040160405180910390fd5b6130f867e28231fac6ee048560c01b61398f565b61310c6783a3336d3eb6f5f560c01b61398f565b61312067e1eca539d85d0b0860c01b61398f565b5f815f015f9054906101000a90046bffffffffffffffffffffffff169050613152671c28f003fb13ef7f60c01b61398f565b61316667349639475ade625160c01b61398f565b806bffffffffffffffffffffffff16866bffffffffffffffffffffffff1611156131d05761319e67dd234f7d6932125b60c01b61398f565b6040517ff1bc94d200000000000000000000000000000000000000000000000000000000815260040160405180910390fd5b6131e467d9fb303b56f51dc660c01b61398f565b6131f8671b5011f7d060fafa60c01b61398f565b61320c6705953a7263996b6560c01b61398f565b5f61325360035f8673ffffffffffffffffffffffffffffffffffffffff1673ffffffffffffffffffffffffffffffffffffffff1681526020019081526020015f205461145b565b905061326967762db2b322aabaae60c01b61398f565b61327d67e371bf2389a7126660c01b61398f565b6132878882613992565b61329b67e86e8852c677ac0260c01b61398f565b6132af67f54ff59d9f1deea060c01b61398f565b5f60055f8a1515151581526020019081526020015f205f8381526020019081526020015f205f9054906101000a90046bffffffffffffffffffffffff166bffffffffffffffffffffffff16905061331067c5b2585c67db6b9460c01b61398f565b61332467bc4fc7b15eb8585d60c01b61398f565b61333867e4ce6971a279a53260c01b61398f565b5f845f01600c9054906101000a90046bffffffffffffffffffffffff166bffffffffffffffffffffffff16670de0b6b3a764000067ffffffffffffffff168660010154866bffffffffffffffffffffffff168502038161339b5761339a61446d565b5b040190506133b367bae7a673ca6972ec60c01b61398f565b6133c7676fdb3568f7eeae2c60c01b61398f565b5f60075f9054906101000a90046bffffffffffffffffffffffff1690506133f867ce4990fbc815a96960c01b61398f565b61340c67819bd7920886f94360c01b61398f565b5f817f000000000000000000000000000000000000000000000000000000000000000073ffffffffffffffffffffffffffffffffffffffff166370a08231306040518263ffffffff1660e01b815260040161346791906141d2565b602060405180830381865afa158015613482573d5f803e3d5ffd5b505050506040513d601f19601f820116820180604052508101906134a691906145ed565b0390506134bd67a1e1130d05e27c0660c01b61398f565b6134d167aa789da75e37ee9060c01b61398f565b826bffffffffffffffffffffffff16816bffffffffffffffffffffffff16101561356d5761350967f6dd5ff9be951b3560c01b61398f565b61351d676e745aad31198f5960c01b61398f565b808303875f01600c6101000a8154816bffffffffffffffffffffffff02191690836bffffffffffffffffffffffff16021790555061356567db0e643fa467489760c01b61398f565b8092506135c8565b613581672635994ed71d4f4560c01b61398f565b6135956774d4eee966fa8da460c01b61398f565b5f875f01600c6101000a8154816bffffffffffffffffffffffff02191690836bffffffffffffffffffffffff1602179055505b6135dc67bf998b45be3540d660c01b61398f565b6135f06708efa760633f797760c01b61398f565b5f8b6bffffffffffffffffffffffff1611156136c35761361a67d1401a9bdfb8fe5060c01b61398f565b61362e676e83bda0eaa7246260c01b61398f565b8a860395506136476789fd5ca6fe4d7b0760c01b61398f565b85875f015f6101000a8154816bffffffffffffffffffffffff02191690836bffffffffffffffffffffffff16021790555061368c67033c77222eabe82a60c01b61398f565b8a820360075f6101000a8154816bffffffffffffffffffffffff02191690836bffffffffffffffffffffffff1602179055506136d8565b6136d7678e94310e5fa5d18160c01b61398f565b5b6136ec6772ab6dd20856b24760c01b61398f565b8a8301985061370567c60b8a03cf69434360c01b61398f565b6137196737e7a2e62573276660c01b61398f565b5f896bffffffffffffffffffffffff16111561393e5761374367c245ad028737865160c01b61398f565b613757677fdfc2693979570160c01b61398f565b61376b6707ba3165e298a14060c01b61398f565b6137c48a8a6bffffffffffffffffffffffff167f000000000000000000000000000000000000000000000000000000000000000073ffffffffffffffffffffffffffffffffffffffff16613c8a9092919063ffffffff16565b6137d86787eb6c3b335568d860c01b61398f565b6137ec67ae501117c5597b7560c01b61398f565b8b1561389857613806675bbc1e897d509af660c01b61398f565b61381a676913484e5fe2895f60c01b61398f565b61382e678c2099e425fbfda260c01b61398f565b8973ffffffffffffffffffffffffffffffffffffffff168873ffffffffffffffffffffffffffffffffffffffff167ff3c33d3725075fd1322294e0dfa6208518b94da96056142615164b28c929fb3c8b60405161388b919061411f565b60405180910390a3613939565b6138ac6742e18684a85ab4da60c01b61398f565b6138c06772092782316459f760c01b61398f565b6138d3669f9627c3f9a65360c01b61398f565b8973ffffffffffffffffffffffffffffffffffffffff168873ffffffffffffffffffffffffffffffffffffffff167fff241160df1a450cec6805867d3cd5223fe6bc96a41e0ec0f8c0a31f2e9e54088b604051613930919061411f565b60405180910390a35b613953565b613952674e6dc8e35e1a66e060c01b61398f565b5b61396767091086f1e3516ae960c01b61398f565b856bffffffffffffffffffffffff168402876001018190555050505050505050509392505050565b50565b6139a667dd92cfa7923ba7bf60c01b61398f565b6139ba67eded3dba3e7506c860c01b61398f565b6139ce67d2162c9d0271009260c01b61398f565b5f60065f841515151581526020019081526020015f205f8381526020019081526020015f205f9054906101000a900467ffffffffffffffff169050613a1d678513b8f452d2550360c01b61398f565b613a3167cbe48a98f181e20e60c01b61398f565b8067ffffffffffffffff164203613a7057613a56674860aebac358982360c01b61398f565b613a6a679462517822ad29e060c01b61398f565b50613bc8565b613a84673df6e7e82993a70c60c01b61398f565b613a98675938a48f0ee5365060c01b61398f565b60028281548110613aac57613aab614440565b5b905f5260205f2090600202016001015f841515151581526020019081526020015f205f9054906101000a900467ffffffffffffffff1667ffffffffffffffff168167ffffffffffffffff1642030260055f851515151581526020019081526020015f205f8481526020019081526020015f205f8282829054906101000a90046bffffffffffffffffffffffff160192506101000a8154816bffffffffffffffffffffffff02191690836bffffffffffffffffffffffff160217905550613b7c67cbf493f9878174f360c01b61398f565b4260065f851515151581526020019081526020015f205f8481526020019081526020015f205f6101000a81548167ffffffffffffffff021916908367ffffffffffffffff160217905550505b5050565b5f60145f36905010158015613be65750613be53361112f565b5b15613bfa57601436033560601c9050613bfe565b3390505b90565b613c84846323b872dd60e01b858585604051602401613c2293929190614607565b604051602081830303815290604052907bffffffffffffffffffffffffffffffffffffffffffffffffffffffff19166020820180517bffffffffffffffffffffffffffffffffffffffffffffffffffffffff8381831617835250505050613d10565b50505050565b613d0b8363a9059cbb60e01b8484604051602401613ca992919061463f565b604051602081830303815290604052907bffffffffffffffffffffffffffffffffffffffffffffffffffffffff19166020820180517bffffffffffffffffffffffffffffffffffffffffffffffffffffffff8381831617835250505050613d10565b505050565b5f613d71826040518060400160405280602081526020017f5361666545524332303a206c6f772d6c6576656c2063616c6c206661696c65648152508573ffffffffffffffffffffffffffffffffffffffff16613dd69092919063ffffffff16565b90505f81511480613d92575080806020019051810190613d91919061441b565b5b613dd1576040517f08c379a0000000000000000000000000000000000000000000000000000000008152600401613dc89061466c565b60405180910390fd5b505050565b6060613de484845f85613ded565b90509392505050565b606082471015613e32576040517f08c379a0000000000000000000000000000000000000000000000000000000008152600401613e29906146cf565b60405180910390fd5b5f808673ffffffffffffffffffffffffffffffffffffffff168587604051613e5a919061475a565b5f6040518083038185875af1925050503d805f8114613e94576040519150601f19603f3d011682016040523d82523d5f602084013e613e99565b606091505b5091509150613eaa87838387613eb6565b92505050949350505050565b60608315613f17575f835103613f0f57613ecf85613f2a565b613f0e576040517f08c379a0000000000000000000000000000000000000000000000000000000008152600401613f0590614777565b60405180910390fd5b5b829050613f22565b613f218383613f4c565b5b949350505050565b5f808273ffffffffffffffffffffffffffffffffffffffff163b119050919050565b5f82511115613f5e5781518083602001fd5b806040517f08c379a0000000000000000000000000000000000000000000000000000000008152600401613f9291906147b4565b60405180910390fd5b60405180606001604052805f81526020015f67ffffffffffffffff1681526020015f67ffffffffffffffff1681525090565b5f60208201905067ffffffffffffffff8316825292915050565b5f813590506bffffffffffffffffffffffff81168114614005575f80fd5b919050565b5f8135905073ffffffffffffffffffffffffffffffffffffffff81168114614030575f80fd5b919050565b5f8060408385031215614046575f80fd5b61404f83613fe7565b915061405d6020840161400a565b90509250929050565b5f60208284031215614076575f80fd5b61407f8261400a565b905092915050565b8015158114614094575f80fd5b50565b5f80604083850312156140a8575f80fd5b82356140b381614087565b809250506140c36020840161400a565b90509250929050565b5f6080820190506bffffffffffffffffffffffff808716835280861660208401525067ffffffffffffffff8416604083015282606083015295945050505050565b5f602082019050821515825292915050565b5f6020820190506bffffffffffffffffffffffff8316825292915050565b5f6020828403121561414d575f80fd5b8135905092915050565b5f60208201905082825292915050565b5f60208201905082825292915050565b5f60208201905073ffffffffffffffffffffffffffffffffffffffff8316825292915050565b5f60608201905082518252602083015167ffffffffffffffff8082166020850152806040860151166040850152505092915050565b5f60208201905073ffffffffffffffffffffffffffffffffffffffff8316825292915050565b5f8135905067ffffffffffffffff81168114614212575f80fd5b919050565b5f60208284031215614227575f80fd5b614230826141f8565b905092915050565b5f8083601f840112614248575f80fd5b8235905067ffffffffffffffff811115614260575f80fd5b6020830191508360208260051b850101111561427a575f80fd5b9250929050565b5f805f8060408587031215614294575f80fd5b843567ffffffffffffffff808211156142ab575f80fd5b6142b788838901614238565b92508096505081945060208701359150808211156142d3575f80fd5b506142e087828801614238565b9150809350508091505092959194509250565b5f805f8060608587031215614306575f80fd5b843561431181614087565b8094505061432160208601613fe7565b9250604085013567ffffffffffffffff8082111561433d575f80fd5b818701915087601f830112614350575f80fd5b81358181111561435e575f80fd5b88602082850101111561436f575f80fd5b60208301945080935050505092959194509250565b5f60208201905073ffffffffffffffffffffffffffffffffffffffff8316825292915050565b5f805f606084860312156143bc575f80fd5b83356143c781614087565b809350506143d760208501613fe7565b91506143e56040850161400a565b90509250925092565b5f60408201905083825273ffffffffffffffffffffffffffffffffffffffff831660208301529392505050565b5f6020828403121561442b575f80fd5b815161443681614087565b8091505092915050565b7f4e487b71000000000000000000000000000000000000000000000000000000005f52603260045260245ffd5b7f4e487b71000000000000000000000000000000000000000000000000000000005f52601260045260245ffd5b8183525f60208085019450825f5b858110156144da5767ffffffffffffffff6144c2836141f8565b168752828701965082820191506001810190506144a8565b5050508390509392505050565b604081525f6144fa60408301868861449a565b828103602084015261450d81858761449a565b91505095945050505050565b5f805f805f60a0868803121561452d575f80fd5b8535945060208601359350604086013560ff8116811461454b575f80fd5b8093505060608601359150608086013590509295509295909350565b5f60e08201905073ffffffffffffffffffffffffffffffffffffffff808a16835280891660208401525086604083015285606083015260ff851660808301528360a08301528260c083015298975050505050505050565b5f6040820190506bffffffffffffffffffffffff8416825267ffffffffffffffff831660208301529392505050565b5f602082840312156145fd575f80fd5b8151905092915050565b5f60608201905073ffffffffffffffffffffffffffffffffffffffff8086168352808516602084015250826040830152949350505050565b5f60408201905073ffffffffffffffffffffffffffffffffffffffff841682528260208301529392505050565b60208152602a60208201527f5361666545524332303a204552433230206f7065726174696f6e20646964206e60408201527f6f7420737563636565640000000000000000000000000000000000000000000060608201525f608082019050919050565b60208152602660208201527f416464726573733a20696e73756666696369656e742062616c616e636520666f60408201527f722063616c6c000000000000000000000000000000000000000000000000000060608201525f608082019050919050565b5f5b8381101561474f578082015181840152602081019050614734565b505f83830152505050565b5f825161476b818460208701614732565b80830191505092915050565b60208152601d60208201527f416464726573733a2063616c6c20746f206e6f6e2d636f6e747261637400000060408201525f606082019050919050565b602081525f82518060208401526147d2816040850160208701614732565b60407fffffffffffffffffffffffffffffffffffffffffffffffffffffffffffffffe0601f8301168401019150509291505056fea26469706673582212208fffbc01e4a7dd8fea5c786ff950bedc86b7486ff6d1edfc3782340c004533a764736f6c63430008150033",
  "linkReferences": {},
  "deployedLinkReferences": {}
}